S00D000073656E736F722E7333374D
S21400600000100020C1790000D1C60000D5C60000EF
S214006010F1C80000D9C60000E1C60000BF79000044
S214006020BF790000BF790000BF790000BF7900008B
S214006030E5C60000BF790000BF790000BF79000008
S214006040BF790000BF790000BF790000BF7900006B
S214006050BF790000BF79000049840000B9850000C0
S214006060BF790000BF790000BF790000BF7900004B
S214006070F9D80000BF790000BF790000C56E0000A7
S214006080B56E0000BF790000BF790000BF79000040
S214006090BF790000BF790000BF790000BF7900001B
S2140060A0BF790000E9800000BD800000BF790000D5
S2140060B0BF790000E9690100BF790000E9740100BA
S2140060C09974010095740100B56B0100E574010038
S2140060D09D740100BD740100A174010045750100A6
S2140060E0617E0100615B01002D750100BF79000033
S2140060F0BF790000BF790000BF790000BF790000BB
S214006100BF790000BF790000BF790000BF790000AA
S214006110BF790000BF790000BF790000BF7900009A
S214006120BF790000BF790000BF790000BF7900008A
S214006130BF790000BF790000BF790000BF7900007A
S21400614010B5054C237833B9044B13B1044800E06E
S21400615000BF0123237010BD2C1700200000000094
S2140061600868020008B5034B1BB10349034800E06A
S21400617000BF08BD000000003017002008680200BD
S214006180154B002B08BF134B9D46A3F5803A002104
S2140061908B460F461348144A121A19F0B8F90F4BDB
S2140061A0002B00D098470E4B002B00D098470020BD
S2140061B0002104000D000D48002802D00C4800E025
S2140061C000BF19F029F92000290000F00FFD19F092
S2140061D00FF900BF000008000010002000000000BB
S2140061E0000000002C1700203032002000000000C5
S2140061F0000000002DE9F04383B00746894690462C
S2140062001E461E4C002323701D4D4CF20F012846DF
S21400621013F03EFC23780233DBB2581CC0B2207069
S21400622005F8039008221749284419F04CF92078FD
S2140062300830C0B22070144B1988284413F028FC8C
S21400624023780233DBB2237076B90C4B1B780F4AE7
S214006250127801920A4A009200221146384611F03E
S214006260CDFE03B0BDE8F0833246414628461844CA
S21400627019F029F9227816442670E6E761170020FF
S2140062804C170020A3290020B61100209C100020E7
S21400629030B585B011F0A8FE40B1284B1A884FF6ED
S2140062A0FF739A4202D0264B1B783BB9254B1B68DE
S2140062B00020187008F098FA05B030BD002300934F
S2140062C001936B4601AA40211F48006801F02FFB8E
S2140062D0C0B9009A02A9012013F0E2FB019A03A9B3
S2140062E0012013F0DDFB154C08230DEB03020421FF
S2140062F02088FFF77FFF05462188144809F09CFE9A
S21400630000240EE0009A0199114809F095FED3E7A3
S21400631004AB234413F8081C0E4809F08DFE013424
S214006320E4B2072CF4D929460B4809F085FE0B4B3E
S2140063301988044B186812F020F8BDE79A10002060
S21400634048170020282D0020E0100020141002001E
S21400635028100200541002000810020098100020B6
S214006360014B1878704700BF6617002038B5837950
S2140063700C2B00D838BD0446806813F07DFB4CF229
S2140063800F039842F6D1A3689B78042B60D8DFE809
S21400639003F0030834394B006188304809F04CFE9E
S2140063A0E8E761882E4809F047FE2E4B1A884FF61C
S2140063B0FF739A4202D02C4B1B78D3B900231A469F
S2140063C002211846FFF716FF04460246002127481A
S2140063D009F032FE002CCDD10023224A1380224A37
S2140063E01370234B1B78042BC4D1012008F0FCF952
S2140063F0C0E7002008F0F8F9BCE761881D4809F0FE
S2140064001BFEB7E761881C4809F016FE6288154B2C
S2140064101B889A42AED1144B01221A70FFF738FF40
S214006420002008F0E1F9A5E76188144809F004FEA9
S2140064300D2506E0A368595D114809F0FDFD0135FC
S214006440EDB2A379AB42F5D80E4809F0F5FD91E719
S21400645061880D4809F0F0FD8CE700BFC40E02000D
S214006460E80E02009A10002048170020040F0200D1
S2140064707E290020280F0200480F0200680F020045
S214006480800F020058240200840F020018B9154B32
S21400649000221A70704710B50C460146124809F0E3
S2140064A0CBFD104A137801331370A3790C2B00D858
S2140064B010BDA06813F0E0FA4CF20F039842F7D133
S2140064C0A3689B78042BF3D1064B1B78092BEFD9D6
S2140064D0064C2188064809F0AFFD4FF6FF7323806F
S2140064E0E6E700BF63170020A80F02009A100020FE
S2140064F0B40F020008B511F077FD18B9034801F093
S2140065002FFD08BD014801F026FDFAE774220200BF
S21400651008B518B9044809F08FFD08BD01460348C0
S21400652009F08AFDF9E700BFAC0E0200840E0200F7
S21400653000B583B0009313460A460146024809F0A8
S2140065407BFD03B05DF804FB500E020010B500237F
S2140065501A4619461846FFF74DFE0446094B1B78A7
S214006560042B0BD041F28831074B186811F005FF59
S2140065702146064809F060FD204610BD012008F0BF
S21400658033F9EFE77E290020282D00205C1002005A
S21400659008B591280ED0942810D0902804D0014633
S2140065A0084809F049FD04E0074809F045FDFFF7F3
S2140065B0CDFF08BD054809F03FFDFAE7044809F09D
S2140065C03BFDF6E7FC0F0200D00F0200DC0F0200D6
S2140065D0EC0F020000B583B006220021684618F0D2
S2140065E096FF0023ADF80230ADF8043040F2FF13FA
S2140065F0ADF8003013F0B8FE6A464FF6FF71032080
S21400660013F0BAFF03B05DF804FB000000B583B0DA
S214006610204B1B6800221A701F4B1B788BB111F0A1
S214006620DBFC01468DF807001C4809F005FD9DF8C7
S214006630073093B19DF80730022B1AD003B05DF8EF
S21400664004FB0DF1070000F08DFE0DF1070000F0D1
S214006650A3FE114B01221A70E1E7114809F0ECFC89
S214006660FFF7B8FF4FF4FA610A4B186811F085FE81
S214006670E0E70C4B1B78002BE0D10A4B01221A7086
S214006680094809F0D9FC00231A46A5211846FFF749
S214006690B1FDD3E72C2D002049170020000E020084
S2140066A0180E020062170020300E020000B170477C
S2140066B008B54FF49671024B186811F05EFE08BDDF
S2140066C02C2D002008B50849084807F0DDFC0849CD
S2140066D0084807F0D9FC084809F0AEFC074816F051
S2140066E04BFD13F093FA08BD91620000282D0020A0
S2140066F00D6600002C2D0020A00F0200A010002028
S21400670030B585B00446002501951A4816F034FDCC
S2140067100622294602A818F0FAFE174B1B88ADF889
S2140067200A30A368E26853F822301B78ADF80C30C4
S21400673040F2FF13ADF8083063689B1A012B15DD95
S21400674001AA0121204603F0F3FE01469DF804004D
S21400675013F0F0FD02AA4FF6FF71032013F00CFFB2
S2140067600146064809F068FC05B030BD13F0FCFD94
S214006770F0E700BFA010002064170020D41102002C
S21400678010B582B00446114816F0F6FC0622002129
S214006790684618F0BCFE0E4B1B88ADF80230A368A6
S2140067A0E26853F822301B78ADF8043040F2FF134D
S2140067B0ADF800306A464FF6FF71042013F0DCFE99
S2140067C00146044809F038FC02B010BDA0100020B5
S2140067D0641700200812020010B582B00446114863
S2140067E016F0CAFC06220021684618F090FE0E4BF2
S2140067F01B88ADF80230A368E26853F822301B7895
S214006800ADF8043040F2FF13ADF800306A464FF69C
S214006810FF71022013F0B0FE0146044809F00CFC9C
S21400682002B010BDA010002064170020EC1102007A
S21400683030B583B08368C26853F822301C780023D2
S214006840019343689B1A012B20DD01AA012103F066
S2140068506FFE01469DF8040013F06CFD054620B956
S214006860204613F023FD03B030BD0A4B96220A499A
S2140068700A4809F0E1FB0A4809F0DEFB2946094808
S21400688009F0DAFB084809F0D7FBE9E713F06CFDDE
S214006890E6E700BF8C1002001C1202002C12020059
S2140068A0481202004C1202005824020010B502469C
S2140068B08168C36851F82300B0F900000E4C2080B0
S2140068C05268D21A012A0EDD013351F8233093F9AB
S2140068D00010003118BF012115F090FA28B10748C2
S2140068E009F0AAFB10BD0021F6E715F092FA014662
S2140068F0034809F0A1FBF5E76417002084130200A3
S2140069007013020010B586B0002106AA42F8041DD6
S21400691003F00EFE059A102A05D01021174809F03C
S2140069208BFB06B010BD014601A818F0CCFD01A8EF
S21400693016F022FCE8B9124809F07EFB002408E0B5
S21400694006AB234413F8141C0E4809F075FB0134FB
S214006950E4B20F2C09D80F2CF2D006AB234413F860
S214006960141C094809F068FBF1E7084809F064FBC5
S214006970D7E7074809F060FBD3E700BFC412020060
S21400698080120200941202009C120200A41202005E
S214006990A812020008B58368C26853F82230198826
S2140069A0024B1980024809F047FB08BD98100020EA
S2140069B06412020008B5FFF7C9FD08BD08B5024B12
S2140069C0186811F0CFFC08BD282D00202DE9784866
S2140069D0254B1B7813F0020F3FD0244C13F0010F09
S2140069E03DD0224D13F0040F3BD1214E214809F033
S2140069F023FB214B996CD86C4FF0000B4BEA01023D
S214006A0003461E4809F018FB11F0E6FA01461C483A
S214006A1009F012FB1B4B19781B4809F00DFB1B4BAA
S214006A2019881B4809F008FB1A4B19881A4809F000
S214006A3003FB15F0F0F90146184809F0FDFA15F0C9
S214006A40E8F90146164809F0F7FA33462A46214681
S214006A50144809F0F1FABDE87888054CBEE7044D05
S214006A60C0E7024EC2E700BF9C10002024130200BD
S214006A702C130200D81002000080E00FE010020085
S214006A80FC1002007E29002018110200B61100201A
S214006A9034110200BA110020501102006C110200DD
S214006AA0841102009C11020010B582B08368C2688F
S214006AB053F822301C7801A9204616F051FE28B162
S214006AC00146054809F0B8FA02B010BD019A214601
S214006AD0024809F0B1FAF7E7B41002009810020075
S214006AE038B58268C36852F823100C78013352F820
S214006AF023301D782946204616F0A8FA20B1014614
S214006B00044809F099FA38BD2A462146024809F099
S214006B1093FAF8E7CC1302009C13020008B513F0B2
S214006B20C7F808BD08B58368C26853F822301B78DA
S214006B300B4A137013F0020F0CD00A4913F0010F22
S214006B400AD0084A13F0040F08D1074B074809F08B
S214006B5073FA08BD0449F1E7034AF3E7014BF5E78A
S214006B609C100020241302002C130200EC120200DA
S214006B7008B505F077FA08BD00B583B002AA002371
S214006B8002F8013D40210C4B186800F0F0FE10B1F1
S214006B9003B05DF804FB502006F060FC0DF1070220
S214006BA04021054B186800F0E2FE0028F0D10348AB
S214006BB009F042FAECE700BFE0100020FC130200E8
S214006BC07047000010B5044601F091F8FFF76EFD1F
S214006BD0204601F08CF8012800D010BD024A137838
S214006BE083F001031370F8E76617002008B506F077
S214006BF0A6FEFFF7C1FF06F0AEFEFFF7E1FF05F0C9
S214006C00CFFFF8E708B5024B1B6803B1984708BDED
S214006C109C17002008B5024B5B6803B1984708BD77
S214006C209C17002008B5024B9B6803B1984708BD27
S214006C309C17002008B5024BDB6803B1984708BDD7
S214006C409C17002008B5024B1B6903B1984708BD86
S214006C509C17002008B5024B5B6903B1984708BD36
S214006C609C17002008B507F039FD00F0A7FA08BD0C
S214006C70704708B507F0A4FD08BD70477047704719
S214006C807047704708B507F02AFD08BD7047704783
S214006C907047704770477047704770477047704737
S214006CA07047704708B515F08BF908BD002070478F
S214006CB000207047704708B5012000F01FFD202017
S214006CC000F01CFD402000F019FD08BD30B585B071
S214006CD0094C2268094B1A60094D0A4B2B600A4B77
S214006CE0019304F07FFE02902B68039301A92068AD
S214006CF003F0B8FC05B030BDC8100020402E0020C0
S214006D003C2E0020BC100020F421020008B5024BE7
S214006D10186803F0B9FC08BDC810002038B504F0A8
S214006D2061FE0546064C2368D3F8AC0204F04EFE1E
S214006D30206803F0BEFC284604F048FE38BD00BFBD
S214006D40C810002008B50321802002F009F90821A8
S214006D504FF4C06002F004F908214FF4F06002F02E
S214006D60FFF808213E2002F0FBF808212D2002F053
S214006D70F7F8002008BD08B500F070F808BD000060
S214006D8008B5174B1B68C3F30743012B14D000F05C
S214006D90F8FC04F0B5FD04F0D7FD04F0FDFDFFF7A8
S214006DA0D1FF04F0BFFD00F0DFFC05F02DF901F087
S214006DB0B1F905F003FE08BD0A4B5A6E41F26401B4
S214006DC04FF48020585003F52043203304211960E7
S214006DD012F4802FDBD1034A42F26403D050D6E788
S214006DE00080E00F0080004008B500F02BF800F0AF
S214006DF0BBF800F0C1F808BD08B506F099F9FFF732
S214006E00BAFF08F05FF805F015FDFFF75FFF08BD55
S214006E1008B503F02BFB03F031FB07F015F907F07C
S214006E2023F907F071F908BD7047704708B5FFF7FA
S214006E3075FF08BD08B507F045F907F049F908BD24
S214006E407047000008B501213A2001F021FD0248F4
S214006E5000F0ECFF08BD00BFCC10002070B598B065
S214006E60114E11AC35460FCD0FC495E8070084E8E7
S214006E70070007AC06F11C050FCD0FC40FCD0FC4DD
S214006E8095E8030084E8030003AC06F144030FCB47
S214006E9084E80F00054B009307AB11AA214604486F
S214006EA004F094FF18B070BD0C220200681A00208F
S214006EB0B81A002008B5024B186805F02FF808BD70
S214006EC0B81A002008B5024B186805F027F808BD68
S214006ED0B81A002008B5024BDA691868904708BD52
S214006EE0B81A0020012070470120704738B5FFF718
S214006EF00DFF054607F024F9044600B12C4605F0C0
S214006F005FF8054600B12546FFF7ECFF034608B9D3
S214006F10184638BD2B46FBE738B506F019FC044684
S214006F20FFF7D8FF042812D0022812D0002505F05B
S214006F3049F8042810D0022810D0FFF7D5FF0428FF
S214006F4010D002280CD005B10024204638BD0125FB
S214006F50EDE700250124EAE70125EEE70124ECE74A
S214006F600124F0E70024F0E708B5024800F0B7FE79
S214006F7008BD00BF6422020008B5024800F0E6FF24
S214006F8008BD00BF7422020000B585B00C220021A7
S214006F9001A818F0BCFA01A800F096FD9DF80400C0
S214006FA0012814BF0020012005B05DF804FB000096
S214006FB070B58AB0044605A800F0F6FD089BA3420B
S214006FC011D903A9204600F0FCFD044600283CD158
S214006FD0049A099BDB68B2FBF3F606FB03F6B242A3
S214006FE009D1039D1AE022461949002005F050F801
S214006FF000200AB070BD174905F04AF8F1E705F021
S21400700021F81549002005F059F8099BD96828464B
S21400701000F0EAFD0446099BDB681D441CB9039B8F
S214007020EB1AB342EBD30D49002005F031F81CB93A
S214007030B4FA84F04009DCE7099BDA680094AB1ADE
S2140070400749002005F024F8F2E70020D1E700BF4A
S2140070501823020040230200B0220200682A020021
S2140070609C23020070B586B01422002101A818F0F7
S2140070704EFA01A800F098FD0024012505E00E490F
S214007080002005F005F835400134049BA3420FD9D3
S21400709022460A49002004F0FBFF2046FFF788FF3F
S2140070A006460028EBD00649002004F0F1FFEAE788
S2140070B0284606B070BD00BF1C240200E423020070
S2140070C00424020038B505F041F820B3054643888D
S2140070D013F0100F25D0C3884FF47A1404FB03F482
S2140070E004F0B0FFE968002005F00EF998B905F045
S2140070F023F9E0B104F0A6FF1149002004F0DEFFFA
S2140071004CF2503004F060FFA4F54344503C4CF27F
S2140071104F339C42EBD80B49002004F0B9FF002007
S21400712038BDC3884FF47A6404FB03F4D8E70649F5
S21400713004F0AEFF0549002004F0AAFF0120EFE7A7
S214007140B02202001C240200682A02000424020066
S214007150014B1878704700BFD81A002010B50446B7
S21400716005F0FDF8208010BD00B589B004F0E0FF02
S21400717018B1002009B05DF804FB04F0E7FF40B149
S21400718003A800F011FD069B3BB90120084B1870C0
S214007190F0E7084904F07CFFF2E701A9002000F0C0
S2140071A010FD0028F1D1019A034B1A60EDE700BFED
S2140071B0D81A0020E4220200DC1A002008B5064B8C
S2140071C01B782BB105F002F8034B00221A7008BD9D
S2140071D0FFF7CAFFF6E700BFD81A002008B5FFF78A
S2140071E0D3FE10B9FFF76EFF08BDFFF73BFFFBE7C6
S2140071F008B5FFF7DDFE08BD10B51049002004F005
S2140072005DFF04F01FFF04F0E9FF04F01BFF05F02C
S2140072100BF804460A49002004F050FF4FF6FF73AF
S2140072209C42F2D02CB10749002004F031FF2046E2
S21400723010BD0549002004F02BFFF8E700230200EC
S214007240B0220200102302002824020010B5FFF727
S214007250D3FF00B910BD0D49002004F019FF4FF40C
S214007260FA7004F0B5FE05F003F80446084900205D
S21400727004F00EFF2CB122460649002004F008FF59
S214007280E8E70549002004F003FFE3E78C2202004C
S214007290B4220200CC220200102302002DE9F8439B
S2140072A0114B93F80090B9F1000F19D007460D4620
S2140072B090460646A5B104F0C5FE2C46FF2D28BF15
S2140072C0FF240A4B1868F11BE2B24144304405F033
S2140072D001F818B9E4B22D1B2644EBE74FF000097D
S2140072E04846BDE8F88300BFD81A0020DC1A002004
S2140072F02DE9F843114B93F80090B9F1000F19D01F
S21400730007460D4690460646A5B104F09BFE2C4661
S214007310FF2D28BFFF240A4B1868F11BE2B2414438
S214007320304404F0BDFF18B9E4B22D1B2644EBE749
S2140073304FF000094846BDE8F88300BFD81A002081
S214007340DC1A002000B583B00DF10600FFF706FF3B
S214007350BDF80610024808F06FFE03B05DF804FBA7
S2140073605025020008B5FFF7FFFE18B9034808F0DD
S21400737063FE08BD024808F05FFEFAE784250200B7
S2140073806825020008B5FFF719FF024808F054FE0A
S21400739008BD00BFBC25020008B5044808F04CFE36
S2140073A0FFF71CFF024B01221A7008BD5C24020086
S2140073B0E01A002008B5FFF71FFF18B1034808F0D1
S2140073C03BFE08BD024808F037FEFAE7F425020047
S2140073D0E025020010B58368C26853F822301C68A6
S2140073E02146074808F028FE2046FFF701FF18B997
S2140073F0044808F021FE10BD034808F01DFEFAE719
S21400740074240200B02402009424020030B5C1B0F7
S2140074108268C36852F823100C68013352F8233090
S2140074201D786A4629462046FFF738FFB8B10E4851
S21400743008F002FE2A4621460C4808F0FDFD00240E
S21400744006E01DF804100A4808F0F6FD0134E4B220
S214007450AC42F6D3074808F0EFFD41B030BD064811
S21400746008F0EAFDF9E700BFC8240200E0240200A5
S21400747004250200582402000C25020010B582B034
S2140074808268C36852F823301C6801AA012103F001
S2140074904FF8024601992046FFF72AFF20B9044814
S2140074A008F0CAFD02B010BD024808F0C5FDF9E7B5
S2140074B0382502002025020008B58368C26853F804
S2140074C022301B78064A12789A4204D0044A137077
S2140074D0044B01221A70044808F0AEFD08BD00BF38
S2140074E0F3100020E01A0020AC25020008B5FFF7D4
S2140074F02FFE10B9FFF738FE28B1FFF7A7FE0448A5
S21400750008F09AFD08BD034808F096FDFAE700BFAC
S214007510482402003024020008B5FFF7E7FF08BD44
S21400752008B5034B00221A70FFF7E0FF08BD00BF46
S214007530302D002010B50A460D490978914214BF37
S214007540002401240B48007858B100201860094B2D
S2140075501870914209D00849084808F06DFD204689
S21400756010BD074800681860F3E70649F4E700BF57
S214007570F3100020E01A0020B8270200C0270200FF
S214007580E41A0020AC27020070B50D4614461E46CD
S214007590154808F051FDFFF7DBFD10B9FFF7E4FDD5
S2140075A068B1611B049A01312846FFF7A1FE80B13D
S2140075B001340E4B1C600E4808F03EFD70BD0D48B1
S2140075C008F03AFD304607F073F8084B00221A60C0
S2140075D0F4E7094808F030FD304607F069F8034B39
S2140075E000221A60EAE700BFCC260200E41A002058
S2140075F0B02202000C2702001C27020008B520B1AA
S2140076000146054808F018FD08BD044808F014FDBA
S214007610034B00221A60F7E7A82602007C26020029
S214007620E41A002038B50A4B1B788B420CBF0124A5
S214007630002404D0074808F0FFFC204638BD154655
S214007640054808F0F9FC2946044810F096FEF4E7D1
S214007650F3100020782702002C270200302D00208F
S21400766008B5024808F0E8FC08BD00BF3426020052
S21400767008B5024808F0E0FC08BD00BF4826020036
S21400768008B5024808F0D8FC08BD00BF082602006E
S21400769008B5082820D00BDC012815D002282BD1ED
S2140076A0012304221146002001F0F0FF002012E022
S2140076B0202819D040281FD1012304220021084683
S2140076C001F0E4FF002006E001230422114600201A
S2140076D001F0DCFF002008BD012304221146002033
S2140076E001F0D4FF0020F6E70123042211461846D5
S2140076F001F0CCFF0020EEE70E20ECE708B50828E6
S21400770020D00BDC012815D002282BD10023042220
S2140077101146184601F0BAFF002012E0202819D0C2
S21400772040281FD1002304221946184601F0AEFF58
S214007730002006E0002304221146184601F0A6FFAA
S214007740002008BD002304221146184601F09EFFC3
S2140077500020F6E7002304221146012001F096FFE0
S2140077600020EEE70E20ECE708B501213A2001F0F4
S2140077708FF8FFF7A0FA0120FFF78AFF00F012F853
S21400778008BD7047024A42F270030821D150704784
S21400779000C00340024A41F270030821D1507047EE
S2140077A000C00340F0B587B06C463F4D0FCD0FC408
S2140077B095E8030084E8030001213A2001F068F808
S2140077C00121282001F064F801248DF80E40374B83
S2140077D00293374F6946384602F0D8FC2346042207
S2140077E00021022001F052FF0023224621460220FB
S2140077F001F04CFF234604220221084601F046FF12
S214007800234604220321022001F040FF294D4FF0B9
S2140078100213C5F83036A3F58033C5F82C36022699
S214007820C5F834661C23C5F81C364FF4487006F0BD
S214007830E1FBFFF7A7FF142006F0DCFBFFF7AAFF2B
S214007840232006F0D7FBFFF79DFFB921384602F04C
S214007850EBFCFFF79FFF00231A461946304601F05F
S21400786015FF00231A462146304601F00FFF234637
S21400787000223146304601F009FF2346002203214C
S214007880304601F003FF384602F0D8FB0021C5F869
S2140078903016C5F82C16C5F83416C5F81C16282060
S2140078A000F0F6FF07B0F0BDEC27020000127A00E9
S2140078B000C0054000C0034043F6095303FB00F038
S2140078C0400BA0F5BB501038704745F2CD5303FB74
S2140078D000F04013A0F537400238704710B588B066
S2140078E014464900ADF80C100422ADF80E2008AA84
S2140078F002F81C3D04920123ADF8143002AB069347
S2140079000223ADF81C3003A900F00EFB58B99DF811
S21400791008209DF8093003F0FC0303EB02232360E4
S214007920002008B010BD002323603120F9E72DE9C0
S214007930F0410746884616461D46E523FFF7CEFF6C
S214007940044610B12046BDE8F0813068FFF7B4FF6A
S2140079503060E0232A4641463846FFF7BFFF04461C
S2140079600028EFD12868FFF7B0FF2860EAE710B5D7
S21400797088B014464900ADF80C100423ADF80E305C
S214007980FC238DF80030C9238DF80130CDF810D0D7
S2140079900223ADF8143001AB06930823ADF81C3073
S2140079A003A900F0C1FA28B93CB19DF80430237051
S2140079B0012000E0002008B010BD0120FBE7FEE734
S2140079C008B500F013F8064B064A03E01168196084
S2140079D00433043204498B42F8D3FEF7D1FB00BFD0
S2140079E098100020106802002C170020044B054A4F
S2140079F09A60D3F8882042F47002C3F88820704753
S214007A0000ED00E0006000000048704700B4C404C9
S214007A10014B1868704700BFFC100020014B186827
S214007A20704700BFF810002008B5094B1B6F03F025
S214007A300703022B04D0032B05D0012B06D0FEE74C
S214007A40FFF7ECFF08BD034B1868FBE70248F9E7B1
S214007A5000800040FC100020002D310108B5FFF723
S214007A60E3FF054B1B6FC3F303330133B0FBF3F0A7
S214007A70024B186008BD00BF00800040F4100020D4
S214007A8008B5064B1860064B1B6F03F00703032B65
S214007A9000D008BDFFF7E2FFFBE700BFFC100020A8
S214007AA0008000400020704700487047002D3101DC
S214007AB04FF4004070474FF47A707047014B1868D7
S214007AC0704700BF0011002028231B68B3F5C04F85
S214007AD007D21A680A4B9A4207D0002303708360C5
S214007AE070470023037083607047012303702823C8
S214007AF01A68926842601B689B698360704700BF83
S214007B0007B0CD5E28231B68B3F5C04F0ED210B564
S214007B1001F0B1FB084B1C7801221A7001F0AFFB94
S214007B203CB928231B68DB69984710BD4FF4817069
S214007B3070470020F9E700BFE81A002028231B68DA
S214007B40B3F5C04F0ED210B501F095FB084B1C786C
S214007B5000221A7001F093FB3CB128231B681B6AB5
S214007B60984710BD4FF4817070470020F9E700BFBA
S214007B70E81A00204FF0005340F202221A804FF21B
S214007B800F025A80BFF34F8F0549CA6802F4E062BD
S214007B90044B1343CB60BFF34F8F00BFFDE700BF1E
S214007BA000ED00E00400FA0508B528231B68B3F5CD
S214007BB0C04F05D21B6BB3F5C04F01D25B68984728
S214007BC008BD08B528231B68B3F5C04F06D21B6B4B
S214007BD0B3F5C04F05D29B68984708BD4FF4817037
S214007BE0FBE74FF48170F8E708B528231B68B3F568
S214007BF0C04F06D21B6BB3F5C04F05D2DB6B984760
S214007C0008BD40F20110FBE740F20110F8E7002340
S214007C100360704703680B600160704790B130B432
S214007C2004466AB161B1002003E004F8013B01326A
S214007C300130137813B14D1E8542F6D80023237009
S214007C4030BC70477047034640B1002001E0013366
S214007C5001301A781AB18842F9D37047002070476D
S214007C6008B54FF0FF31FFF7EEFF08BD80B170B5E5
S214007C70064632B129B115460C46FFF7F1FF84429D
S214007C8000D870BD2A46211A3044FFF7C7FFF8E730
S214007C90704710B3F8B50F46064651B90120F8BD37
S214007CA020340FE0601BFAD13378002BF7D0013672
S214007CB00137347817F0D8FB2044437803F00303E9
S214007CC0012BEDD03D7817F0CFFB2844437803F026
S214007CD00303012BE6D12035E4E70120704708B501
S214007CE0436813B10068984708BD2220FCE708B532
S214007CF0836813B10068984708BDFF20FCE70000C2
S214007D000023144A12789A4223D910B51C46124A08
S214007D1052F8232012685179814206D00133DBB233
S214007D200C4A12789A42F1D812E0137903EB430317
S214007D3018010A4B1B5823FA01F111F0010F0CBF72
S214007D40012300231370044B53F82400FEF73AFF78
S214007D5010BD704760220200EC10002014C00340E3
S214007D6010B582B0044601213A2000F091FD0023B0
S214007D7001226179207901F089FC2379607903EB8F
S214007D80430319010E4A5358C34013F0010F0CBFAA
S214007D90012300232370A379022B02D0002002B017
S214007DA010BD00F06FF90749607900F079F9617944
S214007DB020790123019300930A4601F011FCEDE7B8
S214007DC014C00340017D00000078704710B40279AB
S214007DD0447902EB42021101134A5358E34003F080
S214007DE001038279012A06D012B983F001030370D9
S214007DF05DF8044B7047D9B243885B009BB20B43D7
S214007E0043F47F4343F0C0034FF6E072934205D03D
S214007E104FF6DF72934204D04380E9E701220270F6
S214007E20F6E700220270F7E714C0034003683B4AF7
S214007E30934219D03A4A934200D070472F2370B528
S214007E4084B004460121184600F022FD01230A22D0
S214007E506179207901F01AFC01230A22E179A079E0
S214007E6001F014FC002619E02E23E8E72379657953
S214007E70012101FA05F52B4A03EB430318011044D0
S214007E8041F21003C55023796079814003EB430328
S214007E901801024442F21003D1500136082EE5DDE7
S214007EA022681E4B9A4215D022681D4B9A4222D059
S214007EB001238DF800308DF80130E3680293A36843
S214007EC00193237C8DF80C306946206801F0A4FCF1
S214007ED004B070BD134B0322C3F890246179227955
S214007EE042EA0142C3F89424E179A27942EA0142C7
S214007EF0C3F89824D8E7A3F530330322C3F8A024A8
S214007F006179227942EA0142C3F8A424E179A27990
S214007F1042EA0142C3F8A824CAE700BF0000014AAB
S214007F200080064000C0034038B5054601F008FE54
S214007F30054B012806D15C1E23B1284601F08EFCB5
S214007F402346F6E738BD00BFE093040008B5436853
S214007F500068984708BD08B583680068984708BD5C
S214007F6008B5C3680068984708BD10B504460121E7
S214007F703A2000F08DFCA378B3FA83F35B09042261
S214007F806178207801F082FB002010BD837873B101
S214007F90027843780121994002EB4202130103F173
S214007FA0804303F5703341F210029950704702780F
S214007FB043780121994002EB4202130103F180430A
S214007FC003F5703342F2100299507047837873B10C
S214007FD0027843780121994002EB4202130103F133
S214007FE0804303F5703342F21002995070470278CE
S214007FF043780121994002EB4202130103F18043CA
S21400800003F5703341F210029950704702784378B6
S2140080100121994002EB4202130103F1804303F56C
S214008020703343F2100299507047000010B4027883
S214008030447802EB42021101064A5358E34003F02B
S214008040010382780AB983F0010318465DF8044BF1
S214008050704700BF10C0034010B504467CB194FAC8
S214008060A4F0B0FA80F0C2B20123934024EA0304DD
S214008070034B53F82230002BF0D09847EEE710BDA4
S214008080EC1A0020054B4FF00072C3F880211A60EE
S2140080904FF08062C3F880211A60704700E100E06C
S2140080A038B504460D4601F0E6F8034B43F8245075
S2140080B001F0E5F838BD00BFEC1A002008B5094B02
S2140080C0D3F82404D3F82024104020F42A5020F0BB
S2140080D02A004004400C42F220429850FFF7BCFFB2
S2140080E008BD00BF00C0034008B5094BD3F8240400
S2140080F0D3F82024104020F4AA4020F055000004B5
S214008100000C42F220429850FFF7A6FF08BD00BFC1
S21400811000C0034008B5034B1968034B186809F004
S21400812045FB08BD0811002004110020B0F1FF3FF8
S21400813002D010B1014870470148704724E000F0B3
S21400814021E000F0890800238B4206D20268B2F1D3
S214008150FF3F04D104300133F6E7012070470020CA
S2140081607047704704E003680B60013A043104303E
S214008170002AF8D10020704738B5054618F030FEC2
S214008180FFF7D4FF044658B9074B9B68DBB20A33A7
S21400819003F01F03012199402846FFF7D3FF08B1DB
S2140081A0204638BD014CFBE70080E00F0EE000F0F3
S2140081B0F8B506460F469400224618F009FEFFF76B
S2140081C0B5FF054608B12846F8BD22463946304672
S2140081D017F06AF90028F6D0004DF4E710E000F03A
S2140081E010B582B0044601A801F0C4FD9DF8063023
S2140081F023800122E2700020A070054B9B68DBB252
S2140082000A3303F01F0302FA03F3636002B010BDE3
S2140082100080E00F08B501F0EFFC08BD08B501F0DE
S214008220D7FC002008BD000008B501F019F8014B86
S214008230186008BDE02D002008B5024B186801F054
S21400824013F808BDE02D0020A0F2111070470000C2
S2140082504FF04043024A136004321360704700BF79
S21400826064600040002305E0374A02EBC30237494A
S2140082700A600133042B16DC334A52F83320002AF6
S214008280F7D0324A11680A68002AEDD02E4A02EB6F
S214008290C30210790A799042EBD92B4A02EBC3024B
S2140082A02A490A60E5E7002305E0294A02EBC302F3
S2140082B028490A600133042B16DC254A52F833207D
S2140082C0002AF7D0234A11680A68002AEDD0204A0F
S2140082D002EBC30210790A799042EBD21C4A02EBF9
S2140082E0C3021C490A60E5E7184B1A6813680BB30B
S2140082F04FF040218B6F23F0FF7323F48033127905
S21400830043EA02438B67144B4FF000421A60114B4E
S2140083101A6813689BB14FF040218B6F23F4FF73EC
S21400832023F00103127913438B670B4B4FF0804207
S2140083301A607047094B4FF000421A60E7E7074B98
S2140083404FF080421A607047802100207021002084
S214008350A82100207421002068500040686000407A
S21400836008B50E4B01221A70282200210C4817F07F
S214008370CEF8282200210B4817F0C9F80A4B0B4A02
S21400838013600B4A1360FFF763FF0A4B4022C3F8E3
S21400839080211A60FFF766FF002008BD6C210020D0
S2140083A080210020A82100207821002070210020B4
S2140083B07421002000E100E008B54FF04023D3F818
S2140083C08800C0F38800D3F88830C3F38803984247
S2140083D0F3D1FFF739FF40B208BD000010B54FF0EB
S2140083E04022936E526E134013F0804F12D0134B00
S2140083F0186804683CB10822002117F088F8FFF7D7
S214008400DBFF0021A0470E4B4FF080421A60FFF7BB
S21400841029FF10BD002BFADA0A4B186804683CB135
S2140084200822002117F073F8FFF7C6FF0121A047C6
S214008430034B4FF000421A60E9E700BF74210020AA
S214008440646000407021002008B5FFF7C7FF08BD34
S21400845088B182B00146084B5A6A92B2064B5B6AF4
S2140084609BB2ADF80630BDF806309B1A9BB28B4225
S214008470F4D302B07047704700800440F0B589B06E
S2140084800024049405940694ADF81C4001218DF850
S21400849010100094019402948DF80C4002238DF87D
S2140084A00630242000F0F4F9234D6A46214628467B
S2140084B001F007FD2B6B4FF6FF73EB61ADF8124032
S2140084C004A91D4801F0ADFC4FF4806000F02AFAC4
S2140084D0BDF812300133B0FBF3F0184A10609BB2BF
S2140084E0ADF81230B3F5806F02D2154B9842E7D83C
S2140084F0002000F017FA1349B1FBF0F10F4B186893
S2140085000024114A0023114E0027E0FB0167304685
S214008510394616F0E3FD0E4B18600E4B1C70064AEB
S214008520936923F0100393610B4B8022C3F88021DC
S2140085301A60204609B0F0BD00800440D02100201B
S21400854080841E0000B0710B40420F0020A107007F
S214008550D4210020D821002000E100E038B5124BDD
S2140085601968124A0023124C0025E1FB00452046FC
S214008570294616F0B3FD04460D4608E04FF6E850CF
S214008580FFF766FF0B4A4FF0FF33A4185D414FF626
S214008590E8520023AB4208BFA242EFD3A0B2FFF7D7
S2140085A057FF002038BD00BFD021002040420F00FA
S2140085B020A107001802FFFF064B5B6913F0100F9F
S2140085C007D0044A42F214031021D150024B012274
S2140085D01A70704700800440D8210020034A41F2F8
S2140085E070034FF48031D150704700BF00800040C8
S2140085F038B505460C460F4BD3F8203103F003037D
S214008600022B0ED0032B10D0012B02D000231846CD
S21400861002E0FFF703FA052305B1286004B12370D2
S21400862038BDFFF7F5F90323F6E7FFF73DFA022317
S214008630F2E700BF0080004030B583B005460C4628
S214008640002301930D4BD3F8803103F00303012B75
S21400865003D0022B0DD0002304E0002101A8FFF771
S214008660C7FF0D230DB1019A2A6004B1237003B031
S21400867030BDFFF719FA01900223F3E700800040AF
S21400868038B505460C46164BD3F8243103F00703DD
S214008690013B052B20D8DFE803F0030F171B0B1355
S2140086A0FFF7BCF9052305B1286004B1237038BD77
S2140086B0FFF7B4F90623F6E7FFF7AAF90323F2E774
S2140086C0FFF7A6F90423EEE7FFF7EEF90223EAE741
S2140086D0FFF7E8F90723E6E700231846E3E700BFBD
S2140086E00080004038B505460C46104BD3F80031E4
S2140086F003F00303032B16D8DFE803F002090D117D
S2140087000123002005B1286004B1237038BDFFF7AF
S2140087107FF90323F6E7FFF7D1F90823F2E7FFF71F
S214008720C1F90723EEE700231846EBE70080004078
S21400873038B505460C460F4BD3F8403103F003031B
S214008740022B0ED0032B10D0012B02D0002318468C
S21400875002E0FFF7ADF9092305B1286004B12370E4
S21400876038BDFFF7ABF90823F6E7FFF7A4F90A23AD
S214008770F2E700BF0080004008B50B4BD3F820326C
S21400878003F00303012B08D0022B09D008B1002305
S214008790036021B100230B7001E0FFF729FF08BD3D
S2140087A0FFF7C6FFFBE700BF0080004038B5054670
S2140087B00C46124BD3F8003203F00703013B032BA1
S2140087C018D8DFE803F0020A0E12FFF771F9092342
S2140087D005B1286004B1237038BDFFF76FF9082390
S2140087E0F6E7FFF768F90A23F2E7FFF737F9800A9A
S2140087F00C23EDE700231846EAE700BF00800040A0
S21400880038B505460C460F4BD3F8403203F0030349
S214008810022B0ED0032B10D0012B02D000231846BB
S21400882002E0FFF745F9092305B1286004B123707B
S21400883038BDFFF743F90823F6E7FFF73CF90A23AC
S214008840F2E700BF0080004038B505460C460F4BE7
S214008850D3F8603103F00303022B0ED0032B10D0A5
S214008860012B02D00023184602E0FFF721F9092366
S21400887005B1286004B1237038BDFFF71FF908233F
S214008880F6E7FFF718F90A23F2E700BF008000407A
S214008890430907D0012B10D0022B01D0094A02E071
S2140088A0094A00E0002200F01F0041B902F500521C
S2140088B0012303FA00F010607047044AF3E702F55C
S2140088C08052F5E760820040688000406480004087
S2140088D0B0F5007F18D00BD9B0F5207F1AD0B0F5D0
S2140088E0607F09D10E4BD3F88000C0F3011009E079
S2140088F020B1B0F5C07F01D0002003E0084B186F10
S214008900C0F3033001307047054BD3F89000C0F336
S2140089100460F7E7024B186FC0F38020F2E700BF51
S2140089200080004010B582B0002301933E2800F07E
S214008930C6801BD9B0F5007F00F0A1804CD9B0F5F9
S214008940A06F00F0B28071D9B0F5D06F00F0B280A1
S21400895040F28980B0F5E06F00F0B180B0F5F06FBE
S21400896042D1002101A8FFF76FFF3DE02B286ED013
S2140089700FD9312826D93C28F3D83A283CD23828B3
S21400898000F0938039282FD1002101A8FFF778FE48
S2140089902AE0232830D008D9292867D828282BD2BF
S2140089A0002101A8FFF724FE1EE0202806D004D9E7
S2140089B0212821D0222801D016E0A8B9FFF74EF8CA
S2140089C0019011E02F2817D22D2873D03FD8002110
S2140089D001A8FFF7ADFE07E05228E1D007D98028AE
S2140089E018D1FFF721F80190019802B010BD4D286C
S2140089F0E4D00CD83F28F7D1FFF730F804464FF400
S214008A002070FFF765FFB4FBF0F00190ECE74F280D
S214008A10D4D2E9E706D9B0F5807FD8D0B0F5C07FCC
S214008A20CCD0E1E760380128C8D9DDE7B0F5607F33
S214008A3030D006D9B0F5806FB2D0B0F5906FA3D025
S214008A40D2E7B0F5207FD7D0B0F5407FCCD1FFF786
S214008A5005F804464FF42070FFF73AFFB4FBF0F039
S214008A6040080190C0E7B0F5B06F04D1002101A81E
S214008A70FFF7E2FDB8E7B0F5C06FA8D0B4E7FEF7A1
S214008A80D3FF04464FF40070FFF722FFB4FBF0F06C
S214008A900190A9E7FEF7C8FF04464FF46070FFF7A1
S214008AA017FFB4FBF0F001909EE7002101A8FFF746
S214008AB063FE99E7002101A8FFF778FE94E70021FE
S214008AC001A8FFF79DFE8FE708B58020FFF72AFF75
S214008AD0044B984205D8044A42F270034FF48031A2
S214008AE0D15008BD005A62020080004038B50446E6
S214008AF00D46114A41F268034FF40031D150002070
S214008B00FFF7E6FE04FB00F00C4BDA6902F4803255
S214008B1041F67131D9639B6823F4401308498842B3
S214008B2001D9002D05DD05498B600AB10022CA6314
S214008B3038BD43F48013F6E7008000400000034091
S214008B40005A620208B5FEF75FFF0021FFF7CEFF6E
S214008B5008BD000000B583B000238DF80730B0F5DF
S214008B60807F37D013D9B0F5C06F33D040D9B0F579
S214008B70F06F71D054D9B0F5006F73D0B0F5086FB0
S214008B8045D10DF107010020FFF7ACFD3FE02D2891
S214008B906ED011D93D285FD022D93E2846D08028F5
S214008BA035D1364B1B6F03F00703013B032B2ED842
S214008BB0DFE803F04E42464A2A2823D008D8243855
S214008BC0032824D80DF107010020FFF711FD1EE051
S214008BD02C281CD10DF107010020FFF7A9FD16E097
S214008BE0382814D10DF107010020FFF7C5FD0EE06F
S214008BF0B0F5906F36D00FD9B0F5A06FF2D0B0F5C3
S214008C00B06F04D10DF107010020FFF715FD9DF8A8
S214008C10070003B05DF804FBB0F5806FD2D0F6E72E
S214008C20B0F5D06F24D0B0F5E06FF0D10DF10701AC
S214008C300020FFF7E5FDEAE705238DF80730E6E7B5
S214008C4003238DF80730E2E707238DF80730DEE7C9
S214008C5002238DF80730DAE70DF107010020FFF751
S214008C60F3FDD4E70DF107010020FFF709FDCEE77D
S214008C700DF107010020FFF799FDC8E700800040CE
S214008C8010B504468020FFF765FF032800F09780A4
S214008C904B4A41F264034FF40021D150494B45F64C
S214008CA00E02C3F8802041F228020221995042F2B7
S214008CB0280201219950434B9B6D13F48033FAD15F
S214008CC021786278120542EA0162E17842EA0142BE
S214008CD0217942EA0132617942EA8112A1790A4396
S214008CE038490A61E079227A120642EA8062607A9E
S214008CF042EA0042A07A42EA0022E07A02438A610F
S214008D000A6A22F00D02617B01B108231343227B1D
S214008D1043EA82030B432B4A1362637B002B38D152
S214008D20936A23F03303A17B43EA4113E17B43EAD2
S214008D30011343F001039362224B9A6D03F58043BF
S214008D4003339343F8D11F4B022241F228015A50B5
S214008D501A651C4B9B6D13F0804FFAD1194A1369A4
S214008D6023F47003A17843EA0153136141F2180318
S214008D704FF00041D150237C1BB942F22803022158
S214008D80D150637CABB90F4A42F228030121D1507F
S214008D900FE00C4A936A23F03303A17B43EA4113A6
S214008DA0E17B43EA0113217C43EA4103617C0B43E8
S214008DB09362A37C1BB1034B034AC3F8802010BD0B
S214008DC00080004000C00040F1A7FFFF10B44378C9
S214008DD04F2B28BF4F231A461D4941F264034FF418
S214008DE08004CC501B4B4FF4D151596241F2040120
S214008DF002245C5042F2040101245C50154B1B69AE
S214008E0013F4803FFAD1037842EA0323114A5361F0
S214008E108178C3781B0143EA0123017943EA4103C1
S214008E2041790B4393608179C3791B0143EA41136F
S214008E30017A43EA4103417A0B435360837A1BB1BC
S214008E4013466FF4D1525A625DF8044B704700BF68
S214008E500080004000000240014B1880704700BFB1
S214008E602811002008B5002903DD0121FFF73EFE8A
S214008E7008BD0021FFF73AFEFAE70000B0F5007FD4
S214008E803CD010D9B0F5207F43D0B0F5607F0FD12D
S214008E900139244AD2F8803023F0300343EA011126
S214008EA0C2F88010704720B1B0F5C07F01D070477F
S214008EB0704710B54C1EFFF745FE00F037F8FFF779
S214008EC08DFB184B196F21F4704141EA04341C677E
S214008ED0FEF7C4FD144B1B6813F0100FFAD14FF0C9
S214008EE04023D3F88410C1F38111C1F10201FFF7CA
S214008EF0B9FF00F023F8FFF7E7FD10BD0139094A76
S214008F00D2F8903023F0F85343EA0161C2F890108B
S214008F1070470139034A136F23F4806343EA8121C3
S214008F2011677047008000408440004008B5022169
S214008F304FF42070FFF7A2FF08BD000008B54FF4FD
S214008F40C070FFF7EFFC054B984205D801214FF49F
S214008F502070FFF793FF08BD0221F8E780F0FA02C1
S214008F60B0F5807F57D024D9B0F5C06F53D07AD9EA
S214008F70B0F5F06F00F00F8140F29380B0F5006F0F
S214008F8000F01F81B0F5086F40F0A680072900F0BA
S214008F905281082900F04D81032900F04E810021FE
S214008FA0AC4AD2F8003123F003030B43C2F8003179
S214008FB070472D2800F0238111D93D2800F0EB8062
S214008FC03DD93E2874D080284CD170B58B1E052B19
S214008FD000F28380DFE803F09784819A81942A2840
S214008FE04CD016D82438032812D8032900F0C7809E
S214008FF0052900F0C880022900F0C3800021954AA8
S214009000D2F8203123F003030B43C2F82031704717
S21400901070472C2812D1092900F0BB800A2900F0DD
S214009020B680082900F0B18000218A4AD2F8403183
S21400903023F003030B43C2F84031704770473828CB
S2140090400FD10D2900F0FD800E2900F0F8800021D8
S214009050804AD2F8203223F003030B43C2F82032B2
S214009060704770477047B0F5906F00F0AA8013D92C
S214009070B0F5A06FE5D0B0F5B06F11D102297AD067
S2140090800D297AD00021734AD2F8803123F00303E9
S2140090900B43C2F880317047B0F5806FA5D070479B
S2140090A07047B0F5D06F00F0AA80B0F5E06F12D12F
S2140090B0092900F0CC800A2900F0C780082900F0B2
S2140090C0C2800021634AD2F8403223F003030B43E8
S2140090D0C2F8403270477047704700252E4617E0AA
S2140090E05C4A41F264034FF40020D0505A4B9D6A0C
S2140090F0C5F3400541F2280201209850032607E0F8
S2140091000025042604E00025012601E000250226AD
S2140091100C460121022000F061F9FFF713FDFFF76E
S21400912005FFFFF75BFA4B4A136F23F00703334341
S2140091301367FEF793FC494B1B6813F0100FFAD128
S2140091404FF04023D3F88410C1F38111C1F102011E
S214009150FFF788FE0121002000F086F9FFF7EEFEFB
S214009160FFF7B2FC35B9032C04D13B4A42F2280380
S2140091700121D15070BD022185E7012183E702213C
S2140091803DE703213BE7012139E702214DE70321B3
S2140091904BE7012149E7092911D00A290DD00829F2
S2140091A009D000212B4AD2F8603123F003030B4389
S2140091B0C2F8603170470221F4E70321F2E701218B
S2140091C0F0E70239052904D8DFE801F007050D0F9E
S2140091D00B0900210AE0022108E0032106E0042131
S2140091E004E0052102E0062100E00121194AD2F838
S2140091F0243123F007030B43C2F8243170470839A3
S214009200042904D8DFE801F0050B07030900002154
S21400921006E0022104E0032102E0042100E001212F
S2140092200C4AD2F8003223F007030B43C2F8003290
S21400923070470221B4E60321B2E60121B0E602211E
S21400924006E7012104E702213CE703213AE7012172
S21400925038E700BF0080004000C000408440004067
S214009260EFF3108072B6704700B962B6704772B6F8
S214009270704762B67047EFF3108072B6704700B959
S21400928062B67047EFF3108000F0010070470000F0
S21400929090B9264B00221A60254A41F264034FF427
S2140092A00031D150234B5B68012B00D07047D2F8B9
S2140092B000211E4B1A6070471C4B1B68002BF5D014
S2140092C01C4A5268012AF1D010B5194AC2F800317A
S2140092D08020FFF73FFC052805D0164A41F204031C
S2140092E00121D15010BD4FF4C070FFF7F1FA0446CB
S2140092F0012815D00F4B42F210020721995041F277
S2140093000402012199500B4B1B6913F0010FFAD090
S214009310012CE7D101214FF4C070FFF7AFFDE1E764
S21400932002214FF4C070FFF7A9FDE3E7DC2100201F
S2140093300080004000C0014038B5044698B90F4A86
S214009340136943F00403136103F070FDFFF788FF11
S214009350054617F04DFD2846FFF786FF03F084FD0F
S2140093602CB944B138BD0020FFF792FFE7E7012093
S214009370FFF78EFFF5E7FEF771FBF3E700ED00E081
S21400938038B5044698B90F4A136943F004031361CD
S21400939003F04CFDFFF764FF054617F029FD28464D
S2140093A0FFF762FF03F060FD2CB944B138BD002022
S2140093B0FFF76EFFE7E70120FFF76AFFF5E7FEF726
S2140093C04DFBF3E700ED00E008B50020FFF760FF77
S2140093D008BD08B50120FFF75BFF08BD38B5204B78
S2140093E01B6813F0100FFAD14FF04023D3F88430E7
S2140093F0C3F3811398422CD00446FEF715FB0546AE
S214009400012C0DD0FFF72CFF164B4FF000721A60A0
S214009410621E4FF4806393404FF04022136707E0CC
S2140094200121FFF71FFDEDE74FF04023D3F884300E
S2140094304FF040235B6E13F0007F06D14FF04023C1
S214009440D3F8843013F0200FEED0FFF70DFF022C78
S21400945000D038BD00212846FFF704FDF9E700BF1D
S214009460844000406460004010B50C46034650B18E
S214009470094A127812B1094A934208D921460220B5
S214009480FFF7ACFF10BDFEF7CFFA0346F0E7214624
S2140094900120FFF7A3FFF5E7E0210020005A620253
S2140094A008B50278034B1A7001210020FFF7DCFF95
S2140094B008BD00BFE02100204FF04022536F23F488
S2140094C04073417843EA0123536770474FF04022C8
S2140094D0D36E23F0300301790B43D3667047000048
S2140094E01C4A41F264034FF00041D1501A4B41F23E
S2140094F00402012199505A6C4AF6CD31196488B994
S214009500194642F208030120C850134BDB6A13F0D9
S214009510010FFAD0104942F204030120C850012A74
S21400952014D070470C4BDB6A13F0080FFAD10A4BC5
S21400953042F224012020585041F2080101205850E0
S214009540054B5B6A13F0200FFAD0E8E7024B034A9C
S2140095501A64E6E700800040004009403254FFFFEE
S21400956010B51C4A41F264034FF00041D15002F599
S2140095700C2241F204030121D150546C4AF6CD333B
S214009580136443788B400B434FF04021CB639368C2
S21400959023F07403827843EA0213C278A2B104224D
S2140095A013430D4A93600179837943EA01231361DB
S2140095B04179C37943EA012353610078FFF790FFAE
S2140095C0012C03D0012010BD0022E9E7024B034A1C
S2140095D01A64F7E700800040004009403254FFFF5D
S2140095E0F0B49DF810609DF81450072A26D8940011
S2140095F00327A740A0401A4C2760A4F5805420609B
S214009600072A09D894000320A04001F00301A140D6
S214009610144C206014480160E3B11449012303FA96
S21400962002F20A60C6B1124B1A60124942F2204397
S214009630CA509DB9104B1A60F0BC7047A2F10804DE
S214009640A4000327A740A0400C4C2760A4F5805434
S2140096502060D5E70A49E1E70A4BE5E70A4BEAE767
S21400966000E4034008E4034008D4034010D4034059
S21400967014D4034000C0034024E4034004E4034041
S21400968010E4034014E4034024D40340F0B414462A
S21400969062B193B301258D4000EB4006320102F122
S2140096A0804202F5703241F210069551072931D8F2
S2140096B02B4E45002F183A01324452688F004FF067
S2140096C00F0C0CFA07FC22EA0C0204FA07F73A43DE
S2140096D005442F013E4472606CB99BBB012303FA1C
S2140096E001F100EB4000030103F1804303F5703302
S2140096F042F210029950F0BC704701258D4000EBF5
S2140097004006320102F1804202F5703242F2100643
S2140097109551CBE7124F460035182A013A44D568D2
S21400972001F18042083A92004FF00F0C0CFA02FC4E
S21400973025EA0C0504FA02F22A4335182E013744AE
S214009740FA60C9E7012303FA01F100EB40000301C8
S21400975003F1804303F5703341F210029950CAE7D3
S21400976000C0034000E0436A436913F4807FFAD1E7
S21400977042F23C032022C25070470000002A39D033
S214009780F8B50446164603F00305836823F44073D1
S214009790024642F8083F2B0202F500504FF440778D
S2140097A0076002F58052136029B9134B9C4217D00C
S2140097B0124B9C4219D0A368114B5B5D03FB06F26B
S2140097C06AB1A1EBC6031344013BB3FBF2F3013BC2
S2140097D0A26812F0020F01D003B90123A361F8BDFD
S2140097E02E20FFF79FF80146E5E72F20FFF79AF8AF
S2140097F00146E0E7704700BF0000014A00800640CF
S21400980028280200043021B900F500500123036027
S214009810704700F58050F9E738B504460D4600233A
S214009820036442F23C030C4AC25000F108034A7833
S21400983072B103F5005302221A602B7BAA6869688E
S2140098402046FFF79BFF29782046FFF7DBFF38BD51
S21400985003F58053EFE700BFFFFF1F00B44B9842AD
S21400986019D0B44B984240F06081B34B70B49C68FA
S214009870C26B12F4C06F10D11978082900F2448127
S214009880DFE811F01900380067008600A800C8005D
S214009890F00009013601A94BE8E712F4007F04D076
S2140098A0FD225A7009221A7013E012F4806FF9D064
S2140098B0FE225A70F6E7618811F0100F10D0228849
S2140098C0120A02F0060242F0F00201211970426309
S2140098D0C1601A78092A00F01C81012070BC70470C
S2140098E0248804F0FE04224611F0020FEDD044F066
S2140098F00102EAE712F0800F18D112F0400FE8D00C
S21400990042F23C0240218150628812F0100F18D1BA
S21400991012F0020F1AD007221A701A7904EBC2044A
S2140099202289012AD5D10822C260D2E742F23C023F
S21400993080218150FF225A7008221A700222C260CB
S214009940C7E702221A7022784263C2E705221A701D
S2140099508EE712F0800F0DD112F0400FB9D042F210
S2140099603C0240218150628812F0020F0DD0032283
S2140099701A707DE742F23C0280218150FF225A7025
S21400998008221A700222C260A3E705221A706FE747
S214009990618811F0100F16D02288120A02F0060213
S2140099A042F0F00211F0040F07D042F001021979DC
S2140099B004EBC1042189012909D004211970012171
S2140099C0C160426385E7228802F0FE02EAE70821CA
S2140099D0C160F2E712F0800F0ED112F0400F3FF494
S2140099E078AF42F23C0240218150628812F0040FA8
S2140099F00DD007221A706CE742F23C02802181509B
S214009A00FF225A7008221A700222C26061E70522FD
S214009A101A702DE759881A7904EBC2052D89A942D8
S214009A2016D3002159800132D2B21A71618811F022
S214009A30040F0AD111F0010F02D1012A7FF618AFE8
S214009A4008221A700222C26043E703221A700FE748
S214009A5004EBC20462684C1C5C80525C42630622C3
S214009A601A7036E712F0800F0AD112F0400F3FF45A
S214009A7030AF42F23C024021815005221A70F7E6D0
S214009A8042F23C0280218150FF225A7008221A704E
S214009A900222C2601DE712F0200F3FF41AAF1A79B7
S214009AA004EBC2021289416AC9B242F23C05202682
S214009AB046515D88AA4206D91E7904EBC60464683E
S214009AC06E1C5E80615559888A4204D808221A7036
S214009AD00222C260FDE60421C160012A7FF6F9AECB
S214009AE05988013A91427FF4F4AE0822C260F0E64B
S214009AF012F4807F3FF4EDAE42F23C024FF48071E8
S214009B00815009221A70E4E6FB225A7009221A7064
S214009B10DFE60022026493F90120012A02D093F9BD
S214009B200100DBE600225A70F9E76FF00300704789
S214009B300000014A00800640F0210020E4210020B9
S214009B401E4B98422ED01E4B98422DD11D4B10B561
S214009B50026912F0010F01D02022C2604A8812F07A
S214009B60020F01D00C8914B312F0040F01D00A8A38
S214009B7002B3044600221A70012058705A801A71E7
S214009B809960C023E3602046FFF7ECFD42F23C03F9
S214009B900D4AE250236C43F4FC6323642046FFF72F
S214009BA05DFE10BD094BD2E76FF0030070476FF003
S214009BB00300F6E76FF00300F3E700BF0000014A7A
S214009BC000800640F0210020FFFF1F00E421002057
S214009BD0074A41F268034FF40031D150054B41F675
S214009BE07132DA6342F20C0201219950704700BFCD
S214009BF00080004000000340084B41F67132DA63F3
S214009C0042F20C02012199500022DA63044A42F221
S214009C1068034FF40031D150704700BF0000034086
S214009C2000800040024B4FF400321A60704700BFBD
S214009C30705000404FF04023D3F894007047000067
S214009C4010B40B784A7843EA8203CA7843EA421390
S214009C500A7943EA021300EB4004A20002F19042A4
S214009C6013630B78012B02D05DF8044B70478A789B
S214009C70014B43F82020F7E7E88003404FF090437D
S214009C805B680BB9002837D04FF090435B6843B150
S214009C904FF090435B6823B14FF090439B6A002BD4
S214009CA0F6D180B1154B01221A604FF090435B68E5
S214009CB023B14FF090439B6A002BF6D14FF09043B0
S214009CC00122DA6070474FF090435B6823B14FF093
S214009CD090439B6A002BF6D14FF090430222DA6045
S214009CE04FF090435B6823B14FF090439B6A002B84
S214009CF0F6D1034B01221A60704700BF04100048DB
S214009D00042000484FF090435B6843B14FF0904307
S214009D105B6823B14FF090439B6A002BF6D1134B40
S214009D2001221A604378DBB113468278D2B1022250
S214009D301343C278C2B104221343027943EA0213E2
S214009D40427943EAC2034FF090429360084B0122E7
S214009D501A60037803B902224FF09043DA60704726
S214009D600023E2E70022E3E70022E5E704200048BC
S214009D7004100048084A41F264034FF48031D15081
S214009D80064B5B69C3F38512827003F03F02427094
S214009D901B0B0370704700BF0080004000C00740E8
S214009DA010B4194CA04214D004F58044A0421DD033
S214009DB004F58044A0421BD004F58044A04219D08C
S214009DC004F58044A04202D04FF0FF3002E00420A9
S214009DD000E0002083B9120200EB400043000B4471
S214009DE00A4941F823205DF8044B70470120F1E74B
S214009DF00220EFE70320EDE700EB400043000B44B2
S214009E00024941F82320EEE7008004400C8103401D
S214009E10036B13F0010F03D0036913F0400FF7D163
S214009E20704738B505460C46FFF7F2FF42F230039E
S214009E300122EA50628823791B0243EA8243627A4F
S214009E40134362787AB340221343A27A6AB380221D
S214009E501343E27A5AB320221343227B4AB31022DA
S214009E601343627B3AB308221343A2792AB34FF412
S214009E70803213436B6041F230030122EA502378AC
S214009E800BB90223EB6000236B62E279237A43EA84
S214009E90820362799AB110221343AB6023780BB128
S214009EA00123EB6038BD0022CEE70022D0E7002277
S214009EB0D2E70022D4E70022D6E70022D9E7002224
S214009EC0EAE770B504460D461646FFF7A1FF42F2D4
S214009ED030030122E250B379F2796AB34FF480126C
S214009EE01343727A52B310221343F27A43EAC24300
S214009EF0EA1C5201A350337A13BBEB1C5B01E258F9
S214009F00E25041F230030122E250327873781B06A9
S214009F1043EA8263F27843EA0233327943EA8223E1
S214009F20727943EA0223B27ADAB900221343033580
S214009F3004EB4514636070BD0022D1E70022D3E72E
S214009F401346A258317B42EA4142E250337B13F17A
S214009F50FF3318BF0123B27829462046FFF720FFBB
S214009F60CFE70422E2E700000A4B984207D00A4BEC
S214009F70984209D0C36D43F08003C3657047A3F5CC
S214009F801033C3F88C11F5E7A3F52033C3F89C1102
S214009F90F0E700BF00C005400000064070B505466B
S214009FA016461C46084641B1202C23D00AD9402C20
S214009FB01ED0602C1BD1042206E04FF42070FEF762
S214009FC0B1FCF1E79CB9102206FB02F2530803EB42
S214009FD04010B0FBF2F02038074B03EAC000AB6835
S214009FE023F06003AB60AB681C43AC60E86170BDF7
S214009FF00622E9E70822E7E7F8FF7F0038B50546BE
S21400A0001446084631B101386400B0FBF4F0000293
S21400A010E86138BD4FF42070FEF784FCF3E741F2A8
S21400A02004030122C250CB43934003F00A0343616A
S21400A030416111B942F20403C250704741F2040371
S21400A0400122C25040F6AA63436100238360C365C1
S21400A05041F20502C2600361C361C36442F2480272
S21400A0600C49815083650C4B984203D003F580431E
S21400A070984201D100230365074B984203D003F5AD
S21400A0808043984201D10023436542F20403012233
S21400A090C2507047FFFF010000C0054038B50546B6
S21400A0A00C46FFF7CBFF41F204030122EA50A37CE3
S21400A0B01BB1AB6843F08043AB60E37C002B3CD124
S21400A0C0637B228A1343E2891343EB60237BA268F7
S21400A0D061682846FFF762FF637D1BB1AB6843F4F7
S21400A0E08033AB60A37D1B0703F0E043E27D1205DF
S21400A0F002F4E0021343AB65237E023BDBB2012B86
S21400A10020D9214B9D4236D003F580439D4230D066
S21400A1104FF0FF335B0103F1804303F5703342F2E7
S21400A1201C6202219950237E012B26D0032B24D0BB
S21400A13042F25C030422EA5023E0217D2846FFF722
S21400A14013FFBDE7104B9D4211D003F580439D429F
S21400A1500BD04FF0FF335B0103F1804303F5703300
S21400A16041F21C6202219950DDE70123F3E7002348
S21400A170F1E70123CEE70023CCE741F25C0304229B
S21400A180EA5023786B6138BD00C0054038B50546F7
S21400A1900C46FFF753FF41F204030122EA50AA6877
S21400A1A0238A43F00103A17B00292DD04FF4806160
S21400A1B00B431343AB60AB68227D3AB34FF00052BB
S21400A1C01343AB60A37C1BBB237B43F48053EB6041
S21400A1D0A26861682846FFF711FF637B0BB1102366
S21400A1E06B61637D1BB1AB6843F48033AB60A37DCA
S21400A1F01B0703F0E043E27D120502F4E00213437E
S21400A200AB6523786B6138BD0021D1E70022D7E724
S21400A210E17C2846FFF7A8FED6E7836913F0800F97
S21400A220FBD0406AC0B27047836913F0400FFBD082
S21400A230C163836913F0200FFBD0406AC0B2704739
S21400A240836913F0400FFBD0C1637047436813F077
S21400A250010F00D1704710B50446FFF70CF8636A8B
S21400A26013F0010F01D10123E360FFF708F810BDDA
S21400A27038B5044608F04DF8044D0FCC0FC594E8E9
S21400A280030085E80300002038BD00BFFC21002045
S21400A29047F6FF739A4275D0022975D8F0B40D467A
S21400A2A03B4B03EBC100847824EAE474204613F8A1
S21400A2B03130012B24D0364B03EBC1035C68002CF5
S21400A2C064D0B4F90060964204DBB4F902609642AA
S21400A2D000DC1646A388FF2B26D02827C82300229A
S21400A2E035469B1B93FBF7F313441BB2284A02EB3D
S21400A2F0C1014E78721E12B29A422BDB1A4629E032
S21400A300234B03EBC101C878001B01E0013800B203
S21400A31038B11F4B03EBC5035B6833F9103093422B
S21400A320F4DC2044C0B22BE0B4F90630B4F908706F
S21400A3300122D5E703F5FA731649A1FB03139B091F
S21400A340013212B21746B2420FDA04EBC201898814
S21400A35099420AD304EBC2018F68B1F9063003FBB9
S21400A3600573002BE6DA0023E4E77A1E04EBC2024C
S21400A37092889A4200D31A46824200D31046C0B250
S21400A380F0BC7047FF207047002070470020F7E7BA
S21400A390FC210020D34D621002295AD8314B13F805
S21400A3A03130012B25D0F0B42E4B03EBC1035C6893
S21400A3B0002C50D0251D50D0B4F9020084468242AD
S21400A3C02DDD284B03EBC103DB78934225D9254BC3
S21400A3D003EBC1014F78013FFFB20023BB4220D2FE
S21400A3E0591C35F8316091B28E421AD30133DBB274
S21400A3F0F4E71C4B03EBC103DB7893420BD2194AFC
S21400A40002EBC1018A78002AA8BF9B1ADBB24A6811
S21400A41032F9130070471346F1E7B4F90000F0BCB8
S21400A42070474FF47A7101FB02F205EBC3035968DB
S21400A430521AB3F9021001EBD17302EB630393FBDC
S21400A440F1F3B4F900209A4209DB9C45E7DC18B228
S21400A450E5E7054870470448E1E70348DFE71046AC
S21400A460DDE700BFFC2100200080FFFF08B50248A2
S21400A470FFF7FEFE08BD00BF2C28020000B587B01F
S21400A4800023019303930493059302238DF804306D
S21400A4900A4A02928DF80D3004228DF80E208DF8AF
S21400A4A0133005238DF814300DEB02014FF0FF300A
S21400A4B007F09AFF07B05DF804FB00BF006A1800BB
S21400A4C02D2822D8DFE800F0172121212121212183
S21400A4D02121212121212121212121212121212167
S21400A4E02121212121211B212123212121211D215F
S21400A4F02121211F21190748704707487047074840
S21400A500704707487047074870470748704707482E
S21400A510704700BF682A0200F428020008290200DB
S21400A520302902004829020068290200CC280200CF
S21400A53010B48468C368194454F82110084610F80B
S21400A540023B497803EB012313605DF8044B704728
S21400A55010B504464FF42D72002114F0D8FF802366
S21400A560C4F88C300023C4F89030C4F8943084F8D3
S21400A5709830054A626001222272C4F8A83204F1BB
S21400A5809C00FDF744FB10BDC828020010B50A4623
S21400A590D0F8A03033B1D0F8A41010469847002465
S21400A5A0204610BD00F0A4FD04460028F8D0FFF7B2
S21400A5B087FF0146014801F0FEF8F1E7D0110200DE
S21400A5C038B5044600F10905284614F0B2FF00B974
S21400A5D038BD204600F01EFF29462046FFF7D6FF6E
S21400A5E0204600F028FEF3E7F8B50778AFBB05462F
S21400A5F001230370037A0BB93E4613E0002303726F
S21400A6004168174801F0D7F8F6E701F0B8F80446B5
S21400A61011E0E1B2284600F041FF0746B4F1FF3FE3
S21400A6200ED06FB9D5F8B042B4F1FF3FEDD04FF081
S21400A630FF33C5F8B032B4F1FF3FEAD10126EDE7AB
S21400A6401FB900232B703046F8BD2846FFF7B8FF29
S21400A6506968034801F0AFF8F3E70026F3E700BFA8
S21400A6607829020038B504460D46FFF771FF6B687F
S21400A670C4F8AC32A968204600F0FEFB4FF0FF336A
S21400A680C4F8B032002038BD10B50446D0F8B03259
S21400A690B3F1FF3F06D0D4F8B032B3F1FF3F06D097
S21400A6A0002010BD01F06BF8C4F8B002F3E70120FB
S21400A6B0F7E708B5FFF798FF08BD1038072801D957
S21400A6C00020704701207047A0F11003072B00D828
S21400A6D0D8B27047F8B506460D4617460B78302BAD
S21400A6E00DD000242B5D002B52D014F0BDFE2B5D48
S21400A6F01844437813F0040F6FD00134F2E74B7818
S21400A700782B03D0582B0ED00024EBE702242B5DC9
S21400A7105BB114F0A9FE2B5D1844437813F0440F88
S21400A72059D00134F3E70224F1E7724206F003033E
S21400A73002F0030258BF5342032B0CD0284614F0F5
S21400A740F8FE02383346002E20DBB0EBA30FD4BF52
S21400A7500120002042E0284614F0EBFE02380136C5
S21400A76009D4B610B04208D1A87830380728CCBF34
S21400A7700020012032E00336F3E7284614F0D9FE25
S21400A78002388642D4BF0020012027E0F31CDCE715
S21400A7900A220021284615F02DF8202E14D037B1B5
S21400A7A050EA010303D010F1FF3041F1FF310123DD
S21400A7B003FA06F6013E00EA060200238B4206BFB5
S21400A7C082420120002009E000238B4206BF80421F
S21400A7D00120002002E0002000E00020F8BD08B5BF
S21400A7E00B782D2B04D000220138FFF773FF08BD2D
S21400A7F0012211440138FFF76DFFF8E703787B2B41
S21400A80001D00020704770B5044600260125284672
S21400A810635D7D2B10D014F027FE635D18444278EC
S21400A82012F0440F02D001360135F0E7202B01D09C
S21400A830002070BD0135EAE72044437833B916F0AE
S21400A840010F01D10120F4E70020F2E70020F0E735
S21400A85008B5072826D8DFE800F0060B1015191DE6
S21400A8600421012008BD00220820FFF733FFF9E786
S21400A87000221020FFF72EFFF4E700222020FFF72B
S21400A88029FFEFE70820FFF7AAFFEBE71020FFF706
S21400A890A6FFE7E72020FFF7A2FFE3E70846FFF75B
S21400A8A0ADFFDFE70020DDE72DE9F04383B00E467D
S21400A8B090461F460A9C0B9D212827D8DFE800F00B
S21400A8C011293C4E6174868A2626262626262626AA
S21400A8D02626262626262626262626262626262613
S21400A8E026B400221146304615F014F82B68C0B284
S21400A8F047F823002B68226807EB830748F8227086
S21400A9002B6801332B6023680133236003B0BDE856
S21400A910F08300221146304614F0FCFF2B6880B20C
S21400A92047F823002B68226807EB830748F8227055
S21400A9302B6801332B60E6E700221146304614F000
S21400A940E9FF2B6847F823002B68226807EB83078C
S21400A95048F822702B6801332B60D4E7002211469A
S21400A960304614F07DFE40B22B6847F823002B6873
S21400A970226807EB830748F822702B6801332B60A8
S21400A980C1E700221146304614F06AFE00B22B687A
S21400A99047F823002B68226807EB830748F82270E5
S21400A9A02B6801332B60AEE700221146304614F0C8
S21400A9B057FE2B6847F823002A68236807EB8207B0
S21400A9C048F823702B6801332B609CE7236848F80F
S21400A9D0231098E700278DF80670B94601250FE08A
S21400A9E001350DE08DF8053009F10109102200212E
S21400A9F001A814F035FEBB1CF0540137BFB2013578
S21400AA00735D7D2B09D0202BEAD019F0010FE9D118
S21400AA108DF8043009F10109F1E737703F0A7770C5
S21400AA20236848F823606EE7236848F823106AE72F
S21400AA302DE9F04F87B00024059404948B4200F370
S21400AA408D809A461646894605462746A04602E069
S21400AA504FF001080134285DFF280CD02028F7D0DD
S21400AA60212805D0FFF729FE0028F3D00746F1E796
S21400AA704FF00108EEE75444B8F1000F08D0013C4F
S21400AA804C456FDC0024A346A046FF23029348E013
S21400AA903FB1013C4C4567DC0024A346FF230293EC
S21400AAA03FE0A14562D1B8460024A346FF230293A7
S21400AAB037E005EB0B035B78FF2B0FD02B204EE027
S21400AAC0039B2B445B78FF2B52D14FF0010805E027
S21400AAD00BF1010B029701E006230293B8F1000F79
S21400AAE013D156F82410029F3846FFF7B1FE00280F
S21400AAF042D004AB019305AB0093119B109A56F815
S21400AB0024103846FFF7D0FE0AE004AB019305ABED
S21400AB100093119B109A56F824102120FFF7C4FECC
S21400AB2001344C4518DA5445D6DBCDF80CB015F890
S21400AB300B70202FBDD0212FC2D03846FFF7BDFDA9
S21400AB400028C5D0039B2B445B78FF2B12D13846D8
S21400AB50FFF7BAFD0290C1E7002000E0212007B011
S21400AB60BDE8F08F2B20FAE72B20F8E72B20F6E73E
S21400AB702B20F4E72B20F2E72620F0E711283CD024
S21400AB800BD9162841D01DD9212842D023D8172802
S21400AB903DD0202841D123487047042825D008D826
S21400ABA001283CD0E8B102281DD0032835D11E4824
S21400ABB0704706281DD01AD307281CD010282CD181
S21400ABC01A48704713281CD019D314281BD01528F0
S21400ABD023D117487047FE281DD0FF281DD11548E1
S21400ABE07047154870471548704715487047154810
S21400ABF07047154870471548704715487047154800
S21400AC0070471548704715487047154870471548EF
S21400AC1070471548704715487047154870471548DF
S21400AC20704700BF1C2A0200A0290200C4290200A7
S21400AC30FC2902003C2A020088290200982902000A
S21400AC40A8290200B0290200B8290200C029020083
S21400AC50D0290200DC290200E8290200F0290200BF
S21400AC60082A0200142A0200282A0200342A0200B7
S21400AC70402A02009029020008B5FDF70AF808BD30
S21400AC802DE9F04784B081468A4690461E460C9FC2
S21400AC900D9D04462068B0B12B683268934212DAE4
S21400ACA057F82310FFF7E8FF08B10C34F2E72B68DB
S21400ACB001332B6063681A7BFE2A15D001230E9A97
S21400ACC0137088F8003098F800304BB90F9B1B784B
S21400ACD033B9BAF1000F15D001230F9A13704C4602
S21400ACE0204604B0BDE8F08718680F9B03930E9BC0
S21400ACF0029301950097334642460121FFF7C0FFB5
S21400AD000446E0E70024EBE770B506460D4614F06F
S21400AD1010FC0446304600F04EFD03E0034800F009
S21400AD204AFD0134AC42F9D370BD00BFA012020048
S21400AD302DE9F84F044602213348FFF7E5FF1E21B0
S21400AD402068FFF7E1FF6368586800F034FD2F487D
S21400AD5000F031FD6268137B0233DBB2012B50D961
S21400AD6002F10C09D2F808A0504614F0E2FB0746A0
S21400AD704FF0FF34002510E02B2000F010FD36E0E9
S21400AD8000F00DFD01341AF804001F2801D0BC4263
S21400AD90F6DB1E4800F00FFD0135A84619F80560E1
S21400ADA0FF2E2ED03046FFF7E9FE8346002F00DD4B
S21400ADB00134202EF0D0144E02213046FFF7A4FFB7
S21400ADC01E213046FFF7A0FF114800F0F4FC1149A1
S21400ADD0584614F0A4FB08B9DFF844B059460E48AC
S21400ADE000F0E9FCC84498F80130202BC4D00B488A
S21400ADF000F0E1FC002FCCDD1AF804301F2BC2D186
S21400AE00C7E7BDE8F88F00BF682A02005824020092
S21400AE1080290200282A02007829020084290200DC
S21400AE207C29020038B50546002402E0FFF780FFC3
S21400AE30013404EB44029300E818EB5823B1037A7C
S21400AE40002BF3D00134F4E738BD10B541B11AB188
S21400AE500846FFF76DFF10BD0846FFF7E3FFFAE769
S21400AE60D0F89C4000E02468002CF4D0A0680028AD
S21400AE70F9D0FFF7D7FFF6E759B10A790AB10020F3
S21400AE80704710B501240C719C30FCF7C3FE2046B9
S21400AE9010BD0020704700002DE9F04F91B0074626
S21400AEA0039104929A46DDF8688000F10904204672
S21400AEB014F03FFB83460023CAF80030C8F8003081
S21400AEC008AA07A9204600F099FC28B1002302939F
S21400AED0029811B0BDE8F08F089814F02AFBCAF863
S21400AEE00000D7F89C3001930023029399461C4635
S21400AEF0AEE0D8F800300133C8F8003001343B1912
S21400AF005B7A202BF5D0002411E0D7F89420D8F8EF
S21400AF100030D21ACAF80020296810AB03EB890368
S21400AF2053F8200C14F00DFB009078B1013404EBBC
S21400AF3044029300F518F358002B60D0079B4B454E
S21400AF405DDB2B7A002BE0D00134F0E7286814F0A4
S21400AF50F0FA84466A68117BFE2911D0D7F894303F
S21400AF60D8F800001B1A63452ADDFE29DED1079BB0
S21400AF70013B4B45DAD115680594009C029E4BE0D8
S21400AF80079B013B4B45E9D0166810AB03EB8903E2
S21400AF9053F8200C14F0CDFA0130D8F800300344F2
S21400AFA0C8F8003002E00133C8F80030D8F80030A6
S21400AFB0FA18527A002AF6D009F10109009CB6E781
S21400AFC0039814F0B6FA0090286814F0B2FA009BC2
S21400AFD003447B2B0ED8029B013302932A68049904
S21400AFE0039D2846FCF742FE1E4A04992846FCF7B5
S21400AFF03DFE9BE71C4A04990398FCF737FE0023A6
S21400B00019E004990398FCF731FE164A0499039850
S21400B010FCF72CFE0136013404EB44029300EA5898
S21400B020002AEED1059C0296C8F800B00023CAF8A4
S21400B0300030E4E701335B4507DAFA18527A002A53
S21400B040F8D1FA1820215172F4E7019B1B6801938E
S21400B050019B002B3FF43CAF019B9E68002E7FF4C3
S21400B0604EAFF2E7A0120200502A02002DE9F04788
S21400B07086B00446894617461D46DDF838800F9E82
S21400B08000238DF817302B6088F8003033702B685B
S21400B09052F823101548FFF7EFFD40B92B6801332F
S21400B0A02B604FF0010AD4F89C40002003E04FF0DC
S21400B0B0000AF8E724688CB1A0680028FAD0039646
S21400B0C0CDF80880019500974B460DF11702002138
S21400B0D0FFF7D6FD9DF81730002BEBD0BAF1000F26
S21400B0E001D00123337006B0BDE8F087482A02007D
S21400B0F070B5A2B0054608461AAA19A900F07EFB4C
S21400B100044610B1204622B070BD00238DF80F30E3
S21400B1100DF10F0301930DF10E03009304AB1AAA71
S21400B12019A92846FFF7A2FF9DF80F30D3B900B340
S21400B130466811AB019309AB0093049B1AAA1999B0
S21400B14006F10C00FFF774FC04460028DAD10595DA
S21400B150199B069309AB0793049B0893336805A8CD
S21400B1609847CFE79DF80E2001462846FFF76DFE6C
S21400B170C8E72D24C6E770B505460024264600E03D
S21400B180013405F1A80014F0D4F9A04207D92B1910
S21400B19093F8A8301BB10A2BF2D10136F0E73046FF
S21400B1A070BDF8B500230B601360D0F8A8320BB959
S21400B1B00020F8BD15460E460746A83014F0B9F92B
S21400B1C050B30121002301E001330131D7F8A82252
S21400B1D08A4213D9B3F5007FF7D23468013434605D
S21400B1E02C6801342C60FA1892F8A8200A2AEBD0B2
S21400B1F00133EFE72A6801322A600133B3F5007F96
S21400B20008D2FA1892F8A8200A2A07D0002AF1D104
S21400B2100120CEE70120CCE70020CAE70120C8E7DE
S21400B22008B50144487A00F0BAFA08BD08B5082007
S21400B23000F0B5FA08BD10B50446D0F88C20002101
S21400B240093014F064F90023C4F89030C4F8943040
S21400B25010BD0000F0B5ADF5457D044680252A46B4
S21400B2600021A4A814F053F9A3AB0093A2AB2A467E
S21400B270A4A92046FFF710FE012810D0012840F3AD
S21400B280C2808022002102A814F041F94FF4007217
S21400B290002122A814F03BF9012500233FE0A4A8D2
S21400B2A014F047F90646A29A08E0A39B1344C4A9E3
S21400B2B0114411F8801C234459720132B242F4DB67
S21400B2C0A39B3344234400225A72D4F890700AE0B9
S21400B2D0D4F890102046FFF7A3FFD4F8903001333F
S21400B2E0C4F890300137A29DA39B2B44BB42EFDCF1
S21400B2F0731BD4F894201A44C4F89420D4F89020F1
S21400B3001344C4F8903006E0C4AB2B4413F8800C0A
S21400B31000F045FA0135B542F6DB74E00133C4AA05
S21400B3201A4412F8802C3AB1202AF7D15A1C22A9C6
S21400B33041F825200135F1E722AA42F825300135EB
S21400B340A4A814F0F6F8002104E00123CBB102AB68
S21400B3505E540131A94217DAC4AB0B4413F8806C73
S21400B360002222AB53F822308342EED00B44C4AF07
S21400B3703B4413F8803CB34201D10132F1E700238D
S21400B380E4E702AB00225A54D4F890500AE0D4F80E
S21400B39090102046FFF744FFD4F890300133C4F8ED
S21400B3A090300135A29BAB42F1DC04F10903174A49
S21400B3B0A4A9174800F0FFF902A814F0BAF8064648
S21400B3C0A29D2A4610E0A39B134402A9895C23444D
S21400B3D05972D4F890300133C4F89030D4F89430D1
S21400B3E00133C4F894300132B242ECDBD4F8943026
S21400B3F01C440023637204E002AB585D00F0CFF9F2
S21400B4000135B542F8DB0DF5457DF0BDC8280200D4
S21400B410582A0200F0B583B004460EE02046FFF737
S21400B420AAFEC4F8A80201AA69462046FFF7B9FE9C
S21400B430009B2344002283F8A82004F1090528462F
S21400B44014F077F8471C04F1A806304614F071F89B
S21400B450C0F500708742E1D8284614F06AF801303B
S21400B4603718304614F065F8421C3146384614F05A
S21400B47035F8284614F05DF802462946304614F0A2
S21400B48022F8284614F055F820440A2380F8A830FD
S21400B4900023C4F8A83203B0F0BD00002DE9F8433D
S21400B4A0D0F89060D0F8947000F1090890F89830C1
S21400B4B0012B0CD00D460446012B0FD9022B00F0B1
S21400B4C0C680032B00F0D0800020BDE8F8830A2950
S21400B4D0F0D1002380F898301846F6E71B2929D0CB
S21400B4E00D292CD0002380F89830082D2BD07F2DE6
S21400B4F065D00D2D00F087800A2D00F08480092D80
S21400B50000F08E80D4F88C30013BBB4240F3DD80E7
S21400B510BE42C0F28A8008F806500136C4F8906031
S21400B520D4F894300133C4F89430284600F037F944
S21400B5300020CAE7022380F898300020C5E70123E0
S21400B54080F89830D1E7002E01DDBE420CD0002EE8
S21400B55001DDBE4217DB002E00F0B380C4F8906019
S21400B560C4F894700020B0E7082000F018F92020F6
S21400B57000F015F9082000F012F9013E002308F843
S21400B5800630013FEAE7013E082000F008F908EB24
S21400B5900605711CBA1B4144284613F09FFF002382
S21400B5A008F8073029464C4800F005F9013F3D46AB
S21400B5B002E0FFF73BFE013DB542FADCCEE7002F86
S21400B5C040F38180BE4201DB00207EE708EB0605E3
S21400B5D0711CBA1B4144284613F080FF002308F86C
S21400B5E0073029463D4800F0E6F803E0082000F062
S21400B5F0D6F8013FB742F9DCD4F89430013BC4F8E2
S21400B6009430002061E70D2000F0C9F80A2000F011
S21400B610C6F80023C4F89030C4F89430012054E7EC
S21400B6202046FFF717FE00204FE7701C08EB0609C0
S21400B630BA1B4946404413F051FF484600F0BBF899
S21400B64002E0FFF7F3FD013FB742FADA63E75B2952
S21400B65004D1032380F89830002036E7002380F8D2
S21400B6609830FFF71BFF30E7002380F89830A1F1F1
S21400B6704105032D2BD8DFE805F002070D1B01213D
S21400B68000F02EF8002020E74FF0FF3100F028F8F9
S21400B69000201AE7BE4201DB002016E73146FFF71E
S21400B6A0BFFDD4F890300133C4F8903000200CE78A
S21400B6B0002E0EDD013EC0F89060FFF7B7FD0020BB
S21400B6C003E7002001E70020FFE60020FDE600205B
S21400B6D0FBE60020F9E600BF642A02006C2A02009E
S21400B6E030B583B005460C46FFF745FDB4F1FF3F85
S21400B6F003D0012C0ED003B030BDD5F8A83293B1DC
S21400B700013BC5F8A8320123D5F8A842BCB1FBB16D
S21400B710002414E0D5F8A8328342ECD20133C5F8F1
S21400B720A8320123F0E70023EEE7082000F037F800
S21400B730202000F034F8082000F031F8013405F13C
S21400B740090013F0F6FEA042EFD82846FFF773FD77
S21400B750D5F8A832002BCED001AA69462846FFF7B6
S21400B76020FD0028C7D0009C019BA342C3D92B19FB
S21400B77093F8A8102846FFF791FE0134F4E700B5C9
S21400B78083B00DF10701002000F07EF920B99DF886
S21400B790070003B05DF804FB4FF0FF30F9E710B583
S21400B7A00446C1B2002000F05CF908B9204610BD7E
S21400B7B04FF0FF34FAE70FB400B583B004A951F890
S21400B7C0040B019104F04EFC002003B05DF804EB7E
S21400B7D004B0704710B54B1CC418C35C222B05D0B0
S21400B7E07B2B03D05C2B01D0002006E00B46521AC0
S21400B7F02146184413F072FE012010BD2DE9F843CF
S21400B80005468846914613F094FE0646002400E05E
S21400B81001342A192B5D202BFAD0C9F80020012309
S21400B820C8F8003030E07B2B14D0D8F8003003F195
S21400B8308043013B621C2A4449F823202227012C1E
S21400B84006D92B1913F8013C202B01D0002B49D127
S21400B850013404E07D27F2E70134A64246D92A19CE
S21400B8602B5DBB4209D05C2BF6D1324621462846DA
S21400B870FFF7B0FFC0B3013EEEE75378202B00D0B1
S21400B880BBBB222F21D00134A64229D92A192B5D11
S21400B8907B2BC8D0222BC6D05C2B19D0202BF2D104
S21400B8A000231370631CB342EDD2EA18EB5C202B26
S21400B8B0E9D0D8F80030072B1FDC49F82320D8F849
S21400B8C000300133C8F80030DDE700231370DAE7F4
