S00B000073696E6B2E73333734
S21400600000100020D5780000A1BD0000A5BD00004E
S214006010C1BF0000A9BD0000B1BD0000D1780000DE
S214006020D1780000D1780000D1780000D178000047
S214006030B5BD0000D1780000D1780000D17800000E
S214006040D1780000D1780000D1780000D178000027
S214006050D1780000D178000031800000A1810000D6
S214006060D1780000D1780000D1780000D178000007
S21400607071CF0000D1780000D1780000A96F000031
S214006080996F0000D1780000D1780000D178000028
S214006090D1780000D1780000D1780000D1780000D7
S2140060A0D1780000D1780000D1780000D1780000C7
S2140060B0D1780000F9620100D1780000F96D010086
S2140060C0A96D0100A56D0100C5640100F56D010014
S2140060D0AD6D0100CD6D0100B16D0100556E010082
S2140060E071770100715401003D6E0100D178000007
S2140060F0D1780000D1780000D1780000D178000077
S214006100D1780000D1780000D1780000D178000066
S214006110D1780000D1780000D1780000D178000056
S214006120D1780000D1780000D1780000D178000046
S214006130D1780000D1780000D1780000D178000036
S21400614010B5054C237833B9044B13B1044800E06E
S21400615000BF0123237010BD0417002000000000BC
S2140061600861020008B5034B1BB10349034800E071
S21400617000BF08BD000000000817002008610200EC
S214006180154B002B08BF134B9D46A3F5803A002104
S2140061908B460F461348144A121A19F090FF0F4BFD
S2140061A0002B00D098470E4B002B00D098470020BD
S2140061B0002104000D000D48002802D00C4800E025
S2140061C000BF19F001FF2000290000F08FFD19F034
S2140061D0E7FE00BF000008000010002000000000DE
S2140061E00000000004170020983200200000000085
S2140061F000000000002308E003EB4301CA00044946
S2140062004FF6FF7088520133DBB2092BF4D9704782
S214006210A02C00202DE9F04383B00746894690461F
S2140062201E461E4C002323701D4D4CF20F012846BF
S21400623014F008FA23780233DBB2581CC0B2207080
S21400624005F8039008221749284419F014FF20780F
S2140062500830C0B22070144B1988284414F0F2F9A4
S21400626023780233DBB2237076B90C4B1B780F4AC7
S214006270127801920A4A009200221146384612F01D
S21400628097FC03B0BDE8F0833246414628461844E2
S21400629019F0F1FE227816442670E6E7351700203E
S2140062A02017002097290020941100209A10002023
S2140062B008B512F073FC20B90C4B1B6800221A704C
S2140062C008BD00231A4601214FF6FF70FFF7A2FF14
S2140062D002464FF6FF71064809F036FB4EF660217F
S2140062E0024B186812F023FEEAE700BF982C002045
S2140062F0080702002DE9F04F8BB012F04FFC08B1F2
S214006300002406E0394B1B6800221A706BE001344B
S214006310E4B2092C61D8254604EB4402D300344A83
S214006320D25A4FF6FF739A42F1D004EB4403DA00D8
S2140063302F4B13449B7C012BE9D96600114608318C
S2140063402B4F39440231012014F092F93319DA0048
S2140063503A44537A0893137A0993D37992F806C08D
S21400636092F805E092F8048092F803903544EA002B
S214006370174497F802A01F4981FB00518911C717DF
S214006380CD1B4FF47A7202FB15051B4E86FB00B23E
S214006390C7EB62124FF0640B0BFB1202174880FB30
S2140063A002B0D217C2EBA002079286FB0506ED17D5
S2140063B0C5EB66150695C91B0591CDF810A0CDF85E
S2140063C00C90CDF80880CDF804E0CDF800C0099A0E
S2140063D008990B4809F0B8FA99E74FF47A71034B1D
S2140063E0186812F0A4FD0BB0BDE8F08F902D0020C9
S2140063F0A02C0020D34D62101F85EB5167666666A1
S2140064008807020000B9704708B50146014809F040
S2140064109BFA08BD3809020008B5912814D09428C4
S21400642018D0902804D001460C4809F08DFA0AE0EE
S2140064300B4809F089FA0B4B186812F06DFD0A4BF1
S214006440186812F069FD08BD084809F07DFAFFF7E4
S214006450D1FEF8E7064809F077FAF4E7700902007B
S21400646044090200982C0020902D002050090200BC
S2140064706009020070B505F007F90646002401E041
S2140064800134E4B2092C1ED804EB4402D300134AAC
S214006490D15A4FF6FF739942F2D004EB4403DA0068
S2140064A00E4B13445B69F31A4EF660229342E7D90B
S2140064B00B4809F049FA04EB4405EB00074A4FF68F
S2140064C0FF71D152DCE712F069FB18B9054801F0FC
S2140064D09AFB70BD034801F091FBFAE7A02C002060
S2140064E088090200A41C020008B518B9044809F07F
S2140064F02BFA08BD0146034809F026FAF9E700BF63
S21400650014080200EC07020000B583B0009313469F
S2140065100A460146024809F017FA03B05DF804FB84
S214006520B807020010B582B000246A46082120464B
S21400653000F01EFF019A14440834234600990648CA
S21400654009F002FA009A054B9A42EED1044809F087
S214006550FBF9204602B010BD040A0200FC0404FC4D
S214006560300A020010B50A4C2070FFF7DBFF8922C4
S2140065700146207807F022FC10F0FF0F03D10548F3
S21400658009F0E2F910BDC1B2034809F0DDF9F9E7F8
S21400659098100020DC090200B4090200F8B58379DF
S2140065A00C2B00D8F8BD0446806814F03FF84CF277
S2140065B00F039842F6D1A3689B78022B28D00ED9F9
S2140065C0042B00F0BF8079D3A52B40F0BD806188F6
S2140065D0604809F0B9F96088FFF7C4FFE2E73BB10D
S2140065E0012B40F0B18061885B4809F0ADF9D9E72E
S2140065F061885A4809F0A8F900231A4601216088E4
S214006600FFF708FE02466188554809F09DF9C9E77C
S2140066106188544809F098F9002501E00135EDB28B
S214006620092D15D805EB4502D3004F4AD25A4FF62E
S214006630FF739A42F2D005EB4503D8004A4B184444
S214006640A16808220331023019F006FD0028E5D1C2
S2140066500A2D31D0092DA5D800231A4603216088BB
S214006660FFF7D8FD064602466188404809F06CF9F7
S214006670002E97D161883C4E6F007A19D300F0182F
S214006680F152A16808220331023019F0F4FC04F03C
S214006690FBFF3D44EB001E44706183E70135EDB21D
S2140066A0092DD7D805EB4502D3002F4AD25A4FF60C
S2140066B0FF739A42F2D1CDE70025F1E761882C48B6
S2140066C009F042F96EE7A368595D2A4809F03CF9DB
S2140066D00135EDB2A379AB42F5D8274809F034F975
S2140066E0A2790D3AD2B2204F7500A919CB003B44CF
S2140066F09A74A919CB000833D819A1680D31023055
S21400670019F0B9FC04F0C0FF3544EB001F44786173
S21400671048E70135EDB2092D3FF644AF2E4605EBAE
S2140067204503D800104B1844A168082203310230F4
S21400673019F092FC0028ECD16188104809F004F9A1
S2140067400D25C7E70025E6E761880D4809F0FCF847
S21400675028E700BF2C080200740802005008020058
S2140067600807020090080200A02C0020B0080200D3
S214006770D40802000C090200881E0200F408020079
S2140067801409020008B5044B1A7889214FF47A7070
S21400679007F050FB08BD00BF9810002000B583B07E
S2140067A006220021684619F08AFC0023ADF8023064
S2140067B0ADF8043040F2FF13ADF80030684614F030
S2140067C0FBFA0146024809F0BFF803B05DF804FB87
S2140067D0A809020008B514F0A1FBF021034809F04F
S2140067E0B3F8F02014F03CFB08BD00BF480A0200D6
S2140067F008B5134809F0A8F8124B1B6800221A7057
S214006800114B1B785BB1104600F016FE00F05EFDE3
S21400681048B10D4B00221A700C4809F095F812F09A
S214006820BDF920B108BD0A4809F08EF8FAE7094814
S21400683009F08AF8FFF7B2FFFFF7CCFFF2E700BFD8
S2140068402C0702009C2C0020991000205C070200F8
S214006850480702006C07020010B50E490E4806F005
S2140068604BFF0E490E4806F047FF0E4C0E492046D9
S21400687006F042FF0D4809F067F80D4817F054FA85
S214006880FFF7B8FC13F09CFF4FF47A71206812F003
S2140068904EFB10BDB1620000982C0020F56200008F
S2140068A0902D00209C2C0020F1670000300902008B
S2140068B09C10002010B582B00446104817F034FA39
S2140068C006220021684619F0FAFB0D4B1B88ADF82E
S2140068D00230A368E26853F822301B78ADF8043023
S2140068E040F2FF13ADF80030684614F065FA014632
S2140068F0044809F029F802B010BD00BF9C10002023
S21400690036170020D80A020010B582B08368C26825
S21400691053F822301C780023019343689B1A012BFE
S2140069200DDD01AA012103F06BF901469DF8040074
S21400693014F0DAFA204614F093FA02B010BD14F000
S214006940EDFAF7E710B502468168C36851F82300F0
S214006950B0F900000E4C20805268D21A012A0EDDD3
S214006960013351F8233093F90010003118BF01218C
S21400697016F01CF828B1074808F0E6FF10BD002105
S214006980F6E716F01EF80146034808F0DDFFF5E7C7
S21400699036170020B80D0200A40D020000B585B021
S2140069A0002300938268C36852F8232012788DF87B
S2140069B00C20022A12D06A46012103F021F9009A1F
S2140069C0014601A819F057FB01A811F021F801466D
S2140069D0064808F0B9FF05B05DF804FB826801338D
S2140069E052F823301B78ADF80430EDE7E40B0200D4
S2140069F008B5024B186812F08FFA08BD982C0020D4
S214006A002DE9F04188B01B4808F09EFF002401E005
S214006A100134E4B2092C29D804EB4402D300164A08
S214006A20D25A4FF6FF739A42F2D063002344D8003E
S214006A30114901444B7A087ACD798E794F7991F8CD
S214006A4004C091F803E091F8028049690791CDF8F7
S214006A501880CDF814E0CDF810C003970296019583
S214006A6000902146054808F06FFFD1E708B0BDE862
S214006A70F08100BFFC0B0200A02C0020140C0200CA
S214006A802DE97848254B1B7813F0020F3FD0244C95
S214006A9013F0010F3DD0224D13F0040F3BD1214ED1
S214006AA0214808F051FF214B996CD86C4FF0000B31
S214006AB04BEA010203461E4808F046FF12F066F84D
S214006AC001461C4808F040FF1B4B19781B4808F08D
S214006AD03BFF1B4B19881B4808F036FF1A4B1988DA
S214006AE01A4808F031FF15F06EFF0146184808F006
S214006AF02BFF15F066FF0146164808F025FF3346C3
S214006B002A462146144808F01FFFBDE87888054C41
S214006B10BEE7044DC0E7024EC2E700BF9A10002051
S214006B20580D0200600D0200E80A02000080E00F27
S214006B30F00A02000C0B020072290020280B02004B
S214006B4094110020440B020098110020600B0200F4
S214006B507C0B0200940B0200AC0B020008B513F08D
S214006B6081FE08BD08B58368C26853F822301878DD
S214006B7016F06EFB014618B1034808F0E5FE08BDA6
S214006B80024808F0E1FEFAE78C0C0200680C0200EE
S214006B9008B58368C26853F822301B780B4A137016
S214006BA013F0020F0CD00A4913F0010F0AD0084A5E
S214006BB013F0040F08D1074B074808F0C5FE08BDC0
S214006BC00449F1E7034AF3E7014BF5E79A10002082
S214006BD0580D0200600D0200200D020008B504F0FA
S214006BE0A9FD08BD38B58268C36852F823100C7832
S214006BF0013352F823301D782946204616F0FEFF52
S214006C0020B10146044808F09FFE38BD2A462146BA
S214006C10024808F099FEF8E7000E0200D00D0200C8
S214006C2010B586B0002106AA42F8041D02F0E8FF5F
S214006C30059A102A05D01021174808F085FE06B0E0
S214006C4010BD014601A819F016FA01A817F06CF855
S214006C50E8B9124808F078FE002408E006AB2344A2
S214006C6013F8141C0E4808F06FFE0134E4B20F2C23
S214006C7009D80F2CF2D006AB234413F8141C09488D
S214006C8008F062FEF1E7084808F05EFED7E707481E
S214006C9008F05AFED3E700BFF80C0200BC0C020056
S214006CA0D00C0200BC0A0200D80C0200DC0C020069
S214006CB010B582B08368C26853F822301C7801A9E8
S214006CC0204617F025FB28B10146054808F03CFE93
S214006CD002B010BD019A2146024808F035FEF7E7DB
S214006CE0800A0200640A02007047704708B506F082
S214006CF062F9FFF7F9FF06F06AF9FFF7F6FF05F00D
S214006D00B7FAF8E708B5024B1B6803B1984708BD09
S214006D106C17002008B5024B5B6803B1984708BDA6
S214006D206C17002008B5024B9B6803B1984708BD56
S214006D306C17002008B5024BDB6803B1984708BD06
S214006D406C17002008B5024B1B6903B1984708BDB5
S214006D506C17002008B5024B5B6903B1984708BD65
S214006D606C17002008B500F093FA08BD704708B508
S214006D7007F0E8F908BD70477047704708B507F098
S214006D80F1F808BD704708B507F08AF808BD7047E7
S214006D907047704770477047704770477047704736
S214006DA070477047704708B515F0E2FE08BD002032
S214006DB0704700207047704708B5012000F0ACFC13
S214006DC0202000F0A9FC402000F0A6FC08BD000032
S214006DD030B585B0094C2268094B1A60094D0A4B3C
S214006DE02B600A4B019304F065F902902B6803931D
S214006DF001A9206802F09EFF05B030BDC410002037
S214006E00A82E0020A42E0020B8100020381C020057
S214006E1008B5024B186802F09FFF08BDC41000209A
S214006E2038B504F047F90546064C2368D3F8AC029B
S214006E3004F034F9206802F0A4FF284604F02EF986
S214006E4038BD00BFC410002008B50321802001F023
S214006E507BFE08214FF4C06001F076FE08214FF457
S214006E60F06001F071FE08213E2001F06DFE082161
S214006E702D2001F069FE002008BD08B500F060F87E
S214006E8008BD000008B5174B1B68C3F30743012B6A
S214006E9014D000F081FC04F09BF804F0BDF804F078
S214006EA0E3F8FFF7D1FF04F0A5F800F06BFC04F060
S214006EB013FC00F023FF05F0E9F808BD0A4B5A6EF4
S214006EC041F264014FF48020585003F520432033EC
S214006ED00421196012F4802FDBD1034A42F26403C6
S214006EE0D050D6E70080E00F0080004008B500F0E4
S214006EF0ADF808BD08B505F07FFCFFF7BEFF07F04C
S214006F006BFC04F0FFFFFFF763FF08BD08B502F057
S214006F1015FE02F01BFE06F0CFFB06F0DDFB06F0CA
S214006F202DFC08BD7047704708B5FFF779FF08BD10
S214006F3008B506F0FFFB06F003FC08BD704700002E
S214006F4070B598B0114E11AC35460FCD0FC495E80C
S214006F50070084E8070007AC06F11C050FCD0FC438
S214006F600FCD0FC495E8030084E8030003AC06F1D8
S214006F7044030FCB84E80F00054B009307AB11AA20
S214006F802146044804F08AFA18B070BD501C02006E
S214006F90381A0020881A002008B5024B186804F03A
S214006FA025FB08BD881A002008B5024B186804F0B7
S214006FB01DFB08BD881A002008B5024BDA69186860
S214006FC0904708BD881A00200120704701207047AE
S214006FD038B5FFF71DFF054606F0ECFB044600B18A
S214006FE02C4604F055FB054600B12546FFF7ECFF9E
S214006FF0034608B9184638BD2B46FBE738B505F0FA
S214007000E3FE0446FFF7D8FF042812D0022812D069
S214007010002504F03FFB042810D0022810D0FFF70C
S214007020D5FF042810D002280CD005B10024204635
S21400703038BD0125EDE700250124EAE70125EEE746
S2140070400124ECE70124F0E70024F0E708B5024845
S21400705000F0CFFD08BD00BFA41C020000B585B03F
S2140070600C22002101A819F02AF801A800F0B6FCAD
S2140070709DF80400012814BF0020012005B05DF82B
S21400708004FB000070B58AB0044605A800F016FDA3
S214007090089BA34211D903A9204600F01CFD044614
S2140070A000283CD1049A099BDB68B2FBF3F606FB8A
S2140070B003F6B24209D1039D1AE022461949002080
S2140070C004F04EFB00200AB070BD174904F048FBE0
S2140070D0F1E704F01FFB1549002004F057FB099B5D
S2140070E0D968284600F00AFD0446099BDB681D4463
S2140070F01CB9039BEB1AB342EBD30D49002004F0F6
S2140071002FFB1CB9B4FA84F04009DCE7099BDA6867
S2140071100094AB1A0749002004F022FBF2E7002097
S214007120D1E700BF481D0200701D0200E01C0200EF
S214007130E8230200CC1D020070B586B014220021A0
S21400714001A818F0BCFF01A800F0B8FC0024012537
S21400715005E00E49002004F003FB35400134049B93
S214007160A3420FD922460A49002004F0F9FA204625
S214007170FFF788FF06460028EBD00649002004F0FB
S214007180EFFAEAE7284606B070BD00BF4C1E0200C4
S214007190141E0200341E020038B504F03FFB20B374
S2140071A00546438813F0100F25D0C3884FF47A1491
S2140071B004FB03F404F0AEFAE968002004F00CFCCB
S2140071C098B904F021FCE0B104F0A4FA11490020BB
S2140071D004F0DCFA4CF2503004F05EFAA4F54344B6
S2140071E0503C4CF24F339C42EBD80B49002004F045
S2140071F0B7FA002038BDC3884FF47A6404FB03F462
S214007200D8E7064904F0ACFA0549002004F0A8FACD
S2140072100120EFE7E01C02004C1E0200E8230200FB
S214007220341E0200014B1878704700BFA81A0020D1
S21400723010B5044604F0FBFB208010BD00B589B0F5
S21400724004F0DEFA18B1002009B05DF804FB04F083
S214007250E5FA40B103A800F031FC069B3BB90120DB
S214007260084B1870F0E7084904F07AFAF2E701A92B
S214007270002000F030FC0028F1D1019A034B1A6080
S214007280EDE700BFA81A0020141D0200AC1A00206B
S21400729008B5064B1B782BB104F000FB034B00220D
S2140072A01A7008BDFFF7CAFFF6E700BFA81A00204D
S2140072B008B5FFF7D3FE10B9FFF76EFF08BDFFF75E
S2140072C03BFFFBE708B5FFF7DDFE08BD10B510492C
S2140072D0002004F05BFA04F01DFA04F0E7FA04F06C
S2140072E019FA04F009FB04460A49002004F04EFA95
S2140072F04FF6FF739C42F2D02CB10749002004F0F1
S2140073002FFA204610BD0549002004F029FAF8E7B8
S214007310301D0200E01C0200401D0200581E020044
S21400732010B5FFF7D3FF00B910BD0D49002004F0DB
S21400733017FA4FF4FA7004F0B3F904F001FB0446B0
S2140073400849002004F00CFA2CB122460649002019
S21400735004F006FAE8E70549002004F001FAE3E73E
S214007360BC1C0200E41C0200FC1C0200401D0200C3
S2140073702DE9F843114B93F80090B9F1000F19D09E
S21400738007460D4690460646A5B104F0C3F92C46BE
S214007390FF2D28BFFF240A4B1868F11BE2B24144B8
S2140073A0304404F0FFFA18B9E4B22D1B2644EBE78C
S2140073B04FF000094846BDE8F88300BFA81A002031
S2140073C0AC1A00202DE9F843114B93F80090B9F160
S2140073D0000F19D007460D4690460646A5B104F0A4
S2140073E099F92C46FF2D28BFFF240A4B1868F11B7D
S2140073F0E2B24144304404F0BBFA18B9E4B22D1BA3
S2140074002644EBE74FF000094846BDE8F88300BF86
S214007410A81A0020AC1A002000B583B00DF10600B3
S214007420FFF706FFBDF80610024808F08DFA03B015
S2140074305DF804FB801F020008B5FFF7FFFE18B9D1
S214007440034808F081FA08BD024808F07DFAFAE71A
S214007450B41F0200981F020008B5FFF719FF024884
S21400746008F072FA08BD00BFEC1F020008B5044819
S21400747008F06AFAFFF71CFF024B01221A7008BDDB
S2140074808C1E0200B01A002008B5FFF71FFF18B1C7
S214007490034808F059FA08BD024808F055FAFAE71A
S2140074A0242002001020020010B58368C26853F83A
S2140074B022301C682146074808F046FA2046FFF7A7
S2140074C001FF18B9044808F03FFA10BD034808F059
S2140074D03BFAFAE7A41E0200E01E0200C41E0200E9
S2140074E030B5C1B08268C36852F823100C68013307
S2140074F052F823301D786A4629462046FFF738FFA3
S214007500B8B10E4808F020FA2A4621460C4808F082
S2140075101BFA002406E01DF804100A4808F014FAC6
S2140075200134E4B2AC42F6D3074808F00DFA41B095
S21400753030BD064808F008FAF9E700BFF81E02005A
S214007540101F0200341F0200881E02003C1F0200AB
S21400755010B582B08268C36852F823301C6801AA4E
S214007560012102F04DFB024601992046FFF72AFF53
S21400757020B9044808F0E8F902B010BD024808F047
S214007580E3F9F9E7681F0200501F020008B5836898
S214007590C26853F822301B78064A12789A4204D002
S2140075A0044A1370044B01221A70044808F0CCF900
S2140075B008BD00BFCB100020B01A0020DC1F020060
S2140075C008B5FFF72FFE10B9FFF738FE28B1FFF712
S2140075D0A7FE044808F0B8F908BD034808F0B4F957
S2140075E0FAE700BF781E0200601E020008B5FFF72B
S2140075F0E7FF08BD08B5034B00221A70FFF7E0FF4F
S21400760008BD00BF942D0020F8B505460C461F4661
S21400761013460A4601460C4808F096F9FFF702FEA4
S21400762018B9FFF70BFE064638B1611B3A46013122
S2140076302846FFF79DFE064608B93046F8BD0348C3
S21400764008F082F9F9E700BFD8200200E01C02002B
S21400765008B50146044808F077F9044808F074F9BC
S214007660FFF790F808BD00BF102102003421020089
S21400767008B50146014808F067F908BD4C2102002C
S21400768008B58368C26853F822301A88024B1A80FD
S214007690024808F059F908BDB21A0020742002000A
S2140076A008B58268C36852F82310013352F82330B5
S2140076B01A780968064B188806F080FB20B1014648
S2140076C0044808F041F908BD034808F03DF9FAE718
S2140076D0B21A0020B02002008820020008B5826896
S2140076E0C36852F82300013352F82330074A128841
S2140076F01978006806F09EFB20B10146044808F0A1
S21400770023F908BD034808F01FF9FAE7B21A00206B
S214007710542002003820020008B5082820D00BDCD0
S214007720012815D002282BD1002304221146184622
S21400773001F04AFD002012E0202819D040281FD171
S214007740002304221946184601F03EFD002006E0FC
S214007750002304221146184601F036FD002008BD1D
S214007760002304221146184601F02EFD0020F6E7FD
S214007770002304221146012001F026FD0020EEE73A
S2140077800E20ECE708B501213A2000F075FEFFF761
S21400779013FB00F013F808BD70470000024A42F2DF
S2140077A070030821D150704700C00340024A41F2DE
S2140077B070030821D150704700C00340F0B587B071
S2140077C06C463F4D0FCD0FC495E8030084E80300D8
S2140077D001213A2000F050FE0121282000F04CFE46
S2140077E001248DF80E40374B0293374F69463846D2
S2140077F002F034F8234604220021022001F0E4FCC3
S214007800002322462146022001F0DEFC2346042205
S2140078100221084601F0D8FC234604220321022058
S21400782001F0D2FC294D4FF00213C5F83036A3F50F
S2140078308033C5F82C360226C5F834661C23C5F8F6
S2140078401C364FF4487005F011FFFFF7A7FF142011
S21400785005F00CFFFFF7AAFF232005F007FFFFF750
S2140078609DFFB921384602F047F8FFF79FFF002337
S2140078701A461946304601F0A7FC00231A46214650
S214007880304601F0A1FC234600223146304601F086
S2140078909BFC234600220321304601F095FC384627
S2140078A001F034FF0021C5F83016C5F82C16C5F8CF
S2140078B03416C5F81C16282000F0DEFD07B0F0BD13
S2140078C07021020000127A0000C0054000C003408C
S2140078D0FEE7000008B500F013F8064B064A03E082
S2140078E0116819600433043204498B42F8D3FEF75A
S2140078F047FC00BF9810002010610200041700200B
S214007900044B054A9A60D3F8882042F47002C3F804
S2140079108820704700ED00E00060000000487047D7
S21400792000B4C404014B1868704700BFD410002090
S214007930014B1868704700BFD010002008B5094BEF
S2140079401B6F03F00703022B04D0032B05D0012B7B
S21400795006D0FEE7FFF7ECFF08BD034B1868FBE711
S2140079600248F9E700800040D4100020002D3101C5
S21400797008B5FFF7E3FF054B1B6FC3F30333013373
S214007980B0FBF3F0024B186008BD00BF008000405B
S214007990CC10002008B5064B1860064B1B6F03F092
S2140079A00703032B00D008BDFFF7E2FFFBE700BF8D
S2140079B0D410002000800040002070470048704728
S2140079C0002D31014FF4004070474FF47A70704735
S2140079D0014B1868704700BFD810002028231B688A
S2140079E0B3F5C04F07D21A680A4B9A4207D0002355
S2140079F00370836070470023037083607047012321
S214007A00037028231A68926842601B689B6983602B
S214007A10704700BF07B0CD5E28231B68B3F5C04F84
S214007A200ED210B501F01BFA084B1C7801221A7012
S214007A3001F019FA3CB928231B68DB69984710BD8A
S214007A404FF4817070470020F9E700BFB41A002099
S214007A5028231B68B3F5C04F0ED210B501F0FFF90E
S214007A60084B1C7800221A7001F0FDF93CB128235F
S214007A701B681B6A984710BD4FF481707047002042
S214007A80F9E700BFB41A00204FF0005340F202227C
S214007A901A804FF20F025A80BFF34F8F0549CA680B
S214007AA002F4E062044B1343CB60BFF34F8F00BF7A
S214007AB0FDE700BF00ED00E00400FA0508B5282346
S214007AC01B68B3F5C04F05D21B6BB3F5C04F01D290
S214007AD05B68984708BD08B528231B68B3F5C04FF8
S214007AE006D21B6BB3F5C04F05D29B68984708BDFE
S214007AF04FF48170FBE74FF48170F8E708B5282350
S214007B001B68B3F5C04F06D21B6BB3F5C04F05D24A
S214007B10DB6B984708BD40F20110FBE740F201100E
S214007B20F8E700230360704703680B600160704746
S214007B3090B130B404466AB161B1002003E004F8A5
S214007B40013B01320130137813B14D1E8542F6D841
S214007B500023237030BC70477047034640B10020B6
S214007B6001E0013301301A781AB18842F9D3704720
S214007B700020704708B54FF0FF31FFF7EEFF08BD55
S214007B8080B170B5064632B129B115460C46FFF7EE
S214007B90F1FF844200D870BD2A46211A3044FFF710
S214007BA0C7FFF8E7704710B3F8B50F46064651B959
S214007BB00120F8BD20340FE0601BFAD13378002B8B
S214007BC0F7D001360137347818F026FA2044437887
S214007BD003F00303012BEDD03D7818F01DFA28447E
S214007BE0437803F00303012BE6D12035E4E70120B8
S214007BF0704708B543680068984708BD08B58368AD
S214007C000068984708BD08B5C3680068984708BD6F
S214007C1010B5044601213A2000F02EFCA378B3FAF2
S214007C2083F35B0904226178207801F0CDFA002006
S214007C3010BD837873B1027843780121994002EB36
S214007C404202130103F1804303F5703341F2100240
S214007C5099507047027843780121994002EB42021E
S214007C60130103F1804303F5703342F2100299507A
S214007C707047837873B1027843780121994002EB0C
S214007C804202130103F1804303F5703342F21002FF
S214007C9099507047027843780121994002EB4202DE
S214007CA0130103F1804303F5703341F2100299503B
S214007CB07047027843780121994002EB4202130193
S214007CC003F1804303F5703343F210029950704776
S214007CD010B40278447802EB42021101064A535867
S214007CE0E34003F0010382780AB983F001031846E3
S214007CF05DF8044B704700BF10C0034008B5034B47
S214007D001968034B186809F0D9F908BDE01000207F
S214007D10DC100020B0F1FF3F02D010B101487047E0
S214007D200148704724E000F021E000F089080023B5
S214007D308B4206D20268B2F1FF3F04D10430013311
S214007D40F6E70120704700207047704704E003689C
S214007D500B60013A04310430002AF8D10020704745
S214007D6038B5054618F0C0FCFFF7D4FF044658B9EE
S214007D70074B9B68DBB20A3303F01F0301219940CF
S214007D802846FFF7D3FF08B1204638BD014CFBE775
S214007D900080E00F0EE000F0F8B506460F469400AF
S214007DA0224618F099FCFFF7B5FF054608B12846AD
S214007DB0F8BD22463946304618F04EF90028F6D06F
S214007DC0004DF4E710E000F010B582B0044601A8BC
S214007DD001F038FB9DF8063023800122E270002077
S214007DE0A070054B9B68DBB20A3303F01F0302FA50
S214007DF003F3636002B010BD0080E00F08B501F029
S214007E0063FA08BD08B501F04BFA002008BD000073
S214007E1008B501F019F8014B186008BD482E00207F
S214007E2008B5024B186801F013F808BD482E00206C
S214007E30A0F21110704700004FF04043024A136052
S214007E4004321360704700BF64600040002305E002
S214007E50374A02EBC30237490A600133042B16DCAB
S214007E60334A52F83320002AF7D0324A11680A689B
S214007E70002AEDD02E4A02EBC30210790A7990420E
S214007E80EBD92B4A02EBC3022A490A60E5E7002336
S214007E9005E0294A02EBC30228490A600133042B95
S214007EA016DC254A52F83320002AF7D0234A1168F8
S214007EB00A68002AEDD0204A02EBC30210790A793C
S214007EC09042EBD21C4A02EBC3021C490A60E5E76B
S214007ED0184B1A6813680BB34FF040218B6F23F0D2
S214007EE0FF7323F48033127943EA02438B67144B03
S214007EF04FF000421A60114B1A6813689BB14FF09E
S214007F0040218B6F23F4FF7323F001031279134390
S214007F108B670B4B4FF080421A607047094B4FF04F
S214007F2000421A60E7E7074B4FF080421A6070473E
S214007F300C210020FC2000203421002000210020FD
S214007F40685000406860004008B50E4B01221A7069
S214007F50282200210C4818F0B2F8282200210B48ED
S214007F6018F0ADF80A4B0B4A13600B4A1360FFF784
S214007F7063FF0A4B4022C3F880211A60FFF766FFB2
S214007F80002008BDF82000200C210020342100200D
S214007F9004210020FC2000200021002000E100E059
S214007FA008B54FF04023D3F88800C0F38800D3F814
S214007FB08830C3F388039842F3D1FFF739FF40B205
S214007FC008BD000010B54FF04022936E526E13406D
S214007FD013F0804F12D0134B186804683CB1082287
S214007FE0002118F06CF8FFF7DBFF0021A0470E4BCE
S214007FF04FF080421A60FFF729FF10BD002BFADA17
S2140080000A4B186804683CB10822002118F057F89B
S214008010FFF7C6FF0121A047034B4FF000421A604E
S214008020E9E700BF0021002064600040FC2000203B
S21400803008B5FFF7C7FF08BD88B182B00146084BF8
S2140080405A6A92B2064B5B6A9BB2ADF80630BDF830
S21400805006309B1A9BB28B42F4D302B0704770472F
S21400806000800440F0B589B000240494059406947A
S214008070ADF81C4001218DF8101000940194029474
S2140080808DF80C4002238DF80630242000F0F4F919
S214008090234D6A462146284601F07BFA2B6B4FF6A5
S2140080A0FF73EB61ADF8124004A91D4801F021FAF8
S2140080B04FF4806000F02AFABDF812300133B0FBAE
S2140080C0F3F0184A10609BB2ADF81230B3F5806F2B
S2140080D002D2154B9842E7D8002000F017FA134951
S2140080E0B1FBF0F10F4B18680024114A0023114E23
S2140080F00027E0FB01673046394617F0C7FD0E4BF8
S21400810018600E4B1C70064A936923F010039361A7
S2140081100B4B8022C3F880211A60204609B0F0BDC0
S214008120008004405C21002080841E0000B0710B9B
S21400813040420F0020A1070060210020642100209B
S21400814000E100E038B5124B1968124A0023124CC1
S2140081500025E1FB00452046294617F097FD04461A
S2140081600D4608E04FF6E850FFF766FF0B4A4FF063
S214008170FF33A4185D414FF6E8520023AB4208BF18
S214008180A242EFD3A0B2FFF757FF002038BD00BFD2
S2140081905C21002040420F0020A107001802FFFFCC
S2140081A0064B5B6913F0100F07D0044A42F2140323
S2140081B01021D150024B01221A70704700800440F3
S2140081C064210020034A41F270034FF48031D150FD
S2140081D0704700BF0080004038B505460C460F4B80
S2140081E0D3F8203103F00303022B0ED0032B10D05C
S2140081F0012B02D00023184602E0FFF799FB052367
S21400820005B1286004B1237038BDFFF78BFB03234C
S214008210F6E7FFF7D3FB0223F2E700BF008000403B
S21400822030B583B005460C46002301930D4BD3F8BA
S214008230803103F00303012B03D0022B0DD0002363
S21400824004E0002101A8FFF7C7FF0D230DB1019A36
S2140082502A6004B1237003B030BDFFF7AFFB019076
S2140082600223F3E70080004038B505460C46164B5F
S214008270D3F8243103F00703013B052B20D8DFE8B1
S21400828003F0030F171B0B13FFF752FB052305B173
S214008290286004B1237038BDFFF74AFB0623F6E7D3
S2140082A0FFF740FB0323F2E7FFF73CFB0423EEE770
S2140082B0FFF784FB0223EAE7FFF77EFB0723E6E7E8
S2140082C000231846E3E700BF0080004038B50546A7
S2140082D00C46104BD3F8003103F00303032B16D8DB
S2140082E0DFE803F002090D110123002005B1286024
S2140082F004B1237038BDFFF715FB0323F6E7FFF73D
S21400830067FB0823F2E7FFF757FB0723EEE7002398
S2140083101846EBE70080004038B505460C460F4B84
S214008320D3F8403103F00303022B0ED0032B10D0FA
S214008330012B02D00023184602E0FFF743FB092377
S21400834005B1286004B1237038BDFFF741FB082350
S214008350F6E7FFF73AFB0A23F2E700BF008000408B
S21400836008B50B4BD3F8203203F00303012B08D0DB
S214008370022B09D008B10023036021B100230B7043
S21400838001E0FFF729FF08BDFFF7C6FFFBE700BFC8
S2140083900080004038B505460C46124BD3F8003234
S2140083A003F00703013B032B18D8DFE803F0020AAB
S2140083B00E12FFF707FB092305B1286004B12370EE
S2140083C038BDFFF705FB0823F6E7FFF7FEFA0A239A
S2140083D0F2E7FFF7CDFA800A0C23EDE700231846F4
S2140083E0EAE700BF0080004038B505460C460F4B54
S2140083F0D3F8403203F00303022B0ED0032B10D029
S214008400012B02D00023184602E0FFF7DBFA09230F
S21400841005B1286004B1237038BDFFF7D9FA0823E8
S214008420F6E7FFF7D2FA0A23F2E700BF0080004023
S21400843038B505460C460F4BD3F8603103F00303FE
S214008440022B0ED0032B10D0012B02D0002318468F
S21400845002E0FFF7B7FA092305B1286004B12370DC
S21400846038BDFFF7B5FA0823F6E7FFF7AEFA0A239A
S214008470F2E700BF00800040430907D0012B10D070
S214008480022B01D0094A02E0094A00E0002200F06F
S2140084901F0041B902F50052012303FA00F01060F4
S2140084A07047044AF3E702F58052F5E76082004021
S2140084B06880004064800040B0F5007F18D00BD97B
S2140084C0B0F5207F1AD0B0F5607F09D10E4BD3F8F7
S2140084D08000C0F3011009E020B1B0F5C07F01D0E4
S2140084E0002003E0084B186FC0F3033001307047DC
S2140084F0054BD3F89000C0F30460F7E7024B186F03
S214008500C0F38020F2E700BF0080004010B582B0C4
S214008510002301933E2800F0C6801BD9B0F5007FEB
S21400852000F0A1804CD9B0F5A06F00F0B28071D9F0
S214008530B0F5D06F00F0B28040F28980B0F5E06F01
S21400854000F0B180B0F5F06F42D1002101A8FFF72E
S2140085506FFF3DE02B286ED00FD9312826D93C2856
S214008560F3D83A283CD2382800F0938039282FD107
S214008570002101A8FFF778FE2AE0232830D008D98A
S214008580292867D828282BD2002101A8FFF724FE27
S2140085901EE0202806D004D9212821D0222801D088
S2140085A016E0A8B9FFF7E4F9019011E02F2817D2DA
S2140085B02D2873D03FD8002101A8FFF7ADFE07E0B5
S2140085C05228E1D007D9802818D1FFF7B7F90190D3
S2140085D0019802B010BD4D28E4D00CD83F28F7D142
S2140085E0FFF7C6F904464FF42070FFF765FFB4FBAB
S2140085F0F0F00190ECE74F28D4D2E9E706D9B0F5C1
S214008600807FD8D0B0F5C07FCCD0E1E760380128B5
S214008610C8D9DDE7B0F5607F30D006D9B0F5806FF9
S214008620B2D0B0F5906FA3D0D2E7B0F5207FD7D008
S214008630B0F5407FCCD1FFF79BF904464FF420708D
S214008640FFF73AFFB4FBF0F040080190C0E7B0F542
S214008650B06F04D1002101A8FFF7E2FDB8E7B0F53E
S214008660C06FA8D0B4E7FFF769F904464FF400706E
S214008670FFF722FFB4FBF0F00190A9E7FFF75EF9E1
S21400868004464FF46070FFF717FFB4FBF0F001905C
S2140086909EE7002101A8FFF763FE99E7002101A8E5
S2140086A0FFF778FE94E7002101A8FFF79DFE8FE70D
S2140086B008B58020FFF72AFF044B984205D8044AE5
S2140086C042F270034FF48031D15008BD005A620266
S2140086D00080004038B504460D46114A41F2680352
S2140086E04FF40031D1500020FFF7E6FE04FB00F007
S2140086F00C4BDA6902F4803241F67131D9639B681B
S21400870023F440130849884201D9002D05DD0549A8
S2140087108B600AB10022CA6338BD43F48013F6E7C3
S2140087200080004000000340005A620208B5FFF7D0
S214008730F5F80021FFF7CEFF08BD000000B583B0B6
S21400874000238DF80730B0F5807F37D013D9B0F509
S214008750C06F33D040D9B0F5F06F71D054D9B0F5B2
S214008760006F73D0B0F5086F45D10DF107010020FA
S214008770FFF7ACFD3FE02D286ED011D93D285FD025
S21400878022D93E2846D0802835D1364B1B6F03F0C1
S2140087900703013B032B2ED8DFE803F04E42464A80
S2140087A02A2823D008D82438032824D80DF1070116
S2140087B00020FFF711FD1EE02C281CD10DF107014B
S2140087C00020FFF7A9FD16E0382814D10DF10701A7
S2140087D00020FFF7C5FD0EE0B0F5906F36D00FD93C
S2140087E0B0F5A06FF2D0B0F5B06F04D10DF107016F
S2140087F00020FFF715FD9DF8070003B05DF804FBA9
S214008800B0F5806FD2D0F6E7B0F5D06F24D0B0F5D3
S214008810E06FF0D10DF107010020FFF7E5FDEAE774
S21400882005238DF80730E6E703238DF80730E2E7E7
S21400883007238DF80730DEE702238DF80730DAE7E6
S2140088400DF107010020FFF7F3FDD4E70DF1070156
S2140088500020FFF709FDCEE70DF107010020FFF726
S21400886099FDC8E70080004010B504468020FFF759
S21400887065FF032800F097804B4A41F264034FF4EB
S2140088800021D150494B45F60E02C3F8802041F234
S21400889028020221995042F2280201219950434BA6
S2140088A09B6D13F48033FAD121786278120542EA80
S2140088B00162E17842EA0142217942EA01326179B5
S2140088C042EA8112A1790A4338490A61E079227A9C
S2140088D0120642EA8062607A42EA0042A07A42EADF
S2140088E00022E07A02438A610A6A22F00D02617B66
S2140088F001B108231343227B43EA82030B432B4A2E
S2140089001362637B002B38D1936A23F03303A17B79
S21400891043EA4113E17B43EA011343F00103936208
S214008920224B9A6D03F5804303339343F8D11F4BD4
S214008930022241F228015A501A651C4B9B6D13F017
S214008940804FFAD1194A136923F47003A17843EAD9
S2140089500153136141F218034FF00041D150237CBC
S2140089601BB942F228030221D150637CABB90F4AEF
S21400897042F228030121D1500FE00C4A936A23F0FB
S2140089803303A17B43EA4113E17B43EA0113217CD5
S21400899043EA4103617C0B439362A37C1BB1034B08
S2140089A0034AC3F8802010BD0080004000C000408D
S2140089B0F1A7FFFF10B443784F2B28BF4F231A466A
S2140089C01D4941F264034FF48004CC501B4B4FF416
S2140089D0D151596241F2040102245C5042F2040172
S2140089E001245C50154B1B6913F4803FFAD10378C1
S2140089F042EA0323114A53618178C3781B0143EA94
S214008A000123017943EA410341790B43936081795D
S214008A10C3791B0143EA4113017A43EA4103417AD1
S214008A200B435360837A1BB113466FF4D1525A62DC
S214008A305DF8044B704700BF008000400000024015
S214008A40014B1880704700BF0011002008B50029B0
S214008A5003DD0121FFF73EFE08BD0021FFF73AFEC9
S214008A60FAE70000B0F5007F3CD010D9B0F5207FC3
S214008A7043D0B0F5607F0FD10139244AD2F8803058
S214008A8023F0300343EA0111C2F88010704720B18A
S214008A90B0F5C07F01D07047704710B54C1EFFF789
S214008AA045FE00F037F8FFF78DFB184B196F21F4E1
S214008AB0704141EA04341C67FEF75AFF144B1B68EA
S214008AC013F0100FFAD14FF04023D3F88410C1F3FF
S214008AD08111C1F10201FFF7B9FF00F023F8FFF79B
S214008AE0E7FD10BD0139094AD2F8903023F0F8535B
S214008AF043EA0161C2F8901070470139034A136FC8
S214008B0023F4806343EA81211167704700800040A8
S214008B108440004008B502214FF42070FFF7A2FF02
S214008B2008BD000008B54FF4C070FFF7EFFC054B1A
S214008B30984205D801214FF42070FFF793FF08BD37
S214008B400221F8E780F0FA02B0F5807F57D024D9EA
S214008B50B0F5C06F53D07AD9B0F5F06F00F00F8142
S214008B6040F29380B0F5006F00F01F81B0F5086FFB
S214008B7040F0A680072900F05281082900F04D81B8
S214008B80032900F04E810021AC4AD2F8003123F0D0
S214008B9003030B43C2F8003170472D2800F02381F1
S214008BA011D93D2800F0EB803DD93E2874D08028AE
S214008BB04CD170B58B1E052B00F28380DFE803F0E6
S214008BC09784819A81942A284CD016D82438032872
S214008BD012D8032900F0C780052900F0C8800229B2
S214008BE000F0C3800021954AD2F8203123F0030319
S214008BF00B43C2F82031704770472C2812D1092940
S214008C0000F0BB800A2900F0B680082900F0B18089
S214008C1000218A4AD2F8403123F003030B43C2F8FE
S214008C2040317047704738280FD10D2900F0FD807D
S214008C300E2900F0F8800021804AD2F8203223F076
S214008C4003030B43C2F82032704770477047B0F5F5
S214008C50906F00F0AA8013D9B0F5A06FE5D0B0F5FC
S214008C60B06F11D102297AD00D297AD00021734A2B
S214008C70D2F8803123F003030B43C2F880317047EB
S214008C80B0F5806FA5D070477047B0F5D06F00F094
S214008C90AA80B0F5E06F12D1092900F0CC800A292D
S214008CA000F0C780082900F0C2800021634AD2F88D
S214008CB0403223F003030B43C2F84032704770473C
S214008CC0704700252E4617E05C4A41F264034FF4D5
S214008CD00020D0505A4B9D6AC5F3400541F2280249
S214008CE001209850032607E00025042604E000250E
S214008CF0012601E0002502260C460121022000F094
S214008D0061F9FFF713FDFFF705FFFFF75BFA4B4A24
S214008D10136F23F0070333431367FEF729FE494B0F
S214008D201B6813F0100FFAD14FF04023D3F88410CD
S214008D30C1F38111C1F10201FFF788FE0121002075
S214008D4000F086F9FFF7EEFEFFF7B2FC35B9032C0C
S214008D5004D13B4A42F228030121D15070BD0221C2
S214008D6085E7012183E702213DE703213BE7012157
S214008D7039E702214DE703214BE7012149E709299D
S214008D8011D00A290DD0082909D000212B4AD2F883
S214008D90603123F003030B43C2F8603170470221B1
S214008DA0F4E70321F2E70121F0E70239052904D8A8
S214008DB0DFE801F007050D0F0B0900210AE002218C
S214008DC008E0032106E0042104E0052102E0062174
S214008DD000E00121194AD2F8243123F007030B439F
S214008DE0C2F8243170470839042904D8DFE801F0B6
S214008DF0050B07030900002106E0022104E0032119
S214008E0002E0042100E001210C4AD2F8003223F0EF
S214008E1007030B43C2F8003270470221B4E6032171
S214008E20B2E60121B0E6022106E7012104E70221AD
S214008E303CE703213AE7012138E700BF0080004005
S214008E4000C0004084400040EFF3108072B67047C8
S214008E5000B962B6704772B6704762B67047EFF3F5
S214008E60108072B6704700B962B67047EFF3108094
S214008E7000F001007047000090B9264B00221A60EF
S214008E80254A41F264034FF40031D150234B5B680E
S214008E90012B00D07047D2F800211E4B1A60704795
S214008EA01C4B1B68002BF5D01C4A5268012AF1D0D7
S214008EB010B5194AC2F800318020FFF73FFC05289C
S214008EC005D0164A41F204030121D15010BD4FF4DB
S214008ED0C070FFF7F1FA0446012815D00F4B42F296
S214008EE010020721995041F20402012199500B4BC0
S214008EF01B6913F0010FFAD0012CE7D101214FF4C2
S214008F00C070FFF7AFFDE1E702214FF4C070FFF736
S214008F10A9FDE3E7682100200080004000C0014072
S214008F2038B5044698B90F4A136943F00403136131
S214008F3003F0E4FAFFF788FF054617F0DDFB284646
S214008F40FFF786FF03F0F8FA2CB944B138BD0020CD
S214008F50FFF792FFE7E70120FFF78EFFF5E7FEF742
S214008F6007FDF3E700ED00E038B5044698B90F4A70
S214008F70136943F00403136103F0C0FAFFF764FFBC
S214008F80054617F0B9FB2846FFF762FF03F0D4FA50
S214008F902CB944B138BD0020FFF76EFFE7E701208B
S214008FA0FFF76AFFF5E7FEF7E3FCF3E700ED00E006
S214008FB008B50020FFF760FF08BD08B50120FFF7E1
S214008FC05BFF08BD38B5204B1B6813F0100FFAD1B5
S214008FD04FF04023D3F88430C3F3811398422CD04B
S214008FE00446FEF7ABFC0546012C0DD0FFF72CFF20
S214008FF0164B4FF000721A60621E4FF48063934067
S2140090004FF04022136707E00121FFF71FFDEDE751
S2140090104FF04023D3F884304FF040235B6E13F0BC
S214009020007F06D14FF04023D3F8843013F0200F92
S214009030EED0FFF70DFF022C00D038BD00212846E9
S214009040FFF704FDF9E700BF84400040646000407D
S21400905010B50C46034650B1094A127812B1094AB7
S214009060934208D921460220FFF7ACFF10BDFEF759
S21400907065FC0346F0E721460120FFF7A3FFF5E76E
S2140090806C210020005A620208B50278034B1A7061
S21400909001210020FFF7DCFF08BD00BF6C21002087
S2140090A04FF04022536F23F44073417843EA012384
S2140090B0536770474FF04022D36E23F03003017998
S2140090C00B43D366704700001C4A41F264034FF01E
S2140090D00041D1501A4B41F20402012199505A6CBA
S2140090E04AF6CD31196488B9194642F208030120C0
S2140090F0C850134BDB6A13F0010FFAD0104942F246
S21400910004030120C850012A14D070470C4BDB6AB8
S21400911013F0080FFAD10A4B42F2240120205850CF
S21400912041F2080101205850054B5B6A13F0200FEE
S214009130FAD0E8E7024B034A1A64E6E700800040EC
S214009140004009403254FFFF10B51C4A41F2640348
S2140091504FF00041D15002F50C2241F204030121E8
S214009160D150546C4AF6CD33136443788B400B438E
S2140091704FF04021CB63936823F07403827843EA70
S2140091800213C278A2B1042213430D4A93600179F8
S214009190837943EA012313614179C37943EA0123C2
S2140091A053610078FFF790FF012C03D0012010BD1B
S2140091B00022E9E7024B034A1A64F7E70080004002
S2140091C0004009403254FFFFF0B4144662B193B336
S2140091D001258D4000EB4006320102F1804202F587
S2140091E0703241F210069551072931D82B4E4500B2
S2140091F02F183A01324452688F004FF00F0C0CFAC9
S21400920007FC22EA0C0204FA07F73A4305442F014A
S2140092103E4472606CB99BBB012303FA01F100EB7C
S2140092204000030103F1804303F5703342F210025D
S2140092309950F0BC704701258D4000EB4006320186
S21400924002F1804202F5703242F210069551CBE7E9
S214009250124F460035182A013A44D56801F180427B
S214009260083A92004FF00F0C0CFA02FC25EA0C05A7
S21400927004FA02F22A4335182E013744FA60C9E789
S214009280012303FA01F100EB4000030103F18043E0
S21400929003F5703341F210029950CAE700C003404C
S2140092A0074A41F268034FF40031D150054B41F6AE
S2140092B07132DA6342F20C0201219950704700BF06
S2140092C00080004000000340084B41F67132DA632C
S2140092D042F20C02012199500022DA63044A42F25B
S2140092E068034FF40031D150704700BF00000340C0
S2140092F000800040024B4FF400321A60704700BFF7
S214009300705000404FF04023D3F8940070470000A0
S21400931010B40B784A7843EA8203CA7843EA4213C9
S2140093200A7943EA021300EB4004A20002F19042DD
S21400933013630B78012B02D05DF8044B70478A78D4
S214009340014B43F82020F7E7E88003404FF09043B6
S2140093505B680BB9002837D04FF090435B6843B189
S2140093604FF090435B6823B14FF090439B6A002B0D
S214009370F6D180B1154B01221A604FF090435B681E
S21400938023B14FF090439B6A002BF6D14FF09043E9
S2140093900122DA6070474FF090435B6823B14FF0CC
S2140093A090439B6A002BF6D14FF090430222DA607E
S2140093B04FF090435B6823B14FF090439B6A002BBD
S2140093C0F6D1034B01221A60704700BF0410004814
S2140093D0042000484FF090435B6843B14FF0904341
S2140093E05B6823B14FF090439B6A002BF6D1134B7A
S2140093F001221A604378DBB113468278D2B102228A
S2140094001343C278C2B104221343027943EA02131B
S214009410427943EAC2034FF090429360084B012220
S2140094201A60037803B902224FF09043DA6070475F
S2140094300023E2E70022E3E70022E5E704200048F5
S21400944004100048084A41F264034FF48031D150BA
S214009450064B5B69C3F38512827003F03F024270CD
S2140094601B0B0370704700BF0080004000C0074021
S21400947010B4194CA04214D004F58044A0421DD06C
S21400948004F58044A0421BD004F58044A04219D0C5
S21400949004F58044A04202D04FF0FF3002E00420E2
S2140094A000E0002083B9120200EB400043000B44AA
S2140094B00A4941F823205DF8044B70470120F1E784
S2140094C00220EFE70320EDE700EB400043000B44EB
S2140094D0024941F82320EEE7008004400C81034057
S2140094E0036B13F0010F03D0036913F0400FF7D19D
S2140094F0704738B505460C46FFF7F2FF42F23003D8
S2140095000122EA50628823791B0243EA8243627A88
S214009510134362787AB340221343A27A6AB3802256
S2140095201343E27A5AB320221343227B4AB3102213
S2140095301343627B3AB308221343A2792AB34FF44B
S214009540803213436B6041F230030122EA502378E5
S2140095500BB90223EB6000236B62E279237A43EABD
S214009560820362799AB110221343AB6023780BB161
S2140095700123EB6038BD0022CEE70022D0E70022B0
S214009580D2E70022D4E70022D6E70022D9E700225D
S214009590EAE770B504460D461646FFF7A1FF42F20D
S2140095A030030122E250B379F2796AB34FF48012A5
S2140095B01343727A52B310221343F27A43EAC24339
S2140095C0EA1C5201A350337A13BBEB1C5B01E25832
S2140095D0E25041F230030122E250327873781B06E3
S2140095E043EA8263F27843EA0233327943EA82231B
S2140095F0727943EA0223B27ADAB9002213430335BA
S21400960004EB4514636070BD0022D1E70022D3E767
S2140096101346A258317B42EA4142E250337B13F1B3
S214009620FF3318BF0123B27829462046FFF720FFF4
S214009630CFE70422E2E700000A4B984207D00A4B25
S214009640984209D0C36D43F08003C3657047A3F505
S2140096501033C3F88C11F5E7A3F52033C3F89C113B
S214009660F0E700BF00C005400000064070B50546A4
S21400967016461C46084641B1202C23D00AD9402C59
S2140096801ED0602C1BD1042206E04FF42070FEF79B
S2140096903DFFF1E79CB9102206FB02F2530803EBEC
S2140096A04010B0FBF2F02038074B03EAC000AB686E
S2140096B023F06003AB60AB681C43AC60E86170BD30
S2140096C00622E9E70822E7E7F8FF7F0038B50546F7
S2140096D01446084631B101386400B0FBF4F00002CD
S2140096E0E86138BD4FF42070FEF710FFF3E741F253
S2140096F004030122C250CB43934003F00A034361A4
S214009700416111B942F20403C250704741F20403AA
S2140097100122C25040F6AA63436100238360C365FA
S21400972041F20502C2600361C361C36442F24802AB
S2140097300C49815083650C4B984203D003F5804357
S214009740984201D100230365074B984203D003F5E6
S2140097508043984201D10023436542F2040301226C
S214009760C2507047FFFF010000C0054038B50546EF
S2140097700C46FFF7CBFF41F204030122EA50A37C1C
S2140097801BB1AB6843F08043AB60E37C002B3CD15D
S214009790637B228A1343E2891343EB60237BA26830
S2140097A061682846FFF762FF637D1BB1AB6843F430
S2140097B08033AB60A37D1B0703F0E043E27D120518
S2140097C002F4E0021343AB65237E023BDBB2012BBF
S2140097D020D9214B9D4236D003F580439D4230D0A0
S2140097E04FF0FF335B0103F1804303F5703342F221
S2140097F01C6202219950237E012B26D0032B24D0F5
S21400980042F25C030422EA5023E0217D2846FFF75B
S21400981013FFBDE7104B9D4211D003F580439D42D8
S2140098200BD04FF0FF335B0103F1804303F5703339
S21400983041F21C6202219950DDE70123F3E7002381
S214009840F1E70123CEE70023CCE741F25C030422D4
S214009850EA5023786B6138BD00C0054038B5054630
S2140098600C46FFF753FF41F204030122EA50AA68B0
S214009870238A43F00103A17B00292DD04FF4806199
S2140098800B431343AB60AB68227D3AB34FF00052F4
S2140098901343AB60A37C1BBB237B43F48053EB607A
S2140098A0A26861682846FFF711FF637B0BB110239F
S2140098B06B61637D1BB1AB6843F48033AB60A37D03
S2140098C01B0703F0E043E27D120502F4E0021343B7
S2140098D0AB6523786B6138BD0021D1E70022D7E75E
S2140098E0E17C2846FFF7A8FED6E7836913F0800FD1
S2140098F0FBD0406AC0B27047836913F0400FFBD0BC
S214009900C163836913F0200FFBD0406AC0B2704772
S214009910836913F0400FFBD0C1637047436813F0B0
S214009920010F00D1704710B50446FFF798FA636A36
S21400993013F0010F01D10123E360FFF794FA10BD85
S21400994038B5044608F06DF9044D0FCC0FC594E801
S214009950030085E80300002038BD00BF702100200A
S21400996047F6FF739A4275D0022975D8F0B40D46B3
S2140099703B4B03EBC100847824EAE474204613F8DA
S2140099803130012B24D0364B03EBC1035C68002C2E
S21400999064D0B4F90060964204DBB4F902609642E3
S2140099A000DC1646A388FF2B26D02827C8230022D3
S2140099B035469B1B93FBF7F313441BB2284A02EB76
S2140099C0C1014E78721E12B29A422BDB1A4629E06B
S2140099D0234B03EBC101C878001B01E0013800B23D
S2140099E038B11F4B03EBC5035B6833F91030934265
S2140099F0F4DC2044C0B22BE0B4F90630B4F90870A9
S214009A000122D5E703F5FA731649A1FB03139B0958
S214009A10013212B21746B2420FDA04EBC20189884D
S214009A2099420AD304EBC2018F68B1F9063003FBF2
S214009A300573002BE6DA0023E4E77A1E04EBC20285
S214009A4092889A4200D31A46824200D31046C0B289
S214009A50F0BC7047FF207047002070470020F7E7F3
S214009A6070210020D34D621002295AD8314B13F8CA
S214009A703130012B25D0F0B42E4B03EBC1035C68CC
S214009A80002C50D0251D50D0B4F9020084468242E6
S214009A902DDD284B03EBC103DB78934225D9254BFC
S214009AA003EBC1014F78013FFFB20023BB4220D237
S214009AB0591C35F8316091B28E421AD30133DBB2AD
S214009AC0F4E71C4B03EBC103DB7893420BD2194A35
S214009AD002EBC1018A78002AA8BF9B1ADBB24A684B
S214009AE032F9130070471346F1E7B4F90000F0BCF2
S214009AF070474FF47A7101FB02F205EBC303596815
S214009B00521AB3F9021001EBD17302EB630393FB15
S214009B10F1F3B4F900209A4209DB9C45E7DC18B261
S214009B20E5E7054870470448E1E70348DFE71046E5
S214009B30DDE700BF702100200080FFFF08B5024867
S214009B40FFF7FEFE08BD00BFAC21020000B587B0DF
S214009B500023019303930493059302238DF80430A6
S214009B600A4A02928DF80D3004228DF80E208DF8E8
S214009B70133005238DF814300DEB02014FF0FF3043
S214009B8008F0BAF807B05DF804FB00BF006A1800DA
S214009B902D2822D8DFE800F01721212121212121BC
S214009BA021212121212121212121212121212121A0
S214009BB02121212121211B212123212121211D2198
S214009BC02121211F21190748704707487047074879
S214009BD07047074870470748704707487047074868
S214009BE0704700BFE82302007422020088220200A9
S214009BF0B0220200C8220200E82202004C22020024
S214009C0010B48468C368194454F82110084610F844
S214009C10023B497803EB012313605DF8044B704761
S214009C2010B504464FF42D72002116F048FA802332
S214009C30C4F88C300023C4F89030C4F8943084F80C
S214009C409830054A626001222272C4F8A83204F1F4
S214009C509C00FDF766FF10BD4822020010B50A46BC
S214009C60D0F8A03033B1D0F8A4101046984700249E
S214009C70204610BD00F0A4FD04460028F8D0FFF7EB
S214009C8087FF0146014801F0FEF8F1E7E00B02000D
S214009C9038B5044600F10905284616F022FA00B940
S214009CA038BD204600F01EFF29462046FFF7D6FFA7
S214009CB0204600F028FEF3E7F8B50778AFBB054668
S214009CC001230370037A0BB93E4613E000230372A8
S214009CD04168174801F0D7F8F6E701F0B8F80446EF
S214009CE011E0E1B2284600F041FF0746B4F1FF3F1D
S214009CF00ED06FB9D5F8B042B4F1FF3FEDD04FF0BB
S214009D00FF33C5F8B032B4F1FF3FEAD10126EDE7E4
S214009D101FB900232B703046F8BD2846FFF7B8FF62
S214009D206968034801F0AFF8F3E70026F3E700BFE1
S214009D30F822020038B504460D46FFF771FF6B683F
S214009D40C4F8AC32A968204600F0FEFB4FF0FF33A3
S214009D50C4F8B032002038BD10B50446D0F8B03292
S214009D60B3F1FF3F06D0D4F8B032B3F1FF3F06D0D0
S214009D70002010BD01F06BF8C4F8B002F3E7012034
S214009D80F7E708B5FFF798FF08BD1038072801D990
S214009D900020704701207047A0F11003072B00D861
S214009DA0D8B27047F8B506460D4617460B78302BE6
S214009DB00DD000242B5D002B52D016F02DF92B5D14
S214009DC01844437813F0040F6FD00134F2E74B7851
S214009DD0782B03D0582B0ED00024EBE702242B5D03
S214009DE05BB116F019F92B5D1844437813F0440F55
S214009DF059D00134F3E70224F1E7724206F0030378
S214009E0002F0030258BF5342032B0CD0284616F02C
S214009E1068F902383346002E20DBB0EBA30FD4BF20
S214009E200120002042E0284616F05BF90238013691
S214009E3009D4B610B04208D1A87830380728CCBF6D
S214009E400020012032E00336F3E7284616F049F9F1
S214009E5002388642D4BF0020012027E0F31CDCE74E
S214009E600A220021284616F09DFA202E14D037B17B
S214009E7050EA010303D010F1FF3041F1FF31012316
S214009E8003FA06F6013E00EA060200238B4206BFEE
S214009E9082420120002009E000238B4206BF804258
S214009EA00120002002E0002000E00020F8BD08B5F8
S214009EB00B782D2B04D000220138FFF773FF08BD66
S214009EC0012211440138FFF76DFFF8E703787B2B7A
S214009ED001D00020704770B50446002601252846AC
S214009EE0635D7D2B10D016F097F8635D18444278BA
S214009EF012F0440F02D001360135F0E7202B01D0D6
S214009F00002070BD0135EAE72044437833B916F0E7
S214009F10010F01D10120F4E70020F2E70020F0E76E
S214009F2008B5072826D8DFE800F0060B1015191D1F
S214009F300421012008BD00220820FFF733FFF9E7BF
S214009F4000221020FFF72EFFF4E700222020FFF764
S214009F5029FFEFE70820FFF7AAFFEBE71020FFF73F
S214009F60A6FFE7E72020FFF7A2FFE3E70846FFF794
S214009F70ADFFDFE70020DDE72DE9F04383B00E46B6
S214009F8090461F460A9C0B9D212827D8DFE800F044
S214009F9011293C4E6174868A2626262626262626E3
S214009FA0262626262626262626262626262626264C
S214009FB026B400221146304616F084FA2B68C0B24A
S214009FC047F823002B68226807EB830748F82270BF
S214009FD02B6801332B6023680133236003B0BDE890
S214009FE0F08300221146304616F06CFA2B6880B2D9
S214009FF047F823002B68226807EB830748F822708F
S21400A0002B6801332B60E6E700221146304616F037
S21400A01059FA2B6847F823002B68226807EB83075A
S21400A02048F822702B6801332B60D4E700221146D3
S21400A030304616F0EDF840B22B6847F823002B6840
S21400A040226807EB830748F822702B6801332B60E1
S21400A050C1E700221146304616F0DAF800B22B6847
S21400A06047F823002B68226807EB830748F822701E
S21400A0702B6801332B60AEE700221146304616F0FF
S21400A080C7F82B6847F823002A68236807EB82077F
S21400A09048F823702B6801332B609CE7236848F848
S21400A0A0231098E700278DF80670B94601250FE0C3
S21400A0B001350DE08DF8053009F101091022002167
S21400A0C001A816F0A5F8BB1CF0540137BFB2013545
S21400A0D0735D7D2B09D0202BEAD019F0010FE9D152
S21400A0E08DF8043009F10109F1E737703F0A7770FF
S21400A0F0236848F823606EE7236848F823106AE769
S21400A1002DE9F04F87B00024059404948B4200F3A9
S21400A1108D809A461646894605462746A04602E0A2
S21400A1204FF001080134285DFF280CD02028F7D016
S21400A130212805D0FFF729FE0028F3D00746F1E7CF
S21400A1404FF00108EEE75444B8F1000F08D0013C88
S21400A1504C456FDC0024A346A046FF23029348E04C
S21400A1603FB1013C4C4567DC0024A346FF23029325
S21400A1703FE0A14562D1B8460024A346FF230293E0
S21400A18037E005EB0B035B78FF2B0FD02B204EE060
S21400A190039B2B445B78FF2B52D14FF0010805E060
S21400A1A00BF1010B029701E006230293B8F1000FB2
S21400A1B013D156F82410029F3846FFF7B1FE002848
S21400A1C042D004AB019305AB0093119B109A56F84E
S21400A1D024103846FFF7D0FE0AE004AB019305AB27
S21400A1E00093119B109A56F824102120FFF7C4FE06
S21400A1F001344C4518DA5445D6DBCDF80CB015F8CA
S21400A2000B70202FBDD0212FC2D03846FFF7BDFDE2
S21400A2100028C5D0039B2B445B78FF2B12D1384611
S21400A220FFF7BAFD0290C1E7002000E0212007B04A
S21400A230BDE8F08F2B20FAE72B20F8E72B20F6E777
S21400A2402B20F4E72B20F2E72620F0E711283CD05D
S21400A2500BD9162841D01DD9212842D023D817283B
S21400A2603DD0202841D123487047042825D008D85F
S21400A27001283CD0E8B102281DD0032835D11E485D
S21400A280704706281DD01AD307281CD010282CD1BA
S21400A2901A48704713281CD019D314281BD0152829
S21400A2A023D117487047FE281DD0FF281DD115481A
S21400A2B07047154870471548704715487047154849
S21400A2C07047154870471548704715487047154839
S21400A2D07047154870471548704715487047154829
S21400A2E07047154870471548704715487047154819
S21400A2F0704700BF9C230200202302004423020074
S21400A3007C230200BC23020008230200182302005C
S21400A31028230200302302003823020040230200D4
S21400A320502302005C230200682302007023020010
S21400A3308823020094230200A8230200B42302000C
S21400A340C02302001023020008B5FDF72CFC08BD50
S21400A3502DE9F04784B081468A4690461E460C9FFB
S21400A3600D9D04462068B0B12B683268934212DA1D
S21400A37057F82310FFF7E8FF08B10C34F2E72B6814
S21400A38001332B6063681A7BFE2A15D001230E9AD0
S21400A390137088F8003098F800304BB90F9B1B7884
S21400A3A033B9BAF1000F15D001230F9A13704C463B
S21400A3B0204604B0BDE8F08718680F9B03930E9BF9
S21400A3C0029301950097334642460121FFF7C0FFEE
S21400A3D00446E0E70024EBE770B506460D4615F0A8
S21400A3E080FE0446304600F04EFD03E0034800F0D1
S21400A3F04AFD0134AC42F9D370BD00BFC00A02006A
S21400A4002DE9F84F044602213348FFF7E5FF1E21E9
S21400A4102068FFF7E1FF6368586800F034FD2F48B6
S21400A42000F031FD6268137B0233DBB2012B50D99A
S21400A43002F10C09D2F808A0504615F052FE074665
S21400A4404FF0FF34002510E02B2000F010FD36E022
S21400A45000F00DFD01341AF804001F2801D0BC429C
S21400A460F6DB1E4800F00FFD0135A84619F805601A
S21400A470FF2E2ED03046FFF7E9FE8346002F00DD84
S21400A4800134202EF0D0144E02213046FFF7A4FFF0
S21400A4901E213046FFF7A0FF114800F0F4FC1149DA
S21400A4A0584615F014FE08B9DFF844B059460E4871
S21400A4B000F0E9FCC84498F80130202BC4D00B48C3
S21400A4C000F0E1FC002FCCDD1AF804301F2BC2D1BF
S21400A4D0C7E7BDE8F88F00BFE8230200881E020029
S21400A4E000230200A8230200F82202000423020030
S21400A4F0FC22020038B50546002402E0FFF780FF84
S21400A500013404EB44029300E818EB5823B1037AB5
S21400A510002BF3D00134F4E738BD10B541B11AB1C1
S21400A5200846FFF76DFF10BD0846FFF7E3FFFAE7A2
S21400A530D0F89C4000E02468002CF4D0A0680028E6
S21400A540F9D0FFF7D7FFF6E759B10A790AB100202C
S21400A550704710B501240C719C30FDF7E5FA2046D3
S21400A56010BD0020704700002DE9F04F91B007465F
S21400A570039104929A46DDF8688000F109042046AB
S21400A58015F0AFFD83460023CAF80030C8F8003047
S21400A59008AA07A9204600F099FC28B100230293D8
S21400A5A0029811B0BDE8F08F089815F09AFDCAF829
S21400A5B00000D7F89C3001930023029399461C466E
S21400A5C0AEE0D8F800300133C8F8003001343B194B
S21400A5D05B7A202BF5D0002411E0D7F89420D8F829
S21400A5E00030D21ACAF80020296810AB03EB8903A2
S21400A5F053F8200C15F07DFD009078B1013404EB83
S21400A60044029300F518F358002B60D0079B4B4587
S21400A6105DDB2B7A002BE0D00134F0E7286815F0DC
S21400A62060FD84466A68117BFE2911D0D7F8943005
S21400A630D8F800001B1A63452ADDFE29DED1079BE9
S21400A640013B4B45DAD115680594009C029E4BE011
S21400A650079B013B4B45E9D0166810AB03EB89031B
S21400A66053F8200C15F03DFD0130D8F800300344B7
S21400A670C8F8003002E00133C8F80030D8F80030DF
S21400A680FA18527A002AF6D009F10109009CB6E7BA
S21400A690039815F026FD0090286815F022FD009B13
S21400A6A003447B2B0ED8029B013302932A6804993D
S21400A6B0039D2846FDF764FA1E4A04992846FDF7CE
S21400A6C05FFA9BE71C4A04990398FDF759FA0023A2
S21400A6D019E004990398FDF753FA164A049903986B
S21400A6E0FDF74EFA0136013404EB44029300EA58B3
S21400A6F0002AEED1059C0296C8F800B00023CAF8DE
S21400A7000030E4E701335B4507DAFA18527A002A8C
S21400A710F8D1FA1820215172F4E7019B1B680193C7
S21400A720019B002B3FF43CAF019B9E68002E7FF4FC
S21400A7304EAFF2E7C00A0200D02302002DE9F04730
S21400A74086B00446894617461D46DDF838800F9EBB
S21400A75000238DF817302B6088F8003033702B6894
S21400A76052F823101548FFF7EFFD40B92B68013368
S21400A7702B604FF0010AD4F89C40002003E04FF015
S21400A780000AF8E724688CB1A0680028FAD003967F
S21400A790CDF80880019500974B460DF11702002171
S21400A7A0FFF7D6FD9DF81730002BEBD0BAF1000F5F
S21400A7B001D00123337006B0BDE8F087C82302003D
S21400A7C070B5A2B0054608461AAA19A900F07EFB85
S21400A7D0044610B1204622B070BD00238DF80F301D
S21400A7E00DF10F0301930DF10E03009304AB1AAAAB
S21400A7F019A92846FFF7A2FF9DF80F30D3B900B37A
S21400A800466811AB019309AB0093049B1AAA1999E9
S21400A81006F10C00FFF774FC04460028DAD1059513
S21400A820199B069309AB0793049B0893336805A806
S21400A8309847CFE79DF80E2001462846FFF76DFEA5
S21400A840C8E72D24C6E770B505460024264600E076
S21400A850013405F1A80015F044FCA04207D92B19D5
S21400A86093F8A8301BB10A2BF2D10136F0E7304638
S21400A87070BDF8B500230B601360D0F8A8320BB992
S21400A8800020F8BD15460E460746A83015F029FCF0
S21400A89050B30121002301E001330131D7F8A8228B
S21400A8A08A4213D9B3F5007FF7D234680134346096
S21400A8B02C6801342C60FA1892F8A8200A2AEBD0EB
S21400A8C00133EFE72A6801322A600133B3F5007FCF
S21400A8D008D2FA1892F8A8200A2A07D0002AF1D13E
S21400A8E00120CEE70120CCE70020CAE70120C8E718
S21400A8F008B50144487A00F0BAFA08BD08B5082041
S21400A90000F0B5FA08BD10B50446D0F88C2000213A
S21400A910093015F0D4FB0023C4F89030C4F8943006
S21400A92010BD0000F0B5ADF5457D044680252A46ED
S21400A9300021A4A815F0C3FBA3AB0093A2AB2A4644
S21400A940A4A92046FFF710FE012810D0012840F3E6
S21400A950C2808022002102A815F0B1FB4FF40072DD
S21400A960002122A815F0ABFB012500233FE0A4A898
S21400A97015F0B7FB0646A29A08E0A39B1344C4A9A9
S21400A980114411F8801C234459720132B242F4DBA0
S21400A990A39B3344234400225A72D4F890700AE0F2
S21400A9A0D4F890102046FFF7A3FFD4F89030013378
S21400A9B0C4F890300137A29DA39B2B44BB42EFDC2A
S21400A9C0731BD4F894201A44C4F89420D4F890202A
S21400A9D01344C4F8903006E0C4AB2B4413F8800C44
S21400A9E000F045FA0135B542F6DB74E00133C4AA3F
S21400A9F01A4412F8802C3AB1202AF7D15A1C22A900
S21400AA0041F825200135F1E722AA42F82530013524
S21400AA10A4A815F066FB002104E00123CBB102AB2D
S21400AA205E540131A94217DAC4AB0B4413F8806CAC
S21400AA30002222AB53F822308342EED00B44C4AF40
S21400AA403B4413F8803CB34201D10132F1E70023C6
S21400AA50E4E702AB00225A54D4F890500AE0D4F847
S21400AA6090102046FFF744FFD4F890300133C4F826
S21400AA7090300135A29BAB42F1DC04F10903174A82
S21400AA80A4A9174800F0FFF902A815F02AFB06460D
S21400AA90A29D2A4610E0A39B134402A9895C234486
S21400AAA05972D4F890300133C4F89030D4F894300A
S21400AAB00133C4F894300132B242ECDBD4F894305F
S21400AAC01C440023637204E002AB585D00F0CFF92B
S21400AAD00135B542F8DB0DF5457DF0BD4822020094
S21400AAE0D8230200F0B583B004460EE02046FFF7F8
S21400AAF0AAFEC4F8A80201AA69462046FFF7B9FED6
S21400AB00009B2344002283F8A82004F10905284668
S21400AB1015F0E7FA471C04F1A806304615F0E1FAEE
S21400AB20C0F500708742E1D8284615F0DAFA013001
S21400AB303718304615F0D5FA421C3146384615F01F
S21400AB40A5FA284615F0CDFA02462946304615F0F5
S21400AB5092FA284615F0C5FA20440A2380F8A83051
S21400AB600023C4F8A83203B0F0BD00002DE9F84376
S21400AB70D0F89060D0F8947000F1090890F89830FA
S21400AB80012B0CD00D460446012B0FD9022B00F0EA
S21400AB90C680032B00F0D0800020BDE8F8830A2989
S21400ABA0F0D1002380F898301846F6E71B2929D004
S21400ABB00D292CD0002380F89830082D2BD07F2D1F
S21400ABC065D00D2D00F087800A2D00F08480092DB9
S21400ABD000F08E80D4F88C30013BBB4240F3DD8021
S21400ABE0BE42C0F28A8008F806500136C4F890606B
S21400ABF0D4F894300133C4F89430284600F037F97E
S21400AC000020CAE7022380F898300020C5E7012319
S21400AC1080F89830D1E7002E01DDBE420CD0002E21
S21400AC2001DDBE4217DB002E00F0B380C4F8906052
S21400AC30C4F894700020B0E7082000F018F920202F
S21400AC4000F015F9082000F012F9013E002308F87C
S21400AC500630013FEAE7013E082000F008F908EB5D
S21400AC600605711CBA1B4144284615F00FFA00234E
S21400AC7008F8073029464C4800F005F9013F3D46E4
S21400AC8002E0FFF73BFE013DB542FADCCEE7002FBF
S21400AC9040F38180BE4201DB00207EE708EB06051C
S21400ACA0711CBA1B4144284615F0F0F9002308F839
S21400ACB0073029463D4800F0E6F803E0082000F09B
S21400ACC0D6F8013FB742F9DCD4F89430013BC4F81B
S21400ACD09430002061E70D2000F0C9F80A2000F04B
S21400ACE0C6F80023C4F89030C4F89430012054E726
S21400ACF02046FFF717FE00204FE7701C08EB0609FA
S21400AD00BA1B4946404415F0C1F9484600F0BBF866
S21400AD1002E0FFF7F3FD013FB742FADA63E75B298B
S21400AD2004D1032380F89830002036E7002380F80B
S21400AD309830FFF71BFF30E7002380F89830A1F12A
S21400AD404105032D2BD8DFE805F002070D1B012176
S21400AD5000F02EF8002020E74FF0FF3100F028F832
S21400AD6000201AE7BE4201DB002016E73146FFF757
S21400AD70BFFDD4F890300133C4F8903000200CE7C3
S21400AD80002E0EDD013EC0F89060FFF7B7FD0020F4
S21400AD9003E7002001E70020FFE60020FDE6002094
S21400ADA0FBE60020F9E600BFE4230200EC230200E5
S21400ADB030B583B005460C46FFF745FDB4F1FF3FBE
S21400ADC003D0012C0ED003B030BDD5F8A83293B115
S21400ADD0013BC5F8A8320123D5F8A842BCB1FBB1A7
S21400ADE0002414E0D5F8A8328342ECD20133C5F82B
S21400ADF0A8320123F0E70023EEE7082000F037F83A
S21400AE00202000F034F8082000F031F8013405F175
S21400AE10090015F066F9A042EFD82846FFF773FD43
S21400AE20D5F8A832002BCED001AA69462846FFF7EF
S21400AE3020FD0028C7D0009C019BA342C3D92B1934
S21400AE4093F8A8102846FFF791FE0134F4E700B502
S21400AE5083B00DF10701002000F07EF920B99DF8BF
S21400AE60070003B05DF804FB4FF0FF30F9E710B5BC
S21400AE700446C1B2002000F05CF908B9204610BDB7
S21400AE804FF0FF34FAE70FB400B583B004A951F8C9
S21400AE90040B019104F06EFD002003B05DF804EB96
S21400AEA004B0704710B54B1CC418C35C222B05D0E9
S21400AEB07B2B03D05C2B01D0002006E00B46521AF9
S21400AEC02146184415F0E2F8012010BD2DE9F8439C
S21400AED005468846914615F004F90646002400E02B
S21400AEE001342A192B5D202BFAD0C9F80020012343
S21400AEF0C8F8003030E07B2B14D0D8F8003003F1CF
S21400AF008043013B621C2A4449F823202227012C57
S21400AF1006D92B1913F8013C202B01D0002B49D160
S21400AF20013404E07D27F2E70134A64246D92A1907
S21400AF302B5DBB4209D05C2BF6D132462146284613
S21400AF40FFF7B0FFC0B3013EEEE75378202B00D0EA
S21400AF50BBBB222F21D00134A64229D92A192B5D4A
S21400AF607B2BC8D0222BC6D05C2B19D0202BF2D13D
S21400AF7000231370631CB342EDD2EA18EB5C202B5F
S21400AF80E9D0D8F80030072B1FDC49F82320D8F882
S21400AF9000300133C8F80030DDE700231370DAE72D
S21400AFA0324621462846FFF77DFF60B1013ED2E7D4
S21400AFB0002004E0212002E0212000E02120BDE85E
S21400AFC0F8832120FBE72120F9E71E20F7E70000A1
S21400AFD000B583B0064A6B4692E8030083E8030098
S21400AFE01846FEF7B1F8002003B05DF804FB00BF7A
S21400AFF0F023020010B582B04FF04022536F43F0AA
S21400B00001035367002400948DF804406846FEF759
S21400B01051F8204602B010BD30B587B001AC0F4DD8
S21400B0200FCD0FC42B6824F8023B1B0C23700C4B6F
S21400B0301B884FF6FF7293420DD0DBB28DF80D30B1
S21400B0408DF80E300748FCF7A5FC01A8FDF70CFCB0
S21400B050002007B030BD7823EFE700BFF8230200DA
S21400B0600001E00F00F0490200B585B00A4A01ABC6
S21400B07007CA03C323F8022B120C1A7025238DF877
S21400B080053001A8FDF796FC6420FDF7D9FC0020EA
S21400B09005B05DF804FB00BF0C24020010B50446A2
S21400B0A0FDF7D2FE024B1C60FDF7D2FE002010BD5D
S21400B0B08821002010B5FDF7C7FE034B1C68FDF77E
S21400B0C0C7FE204610BD00BF8821002070B50D4683
S21400B0D01646034638B153B15C6854B13246294629
S21400B0E01868A04770BDFFF7E5FF0346F3E7232087
S21400B0F0F8E72320F6E72DE9F04182B00F469046A8
S21400B1001D46044658B175B17CB1A6687EB12B4683
S21400B110424639462068B04702B0BDE8F081FFF7E6
S21400B120C9FF0446EFE701ADEEE72320F4E723204E
S21400B130F2E700B583B002AB03F8011D0122194601
S21400B140FFF7C4FF03B05DF804FB08B50B460146E5
S21400B1501846FFF7EEFF08BD08B500230122FFF7EB
S21400B160CAFF08BD0EB410B583B005AB53F8044B48
S21400B1700193014660B1019B2246084804F00AFC90
S21400B180002809DD002003B0BDE8104003B070477A
S21400B190FFF790FF0146EEE73720F4E74BB10000DB
S21400B1A0FEE7437F4BB190F82130022B01D00123FC
S21400B1B004E0012280F8212000E0012318467047B1
S21400B1C001777047007F7047807F704770B50446F0
S21400B1D00E46FDF744FE2569FDF745FE9DB1626902
S21400B1E0A368D35C3370A3680133A360A26993425B
S21400B1F00BD0FDF734FE2369013B2361FDF733FED8
S21400B200636820469847284670BD0023A360F0E791
S21400B210F8B507460D4616461C46002323602368ED
S21400B220B34209D229463846FFF7D0FF20B1013590
S21400B230236801332360F2E723680BB10020F8BDD2
S21400B2401B20FCE72DE9F04104460D461746067F15
S21400B250FDF7FAFD94F81D8001236377FDF7F8FDEE
S21400B260B8F1000F02D076B100261EE0144A002185
S21400B27094F8200000F03CFFF5E7236815F8011B62
S21400B280204698470136BE42F7D30D4A012194F86E
S21400B290200000F02DFF00206077BDE8F0812368D5
S21400B2A015F8011B204698470136BE42EDD22B7892
S21400B2B00A2BF4D123680D2120469847EFE700BFFC
S21400B2C01824020010B50446837F0A4601B113B164
S21400B2D002B943B910BD084A0121C07F00F008FF3B
S21400B2E00123A377F6E7044A0021E07F00F000FF81
S21400B2F00023A377EEE700BF18240200F8B55568D0
S21400B300002D6BD09568002D6AD01F4615460C465A
S21400B310064624220021204614F0D1FE6B686361A5
S21400B320AB68A3612B7B23772760069B6360346042
S21400B3302C4B73602C4BB3602C4BF3602C4B33615F
S21400B3402C4BF361012384F821302B4A72612B4A7F
S21400B350B2619DF8202084F820209DF81C20E2771A
S21400B3600022A2776377697B2046FFF7ABFF95F94B
S21400B3700030002B08DB03F01F015B0901228A4026
S21400B38060331F4941F8232095F90030002B07DB76
S21400B39003F01F015B0901228A40194941F8232066
S21400B3A095F90130002B08DB03F01F015B09012231
S21400B3B08A406033124941F8232095F90130002B6A
S21400B3C007DB03F01F015B0901228A400C4941F8A4
S21400B3D023203046FFF762FE0020F8BD2220FCE75F
S21400B3E02120FAE745B2000011B20000C1B100000A
S21400B3F0C5B10000A3B10000C5B20000C9B100008D
S21400B40000E100E0026983699A4201D30020704798
S21400B410012070474269C368D154C3680133C360D2
S21400B4200269013202618269934203D0042380F8E4
S21400B430213070470023C360F8E7000010B50446CB
S21400B440437F0BB1607F10BD01234377044A002180
S21400B45090F8200000F04CFE022384F82130F1E73B
S21400B46018240200426AD36C43F00403D364704786
S21400B47038B504460D4601230422C16A90F8280018
S21400B480FDF7A2FE2946606AFEF742FA626AD36CAE
S21400B49043F00103D364002038BD0000F0B585B04A
S21400B4A016461C460A9D0123029301934C4B0093BB
S21400B4B04C4B0A462946FFF721FF074610B138468F
S21400B4C005B0F0BD23686B6201213A20FCF7D4FF7B
S21400B4D001230422A168A079FDF776FE012302224B
S21400B4E02169207BFDF770FE0121A088FCF7C4FFD0
S21400B4F00023337031462068FEF738F994F824208C
S21400B500394B03EB42121421C2F81C16A179A0682D
S21400B51094F8242041EA004103EB4212C2F83416A4
S21400B520227B206994F8241042EA004203EB411380
S21400B530C3F82C26337E032B50D8DFE803F004062E
S21400B5403302012602E0002618E00026002302222D
S21400B550A169207DFDF738FE227DA16994F824308C
S21400B56042EA0142B1335B0103F1804303F57033D5
S21400B5705A60226841F25C030421D150A6B9A3792F
S21400B58085F82830A368EB62226842F2480304215B
S21400B590D1502268D36C0B43D36405212068FEF794
S21400B5A0A6F88CE70126E9E700230422216A207F1B
S21400B5B0FDF70AFE94F824200B4B03EB421241F2EF
S21400B5C01C6102205050227F206A94F8241042EA20
S21400B5D00042B13103EB41139A60D0E723276EE7B0
S21400B5E065B4000071B4000000C0034010B5044606
S21400B5F0436A9B6913F0800F05D1636A9A6C12F058
S21400B600010F11D110BDFFF7FDFE28B9626AD36C99
S21400B61023F00403D364F0E7606AFEF766F9014698
S21400B6202046FFF7F7FEE8E742F24802012199506C
S21400B630626AD36C23F00103D3642046FFF7FEFE54
S21400B64028B9626AD36C43F00103D364DAE70123B6
S21400B6500022E16A94F82800FDF7B6FDD2E7000064
S21400B66000B583B001F02CFA6A4601F0B5FA20B9AD
S21400B670DDE9000103B05DF804FB3321014800F06A
S21400B68073FAF5E72424020008B5FFF7E9FF08BDC2
S21400B690012070470420704708B5FCF753FD08BD2D
S21400B6A010B504E04FF47A70FFF7F6FF2046431E0D
S21400B6B09CB20028F6D110BD08B5FCF7D3FC01F00B
S21400B6C09BF808B9002008BD5121024800F04CFA4A
S21400B6D0F8E700BF2424020008B500F0C3F9EFF332
S21400B6E00883043B03E04FF0CD321A60043B074A60
S21400B6F09342F8D2FCF728FC4FF0402302221A6748
S21400B700FFF7DAFF0248FEF71BF908BD000000202D
S21400B710C421020008B5054B5B6E13F4005F00D130
S21400B72008BD0348FEF7FAF8FAE700BF00800040BD
S21400B7300080014A08B540F2016000F0F7F908BD44
S21400B740004870470080002000487047983200206C
S21400B75008B50846114604F00DF9002008BD0000A3
S21400B7600EB400B582B003AA52F8041B0192002062
S21400B770FFF7EEFF044804F0E7F8002002B05DF89B
S21400B78004EB03B0704700BF881E02000EB400B57D
S21400B79082B003A951F8040B019104F0EBF80020E5
S21400B7A002B05DF804EB03B070470120704700005C
S21400B7B010B5044628235B881BB11A040E4B9A4228
S21400B7C00AD128231B88B3F5804F0AD228231B688A
S21400B7D09B68A3420AD310BD4821084800F0C4F96C
S21400B7E0EFE74A21054800F0BFF9EFE74C21034890
S21400B7F000F0BAF9EFE700BF0000E10FA024020056
S21400B80008B5FFF7D2FF38B10020FFF7D1FFFCF7ED
S21400B81003F910B1862000E0862008BD10B586B07A
S21400B820FFF7C3FF002835D028231B689A6912F457
S21400B830803F2BD01B6B5B6801A89847059B3BB3EA
S21400B8409A68B2F5803F19D21349CA805B884B804C
S21400B85005990B88104C23804B68A380CB68A360A7
S21400B8600B69E3600422143104F1100014F003FCA9
S21400B870059B1B7E2375204606B010BD920A06491E
S21400B880CA805B8843F010034B80E1E70020F3E7B3
S21400B8900020F1E70020EFE7AC2E002008B5FFF708
S21400B8A084FF00B908BDFCF7D3F8FBE708B5FFF73F
S21400B8B07CFF80B128231B689B6913F4803F0BD064
S21400B8C028231B681B6B5B6A4FF40B7207490848FA
