S01100005A334C69676874536F632E73333739
S31500000000E01A002035850200CD480000D1480000E6
S31500000010A70A02020002000004180FAC4066B400F2
S3150000002000000000000000000000000000000000CA
S3150000003000000000647C03000000000000000000D7
S315000000400000000000000000FFFFFFFFFFFFFFFFB2
S31500000050FFFFFFFFFFFFFFFFFFFFFFFFFFFFFFFFAA
S3150000006000E00F000000000000000000FFFFFFFF9F
S31500000070FFFFFFFF1C000000000000000000000062
S3150000008000000000000000007442002074420020BE
S31500000090E01A0020C4D10300EC49030080110020BF
S311000000A04C1100200000100000000000C1
S31500000200E01A002035850200CD480000D1480000E4
S31500000210D9480000D5480000DD48000031850200BD
S3150000022031850200318502003185020031850200E8
S31500000230E148000031850200318502003185020067
S31500000240916200006D420300C14B0000544900005A
S31500000250113C0300D9420300794203009142030096
S3150000026071420300C5590000995A0000B578000094
S31500000270B1F400005449000054490000E52600008E
S315000002805449000054490000BD5A0000544900007A
S3150000029054490000544900005449000054490000E4
S315000002A054490000544900005449000054490000D4
S315000002B0DD42030075420300156000001D43030084
S315000002C054490000DD0C0300544900005449000065
S315000002D054490000544900005449000054490000A4
S315000002E05449000054490000544900005449000094
S315000002F05449000054490000544900005449000084
S31100000300544900005449000031850200F9
S3150000030CF8B500BFF8BC08BC9E467047F8B500BFF0
S3150000031CF8BC08BC9E46704710B5054C237833B91B
S3150000032C044B13B10448AFF300800123237010BDB6
S3150000033C6C2100200000000030CB030008B5034BF5
S3150000034C1BB103490348AFF3008008BD0000000051
S3150000035C7021002030CB0300154B002B08BF134B2C
S3150000036C9D46A3F5803A00218B460F461348144A46
S3150000037C121A34F022FB0F4B002B00D098470E4B71
S3150000038C002B00D098470020002104000D000D48DA
S3150000039C002802D00C48AFF3008034F0DFFA2000BE
S315000003AC29000FF00FFB34F0C5FA00BF000008005F
S315000003BCE01A002000000000000000006C21002064
S315000003CC7442002000000000000000001FB501234D
S315000003DC009300220DF10F03062111F0A5FD20B9A3
S315000003EC9DF80F3023B104F0CDFA05B05DF804FB8F
S315000003FC04F0DAFAF9E7000030B5154D85B00024A3
S3150000040C2C7010F025FA022817D100900DF10E036E
S3150000041C22460321012011F087FDBDF80E0048B1DC
S3150000042C204604F0D3FA4FF47A6128461BF0BAFB47
S3150000043C05B030BD04F0A6FAFAE70CF023FE054B26
S3150000044C0090054A0549012012F0C2FFF0E700BFF3
S3150000045CAC300020FD670300304C0300354C030024
S3150000046C08B510F0F5F902280CD1074B0022012033
S3150000047C1A7008F0F9FF05490246BDE8084001204C
S3150000048C12F0A6BF08BD00BFA4300020944C030098
S3150000049C912808B504D1002004F086FA002008BD86
S315000004AC9028FBD1002004F06DFA02481BF06EFB7D
S315000004BCF4E700BFA43000207047000013B50E4BC4
S315000004CC009004460D4A0E49012012F081FF8CB1B2
S315000004DC15F0E4FE024618B10A49012012F078FF25
S315000004EC00200BF0EDFF084B0090084A0449012050
S315000004FC12F06EFF02B010BD5A4C0300304C0300D4
S3150000050C354C0300634C0300FD6703008F4C03005E
S3150000051C07B500230093044A044B0549012012F049
S3150000052C57FF03B05DF804FB494C03005A4C03001B
S3150000053C354C0300FFF74ABF09B9FFF747BF7047B1
S3150000054C11B902481BF022BB704700BFA430002033
S3150000055C38B5C37B05460BB1832038BDC47C2CB99A
S3150000056C02F012F920B9EB7B002BF5D18120F4E7D0
S3150000057C2046F2E7C37B10B504460BB1832010BDB1
S3150000058CC37C012B13D003D3402B13D08120F6E769
S3150000059C017D82898B1C9A4218D3806812F072FAFC
S315000005AC0AF010FDA0B9E37B002BE7D1EEE70AF0C9
S315000005BC21FDF7E7037D81899A1C914206D3826857
S315000005CC591CD05C515C16F055F8EBE78020D6E749
S315000005DC0020D4E7F8B5C37B04460BB18320F8BDE5
S315000005ECC37C052B29D8DFE803F0032A35414C4F91
S315000005FC057D8289AB1C9A4201D28020EFE7ADB211
S3150000060C2946806812F03EFA0646A068A78902358C
S3150000061C284412F04FFA284401308742EDD329467C
S3150000062CA289A06812F034FA014630460AF014FA90
S3150000063C002848D1E37B002BD0D18120CFE7017D68
S3150000064C82898B1C9A42D8D3806812F01BFA0AF066
S3150000065C23FAEDE7037D81895A1C9142CDD382683A
S3150000066C591C1144D05C0AF047FAE1E7017D8289F6
S3150000067C8B1C9A42C1D3806812F004FA0AF0BEFAB7
S3150000068CD6E70AF017FBD3E7057D8289AB1C9A42A5
S3150000069CB3D3ADB22946806812F0F4F90646A068C9
S315000006ACA7890235284412F005FA284401308742FE
S315000006BCA3D32946A289A06812F0EAF9014630466E
S315000006CC0AF040FBB4E7002089E7C37B2DE9F7432A
S315000006DC0446002B40F03E81C37C042B00F0B7800F
S315000006EC0BD8012B00F088803FD3022B00F09480AE
S315000006FC032B00F0A18081203DE0402B00F0DA8036
S3150000070C0FD8052B00F0B380062BF4D1017D82891E
S3150000071C8B1C9A422ED3806812F0B4F90DF0F4FEBD
S3150000072C61E0412B00F00581422BE4D1037D8289E7
S3150000073CD91D8A421ED39DB28068691CC65C12F014
S3150000074CA1F9EB1C0746A068A28910F80380291DA5
S3150000075C12F098F90635A3685B5D00934246034692
S3150000076C3946304616F06EFA3DE0057D8289AB1CA3
S3150000077C9A4203D2802003B0BDE8F083ADB229467D
S3150000078C806812F07FF9A289E91C8A42064605F1B7
S3150000079C0203EFD3881C8242ECD3A068C75C12F02C
S315000007AC71F98046A068B4F80C900535284412F00F
S315000007BC81F9284401308145DCD32946A289A068F9
S315000007CC12F066F98146A068284412F073F90130DC
S315000007DC0544A06810FA85F500954B464246394605
S315000007EC30460EF0A9FA002840F0B680E37B002BC9
S315000007FC14BF83208120BEE7057D8289EB1C9A42BB
S3150000080CB8D3ADB22946806812F03CF90235A3681C
S3150000081C595D0EF077FBE6E7057D8289EB1C9A4263
S3150000082CA8D3ADB22946806812F02CF90235A3681C
S3150000083C595D0DF093FDD6E7017D82898B1C9A429A
S3150000084C98D3806812F01EF90DF0F6FDCBE7057D06
S3150000085C8289EB1C9A428DD3ADB22946806812F080
S3150000086C11F90235A368595D0DF09AFFBBE7057DBA
S3150000087C8289AB1C9A42FFF47DAFADB229468068E3
S3150000088C12F000F9A289E91C8A42064605F1020318
S3150000089CFFF470AFA068C75C8B1C9A4207D312F0AA
S315000008ACF1F80246394630460EF052F89BE74FF601
S315000008BCFF72F7E7057D8289AB1C9A42FFF45AAFAB
S315000008CCADB22946806812F0DDF8A289E91C8A428D
S315000008DC064605F10203FFF44DAF881C8242FFF475
S315000008EC49AFA068C75C12F0CDF88046A068B4F892
S315000008FC0C900535284412F0DDF82844013081456A
S3150000090CFFF438AFA289A068294612F0C1F88146D7
S3150000091CA068284412F0CEF801300544A06810FAFD
S3150000092C85F500954B4642463946304616F072F927
S3150000093C59E7057D8289EB1C9A42FFF41BAFADB2D9
S3150000094C2946806812F09EF80235A368595D16F0A8
S3150000095C71F948E783200EE700200CE7F8B5C37B56
S3150000096C04460BB18320F8BDC37C022B21D004D8DE
S3150000097CABB1012B1AD08120F5E7412B1CD0422BB1
S3150000098C1DD0402BF7D1037D81899A1C91422DD322
S3150000099C8268591CD05C515C15F0B6FF01E00CF076
S315000009ACB1FC28BBE37B002BE5D0DBE70CF0C0FCED
S315000009BCF7E70CF0D3FCF4E715F0ECFFF1E7037D59
S315000009CC8289591D8A4211D39DB28068691CC65C06
S315000009DC12F058F8A2890746E91CA06812F052F8E2
S315000009EC39460246304616F015F8DAE78020BAE7A3
S315000009FC0020B8E7C37BF7B50446002B40F0D18046
S31500000A0CC37C072B00F2CF80DFE813F00800370019
S31500000A1C590085009A00A900B500C800037D82899B
S31500000A2C591C8A42C0F0C1809DB2691C881C824246
S31500000A3CC0F0BB80A068C75C12F024F8EB1CA6893A
S31500000A4C5A1C964222BFA268D25C2B1D014603F1AA
S31500000A5C010038BFFF2286422ABFA068FF23C35C71
S31500000A6C38460BF08BF8002840F0A180E37B002B76
S31500000A7C14BF8320812003B0F0BD067D8589731CCD
S31500000A8C9D42C0F09280B7B2BA1C954207F10103A1
S31500000A9CC0F08B808068C15C13460132954224BF3E
S31500000AACC25CFB1C03F1010738BFFF22BD4228BF05
S31500000ABCC35C805D38BFFF230BF07DF8D3E7037D65
S31500000ACC8289591C8A4270D39DB2A91C8A4205F1AF
S31500000ADC01076AD3881C824267D3A068C65CC75DCF
S31500000AEC11F0D0FF291DB4F80CC04B1C9C4522BF3D
S31500000AFCA3685B5C691D024601F1010038BFFF2348
S31500000B0C84452ABFA068FF21415C009130463946D6
S31500000B1C0BF069F8A7E7027D8189501C814293B2DC
S31500000B2C22BFA0680133805C03F1010238BFFF20AD
S31500000B3C91422ABFA268FF21D15C0BF070F892E7B4
S31500000B4C017D8289CB1C9A422FD38068455C01318A
S31500000B5C11F098FF014628460BF01EF883E7037D3B
S31500000B6C81899A1C914220D38268591CD05C515CB5
S31500000B7C0BF02DF877E7037D8289191D8A4214D371
S31500000B8C806899B2C55C4B1C0231C65C11F07AFFC9
S31500000B9C3146024628460BF034F864E70BF047F86A
S31500000BAC61E7832067E7812065E7802063E7002003
S31500000BBC61E72DE9F04FC37B8FB004461BB1832050
S31500000BCC0FB0BDE8F08FC37C0B2B4DD8DFE813F0CC
S31500000BDC0C00550030014C004C004C0057014C00E9
S31500000BEC4C004C00C301D701037D8289581C8242FC
S31500000BFC24BFA06810F8038099B234BF4FF0FF08E9
S31500000C0C013118F0070509D10F1DBA422FD3A06880
S31500000C1C11F032FFB9B20646FF2711E0022D25D19D
S31500000C2C01F108039A42C0F0DF81A5680D4499B220
S31500000C3C4B1C9A421BD3A2684FF0FF36575C99B2F5
S31500000C4CA2890B1D9A4215D3A06811F015FF0090CE
S31500000C5C3B462A463146404608F090FE002840F0B6
S31500000C6CC181E37B002BAAD18120A9E700254FF097
S31500000C7CFF36D1E74FF0FF30E9E7037D82899DB25D
S31500000C8C03339A4218D32946806811F0F8FE0335CF
S31500000C9C064616F0070712D1A28905F1040842454B
S31500000CACC0F0AD802946A06811F0E6FE1FFA88F563
S31500000CBC83464FF0FF0A18E04FF0FF36E9E7022FA4
S31500000CCC40F09C80A28905F108039A42C0F08E81FF
S31500000CDCA7682F449DB26B1C9A42C0F09080A26804
S31500000CEC4FF0FF3B12F805A09DB216F0100340F032
S31500000CFC898016F0600903D0B9F1600F40F07B8152
S31500000D0CA28905F108039A42C0F07281A1682944B0
S31500000D1C09919DB2B9F1000F03D0B9F1600F40F003
S31500000D2C6B81AB1C9A42C0F06C812946A0680A9371
S31500000D3C11F0A8FE0A9B80469DB2B9F1200F02D095
S31500000D4CB9F1400F62D1A289AB1C9A420A935DD3CA
S31500000D5C2946A06811F096FE0A9B81469DB206F0C4
S31500000D6C1803082B55D1A2896B1C9A4251D3A26841
S31500000D7C525D0A929DB271044ED5A2892B1D9A42E0
S31500000D8C4AD32946A0680C9311F076FE0C9B0B9067
S31500000D9C9DB216F4004344D0A28905F110039A4281
S31500000DAC3ED3A2682A440C929DB2F2033BD5A2898B
S31500000DBCAB1C9A4237D32946A0680D9311F062FEFC
S31500000DCC0D9B9DB2B30331D5A2896B1C9A422DD3D0
S31500000DDCA3685B5DCDF80480CDE906030C9B0593F7
S31500000DEC0B9B04930A9BCDE90293099B00933A460D
S31500000DFC53465946304608F0C3FD2FE700274FF0FF
S31500000E0CFF3B56E700234FF6FF7809934FF6FF7921
S31500000E1CA5E7FF230A93AEE74FF0FF330B93B8E732
S31500000E2C00230C93C1E74FF6FF70CBE7FF23D1E706
S31500000E3C017D8289481C824224BFA068455C8BB226
S31500000E4C34BFFF250133A90714D59E1CB24211D31A
S31500000E5C1946A06811F016FEB3B20146EA060CD587
S31500000E6CA0895A1C904208D3A268D25C284608F086
S31500000E7C41FDF3E64FF6FF71F0E7FF22F6E7037D3F
S31500000E8C82898068591C8A429DB228BF013505F1BA
S31500000E9C02062CBF10F803804FF0FF08B24233D382
S31500000EAC294611F0EFFDB5B28146A289A0686B1CEC
S31500000EBC9A422ABF10F805A04FF0FF0A9DB218F00F
S31500000ECC070624D105F1040B5A4530D3294611F0F7
S31500000EDCD3FD1FFA8BF507464FF0FF0BA289A068CE
S31500000EEC0A92691C8A4223BF435D09938DB2FF2384
S31500000EFC284438BF099311F0DDFD0A9A28440130C5
S31500000F0C824217D280205BE64FF6FF79CDE7022EA0
S31500000F1C0CD105F108039A4271D346199DB210F80B
S31500000F2C05B00135ADB24FF0FF37D7E700264FF0CD
S31500000F3CFF37D1E7A289A068294611F0A9FD099BC4
S31500000F4C0390CDE901B300963B46524649464046CE
S31500000F5C08F0ACFD82E6007DA289031D9A42D1D32E
S31500000F6C86B2A568F31CB21C711C0436EB5CAA5C39
S31500000F7C695C285C3544009508F056FE6EE6037DE8
S31500000F8C8289591C8A42BDD38068C65C9FB216F012
S31500000F9C1F0507F1010104D111F06EFD791D002228
S31500000FAC06E0022D1BD1421807F109014FF0FF3064
S31500000FBC06F00703022B01BFA3684D1C5B5CA9B2AC
S31500000FCC06F0180518BFFF23082D0ABFA568FF25D4
S31500000FDC6D5C00950146304608F014FF3EE64FF076
S31500000FECFF30DCE70020EBE5002521E6002772E662
S31500000FFC002309938EE609934FF6FF789DE60026AB
S3150000100C8DE7B9F1200F4FF6FF787FF499AEFDE628
S3150000101C2DE9F043C37B85B00446002B40F0A48237
S3150000102CC37C062B00F05C813AD8022B00F0EB80D7
S3150000103C07D8002B00F08F80012B00F0C480812094
S3150000104C8FE0042B067D858900F02A8140F204810D
S3150000105C731C9D42C0F08480B7B207F1010C0CF1F1
S3150000106C01039D427CD3FA1C954207F1020377D308
S3150000107C8068F91CC25C4B1C9D4224BF435C391D25
S3150000108C01F1010738BFFF23BD4228BF455C10F8AC
S3150000109C0C10805D38BFFF25009502F0A9F889E099
S315000010AC0A2B00F0AA8139D8082B017D828900F021
S315000010BC7B8140F244818B1C9A4251D38DB22946D6
S315000010CC806811F0DFFCA91CA2898B1C9A4207468A
S315000010DC46D3A06811F0D6FC291DA2898B1C9A4216
S315000010EC80463DD3A06811F0CDFCA91DA6894B1CEA
S315000010FC9E4222BFA3685B5CE91D024601F101001A
S3150000110C38BFFF2386422ABFA068FF21415C0091AD
S3150000111C38B20FFA88F102F083F94BE04B2B00F052
S3150000112C97814C2B00F0D481472B88D1027D818985
S3150000113C501C814293B222BFA0680133805C03F13C
S3150000114C010238BFFF2091422ABFA268FF21D15C61
S3150000115C02F008FB2EE0037D8289591C8A4203D2D9
S3150000116C802005B0BDE8F0839DB2A91C8A4205F12A
S3150000117C0107F5D3881C8242F2D3A068C65CC75D12
S3150000118C11F080FC291DB4F80CC04B1C9C4522BFE9
S3150000119CA3685B5C691D024601F1010038BFFF23A1
S315000011AC84452ABFA068FF21415C00913046394630
S315000011BC01F010FF002840F0D981E37B002B14BF0F
S315000011CC83208120CDE7067D8589731C9D42C7D37C
S315000011DCB7B2BA1C954207F10103C1D38068C15C52
S315000011EC13460132954224BFC25CFB1C03F1010776
S315000011FC38BFFF22BD4228BFC35C805D38BFFF23CA
S3150000120C01F034FED6E7077D85897B1C9D42A7D36A
S3150000121CBEB206F1010C0CF101039D42A0D3F21CE7
S3150000122C954206F102039BD38068F11CC25C4B1CF1
S3150000123C9D4224BF435C311D01F1010638BFFF23DB
S3150000124CB54228BF455C10F80C10C05D38BFFF25B1
S3150000125C009501F071FFADE7731C9D4280D3B7B2C8
S3150000126C791C8B1C9D42FFF47BAF80682A46865DF9
S3150000127C11F008FCFB1CA5895A1C954222BFA268DA
S3150000128CD25C3B1D014603F1010038BFFF228542AB
S3150000129C2ABFA068FF23C35C304601F003FF89E731
S315000012AC731C9D42FFF45CAFB7B2BA1C954207F1B2
S315000012BC0103FFF455AF8068C15C134601329542B9
S315000012CC24BFC25CFB1C03F1010738BFFF22BD42E1
S315000012DC28BFC35C805D38BFFF2301F029FE69E798
S315000012EC037D8289591C8A42FFF43AAF9DB2A91C30
S315000012FC8A4205F10107FFF433AF881C8242FFF4E2
S3150000130C2FAFA068C65CC75D11F0BCFB291DB4F8F5
S3150000131C0CC04B1C9C4522BFA3685B5C691D024636
S3150000132C01F1010038BFFF2384452ABFA068FF21C5
S3150000133C415C00913046394601F02AFD3AE78B1C98
S3150000134C9A42FFF40DAF8DB22946806811F09AFBD4
S3150000135CA91CA2898B1C9A420746FFF401AFA06810
S3150000136C11F090FB291DA2898B1C9A428046FFF432
S3150000137CF7AEA06811F086FBA91DA6894B1C9E42F0
S3150000138C22BFA3685B5CE91D024601F1010038BF70
S3150000139CFF2386422ABFA068FF21415C0091384694
S315000013AC414601F07DFF05E78B1C9A42FFF4D8AE4F
S315000013BC8DB22946806811F065FBA91CA2898B1C8D
S315000013CC9A420746FFF4CCAEA06811F05BFB2B1DCE
S315000013DCA6895A1C964222BFA268D25C6B1D01B22A
S315000013EC03F1010038BFFF2286422ABFA068FF2303
S315000013FCC35C38B201F0A8FFDCE6057D8289AB1C24
S3150000140C9A42FFF4ADAEADB22946806811F03AFBB4
S3150000141CA91CA2898B1C9A420746FFF4A1AEA068B0
S3150000142C11F030FB2B1DA6895A1C964222BFA268CE
S3150000143CD25C6B1D014603F1010038BFFF228642C8
S3150000144C2ABFA068FF23C35C384602F063F8B1E6F6
S3150000145C037D8289591C8A42FFF482AE9DB2691CB7
S3150000146C881C8242FFF47CAEA068C65C11F00AFBB5
S3150000147CE91CA2898B1C9A420746FFF471AEA06840
S3150000148C11F000FB691DA2898B1C9A428046FFF461
S3150000149C67AEA06811F0F6FAEA1DB4F80CC0511C40
S315000014AC8C4522BFA168895C05F10802034602F14E
S315000014BC010038BFFF21844526BFA068825CFF224D
S315000014CCCDE9001230464246394602F03DF871E647
S315000014DC037D8289591C8A42FFF442AE9DB2691C77
S315000014EC881C8242FFF43CAEA068C65C11F0CAFAB6
S315000014FCE91CA2898B1C9A420746FFF431AEA06800
S3150000150C11F0C0FA691DA2898B1C9A428046FFF421
S3150000151C27AEA06811F0B6FAE91DA2898B1C9A4277
S3150000152C8146FFF41DAEA06811F0ACFA05F1090274
S3150000153CA389511C8B4222BFA168895C05F10A0262
S3150000154C02F1010538BFFF21AB4224BFA3689A5CA8
S3150000155C009038BFFF22CDE901124B464246394670
S3150000156C304602F057F825E68320FAE50020F8E528
S3150000157CC37B10B504460BB1832010BDC37C412B35
S3150000158C03D0422B0FD08120F7E7037D81895A1CAB
S3150000159C914212D38268D05C15F046FC78B9E37B95
S315000015AC002BE9D1EFE7037D81895A1C914204D3C4
S315000015BC8268D05C15F080FCF0E78020DDE7002027
S315000015CCDBE738B5C37B002B437D14BF8325C325CE
S315000015DC012B04460FD10368028A598858790FF0FB
S315000015EC61FE40B123685B88212B16D12046BDE8ED
S315000015FC3840FFF7DEBA637D7BB92368228A5988A7
S3150000160C58790FF046FE40B123685B88052B2AD02B
S3150000161C05D8032B1DD021D8B3B1284638BD082BCD
S3150000162C26D006D8062BF8D12046BDE83840FFF761
S3150000163C95B9B3F5407F20D0B3F5805FEDD1204648
S3150000164CBDE83840FFF794BF2046BDE83840FEF7AA
S3150000165C7FBF2046BDE83840FEF78CBF2046BDE86C
S3150000166C3840FEF7B7BF2046BDE83840FFF72DB827
S3150000167C2046BDE83840FFF7BDB92046BDE83840E6
S3150000168CFFF7C6BC70470120704701207047012048
S3150000169C7047704700207047002070470020704745
S315000016AC00207047002070470020704701207047CB
S315000016BC01207047B5207047002070470020704706
S315000016CC00207047002070477047002070470020AC
S315000016DC70477047002070478420704770477047EA
S315000016EC70477047704770477047002070477047C7
S315000016FC7047704700207047704700F065BD0320A7
S3150000170C7047002070470000034B1B6818780128AF
S3150000171C08BF0220704700BF8C29002000207047AC
S3150000172C034A03460120C3E9032000221A707047BE
S3150000173C0100FEFF7047704770470020704700207D
S3150000174C7047002070470020704770470020704794
S3150000175C704700207047002070470020704700201B
S3150000176C704700207047002070470020704700200B
S3150000177C70477047B52070470020704700207047AF
S3150000178C70470020704770477047B5207047704708
S3150000179C704770470020704770477047094A00230E
S315000017ACFF21137082F8783082F8653082F8773032
S315000017BC82F8793082F87A1082F87B30024A13600C
S315000017CC704700BF88210020B4300020F8B50D46C4
S315000017DC8C680A6828490646202003F07AFE6B6856
S315000017EC7BB92649202003F074FE20200DF016FC50
S315000017FC2349202003F082FE2020BDE8F8400DF09E
S3150000180C0DBC002EF1D01F4D1F4E204F013C14F87D
S3150000181C013F23B91A49202003F070FEE5E7752B2A
S3150000182C18D0762B18D0772B18D0732B18D0722B88
S3150000183C18D0712B18D0622B18D06E2B18D02A2BDF
S3150000184C18D01349134A212B18BF1146202003F038
S3150000185C40FEDCE72946F9E73146F7E73946F5E776
S3150000186C0D49F3E70D49F1E70D49EFE70D49EDE7B2
S3150000187C0D49EBE70D49E9E7E1A00300484D0300EC
S3150000188CF94C0300064D0300FA4C0300114D0300FE
S3150000189C524D03004F4D03001D4D0300274D030011
S315000018AC324D03003D4D0300474D03004C4D0300E4
S315000018BCF0B5214A92F87B30184452FA80F01F4B4F
S315000018CC90F865C090F866501F78A5EB0C050026BD
S315000018DCEDB23046F4B2A54225D90CEB06031344FF
S315000018EC5B7811B10CB92D2B17D0782B1FD0582B38
S315000018FC05D108B137240AE0013C012C14D9602B20
S3150000190C17D8402BF6D83A2B34BF302400241B1B97
S3150000191CDBB29F4203D900FB07300136DAE7052319
S3150000192C82F879300020F0BD10270020F5E700285A
S3150000193CE2D05724EBE700BF88210020E81A0020EC
S3150000194CFFF72CBF034B93F8770093F87B30C01A44
S3150000195CC0B27047882100200021FFF7A9BF000004
S3150000196C10B50A4B93F87B20024453FA82F292F894
S3150000197C652013445C78A4F12D0359425941FFF7B5
S3150000198C97FF2D2C08BF404210BD00BF88210020B8
S3150000199C30B50C4A92F87B300344C043DBB2C00F1F
S315000019AC39B1D51895F8664095F86550641B241A1C
S315000019BC0C7042FA83F393F865301844024B1844C2
S315000019CC30BD00BF8821002089210020F7B50E46C6
S315000019DC0DF1070115461C46FFF7DAFF9DF8073097
S315000019ECAB42074688BF8DF807501CB19DF80740DF
S315000019FC2C1BE4B222463046002100F0B9FB30190C
S31500001A0C9DF80720394600F057FB9DF8070003B0F8
S31500001A1CF0BD38B508220C460123FFF7D7FF04F1B9
S31500001A2C0803621E043413F8011D12F8015F1D70C1
S31500001A3CA3421170F7D138BD38B5014605460120D1
S31500001A4CFFF7C4FED5E901436CB91C46084D236863
S31500001A5C63B12946202003F03CFD21460020FFF708
S31500001A6CB5FE0C34F3E71B786E2BEFD038BD00BFF8
S31500001A7CFDA2030008B50449202003F02AFD20200E
S31500001A8CBDE808400DF0CABABA4C030038B5FFF7EA
S31500001A9CF1FF064D002461190C34631953F80C3C04
S31500001AAC03B938BD0020FFF791FEF4E7345D03005F
S31500001ABC2DE9F84F1F4B204D53F820201F492020AD
S31500001ACC03F007FD2B681BB9BDE8F84FFFF7DEBF27
S31500001ADC1B4FDFF874A0FFF7CDFF0026B94697F829
S31500001AEC7B30F4B2013B9C4204DB2868BDE8F84F1E
S31500001AFCFFF7A2BF47FA86F34C4493F865800023A0
S31500001B0CC84494F8662094F86510521A03F1010B38
S31500001B1CD2B2DBB2934205D30A49202003F0D9FC9A
S31500001B2C0136DCE7434451465A78202003F0D1FCB9
S31500001B3C5B46E6E7EC1A0020B4300020B54C0300F7
S31500001B4C88210020FEA2030064A503002DE9F74FAF
S31500001B5C884C94F87730002B00F0A280864B1B78CB
S31500001B6C13F0010F04F101071FD00025834E14E07A
S31500001B7C6319202093F8662093F86530D21A44FA3C
S31500001B8C85F3D2B293F8651039440DF042FA31461A
S31500001B9C202003F09EFC0135EDB294F87730AB4271
S31500001BACE6D87749202003F094FC94F8773001931B
S31500001BBCDFF8D8E1734B002671461EF8012B91F81D
S31500001BCC01C04FF00008ACEB020C07EB020A5FFAFF
S31500001BDC8CFC45461868002852D00138D14619E0CD
S31500001BEC2AB9002D4AD04FF001080C33F2E719F848
S31500001BFC011BA1F1410BBBF1190F98BF2031A2F1CA
S31500001C0C410B98BFC9B2BBF1190F9CBF2032D2B29F
S31500001C1C8A42EAD1A9EB0A01614510F8012FDFD1FE
S31500001C2C002ADED11D46584B1D6094F87B300133DB
S31500001C3C84F87B30D5E901230136F6B2002A35D07B
S31500001C4C1B786E2B31D03F2B23D04FF00009C846A2
S31500001C5C4FF0070B042394F87710AA68B14212F8D8
S31500001C6C08702BD8AFB1904498F801302A2B10D0BD
S31500001C7C212F1CBF032384F879300AE01D46B4E7F4
S31500001C8CB8F1000F01D1002DCDD1022384F87930A3
S31500001C9C002594F87900002869D1686810F0C0FB1B
S31500001CAC03B0BDE8F04FFFF779BD1346019AB24277
S31500001CBC82D8032284F879201D46EAE7732F09D8C7
S31500001CCC712F0BD2212F1FD0622F3CD0002F4BD15E
S31500001CDC032246E0A7F17502022A45D8752F29D0B2
S31500001CEC762F2AD0732F2BD0722F47F6FF7A18BF78
S31500001CFC4FF0FF3A012148460193FFF7D9FD5045B5
S31500001D0C019B01D984F87930AA68424452782A2A70
S31500001D1C94F879201CBF08F101085FFA88F8002AAC
S31500001D2CB7D1212F1FBF013609F10109F6B25FFAAF
S31500001D3C89F990E74FF0FF0ADCE74FF6FF7AD9E70F
S31500001D4C4FF07F0AD6E794F87B204A4454FA82F285
S31500001D5C92F8652022445278222AD5D07B2AD3D0F9
S31500001D6C052284F87920CFE784F879B0CCE7FFF721
S31500001D7C9FFE95E78821002004220020FEA2030086
S31500001D8CF74C0300345D0300B4300020ED21002035
S31500001D9C2DE9F3415E4C5F4F06460D464FF00008A9
S31500001DAC66B90DF1070128460DF02EF978B12628F3
S31500001DBC00F0A980012384F879304BE0002D00F067
S31500001DCCA28016F8013B8DF80730013DEDB23A784A
S31500001DDC9DF807303B700D2A01D10A2BE0D00D2B54
S31500001DEC0CD0A3F10A025142514122788846042AAA
S31500001DFCD6D8DFE802F0051D263C31000121F4E7B8
S31500001E0C21B1FFF7A3FE4FF00108C9E7202B63D0E1
S31500001E1C222B07D10223237094F87820642A5DD1F3
S31500001E2C0623C8E77B2B01D10323F4E70123F2E752
S31500001E3C09B9202BF0D194F87730112B3FD103231D
S31500001E4CB9E7222BF7D00029E6D0052384F87930A0
S31500001E5C4FF0010804232370B8F1000FA0D094F8BA
S31500001E6C790008B1FFF724FEFFF798FC98E77D2B65
S31500001E7C94F87A0003D1FF28DDD005239BE7602B6D
S31500001E8C13D8402B13D8392B8CBF002230229A1A28
S31500001E9CD2B20F2A10D8FF280BD002EB0012FF2368
S31500001EAC8DF8072084F87A30B6E75722EFE7372209
S31500001EBCEDE784F87A2073E7202BDED170E7013347
S31500001ECCDBB284F87730234494F8782083F86520C5
S31500001EDC00232370002994D1884661E72378012BCF
S31500001EEC09D19DF80730A3F1410119299CBF203374
S31500001EFCDBB28DF80730A3189DF807105970013224
S31500001F0C84F878204CE7404602B0BDE8F08100BF6B
S31500001F1C882100200522002049BA89B24840C0F326
S31500001F2C03114140080380B24840C3B280EA431013
S31500001F3C704715F047BD000038B5A0F143030546C0
S31500001F4C0A2B31D8DFE803F0060A0A1212303030B9
S31500001F5C30301100BDE8384027F06EBA27F038FA59
S31500001F6C20B127F069FA0028FBD138BD114C207836
S31500001F7C0028FAD10123443D23700DF0B5FC032D46
S31500001F8C0DD8DFE805F00606090240F6010026F03A
S31500001F9C83FB00232370E8E740F60200F7E77A217B
S31500001FAC054802F06FF8F4E78C210348BDE8384089
S31500001FBC02F068B806220020DC4D0300704770471B
S31500001FCC7047704770477047704770477047704747
S31500001FDC7047002070477047704770470020704765
S31500001FEC7047704700207047704770470020704755
S31500001FFC7047012070470120704770477047704743
S3150000200C70477047704770472DE9F047204DDFF851
S3150000201CA090DFF8A0A000245FFA84F8404619F0DF
S3150000202CB5FBFF2806460CD122461A49287803F040
S3150000203C65FA287801340CF0F1FF142CECD1BDE8CC
S3150000204CF087154B59F82420144947B213EA270395
S3150000205C38BF5346287803F051FA002FE9DA14B149
S3150000206CB8F1030F08D10E4B0E49287816F0010F64
S3150000207C18BF194603F042FA0A2CDAD10A4B0B495F
S3150000208C287816F0010F18BF194603F037FAD0E777
S3150000209CB11E0020E54E0300F94C03000D4F030062
S315000020ACA84E0300BE4E0300D04E0300DA4E0300CA
S315000020BC544E030054A103008842F0B54FEA920334
S315000020CC1AD89BB29E00871904460D460437043471
S315000020DCBC4205F104053AD1C3EB8333314402EB20
S315000020EC8303013E304411FA83F3994220D011F850
S315000020FC012B00F8012FF8E7541E20449BB2214413
S3150000210CA0EB830604460D46043E043CB442A5F1FE
S3150000211C04050ED16FF003045C43C3EB833302EB6F
S3150000212C830321449BB201342044CB1A994209D132
S3150000213CF0BD2F792771EF78E770AF78A7706F78BD
S3150000214C6770E2E711F8012900F8012DEEE715F8A2
S3150000215C04CC04F804CC15F803CC04F803CC15F81D
S3150000216C02CC04F802CC15F801CC04F801CCAEE78D
S3150000217C0244904200D1704700F8011BF9E710B5F4
S3150000218C013801390AB9104606E010F8014F11F86A
S3150000219C013F9C4201D0E01A10BD013A92B2F1E720
S315000021AC82B2074B42B11A80000C064B0ABF4FF69F
S315000021BCCE2218801A8070474BF6EF62F3E700BF09
S315000021CCC01B0020C21B0020094B1888020448BF04
S315000021DC80F0620042001A80064A1388190444BF34
S315000021EC83F4805383F00B035900118058407047D9
S315000021FCC01B0020C21B0020034B1870034B197028
S3150000220C034B00221A707047102200200F22002068
S3150000221C11220020024B187800F07F00704700BF97
S3150000222C12220020034B18780130C0B2187000F04F
S3150000223C7F007047122200201FB5030A8DF80E305E
S3150000224C0323009303AB8DF80D0000F0BDF905B028
S3150000225C5DF804FB1FB5030A8DF80F1004218DF8E9
S3150000226C0E30009103AB8DF80D0000F0ADF905B002
S3150000227C5DF804FB2DE9F04389B00746BDF84050E4
S3150000228C9DF84460BDF84C4088460DF10900114696
S3150000229C08229946FFF710FF8DF81250012E4FEACF
S315000022AC15258DF811908DF813508DF8146017D0F4
S315000022BC032E1CD1082212990DF11500FFF7FCFE16
S315000022CC9DF850308DF81D3016230093BDF8542020
S315000022DC02AB4146384600F077F909B0BDE8F08309
S315000022EC8DF81540240A8DF816400F23EDE70120D2
S315000022FCF3E71FB50C46194602238DF80D20009303
S3150000230C0A4603AB0146204600F05EF904B010BD48
S3150000231C70B586B0044616460DF10D0008221D4612
S3150000232CFFF7CAFE0A2300932A4603AB3421204644
S3150000233C8DF8156000F048F906B070BD30B585B063
S3150000234C0024ADF80A20021D92B2012A1D46ADF8F2
S3150000235C0840ADF80610ADF8044003D94FF6FF72ED
S3150000236C904207D1064A2B46127801A920F024F890
S3150000237C05B030BD014601AA204620F0E3F8F7E788
S3150000238CC41B00202DE9F74FFF2A98461DBF464B6C
S3150000239C1B689C5C002418BF6408B8F1FF0F1EBFB5
S315000023AC414B1B6813F808700E46814614BF7F0814
S315000023BC00271546FFF736FF4FEA19238DF8000064
S315000023CC8DF803600621360A68468DF804608DF890
S315000023DC01908DF802308DF8054019F05DFFFF284D
S315000023EC064604D11824204603B0BDE8F08F4FEA08
S315000023FC440B0BF1070A0AEB4701C9B219F000FFAF
S3150000240C0028EFD10446A3451BD10BF106013A4631
S3150000241C01F0FE01304619F0BAFF5FFA8AF44FF06C
S3150000242C000A5FFA8AF5AF4223D83346BDF830204E
S3150000243C06214846FFF782FF0446304619F0D0FDC8
S3150000244CD1E72146284619F09DFFA11D0246C9B2C7
S3150000245C304619F09CFF611CC9B2284619F092FF50
S3150000246CE11D0246C9B23046023419F090FFE4B2BF
S3150000247CC9E76D00EDB22946404619F083FF2146A7
S3150000248C0246304619F083FF691CC9B2404619F062
S3150000249C79FF611C0246C9B23046023419F077FF47
S315000024AC0AF1010AE4B2BCE7641B00202DE9F041F5
S315000024BC88B00F4602A906460EF098FA00287CD082
S315000024CCFFF7B0FE8DF8100019F0FCFA8DF811002C
S315000024DC19F0F8FA000A8DF81200082239490DF1A4
S315000024EC1300FFF7E9FDBDF808308DF81C301B0A08
S315000024FC8DF81D300F219DF80D308DF81B6004A84A
S3150000250C8DF81E3019F0C8FEFF28044657D04FF040
S3150000251C00089DF80D305FFA88F2934208F1010825
S3150000252C1DD801220DF10E01204619F0F7FE4FF0D1
S3150000253C00089DF80E305FFA88F2934208F1010804
S3150000254C24D823463A4620210020FFF7F7FE0546FD
S3150000255C204619F045FD284608B0BDE8F08100215B
S3150000256C30460EF06FFA0DF107018DF8070005469F
S3150000257C0122204619F0D2FE2D0A01220DF1070187
S3150000258C20468DF8075019F0C9FEC2E701213046E6
S3150000259C0EF058FA0DF107018DF8070005460122D9
S315000025AC204619F0BBFE2D0A01220DF1070120462B
S315000025BC8DF8075019F0B2FEBBE7A325CBE718251B
S315000025CCC9E700BFED400020F8B51C460E4617467D
S315000025DC0546FFF727FE9DF818102070204619F0C7
S315000025EC5BFEFF2804460BD003463A462846314686
S315000025FCFFF7A4FE0546204619F0F2FC2846F8BD66
S3150000260C1825FBE708B5FDF757FF11F083FFBDE86A
S3150000261C08400AF04BB808B5FFF75BF811F0A8FFB5
S3150000262CBDE8084008F058BC7047FFF796B8FFF7AE
S3150000263C9AB830B4BDF80840BDF80C50CDE9024547
S3150000264C30BC07F0ABBC38B504460D46FFF7A4F812
S3150000265C294620460AF046F829462046BDE8384069
S3150000266C0DF0ECB9FFF781B8FFF78BB8012200210A
S3150000267C092012F029BC000070B5134C8A00A3186F
S3150000268C22449B781D09062D98BF104E03F00F03AC
S3150000269C94BF755DFF25062B05719ABF0C4DEB5C3F
S315000026ACFF234371FF3B18BF01238371D37014F8CA
S315000026BC2130084C4370537883700146204605F050
S315000026CC69F90123A36070BD132200207268030010
S315000026DC6B680300002000407FB522492248002287
S315000026ECFF23CDE901228DF8093003784C6C8D6BF4
S315000026FC03922C40E407DBB228D5022B26D88C6C2F
S3150000270C1A4901EB8301A5B2CE78194906B3260402
S3150000271C1ED521F813201749012202FA03F30A7871
S3150000272C1343154A0B701378CBB100231478DC4095
S3150000273CE407D9B20FD501701078012404FA03F31B
S3150000274C4340DBB201A81370FFF796FF04B070BDCF
S3150000275C21F81350DFE70133032BE7D1F6E7032308
S3150000276C0370F3E7002000401F22002013220020F4
S3150000277C2222002021220020202200200120704746
S3150000278C012070470120704710B5084C23681B6860
S3150000279C58790FF05EF823681B685879FEF79FFF8F
S315000027AC002012F059F8012010BD00BF5C3F00203C
S315000027BC2DE9F84F184E80460D461446994606F1FB
S315000027CC010A0DB9BDE8F88F102D4FF00D024946E0
S315000027DC50462F4628BF1027FFF76EFC0123337097
S315000027EC0D48F4730023B373013421F0C1FD0B497A
S315000027FC5FFA87FBE4B2424612F8013B11F8010F6F
S3150000280C434002F8013CA2EB0803DBB25B45F3D371
S3150000281CED1BADB29046D4E72C2200202B220020D3
S3150000282C2DE9F04F374D85B01746BDF8388001902D
S3150000283C03930D220F9B02930E460146681CFFF76D
S3150000284C3BFC49232B7028464FEA1823AB7385F8BB
S3150000285C0F8021F08DFD2B7883EA17232B706B7874
S3150000286C4FF002097B406B704C46AA464FF0000BAA
S3150000287C21E0C4F1100CA7EB0B031FFA8CFC9BB2E6
S3150000288C634528BF63463046A11B00EB010C5FFA7B
S3150000289C8CF2A0EB060C1FFA8CFC9C451BD31C443B
S315000028ACE4B29B44102C1E441FFA8BFB03D1284622
S315000028BC21F05EFD0024BB45DBD314B1504621F05C
S315000028CC57FDB9F1010F4FF00004039E47460BD09C
S315000028DC4FF00109CAE710F801CB1AF802E08CEAAE
S315000028EC0E0C0AF802C0D0E7029806490422FFF73C
S315000028FCE3FB019B02982246042105B0BDE8F04F8C
S3150000290CFFF756BF2C220020F7B5099FBDF82040D3
S3150000291CCDE9004706461D46FFF782FF2CB133462C
S3150000292C012221462846FFF743FF002003B0F0BDE5
S3150000293C2DE9F743BDF828700F4C1E460546884610
S3150000294C91460346394630460122FFF731FF33469E
S3150000295C4A4641462846CDE90074FFF761FF04223A
S3150000296C21460B98FFF70BFC002814BF7E20002095
S3150000297C03B0BDE8F08300BF282200202DE9F34107
S3150000298C0A4F0C46991815461E4680462144384671
S3150000299C0422FFF791FBCDE9006763192A4621460D
S315000029AC4046FFF7C5FF02B0BDE8F0813C2200208F
S315000029BC002070470020704770477047034A002379
S315000029CC1370034A1370034A13707047F0300020DB
S315000029DCE8300020F83000201FB50223009344F2A3
S315000029EC0B020DF10E034FF440710FF09DFA10B16E
S315000029FC0023ADF80E30BDF80E0005B05DF804FBF3
S31500002A0C1FB50223009344F20C020DF10E034FF492
S31500002A1C40710FF089FA18B14FF6FF63ADF80E301E
S31500002A2CBDF80E0005B05DF804FB81B143888088C3
S31500002A3C83429EBF1A46034610461B1A0A20584369
S31500002A4CB0FBF1F0B0F5803F01D280B270474FF683
S31500002A5CFF7070471FB50123009300220DF10F0381
S31500002A6C4FF440710FF060FA20B140F23231044855
S31500002A7C01F008FB9DF80F0005B05DF804FB00BFE4
S31500002A8C796803001FB50123009308220DF10F038B
S31500002A9C4FF440710FF048FA18B19121034801F038
S31500002AACF1FA9DF80F0005B05DF804FB7968030098
S31500002ABCF0B585B00F460546FFF7E4FFB84204466D
S31500002ACC38D004AE202306F8017D44F201020093AF
S31500002ADC4FF44071334628460FF0D5F920B14FF428
S31500002AEC8171174801F0CEFA202300930822334651
S31500002AFC4FF4407128460FF0C6F920B140F2091187
S31500002B0C0F4801F0BFFA04EB0710C0B2102813D01F
S31500002B1C07D801280BD002280CD12846FEF7E1FD78
S31500002B2C08E0202808D0212801D01228F4E72846EE
S31500002B3CFEF7D8FD05B0F0BD2846FEF7D1FDF9E746
S31500002B4C796803001FB5012200920DF10F034FF4B3
S31500002B5C40710FF0E9F920B14FF45071034801F0C0
S31500002B6C91FA9DF80F0005B05DF804FB7968030037
S31500002B7C70B5084C00260546A680FFF76BFF25723C
S31500002B8C6070054C2846E680FFF7DCFFA573608075
S31500002B9C70BD00BF402200204C2200201FB502232E
S31500002BAC009303220DF10E034FF440710FF0BCF9A4
S31500002BBC20B140F21B41044801F064FABDF80E0046
S31500002BCC05B05DF804FB00BF796803001FB502234E
S31500002BDC009304220DF10E034FF440710FF0A4F98B
S31500002BEC20B140F22941044801F04CFABDF80E0020
S31500002BFC05B05DF804FB00BF796803001FB502231E
S31500002C0C009307220DF10E034FF440710FF08CF96F
S31500002C1C18B19F21034801F035FABDF80E0005B036
S31500002C2C5DF804FB796803002DE9F84391460546E7
S31500002C3C0C46FFF7D1FE07462846FFF7E1FEB9F131
S31500002C4C000F064608BF4FF00109FFF7B7FE022139
S31500002C5C2846FFF72DFFBC4238BF3C46A4B2B4420F
S31500002C6C284628BF3446FFF7C9FFDFF83C80A8F892
S31500002C7C00002846FFF7C2FFA4B2A8F80200A8F885
S31500002C8C0440A8F80690A8F8089088F80E50A8F802
S31500002C9C0A70A8F80C6064210248BDE8F84318F0E5
S31500002CAC81BF00BFF03000205C220020F0B50E463C
S31500002CBC85B00621074615460EF0FDFA012304469B
S31500002CCC48B300930F220DF10E034FF440713846B2
S31500002CDC0FF02AF910B100238DF80E300123009362
S31500002CEC00220DF10F03062138460FF01DF950B9DD
S31500002CFC9DF80F403CB9FF2E08D1FF2D06D19DF84B
S31500002D0C0E4004F00104204605B0F0BDF307F6D5DD
S31500002D1C05F00104F7E71C46F5E700001FB504AB08
S31500002D2C212223F8021D00924FF4407102220FF06B
S31500002D3CAAF818B1F821034801F0A4F905B05DF81A
S31500002D4C04FB00BF7968030010B50446C088E8B1DF
S31500002D5C013881B2E180A07BFFF7E0FFA28863888F
S31500002D6CE08893420FD0238821899A428BBFD31ACD
S31500002D7C9B1A434343438BBFB3FBF1F3B3FBF1F312
S31500002D8CD31A9B186380B0FA80F0400910BD00007E
S31500002D9C2DE9F8431E46314B1B681B685C7980464F
S31500002DAC204615460F46FFF755FE002D08BF012598
S31500002DBCB8F1FF0F814601D0FF2F05D1802011F00D
S31500002DCC4BFD0120BDE8F8839DF8202031462046B6
S31500002DDCFFF76CFF0028F2D0C14538D2A8EB0906E4
S31500002DEC7E2ECCBF00260126FFF7E8FD00212046EB
S31500002DFCFFF75EFE2046FFF7BBFE194B204683F815
S31500002E0C02804FF000085E7283F8009083F8019000
S31500002E1C9D80DD801C7283F80A80FFF793FE114EAD
S31500002E2C30802046FFF78EFEFE2370802946204612
S31500002E3CB381B780F5803581B473A6F80A80FFF7A5
S31500002E4C6DFF0948642118F0ADFE4046B7E7A9EBC3
S31500002E5C08067F2ED4BF00260126C5E75C3F00205E
S31500002E6C402200204C220020F8300020F8B50D46F8
S31500002E7C11462B4A12681268567907461A4630468E
S31500002E8CFFF714FF20B9002011F0E6FC0120F8BD75
S31500002E9CFFF794FD002FF6D000213046FFF708FE11
S31500002EAC3046FFF765FE3046FFF7D4FD1D4C20700B
S31500002EBC3046FFF7CFFD012F607020D13046FFF76B
S31500002ECCC9FD15FA80F080B2FE2884BFFE3880B2A8
S31500002EDCA070012363720A23A380E3804FF6FF716F
S31500002EEC01233046A3722672FFF718FF0E4B0F48CC
S31500002EFC00246421DC8018F055FE2046C4E7032F1D
S31500002F0C0BD13046FFF7A6FD83B2A8423CBFFE3379
S31500002F1C9BB25D1BA5700023DCE78020B4E700BFE5
S31500002F2C5C3F0020402200204C220020F83000207C
S31500002F3C2DE9F0410E461146224A1268126855795F
S31500002F4C80461A462846FFF7B1FE28B9002011F034
S31500002F5C83FC0120BDE8F081FFF730FDB8F1000FCE
S31500002F6CF4D0002EF2D000212846FFF7A1FD28460A
S31500002F7CFFF7FEFD144B154C002728469F80FFF7E4
S31500002F8CE1FD20802846FFF7DDFDB8F1010F08BFF3
S31500002F9CFE23314660800D480CBFA380A780FFF747
S31500002FAC44FD00260146FE23E08020812846A381AD
S31500002FBCA5736681FFF7B2FE0548642118F0F2FD91
S31500002FCC3046C4E75C3F0020402200204C22002003
S31500002FDCF83000202DE9F04117462E4A1268126887
S31500002FEC55799DF8182080460C4628461946FFF759
S31500002FFC5DFE20B911F030FC0120BDE8F0812846B9
S3150000300CFFF728FD002F08BF0127B8F1FF0F01D1EC
S3150000301C8020EFE7032CFBD8DFE804F002323909F5
S3150000302CA0EB080010F0800F0CBF03240124FFF75F
S3150000303CC5FC00212846FFF73BFD2846FFF798FD07
S3150000304C2846FFF707FD144E30702846FFF702FDA1
S3150000305C631E5C425C41114B7070747239460024DD
S3150000306C2846DC8086F80280B780F7803572B47209
S3150000307CFFF754FE0A48642118F094FD2046B9E780
S3150000308CA0EB080010F0800F18BF0324CFE7012433
S3150000309CCDE700BF5C3F0020402200204C220020E0
S315000030ACF83000202DE9F0410E4611461E4A1268F2
S315000030BC1268557980461A462846FFF7F7FD20B95F
S315000030CC11F0CAFB0120BDE8F081002E08BF0126D5
S315000030DCB8F1FF0F01D18020F2E7FFF76FFC00215A
S315000030EC2846FFF7E5FC2846FFF742FD0F4B104C30
S315000030FC002728469F80FFF725FD20802846FFF7EE
S3150000310C21FDFE23608031462846A381A4F8048065
S3150000311CE6802681A5736781FFF700FE05486421CA
S3150000312C18F040FD3846CBE75C3F002040220020DB
S3150000313C4C220020F83000202DE9F0411446284A94
S3150000314C1268126855799DF8182080460F46284655
S3150000315C1946FFF7ABFD28B9002011F07DFB0120C5
S3150000316CBDE8F0812846FFF775FC002C08BF01244A
S3150000317C0646FFF723FCB8F1000FEDD000212846D8
S3150000318CFFF796FC2846FFF7F3FC164AB8F1010F39
S3150000319C16705670B3B2B9B219D10B449BB2FE2B52
S315000031AC84BFFE3B9BB29370012353720E4B157278
S315000031BCA1B2284600249180D1809472DC80FFF75E
S315000031CCADFD0A48642118F0EDFC2046C5E7BE4269
S315000031DC3CBFFE339BB25B1A93700023E5E700BF3E
S315000031EC5C3F0020402200204C220020F8300020BA
S315000031FC2DE9F0411446264A1268126855799DF855
S3150000320C182080460F4628461946FFF74FFD28B969
S3150000321C002011F021FB0120BDE8F0812846FFF7C4
S3150000322C91FC002C08BF01240646FFF7C7FBB8F13A
S3150000323C000FEDD000212846FFF73AFC2846FFF791
S3150000324C97FC144B00209880134BB2B2B8F1010FC7
S3150000325C1A805A8016D13A4492B2FE2A28BFFE2210
S3150000326CA1B29A800024FE222846D98019819D732A
S3150000327C5C819A81FFF752FD0848642118F092FC94
S3150000328C2046C6E7BE4226BFF21BD2B20246E7E78D
S3150000329C5C3F0020402200204C220020F830002009
S315000032AC2DE9F8431546244A1268126854799DF89C
S315000032BC20200746894620461946FFF7F7FC20B919
S315000032CC11F0CAFA0120BDE8F883002D08BF0125CC
S315000032DCFFF774FB01212046FFF7EAFB2046FFF7B8
S315000032EC5DFC164E30802046FFF758FC4FF6FF6803
S315000032FC7080B78020460027F5803581B4737781BE
S3150000330CA6F80C80FFF762FC0D4E30802046FFF7C6
S3150000331C5DFC294670802046A6F80490F580358120
S3150000332CB4737781A6F80C80FFF7F8FC0548642186
S3150000333C18F038FC3846C3E75C3F00206C220020AE
S3150000334C7C220020E83000202DE9F8430E46114679
S3150000335C2F4A12681268557907461A462846FFF70F
S3150000336CA5FC28B9002011F077FA0120BDE8F883F6
S3150000337CFFF724FB0FB9002EF4D001212846FFF7E6
S3150000338C97FB2846FFF70AFC224C002FB9B2D7BF91
S3150000339C49424FF6FF63002389B2208060801D48A6
S315000033ACCCBFA380A380FFF740FB4FF00008074675
S315000033BCE08020814FF6FF692846A573A4F80A80A1
S315000033CCA4F80C90FFF702FC134C4645B1B2DCBFD7
S315000033DC494289B2208060800F48CCBFA4F8049083
S315000033ECA4F80480FFF721FB002387420146E08006
S315000033FC2081638138BF39464FF6FF632846A57393
S3150000340CA381FFF78BFC6421044818F0CBFBA9E7DA
S3150000341C5C3F00206C2200207C220020E83000203B
S3150000342C2DE9F0471746374A1268126854799DF809
S3150000343C202006460D4620461946FFF737FC20B9D4
S3150000344C11F00AFA0120BDE8F0872046FFF7A6FB2B
S3150000345C86194CD4B6F57F4F4BDAB6B22046FFF739
S3150000346CB5FB451948D4B5F57F4F47DAADB2002FF9
S3150000347C08BF0127FFF7A2FA01212046FFF718FB28
S3150000348C2046FFF78BFBDFF88880A8F80000204663
S3150000349CFFF784FB4FF00009A8F802004FF6FF6A0D
S315000034AC2046A8F80460A8F80670A8F8087088F8F2
S315000034BC0E40A8F80A90A8F80CA0FFF787FB124E4E
S315000034CC30802046FFF782FB394670802046B58057
S315000034DCF7803781B473A6F80A90A6F80CA0FFF70C
S315000034EC1DFC0A48642118F05DFB4846A8E7002637
S315000034FCB4E74FF6FF66B1E70025B8E74FF6FF6570
S3150000350CB5E700BF5C3F00207C220020E83000209D
S3150000351C6C22002070B50E4611460A4A12681268D3
S3150000352C547905461A462046FFF7C0FB18B911F028
S3150000353C93F9012070BD204632462946FFF774FBED
S3150000354C0020F4E75C3F00202DE9F84F1E462E4B79
S3150000355C1B681B685D798346894617469DF82810BB
S3150000356C9DF82C202846FFF7A1FB08B9002010E097
S3150000357C2846FFF731FA80462846FFF741FA82467D
S3150000358CFFF71CFABBF1000FF0D0B9F1000F05D113
S3150000359C852011F061F90120BDE8F88F474538BF49
S315000035AC4746864228BF064602212846FFF780FA80
S315000035BC2846FFF723FB154C20802846FFF71EFBF9
S315000035CCBBF1010FBFB2B6B2608016D1B24528BFAF
S315000035DCB246A4F804A049460C48FFF726FA014661
S315000035ECE08020812846A5736781A681FFF796FBAC
S315000035FC6421074818F0D6FAB8E7B84538BFB8467C
S3150000360CA4F80480E7E700BF5C3F00205C220020A2
S3150000361CF03000202DE9F0471C462C4B1B681B682C
S3150000362C5D7982460F4616469DF824109DF8282093
S3150000363C2846FFF73BFB28B9002011F00DF90120B5
S3150000364CBDE8F0872846FFF7C7F981462846FFF7FD
S3150000365CD7F9002E08BF0126FFF7B0F9BAF1000F13
S3150000366CEAD0BDF82080A14538BFA146404528BF09
S3150000367C404602211FFA80F82846FFF719FA284619
S3150000368CFFF7BCFA124C20802846FFF7B7FABAF1BE
S3150000369C010F60801FFA89F9284613D1FFF7AEFA9D
S315000036AC3844A08031462846E6802681A573A4F8C6
S315000036BC0A90A4F80C80FFF731FB6421054818F03A
S315000036CC71FAB9E7FFF79AFAC01BEAE75C3F0020EC
S315000036DC5C220020F03000207FB54FF44071044688
S315000036EC0DF0E9FD00283BD02046FFF7CBF9022868
S315000036FC36D100900DF10E0344F20D024FF44071D9
S3150000370C20460EF011FC20B12046FFF765F9ADF806
S3150000371C0E002046BDF80E60FFF772F90123054630
S3150000372C009300220DF10E03082120460EF0FCFB3F
S3150000373C10B17F238DF80E309DF80E30012B0AD96F
S3150000374CFD2B9FBFA91B5943FE23B1FBF3F19ABF77
S3150000375C691A8DB23546002229462046FFF764FACF
S3150000376C04B070BD08B5084B1B681B680A460146B9
S3150000377C5879FFF79BFA08B1FFF720F9002011F0F2
S3150000378C6BF8012008BD00BF5C3F00207FB5524C92
S3150000379CA188257A002933D100265048FFF7D4FAA0
S315000037AC16B9002800F09380FFF708F904AB62788D
S315000037BC03F8012D20220092207A00224FF440714A
S315000037CC0EF061FB20B140F21311454800F05AFC93
S315000037DC424B5A88987B04AB4FF4407103F8022D88
S315000037EC2022009201220EF04EFB20B140F21D1158
S315000037FC3B4800F047FC2846FDF772FF04B070BD4D
S3150000380C0139A37A89B2A18013B92846FFF786FA43
S3150000381CA0786378834219D02378617A9AB286B2FB
S3150000382C002930D0984234BF06F1FE0131468A1A7F
S3150000383CA188E388D2B24A43B2FBF3F2D2B29042E9
S3150000384C3CBF06F1FE039EB2B21A6270A388002B2F
S3150000385CA2D1A37A002B38D02278667A93B281B2A1
S3150000386C2EB3904234BF01F1FE020A46D31A51FA26
S3150000387C83F39BB2FE2B84BFFE3B9BB22070A370DE
S3150000388C0A23A38088E7984284BFFE3292B2931B28
S3150000389CA288DBB25343E288B3FBF2F356FA83F306
S315000038AC9BB2FE2B84BFFE3B9BB26370CEE790426D
S315000038BC84BFFE339BB25B1ADAB290423CBF01F175
S315000038CCFE0399B220708B1AD9E7012665E76421AD
S315000038DC044818F067F969E7402200204C220020C2
S315000038EC79680300F83000207FB51E4C2046A57B76
S315000038FCFFF72AFA06461C48FFF726FA06B958B30C
S3150000390CFFF75CF804AB628823F8022D21220092A3
S3150000391CA07B03224FF440710EF0B5FA20B140F2B1
S3150000392C2711124800F0AEFB0F4BA07B5A8804AB54
S3150000393C4FF4407123F8042D2122009204220EF03C
S3150000394CA2FA20B140F23111084800F09BFB284640
S3150000395CFDF7C8FE04B070BD6421054818F022F9C5
S3150000396CD0E700BF6C2200207C220020796803007F
S3150000397CE830002030B5124C85B02046A57BFFF709
S3150000398CE3F9C0B1FFF71AF804AB628823F8022DED
S3150000399C21220092A07B07224FF440710EF073FA9D
S315000039AC20B140F23B11074800F06CFB2846FDF7AE
S315000039BC98FE05B030BD6421034818F0F3F8E3E730
S315000039CC5C22002079680300F0300020F0B587B047
S315000039DC06AB4FF6FF7223F8042D02260022CDE922
S315000039EC0162009344F2100240234FF440710446E6
S315000039FC0EF08CFA002842D106AD4FF6FF6325F87F
S31500003A0C023D0722CDE90160009540234FF4407139
S31500003A1C20460EF07BFA90BB2046FEF7DDFF0746EC
S31500003A2C2046FEF7EDFFBDF81430BB4227D3834288
S31500003A3C25D8ADF816302123CDE9005307224023B3
S31500003A4C4FF4407120460EF0FEF9C0B906AD302792
S31500003A5C05F8056D402308224FF44071CDE9005757
S31500003A6C20460EF0F0F9CDE90057402344F201024E
S31500003A7C4FF4407120468DF813600EF0E4F907B050
S31500003A8CF0BD0000F7B50A4E0A4F0B4D002456F850
S31500003A9C243003B93B6835F81420009207492246B6
S31500003AAC012001340FF094FC292CF0D103B0F0BDA9
S31500003ABCC81B0020701C0020743100201169030003
S31500003ACC08B5FFF7DFFFBDE8084000F0EFB80000CF
S31500003ADC07B50020FDF740FFC2B2282A0DD8084BC7
S31500003AEC53F822300BB9074B1B68074931F81210F3
S31500003AFC0091012005490FF06BFC03B05DF804FB47
S31500003B0CC81B0020701C00207431002011690300B2
S31500003B1CFFF7B8BF7047000038B50020FDF71CFF53
S31500003B2C04460120FDF718FF0549054601200FF054
S31500003B3C4FFCA9B2E0B2BDE8384000F0CFB800BFE8
S31500003B4C1C690300F7B50A4E0A4F0B4D002456F8B4
S31500003B5C243003B93B6835F81420009207492246F5
S31500003B6C012001340FF034FC292CF0D103B0F0BD48
S31500003B7CC81B0020701C0020223100201169030094
S31500003B8C73B502AB03E906000446019D17F0EEFC83
S31500003B9C0646204617F0F8FC9DF800008EB1202C46
S31500003BAC0FD82B78012B36D803EB43133849234413
S31500003BBC4FF6FF7531F81320AA4202D0013221F8D4
S31500003BCC1320344B344A33F8145032F814604FF641
S31500003BDCFF718D421CBF691C23F8141004F0FD0103
S31500003BEC092930D1998A928A0144914235DA99820F
S31500003BFC33F81430B34204D3B54202D22046FDF753
S31500003C0C72FD264B0025EA5CA24228D00135112D07
S31500003C1CF9D102B070BD022BD3D11D4B33F8142051
S31500003C2C4FF6FF718A421CBF013223F8142004F1AF
S31500003C3C21014FF6FF7533F81120AA421CBF013241
S31500003C4C23F81120BDE71D2CD2D1598F0144508F7A
S31500003C5C814201DA5987CBE7928A9A82C8E727F024
S31500003C6C56F90F4B1B788342044603D8E0210D48C6
S31500003C7C00F008FA04EB04140B4A2C444FF6FF71BF
S31500003C8C32F814308B42C4D0013322F81430C0E71A
S31500003C9CC63100207431002022310020886C0300CC
S31500003CACA51B0020046C03000031002052220021C9
S31500003CBC0148FEF75DBA00BF743100205222FF2185
S31500003CCC0148FEF755BA00BF2231002008B5FFF7B0
S31500003CDCEDFFBDE80840FFF7F1BF0000014B23F8EC
S31500003CEC101070472231002010B5104C1049A161FC
S31500003CFC032321660F491022C4E904330E4BE361FA
S31500003D0CC4E9191200230D49A362E01D6362E36244
S31500003D1C2367E3666367226230F057FE0849204644
S31500003D2C30F053FE2023A37110BD00BF00340020D9
S31500003D3C996C03008C2200209C220020A26C0300AC
S31500003D4CA66C03002DE9F84F1F4B16461A788146D0
S31500003D5C8A4698460AB9FFF7C7FF182707FB098753
S31500003D6C3D6FD7F86CB05D452BD9BC6E796E641B74
S31500003D7CB44228BF344629445046224630F012FE3F
S31500003D8CBB6E2544A244361BAB4208BF0025ABEBE9
S31500003D9C050B5E4528BF5E4656B1182303FB098307
S31500003DAC3246596E5046294430F0FCFD34443544B5
S31500003DBC24B1182303FB0988C8F870502046BDE8C7
S31500003DCCF88F0024E3E700BF00340020F8B5044662
S31500003DDC0E46174604F063FA3A4605463146204627
S31500003DECFFF7B0FF0446284604F05FFA2046F8BDFC
S31500003DFC2DE9F843124D1E462B7881468846174608
S31500003E0C0BB9FFF771FF04F04AFA696900244FF009
S31500003E1C180C0CFB04535A6E2AB10134A142F8DC7F
S31500003E2C4FF0FF3407E0A142FADDC3E918989F660C
S31500003E3C1A67DA665E6704F038FA2046BDE8F8833E
S31500003E4C00340020FFF750BF012270B51146042044
S31500003E5C04F05EF81A4B1B4D1A681B4842F001021F
S31500003E6C1A60DA684FF0604442F08072DA60174BE1
S31500003E7CC4F8B03F00260223C4F8006EC4F8806E66
S31500003E8CC5F8F03003F050FF00F5D520104B114A61
S31500003E9C00F2FC40B0FBF3F00F4B01382861C4F87C
S31500003EAC406E1A600D4BC4F8803E4FF48073C5F813
S31500003EBC0433D4F8003E43F48073C4F8003E70BD5E
S31500003ECCF0ED00E0000004E006000E0055CEACC597
S31500003EDCF8590D00FF030040001000E00D00010032
S31500003EEC10B50121104803F03FFE104B01241C6055
S31500003EFC002004F037FE234604220221052004F09C
S31500003F0C89FE204613F0E0FAFFF79EFF13F0E0FA65
S31500003F1CFFF798FF2346402205490648FFF768FF3E
S31500003F2C054B1860C00F10BD00350A0010881442EE
S31500003F3CAC220020AD6C0300741C0020024B1868E8
S31500003F4C003018BF01207047F0ED00E0054A4170C3
S31500003F5CD12303701378C370090A8170591C117030
S31500003F6C04207047EC2200202DE9F74F354E3368BC
S31500003F7C1C5C032C074663D924F0C5FBDFF8C8800C
S31500003F8C01900534E4B24FF6FF7A0025C146D8F805
S31500003F9C00204AB1AC4207D924F0B5FB019BC01AEC
S31500003FAC80B2B0F5FA7F05D9601B18BF012003B0AB
S31500003FBCBDE8F08F002D3DD0012D1DD13268D55DA9
S31500003FCC4FF0020B4FF06042D2F8801ECB0711D592
S31500003FDC1146D9F80C0040F08070C9F80C00D1F8E5
S31500003FEC000E40F48070C1F8000E086A0028F0D06C
S31500003FFC82F820505D46CAE7E21E05F1010B954298
S3150000400C5FFA8BFB02D15FFA8AF5DBE7A21E9542BB
S3150000401C02D1CAF30725D5E7621E95420ED0A91E1A
S3150000402CC9B2384618F0AEF951460546FDF774FF8D
S3150000403C8246C7E75B254FF0010BC3E75D25C1E759
S3150000404C0120B4E7641B0020F0ED00E010B50B4B2B
S3150000405C90B0402269461868FFF7B8FE58B1C1B255
S3150000406C684618F019F904460146122026F01CFE83
S3150000407C204617F0B5FF10B010BD00BF741C002011
S3150000408C42DE704738B504460D4613F069FD00F064
S3150000409CCBFD04F0FCF82946204626F0D1FD2B4634
S315000040AC2246054901200AF0BFFF29462046BDE8F5
S315000040BC3840FFF7E5BF00BFBD6C03006D4B2DE923
S315000040CCF0416D4C5A68A2655A6AE2656B4AD2F8A1
S315000040DC00122166D2F8042262669A6AA266DA6A2D
S315000040ECE2661A6B22675A6B6267DB6BA26BA3677D
S315000040FCD4E90F5312F0040F18BF1D4624F0F0FA42
S3150000410C002285420346606522655CD35C4A954273
S3150000411C59D8AA696264E969A164B4F85810C1F364
S3150000412C0801062953D157498A4250D356498A4227
S3150000413C4DD211884DF64262914248D16268C4F85C
S3150000414C9420A268C4F8982040F201704F4A504956
S3150000415C934238BF13460A468B423BD3D31AE364C9
S3150000416C0023C4E91F33C4E92133C4E92333484E81
S3150000417C444FDFF814C1AE4232D8D4E91FC7D4E994
S3150000418C2165D4E923124FF0000E013BDBB2FF2B65
S3150000419C41D1BEF1000F05D0C4E91FC7C4E92165A2
S315000041ACC4E92312B4F85830C3F30803DA1E0F2AF5
S315000041BC55D8DFE802F03A5B474A545454545451EC
S315000041CC54545454543E0022C4E911221D464FF453
S315000041DC2060BBE71E68B6F1CD3FBFD10433BBE709
S315000041EC56F8042DBA42C6D36245C4D2D107C2D5FD
S315000041FC002104EB010EDEF87CE09645BBD00431C1
S3150000420C1829F6D10BB9052301E0013BDBB204EB0F
S3150000421C8301CA67AFE7E0464FF0010EBC4637464E
S3150000422C2E460D4611464246AFE740F60120BDE844
S3150000423CF081184BDB6913F0020F40F2025318BFE2
S3150000424C1846F4E740F60320F1E740F60423B0F5F0
S3150000425C206F08BF1846EAE740F60520E7E7013B62
S3150000426C40F60722412B98BF1046E0E740F60220A5
S3150000427CDDE700BF00ED00E00000002000E100E0FB
S3150000428CC01A002024030000EC4903009C00002007
S3150000429CE01A002000200540062804D007280CBF91
S315000042AC0120022070470020704700002DE9F043E2
S315000042BC85B04FF48073ADF80C3001F0CBFB0121C7
S315000042CC1548DFF85C80DFF85C9003F04DFC0121AB
S315000042DC124803F049FC0024012703AB0122E35CDE
S315000042EC18F8336008EBC30330465D680023294693
S315000042FC04F090FC4946E8B201F0BAFBCDE9007730
S3150000430C01232A462946304604F038FC14B105B080
S3150000431CBDE8F0830124E0E74041050000350A00C2
S3150000432CD06C0300B943000008B5FFF7B5FF0228AF
S3150000433C16BF024B0020185C08BD00BFED22002002
S3150000434C08B5FFF7A9FF02281CBF014B195408BD7D
S3150000435CED22002008B5FFF79FFF022805D0034A7F
S3150000436C135CB3FA83F35B09135408BDED220020EA
S3150000437C08B5FFF791FF022811D00A4A12F830103F
S3150000438C30234B4302EBC00207491944536803EB35
S3150000439CC1039B001868B0FA80F0400908BD0020E4
S315000043ACFCE700BFD06C03001CA0104270B504469D
S315000043BCFFF7DEFF0026054601E000261D462046D7
S315000043CCFFF7D6FFA8420346F7D10136052EF2D1E8
S315000043DC2046FFF7A9FFA8420BD029462046FFF737
S315000043ECAFFF2046FFF7A0FF014620460CF082F9EE
S315000043FC70BD2046FFF7AEFF2046FFF795FF01463E
S3150000440C20460CF077F92046FFF7A4FFE9E70000F9
S3150000441C10B504F077FD044604F06EFD0022012170
S3150000442C01FA02F3234014D01B4B33F812301B4A0B
S3150000443C062B13D040F207218B420DD1184919488F
S3150000444C0C68844208D14CF23C334B800B881380A9
S3150000445C12E00132112AE3D1104AF8E7104B5888C2
S3150000446C4FF20F01884214D11988B1F5406F10D262
S3150000447C11804CF23C325A80084B1A8840F2017378
S3150000448C9A4201BF084A094BD2E90001C3E900016F
S3150000449C10BD4FF4C061EBE7E06C0300F82200207E
S315000044AC0000002007020FF094000020F0220020EC
S315000044BC014B1888000A7047F8220020014B188817
S315000044CC704700BFF82200202DE9F04F4D4CA36B2E
S315000044DCD4F850B0D4F840A05A074FBF0027D4F8F0
S315000044EC4CB0D4F85480D4F83CA05ABF464FDFF8F1
S315000044FC4091DFF84091454A48BFB84613F0080F83
S3150000450C434B18BF1A46B7EB08061CBF7308642149
S3150000451C87B01FBF01FB0B33B3FBF6F39BB20593BE
S3150000452C3C49CDF800804B46CDE9017A08BF05968B
S3150000453C054600F0E3FFB3B2CDE900931FFA8BF208
S3150000454C059B3549284600F0D9FFA36B5B070AD4B7
S3150000455C9C3E5E4507D1626D304B9A4203D2304980
S3150000456C284600F0CBFFBA4501D8C24504D24A46CC
S3150000457C2C49284600F0C2FF28460AF04FFD236E50
S3150000458C0BB9636EBBB32849DFF8AC80DFF8AC908F
S3150000459C284600F09EFF00260127226E07FA06F336
S315000045AC134207D058F8262013781BB149462846E3
S315000045BC00F08FFF0136202EEFD1DFF87C80DFF87C
S315000045CC7C9000260127626E07FA06F3134209D087
S315000045DC08EB8603D3F8802013781BB1494628468E
S315000045EC00F077FF0136122EEDD1284607B0BDE854
S315000045FCF04F00F07DBF0D49284607B0BDE8F04FDF
S3150000460C00F07CBF00000020E01A0020F26F0300CF
S3150000461CEB6F0300FA6F0300287003009C00002068
S3150000462C617003008D700300AB700300DA70030039
S3150000463CE66F0300F28A0300F0700300E0A00300AB
S3150000464C2DE9F8430446FFF739FF40F6012398425B
S3150000465C39D010D840F2025398421DD040F2017363
S3150000466C984224D040F20153984213D16549204612
S3150000467C00F044FF22E040F6032398426CD03DD371
S3150000468C40F60423984200F09C8040F6052398429D
S3150000469C00F0B580BDE8F8835B49204600F02EFF9C
S315000046AC5A4B5B495A6C204600F028FF06E0574AE5
S315000046BC5849D2E92523204600F020FF2046BDE8C4
S315000046CCF8430AF0ABBC514D5349204600F016FF97
S315000046DC95F86C309F0703D55049204600F00EFF25
S315000046EC95F86F305E0603D54D49204600F006FF5F
S315000046FC95F96F30002BE1DA4A49B8E7434D4A4940
S3150000470C204600F0FBFE95F86830980704D06A6CDA
S3150000471C3F49204600F0F2FE95F96830002B04DA8A
S3150000472C6A6F4249204600F0E9FEDFF80C81DFF89B
S3150000473C189100260127AA6E07FA06F3134207D032
S3150000474C58F8262013781BB14946204600F0D6FEB1
S3150000475C0136082EEFD1B1E72C4D3549204600F035
S3150000476CCDFE2B496A6C204600F0C8FE95F86930E0
S3150000477C590703D52F49204600F0C0FE95F969303C
S3150000478C002B04DA6A6F2949204600F0B7FE2A4F3F
S3150000479CDFF8B4800826AB6EF340DA0707D557F876
S315000047AC262013781BB14146204600F0A7FE0136A1
S315000047BC102EF0D195F86830002B7FF47FAF1F498F
S315000047CC55E7124D1E491C4FDFF87C80204600F041
S315000047DC95FE6A6C0E49204600F090FE1026AB6ED4
S315000047ECF340DB0707D557F8262013781BB1414653
S315000047FC204600F083FE01361A2EF0D15EE71149F1
S3150000480C4BE700BF756D0300B26D0300000000207E
S3150000481CE26D0300FB6D0300156E03002D6E0300A5
S3150000482C676E03009A6E0300D66E0300FB6E0300E0
S3150000483C1F6F0300366F0300046D03007C6F0300CB
S3150000484CAC6F0300C56F0300176F03002DE9F84F1B
S3150000485C164C174FDFF86080DFF860A0064600257F
S3150000486C23785FFA85FB0BB9BDE8F88F57F8043B44
S3150000487C10492246304600F02CFE227804F101093C
S3150000488C82B9627882B10BF0030103290CBF414651
S3150000489C5146304600F01DFE30460AF0BFFB01358E
S315000048AC4C46DDE74C46E8E74146F2E7B8710300B3
S315000048BC040000206C6D0300F74C030018900300F5
S315000048CC00F00CB800F00AB800F008B800F006B812
S315000048DC00F004B800F002B800F000B872B61EF092
S315000048EC080F09D01EF0040F0DD0DFF850E0AEE82B
S315000048FCFF1F6FF002000CE0DFF840E0AEE8FF1F90
S3150000490C6FF00E0005E0DFF834E0AEE8FF1F6FF045
S3150000491C06006946EFF309828EE8070086460848CA
S3150000492C084C854501D3A54501D384F30888FFF7C8
S3150000493CC5FB84F3088823F0AFFE000004000020BA
S3150000494CC0110020E01A0020FFF7C6BF10B50121E8
S3150000495C0A4803F009F90121094803F005F9042274
S3150000496C11460023052004F055F9052100230422E5
S3150000497C0846BDE8104004F04DB900BF40410500A3
S3150000498C00350A00064B03EBC00213F830305168B1
S3150000499C01228A4030215943024B5A50704700BFBE
S315000049AC487803000CA00046064B03EBC00213F834
S315000049BC3030516801228A4030215943024B5A50FB
S315000049CC704700BF487803000CA00044074A12F851
S315000049DC301002EBC002536801229A4030234B433D
S315000049EC03F1804303F520439A617047487803002E
S315000049FC7047000037B57F2A14BF154600254BF2C9
S31500004A0C34629142044619D17F2241F20201684672
S31500004A1C0823FFF7EFFF082224496846FDF7AFFB92
S31500004A2C30B908237F2241F2F0116846FFF7E2FF06
S31500004A3C082269462046FDF73FFB09E041F2F012D9
S31500004A4C91421AD11A490A6C496C01381D1F0BB9CF
S31500004A5C03B030BD013B9D4200F8012F4FEA1222F4
S31500004A6CF5D1033400229A42F2D00132042A04F81A
S31500004A7C011F4FEA1121F6D1EAE701F47042B2F5B3
S31500004A8C805F07D1C1F30B0404F17E649AB203FB79
S31500004A9C0541D0E701F46042B2F5005FD8D1C1F30D
S31500004AAC0B0404F17E6404F58044EFE7E27803001E
S31500004ABCB081E00F70B5054616461C46DBB14BF2CD
S31500004ACC3463994210D1082C28BF08247F2241F266
S31500004ADC02012346FFF78EFFA2B207492846FDF7CF
S31500004AEC4EFB40B941F2F011234632462846BDE84A
S31500004AFC7040FFF77FBF70BDE27803002DE9F843E5
S31500004B0C1646C20704460F4603D594212748FFF7DD
S31500004B1CB9FAF30703D595212448FFF7B3FA04F441
S31500004B2C7043B3F5805F20D1C4F30B0404F17E64AB
S31500004B3C731E1F4A23449342254603D99A211B48C8
S31500004B4CFFF7A0FADFF8649005EB0608454521D17E
S31500004B5C72083946204623F02BFD20B34FF488719A
S31500004B6C1248BDE8F843FFF78DBA04F46043B3F579
S31500004B7C005F07D1C4F30B0404F17E6404F5804492
S31500004B8C2546DFE7A1210948FFF77CFA6FF00F05F0
S31500004B9C0024D7E715F8013BFF2BD7D0AB214846AD
S31500004BACFFF770FAD2E7BDE8F88300BF6878030018
S31500004BBCFF07E00FFFF784BE1FB501211648174CFF
S31500004BCC02F0D2FF01221146104603F0A1F904218E
S31500004BDC072004F081F9124A1068516801AB03C32F
S31500004BEC9068186001238DF804300D238DF80C3075
S31500004BFC01A9032320468DF80D3004F070FB094BF8
S31500004C0C04220221C3F8802161621A60A36A0B4355
S31500004C1CA36204B010BD00BF00250A0000200540A9
S31500004C2CEA78030000E100E0014804F04CBB00BF49
S31500004C3C00200540A52803D10021024804F02FBB13
S31500004C4C704700BF00200540024B186800F00100B9
S31500004C5C704700BF00200540024A9368002BFCD128
S31500004C6C704700BF002005400020704700207047A9
S31500004C7C7047000013B572B603F009FB764B774903
S31500004C8C5B698B6000230B76E0204B768B7640239A
S31500004C9CC876087748778877CB77714B8022602463
S31500004CAC81F8202081F8210081F8220081F8232048
S31500004CBC83F8002383F80143202483F8024383F806
S31500004CCC034383F8042383F8052383F8062383F828
S31500004CDC072383F8082383F8092383F80A2383F828
S31500004CEC0B2383F80C2383F80D2383F80E2383F808
S31500004CFC0F2383F8102383F8112383F8122383F8E8
S31500004D0C132383F8142383F8152383F8162383F8C7
S31500004D1C172383F8182383F8192383F81A2383F8A7
S31500004D2C1B2383F81C2383F81D2383F81E2383F887
S31500004D3C1F2383F8202383F8212383F8224383F847
S31500004D4C232383F8242383F8252383F8262383F847
S31500004D5C272383F8282383F8292383F82A2383F827
S31500004D6C2B2383F82C2383F82D2383F82E2383F807
S31500004D7C2F2383F8302383F8312383F83203CB684F
S31500004D8C23F4E0631B041B0C43F0BF6343F40133B1
S31500004D9CCB604B6943F400734B614B6943F01003D2
S31500004DAC4B614FF4E0234B6200F012F9FFF730FB36
S31500004DBCEFF308832B4A043B4FF0CD3193421DD2BF
S31500004DCC294A2A4892B20021FDF7D2F962B6284B3D
S31500004DDC01225A64274BDB6C1B0E12D1264927483D
S31500004DEC4AF6E8520A60026842F0040202600B605E
S31500004DFC234A136843F40053136004E01960043B20
S31500004E0CDCE7012BF4D01F4A136A23F4441343F452
S31500004E1C88131362A2F580420124136843F480734D
S31500004E2C1360194B1C6105F0CDFF00F033FF01F048
S31500004E3C9BF9002368460093ADF804308DF80340C7
S31500004E4C03F06EFC00F082F923F06AFC0F482AF09E
S31500004E5C41F902B010BD00BF0000000000ED00E0FB
S31500004E6C00E100E080110020AC100000A000002042
S31500004E7C00000E40B081E00F90310E4098310E408C
S31500004E8C64310E4000400E4000300E4050B103001D
S31500004E9C40F2016023F000BCFDF78EBD08B5002181
S31500004EAC0B20FDF787FDBDE80840FDF786BD032006
S31500004EBC00F0C8B908B5FFF7FBFA044B0B289ABFEC
S31500004ECC00B203EB8000184608BD00BF447A03000D
S31500004EDC08B5FFF7F3FA044BC0F30F22C0B253F830
S31500004EEC223003EB800008BD087A030010B5FFF7EB
S31500004EFCDFFA0446FFF7E2FAC0B228B9012C24D136
S31500004F0C64F07F04E4B216E0072CF9D801A353F839
S31500004F1C24F000BF434F00000D4F0000414F00002E
S31500004F2C474F0000474F00004B4F00004F4F00000B
S31500004F3C534F00000924204610BD0224FBE703242E
S31500004F4CF9E70B24F7E70624F5E70446F3E700BF79
S31500004F5CBFF34F8FBFF36F8F054A536A23F4803329
S31500004F6C5362D2F8943023F00103C2F894307047A0
S31500004F7C00ED00E0054B01229A60022100221A6125
S31500004F8C996004211A6199601A61704790ED00E0EE
S31500004F9C084B094930B5094C094D1A465819205881
S31500004FAC43F8040B8B42F9D1064B1360064B074AA8
S31500004FBC1A6030BD9CED00E0BCED00E0747A030095
S31500004FCC6412FF1F14000020A0ED00E00900080089
S31500004FDC10B503F064F90446FFF7BAFFFFF7D8FFE4
S31500004FECFFF7C8FFBFF34F8FBFF36F8F064B05223A
S31500004FFC5A60064A536A43F4803320465362BDE82E
S3150000500C104003F052B900BF90ED00E000ED00E057
S3150000501C07282DE9F84F04460F462DD0082808BF5F
S3150000502C022421460120FCF7B8FBFFF70DFE651E96
S3150000503CD5F1000848EB050800B3012C1ED1A520BC
S3150000504CFFF7F8FD2646EFF31089012383F310884A
S3150000505CEFF3118A4FF0000B8BF31188354D404658
S3150000506C0AF074FA631EC5F800B0042B59D8DFE8B1
S3150000507C03F00E4D4D5155000324D2E7FFF7E4FD26
S3150000508C18B1FFF7E9FD0026DDE70646DBE72A4AFD
S3150000509C136923F00403136130BF284AD2F828346D
S315000050ACD2F81C2413409BB2254A2B60D2F800116F
S315000050BC480502D51168490506D4D2F800114803F3
S315000050CC05D51268510302D543F480332B601C4B73
S315000050DCD3F80021520006D51B685B0042BF2B6833
S315000050EC43F400332B601EB10121164804F0D7F8A7
S315000050FC40460AF041FACFB18AF3118889F3108839
S3150000510C21460020BDE8F84FFCF747BB012003F011
S3150000511C57FAC2E7012003F071FABEE703F09EFAD4
S3150000512CBBE784210848FEF7ADFFB6E787F3108886
S3150000513CE6E700BF0023002000ED00E000A00040E1
S3150000514C00E100E0002005409C7A0300044AD2F8F6
S3150000515C1C341B0C1B04C2F82434024A136070471F
S3150000516C00A00040FC2200200021FFF751BFFFF7F2
S3150000517CFBBF000037B5114C0123002023700AF049
S3150000518CB3FB254640B100200AF0AEFB20B100234C
S3150000519C2370492003B030BD2B7833B102237F2214
S315000051AC00210DF1060023F099FFBDF80630002012
S315000051BCB3F57F7F1CBF28700720EBE70523002083
S315000051CCFF2910B40C4607D80749097841B1E1B25A
S315000051DC5DF8044B23F082BF5DF8044BFFF76ABC05
S315000051EC5DF8044B704700BF05230020FF282DE90E
S315000051FCF0410746884615461E4616D80E4B1B78B8
S3150000520C8BB10E4C237823B14FF4EF710C48FEF79B
S3150000521C39FF01232370424633462946F8B223F060
S3150000522C9FFF00232370BDE8F08129461A46BDE88E
S3150000523CF041FFF763BC00BF0523002004230020C8
S3150000524C187B0300024B1B780BB124F077B8704720
S3150000525C0523002070B5164685180AB9304470BD72
S3150000526C01F00F030A2B34BF302437242344013AB0
S3150000527C090905F8013DD2B2EFE70000F0B5F9B126
S3150000528C00281CDA2D23B0F1004F137000D04042D9
S3150000529C012115E0801B8642ECB205F10105F9D916
S315000052AC04B927B14D1C303454540127E9B20133EB
S315000052BC092B09D1303050540131C8B2F0BD002150
S315000052CC0023DFF80CC01F465CF823600025E2E7DC
S315000052DC907B03002DE9F04F95B04FF0000B02AC1C
S315000052EC81468A4617461D465E46A0463B7863B9FC
S315000052FC02ABE41AE4B2224619465046C8470028C7
S3150000530C40F093803444E0B290E0252B13D0BBF1EF
S3150000531C000F14D12370013412AB9C426DD3A4EB55
S3150000532C0804E4B2224641465046C84700287CD1C0
S3150000533C2644F6B260E0BBF1000F00D101373B7892
S3150000534C632B00F092801BD8392B09D8302B80F0B8
S3150000535C9E80002BCCD0252B51D04FF0000BDBE7D9
S3150000536C582B00F08B80622BF7D12B6801936B685E
S3150000537C00934FF0000B009B9B4543D10835ECE79F
S3150000538C702B1ED017D8642B01D06C2BE5D16C2B4F
S3150000539C05F1040B28686CD17B78752B14BF0121A1
S315000053AC002101D0642B00D101372246FFF766FF9E
S315000053BC04445D46D1E7752BE9D0782B5ED0732B70
S315000053CCCBD1A4EB0804E4B2224602A9504605F15F
S315000053DC040B2D68C84740BB2644F6B2C4B2013054
S315000053EC2B5D002BFAD1224629465046C847E0B918
S315000053FC26445D46F6B283464446013776E723706B
S3150000540C0134AAE7019B204613F80B100222FFF782
S3150000541C21FF12AB984204460ED3A0EB0804E4B26B
S3150000542C224641465046C84718B1002015B0BDE883
S3150000543CF08F2644F6B24446009B013B5B4582BF87
S3150000544C20232370013412AB9C420BD3A4EB08042B
S3150000545CE4B2224641465046C8470028E5D12644C8
S3150000546CF6B244460BF1010B85E72B682370043525
S3150000547CC6E7752B0CBF0021012196E720460222B8
S3150000548C2978FFF7E7FE05F1040B044691E77A78D5
S3150000549C02F0DF02582A19D1322B07F1010B09D180
S315000054AC29882F1D04222046FFF7D4FE3D460446CC
S315000054BC5F4652E7342B09D12F1D2D680422290C87
S315000054CC2046FFF7C7FE0422A9B2EDE74FF0010B09
S315000054DC22E70EB403B503AA52F8041B01920AF094
S315000054ECE3F8C0B202B05DF804EB03B070470000FD
S315000054FC0149FFF7EEBF00BFF74C03000EB433B5FE
S3150000550C05AA054652F8041B01920AF0CDF804468A
S3150000551C2846FFF7EDFFE0B202B0BDE8304003B01D
S3150000552C704708B50AF0C0F8C0B208BD2DE9F04FB7
S3150000553C9B46584B85B01B78109F9DF844A0DDF810
S3150000554C5080064689461546002B00F09280072AA5
S3150000555C00F291800E9B002B00F08D800F9B002B90
S3150000556C00F08980129BB3F5006F00F3848001284C
S3150000557C01D1002F7FD0484B03EB05131B7B002B6F
S3150000558C7BD0464C1022002168462FF016FA04EB0D
S3150000559C45141022B9F1000F5CD1494620462FF074
S315000055AC0CFAA37843F01003A370E37843F03003AE
S315000055BCE370BAF1000F03D1DBB243F00303E370DF
S315000055CC3649129BCDF800B06A01013B885A01EBB3
S315000055DC020C63F30E1088520E9BCCF808300F9B0E
S315000055ECCCF804309DF84C109CF80330012E61F376
S315000055FC83038CF8033042D11323CCF80C309CE88F
S3150000560C0F000CF1100E8EE80F00DCF81C20CCF805
S3150000561C14706FF0030161F39F02B9F1010FCCF81E
S3150000562C1C2004D10F9BCCF81830CCF804701A4906
S3150000563C2A018B1841F802800027159A5A602846D1
S3150000564C9F605E732246694603F072FB384605B0CE
