S01000006E63705F656D7074792E73333715
S21400600000080020F1690000ED690000ED6900005D
S214006010D5980000ED690000ED690000ED6900000C
S214006020ED690000ED690000ED690000ED69000013
S214006030ED690000C0F20200ED690000ED690000A5
S214006040ED690000ED690000ED690000ED690000F3
S214006050ED690000ED690000ED690000ED690000E3
S214006060ED690000ED690000ED690000ED690000D3
S21400607035A50000ED690000ED690000BD66000072
S214006080ED690000ED690000ED690000ED690000B3
S214006090ED6900004D6F0000ED690000ED6900003D
S2140060A0ED6900004D70000025700000ED690000ED
S2140060B0ED69000099E00200ED69000099EB02002E
S2140060C049EB020045EB020065E2020095EB020098
S2140060D04DEB02006DEB020051EB0200F5EB020007
S2140060E0A5C7020051C90200DDEB0200ED69000001
S2140060F0ED690000ED690000ED690000ED69000043
S214006100ED690000ED690000ED690000ED69000032
S214006110ED690000ED690000ED690000ED69000022
S214006120ED690000ED690000ED690000ED69000012
S214006130ED690000ED690000ED690000ED69000002
S21400614010B5054C237833B9044B13B1044800E06E
S21400615000BF0123237010BD700D0020000000005A
S2140061604840030008B5034B1BB10349034800E051
S21400617000BF08BD00000000740D0020484003006A
S214006180154B002B08BF134B9D46A3F5803A002104
S2140061908B460F461348144A121A28F09AFF0F4BE4
S2140061A0002B00D098470E4B002B00D098470020BD
S2140061B0002104000D000D48002802D00C4800E025
S2140061C000BF28F01FFF2000290000F033F828F059
S2140061D005FF00BF000008000008002000000000C7
S2140061E000000000700D00201036002000000000A7
S2140061F0000000007047704738B543780446012B0E
S21400620005D0022B0AD000220120114602E0421CD3
S21400621001780020BDE8384000F088B9451C0178B8
S2140062202A46002000F082F929462078BDE838404A
S21400623000F07FB908B504F09AF9FFF7DBFF04F029
S214006240A3F9FFF7D8FF03F07DFCF8E708B50B4885
S2140062500AF05CFC1EF0EAF91EF088F91EF0AAF9B6
S2140062601EF0CCF91EF08EF91EF0B0F91EF0BAF949
S2140062701EF094F9BDE808401EF0CCB9BCF402004C
S21400628000B54FF48270C3B000F07CF930B101A8BD
S2140062901EF0D8F910B901A800F04EF943B05DF829
S2140062A004FB08B5012000F0E1FA202000F0DEFA39
S2140062B0BDE80840402000F0D9BA08B50321802088
S2140062C002F012FA08214FF4C06002F00DFA08211D
S2140062D04FF4F06002F008FA08213E2002F004FABB
S2140062E008212D2002F000FA002008BD164B10B53C
S2140062F01B68C3F30743012B10D1144B4FF48022C5
S214006300596E41F2640049034FF0040458BF42F24C
S21400631064011A500E48046058BF5A5000F0CFFA75
S21400632003F0F4F903F014FA03F040FA03F044FA29
S214006330FFF7C3FF03F0FAF900F0B6FA00F09AFE92
S214006340BDE8104003F01EBB0080E00F0080004058
S2140063502020014000F04EB808B503F069FE08F0B2
S2140063609AFBBDE8084003F053BA08B503F0C8F935
S214006370BDE80840FFF76ABF00F07EB87047704778
S214006380FFF77EBF00F088B80120704701207047F5
S21400639010B50AF08BFB0446FFF7F6FF002814BF83
S2140063A02046002010BD38B504F00CF804460AF06C
S2140063B08BFB042817D002284FF0000508BF0124E5
S2140063C001F0AEFC042810D0022808BF0124FFF715
S2140063D0DDFF04280BD0022808BF0124002D18BFBB
S2140063E00024204638BD0125EAE70125EFE7002412
S2140063F0F7E7000008B5064B0649186801F05CFB95
S214006400054B06491868BDE8084001F055BB00BFBB
S21400641010080020140900205C090020380900201C
S21400642038B502F0A8FA084C05462046002130F898
S214006430022B28F04EFE00232846238084F80232E2
S214006440BDE8384002F09BBAAA0D002038B502F02D
S21400645092FA084C05464FF48062A01C002128F0F2
S21400646038FE00232846238084F80234BDE83840EE
S21400647002F085BAAE0F002008B5FFF7D1FFFFF790
S214006480E5FF00F0C1F800F0E9F80022014B1A70B1
S21400649008BD00BFA90D0020204910B591F80232B2
S2140064A01BB31F4C227802BBD1F8020081F80222EF
S2140064B020F47F431B4A23F00703934228D1881D0C
S2140064C0FFF79AFEFFF7ACFF012323701DF0F0FCE8
S2140064D004681DF0EDFC230203F4E063C4F3072414
S2140064E023430146181D00F0A3F80F4991F8023423
S2140064F093B10B4B1A787AB981F80224012231F84D
S214006500020B1A7000F094F8BDE81040FFF79EBF2B
S21400651006311DF018FDD5E710BD00BFAA0D0020FE
S214006520A90D00202000FF00AE0F002080B21DF055
S2140065304ABC1DF053BC0000F8B5036806461C02B2
S21400654004F4E064C3F307231C4302F014FA0C4D72
S214006550074628880434C0F580639C420BD8023076
S21400656022463146284428F090FD2B881C440123FF
S2140065702C8085F802343846BDE8F84002F0FFB9B2
S214006580AE0F0020044B1B88C3F58063834234BFE4
S21400659000200120704700BFAE0F00200022014BF4
S2140065A01A707047A90D0020F8B5174600B1FEE72F
S2140065B08CB202F0E0F9134D064628882246C0F554
S2140065C000739C4218D802303946284428F05DFDF6
S2140065D02B8823449BB2032B2B800DD9D5F80210B1
S2140065E00A0202F4E062C1F307210A4304329A4227
S2140065F09CBF012385F802323046BDE8F84002F021
S214006600BEB900BFAA0D002008B54FF400720021E5
S214006610054828F05EFDBDE808404FF48062002182
S214006620024828F056BD00BFB2130020B215002065
S21400663010B504460246064828F027FD0548064BD6
S21400664022460349006801F03DFB00B1FEE710BD9D
S214006650B21500205C0900200D68000008B510493E
S2140066600F2002F0DDF94FF400420E4B0E49C3F83E
S21400667080211A600D4B0E4A186803685A6642F26B
S21400668048029950DA6C0B4942F42042DA640A4B0D
S2140066904FF4007201F068F900B1FEE708BD00BFD4
S2140066A0BD66000000E100E0FFFF01005C0900207D
S2140066B0FF002400B2130020496800002DE9F843CB
S2140066C0504C23681B689B6C1B0440F1988002F0BA
S2140066D052F924684FF40041236806465A6E22F4A5
S2140066E0E0225A665A6E42F480225A6642F2480205
S2140066F0995002F040F9A36A07469B889BB243B9BB
S21400670002F03DF9FFF7AAFF3046BDE8F84302F075
S21400671036B9E06800F0B0FB0023A56A84F8303094
S21400672002F029F9AB889BB2002BE9D04FF0140990
S214006730B5F8028002F023F91FFA88F809FB08F87A
S21400674008F110012944E06800F0DEFB2E4B4544BA
S214006750AB61A56AAB889BB2B3B994F83530032B0E
S21400676010D094F83630002B3ED142F21C62042141
S21400677023795B0103F1804303F5703399500222BD
S21400678023685A613846BBE702F0F5F8B5F804808E
S2140067901FFA88F8B8F1000F04D102F0F0F8D8F824
S2140067A00C30FFDEB5F802806B88E9885A1C92FB35
S2140067B0F1F301FB13239BB26B80AB881FFA88F8BA
S2140067C0013B9BB2AB8009FB085502F0D8F8D5F820
S2140067D01480B8F1000FBCD0EA682B690021D31AE8
S2140067E02046AA68C047B4E7022BCBD12068016CCC
S2140067F011F0020118BF062102F0A0FAC2E7BDE8B8
S214006800F88300BF5C090020097000F070B50646EA
S2140068100D4640F23554304600F094FF830603D40C
S214006820013CA4B2002CF6D1281C18BF0120FFF7AB
S214006830B5FEBDE870404FF480620021014828F0A4
S21400684048BC00BFB215002008B5081C18BF0120C0
S2140068501946FFF7A9FEBDE808404FF40072002174
S214006860014828F036BC00BFB2130020082808B53F
S2140068700DD004DC0138012809D90E2013E02028A9
S2140068800AD04028F9D100230422194602E0042247
S21400689000231146184603E0042200231146012077
S2140068A002F00CFB002008BD08B501213A2001F0DB
S2140068B08DFBFFF7F6FCBDE8084000F005B80121A7
S2140068C03A2001F083BB00002DE9F04786B06C4605
S2140068D0424DDFF814810FCD0FC495E80300012563
S2140068E084E8030001213A2001F070FB01212820F2
S2140068F001F06CFB3A4B6946404602938DF80E5009
S21400690002F0CAFD2B4604220021022002F0D6FA2D
S2140069102A4629460023022002F0D0FA02212B46FE
S2140069200846042202F0CAFA042203212B4602205B
S21400693002F0C4FA4FF002132A4C0226C4F830368E
S214006940A3F58033C4F82C361C23082742F2700ABD
S21400695041F27009C4F834664FF44870C4F81C3627
S21400696003F01EFE44F80A70142003F019FE44F8E3
S2140069700970232003F014FE44F80A70B92140463B
S21400698002F0E4FD002330461A46194644F8097022
S21400699002F094FA002329461A46304602F08EFA90
S2140069A02B4631463046002202F088FA2B4600225B
S2140069B00321304602F082FA404602F0C3FC002172
S2140069C02820C4F83016C4F82C16C4F83416C4F8B8
S2140069D01C1601F0FBFA06B0BDE8F087ECF40200E6
S2140069E000127A0000C0034000C00540FEE7000029
S2140069F008B500F013F8064A064B07498B4201D348
S214006A00FFF7BEFB52F8040F43F8040BF6E700BF8F
S214006A104C40030000080020700D0020044B054A7F
S214006A209A60D3F8882042F47002C3F88820704732
S214006A3000ED00E000600000084B1B6F03F007034A
S214006A40022B04D0032B05D0012B05D0FEE7044B08
S214006A5018687047034BFBE7034870470080004008
S214006A60640A0020680A0020002D310108B5FFF7EF
S214006A70E3FF054B1B6FC3F303330133B0FBF3F0A7
S214006A80024B186008BD00BF00800040600A00206E
S214006A900048704700B4C404014B1868704700BF34
S214006AA0680A0020054B1860054B1B6F03F00703B0
S214006AB0032B01D1FFF7DABF704700BF680A00203A
S214006AC000800040014B1868704700BF640A002031
S214006AD00020704700487047002D31014FF40040F9
S214006AE070474FF47A707047014B1868704700BFC4
S214006AF06C0A002028231B68B3F5C04F03D2196820
S214006B00064A914203D00023037083607047012237
S214006B1002709A689B694260F7E700BF07B0CD5ED7
S214006B2000230360704703680B6001607047000035
S214006B30054A06491368184488428CBF4FF0FF3355
S214006B4010601846704700BF700A002000800020C2
S214006B502DE9F04F9B46584B85B01B780646894674
S214006B601546109F9DF844A0DDF85080002B00F0DD
S214006B709280072A00F291800E9B002B00F08D80F9
S214006B800F9B002B00F08980129BB3F5006F00F37B
S214006B908480012801D1002F7FD0484B03EB0513DA
S214006BA01B7B002B7BD0464C10220021684628F029
S214006BB090FA04EB45141022B9F1000F5CD1494657
S214006BC0204628F086FAA37843F01003A370E378F3
S214006BD043F03003E370BAF1000F03D1DBB243F0A9
S214006BE00303E37036496A01129B885A013B63F33C
S214006BF00E100E9B01EB020C8852CCF808300F9B4F
S214006C009DF84C10CCF804309CF80330012E61F34C
S214006C108303CDF800B08CF8033042D113230CF177
S214006C20100ECCF80C309CE80F008EE80F006FF0CA
S214006C300301DCF81C20B9F1010F61F39F02CCF8C8
S214006C401C20CCF8147004D10F9BCCF80470CCF840
S214006C501830002719492A018B1841F80280159A26
S214006C6028465A609F605E732246694602F0AAF97B
S214006C70384605B0BDE8F08F0021204628F029FAF6
S214006C801023A3700323E370BAF1000FAAD1DBB27E
S214006C9043F03003A5E70B48EBE70B48E9E70B4862
S214006CA0E7E7B8F1000FD4D19CF8023068F304137C
S214006CB08CF80230CDE700BF341B0020B41900204A
S214006CC0341A0020028000F0018000F0078000F0F7
S214006CD038B5104B05461B78BBB1C0B101F04BFE72
S214006CE000230D4901EB0312147B3CB92B600123F2
S214006CF01460137301F043FE204638BD0133082BA1
S214006D00F0D101F03CFE0548F7E70548F5E70548F1
S214006D10F3E700BF341B0020B4190020048000F005
S214006D20028000F0018000F0154B13B518680023B0
S214006D3001908DF8043001F01EFE124B1C7824B131
S214006D4001F01DFE104802B010BD01221A7001F0BD
S214006D5016FE0E4B01A81C731C7783F82C4083F894
S214006D603C4083F84C4083F85C4083F86C4083F8E2
S214006D707C4008238DF8073002F0F2F82046E2E760
S214006D8004F50200341B0020038000F0B419002034
S214006D9010B588B00E9C009207940D9C024606948F
S214006DA09DF8304005940B9C04949DF8284003946D
S214006DB00024CDE9013420460B462146FFF7C8FEE5
S214006DC008B010BD10B588B00E9C009207940D9CBC
S214006DD0024606949DF8304005940B9C04949DF85A
S214006DE0284003940024CDE9013420460B460121B7
S214006DF0FFF7AEFE08B010BD08B50A4B1B785BB1B6
S214006E0007280BD8084B03EB00131B7B43B100216C
S214006E1002F096F8002008BD0448FCE70448FAE7AC
S214006E200448F8E7341B0020B4190020028000F064
S214006E30018000F0078000F008B50A4B1B785BB1B4
S214006E4007280BD8084B03EB00131B7B43B101212B
S214006E5002F076F8002008BD0448FCE70448FAE78C
S214006E600448F8E7341B0020B4190020028000F024
S214006E70018000F0078000F008B50A4B1B7853B17C
S214006E8007280AD8084B03EB00131B7B3BB102F024
S214006E90E9F8002008BD0548FCE70548FAE705487C
S214006EA0F8E700BF341B0020B4190020028000F071
S214006EB0018000F0078000F00D4B1B7893B1072887
S214006EC012D889B10B4B03EB00131B7B73B10A4B33
S214006ED0DA6A012303FA00F010401ABF00200B7094
S214006EE00870704705487047054870470548704762
S214006EF0341B0020B419002000000440028000F07B
S214006F00018000F0078000F00B4B10B51B780C4694
S214006F1063B107280CD859B1084B03EB00131B7B51
S214006F2043B102F0B1F82060002010BD0448FCE731
S214006F300448FAE70448F8E7341B0020B419002098
S214006F40028000F0018000F0078000F02DE9F84391
S214006F50174B1F6D5B6D1F4000D5FEE70126002511
S214006F60144CDFF85480DFF85490374217D023686B
S214006F70C8F800609BB1A16862680131A16028462C
S214006F809847637B012B0AD148B909EB4513197B57
S214006F901A7F60F3410160F3410219731A770135D5
S214006FA0082D4FEA460604F11004DED1BDE8F8834A
S214006FB000000440B419002050200440341A002079
S214006FC070B504460125084E04B970BD94FAA4F0C5
S214006FD0B0FA80F005FA00F324EA030456F82030ED
S214006FE0002BF1D09847EFE7381B00204FF00072D7
S214006FF0044BC3F880211A604FF08062C3F88021EA
S2140070001A60704700E100E038B504460D4601F00E
S214007010B2FC034B43F82450BDE8384001F0AFBC47
S214007020381B0020084BD3F82404D3F82024104043
S21400703042F2204220F42A5020F02A004004400C5D
S2140070409850FFF7BDBF00BF00C00340084BD3F801
S2140070502404D3F82024104042F2204220F4AA4010
S21400706020F055000004000C9850FFF7A9BF00BFA1
S21400707000C00340024B1968024B186808F096BF20
S214007080780A0020740A00207047002310B59A4240
S21400709001D1002010BD50F8234041F823400133B1
S2140070A0F5E7000070B59400224605460E4628F027
S2140070B0FFF8431C02D018B1064800E0064870BD31
S2140070C022463146284627F0D1FF0028034808BF4D
S2140070D00020F4E724E000F021E000F010E000F0EB
S2140070E013B5044601A802F089F89DF8063001227F
S2140070F023804FF4807300206380054B9B680A331F
S21400710003F01F0302FA03F3636002B010BD00BF72
S2140071100080E00F01F0EABF08B501F0D3FF0020C1
S21400712008BD000010B5044628F0BAF8431C02D08B
S21400713018B10C4800E00C4810BD0C4B20469B686C
S2140071400A3303F01F020123934023F00303234472
S214007150984201D10020EFE750F8042B0132F7D017
S2140071600348E9E724E000F021E000F00080E00FAB
S2140071700EE000F008B501F0F7FB014B186008BD03
S21400718010300020014B186801F0F2BB10300020D0
S21400719038B141B1013AB2F5006F044838BF00205B
S2140071A07047034870470148704700BF037000F0FF
S2140071B0027000F038B504460D4601F0DCFBA288EC
S2140071C092B222B92A6001F0DAFB064838BD1422D2
S2140071D0638802FB034308332B6001F0D0FB0020DA
S2140071E0F4E700BF0B7000F038B504460D4601F01A
S2140071F0C2FBA3889BB223B92B6001F0C0FB0C48EE
S21400720038BD14226388E18802FB034308332B60F1
S21400721063885A1C92FBF1F301FB13239BB2638035
S214007220A388013B9BB2A38001F0A9FB0020E7E7FF
S2140072300B7000F0034693F8363010B5022B00684A
S2140072400AD101F0A3FD044602F0ECFF24235843C4
S214007250B0FBF4F0013010BD02F044F8F3E7000094
S21400726090F83530022B0BD13022437F90F8210066
S2140072705A43044B9B5823FA00F000F00100704775
S2140072800020704714C00340002313B51C4A52F870
S214007290234094F8211081420ED00133042BF6D1FE
S2140072A002B010BD0028FBD19DF80730002BF7D0A8
S2140072B0A068FFF7A1FDF3E794F83530022BEFD175
S2140072C02046FFF7CDFF637E2076022BE8D194F8A8
S2140072D0323003F0FF02002BE2D102A901F8012DA3
S2140072E0A068FFF7E9FD237E1BB194F83330002B2E
S2140072F0D8D00023A06884F83330FFF79DFDCFE791
S214007300B82100200F49104B0A782AB9C3E9002299
S214007310C3E9022201220A70002253F82210814299
S21400732008D00132042AF8D1002153F821201AB9D6
S21400733043F821000020704701310429F5D10348A5
S214007340704700BFC8210020B8210020027000F05E
S21400735010B50446FFF7E8FC002104F10800FFF72B
S214007360B7FC014608B1044810BD04F10C00FFF755
S214007370AFFC0028F8D0F6E70E7000F090F8363034
S2140073806BB942F21C62042103795B0103F180436E
S21400739003F570339950022203685A617047022B36
S2140073A007D10068016C11F0020118BF062101F038
S2140073B0C5BC704790F8363083B9012203685A611D
S2140073C09A69D207FCD541F21C62042103795B015D
S2140073D003F1804303F5703399507047022B07D1B1
S2140073E00068036C9B074CBF0521092101F0A6BC71
S2140073F0704700002DE9F04104461746884601F024
S214007400BAFAA388E28805469A4206D800233B606B
S21400741001F0B5FA1148BDE8F081142620883246FE
S21400742006FB00404146083027F02FFE22882388BE
S21400743006FB0242E18808323A605A1C92FBF1F3DE
S21400744001FB13239BB22380A388284601339BB2FB
S214007450A38001F094FA0020DDE700BF0A7000F078
S21400746038B5044601F087FAA16B05460139A163D9
S21400747019B9044A012002F0B5FA2846BDE838409A
S21400748001F07DBA68F5020037B591F836200B6832
S214007490022A0CBF1C6C9C690D46C4F340140846B7
S2140074A034B1FFF7DDFF022385F83C3003B030BD72
S2140074B0FFF7C0FECDE9004401462B46024A0348CA
S2140074C002F04CFEF2E700BF89740000C4300020D2
S2140074D038B5044601F04FFAA36B054623B90121DF
S2140074E0054A084602F07EFAA36B28460133A363DA
S2140074F0BDE8384001F043BA68F50200012370B5D4
S21400750080F8303090F8363086B004460E46A3B980
S214007510056824352046FFF7DBFF0D4B04940393E4
S2140075200023029373683268019301236169009314
S214007530E0682B46FFF746FC07E0022B02D1056801
S2140075403435E7E7002380F8303006B070BD00BF62
S214007550C17900000123F0B580F8313090F836305C
S21400756089B004460E465BBB256801F004FA0DF1AF
S2140075701F01074616483C3502F0D4FD40B99DF879
S2140075801F302BB1124802F08BFD2046FFF768FF34
S2140075903846012701F0F3F9204684F83C70FFF7DF
S2140075A097FF0C4B049403930023029373682A46B8
S2140075B0CDE9007321693368A068FFF7E9FB04E0B2
S2140075C0022BD1D0002380F8313009B0F0BD00BFC7
S2140075D0C4300020D9750000F0B585B003A9D06A84
S2140075E01446FFF7E7FD06462046FFF723FE002574
S2140075F023460146CDE90055164A174802F0AEFD6F
S214007600164B9E421FD0039B1D619D6001F0B3F98F
S214007610039A0746D66826B1D2E9002329462046B3
S214007620B04703A9E06AFFF7DFFDE06A83889BB2F4
S21400763063B103A9FFF7BEFD03992046FFF78AFF53
S214007640384601F09CF9012005B0F0BD84F83130D1
S214007650F6E700BF89740000C43000200B7000F00D
S21400766073B504460D46C07EE67F00293AD0012356
S2140076700422314601F022FC0123022294F8201055
S214007680207F01F01BFC94F83530022B19D1002323
S214007690012294F82110607F01F010FC00230422E0
S2140076A0A07F94F8221001F009FC012394F8212011
S2140076B0607F01930093114601F0ACFB002002B0FE
S2140076C070BD032BFAD10023012294F82110607FAD
S2140076D001F0F4FB0023042294F82210A07F01F0AE
S2140076E0EDFBEBE70B460A46314601F0E7FB2B467F
S2140076F02A4694F82010207F01F0E0FB94F83530FD
S214007700022B13D12B462A4694F82110607F01F0F5
S214007710D5FB2B462A46A07F94F8221001F0CEFB1C
S21400772094F82120607F01950123C3E7032BC5D180
S2140077302B462A4694F82110607F01F0BFFB2B46AB
S2140077402A46C9E790F8363013B903689869704737
S214007750022B06BF0368186C002070472DE9F04125
S21400776004460E469046FFF713FD0746002832D122
S214007770152001F015F90546E26A93889BB213B10D
S21400778094F8323053B394F8363063BB23689D695F
S21400779015F0020539D0012384F8343094F83630D9
S2140077A0002B49D1B0444645206840D183699A06EB
S2140077B0FCD585B994F83630002B4FD142F21C62C6
S2140077C0102123795B0103F1804303F57033995050
S2140077D0082223685A613846BDE8F081002DCCD0D7
S2140077E0FFF7B4FBC8E7022B1FD12068056C15F025
S2140077F00205D0D1036CD9074CBF0521062101F044
S2140078009DFA02221C4B1A60C5E704225A619A6947
S2140078109007FCD541F21C62102123795B0103F12D
S214007820804303F570339950B5E70025B3E716F8A3
S214007830011B01F095FEB6E7022BCCD1B0444645BD
S214007840206806D142F22003026C33EA0202FBD122
S214007850AFE716F8011B01F093FAF0E7022BBAD156
S2140078602068036CDB074CBF0921294601F066FA45
S2140078700222024B1A60AEE7C0D40340C0E40340C5
S21400788010B5044680B190F832302BB9FFF7E8FC0B
S21400789010B9A068FFF7B0FA002094F83230013330
S2140078A0DBB284F8323010BD0048FCE7027000F00E
S2140078B010B50446A0B190F832309BB190F8323043
S2140078C0012B05D1FFF7CCFC10B9A068FFF7B4FA7E
S2140078D0002094F83230013BDBB284F8323010BD21
S2140078E00148FCE70148FAE7027000F0057000F076
S2140078F037B590F835500446022D1ED1012190F878
S2140079002220457E837F01FA02F23020154925B9F0
S21400791000FB031342F2100105E0012D07D100FB26
S214007920031341F210015A50002003B030BD247EEC
S21400793000FB0313002CF4D1ECE7012DF4D1037EF9
S21400794073B911238DF80730FFF79AFF2A460DF119
S21400795007012046FFF702FF2046FFF7A9FFE3E7EF
S2140079601323EFE700C00340F0B587B00446164681
S214007970FFF70EFC0546F0B90493104BCDE901164F
S2140079806A4601A9A06A03960593FFF733FD0546EC
S21400799088B994F8303073B92046FFF70BFD00998C
S2140079A02046FFF7ABFD94F83530032B03D0257641
S2140079B02046FFF79DFF284607B0F0BD017000F097
S2140079C073B5906A01A91446FFF7F4FB05462046F6
S2140079D0FFF746FD354B9D423BD094F83600019BA1
S2140079E0002839D12268916C11F4007107D0304913
S2140079F09860196142F248034FF4007109E0906CF8
S214007A00C50540D52B489960186142F248034FF4EB
S214007A108071D15000F0AFFF01990646CD6835B1B0
S214007A204A688B682046D31A0A680969A84701A9DC
S214007A30A06AFFF7D9FBA06A8588ADB23DB301A95D
S214007A40FFF7B8FB01992046FFF758FD304600F0D7
S214007A5096FF012002B070BD022814D12268516C36
S214007A6011F4007106D0124919610021996042F2A2
S214007A704403C1E7506CC00505D50E4899601861EF
S214007A8042F24403C3E700221A619A60C2E7012368
S214007A9020462376FFF72CFF94F8353084F83050D4
S214007AA0032BD3D02046FFF769FCCFE70B7000F01E
S214007AB00D7000F00C7000F02DE9F043044689B01C
S214007AC0774F01AE0D460FCF0FC697E8070086E842
S214007AD00700002C00F0E18025B9724E304609B050
S214007AE0BDE8F08340220021204627F0F2FA00236A
S214007AF02046A363FFF706FC06460028EED12B7D42
S214007B0084F835302B6884F8360023602A7B22718F
S214007B10012284F83C20644A934240F0A180282346
S214007B20A384624B23614FF4802300266361D5E96A
S214007B300723A26216805680968084F83060E3623F
S214007B401E805E809E806B6884F831600393EB89AC
S214007B5084F83360ADF814302B8A0121ADF812306A
S214007B60AB7C3A208DF81030EB7C514F8DF81630F8
S214007B7005238DF8113000F029FA0121A08C00F0C1
S214007B8025FA01A928688DF8046001F009FC142282
S214007B902B7B2E7A07EB4313C3F81C26A87A697A48
S214007BA046EA0042C3F83426EA7A41EA024CC3F8B1
S214007BB02CC6E07784F820206B7DE6762177637705
S214007BC0AB7D012184F82130EB7D2046A3772B7E08
S214007BD084F82230FFF744FD064600287FF47EAF87
S214007BE000F0C9FE95F814908046B9F1030F42D113
S214007BF041F21C6202212B7B042007EB4317B9508D
S214007C0041F25C0229685B018850297EEA7D03F117
S214007C10804342EA014241F2286103F570335A502C
S214007C20A97D6A7D42EA014241F224615A504FF032
S214007C30FF3242F248032868C2502B7D032B0CBF4C
S214007C400521042101F06FFB4FF440622B682046AB
S214007C505A61FFF77DFB0646404600F090FE3DE782
S214007C60144A93427FF439AF2923A384124B23612D
S214007C704FF4A02359E7B9F1020FD8D194F82100A8
S214007C800E49FFF7C1F9FFF7B1F9A676267684F814
S214007C9019902046FFF72CFEC9E7094E1EE700BFE5
S214007CA04CF50200037000F000C00540020004001E
S214007CB000C0034000000640020005008972000074
S214007CC0027000F0F0B587B004461646FFF760FA7B
S214007CD0054600BB0493114BCDE901166A4601A97F
S214007CE0E06A03960593FFF785FB054698B994F876
S214007CF0313083B900F03FFEE36A06469B889BB2AC
S214007D0033B100992046FFF725FC012384F8343070
S214007D10304600F034FE284607B0F0BD017000F093
S214007D200B4B30B51B788BB1012000230546094C60
S214007D3054F8232032B192F83C10022904BF0846BA
S214007D4082F83C500133042BF2D130BD0120FCE711
S214007D50C8210020B8210020054A1368DB06FCD4A1
S214007D604FF04023D3F88400C0F38110704700BF63
S214007D708440004038B5104B0546D3F820310C46F9
S214007D8003F00303022B0BD0032B0DD0012B0FD1D6
S214007D90FEF798FE052305B1286004B1237038BDB0
S214007DA0FEF77AFE0323F6E7FEF794FE0223F2E7D9
S214007DB000231846EFE700BF0080004073B50D466D
S214007DC000210E4B0191D3F88041064604F00304CF
S214007DD0012C08D0022C0BD00EB1019B336005B1EC
S214007DE0297002B070BD01A8FFF7C4FF0D21F3E7AC
S214007DF0FEF770FE21460190EEE700BF00800040CF
S214007E0038B5174B0546D3F824310C4603F0070364
S214007E10013B052B20D8DFE803F0030F171B0B13DD
S214007E20FEF750FE052305B1286004B1237038BD67
S214007E30FEF748FE0623F6E7FEF72EFE0323F2E7DC
S214007E40FEF72AFE0423EEE7FEF744FE0223EAE7E7
S214007E50FEF73EFE0723E6E700231846E3E700BFEB
S214007E600080004038B5104B0546D3F840310C462C
S214007E7003F00303022B0BD0032B0DD0012B0FD1E5
S214007E80FEF72CFE092305B1286004B1237038BD27
S214007E90FEF72AFE0823F6E7FEF723FE0A23F2E79C
S214007EA000231846EFE700BF0080004038B5134BAC
S214007EB00546D3F800320C4603F00703013B032BBC
S214007EC018D8DFE803F0020A0E12FEF707FE0923B1
S214007ED005B1286004B1237038BDFEF705FE0823FF
S214007EE0F6E7FEF7FEFD0A23F2E7FEF7BFFD0C23DA
S214007EF0800AEDE700231846EAE700BF008000404E
S214007F0038B5104B0546D3F840320C4603F0030351
S214007F10022B0BD0032B0DD0012B0FD1FEF7DEFD6D
S214007F20092305B1286004B1237038BDFEF7DCFDD7
S214007F300823F6E7FEF7D5FD0A23F2E700231846E6
S214007F40EFE700BF0080004038B5104B0546D3F879
S214007F5060310C4603F00303022B0BD0032B0DD02D
S214007F60012B0FD1FEF7BAFD092305B1286004B135
S214007F70237038BDFEF7B8FD0823F6E7FEF7B1FD1F
S214007F800A23F2E700231846EFE700BF0080004010
S214007F900D4B10B4D3F820320A4603F00303012B2E
S214007FA00AD0022B0CD008B1002303600AB10023CC
S214007FB013705DF8044B70475DF8044BFFF7DABEAC
S214007FC05DF8044BFFF74EBF00800040430910B534
S214007FD007D0012B0FD00A4C0A4A022B14BF2346A7
S214007FE0134600F01F0041B103F58053012202FA48
S214007FF000F0186010BD044BF3E703F50053F5E7F7
S214008000608200406880004064800040B0F5007FD9
S21400801018D005D880B1B0F5C07F0DD000200FE095
S214008020B0F5207F14D0B0F5607FF7D10B4BD3F8B6
S2140080308000C0F3011003E0084B186FC0F3033054
S21400804001307047054BD3F89000C0F30460F7E7A3
S214008050024B186FC0F38020F2E700BF008000409C
S214008060002313B53E280446019300F0B18042D8A1
S2140080702B2828D01FD8232813D00CD8202849D046
S21400808004D8002846D0019802B010BD212808D098
S21400809022283FD0F7E7292800F290802828C0F051
S2140080A08380FEF7E3FC02464FF42070FFF7AEFF36
S2140080B0B2FBF0F071E0312810D82F28F1D22D282D
S2140080C000F0818056D9FEF7D1FC02464FF42070AE
S2140080D0FFF79CFFB2FBF0F040085EE03C2855D866
S2140080E03A28DED2382864D03928CCD1002101A81D
S2140080F0FFF786FEC7E7B0F5007F50D01BD85228A2
S21400810052D00AD84D2805D002D83F28C9D0BAE7A1
S2140081104F28B8D3FEF7AAFC3FE080283BD004D80F
S214008120A0F16004012CF5D9ADE7B0F5807F21D031
S214008130B0F5C07FADE7B0F5A06F3AD010D8B0F577
S214008140607F2CD006D8B0F5207FAAD0B0F5407F4F
S214008150B9D098E7B0F5806F26D0B0F5906FC4E739
S214008160B0F5D06F2FD00AD8B0F5B06F26D0B0F5E6
S214008170C06F88D1002101A8FFF774FE83E7B0F531
S214008180E06F25D0B0F5F06F7FF47DAF002101A839
S214008190FFF7DAFE77E7FEF74FFC019073E7FEF78E
S2140081A04BFC0246204681E7002101A8FFF7E2FDCE
S2140081B069E7002101A8FFF7EBFE64E7002101A8AC
S2140081C0FFF7FCFD5FE7002101A8FFF76FFE5AE707
S2140081D0002101A8FFF794FE55E7000008B58020AF
S2140081E0FFF73EFF044B98429FBF42F270034FF4E6
S2140081F08031024AD15008BD005A62020080004019
S21400820038B5054641F268034FF400300D4AD050A9
S2140082100020FFF7FBFE41F671320B4B6843DC692A
S2140082200A4DDA639A68A84204F4803422F44012B5
S21400823003D9012918BF42F480129A600CB10022BB
S214008240DA6338BD0080004000000340005A620236
S21400825008B5FEF71DFCBDE808400021FFF7D0BFBB
S214008260002307B5B0F5807F8DF8073011D030D8E1
S2140082702D2800F0828012D82A2841D007D824382A
S214008280032831D99DF8070003B05DF804FB2C28BD
S214008290F8D10DF107010020FFF7E4FDF2E73D28D5
S2140082A05FD007D83828EDD10DF107010020FFF781
S2140082B06FFEE7E73E2833D08028E3D1374B1B6FAD
S2140082C003F00703013B032BDCD8DFE803F0484448
S2140082D04262B0F5C06FDCD018D8B0F5906F46D0CB
S2140082E008D8B0F5806FCDD10DF107010020FFF75B
S2140082F041FDC7E7B0F5A06FD6D0B0F5B06FC1D1DD
S2140083000DF107010020FFF759FDBBE7B0F5F06F50
S21400831027D00BD8B0F5D06F2FD0B0F5E06FB1D125
S2140083200DF107010020FFF7EBFDABE7B0F5006F9E
S2140083301DD0B0F5086FA5D1184BD3F8003103F067
S2140083400303022B1FD0032B21D0012B23D1FEF7D2
S214008350A3FB032300E005238DF8073092E70223F2
S214008360FAE70DF107010020FFF7EEFD8AE70DF1B1
S21400837007010020FFF744FD84E70DF10701002008
S214008380FFF794FD7EE7FEF7AFFB0823E4E7FEF772
S2140083909FFB0723E0E70123DEE700BF00800040E5
S2140083A008B5FFF75DFF082804D0092805D04FF66A
S2140083B0FF7001E0094B188808BD41F264034FF4D2
S2140083C00011074A4FF6FF70D150064B5B6A13F058
S2140083D0010F18BF4FF4FA70EEE700BF980A0020AE
S2140083E00080004000400240F8B504468020FFF7B9
S2140083F037FF032800F0858041F264034FF4002124
S214008400464AD15045F60E0302F58042C2F8803047
S214008410022141F22803D15042F228030121D15013
S214008420916D11F48031FBD1637820781B0543EA07
S2140084300063A0793A4E0343E078657C43EA004344
S214008440207943EA0033607943EA80131361237A84
S214008450E0791B0643EA8063E07A0343607A43EAE6
S2140084600043A07A43EA00239361637B126A002BE1
S21400847018BF0821207B22F00D0243EA020343EADC
S214008480800341EA0301A37B31624FEA431CE37B8E
S214008490207C4FEA0317314634D1B26A214B22F0D2
S2140084A0330242F0010242EA0C023A43B2628A6D9B
S2140084B033EA0202FBD1022341F228028B50184A0B
S2140084C00B65936D5B00FCD41169A37821F47001F1
S2140084D041EA0351116141F218034FF00041D150B7
S2140084E018B942F228030221D15025B942F22803D6
S2140084F001210B4AD150A37C1BB1094B0A4AC3F891
S2140085008020F8BDB36A23F033032B4343EA0C0301
S2140085103B4343EA4003B362EDE700BF0080004000
S21400852000C0004003000140F1A7FFFFF0B541F294
S21400853064034FF480071B4E41788478C278057830
S214008540F7504FF4D156184B02275E6241F20406EC
S2140085504F299F5142F204064FF0010728BF4F21D2
S2140085609F511E69F603FCD441EA052159611201A8
S214008570417942EA04220A43017942EA41029A60BA
S214008580C2798179120142EA4112417A0A43017A9C
S21400859042EA41025A60827A12B16FF4D1525A62AC
S2140085A0F0BD00BF0080004000000240014B188074
S2140085B0704700BF980A002010B50446FEF76CFA14
S2140085C041F264034FF40011094AD1500222094BCC
S2140085D05A609A6812F48032FBD1012C18BF5A6296
S2140085E04FF0000208BF5C62024B5A6010BD00BF2D
S2140085F000800040004002400029CCBF012100213D
S214008600FFF7FEBD10B50446FFF722FE00F054F853
S21400861041F270034FF480310C4A013CD150106F88
S21400862020F4704040EA04301067FEF71FFA044654
S214008630FFF792FBC0F102012046FFF7DDFF00F0D6
S21400864041F8BDE81040FFF7C9BD00BF00800040FC
S214008650B0F5007F1AD004D850B1B0F5C07F07D06F
S2140086607047B0F5207F1CD0B0F5607F03D0704710
S2140086700846FFF7C7BF0F4A0139D2F8803023F00B
S214008680300343EA0111C2F880107047094A0139E5
S214008690D2F8903023F0F85343EA0161C2F8901004
S2140086A07047044A0139136F23F4806343EA81213B
S2140086B0116770470080004002214FF42070FFF7DA
S2140086C0C7BF000008B54FF4C070FFF7C9FCBDE88F
S2140086D00840044988428CBF022101214FF42070D3
S2140086E0FFF7B6BF80F0FA02B0F5807F70B50C4693
S2140086F00DD040D82D2800F0128119D82A285DD038
S21400870003D82438032842D970BD2C28FCD1083C55
S214008710E4B2022C8CBF00218A4B8B4A98BF195DAD
S214008720D2F8403123F003030B43C2F84031EBE7A5
S2140087303D2800F0D28011D83828E5D10D2C00F065
S214008740FF800E2C0CBF022100217F4AD2F8203277
S21400875023F003030B43C2F82032D5E73E2847D068
S2140087608028D1D18B1E052B00F2B480DFE803F001
S214008770AF9CB269B2ACB0F5C06FC8D02DD8B0F51A
S214008780906F00F0BB8013D8B0F5806FBCD1023C70
S214008790E4B2032C8CBF00216C4B6B4A98BF195D6A
S2140087A0D2F8203123F003030B43C2F82031ABE7A5
S2140087B0B0F5A06FC2D0B0F5B06FA5D1022C03D033
S2140087C0A4F10D035C425C415F4AD2F8803123F08D
S2140087D003031C43C2F8804196E7B0F5F06F7CD0E7
S2140087E017D8B0F5D06F00F09A80B0F5E06F8BD157
S2140087F0083CE4B2022C8CBF0021554B524A98BF6D
S214008800195DD2F8403223F003030B43C2F840321E
S2140088107AE7B0F5006F71D0B0F5086F7FF474AFEB
S214008820CC1EE4B2052C8CBF00214A4B464A98BFAA
S214008830195DD2F8003123F003030B43C2F8003170
S21400884062E7002502260121022000F08BF9FFF7DF
S214008850FFFCFFF731FF4FF4803141F270033A4AD4
S214008860D150136F23F0070333431367FEF7FEF868
S2140088700646FFF771FAC0F102013046FFF7BCFE6C
S2140088800121002000F0AAF9FFF71CFFFFF7A6FC65
S214008890002D7FF439AF032C7FF436AF42F2280365
S2140088A001212D4AD1502FE741F264034FF40021F5
S2140088B0254A0326D15041F228020121264B9D6A03
S2140088C09950C5F34005BEE700250426BBE7002502
S2140088D00126B8E700252E46B5E7083CE4B2022C90
S2140088E08CBF00211D4B184A98BF195DD2F8603125
S2140088F023F003030B43C2F8603105E7023CE4B201
S214008900052C8CBF0021164B0F4A98BF195DD2F874
S214008910243123F007030B43C2F82431F4E6083C65
S214008920E4B2042C8CBF00210E4B074A98BF195D99
S214008930D2F8003223F007030B43C2F80032E3E616
S214008940012102E774F502000080004070F5020085
S21400895074F5020082F5020000C0004074F50200C3
S21400896077F502007DF50200EFF3108072B67047CF
S21400897000B962B67047EFF3108072B67047FFF723
S214008980F7BF0000054A410900F01F0352F8210016
S214008990D840C04300F00100704700BF00E100E08F
S2140089A010B50446EFF31083DB0733D4FFF7EAFF76
S2140089B000282ED1002CABBF04F16044164B04F502
S2140089C0614404F00F04ACBF94F800231A5D12094A
S2140089D0EFF3118313B1B2EB131F1BD20F4C636876
S2140089E0C3F30803ABB1103BDBB259B20029B5BFE5
S2140089F003F00F0301F16043043B03F56143B6BF88
S214008A001B1993F80003187E0009824234BF002029
S214008A10012010BD0120FCE714ED00E000ED00E0B1
S214008A20024B9B6803EB80000164704700ED00E09A
S214008A30F0B50024059D9DF818709C4202D10C4BA1
S214008A409A60F0BD37B18C420ED250F8246042F8DE
S214008A50246005E08C4252F8246003D2002EF4D045
S214008A600134EAE7002EFBD142F82450F8E700BFB5
S214008A7000ED00E010B5234B70B9186041F26401B8
S214008A804FF40030204A505020494968012902D14D
S214008A90D2F800211A6010BD1B68002BFBD01B4CBF
S214008AA06268012AF7D0184A8020C2F80031FFF722
S214008AB0D7FB052820D14FF4C070FFF7A7FA01288E
S214008AC0044604D102214FF4C070FFF7C1FD42F204
S214008AD0100207210D4B995041F2040201219950D2
S214008AE01A69D207FCD5012CD5D12146BDE8104025
S214008AF04FF4C070FFF7ACBD41F204030122E25010
S214008B00C9E700BFCC2100200080004000C0014023
S214008B1010B5044610B10020FFF7ACFF0C4A1369ED
S214008B2043F00403136101F023F9FFF71DFF26F05D
S214008B30AFFBFFF71DFF01F037F924B1BDE8104089
S214008B400120FFF797BFBDE81040FDF78FBF00BFBD
S214008B5000ED00E0FFF7DCBF0020FFF78BBF012031
S214008B60FFF788BF38B504461A4A1368D806FCD4FF
S214008B704FF04023D3F88430C3F381139C4228D0AF
S214008B80FDF75AFF012C054602D12146FFF734FDBA
S214008B90FFF7EAFE4FF000710F4A4FF040231160D6
S214008BA04FF48062611E8A401A675A6E910103D4A0
S214008BB0D3F88420920609D5FFF7DAFE022C08D1F6
S214008BC02846BDE838400021FFF716BDD3F88420BC
S214008BD0EBE738BD844000406460004010B50C46AA
S214008BE008B9FDF729FF074B21461B783BB1064B1A
S214008BF0984204D80120BDE81040FFF7B3BF02201A
S214008C00F9E700BFD0210020005A62020278034B29
S214008C10012100201A70FFF7E1BF00BFD02100201D
S214008C204FF04022536F417823F4407343EA012308
S214008C30536770474FF04022D36E017923F030031C
S214008C400B43D3667047000041F264034FF00041C7
S214008C50164A10B5D15041F2040101224AF6CD342D
S214008C60134B5A50596C1C6478B942F208001A50DB
S214008C70DA6AD007FCD542F2040201209850012996
S214008C8002BF0B4B0B4A1A6410BDDA6A1207FCD4FB
S214008C9042F224022020985041F208020120985007
S214008CA0034A536A9B06FCD5E9E700BF00800040F4
S214008CB0004009403254FFFF38B54FF0004141F202
S214008CC06403194A194CD150012241F20403E250C0
S214008CD04AF6CD33656C23644378934013434FF0D4
S214008CE04022D363A368827823F0740343EA021316
S214008CF0C278002A14BF042200221343A36002791C
S214008D00837943EA022323614279C379007843EAF0
S214008D1002236361FFF798FF012D08BF044B4FF055
S214008D20010008BF236438BD0080004000400940B1
S214008D303254FFFFC36C0B42FCD1704738B5024675
S214008D400C46012319B942F20401435038BD41F2E2
S214008D500401435040F2FF71FFF7ECFF04F00F05EB
S214008D6078210563FFF7E6FF04F00103610748BFBB
S214008D7043F00203116C01F003019942FAD1E5E7D2
S214008D80036C5B06FCD5C16370470000F8B51F4B4B
S214008D90054698420FD184683820FFF761F904F041
S214008DA0E004AA6A1A4B402C03EA020310D004D847
S214008DB054B3202C08D0002023E0602C22D0802C36
S214008DC0F9D14FF4807600E026460024012502E023
S214008DD080260024032503F580735D4300232A467E
S214008DE0194625F069FF02FB04F100FB06F706FBB7
S214008DF00313A2FB06012A461944002325F05CFF54
S214008E003844F8BD4026E0E71026DFE70000034AB6
S214008E10F8FF7F00072A70B54FF0030430D895009E
S214008E201D4EAC403460A840A6F5805630601B4806
S214008E3001F003010460A940A0F5805001601849C4
S214008E401848002B0CBF0B460346012101FA02F21C
S214008E501A609DF810001449144B002818BF0B46E2
S214008E601A6042F2204312499DF81400CA50114B72
S214008E7001F5A1510431002818BF0B461A6070BDD9
S214008E80A2F1080189008C4088400B490C60A1F5CE
S214008E9080510860D3E700BF00E4034008E40340C5
S214008EA010E4034010D4034014D4034014E40340F9
S214008EB000C0034024E4034004E40340F0B54AB194
S214008EC0012530241D4E8D4004FB00640BB341F297
S214008ED01006A55130244443072904F1804404F5C4
S214008EE0703419D80F2765688E00B74025EA070545
S214008EF002FA06F63543656052B9012202FA01F11C
S214008F0030220E4C02FB0040A3B141F21003C150C8
S214008F10F0BD42F21006DCE70F2701F18045083D60
S214008F20E668AD00AF4026EA070602FA05F53543C7
S214008F30E560E1E742F21003E9E700BF00C0034046
S214008F40054B064A00290CBF19461146012303FAB1
S214008F5000F00860704700BF401004404020044006
S214008F6010B5012104462020FFF730F8012121200A
S214008F70FFF72CF80122114B5A60227812069A60ED
S214008F806178A27842EA01429A61FF229A62002240
S214008F909A631A644FF000424FF0FF315A6542F26E
S214008FA0500299504FF40011054AC2F88011E37838
S214008FB01B01DBB282F81533116010BD00000440BF
S214008FC000E100E02DE9F0410C4601264FF0300E9E
S214008FD0C3B29E40204D23688F7A91F80B8094F898
S214008FE00DC0097B45F82030A5F580450EFB0050E6
S214008FF04FEA085343EA074343EA4153C0F860C0C8
S214009000C36542F2500322F003020267EE50FFF7F8
S214009010B2FC6B6D33436B65237A13B12B6C334311
S2140090202B64637A13B1AB6B3343AB6342F2180124
S2140090302379A27942EA0342084B5A506179E279D1
S21400904042EA014241F218015A50054A16609E64EF
S214009050BDE8F041FFF793BC004004400000044028
S2140090603420044010B50124C0B28440FFF783FCCE
S214009070044B5A6D22EA04025A659C62BDE8104011
S214009080FFF77DBC00000440F8B50125C3B29D4043
S2140090900446FFF770FC3022094B02FB04341E6DB9
S2140090A05F6B646EFFF76BFC3D4206D1C4F30A109B
S2140090B008B9354200D10130F8BD0020FCE700BFFA
S2140090C00000044041F268034FF40031054AD150D5
S2140090D041F67132044B0121DA6342F20C029950D8
S2140090E0704700BF008000400000034041F6713228
S2140090F0074B0121DA6342F20C02995000224FF42A
S2140091000031DA6342F26803024AD150704700BF6A
S21400911000000340008000404FF090435A6812B1B0
S2140091209A6A002AFAD17047CB784A7810B55B0164
S2140091300C7843EA82030A79234343EA02130C229B
S214009140424302F190421363012C02BF8A78024B1D
S21400915043F8202010BD00BFE880034008B54FF05C
S21400916090435A6802B960B15B680BB1FFF7D4FF51
S2140091704FF0904130B10120074B1860FFF7CCFF4D
S214009180C86008BDFFF7C8FF0223CB60FFF7C4FF27
S2140091900122024B1A60F4E704100048042000483D
S2140091A04FF090435B6870B50BB1FFF7B5FF012138
S2140091B0104B0679196083784578002BC37814BF66
S2140091C002240024002B14BF042200224379DB0073
S2140091D043EA06132B43234313434FF09042936016
S2140091E0054B19600378002B14BF0B460223D3608F
S2140091F070BD00BF042000480410004841F264031C
S2140092004FF48031064AD150064B5B69C3F3851292
S214009210827003F03F021B0B42700370704700BF62
S2140092200080004000C0074070B5054616461C4644
S21400923021B94FF42070FEF713FF0146202C08D00A
S21400924001D8ECB170BD402C18D0602CFAD10422A5
S21400925000E0082206FB02F35A0802EB4112B2FBBA
S214009260F3F2084B203A03EAC202AB6823F060032D
S214009270AB60AB681C43AC60EA61E3E70622E9E753
S2140092801022E7E7F8FF7F00F8B5154F14460F40A9
S2140092901ABB202B07D0402B07D0002B0CBF102565
S2140092A04025012603E01D46FBE780250326002314
S2140092B007F580777E431946324625F0FDFC544379
S2140092C000FB05F705FB0344A2FB05010023214430
S2140092D0324625F0F1FC3844F8BD80250024E0E74E
S2140092E0F8FF7F0070B5044685684FF42070FEF7DF
S2140092F0B7FEA36805F00102E16903F06003BDE86C
S2140093007040FFF7C1BF38B50546144621B94FF483
S2140093102070FEF7A5FE014601396400B1FBF4F1AA
S2140093200902E96138BD012241F20403C250CB4371
S214009330934003F00A034361416111B942F204030A
S214009340C250704741F204030122C25040F6AA639D
S21400935041F20502436100238360C365C26042F2A6
S21400936048020C490361C361C36481500A4A83659D
S214009370904202D00949884207D19042036502D044
S214009380064B984201D10023436542F204030122B2
S214009390C2507047FFFF010000C0054000000640B5
S2140093A038B50D460446FFF7CDFF41F2040301220F
S2140093B0C250AB7C1BB1836843F080438360EB7C78
S2140093C05BB1324A2B7D944243D1A2F51032C2F8EB
S2140093D08C31E36D43F08003E3652A8A6B7B20467D
S2140093E01343EA891343E360D5E901122B7BFFF7A9
S2140093F01BFF6B7D1BB1A36843F48033A360AB7D7A
S214009400EA7D1B07120502F4E00203F0E043297E22
S2140094101343A3658B1E012B1C4A1D4B23D8944275
S2140094201FD002F5804294420CBF01224FF0FF325B
S21400943003EB4213022041F21C62032998500CBF32
S21400944041F25C0342F25C030422E2502B78636133
S21400945038BD104A944204BFA2F52032C2F89C31AF
S214009460B7E70022E4E794420DD00A4A94420CBFC4
S21400947001224FF0FF3203EB4213022042F21C623D
S21400948001299850DBE70022F5E700BF00C0054041
S21400949000C003400000064038B50D460446FFF7FE
S2140094A051FF41F204030122A97BC2502A8A836835
S2140094B0002942F0010214BF4FF4806100211343DB
S2140094C02A7D0B43002A14BF4FF00052002283600F
S2140094D0836813438360AB7C5BB11A4AEB7C904293
S2140094E027D1A2F51032C2F88C31E36D43F0800329
S2140094F0E3652B7BD5E9011243F48053E3602046F5
S214009500FFF701FF6B7B0BB1102363616B7D1BB113
S214009510A36843F48033A360AB7DEA7D1B07120586
S21400952003F0E04302F4E0021343A3652B78636183
S21400953038BD054A904204BFA2F52032C2F89C31DD
S214009540D3E700BF00C005400000064083695A0606
S214009550FCD5C16383699B06FCD5406AC0B27047E0
S21400956083695B06FCD5C1637047000038B50446C6
S214009570054D1FF056FA0FCC0FC594E8030085E89A
S2140095800300002038BD00BFD421002047F6FF733B
S2140095909A42F0B55ED002295ED8304BCE0013F862
S2140095A0311098190129857819460DD1C3785B1BAF
S2140095B023B1416831F91310914202DCE818C0B2B9
S2140095C0F0BD013B1BB2F3E740680028F8D0B0F9C5
S2140095D00030934204DBB0F902309342B8BF134622
S2140095E08288FF2A19BFC8242827B0F90640B0F998
S2140095F00870A4EB03040CBF0122002294FBF7F4CE
S21400960014448A19567824B2721EA242A8BF224673
S2140096104FF47A7700EBC201CC888968013213FBDD
S214009620041112B221EAE17101F5FA71B242B1FBFE
S214009630F7F104DA00EBC204A4888C42EAD200EB0D
S214009640C20232F8040C884228BF0846A84238BF37
S2140096502846B4E7FF20B3E70020B1E7D421002076
S2140096600229F0B543D8244B03EBC10413F831307C
S2140096706668012B0BD1E178A378914294BFC3EBC7
S2140096800103C3EB0203DBB236F91300F0BD76B379
S214009690B6F902008242F9DDE378B6F9005093424B
S2140096A027D9002164780436013CE4B297B2CBB2E5
S2140096B09C424FEAC10306D906EB030CBCF808C06F
S2140096C00131BC45F3D2F1184FF47A7353434A681C
S2140096D0B1F902409B1A022294FBF2F2134493FB68
S2140096E0F4F39D4205DB9842D0DC18B2CEE703487F
S2140096F0CCE72846CAE700BFD42100200080FFFF41
S2140097000148FFF733BF00BF88F5020007B56B4678
S214009710054A1068516803C36846FFF7CDFA002073
S21400972003B05DF804FB00BF0CF602004FF04022C9
S21400973013B50024536F684643F001035367009443
S2140097408DF80440FFF776FA204602B010BD000000
S21400975070B586B001AA1546114B03F110061446E3
S21400976018685968083303C4B3422246F7D14FF647
S214009770FF7219889B782180A3700A4B0A481B88C1
S214009780934208BF7823DBB28DF80D308DF80E308B
S214009790FDF788F92846FEF727FE002006B070BDC4
S2140097A014F602000001E00F00F0490208B501209F
S2140097B0FEF702FF002008BD1FB50B4A01AB10687C
S2140097C0516803C31189927A19809A70252301A8DB
S2140097D08DF80530FEF7AAFE6420FEF7E7FE0020AF
S2140097E005B05DF804FB00BF27F60200BFF34F8FFD
S2140097F0BFF36F8F054A536A23F480335362D2F85F
S214009800943023F00103C2F89430704700ED00E076
S21400981070B5FFF7EBFF1D4C1D481E4B8442196BBD
S21400982016BF20F01F021C4A203A21F0FF0141F02B
S214009830A001B2F1005F196309D3184D184E2968CC
S21400984042F0010299600131DE601A6129608442AB
S2140098500CD01248134A016822F01F0242F003029D
S2140098609960DA60104A01311A610160BFF34F8FC8
S214009870BFF36F8F05225A600C4A536A43F4803355
S2140098805362BFF34F8FBFF36F8F70BD680D00201C
S214009890940B002090ED00E000800020EC210020DA
S2140098A003000020870D0020E17F002000ED00E08F
S2140098B0BFF34F8F0549064BCA6802F4E0621343B4
S2140098C0CB60BFF34F8F00BFFDE700BF00ED00E0A9
S2140098D00400FA0508B5FFF7EBFF08BD034B1B783D
S2140098E0002B14BF01200220704700BF1822002062
S2140098F00329F8B598BF124B06460F4694BF5C5C2A
S2140099000024032805D8DFE800F002080B0E44F018
S21400991002040C4B1D684DB9F8BD44F00804F8E786
S21400992044F02004F5E744F08004F2E76B681A6818
S214009930144203D05B683946304698472D68EAE7FC
S21400994032F602001422002038B50B4C227852B1B1
S2140099500A4D2B781BB100F04DFA00232B7000F057
S21400996081FA00232370064C01212078FFF7C0FF00
S2140099700123237038BD00BF1222002010220020D1
S2140099800822002070B5FEF7EFFF114E054633782B
S214009990CBB900F04DFB044620B12846FEF7E8FFA1
S2140099A0204670BD00F03EFC0A4B186000F042F9FD
S2140099B00948FDF7B5F8094B1C6000F079FA084B2A
S2140099C01860012333702846FEF7D2FF0024E7E72D
S2140099D0112200201C220020142200202022002019
S2140099E00C220020F8B50D460446FEF7BDFF002DFC
S2140099F014BF0121FF21134A0646601E135C124C59
S214009A000B4413542278012A17D9FFF767FF8242C6
S214009A10074612D90D4D2B781BB100F0EBF9002349
S214009A202B700B4D2B781BB100F01CFA00232B700B
S214009A3039462078FFF75CFF27703046BDE8F840CF
S214009A40FEF796BF182200200822002010220020D1
S214009A501222002030B5044685B0B0B1841E012C19
S214009A601CD803A9002000F09DFB0546B0B9154B95
S214009A70039A1B689A4213D80121134A0846FFF737
S214009A80B1FF0122114B1A7008E0104D2B782BB154
S214009A9001460D4A0120FFF7A5FF2C7005B030BD2A
S214009AA00B4B1C6800F008FA039920448842E3D266
S214009AB00223091ACDE90053064A2B46064800F051
S214009AC017FBEBE70C22002036F602001B220020D4
S214009AD02022002049990000F021002010B50446FD
S214009AE0FEF742FF002C14BF0121FF21034A137822
S214009AF00B441370BDE81040FEF73ABF1A22002050
S214009B0038B541600446FEF72FFF05462146044857
S214009B10FDF709F82846BDE83840FEF729BF00BF24
S214009B2014220020054B1B685843054B00F5742093
S214009B3000F23F20B0FBF3F0704700BF1C2200206D
S214009B4040420F002DE9F843FEF70EFF0546FCF7EE
S214009B501FFC00285BD0304FDFF8D4903E4699F8C3
S214009B60003033B12D4A1378013B1370002389F877
S214009B700030FFF7B3FEFFF76DFFFFF7AFFE0128DB
S214009B80044604D9264B1B780BB900F0EFF838785A
S214009B90A04203D02146FFF7ABFE3C70012C0CD947
S214009BA01F4C23784BB91F4B1B7823B900F01CF9C8
S214009BB001221D4B1A7001232370307800F062F9E1
S214009BC000E000BF2846FEF7D3FEFEF7CDFE0546B2
S214009BD0164800F065FAFCF7E6FB80460028BED182
S214009BE00F4C227852B1104F3B781BB100F002F9AF
S214009BF087F8008000F036F9002323700020FFF776
S214009C0029FF00213078FFF773FE002333702846C3
S214009C10BDE8F843FEF7ACBE08220020182200205C
S214009C20122200201A22002010220020F0210020FC
S214009C301B220020F7B50024022302A800F8084DD6
S214009C408DF805308DF804404FF40025FEF7DEFF52
S214009C508DF8054041F2640401A8FEF7E1FF3B4A97
S214009C603B4B116F01F007011960D2F82031D2F892
S214009C70240115514FF40035155102F5A0329269B2
S214009C80344C02F002050329C2F3400200F007003C
S214009C90227050D003F003039E1E734273410228C5
S214009CA008BF43F001032C4A13704DB143B9274B4C
S214009CB0D3F8003103F00303591E4B424B41137097
S214009CC04FF41670FFF72EFF244B18602378244CB1
S214009CD01BB31E4BD3F8003103F00303022B2CD02A
S214009CE0032B2DD0012B2ED1FCF7D6FE00271D4BC3
S214009CF00246DB68461EC3F30B0301331A4803EB28
S214009D008301E0FB016700233046394624F0D4FF88
S214009D10FFF708FF2368184420602320FFF702FFA0
S214009D202368184420606420FFF7FCFE236818446C
S214009D30206003B0F0BD0123B1E7FCF7D5FED5E700
S214009D40FCF7C6FED2E70020D0E700BF0080004048
S214009D50DC3000202C2200202F2200202822002089
S214009D603022002000C0014040420F00FEF7F4BE43
S214009D700A4B1A788AB100221A70094A136F23F028
S214009D80070343F001031367064B1B782BB141F220
S214009D902803022102F58042D15070472D22002070
S214009DA0008000402F2200200B4B10B51B788BB193
S214009DB0022000F0AFFB68B100F022FA50B141F289
S214009DC028030124054AD45000F020FA044B1860FA
S214009DD0044B1C7010BD00BF2F22002000C00040A6
S214009DE0242200202E2200200122014B1A707047E8
S214009DF02D22002038B5154B1B782BB3144D154C6F
S214009E002A783AB941F228030121134AD15000F0CA
S214009E10FDF92060114A136F23F0070343F0030394
S214009E20136700F0F3F923680221C01A0C4B0A4AA4
S214009E30186000232B7042F22803D1500121D15024
S214009E40BDE83840FCF712BE38BD00BF2F22002008
S214009E502E2200202422002000C000400080004067
S214009E602822002008B5FEF77AFE044A0449136F3C
S214009E70096823F007030B43136708BD0080004002
S214009E80DC30002002280AD003280BD001280CD191
S214009E90064A136923F00403136130BF704700209D
S214009EA0FEF736BE0020FEF755BE704700ED00E018
S214009EB04FF4C870FFF736BE044B1B680BB103EBBC
S214009EC0D303034A10681844704700BF28220020B6
S214009ED030220020104A30B5136841611546ABB9F0
S214009EE01060836011E0091B9C6841611A467CB1D2
S214009EF023465C698C42F6D9002CF4D052B19060AF
S214009F00836013B15A69511A596130BD0022F0E7D7
S214009F102346F4E72860F3E74C22002010B500F053
S214009F20A1FA094B094A196831B11368C41A4B697A
S214009F30A34203D31B1B4B61106003E0C01A00232F
S214009F4010604B6110BD00BF4C220020382200205C
S214009F5038B50F4D02202B685C690E4B1B681C44FD
S214009F6000F0B4FA204600F085FA00230A492A6871
S214009F700B70D088800702D501230B7038BD92681D
S214009F80002AFBD050690344012BF2D9F6E700BF44
S214009F904C220020382200204022002070B59DF878
S214009FA01450164605710025049A8560BDF81850B1
S214009FB00446C5800260C0E903360D4629B96161D2
S214009FC00BB11146984796B13546FEF7D4FC0646C7
S214009FD0FFF7A4FF29462046FFF77CFF054B1B68CA
S214009FE0A34201D1FFF7B4FF3046FEF7C8FC0020BD
S214009FF070BD00BF4C22002000210C4A13687BB1C4
S21400A00083420AD1836879B18B6083681BB15A6931
S21400A01041690A445A610020704719469B68EEE77A
S21400A0200028EFD0022070471360EEE74C22002095
S21400A03070B5FEF7A0FC134D06462C78D4B9124B2B
S21400A0401C60124B1C60124B1C8000F0C9F90120EA
S21400A05000F03CFA00F088FA0E4B0246186070B129
S21400A06023460D4840F2E73124F026FE0B4B1860DD
S21400A07001232B703046FEF782FC002070BD2320A3
S21400A080FCE700BF342200204C22002038220020AB
S21400A090422200204822002018FCFFFF3C2200201D
S21400A0A02DE9F0410546F8B1FEF765FC0F4F064670
S21400A0B0FFF734FF2846D7F80080FFF79DFF0446D9
S21400A0C028B13046FEF75BFC2046BDE8F081A84587
S21400A0D03B6803D123B1FFF73BFFF2E7002BF0D13B
S21400A0E0022000F0FFF9ECE72224EDE74C220020E6
S21400A0F0F0B50D4685B016461F46044680B1FFF7FC
S21400A100CFFFBDF82C30002202939DF82830294658
S21400A110CDE9007320463346FFF740FF05B0F0BD9B
S21400A1202220FBE738B50C46054698B191B10023CE
S21400A1300B70FEF720FC0121074B1B680BB1227841
S21400A1401AB1FEF71CFC002038BD9D420CBF2170E2
S21400A1509B68F3E72220F7E74C220020F0B51F4665
S21400A160002387B00D4616468DF817300446A0B17A
S21400A1700DF11701FFF7D6FF9DF817207AB9BDF845
S21400A1803430294602939DF830302046CDE90073DE
S21400A1903346FFF703FF07B0F0BD2220FBE703209E
S21400A1A0F9E70000F8B507460E46FEF7E4FB002484
S21400A1B00546114B1B6823B92846FEF7E0FB1B201B
S21400A1C015E05A691444DA88BA4213D100F04AF905
S21400A1D00A4F3B68C01AA0420AD200F043F93B6817
S21400A1E0C01A201A30602846FEF7C9FB0020F8BDCA
S21400A1F00020F7E79B68DEE74C220020382200208C
S21400A200014B1878704700BF4022002038B5FEF793
S21400A210B2FB054600F026F904462846FEF7AFFBDB
S21400A220204638BD014B1868704700BF4822002002
S21400A2300A4B10B51B680C4683420CD3084B4FF4F0
S21400A2407A7219680023A0FB010124F035FD013065
S21400A2502060002010BD2120FCE700BF3C2200202B
S21400A26048220020104B10B51A684FF47A73A0FBF2
S21400A2700301A2B1531E134211D1B2FA82F2C2F107
S21400A2801F02C2F12004A2F1200301FA04F420FA0E
S21400A29002F2224321FA03F342EA030010BD002330
S21400A2A024F00AFDFAE700BF48220020C2072DE985
S21400A2B0F84F04460BD53F4A138801339BB21380F0
S21400A2C0FFF72CFE3C4B1B680BB1FFF741FEA307C4
S21400A2D06DD500F0C7F8394F00263D688046451B0F
S21400A2E0FEF749FBB24683463246334B1C6814B130
S21400A2F06369AB4214D9012E314B51D1D288022A60
S21400A3004ED11E70002C4ED06369C7F800805D1BCE
S21400A3106561FFF71DFE5846BDE8F84FFEF72FBBF8
S21400A32023462A46C7F800805969914209D8187909
S21400A33094F804C0521A844588BF1C469B68002BBC
S21400A340F2D15846FEF71BFBD4F814B0C4F814A09C
S21400A350FEF711FB81462046FFF74EFE4846FEF705
S21400A3600EFB23694BB1FEF706FB814621692046AA
S21400A370FFF7B0FD4846FEF702FBE36813B121681D
S21400A3802046984700F06EF8D844A5EB08058146AD
S21400A3900544FEF7F0FA013683462246C846A4E78F
S21400A3A000221A70AEE7022000F09CF8B3E7BDE882
S21400A3B0F88F00BF422200204C22002038220020C6
S21400A3C04422002010B5FEF7D6FA0022034B1C7874
S21400A3D01A70FEF7D4FA204610BD00BF44220020B3
S21400A3E01FB500241C4B012118689A88029053F868
S21400A3F0060FADF80C201B7900903E208DF8043037
S21400A400FDF7E4FD02A88DF808408DF80C40FEF735
S21400A410C7FE694601208DF80040FEF785FE4FF026
S21400A420904340F2FF319A6922F47F7222F00302D1
S21400A4309A610A4A11609A6A12F00802FBD11A62FF
S21400A4400120FEF78BFE4FF48052054BC3F88021A7
S21400A4501A6004B010BD00BF40F602001420004889
S21400A46000E100E04FF090439A6A1207FCD4186AA5
S21400A470704700004FF09042936A1907FCD4136AA5
S21400A480116C5269520604D4CA1A022A01D899429B
S21400A4900ED1C21A012A98BF981CB0F1FF3F28BF00
S21400A4A001304FF0904318649A6942F040029A6176
S21400A4B0054A13783BB14FF09041CB6B43F0020353
S21400A4C0CB630023137070479A0A002082074FF070
S21400A4D0904200F00103916948BF43F040030B43EC
S21400A4E093617047830700F001020AD50121084BEB
S21400A4F042F0400219704FF09041CB6B23F00303FB
S21400A500CB634FF090418B6923EA02038B6170475F
S21400A5109A0A00204FF0904301285B6904D0022875
S21400A52005D1C3F38010704703F001007047002088
S21400A5307047000010B5FEF71EFA4FF09043044631
S21400A5405B695A06074A03F0010003F0510348BF4F
S21400A55040F002001360FFF7A9FE2046BDE8104059
S21400A560FEF70DBA142000483E20FDF779BD08B569
S21400A570FBF7BCFEFBF7EEFEFBF7EEFEFBF7F5FE89
S21400A580BDE80840FBF7F8BE08B5FBF7F7FEFBF79B
S21400A590F6FEFBF7F5FEBDE80840FBF7F3BE00004D
S21400A5A010B50446FCF762FA4FF47A73B0FBF3F08A
S21400A5B05C43074BB3FBF0F0B4FBF0F40320B4FBB2
S21400A5C0F0F018B1BDE8104000F00AB810BD00BFAA
S21400A5D040420F00000000000000000000000000E5
S21400A5E0013800D0FCE770472420704744207047AD
S21400A5F04C2070479C20704738B50446FEF7B4F9E7
S21400A6000546204624F022FD04462846FEF7B0F90B
S21400A610204638BD70B504460E46FEF7A5F931460D
S21400A6200546204624F0D2FC04462846FEF7A0F94C
S21400A630204670BD38B50546FEF796F9044628460E
S21400A64024F00CFD2046BDE83840FEF791B9002006
S21400A65070470023F0B51C46161F844203D102EB58
S21400A6608402BBB9F0BDD6F804C0ACEB030546F8CF
S21400A670045F51F824700134BD422CBF4FF0000E29
S21400A6804FF0010EED1B9C452CBF73460EF10103E7
S21400A6903560E2E71168C81A994242F8040B2CBFED
S21400A6A000230123DDE72DE9F04384460D464FF0F5
S21400A6B0000E02F14004BCF10F0F54F8408C05F177
S21400A6C0400504F1400400F2BA806FF00F044FEA30
S21400A6D0101C04FB0C004FEA8C1C072801EB0C0531
S21400A6E002EB0C0440F2938051F80C600838A3FB90
S21400A6F006671EEB060E2CBF4FF001094FF000094F
S21400A70018EB0E0142F80C102CBF012200226E68D6
S21400A710B944A3FB06674A4492192CBF01210021C5
S21400A720666801EB070C92194FF0000128BF012163
S21400A7306260AE686144A3FB066789192CBF0122DC
S21400A7400022A66802EB070C89194FF0000228BF0A
S21400A7500122A160EE686244A3FB066792192CBF33
S21400A76001210021E66801EB070C92194FF0000169
S21400A77028BF0121E2602E696144A3FB06678919A0
S21400A7802CBF01220022266902EB070C89194FF024
S21400A790000228BF012221616E696244A3FB06679E
S21400A7A092192CBF01210021666901EB070C921952
S21400A7B04FF0000128BF01216261AE696144A3FB2E
S21400A7C0066789192CBF01220022A66902EB070E34
S21400A7D089194FF0000228BF0122A161EE69724478
S21400A7E0A3FB066792192CBF4FF0010E4FF0000E28
S21400A7F005F1200CE5690EEB070152194FF0000E2B
S21400A80028BF4FF0010E6546E2618E442034214693
S21400A810800005EB000C654551F8042B40F09E8146
S21400A82004442368002213EB0E0328BF012244F8D9
S21400A830043B4FF0010E002AF3D1BDE8F08355F833
S21400A840406CACF1100CA3FB06671EEB060E2CBF8B
S21400A8504FF001094FF000091EEB08062CBF4FF021
S21400A86001084FF0000844F8806C55F83C6CB94479
S21400A870A3FB0667C84418EB06082CBF4FF0010E72
S21400A8804FF0000E54F87C6C0EEB070916EB08062A
S21400A8904FF0000E28BF4FF0010E44F87C6C55F8C0
S21400A8A0386CCE44A3FB06671EEB060E2CBF4FF09B
S21400A8B001084FF0000808EB070954F8787C4FF0C1
S21400A8C0000817EB0E0728BF4FF0010844F8787C05
S21400A8D055F8346CC844A3FB066718EB06082CBF73
S21400A8E04FF0010E4FF0000E54F8746C0EEB070993
S21400A8F016EB08064FF0000E28BF4FF0010E44F886
S21400A900746C55F8306CCE44A3FB06671EEB060E3F
S21400A9102CBF4FF001084FF0000808EB070954F869
S21400A920707C4FF0000817EB0E0728BF4FF00108A9
S21400A93044F8707C55F82C6CC844A3FB066718EBEB
S21400A94006082CBF4FF0010E4FF0000E54F86C6C4A
S21400A9500EEB070916EB08064FF0000E28BF4FF067
S21400A960010E44F86C6C55F8286CCE44A3FB0667C1
S21400A9701EEB060E2CBF4FF001084FF0000808EB48
S21400A980070954F8687C4FF0000817EB0E0728BF3D
S21400A9904FF0010844F8687C55F8246CC844A3FBC3
S21400A9A0066718EB06082CBF4FF0010E4FF0000E9E
S21400A9B054F8646C0EEB070916EB08064FF0000E11
S21400A9C028BF4FF0010E44F8646C55F8206CCE4456
S21400A9D0A3FB06671EEB060E2CBF4FF001084FF0D8
S21400A9E0000808EB070954F8607C4FF0000817EBE6
S21400A9F00E0728BF4FF0010844F8607C55F81C6C21
S21400AA00C844A3FB066718EB06082CBF4FF0010EE0
S21400AA104FF0000E54F85C6C0EEB070916EB0806B8
S21400AA204FF0000E28BF4FF0010E44F85C6C55F84E
S21400AA30186CCE44A3FB06671EEB060E2CBF4FF029
S21400AA4001084FF0000808EB070954F8587C4FF04F
S21400AA50000817EB0E0728BF4FF0010844F8587C93
S21400AA6055F8146CC844A3FB066718EB06082CBF01
S21400AA704FF0010E4FF0000E54F8546C0EEB070921
S21400AA8016EB08064FF0000E28BF4FF0010E44F8F4
S21400AA90546C55F8106CCE44A3FB06671EEB060EEE
S21400AAA02CBF4FF001084FF0000808EB070954F8D8
S21400AAB0507C4FF0000817EB0E0728BF4FF0010838
S21400AAC044F8507C55F80C6CC844A3FB066718EB9A
S21400AAD006082CBF4FF0010E4FF0000E54F84C6CD9
S21400AAE00EEB070916EB08064FF0000E28BF4FF0D6
S21400AAF0010E44F84C6C55F8086CCE44A3FB066770
S21400AB001EEB060E2CBF4FF001084FF0000808EBB6
S21400AB10070954F8487C4FF0000817EB0E0728BFCB
S21400AB204FF0010844F8487C55F8046CC844A3FB71
S21400AB30066718EB06082CBF4FF0010E4FF0000E0C
S21400AB4054F8446C774416EB08064FF0000E28BF06
S21400AB504FF0010E44F8446CBE44ACE555F8046B67
S21400AB60A3FB06781EEB070E2CBF012600261EEB65
S21400AB7002022CBF4FF0010E4FF0000E464441F883
S21400AB80042CB64447E601F18041013900EB81010F
S21400AB908842034600D970471B680A681BBA12BA77
S21400ABA040F8042B41F80439F2E7002301228360C1
S21400ABB0C0E90023704710B5044668B1806830B11C
S21400ABC06168890001F010FEA068FFF733FD0023DE
S21400ABD00122C4E90023A36010BD42F2107399421B
S21400ABE070B504460D4602D96FF00F0070BD43687D
S21400ABF08B4216D204212846FFF70CFD0646002895
S21400AC00F2D0A16859B16268920024F03EFA6168F9
S21400AC10A068890001F0E8FDA068FFF70BFDC4E915
S21400AC2001560020E2E7884270B505460E4603D07E
S21400AC304C681CB9FFF7BFFF00200DE0631EA000A4
S21400AC405BB96A685C1C3368A2422B600ED2214650
S21400AC502846FFF7C2FF88B170BDB268024452F8BA
S21400AC60042C0438002AECD1013BE9E7A868121B43
S21400AC709200002100EB840024F02BFAA200B168B9
S21400AC80A86824F002FAD7E770B50E4601210446FC
S21400AC90FFF7A3FF054688B9626801469200A068E0
S21400ACA024F017FAA36886EAE672002EA2EBE67294
S21400ACB01A60B4BF4FF0FF3301232360284670BDEF
S21400ACC04368DBB181685A1E9B007AB900204FF0BA
S21400ACD0004351F82210194204D1013020284FEACF
S21400ACE05303F8D1C0EB421020307047C81850F814
S21400ACF0040C043B0028E9D1013AE6E71846704701
S21400AD002DE9F04112F0030418BF0124436804EB58
S21400AD109204A34207468846154608D100213846C5
S21400AD20FFF7B2FF064688B13046BDE8F081FFF770
S21400AD3042FF00230122BB60C7E9002321463846B4
S21400AD40FFF74BFF06460028E8D0EDE7B8F1000F06
S21400AD50EAD0BB68C5EB84002A464146184424F076
S21400AD6094F9002CE0D02146B868FFF70CFFDBE72B
S21400AD70F8B505466C680846A40094421CD2121B1F
S21400AD808E18002124F0A5F93046224600231044F0
S21400AD909A4213D10020F8BDAF6803F0030123F0F8
S21400ADA0030CCE0057F80C10F14011F0FF0F11D134
S21400ADB00133A342F0D1E9E71346FAE7AF6803F0A0
S21400ADC0030123F00306CC00B9590133E14000F833
S21400ADD0011DDDE76FF00700DDE7F8B506460D4616
S21400ADE04C0901F01F07FFF76BFF73682844B0EBB0
S21400ADF0431F03D874B92FBB00200AE010F01F01D0
S21400AE0018BF012101EB50113046FFF7E6FE00287F
S21400AE10F0D0F8BD7368A00003F18042013A121B1F
S21400AE209200A34207D800229B00043B191DE2D0E3
S21400AE30B168CA50F9E7B168013B8D5811440D500E
S21400AE40043AEEE70021D6F804C0A300C7F1200EAE
S21400AE50A445D1D9B5680134E85800FA07F20A4388
S21400AE60EA5020FA0EF10433F2E74368F0B44D09D5
S21400AE70AB4203D301F01F0104D169B3F0BC00213B
S21400AE80FFF702BFE5B929B100259A00C1F1200CF1
S21400AE90043ABBB9F0BC002070478468561954F8D1
S21400AEA0266044F8226001325C1B9442F5D80025E7
S21400AEB0A200A342E7D986680134B5500432F8E709
S21400AEC00022F1E78768013BBE5826FA01F42C43BE
S21400AED0BC5006FA0CF5DBE7002BDBD00A46E3E7AE
S21400AEE070B543689A0033B94A68940062B9181C72
S21400AEF018BF012016E08468144454F8044C043A41
S21400AF00002CF1D1013BEEE78D682E1956F8046C43
S21400AF10043C0EB9013AE9E793420DD80ED39A00E5
S21400AF200BB9184670BD8168043A8C58A9588C42F3
S21400AF3002D803D3013BF3E70120F3E74FF0FF30DD
S21400AF40F0E770B543689A0023B94A68940052B98E
S21400AF509BB924E08468144454F8044C043A002C4A
S21400AF60F3D1013BF0E78D682E1956F8046C043CCB
S21400AF700EB9013AEBE7934202D90268104670BD5B
S21400AF80096801D24A42F9E70268002A01DD002971
S21400AF9012DB002901DD002A10DB99000BB91A46E6
S21400AFA0ECE78468043966586C58A642E6D801D2A5
S21400AFB05242E3E7013BF1E70122DFE74FF0FF32C1
S21400AFC0DCE71FB581EAE173A3EBE1730029009388
S21400AFD0B4BF4FF0FF3301230193012301A902936D
S21400AFE0CDF80CD0FFF7ADFF05B05DF804FB90423E
S21400AFF02DE9F04106460C46154602D0884231D16E
S21400B0002C460123D4F8048033604FEA8803B8F155
S21400B010000F2FD141463046FFF7DFFD074630BB15
S21400B020B368D4F808E0194604460546A8452BD16F
S21400B03003EB8503DCB1726805F10108AA4207D864
S21400B04041463046FFF7C9FD80BBB36803EB850376
S21400B0501A680021141928BF012143F8044B4546FD
S21400B0600C46E7E7FFF7DFFD07460028C8D038465E
S21400B070BDE8F081A2681A4452F8042C043B002A6A
S21400B080C8D108F1FF38C2E70A685EF8250014192F
S21400B0904FF0000C28BF4FF0010C241841F8044B69
S21400B0A02CBF0124002401356444BFE70746DEE7D1
S21400B0B0F0B50F4685B00646114638461546FFF7EA
S21400B0C00FFF00282FDB00230122B542CDE9012324
S21400B0D0039306D1294601A8FFF7A5FD0446A0B9AB
S21400B0E001ADB7420AD101236868A96833608300BE
S21400B0F088B9B268FFF7ADFA002406E03946304654
S21400B100FFF791FD04460028EDD001A8FFF753FD98
S21400B110204605B0F0BDCA1852F8042C043B002A9D
S21400B120E7D10138E4E76FF00904F1E7F8B50C68F9
S21400B1301368054663430F46164616D5114638462D
S21400B140FFF7CEFE002806DB324639462846FFF7D4
S21400B150AFFF40B1F8BD3A4631462846FFF7A8FF94
S21400B1600028F7D164422C60F4E7FFF740FFF0E7D1
S21400B170F8B50C68136805466343002B0F46164661
S21400B18016DD11463846FFF7ABFE002806DB3246D2
S21400B19039462846FFF78CFF40B1F8BD3A4631469F
S21400B1A02846FFF785FF0028F7D164422C60F4E7B5
S21400B1B0FFF71DFFF0E71FB582EAE273A3EBE27329
S21400B1C0002A0093B4BF4FF0FF33012301930123FD
S21400B1D001AA0293CDF80CD0FFF7CAFF05B05DF8C0
S21400B1E004FB2DE9F04700231546012286B088426D
S21400B1F080460E46CDE90023CDE90232CDE9043380
S21400B20005D16846FFF70FFD044650BB6E46A845BD
S21400B21006D1414603A8FFF706FD044608BB03AD6A
S21400B220D6F804904FEA8903B9F1000F23D16F686E
S21400B230BB0057BB09EB07014046FFF7CEFC0446B0
S21400B24078B901464046FFF71FFD044648B94FEA65
S21400B250870AAAF1040A0FBB32682B685343C8F862
S21400B260003003A8FFF7A7FC6846FFF7A4FC2046BB
S21400B27006B0BDE8F087B2681A4452F8042C043BC6
S21400B280002AD4D109F1FF39CEE7AA681A4452F849
S21400B290042C043B002ACDD1013FCAE7AB68D8F89E
S21400B2A0082053F80A305244B1684846FFF7FBF9C5
S21400B2B0013FCEE71FB50123009201AACDE9013375
S21400B2C0CDF80CD0FFF78DFF05B05DF804FB2DE937
S21400B2D0F04F99B001900F46184600219046039310
S21400B2E0FFF76FFE002800F0A481002401250399D3
S21400B2F04046CDE90954CDE90B45CDE90D44CDE9ED
S21400B3000F54CDE91145CDE91344CDE915541794F2
S21400B310FFF7E6FDA04226DA019B2BB9DFB9002431
S21400B320204619B0BDE8F08F21460198FFF7ACFC27
S21400B33004460028F2D009A8FFF73DFC0CA8FFF74A
S21400B3403AFC0FA8FFF737FC12A8FFF734FC15A845
S21400B350FFF731FCE4E741463846FFF764FC044655
S21400B3600028E8D1DBE7414609A8FFF75CFC044665
S21400B3700028E0D10CAE03993046FFF754FC044693
S21400B3800028D8D1D8F804100FA802310C950995DA
S21400B390FFF723FC04460028CDD101460FA8FFF78F
S21400B3A073FC04460028C6D1022112A8FFF715FC3C
S21400B3B004460028BFD1032115A8FFF70EFC04465B
S21400B3C00028B8D13046FFF77BFC00F01F001F288E
S21400B3D074D0C0F11F03194609A80293FFF7FDFCBD
S21400B3E004460028A7D102993046FFF7F6FC04462B
S21400B3F00028A0D10A9DDDF834A005F1FF390AF136
S21400B400FF33A9EB030B00934FEA4B131946304664
S21400B4100493FFF7E2FC044600288CD14FEA8B0B1E
S21400B420314609A8FFF78DFD002849DA0499304611
S21400B430FFF71BFD044600287FF47DAF009B05F157
S21400B44080454FEA830BABF1040307936FF00303C9
S21400B45003FB0AF3013D0693CAEBCA63AD000593EE
S21400B460009B99453BD8019B5BB10FA91846FFF797
S21400B470DAFB08BB039BD8F800201B685343019AED
S21400B4801360002F3FF457AF029909A8FFF7EDFCB1
S21400B49090B9D8F8003009A938460993FFF7C3FBDE
S21400B4A00146002840F0C3803846FFF78AFD002892
S21400B4B07FF441AF01233B6004463CE7029499E7E2
S21400B4C0119951F80B20013241F80B2009A9324698
S21400B4D00846FFF74DFE04460028A1D02BE70B993F
S21400B4E00E9A06984B5952F80B2046199342A5F12E
S21400B4F004000490DDF844A07ED34FF0FF334AF8F2
S21400B50006305AF8063001334AF80630A5F1080A24
S21400B510119A0021935912A8013B9351FFF7B4FBEF
S21400B5200028C9D1009B0E9A002B7ED0079BD158CD
S21400B530149B196052F80B2012A95A60119B0846FA
S21400B5409A59FFF7B7FE0146002870D115A8FFF7F5
S21400B5509BFB0028B0D10B9AB9F1010F18BF52F827
S21400B5600A00179B04991860515812A8596052593E
S21400B57015A99A60FFF7E5FC0028C9DC119B0CA909
S21400B5809A5912A8FFF796FE002895D1059B12A897
S21400B59003EB090A4FEA4A1A5146FFF71EFC002839
S21400B5A08AD109A9084612AAFFF7E2FD014600283B
S21400B5B03DD109A8FFF705FD002819DA0CA912A845
S21400B5C0FFF731FB00287FF477AF514612A8FFF74C
S21400B5D004FC00287FF470AF09A912AA0846FFF7FA
S21400B5E0A5FD00287FF468AF119A9359013B93514B
S21400B5F009F1FF39043D33E7049851F800C08AB1D9
S21400B60019460023184640EA0C0023F055FB002399
S21400B6104FF0FF328B4208BF824200D210464AF8F3
S21400B62006006EE74FF0FF30F9E7009980E70C461A
S21400B63081E66FF00B0473E670B504460D461046BF
S21400B64000211646FFF7BDFC002824DB2A463346B9
S21400B65021460020FFF73BFE054638B1284670BD60
S21400B660324621462046FFF761FD90B9002120466C
S21400B670FFF7A7FC0028F3DB31462046FFF761FC06
S21400B6800028EBDB324621462046FFF771FD0028F6
S21400B690F2D00546E2E76FF00905DFE718B112B110
S21400B6A01160002070470148704700BF009FFFFFF1
S21400B6B0054B53F8042C22B1083313F8101C8142B2
S21400B6C0F7D11046704700BF40F8020010B5044698
S21400B6D098B1006C28B1242101F086F8206CFEF7A2
S21400B6E0A9FFE06B18B123689B691B6A9847204640
S21400B6F0BDE81040442101F077B810BD30B40468AE
S21400B700B4B12569AD0702D46568954210D1012B06
S21400B7104260037203D06578033D022D04D8A36906
S21400B7205B69C06B30BC184713B9A3699B69F8E71F
S21400B730014830BC704700BF009FFFFF2DE9F04F67
S21400B7401546026885B004460F469946DDF83880EF
S21400B7501AB9624805B0BDE8F08F0021C8F800109D
S21400B7605669002E00F0B380517801290FD1B542FA
S21400B77040F0AF809269C8F8005055683A46AC462B
S21400B78090F90810C06B05B0BDE8F04F60479F42C7
S21400B79008D1436A002BDCD1B5FBF6F306FB135346
S21400B7A0002BD6D102296ED194F90830606A7BB995
S21400B7B0E268331A7AB1AB420FD314302A463946C0
S21400B7C0204423F062FC636A1D4465620020C1E7E2
S21400B7D0012B02D1331AAB42EFD810B3A6EB000A06
S21400B7E0143052463946204423F04FFC234653F883
S21400B7F0142B94F908109269CDE90039E06BD2F861
S21400B80008B004F128033246D8470028A2D1D8F859
S21400B8100030B1443344C8F8003057446062A5EBAA
S21400B8200A05002DD2D0B5FBF6FA06FB1A5ABAF175
S21400B830000F06D194F908301BB9E368002B18BF37
S21400B840B246A5EB0A055246791904F1140023F016
S21400B8501CFC636A53446362002DB7D0236894F9D6
S21400B86008109B69CDE900792A469E68E06B04F1D2
S21400B8702803B04700287FF46DAFD8F800301D4489
S21400B880C8F8005066E7032910D19369CDE901791D
S21400B89004F128020092DE6894F9081004F12403EB
S21400B8A02A46E06BB0470028EAD053E7052912D1B4
S21400B8B09369CDE9017904F1140200921E6904F13E
S21400B8C0240204F128032946E06BB047EBE704485E
