S0170000736F635F656D7074795F434C49454E542E733337EC
S2140060000008002089690000856900008569000095
S214006010E98900008569000085690000856900003F
S21400602085690000856900008569000085690000B3
S214006030856900004CD5020085690000856900006E
S2140060408569000085690000856900008569000093
S2140060508569000085690000856900008569000083
S2140060608569000085690000856900008569000073
S2140060704996000085690000856900008569000072
S2140060808569000085690000856900008569000053
S2140060908569000085690000856900008569000043
S2140060A085690000616E0000396E00008569000099
S2140060B085690000C1B6020085690000C1C1020002
S2140060C071C102006DC102008DB80200BDC10200A0
S2140060D075C1020095C1020079C102001DC202000E
S2140060E0C99D0200759F020005C202008569000076
S2140060F085690000856900008569000085690000E3
S21400610085690000856900008569000085690000D2
S21400611085690000856900008569000085690000C2
S21400612085690000856900008569000085690000B2
S21400613085690000856900008569000085690000A2
S21400614010B5054C237833B9044B13B1044800E06E
S21400615000BF0123237010BD540B00200000000078
S2140061604820030008B5034B1BB10349034800E071
S21400617000BF08BD00000000580B002048200300A8
S214006180154B002B08BF134B9D46A3F5803A002104
S2140061908B460F461348144A121A26F04CFF0F4B34
S2140061A0002B00D098470E4B002B00D098470020BD
S2140061B0002104000D000D48002802D00C4800E025
S2140061C000BF26F0D1FE2000290000F025FA26F0B8
S2140061D0B7FE00BF00000800000800200000000016
S2140061E000000000540B0020D0310020000000000A
S2140061F00000000003681A782AB15A88012001328C
S2140062005A800AF077BE70472DE9F0412E4CC0B098
S21400621000F052FC204600F039FC61682B4DC1F3BB
S21400622007422B48090E08F0ABFB2946002000F079
S21400623077FC0446A0B9D5E90012264808F0A0FB72
S2140062406E682546DFF8A88026F0FF06AE4237D9EE
S21400625074B12146204808F093FB40B0BDE8F081B9
S21400626001461E4808F08CFB1D4808F089FBF4E741
S21400627020464FF480736A46294600F05FFC0446C9
S214006280E0B903461DF80320FF2A15D10133B3F504
S214006290807FF7D1002705F58075404608F070FB33
S2140062A0002FD3D0002CD4D10E4808F069FB20462E
S2140062B000F06CFC0C48D8E70127ECE70027ECE779
S2140062C0002CC6D10948D0E7700B00208C0B0020AC
S2140062D03FD2020061D20200FAD202008AD2020045
S2140062E0B6D2020014D302003DD3020044D302000B
S2140062F0F8D202007047000030B50368A94A23F4BC
S2140063007F4323F0070393428BB0044600F0F980E6
S2140063101ED8A2F10172934200F0A78002F18072AB
S214006320934200F0B980A04A934240F0B3800DF14A
S214006330170106A81CF09AFF0446002835D09B4992
S2140063409B4808F01DFB21469A4808F019FBFEE71B
S214006350994A934200F0178102F17D7202F54032AD
S214006360934200F0BB8002F17C42934240F0928060
S214006370924B42681A70924B1B78002B00F08A8072
S214006380012A40F08780A5238E4C104623708E4B42
S2140063901521009323461CF039FF21788B4808F01E
S2140063A0EFFA8B4800F0B7FC74E09DF81D3001460C
S2140063B08DF820309DF81C3008228DF821309DF88D
S2140063C01B3012208DF82230FF238DF82330FE2359
S2140063D08DF824309DF81A308DF825309DF8193048
S2140063E08DF826309DF818308DF8273008AB1CF055
S2140063F0BFFE044640B16D496D4808F0C1FA21461B
S214006400744808F0BDFAFEE7734D28461CF0ECFD14
S214006410044640B16549664808F0B2FA21466F481E
S21400642008F0AEFAFEE7A02228782346009411462C
S2140064301CF000FE044640B15C495D4808F0A0FA36
S2140064402146674808F09CFAFEE7022228781146A3
S2140064501CF01AFE0446E8B15449554808F090FA74
S2140064602146604808F08CFAFEE75F4808F088FA94
S214006470217B524C5D48217008F082FA4FF6FF727D
S21400648000232078CDE901320A2200920622114626
S2140064901CF01CFE0BB030BD8188554808F070FA21
S2140064A0544B1B7843B1544808F06AFA002000F0B9
S2140064B07BFB00F01DFBEDE70222474B11461878E8
S2140064C01CF0E2FD04460028E4D03849384808F0BD
S2140064D057FA2146434808F053FAFEE7474B1B7825
S2140064E0002BD7D0464B1A88013292B21A80454B01
S2140064F019689302C800B0FBF3F3434808F040FA6B
S214006500C8E7B0F80530152B25D1C37A05792BB12D
S214006510032B11D028461CF00BFE07E0394A3B48F7
S21400652013600122354B1A7008F02AFA0022152152
S21400653028461CF049FEADE70022304B34481A705E
S21400654001222C4B1A702F4B196808F019FA2048B4
S21400655000F0E4FBDEE7182B9CD1284B1B78002BC1
S21400656098D0284D837A00F10B022968002000F0AD
S214006570F9FA2A68A17A274808F002FA2A68A37A64
S21400658013442B6086E7B0F80530152B82D1C3790B
S214006590012B7FF47FAF0289002A08BF1346084A02
S2140065A0137077E7A0000A02A000010030D20200B4
S2140065B05DD3020063D30200A0000A034027002038
S2140065C0800B00207C0B00207E0B002033D50200C1
S2140065D064D8020090D3020000080020B7D302005F
S2140065E0E5D3020013D402003CD4020050D40200CB
S2140065F068D40200810B00208DD40200880B002096
S2140066008A0B0020840B0020A4D40200C2D402000F
S214006610E0D402000FD5020008B503F032F8FFF709
S214006620F3FD03F03BF8FFF765FE02F015FBF8E715
S21400663008B50B480AF028FB1CF0C8FC1CF07EFCD2
S2140066401CF097FC1CF0B0FC1CF081FC1CF09AFCC3
S2140066501CF0A1FC1CF084FCBDE808401CF0ADBC9E
S21400666020D802000120704700B54FF48270C3B0F6
S214006670FFF7F8FF30B101A81CF0B1FC10B901A873
S214006680FFF73AFE43B05DF804FB08B5012000F0C2
S214006690B9F8202000F0B6F8BDE80840402000F029
S2140066A0B1B808B50321802001F044F908214FF461
S2140066B0C06001F03FF908214FF4F06001F03AF9AC
S2140066C008213E2001F036F908212D2001F032F98C
S2140066D0002008BD08B501F099FF01F0C3FFBDE832
S2140066E0084002F0E9B80000164B10B51B68C3F36B
S2140066F00743012B10D1144B4FF48022596E41F200
S214006700640049034FF0040458BF42F264011A5073
S2140067100E48046058BF5A5000F09DF801F0BCFEC9
S21400672001F0DCFE01F008FF01F00CFFFFF7B9FFF7
S21400673001F0C2FE00F084F800F0A6FBBDE81040B1
S21400674002F0AAB90080E00F00800040202001403F
S21400675008B500F04BF8BDE8084000F04DB808B5A5
S21400676002F0F0FCFFF7B6FF07F01DFABDE80840A0
S21400677002F0D8B808B501F069FE01F06DFEBDE87C
S2140067800840FFF755BF704770477047FFF76CBF6C
S2140067907047012070470120704710B50AF052FA82
S2140067A00446FFF7F6FF002814BF2046002010BD61
S2140067B038B502F091FE04460AF052FA042810D0CA
S2140067C002284FF0000508BF0124FFF7E4FF042865
S2140067D009D0022808BF0124002D18BF0024204637
S2140067E038BD0125F1E70024F9E70000014800F074
S2140067F007BA00BF54D80200014800F089BA00BFAB
S21400680064D80200082808B50DD004DC0138012839
S21400681009D90E2013E020280AD04028F9D10023F9
S2140068200422194602E0042200231146184603E01B
S214006830042200231146012001F0A8FB002008BD19
S21400684008B501213A2000F0E7FCFFF71EFFBDE87F
S214006850084000F005B801213A2000F0DDBC000039
S2140068602DE9F04786B06C46424DDFF814810FCD17
S2140068700FC495E80300012584E8030001213A20AF
S21400688000F0CAFC0121282000F0C6FC3A4B6946FD
S214006890404602938DF80E5001F0AAFC2B460422C7
S2140068A00021022001F072FB2A462946002302201E
S2140068B001F06CFB02212B460846042201F066FB21
S2140068C0042203212B46022001F060FB4FF0021346
S2140068D02A4C0226C4F83036A3F58033C4F82C368A
S2140068E01C23082742F2700A41F27009C4F8346685
S2140068F04FF44870C4F81C3602F0DCFE44F80A7008
S214006900142002F0D7FE44F80970232002F0D2FECD
S21400691044F80A70B921404601F0C4FC0023304612
S2140069201A46194644F8097001F030FB0023294640
S2140069301A46304601F02AFB2B46314630460022E6
S21400694001F024FB2B4600220321304601F01EFBFB
S214006950404601F01FFC00212820C4F83016C4F879
S2140069602C16C4F83416C4F81C1600F055FC06B0F5
S214006970BDE8F0877CD8020000127A0000C0034011
S21400698000C00540FEE7000008B500F013F8064A10
S214006990064B07498B4201D3FFF7F2FB52F8040F70
S2140069A043F8040BF6E700BF4C2003000008002065
S2140069B0540B0020044B054A9A60D3F8882042F412
S2140069C07002C3F88820704700ED00E00060000009
S2140069D0084B1B6F03F00703022B04D0032B05D0D4
S2140069E0012B05D0FEE7044B18687047034BFBE706
S2140069F00348704700800040240800202808002034
S214006A00002D310108B5FFF7E3FF054B1B6FC3F3FD
S214006A1003330133B0FBF3F0024B186008BD00BF30
S214006A2000800040200800200048704700B4C404DE
S214006A30014B1868704700BF28080020054B1860F7
S214006A40054B1B6F03F00703032B01D1FFF7DABFDB
S214006A50704700BF2808002000800040014B1868DF
S214006A60704700BF24080020002070470048704789
S214006A70002D31014FF4004070474FF47A70704794
S214006A80014B1868704700BF2C08002028231B689D
S214006A90B3F5C04F03D21968064A914203D00023CB
S214006AA0037083607047012202709A689B69426097
S214006AB0F7E700BF07B0CD5E70B528242368B3F5AE
S214006AC0C04F0DD201F07DF80122084B1D781A70D8
S214006AD001F07BF83DB92368BDE87040DB691847D4
S214006AE04FF4817070BD0020FCE700BFB10B0020A2
S214006AF04FF00053074A1A60BFF34F8F0649074B03
S214006B00CA6802F4E0621343CB60BFF34F8F00BF46
S214006B10FDE700BF02020FF000ED00E00400FA05FA
S214006B2028231B68B3F5C04F05D21B6BB3F5C04FC7
S214006B3001D29B6818474FF48170704710B4282420
S214006B402468B4F5C04F08D2246BB4F5C04F04D205
S214006B50E468A4465DF8044B60474FF481705DF826
S214006B60044B704710B428242468B4F5C04F08D2EC
S214006B70246BB4F5C04F04D22469A4465DF8044BD8
S214006B8060474FF481705DF8044B704728231B68FC
S214006B90B3F5C04F05D21B6BB3F5C04F01D25B698E
S214006BA018474FF481707047282307B51B6801907B
S214006BB0B3F5C04F0AD21B6BB3F5C04F06D29B6924
S214006BC0012101A8984703B05DF804FB4FF48170DB
S214006BD0F9E700230360704703680B6001607047A5
S214006BE0054A06491368184488428CBF4FF0FF33A5
S214006BF010601846704700BF300800200080002054
S214006C0043680BB1006818472220704700220F4BDC
S214006C1070B41C780E4ED3B29C4201D870BC70473C
S214006C2056F82250013229684B798342F3D130243A
S214006C300B79084A5C4322441368C340DB4303F0E5
S214006C4001030B70284670BCFFF7D4BA50D8020078
S214006C501808002014C0034013B5044601213A204A
S214006C6000F0DAFA002301226179207901F08EF92A
S214006C70302223795A430E4B9B586279D340DB432C
S214006C8003F001032370A379022B0DD100F0B8F8AE
S214006C900849607900F0C2F8012362792079CDE9CD
S214006CA00033114601F01EF9002002B010BD00BFEF
S214006CB014C003400D6C0000007870473022037942
S214006CC081795A43114B01299A58437922FA03F2E3
S214006CD015D1438802F001025B0063F03F039BB2CC
S214006CE013434FF6E072934202D10170438070471F
S214006CF04FF6DF72934204BF00220270F6E719B91E
S214006D00D24302F001020270704700BF14C0034075
S214006D10D0E900031847836800681847C36800680E
S214006D20184710B5044601213A2000F075FAA378FA
S214006D302078B3FA83F304225B09617801F026F920
S214006D40002010BD10B501224178037884783020E9
S214006D508A40054900FB03131CB942F210015A5041
S214006D6010BD41F21001FAE700C0034010B5012241
S214006D7041780378847830208A40054900FB031365
S214006D801CB941F210015A5010BD42F21001FAE748
S214006D9000C003400122437801789A4030234B43D9
S214006DA043F2100103F1804303F570335A507047E5
S214006DB0302203785A43064B9B584278D340827859
S214006DC003F001030AB983F001031846704700BFB9
S214006DD010C0034070B504460125084E04B970BDC6
S214006DE094FAA4F0B0FA80F005FA00F324EA03045B
S214006DF056F82030002BF1D09847EFE7B40B002070
S214006E004FF00072044BC3F880211A604FF0806286
S214006E10C3F880211A60704700E100E038B50446E8
S214006E200D4600F0CEFE034B43F82450BDE8384034
S214006E3000F0CBBEB40B0020084BD3F82404D3F8E4
S214006E402024104042F2204220F42A5020F02A004B
S214006E504004400C9850FFF7BDBF00BF00C0034081
S214006E60084BD3F82404D3F82024104042F22042E2
S214006E7020F4AA4020F055000004000C9850FFF7BC
S214006E80A9BF00BF00C00340024B1968024B186838
S214006E9009F09EB938080020340800207047002307
S214006EA010B59A4201D1002010BD50F8234041F899
S214006EB023400133F5E7000070B5940022460546EE
S214006EC00E4626F0A5F9431C02D018B1064800E08D
S214006ED0064870BD22463146284626F079F8002836
S214006EE0034808BF0020F4E724E000F021E000F0AB
S214006EF010E000F013B5044601A801F025F99DF84E
S214006F000630012223804FF4807300206380054BF7
S214006F109B680A3303F01F0302FA03F3636002B0B0
S214006F2010BD00BF0080E00F01F086B808B501F084
S214006F306FF8002008BD000010B5044626F060F982
S214006F40431C02D018B10C4800E00C4810BD0C4B96
S214006F5020469B680A3303F01F020123934023F068
S214006F6003032344984201D10020EFE750F8042B96
S214006F700132F7D00348E9E724E000F021E000F012
S214006F800080E00F0EE000F008B500F013FE014BA5
S214006F90186008BD98270020014B186800F00EBE48
S214006FA098270020054A1368DB06FCD44FF04023E0
S214006FB0D3F88400C0F38110704700BF84400040BF
S214006FC038B5104B0546D3F820310C4603F00303C2
S214006FD0022B0BD0032B0DD0012B0FD1FFF73EFD5C
S214006FE0052305B1286004B1237038BDFFF720FDE6
S214006FF00323F6E7FFF73AFD0223F2E700231846DD
S214007000EFE700BF0080004073B50D4600210E4B31
S2140070100191D3F88041064604F00304012C08D001
S214007020022C0BD00EB1019B336005B1297002B063
S21400703070BD01A8FFF7C4FF0D21F3E7FFF716FDAB
S21400704021460190EEE700BF0080004038B5174BA0
S2140070500546D3F824310C4603F00703013B052B05
S21400706020D8DFE803F0030F171B0B13FFF7F6FC1F
S214007070052305B1286004B1237038BDFFF7EEFC88
S2140070800623F6E7FFF7D4FC0323F2E7FFF7D0FC6E
S2140070900423EEE7FFF7EAFC0223EAE7FFF7E4FC47
S2140070A00723E6E700231846E3E700BF008000401A
S2140070B038B5104B0546D3F840310C4603F00303B1
S2140070C0022B0BD0032B0DD0012B0FD1FFF7D2FCD8
S2140070D0092305B1286004B1237038BDFFF7D0FC42
S2140070E00823F6E7FFF7C9FC0A23F2E70023184651
S2140070F0EFE700BF0080004038B5134B0546D3F8D5
S21400710000320C4603F00703013B032B18D8DFE8D8
S21400711003F0020A0E12FFF7ADFC092305B1286042
S21400712004B1237038BDFFF7ABFC0823F6E7FFF782
S214007130A4FC0A23F2E7FFF765FC0C23800AEDE7C0
S21400714000231846EAE700BF0080004038B5104B21
S2140071500546D3F840320C4603F00303022B0BD04F
S214007160032B0DD0012B0FD1FFF784FC092305B1AB
S214007170286004B1237038BDFFF782FC0823F6E7C9
S214007180FFF77BFC0A23F2E700231846EFE700BF71
S2140071900080004038B5104B0546D3F860310C46E9
S2140071A003F00303022B0BD0032B0DD0012B0FD1C2
S2140071B0FFF760FC092305B1286004B1237038BDD1
S2140071C0FFF75EFC0823F6E7FFF757FC0A23F2E713
S2140071D000231846EFE700BF008000400D4B10B4B8
S2140071E0D3F820320A4603F00303012B0AD0022B01
S2140071F00CD008B1002303600AB1002313705DF8B9
S214007200044B70475DF8044BFFF7DABE5DF8044B9D
S214007210FFF74EBF00800040430910B507D0012B92
S2140072200FD00A4C0A4A022B14BF2346134600F01E
S2140072301F0041B103F58053012202FA00F01860E6
S21400724010BD044BF3E703F50053F5E760820040FA
S2140072506880004064800040B0F5007F18D005D8F4
S21400726080B1B0F5C07F0DD000200FE0B0F5207FD4
S21400727014D0B0F5607FF7D10B4BD3F88000C0F385
S214007280011003E0084B186FC0F30330013070475D
S214007290054BD3F89000C0F30460F7E7024B186F75
S2140072A0C0F38020F2E700BF00800040002313B543
S2140072B03E280446019300F0B18042D82B2828D0FF
S2140072C01FD8232813D00CD8202849D004D800284B
S2140072D046D0019802B010BD212808D022283FD001
S2140072E0F7E7292800F290802828C0F08380FFF76F
S2140072F089FB02464FF42070FFF7AEFFB2FBF0F0BA
S21400730071E0312810D82F28F1D22D2800F0818086
S21400731056D9FFF777FB02464FF42070FFF79CFF25
S214007320B2FBF0F040085EE03C2855D83A28DED2A2
S214007330382864D03928CCD1002101A8FFF786FE72
S214007340C7E7B0F5007F50D01BD8522852D00AD8D5
S2140073504D2805D002D83F28C9D0BAE74F28B8D361
S214007360FFF750FB3FE080283BD004D8A0F1600434
S214007370012CF5D9ADE7B0F5807F21D0B0F5C07F00
S214007380ADE7B0F5A06F3AD010D8B0F5607F2CD03E
S21400739006D8B0F5207FAAD0B0F5407FB9D098E7E0
S2140073A0B0F5806F26D0B0F5906FC4E7B0F5D06F1B
S2140073B02FD00AD8B0F5B06F26D0B0F5C06F88D100
S2140073C0002101A8FFF774FE83E7B0F5E06F25D033
S2140073D0B0F5F06F7FF47DAF002101A8FFF7DAFE6D
S2140073E077E7FFF7F5FA019073E7FFF7F1FA024641
S2140073F0204681E7002101A8FFF7E2FD69E70021AA
S21400740001A8FFF7EBFE64E7002101A8FFF7FCFDEB
S2140074105FE7002101A8FFF76FFE5AE7002101A8E9
S214007420FFF794FE55E7000008B58020FFF73EFF03
S214007430044B98429FBF42F270034FF48031024AD9
S214007440D15008BD005A62020080004038B505469B
S21400745041F268034FF400300D4AD0500020FFF789
S214007460FBFE41F671320B4B6843DC690A4DDA636A
S2140074709A68A84204F4803422F4401203D9012901
S21400748018BF42F480129A600CB10022DA6338BD4D
S2140074900080004000000340005A620208B5FFF773
S2140074A0C3FABDE808400021FFF7D0BF002307B5A8
S2140074B0B0F5807F8DF8073011D030D82D2800F039
S2140074C0828012D82A2841D007D82438032831D9F8
S2140074D09DF8070003B05DF804FB2C28F8D10DF1E9
S2140074E007010020FFF7E4FDF2E73D285FD007D84C
S2140074F03828EDD10DF107010020FFF76FFEE7E712
S2140075003E2833D08028E3D1374B1B6F03F00703A8
S214007510013B032BDCD8DFE803F048444262B0F5B9
S214007520C06FDCD018D8B0F5906F46D008D8B0F54C
S214007530806FCDD10DF107010020FFF741FDC7E7B1
S214007540B0F5A06FD6D0B0F5B06FC1D10DF1070180
S2140075500020FFF759FDBBE7B0F5F06F27D00BD83A
S214007560B0F5D06F2FD0B0F5E06FB1D10DF10701B7
S2140075700020FFF7EBFDABE7B0F5006F1DD0B0F5D0
S214007580086FA5D1184BD3F8003103F00303022B84
S2140075901FD0032B21D0012B23D1FFF749FA032359
S2140075A000E005238DF8073092E70223FAE70DF195
S2140075B007010020FFF7EEFD8AE70DF10701002026
S2140075C0FFF744FD84E70DF107010020FFF794FD67
S2140075D07EE7FFF755FA0823E4E7FFF745FA0723A7
S2140075E0E0E70123DEE700BF0080004008B5FFF7B4
S2140075F05DFF082804D0092805D04FF6FF7001E08B
S214007600094B188808BD41F264034FF40011074A7D
S2140076104FF6FF70D150064B5B6A13F0010F18BF90
S2140076204FF4FA70EEE700BF5808002000800040D4
S21400763000400240F8B504468020FFF737FF0328D5
S21400764000F0858041F264034FF40021464AD15091
S21400765045F60E0302F58042C2F88030022141F260
S2140076602803D15042F228030121D150916D11F424
S2140076708031FBD1637820781B0543EA0063A0794C
S2140076803A4E0343E078657C43EA0043207943EAB8
S2140076900033607943EA80131361237AE0791B068E
S2140076A043EA8063E07A0343607A43EA0043A07AC1
S2140076B043EA00239361637B126A002B18BF0821FC
S2140076C0207B22F00D0243EA020343EA800341EAEC
S2140076D00301A37B31624FEA431CE37B207C4FEA25
S2140076E00317314634D1B26A214B22F0330242F0FE
S2140076F0010242EA0C023A43B2628A6D33EA02029F
S214007700FBD1022341F228028B50184A0B65936D79
S2140077105B00FCD41169A37821F4700141EA03519F
S214007720116141F218034FF00041D15018B942F2EE
S21400773028030221D15025B942F2280301210B4A21
S214007740D150A37C1BB1094B0A4AC3F88020F8BD70
S214007750B36A23F033032B4343EA0C033B4343EA69
S2140077604003B362EDE700BF0080004000C0004069
S21400777003000140F1A7FFFFF0B541F264034FF4A8
S21400778080071B4E41788478C2780578F7504FF40E
S214007790D156184B02275E6241F204064F299F51CC
S2140077A042F204064FF0010728BF4F219F511E6981
S2140077B0F603FCD441EA052159611201417942EAF7
S2140077C004220A43017942EA41029A60C279817929
S2140077D0120142EA4112417A0A43017A42EA410220
S2140077E05A60827A12B16FF4D1525A62F0BD00BF6D
S2140077F00080004000000240014B1880704700BF28
S2140078005808002010B50446FFF712F941F2640349
S2140078104FF40011094AD1500222094B5A609A6867
S21400782012F48032FBD1012C18BF5A624FF00002CE
S21400783008BF5C62024B5A6010BD00BF008000406B
S214007840004002400029CCBF01210021FFF7FEBD09
S21400785010B50446FFF722FE00F054F841F270031C
S2140078604FF480310C4A013CD150106F20F4704028
S21400787040EA04301067FFF7C5F80446FFF792FBAE
S214007880C0F102012046FFF7DDFF00F041F8BDE839
S2140078901040FFF7C9BD00BF00800040B0F5007F74
S2140078A01AD004D850B1B0F5C07F07D07047B0F5F5
S2140078B0207F1CD0B0F5607F03D070470846FFF7E6
S2140078C0C7BF0F4A0139D2F8803023F0300343EAAD
S2140078D00111C2F880107047094A0139D2F8903079
S2140078E023F0F85343EA0161C2F890107047044A47
S2140078F00139136F23F4806343EA812111677047CF
S2140079000080004002214FF42070FFF7C7BF000040
S21400791008B54FF4C070FFF7C9FCBDE8084004493D
S21400792088428CBF022101214FF42070FFF7B6BFBA
S21400793080F0FA02B0F5807F70B50C460DD040D8C6
S2140079402D2800F0128119D82A285DD003D82438B3
S214007950032842D970BD2C28FCD1083CE4B2022C86
S2140079608CBF00218A4B8B4A98BF195DD2F84031F4
S21400797023F003030B43C2F84031EBE73D2800F049
S214007980D28011D83828E5D10D2C00F0FF800E2CBF
S2140079900CBF022100217F4AD2F8203223F00303D5
S2140079A00B43C2F82032D5E73E2847D08028D1D1F5
S2140079B08B1E052B00F2B480DFE803F0AF9CB269A3
S2140079C0B2ACB0F5C06FC8D02DD8B0F5906F00F04F
S2140079D0BB8013D8B0F5806FBCD1023CE4B2032C58
S2140079E08CBF00216C4B6B4A98BF195DD2F82031D2
S2140079F023F003030B43C2F82031ABE7B0F5A06FCA
S214007A00C2D0B0F5B06FA5D1022C03D0A4F10D03FF
S214007A105C425C415F4AD2F8803123F003031C438A
S214007A20C2F8804196E7B0F5F06F7CD017D8B0F575
S214007A30D06F00F09A80B0F5E06F8BD1083CE4B2CE
S214007A40022C8CBF0021554B524A98BF195DD2F8C4
S214007A50403223F003030B43C2F840327AE7B0F516
S214007A60006F71D0B0F5086F7FF474AFCC1EE4B22F
S214007A70052C8CBF00214A4B464A98BF195DD2F8A8
S214007A80003123F003030B43C2F8003162E7002500
S214007A9002260121022000F03DF9FFF7FFFCFFF768
S214007AA031FF4FF4803141F270033A4AD150136FE0
S214007AB023F0070333431367FEF7A4FF0646FFF7DA
S214007AC071FAC0F102013046FFF7BCFE012100202A
S214007AD000F05CF9FFF71CFFFFF7A6FC002D7FF413
S214007AE039AF032C7FF436AF42F2280301212D4A2A
S214007AF0D1502FE741F264034FF40021254A0326B4
S214007B00D15041F228020121264B9D6A9950C5F3B7
S214007B104005BEE700250426BBE700250126B8E79A
S214007B2000252E46B5E7083CE4B2022C8CBF0021A7
S214007B301D4B184A98BF195DD2F8603123F0030335
S214007B400B43C2F8603105E7023CE4B2052C8CBF5B
S214007B500021164B0F4A98BF195DD2F8243123F046
S214007B6007030B43C2F82431F4E6083CE4B2042CC5
S214007B708CBF00210E4B074A98BF195DD2F8003221
S214007B8023F007030B43C2F80032E3E6012102E7C5
S214007B90BCD8020000800040B8D80200BCD8020062
S214007BA0CAD8020000C00040BCD80200BFD80200FD
S214007BB0C5D80200EFF3108072B6704700B962B6FF
S214007BC07047EFF3108072B67047FFF7F7BF0000FC
S214007BD0024B9B6803EB80000164704700ED00E0F9
S214007BE0F0B50024059D9DF818709C4202D10C4B00
S214007BF09A60F0BD37B18C420ED250F8246042F83D
S214007C00246005E08C4252F8246003D2002EF4D0A3
S214007C100134EAE7002EFBD142F82450F8E700BF13
S214007C2000ED00E010B5234B70B9186041F2640116
S214007C304FF40030204A505020494968012902D1AB
S214007C40D2F800211A6010BD1B68002BFBD01B4C1D
S214007C506268012AF7D0184A8020C2F80031FFF780
S214007C6025FC052820D14FF4C070FFF7F5FA01284F
S214007C70044604D102214FF4C070FFF70FFE42F213
S214007C80100207210D4B995041F204020121995030
S214007C901A69D207FCD5012CD5D12146BDE8104083
S214007CA04FF4C070FFF7FABD41F204030122E25020
S214007CB0C9E700BF341200200080004000C0014029
S214007CC010B5044610B10020FFF7ACFF0C4A13694C
S214007CD043F00403136101F0D5F8FFF76BFF25F0BE
S214007CE09FFAFFF76BFF01F0E9F824B1BDE81040FA
S214007CF00120FFF797BFBDE81040FEF783BE00BF28
S214007D0000ED00E0FFF7DCBF0020FFF78BBF01208F
S214007D10FFF788BF38B504461A4A1368D806FCD45D
S214007D204FF04023D3F88430C3F381139C4228D00D
S214007D30FEF74EFE012C054602D12146FFF782FDD6
S214007D40FFF738FF4FF000710F4A4FF040231160E5
S214007D504FF48062611E8A401A675A6E910103D4FE
S214007D60D3F88420920609D5FFF728FF022C08D105
S214007D702846BDE838400021FFF764BDD3F88420CC
S214007D80EBE738BD844000406460004010B50C4608
S214007D9008B9FEF71DFE074B21461B783BB1064B84
S214007DA0984204D80120BDE81040FFF7B3BF022078
S214007DB0F9E700BF38120020005A62020278034B2F
S214007DC0012100201A70FFF7E1BF00BF3812002023
S214007DD04FF04022536F417823F4407343EA012367
S214007DE0536770474FF04022D36E017923F030037B
S214007DF00B43D3667047000041F264034FF0004126
S214007E00164A10B5D15041F2040101224AF6CD348B
S214007E10134B5A50596C1C6478B942F208001A5039
S214007E20DA6AD007FCD542F20402012098500129F4
S214007E3002BF0B4B0B4A1A6410BDDA6A1207FCD459
S214007E4042F224022020985041F208020120985065
S214007E50034A536A9B06FCD5E9E700BF0080004052
S214007E60004009403254FFFF38B54FF0004141F260
S214007E706403194A194CD150012241F20403E2501E
S214007E804AF6CD33656C23644378934013434FF032
S214007E904022D363A368827823F0740343EA021374
S214007EA0C278002A14BF042200221343A36002797A
S214007EB0837943EA022323614279C379007843EA4F
S214007EC002236361FFF798FF012D08BF044B4FF0B4
S214007ED0010008BF236438BD008000400040094010
S214007EE03254FFFF072A70B54FF0030430D89500D0
S214007EF01D4EAC403460A840A6F5805630601B4846
S214007F0001F003010460A940A0F580500160184903
S214007F101848002B0CBF0B460346012101FA02F25B
S214007F201A609DF810001449144B002818BF0B4621
S214007F301A6042F2204312499DF81400CA50114BB1
S214007F4001F5A1510431002818BF0B461A6070BD18
S214007F50A2F1080189008C4088400B490C60A1F50D
S214007F6080510860D3E700BF00E4034008E4034004
S214007F7010E4034010D4034014D4034014E4034038
S214007F8000C0034024E4034004E40340F0B54AB1D3
S214007F90012530241D4E8D4004FB00640BB341F2D6
S214007FA01006A55130244443072904F1804404F503
S214007FB0703419D80F2765688E00B74025EA070584
S214007FC002FA06F63543656052B9012202FA01F15B
S214007FD030220E4C02FB0040A3B141F21003C15008
S214007FE0F0BD42F21006DCE70F2701F18045083DA0
S214007FF0E668AD00AF4026EA070602FA05F5354307
S214008000E560E1E742F21003E9E700BF00C0034085
S21400801041F268034FF40031054AD15041F67132FF
S214008020044B0121DA6342F20C029950704700BFFC
S214008030008000400000034041F67132074B0121EA
S214008040DA6342F20C02995000224FF40031DA63F0
S21400805042F26803024AD150704700BF0000034056
S214008060008000404FF090435A6812B19A6A002A86
S214008070FAD17047CB784A7810B55B010C7843EAA2
S21400808082030A79234343EA02130C22424302F195
S21400809090421363012C02BF8A78024B43F82020DB
S2140080A010BD00BFE880034008B54FF090435A6803
S2140080B002B960B15B680BB1FFF7D4FF4FF0904197
S2140080C030B10120074B1860FFF7CCFFC86008BD31
S2140080D0FFF7C8FF0223CB60FFF7C4FF0122024B65
S2140080E01A60F4E704100048042000484FF090435C
S2140080F05B6870B50BB1FFF7B5FF0121104B067931
S214008100196083784578002BC37814BF02240024B6
S214008110002B14BF042200224379DB0043EA061337
S2140081202B43234313434FF090429360054B196053
S2140081300378002B14BF0B460223D36070BD00BF2C
S214008140042000480410004841F264034FF48031D4
S214008150064AD150064B5B69C3F38512827003F062
S2140081603F021B0B42700370704700BF0080004048
S21400817000C0074038B50546144621B94FF42070B4
S214008180FFF794F8014601396400B1FBF4F10902E7
S214008190E96138BD41F204030122C25040F6AA63E9
S2140081A041F20502436100238360C365C26042F268
S2140081B048020C490361C361C36481500A4A83655F
S2140081C0904202D00949884207D19042036502D006
S2140081D0064B984201D10023436542F20403012274
S2140081E0C2507047FFFF010000C005400000064077
S2140081F038B50D460446FFF7CDFF41F204030122D1
S214008200A97BC2502A8A8368002942F0010214BF63
S2140082104FF48061002113432A7D0B43002A14BFCC
S2140082204FF0005200228360836813438360AB7C68
S2140082305BB11A4AEB7C904227D1A2F51032C2F805
S2140082408C31E36D43F08003E3652B7BD5E90112A7
S21400825043F48053E3602046FFF78CFF6B7B0BB143
S214008260102363616B7D1BB1A36843F48033A36066
S214008270AB7DEA7D1B07120503F0E04302F4E00243
S2140082801343A3652B78636138BD054A904204BF4B
S214008290A2F52032C2F89C31D3E700BF00C00540EB
S2140082A00000064083695A06FCD5C16383699B06B5
S2140082B0FCD5406AC0B2704738B50446054D1DF07F
S2140082C06CFE0FCC0FC594E8030085E80300002081
S2140082D038BD00BF3C12002047F6FF739A42F0B547
S2140082E05ED002295ED8304BCE0013F831109819B4
S2140082F00129857819460DD1C3785B1B23B14168E7
S21400830031F91310914202DCE818C0B2F0BD013B0F
S2140083101BB2F3E740680028F8D0B0F9003093426B
S21400832004DBB0F902309342B8BF13468288FF2AB6
S21400833019BFC8242827B0F90640B0F90870A4EB86
S21400834003040CBF0122002294FBF7F414448A199C
S214008350567824B2721EA242A8BF22464FF47A77FD
S21400836000EBC201CC888968013213FB041112B2FB
S21400837021EAE17101F5FA71B242B1FBF7F104DAD4
S21400838000EBC204A4888C42EAD200EBC20232F8A8
S214008390040C884228BF0846A84238BF2846B4E7DF
S2140083A0FF20B3E70020B1E73C1200200229F0B519
S2140083B043D8244B03EBC10413F831306668012B15
S2140083C00BD1E178A378914294BFC3EB0103C3EBD2
S2140083D00203DBB236F91300F0BD76B3B6F902003D
S2140083E08242F9DDE378B6F90050934227D900219E
S2140083F064780436013CE4B297B2CBB29C424FEAB2
S214008400C10306D906EB030CBCF808C00131BC4515
S214008410F3D2F1184FF47A7353434A68B1F9024025
S2140084209B1A022294FBF2F2134493FBF4F39D4250
S21400843005DB9842D0DC18B2CEE70348CCE72846E6
S214008440CAE700BF3C1200200080FFFF0148FFF78C
S21400845033BF00BFD0D802007FB51422002101A888
S21400846024F0E9FD02230B4A8DF804300292042220
S2140084708DF80D308DF8133005230DEB02014FF00B
S214008480FF308DF80E208DF814301DF02BFE07B04F
S2140084905DF804FB006A180007B56B46054A1068CD
S2140084A0516803C36846FFF7DFFC002003B05DF8A1
S2140084B004FB00BF54D902004FF0402213B500243D
S2140084C0536F684643F00103536700948DF80440E9
S2140084D0FFF788FC204602B010BD000070B586B0DD
S2140084E001AA1546114B03F1100614461868596880
S2140084F0083303C4B3422246F7D14FF6FF721988F9
S2140085009B782180A3700A4B0A481B88934208BFB9
S2140085107823DBB28DF80D308DF80E30FEF78EFA2C
S2140085202846FFF787F8002006B070BD5CD9020029
S2140085300001E00F00F0490208B50120FFF762F9DC
S214008540002008BD1FB50B4A01AB1068516803C375
S2140085501189927A19809A70252301A88DF8053022
S214008560FFF70AF96420FFF747F9002005B05DF829
S21400857004FB00BF6FD9020010B50446FFF71AFBD4
S214008580024B1C60FFF71AFB002010BD541200209F
S21400859010B5FFF70FFB034B1C68FFF70FFB2046D9
S2140085A010BD00BF5412002070B50C46154610B919
S2140085B0FFF7EEFF38B143682BB12A462146BDE8E7
S2140085C0704000681847232070BD07B502AB03F85B
S2140085D0011D01221946FFF7E7FF03B05DF804FB13
S2140085E0FEE710B500201C4606F0A8FA002820601A
S2140085F00CBF1B20002010BD08B5002006F0E0FAD6
S21400860000280CBF2F20002008BD000007B506F08C
S21400861053FB0223009300231A461946184606F019
S21400862017FB0348FFF7A8FF002003B05DF804FB24
S2140086305C08002000234FF0604030B5934201D123
S214008640002030BDD0F8804EE50707D5D0F8004EA4
S214008650E40703D5CC5C056815B104700133EDE77B
S21400866000BFF8E7234A08B5536E4FF4607043F036
S21400867080635366204B5A6822F470425A605A68E8
S21400868042F480425A60D3F8442442F00102C3F810
S2140086904424FEF70BFE194BB0FBF3F0184B0138E1
S2140086A01A6842F001021A60DA6842F08072DA60F4
S2140086B040F2FF32134B1A60022203F57C33186136
S2140086C0C3F8F0204FF48072C3F804234FF06043E1
S2140086D00D4A0E48C3F8B02F0D4AC3F8802ED3F8C3
S2140086E0002E42F00102C3F8002EFFF745FF0020DF
S2140086F008BD00BF0080004000C003408E2D0D0066
S214008700F0ED00E0001000E055CEACC56808002093
S2140087100900010008B5244B1A68002A42D101223C
S2140087201A60224A4FF46070536E43F080635366BB
S2140087301F4B5A6822F470425A605A6842F48042CC
S2140087405A60D3F8442442F00102C3F84424FEF7EA
S214008750ADFD184BB0FBF3F0174B01381A6842F02A
S21400876001021A60DA6842F08072DA6040F2FF3284
S214008770124B1A60022203F57C331861C3F8F0200E
S2140087804FF48072C3F804234FF060430C4AC3F8DA
S214008790B02F0C4AC3F8802ED3F8002E42F4807215
S2140087A0C3F8002E002008BD5812002000800040AC
S2140087B000C003408E2D0D00F0ED00E0001000E03C
S2140087C055CEACC5090001002DE9F74F02F10900AE
S2140087D001900020161D0C9DDFF8A4804FEA132997
S2140087E002F1060A02F1070BF6B2019CA04203D37F
S2140087F0002003B0BDE8F08FC0B301281DD1344679
S2140088004FF06047D7F880CE1CF0010F13D0BC465F
S214008810D8F80CE04EF0807EC8F80CE0DCF800EEED
S2140088204EF4807ECCF800EEDCF820E0BEF1000FBF
S214008830EED087F820400130D7E7022818D003286A
S21400884001D1DCB2DCE7042814D0052802D12C784C
S2140088500135D5E782450FD083450DD002F10804D7
S21400886084420BD00C1814F8064CC9E75B24C7E703
S214008870D124C5E74C46C3E75A24C1E75D24BFE7C9
S214008880F0ED00E010B51C46044B186806F056F9EB
S214008890002820600CBF1B20002010BD740800209C
S2140088A007B5044B00931123FFF78EFF03B05DF866
S2140088B004FB00BF7C12002010B5FFF72BFF0A4C0C
S2140088C0206006F0F9F9202208490123084806F03E
S2140088D091F9084B1860084B20466360074BA3606D
S2140088E0FFF74AFE002010BD801200205C12002018
S2140088F07AD9020074080020A1880000858800004C
S214008900BFF34F8FBFF36F8F054A536A23F480334C
S2140089105362D2F8943023F00103C2F894307047C3
S21400892000ED00E070B5FFF7EBFF1D4C1D481E4B39
S2140089308442196B16BF20F01F021C4A203A21F011
S214008940FF0141F0A001B2F1005F196309D3184D91
S214008950184E296842F0010299600131DE601A6102
S214008960296084420CD01248134A016822F01F0284
S21400897042F003029960DA60104A01311A61016020
S214008980BFF34F8FBFF36F8F05225A600C4A536AAE
S21400899043F480335362BFF34F8FBFF36F8F70BDC6
S2140089A04C0B00207809002090ED00E000800020AD
S2140089B08C120020030000206B0B0020E17F0020BB
S2140089C000ED00E0BFF34F8F0549064BCA6802F47E
S2140089D0E0621343CB60BFF34F8F00BFFDE700BFDD
S2140089E000ED00E00400FA0508B5FFF7EBFF08BD50
S2140089F0034B1B78002B14BF01200220704700BFDA
S214008A00B81200200329F8B598BF124B06460F4649
S214008A1094BF5C5C0024032805D8DFE800F0020859
S214008A200B0E44F002040C4B1D684DB9F8BD44F023
S214008A300804F8E744F02004F5E744F08004F2E781
S214008A406B681A68144203D05B683946304698470C
S214008A502D68EAE78AD90200B412002038B50B4C1C
S214008A60227852B10A4D2B781BB100F04DFA002344
S214008A702B7000F081FA00232370064C0121207829
S214008A80FFF7C0FF0123237038BD00BFB2120020DD
S214008A90B0120020A812002070B5FFF78BF8114E18
S214008AA005463378CBB900F04DFB044620B1284686
S214008AB0FFF784F8204670BD00F03EFC0A4B1860B5
S214008AC000F042F90948FEF784F8094B1C6000F0F4
S214008AD079FA084B1860012333702846FFF76EF8C2
S214008AE00024E7E7B1120020BC120020B4120020D8
S214008AF0C0120020AC120020F8B50D460446FFF761
S214008B0059F8002D14BF0121FF21134A0646601EA6
S214008B10135C124C0B4413542278012A17D9FFF722
S214008B2067FF8242074612D90D4D2B781BB100F025
S214008B30EBF900232B700B4D2B781BB100F01CFAC1
S214008B4000232B7039462078FFF75CFF27703046ED
S214008B50BDE8F840FFF732B8B8120020A81200208F
S214008B60B0120020B212002030B5044685B0B0B175
S214008B70841E012C1CD803A9002000F09DFB05468E
S214008B80B0B9154B039A1B689A4213D80121134AB1
S214008B900846FFF7B1FF0122114B1A7008E0104D8E
S214008BA02B782BB101460D4A0120FFF7A5FF2C704C
S214008BB005B030BD0B4B1C6800F008FA0399204442
S214008BC08842E3D20223091ACDE90053064A2B460F
S214008BD0064800F017FBEBE7AC1200208ED9020027
S214008BE0BB120020C01200205D8A000090120020F8
S214008BF010B50446FEF7DEFF002C14BF0121FF214E
S214008C00034A13780B441370BDE81040FEF7D6BF36
S214008C10BA12002038B541600446FEF7CBFF054681
S214008C2021460448FDF7D8FF2846BDE83840FEF741
S214008C30C5BF00BFB4120020054B1B685843054B48
S214008C4000F5742000F23F20B0FBF3F0704700BF41
S214008C50BC12002040420F002DE9F843FEF7AAFFA1
S214008C600546FDF79AFD00285BD0304FDFF8D4901C
S214008C703E4699F8003033B12D4A1378013B137005
S214008C80002389F80030FFF7B3FEFFF76DFFFFF70C
S214008C90AFFE0128044604D9264B1B780BB900F01A
S214008CA0EFF83878A04203D02146FFF7ABFE3C70C1
S214008CB0012C0CD91F4C23784BB91F4B1B7823B9BA
S214008CC000F01CF901221D4B1A7001232370307826
S214008CD000F062F900E000BF2846FEF76FFFFEF7DF
S214008CE069FF0546164800F065FAFDF761FD804607
S214008CF00028BED10F4C227852B1104F3B781BB1E2
S214008D0000F002F987F8008000F036F9002323709F
S214008D100020FFF729FF00213078FFF773FE0023BD
S214008D2033702846BDE8F843FEF748BFA812002077
S214008D30B8120020B2120020BA120020B012002092
S214008D4090120020BB120020F7B50024022302A8D0
S214008D5000F8084D8DF805308DF804404FF40025D6
S214008D60FFF72CF88DF8054041F2640401A8FFF7E0
S214008D702FF83B4A3B4B116F01F007011960D2F800
S214008D802031D2F8240115514FF40035155102F563
S214008D90A0329269344C02F002050329C2F3400265
S214008DA000F00700227050D003F003039E1E7342AB
S214008DB07341022808BF43F001032C4A13704DB1DB
S214008DC043B9274BD3F8003103F00303591E4B4237
S214008DD04B4113704FF41670FFF72EFF244B1860AC
S214008DE02378244C1BB31E4BD3F8003103F0030347
S214008DF0022B2CD0032B2DD0012B2ED1FDF718FEE5
S214008E0000271D4B0246DB68461EC3F30B030133E7
S214008E101A4803EB8301E0FB01670023304639461E
S214008E2023F0FCFEFFF708FF236818442060232089
S214008E30FFF702FF2368184420606420FFF7FCFE5B
S214008E4023681844206003B0F0BD0123B1E7FDF7A6
S214008E5017FED5E7FDF708FED2E70020D0E700BFF3
S214008E60008000404C280020CC120020CF120020AA
S214008E70C8120020D012002000C0014040420F005F
S214008E80FEF742BF0A4B1A788AB100221A70094AC6
S214008E90136F23F0070343F001031367064B1B7899
S214008EA02BB141F22803022102F58042D1507047CF
S214008EB0CD12002000800040CF1200200B4B10B5D2
S214008EC01B788BB1022000F0AFFB68B100F022FAED
S214008ED050B141F228030124054AD45000F020FA8C
S214008EE0044B1860044B1C7010BD00BFCF1200204E
S214008EF000C00040C4120020CE1200200122014B08
S214008F001A707047CD12002038B5154B1B782BB35E
S214008F10144D154C2A783AB941F228030121134A18
S214008F20D15000F0FDF92060114A136F23F00703BB
S214008F3043F00303136700F0F3F923680221C01A15
S214008F400C4B0A4A186000232B7042F22803D150BB
S214008F500121D150BDE83840FDF754BD38BD00BFF3
S214008F60CF120020CE120020C412002000C0004005
S214008F7000800040C812002008B5FEF7C8FE044A6C
S214008F800449136F096823F007030B43136708BDF2
S214008F90008000404C28002002280AD003280BD06E
S214008FA001280CD1064A136923F00403136130BF6D
S214008FB070470020FEF784BE0020FEF7A3BE704771
S214008FC000ED00E04FF4C870FFF736BE044B1B6898
S214008FD00BB103EBD303034A10681844704700BF75
S214008FE0C8120020D0120020104A30B51368416124
S214008FF01546ABB91060836011E0091B9C6841619F
S2140090001A467CB123465C698C42F6D9002CF4D013
S21400901052B19060836013B15A69511A596130BDDC
S2140090200022F0E72346F4E72860F3E7EC1200207E
S21400903010B500F0A1FA094B094A196831B1136856
S214009040C41A4B69A34203D31B1B4B61106003E099
S214009050C01A002310604B6110BD00BFEC12002048
S214009060D812002038B50F4D02202B685C690E4BD5
S2140090701B681C4400F0B4FA204600F085FA002372
S2140090800A492A680B70D088800702D501230B7026
S21400909038BD9268002AFBD050690344012BF2D9F0
S2140090A0F6E700BFEC120020D8120020E0120020E5
S2140090B070B59DF81450164605710025049A856013
S2140090C0BDF818500446C5800260C0E903360D4658
S2140090D029B961610BB11146984796B13546FEF73E
S2140090E070FD0646FFF7A4FF29462046FFF77CFFE3
S2140090F0054B1B68A34201D1FFF7B4FF3046FEF7CD
S21400910064FD002070BD00BFEC12002000210C4A58
S21400911013687BB183420AD1836879B18B60836818
S2140091201BB15A6941690A445A61002070471946C2
S2140091309B68EEE70028EFD0022070471360EEE74A
S214009140EC12002070B5FEF73CFD134D06462C7859
S214009150D4B9124B1C60124B1C60124B1C8000F0E2
S214009160C9F9012000F03CFA00F088FA0E4B0246DE
S214009170186070B123460D4840F2E73123F04EFDEB
S2140091800B4B186001232B703046FEF71EFD0020A7
S21400919070BD2320FCE700BFD4120020EC12002094
S2140091A0D8120020E2120020E812002018FCFFFF70
S2140091B0DC1200202DE9F0410546F8B1FEF701FD6E
S2140091C00F4F0646FFF734FF2846D7F80080FFF714
S2140091D09DFF044628B13046FEF7F7FC2046BDE862
S2140091E0F081A8453B6803D123B1FFF73BFFF2E7C8
S2140091F0002BF0D1022000F0FFF9ECE72224EDE787
S214009200EC120020F0B50D4685B016461F46044603
S21400921080B1FFF7CFFFBDF82C30002202939DF8F7
S21400922028302946CDE9007320463346FFF740FF35
S21400923005B0F0BD2220FBE738B50C46054698B1D0
S21400924091B100230B70FEF7BCFC0121074B1B6895
S2140092500BB122781AB1FEF7B8FC002038BD9D424B
S2140092600CBF21709B68F3E72220F7E7EC12002082
S214009270F0B51F46002387B00D4616468DF817300A
S2140092800446A0B10DF11701FFF7D6FF9DF8172091
S2140092907AB9BDF83430294602939DF8303020461E
S2140092A0CDE900733346FFF703FF07B0F0BD222079
S2140092B0FBE70320F9E70000F8B507460E46FEF781
S2140092C080FC00240546114B1B6823B92846FEF790
S2140092D07CFC1B2015E05A691444DA88BA4213D184
S2140092E000F04AF90A4F3B68C01AA0420AD200F0C2
S2140092F043F93B68C01A201A30602846FEF765FC22
S2140093000020F8BD0020F7E79B68DEE7EC1200209F
S214009310D8120020014B1878704700BFE0120020DA
S21400932038B5FEF74EFC054600F026F904462846FA
S214009330FEF74BFC204638BD014B1868704700BF4F
S214009340E81200200A4B10B51B680C4683420CD36B
S214009350084B4FF47A7219680023A0FB010123F032
S2140093605DFC01302060002010BD2120FCE700BF1E
S214009370DC120020E8120020104B10B51A684FF4DB
S2140093807A73A0FB0301A2B1531E134211D1B2FAA5
S21400939082F2C2F11F02C2F12004A2F1200301FAF8
S2140093A004F420FA02F2224321FA03F342EA03000D
S2140093B010BD002323F032FCFAE700BFE8120020BD
S2140093C0C2072DE9F84F04460BD53F4A13880133F0
S2140093D09BB21380FFF72CFE3C4B1B680BB1FFF7CC
S2140093E041FEA3076DD500F0C7F8394F00263D684B
S2140093F08046451BFEF7E5FBB24683463246334BB6
S2140094001C6814B16369AB4214D9012E314B51D19B
S214009410D288022A4ED11E70002C4ED06369C7F83F
S21400942000805D1B6561FFF71DFE5846BDE8F84FDE
S214009430FEF7CBBB23462A46C7F8008059699142FF
S21400944009D8187994F804C0521A844588BF1C4677
S2140094509B68002BF2D15846FEF7B7FBD4F814B041
S214009460C4F814A0FEF7ADFB81462046FFF74EFE7B
S2140094704846FEF7AAFB23694BB1FEF7A2FB8146DE
S21400948021692046FFF7B0FD4846FEF79EFBE368DD
S21400949013B121682046984700F06EF8D844A5EB33
S2140094A0080581460544FEF78CFB013683462246B6
S2140094B0C846A4E700221A70AEE7022000F09CF827
S2140094C0B3E7BDE8F88F00BFE2120020EC120020E0
S2140094D0D8120020E412002010B5FEF772FB00221E
S2140094E0034B1C781A70FEF770FB204610BD00BFB9
S2140094F0E41200201FB500241C4B012118689A882E
S214009500029053F8060FADF80C201B7900903E2011
S2140095108DF80430FDF780FE02A88DF808408DF81F
S2140095200C40FEF7E3FD694601208DF80040FEF78B
S214009530A1FD4FF0904340F2FF319A6922F47F720A
S21400954022F003029A610A4A11609A6A12F008022F
S214009550FBD11A620120FEF7A7FD4FF48052054B9F
S214009560C3F880211A6004B010BD00BF98D902006D
S2140095701420004800E100E04FF090439A6A12077A
S214009580FCD4186A704700004FF09042936A19079F
S214009590FCD4136A116C5269520604D4CA1A022A01
S2140095A001D899420ED1C21A012A98BF981CB0F170
S2140095B0FF3F28BF01304FF0904318649A6942F08D
S2140095C040029A61054A13783BB14FF09041CB6B4D
S2140095D043F00203CB630023137070477808002023
S2140095E082074FF0904200F00103916948BF43F0B4
S2140095F040030B4393617047830700F001020AD5CE
S2140096000121084B42F0400219704FF09041CB6B9D
S21400961023F00303CB634FF090418B6923EA0203E8
S2140096208B617047780800204FF0904301285B69F3
S21400963004D0022805D1C3F38010704703F0010060
S214009640704700207047000010B5FEF7BAFA4FF0DA
S214009650904304465B695A06074A03F0010003F08C
S214009660510348BF40F002001360FFF7A9FE2046F2
S214009670BDE81040FEF7A9BA142000483E20FDF7CA
S21400968015BE08B5FDF730F8FDF762F8FDF767F888
S214009690FDF770F8BDE80840FDF775B808B5FDF7AA
S2140096A073F8FDF772F8FDF771F8BDE80840FDF7AE
S2140096B06FB8000010B50446FDF7A4F94FF47A73AE
S2140096C0B0FBF3F05C43074BB3FBF0F0B4FBF0F4F5
S2140096D00320B4FBF0F018B1BDE8104000F008B865
S2140096E010BD00BF40420F00000000000000000058
S2140096F0013800D0FCE770472420704744207047AC
S2140097004C2070479C20704738B50446FEF752FA46
S2140097100546204623F04CFC04462846FEF74EFA43
S214009720204638BD70B504460E46FEF743FA31466D
S2140097300546204623F0FCFB04462846FEF73EFA84
S214009740204670BD38B50546FEF734FA044628466E
S21400975023F036FC2046BDE83840FEF72FBA00203E
S21400976070470023F0B51C46161F844203D102EB57
S2140097708402BBB9F0BDD6F804C0ACEB030546F8CE
S214009780045F51F824700134BD422CBF4FF0000E28
S2140097904FF0010EED1B9C452CBF73460EF10103E6
S2140097A03560E2E71168C81A994242F8040B2CBFEC
S2140097B000230123DDE72DE9F04384460D464FF0F4
S2140097C0000E02F14004BCF10F0F54F8408C05F176
S2140097D0400504F1400400F2BA806FF00F044FEA2F
S2140097E0101C04FB0C004FEA8C1C072801EB0C0530
S2140097F002EB0C0440F2938051F80C600838A3FB8F
S21400980006671EEB060E2CBF4FF001094FF000094D
S21400981018EB0E0142F80C102CBF012200226E68D5
S214009820B944A3FB06674A4492192CBF01210021C4
S214009830666801EB070C92194FF0000128BF012162
S2140098406260AE686144A3FB066789192CBF0122DB
S2140098500022A66802EB070C89194FF0000228BF09
S2140098600122A160EE686244A3FB066792192CBF32
S21400987001210021E66801EB070C92194FF0000168
S21400988028BF0121E2602E696144A3FB066789199F
S2140098902CBF01220022266902EB070C89194FF023
S2140098A0000228BF012221616E696244A3FB06679D
S2140098B092192CBF01210021666901EB070C921951
S2140098C04FF0000128BF01216261AE696144A3FB2D
S2140098D0066789192CBF01220022A66902EB070E33
S2140098E089194FF0000228BF0122A161EE69724477
S2140098F0A3FB066792192CBF4FF0010E4FF0000E27
S21400990005F1200CE5690EEB070152194FF0000E29
S21400991028BF4FF0010E6546E2618E442034214692
S214009920800005EB000C654551F8042B40F09E8145
S21400993004442368002213EB0E0328BF012244F8D8
S214009940043B4FF0010E002AF3D1BDE8F08355F832
S214009950406CACF1100CA3FB06671EEB060E2CBF8A
S2140099604FF001094FF000091EEB08062CBF4FF020
S21400997001084FF0000844F8806C55F83C6CB94478
S214009980A3FB0667C84418EB06082CBF4FF0010E71
S2140099904FF0000E54F87C6C0EEB070916EB080629
S2140099A04FF0000E28BF4FF0010E44F87C6C55F8BF
S2140099B0386CCE44A3FB06671EEB060E2CBF4FF09A
S2140099C001084FF0000808EB070954F8787C4FF0C0
S2140099D0000817EB0E0728BF4FF0010844F8787C04
S2140099E055F8346CC844A3FB066718EB06082CBF72
S2140099F04FF0010E4FF0000E54F8746C0EEB070992
S214009A0016EB08064FF0000E28BF4FF0010E44F884
S214009A10746C55F8306CCE44A3FB06671EEB060E3E
S214009A202CBF4FF001084FF0000808EB070954F868
S214009A30707C4FF0000817EB0E0728BF4FF00108A8
S214009A4044F8707C55F82C6CC844A3FB066718EBEA
S214009A5006082CBF4FF0010E4FF0000E54F86C6C49
S214009A600EEB070916EB08064FF0000E28BF4FF066
S214009A70010E44F86C6C55F8286CCE44A3FB0667C0
S214009A801EEB060E2CBF4FF001084FF0000808EB47
S214009A90070954F8687C4FF0000817EB0E0728BF3C
S214009AA04FF0010844F8687C55F8246CC844A3FBC2
S214009AB0066718EB06082CBF4FF0010E4FF0000E9D
S214009AC054F8646C0EEB070916EB08064FF0000E10
S214009AD028BF4FF0010E44F8646C55F8206CCE4455
S214009AE0A3FB06671EEB060E2CBF4FF001084FF0D7
S214009AF0000808EB070954F8607C4FF0000817EBE5
S214009B000E0728BF4FF0010844F8607C55F81C6C1F
S214009B10C844A3FB066718EB06082CBF4FF0010EDF
S214009B204FF0000E54F85C6C0EEB070916EB0806B7
S214009B304FF0000E28BF4FF0010E44F85C6C55F84D
S214009B40186CCE44A3FB06671EEB060E2CBF4FF028
S214009B5001084FF0000808EB070954F8587C4FF04E
S214009B60000817EB0E0728BF4FF0010844F8587C92
S214009B7055F8146CC844A3FB066718EB06082CBF00
S214009B804FF0010E4FF0000E54F8546C0EEB070920
S214009B9016EB08064FF0000E28BF4FF0010E44F8F3
S214009BA0546C55F8106CCE44A3FB06671EEB060EED
S214009BB02CBF4FF001084FF0000808EB070954F8D7
S214009BC0507C4FF0000817EB0E0728BF4FF0010837
S214009BD044F8507C55F80C6CC844A3FB066718EB99
S214009BE006082CBF4FF0010E4FF0000E54F84C6CD8
S214009BF00EEB070916EB08064FF0000E28BF4FF0D5
S214009C00010E44F84C6C55F8086CCE44A3FB06676E
S214009C101EEB060E2CBF4FF001084FF0000808EBB5
S214009C20070954F8487C4FF0000817EB0E0728BFCA
S214009C304FF0010844F8487C55F8046CC844A3FB70
S214009C40066718EB06082CBF4FF0010E4FF0000E0B
S214009C5054F8446C774416EB08064FF0000E28BF05
S214009C604FF0010E44F8446CBE44ACE555F8046B66
S214009C70A3FB06781EEB070E2CBF012600261EEB64
S214009C8002022CBF4FF0010E4FF0000E464441F882
S214009C90042CB64447E601F18041013900EB81010E
S214009CA08842034600D970471B680A681BBA12BA76
S214009CB040F8042B41F80439F2E7002301228360C0
S214009CC0C0E90023704710B5044668B1806830B11B
S214009CD06168890001F010FEA068FFF733FD0023DD
S214009CE00122C4E90023A36010BD42F2107399421A
S214009CF070B504460D4602D96FF00F0070BD43687C
S214009D008B4216D204212846FFF70CFD0646002893
S214009D10F2D0A16859B16268920023F068F96168D0
S214009D20A068890001F0E8FDA068FFF70BFDC4E914
S214009D3001560020E2E7884270B505460E4603D07D
S214009D404C681CB9FFF7BFFF00200DE0631EA000A3
S214009D505BB96A685C1C3368A2422B600ED221464F
S214009D602846FFF7C2FF88B170BDB268024452F8B9
S214009D70042C0438002AECD1013BE9E7A868121B42
S214009D809200002100EB840023F055F9A200B16890
S214009D90A86823F02CF9D7E770B50E4601210446D3
S214009DA0FFF7A3FF054688B9626801469200A068DF
S214009DB023F041F9A36886EAE672002EA2EBE6726B
S214009DC01A60B4BF4FF0FF3301232360284670BDEE
S214009DD04368DBB181685A1E9B007AB900204FF0B9
S214009DE0004351F82210194204D1013020284FEACE
S214009DF05303F8D1C0EB421020307047C81850F813
S214009E00040C043B0028E9D1013AE6E718467047FF
S214009E102DE9F04112F0030418BF0124436804EB57
S214009E209204A34207468846154608D100213846C4
S214009E30FFF7B2FF064688B13046BDE8F081FFF76F
S214009E4042FF00230122BB60C7E9002321463846B3
S214009E50FFF74BFF06460028E8D0EDE7B8F1000F05
S214009E60EAD0BB68C5EB84002A464146184423F076
S214009E70BEF8002CE0D02146B868FFF70CFFDBE701
S214009E80F8B505466C680846A40094421CD2121B1E
S214009E908E18002123F0CFF83046224600231044C7
S214009EA09A4213D10020F8BDAF6803F0030123F0F7
S214009EB0030CCE0057F80C10F14011F0FF0F11D133
S214009EC00133A342F0D1E9E71346FAE7AF6803F09F
S214009ED0030123F00306CC00B9590133E14000F832
S214009EE0011DDDE76FF00700DDE7F8B506460D4615
S214009EF04C0901F01F07FFF76BFF73682844B0EBAF
S214009F00431F03D874B92FBB00200AE010F01F01CE
S214009F1018BF012101EB50113046FFF7E6FE00287E
S214009F20F0D0F8BD7368A00003F18042013A121B1E
S214009F309200A34207D800229B00043B191DE2D0E2
S214009F40B168CA50F9E7B168013B8D5811440D500D
S214009F50043AEEE70021D6F804C0A300C7F1200EAD
S214009F60A445D1D9B5680134E85800FA07F20A4387
S214009F70EA5020FA0EF10433F2E74368F0B44D09D4
S214009F80AB4203D301F01F0104D169B3F0BC00213A
S214009F90FFF702BFE5B929B100259A00C1F1200CF0
S214009FA0043ABBB9F0BC002070478468561954F8D0
S214009FB0266044F8226001325C1B9442F5D80025E6
S214009FC0A200A342E7D986680134B5500432F8E708
S214009FD00022F1E78768013BBE5826FA01F42C43BD
S214009FE0BC5006FA0CF5DBE7002BDBD00A46E3E7AD
S214009FF070B543689A0033B94A68940062B9181C71
S21400A00018BF012016E08468144454F8044C043A3F
S21400A010002CF1D1013BEEE78D682E1956F8046C42
S21400A020043C0EB9013AE9E793420DD80ED39A00E4
S21400A0300BB9184670BD8168043A8C58A9588C42F2
S21400A04002D803D3013BF3E70120F3E74FF0FF30DC
S21400A050F0E770B543689A0023B94A68940052B98D
S21400A0609BB924E08468144454F8044C043A002C49
S21400A070F3D1013BF0E78D682E1956F8046C043CCA
S21400A0800EB9013AEBE7934202D90268104670BD5A
S21400A090096801D24A42F9E70268002A01DD002970
S21400A0A012DB002901DD002A10DB99000BB91A46E5
S21400A0B0ECE78468043966586C58A642E6D801D2A4
S21400A0C05242E3E7013BF1E70122DFE74FF0FF32C0
S21400A0D0DCE71FB581EAE173A3EBE1730029009387
S21400A0E0B4BF4FF0FF3301230193012301A902936C
S21400A0F0CDF80CD0FFF7ADFF05B05DF804FB90423D
S21400A1002DE9F04106460C46154602D0884231D16C
S21400A1102C460123D4F8048033604FEA8803B8F154
S21400A120000F2FD141463046FFF7DFFD074630BB14
S21400A130B368D4F808E0194604460546A8452BD16E
S21400A14003EB8503DCB1726805F10108AA4207D863
S21400A15041463046FFF7C9FD80BBB36803EB850375
S21400A1601A680021141928BF012143F8044B4546FC
S21400A1700C46E7E7FFF7DFFD07460028C8D038465D
S21400A180BDE8F081A2681A4452F8042C043B002A69
S21400A190C8D108F1FF38C2E70A685EF8250014192E
S21400A1A04FF0000C28BF4FF0010C241841F8044B68
S21400A1B02CBF0124002401356444BFE70746DEE7D0
S21400A1C0F0B50F4685B00646114638461546FFF7E9
S21400A1D00FFF00282FDB00230122B542CDE9012323
S21400A1E0039306D1294601A8FFF7A5FD0446A0B9AA
S21400A1F001ADB7420AD101236868A96833608300BD
S21400A20088B9B268FFF7ADFA002406E03946304652
S21400A210FFF791FD04460028EDD001A8FFF753FD97
S21400A220204605B0F0BDCA1852F8042C043B002A9C
S21400A230E7D10138E4E76FF00904F1E7F8B50C68F8
S21400A2401368054663430F46164616D5114638462C
S21400A250FFF7CEFE002806DB324639462846FFF7D3
S21400A260AFFF40B1F8BD3A4631462846FFF7A8FF93
S21400A2700028F7D164422C60F4E7FFF740FFF0E7D0
S21400A280F8B50C68136805466343002B0F46164660
S21400A29016DD11463846FFF7ABFE002806DB3246D1
S21400A2A039462846FFF78CFF40B1F8BD3A4631469E
S21400A2B02846FFF785FF0028F7D164422C60F4E7B4
S21400A2C0FFF71DFFF0E71FB582EAE273A3EBE27328
S21400A2D0002A0093B4BF4FF0FF33012301930123FC
S21400A2E001AA0293CDF80CD0FFF7CAFF05B05DF8BF
S21400A2F004FB2DE9F04700231546012286B088426C
S21400A30080460E46CDE90023CDE90232CDE904337E
S21400A31005D16846FFF70FFD044650BB6E46A845BC
S21400A32006D1414603A8FFF706FD044608BB03AD69
S21400A330D6F804904FEA8903B9F1000F23D16F686D
S21400A340BB0057BB09EB07014046FFF7CEFC0446AF
S21400A35078B901464046FFF71FFD044648B94FEA64
S21400A360870AAAF1040A0FBB32682B685343C8F861
S21400A370003003A8FFF7A7FC6846FFF7A4FC2046BA
S21400A38006B0BDE8F087B2681A4452F8042C043BC5
S21400A390002AD4D109F1FF39CEE7AA681A4452F848
S21400A3A0042C043B002ACDD1013FCAE7AB68D8F89D
S21400A3B0082053F80A305244B1684846FFF7FBF9C4
S21400A3C0013FCEE71FB50123009201AACDE9013374
S21400A3D0CDF80CD0FFF78DFF05B05DF804FB2DE936
S21400A3E0F04F99B001900F4618460021904603930F
S21400A3F0FFF76FFE002800F0A481002401250399D2
S21400A4004046CDE90954CDE90B45CDE90D44CDE9EB
S21400A4100F54CDE91145CDE91344CDE915541794F1
S21400A420FFF7E6FDA04226DA019B2BB9DFB9002430
S21400A430204619B0BDE8F08F21460198FFF7ACFC26
S21400A44004460028F2D009A8FFF73DFC0CA8FFF749
S21400A4503AFC0FA8FFF737FC12A8FFF734FC15A844
S21400A460FFF731FCE4E741463846FFF764FC044654
S21400A4700028E8D1DBE7414609A8FFF75CFC044664
S21400A4800028E0D10CAE03993046FFF754FC044692
S21400A4900028D8D1D8F804100FA802310C950995D9
S21400A4A0FFF723FC04460028CDD101460FA8FFF78E
S21400A4B073FC04460028C6D1022112A8FFF715FC3B
S21400A4C004460028BFD1032115A8FFF70EFC04465A
S21400A4D00028B8D13046FFF77BFC00F01F001F288D
S21400A4E074D0C0F11F03194609A80293FFF7FDFCBC
S21400A4F004460028A7D102993046FFF7F6FC04462A
S21400A5000028A0D10A9DDDF834A005F1FF390AF134
S21400A510FF33A9EB030B00934FEA4B131946304663
S21400A5200493FFF7E2FC044600288CD14FEA8B0B1D
S21400A530314609A8FFF78DFD002849DA0499304610
S21400A540FFF71BFD044600287FF47DAF009B05F156
S21400A55080454FEA830BABF1040307936FF00303C8
S21400A56003FB0AF3013D0693CAEBCA63AD000593ED
S21400A570009B99453BD8019B5BB10FA91846FFF796
S21400A580DAFB08BB039BD8F800201B685343019AEC
S21400A5901360002F3FF457AF029909A8FFF7EDFCB0
S21400A5A090B9D8F8003009A938460993FFF7C3FBDD
S21400A5B00146002840F0C3803846FFF78AFD002891
S21400A5C07FF441AF01233B6004463CE7029499E7E1
S21400A5D0119951F80B20013241F80B2009A9324697
S21400A5E00846FFF74DFE04460028A1D02BE70B993E
S21400A5F00E9A06984B5952F80B2046199342A5F12D
S21400A60004000490DDF844A07ED34FF0FF334AF8F0
S21400A61006305AF8063001334AF80630A5F1080A23
S21400A620119A0021935912A8013B9351FFF7B4FBEE
S21400A6300028C9D1009B0E9A002B7ED0079BD158CC
S21400A640149B196052F80B2012A95A60119B0846F9
S21400A6509A59FFF7B7FE0146002870D115A8FFF7F4
S21400A6609BFB0028B0D10B9AB9F1010F18BF52F826
S21400A6700A00179B04991860515812A8596052593D
S21400A68015A99A60FFF7E5FC0028C9DC119B0CA908
S21400A6909A5912A8FFF796FE002895D1059B12A896
S21400A6A003EB090A4FEA4A1A5146FFF71EFC002838
S21400A6B08AD109A9084612AAFFF7E2FD014600283A
S21400A6C03DD109A8FFF705FD002819DA0CA912A844
S21400A6D0FFF731FB00287FF477AF514612A8FFF74B
S21400A6E004FC00287FF470AF09A912AA0846FFF7F9
S21400A6F0A5FD00287FF468AF119A9359013B93514A
S21400A70009F1FF39043D33E7049851F800C08AB1D7
S21400A71019460023184640EA0C0022F07FFA002370
S21400A7204FF0FF328B4208BF824200D210464AF8F2
S21400A73006006EE74FF0FF30F9E7009980E70C4619
S21400A74081E66FF00B0473E670B504460D461046BE
S21400A75000211646FFF7BDFC002824DB2A463346B8
S21400A76021460020FFF73BFE054638B1284670BD5F
S21400A770324621462046FFF761FD90B9002120466B
S21400A780FFF7A7FC0028F3DB31462046FFF761FC05
S21400A7900028EBDB324621462046FFF771FD0028F5
S21400A7A0F2D00546E2E76FF00905DFE718B112B10F
S21400A7B01160002070470148704700BF009FFFFFF0
S21400A7C0054B53F8042C22B1083313F8101C8142B1
S21400A7D0F7D11046704700BF98DB020010B504465C
S21400A7E098B1006C28B1242101F086F8206CFEF7A1
S21400A7F0A9FFE06B18B123689B691B6A984720463F
S21400A800BDE81040442101F077B810BD30B40468AC
S21400A810B4B12569AD0702D46568954210D1012B05
S21400A8204260037203D06578033D022D04D8A36905
S21400A8305B69C06B30BC184713B9A3699B69F8E71E
S21400A840014830BC704700BF009FFFFF2DE9F04F66
S21400A8501546026885B004460F469946DDF83880EE
S21400A8601AB9624805B0BDE8F08F0021C8F800109C
S21400A8705669002E00F0B380517801290FD1B542F9
S21400A88040F0AF809269C8F8005055683A46AC462A
S21400A89090F90810C06B05B0BDE8F04F60479F42C6
S21400A8A008D1436A002BDCD1B5FBF6F306FB135345
S21400A8B0002BD6D102296ED194F90830606A7BB994
S21400A8C0E268331A7AB1AB420FD314302A463946BF
S21400A8D0204422F08CFB636A1D4465620020C1E7B9
S21400A8E0012B02D1331AAB42EFD810B3A6EB000A05
S21400A8F0143052463946204422F079FB234653F85A
S21400A900142B94F908109269CDE90039E06BD2F85F
S21400A91008B004F128033246D8470028A2D1D8F858
S21400A9200030B1443344C8F8003057446062A5EBA9
S21400A9300A05002DD2D0B5FBF6FA06FB1A5ABAF174
S21400A940000F06D194F908301BB9E368002B18BF36
S21400A950B246A5EB0A055246791904F1140022F016
S21400A96046FB636A53446362002DB7D0236894F9AC
S21400A97008109B69CDE900792A469E68E06B04F1D1
S21400A9802803B04700287FF46DAFD8F800301D4488
S21400A990C8F8005066E7032910D19369CDE901791C
S21400A9A004F128020092DE6894F9081004F12403EA
S21400A9B02A46E06BB0470028EAD053E7052912D1B3
S21400A9C09369CDE9017904F1140200921E6904F13D
S21400A9D0240204F128032946E06BB047EBE704485D
S21400A9E040E704483EE704483CE700BF009FFFFFFF
S21400A9F0809CFFFF809DFFFF809FFFFF036853B191
S21400AA005B78022B07D1042907D10023044AC360D0
S21400AA10026118467047034870470348704700BFF6
S21400AA20ADA70000009FFFFF809FFFFF38B50446DC
S21400AA300D4679B14422002122F0FDFAAB69DB69AC
S21400AA409847E06340B1256004212046FFF7D6FF13
S21400AA50002038BD0148FCE70148FAE7009FFFFFE9
S21400AA60809EFFFF10B5044602F0E4F92046BDE8DC
S21400AA701040FEF767BE10B524210120FEF752FEF7
S21400AA80044608B102F0D2F9204610BD13460A4625
S21400AA90022102F0D5B910B5044601F0FAFF2046AF
S21400AAA0BDE81040FEF74EBE10B524210120FEF78B
S21400AAB039FE044608B101F0E8FF204610BD02F05A
S21400AAC009B801F0ECBF02F028B902F07EB802F037
S21400AAD03AB802F001B82DE9F047B2F5C07FADF5FF
S21400AAE00A7D07468846154600F29D804FF4D072D0
S21400AAF0002122A822F09FFA0DA801F0C6FF2B0A1B
S21400AB0000248DF89A30302328AE41462A46304637
S21400AB108DF89F30ADF898408DF89B5022F067FA7C
S21400AB208023735523460DF1140803F808300133CB
S21400AB30202BFAD14FF4807241460DA801F0AFFFEA
S21400AB400446002851D1064619351022002101A8D6
S21400AB5022F071FAAA460DF187090DF1030309F1F7
S21400AB60100113F8012F19F8010F424049451A70D9
S21400AB70F7D101ABBAF1100F1A464FF001010DA83C
S21400AB8094BFAAEB0A0AAAF1100A01F0A5FF044630
S21400AB9058BBBAF1000FE0D116AB9819102201A9E4
S21400ABA022F025FA9DF88B3010360133302E8DF8C2
S21400ABB08B30CAD14FF4807216A90DA801F06FFF32
S21400ABC0044690B93D4607F130061EAB1A460121F1
S21400ABD00DA801F081FF044638B9284610221EA9A8
S21400ABE0103522F004FAAE42EFD10DA801F051FF65
S21400ABF04FF4D07122A800F07FFE302116A800F096
S21400AC007BFE2021404600F077FE102101A800F0D0
S21400AC1073FE1CB13021384600F06EFE20460DF55E
S21400AC200A7DBDE8F0876FF03704F7E72DE9F041BD
S21400AC308CB004460E4630220021684622F0FBF90E
S21400AC404FF0000804F120070DEB080304F1100193
S21400AC5011F8012D0132D2B20A700AB9A142F7D119
S21400AC6022460121384601F037FF0546E8B908F1CB
S21400AC701008B8F1300FE7D1731E0DF1FF322F36F2
S21400AC8012F8011F13F8010F4140B3421170F7D1BB
S21400AC904FF480726946384601F001FF054620B938
S21400ACA0102208A9204622F0A2F96846302100F0BA
S21400ACB023FE28460CB0BDE8F0814C22002122F08D
S21400ACC0BAB9F0B58369E1B0B3F5C07F05460F4663
S21400ACD0164630D8C3F5C07393422CD34FF4C072D7
S21400ACE00021684622F0A7F96B6CAA696946A86C31
S21400ACF0984718BBAC693FB136B10DEB040032463D
S21400AD00394622F074F93444224669466846FFF70D
S21400AD10E2FE044638B969462846FFF787FF044630
S21400AD2008B901232B614FF4C071684600F0E4FDBA
S21400AD30204661B0F0BD6FF03704F9E76FF03304DA
S21400AD40F6E72DE9F04104468846174688B02022EB
S21400AD500021684604F120051E4622F06CF92846BC
S21400AD6001F093FEA369C4E911870BB92023A36100
S21400AD7042F210734FF48072E3616946284601F090
S21400AD808EFE20B90E9A31462046FFF79AFF08B08D
S21400AD90BDE8F0812DE9F041B2F5806F90B0054630
S21400ADA00F4616469846169C5CD8B4F5807F5CD84D
S21400ADB03022002104A822F03EF92A69EB699A4263
S21400ADC001DC6B699BB1224641462846FFF779FFB6
S21400ADD0044620BB05F120082EBB04A92846FFF731
S21400ADE025FF044698B92B6901332B610FE0002C30
S21400ADF0F0D02246414604A8FFF76DFE044630B95F
S21400AE0004A92846FFF712FF04460028E2D03021A6
S21400AE1004A800F071FD1021684600F06DFD204684
S21400AE2010B0BDE8F08105F1100212F8013D0133C3
S21400AE30DBB213700BB9AA42F7D16B462A46012142
S21400AE40404601F049FE04460028E0D1102E344664
S21400AE5028BF102438462246694622F0C8F8274400
S21400AE60361BB9E76FF03504D9E76FF03704D6E73D
S21400AE70002307B50093FFF78DFF03B05DF804FBD2
S21400AE80036B2BB1C36B002B0CBF02200120704755
S21400AE90184670474B6E70B504460D462BB9BDE894
S21400AEA070400A1D0146FFF74FBC0368002B09DB04
S21400AEB02046FEF78DFFAB6DB0EB430F08D9174E5B
S21400AEC0304670BD0021FFF704F90028F0D0F6E701
S21400AED06B6E2046984706460028F1D10435236855
S21400AEE0002B04DA00212046FFF7F3F868B929465C
S21400AEF02046FFF7AEF80028E2DB2A462146204629
S21400AF00FFF75EF90028F2D006E02A4621462046E2
S21400AF10FFF794F90028E2D00646D1E780B0FFFF9D
S21400AF2010B50446FEF7CFFE04F10C00FEF7CBFE8C
S21400AF3004F11800BDE81040FEF7C5BE10B5044683
S21400AF40FEF7BBFE04F10C00FEF7B7FE04F1180096
S21400AF50BDE81040FEF7B1BE38B50025044600F83F
S21400AF60045BFEF7AAFE04F11000FEF7A6FE04F14D
S21400AF701C00FEF7A2FE04F12800FFF7DFFF04F135
S21400AF804C00FEF79AFEC4E91655C4E91855C4E904
S21400AF901A55C4E91C55A56738BD08B1FFF7C0BFF0
S21400AFA0704770B5044660B3036E012B12D00430B0
S21400AFB0FEF789FE04F11000FEF785FE04F11C0082
S21400AFC0FEF781FE04F12800FFF7E7FF04F14C00CE
S21400AFD0FEF779FE636F8BB92046BDE870407C2192
S21400AFE000F08ABC06FB0500FFF7D7FF0135D4E961
S21400AFF01D03AB42F6D8FEF7A5FBEDE70025242699
S21400B000F5E770BDF0B50F4687B00546012107F19C
S21400B0101800FFF75EF8064658B92846FFF730FFD7
S21400B020012840F0A08031463846FFF752F8002845
S21400B03001DA4E4C6DE007F10C0431462046FFF76E
S21400B04048F80028F5DB2E1D31463846FFF701F894
S21400B0500028EEDA31462046FEF7FBFF0028E8DA45
S21400B0606846FEF72AFE03A8FEF727FE224621467C
S21400B0706846FFF73EF90446002844D1294668464C
S21400B080FFF708FF044600283DD13A46394603A894
S21400B090FFF72FF90446002835D1294603A8FFF705
S21400B0A0F9FE044678BBAB69002B41D103A9032205
S21400B0B00846FFF708F9044628BB039B002B2BDB4A
S21400B0C003A93A460846FFF714F90446D8B92946B4
S21400B0D003A8FFF7DFFE0446A8B903A905F11C0282
S21400B0E00846FFF7ABF8044668B9314603A8FEF7F2
S21400B0F0B0FF002831DA03A96846FEF7AAFF1B4C0A
S21400B100002808BF00246846FEF7DDFD03A8FEF70A
S21400B110DAFD204607B0F0BD002103A8FEF7D9FFF0
S21400B1200028CDD003A932460846FFF787F8C2E7C5
S21400B13003A905F110020846FFF780F80446002828
S21400B140E1D1314603A8FEF784FF0028B8DB03A947
S21400B15032460846FFF734F8F0E703A932460846B9
S21400B160FFF72EF8BFE7024CD3E700BF80B3FFFF20
S21400B17080B0FFFF036810B559184FF0000428BFD1
S21400B1800124016013781C44147010BD036810B5C8
S21400B19014788B4238BF013C147003685B1A036056
S21400B1A010BD0923012270B5002104468EB0CDE9FA
S21400B1B0022305A824228DF80310049021F03BFFFB
S21400B1C010212046FEF791FD0546002840F0288213
S21400B1D0A36801A81A68196A01920DF10302FFF725
S21400B1E0C9FFA3680DF10302596A01A8FFF7C2FF61
S21400B1F0A3680DF10302D96A01A8FFF7C7FFA36889
S21400B2000DF10302196B01A8FFF7C0FFA3680DF14B
S21400B2100302596B01A8FFF7B9FFA3680DF10302FB
S21400B220996B01A8FFF7B2FF019AA3681A609DF90F
S21400B23003105B68002901938DF803500DF103029B
S21400B24080F2F181494201A8FFF7A0FFA3680DF143
S21400B2500302596A01A8FFF78DFFA3680DF10302E8
S21400B260996A01A8FFF786FFA3680DF10302196B20
S21400B27001A8FFF78BFFA3680DF10302596B01A825
S21400B280FFF784FFA3680DF10302996B01A8FFF78F
S21400B2907DFFA3680DF10302D96B01A8FFF776FFC7
S21400B2A0019AA3689DF903105A609B680DF103028A
S21400B2B00193002399428DF8033080F2B881494209
S21400B2C001A8FFF763FFA3680DF10302996A01A8BE
S21400B2D0FFF750FFA3680DF10302D96A01A8FFF734
S21400B2E049FFA3680DF10302596B01A8FFF74EFF53
S21400B2F0A3680DF10302996B01A8FFF747FFA36847
S21400B3000DF10302D96B01A8FFF740FF019AA3686D
S21400B3109DF903109A60DB680DF103020193002388
S21400B32099428DF8033080F28681494201A8FFF7E2
S21400B3302DFFA3680DF10302D96A01A8FFF71AFFD3
S21400B340A3680DF10302D96A01A8FFF713FFA368EB
S21400B3500DF10302196B01A8FFF70CFFA3680DF1AE
S21400B3600302196B01A8FFF705FFA3680DF103029E
S21400B370596B01A8FFF7FEFEA3680DF10302D96B17
S21400B38001A8FFF703FFA3680DF10302196A01A8DD
S21400B390FFF7FCFEA3680DF10302596A01A8FFF748
S21400B3A0F5FE019AA3689DF90310DA601B690DF19A
S21400B3B003020193002399428DF8033080F23F8107
S21400B3C0494201A8FFF7E2FEA3680DF10302196BDC
S21400B3D001A8FFF7CFFEA3680DF10302196B01A8C1
S21400B3E0FFF7C8FEA3680DF10302596B01A8FFF72B
S21400B3F0C1FEA3680DF10302596B01A8FFF7BAFE60
S21400B400A3680DF10302996B01A8FFF7B3FEA368CA
S21400B4100DF10302596A01A8FFF7B8FEA3680DF103
S21400B4200302996A01A8FFF7B1FE019AA3689DF985
S21400B43003101A615B690DF1030201930023994220
S21400B4408DF8033080F2FF80494201A8FFF79EFE88
S21400B450A3680DF10302596B01A8FFF78BFEA368E2
S21400B4600DF10302596B01A8FFF784FEA3680DF1E6
S21400B4700302996B01A8FFF77DFEA3680DF1030296
S21400B480996B01A8FFF776FEA3680DF10302D96B4E
S21400B49001A8FFF76FFEA3680DF10302996A01A8E1
S21400B4A0FFF774FEA3680DF10302D96A01A8FFF73F
S21400B4B06DFE019AA3689DF903105A619B690DF110
S21400B4C003020193002399428DF8033080F2BF8077
S21400B4D0494201A8FFF75AFEA3680DF10302996BD3
S21400B4E001A8FFF747FEA3680DF10302996B01A8B8
S21400B4F0FFF740FEA3680DF10302D96B01A8FFF722
S21400B50039FEA3680DF10302D96B01A8FFF732FEDE
S21400B510A3680DF10302996B01A8FFF72BFEA36841
S21400B5200DF10302596B01A8FFF724FEA3680DF185
S21400B5300302196A01A8FFF729FEA3680DF10302AA
S21400B540596A01A8FFF722FE019AA3689DF9031025
S21400B5509A61DB690DF103020193002399428DF88D
S21400B560033078DA494201A8FFF710FEA3680DF110
S21400B5700302D96B01A8FFF7FDFDA3680DF10302D6
S21400B580D96B01A8FFF7F6FDA3680DF10302D96B8E
S21400B59001A8FFF7EFFDA3680DF10302196A01A8E1
S21400B5A0FFF7E8FDA3680DF10302996A01A8FFF70B
S21400B5B0EDFDA3680DF10302D96A01A8FFF7E6FDC9
S21400B5C0A3680DF10302196B01A8FFF7DFFDA3685E
S21400B5D00DF10302596B01A8FFF7D8FD019BA16886
S21400B5E09DF90320CB6122EAE2730B6200230193EC
S21400B5F0082360680133984231D8002A10DA039B8A
S21400B600049903F180435242013B41F8232020462F
S21400B610224602A9FEF7D4FD10B94FF0FF3323608F
S21400B62028460EB070BD01A8FFF7A4FD0EE601A8DF
S21400B630FFF7A0FD47E601A8FFF79CFD79E601A805
S21400B640FFF798FDC0E601A8FFF794FD00E701A804
S21400B650FFF790FD40E701A8FFF78CFD86E7019E07
S21400B66041F82360C6E7000038B50D460446FFF7EC
S21400B67098FC032D257027D1164B012563660823F9
S21400B680154AC4E90153E260144AC4E907536262EA
S21400B690C4E91353124AC4E90A53A363114B626503
S21400B6A0C4E90F35104A114BC4E90C25A364656440
S21400B6B0201DFEF78DFBA06504F14C00FEF788FB0D
S21400B6C0C4E91705002038BD2046FFF76AFC084885
S21400B6D0F9E700BFA3B1000050DD0200D0DC020095
S21400B6E030DD020010DD0200F0DC02007C080020E5
S21400B6F080B1FFFF2DE9F041202B8AB080460E4630
S21400B70017461D4609D9002302AA2946384600F0E6
S21400B710FDF8044608BB202502AFD8F800108DF8C7
S21400B72004608DF8055008F1040681B10123022259
S21400B730C8F8003001A9304602F011FA044660B994
S21400B7402A463946304602F00AFA044605E03046F4
S21400B75002F0FAF904460028E8D002A8202100F0FA
S21400B760CBF820460AB0BDE8F0812DE9F043036F20
S21400B770A3B08046002B36D0002604463746B14696
S21400B780D8F87030BB420CDC002E14BF00256FF0DA
S21400B7903C05802102A800F0AFF8284623B0BDE89B
S21400B7A0F083D4F88430656F012BCDF8049001AB9C
S21400B7B04FF0800202A9A06F08BF0126A8470546E1
S21400B7C00028E6D1019B5BB102AAF9B24046FFF71A
S21400B7D091FF05460028E0D1E36F019A1344E36722
S21400B7E001371434CCE76FF03F05D6E738B50025AF
S21400B7F00446282205672946743021F01CFC2046A2
S21400B80040F8045B02F096F9226F012A0BDC142341
S21400B81003FB024304492020C3E91D1501210A4405
S21400B820C3E92001226738BDD9D400002DE9F041D4
S21400B830202A88B005468846174659D84FF48176A0
S21400B840013E52D02846FFF790FF0446C0BB2A466A
S21400B8500121D5F870C0A4453ADC0029F0D020229A
S21400B860002168462E1D21F0E6FB6946304602F0B0
S21400B87088F9044620BB304602F060F9304602F0F4
S21400B88059F92146304602F05FF90446C0B9202235
S21400B8906946304602F063F9044688B903466A46AC
S21400B8A02021684600F032F8044648B903461421C1
S21400B8B02A6F9A4214DC3A466946404621F097FBC6
S21400B8C02021684600F018F8204608B0BDE8F08150
