S0120000786732342D656B2D63676D2E7333373C
S31508012000C00A0020714E01086F4E01086F4E010883
S31508012010ED8101086F4E01086F4E01086F4E0108E8
S315080120206F4E01086F4E01086F4E01086F4E010889
S315080120306F4E010848F40308D54701086F4E010899
S315080120406F4E01086F4E01086F4E01086F4E010869
S315080120506F4E01086F4E01086F4E01086F4E010859
S315080120606F4E010895490108A14901086F4E0108FB
S315080120706F4E01086F4E01086F4E01086F4E010839
S315080120806F4E01086F4E01086F4E01086F4E010829
S315080120906F4E01086F4E01086F4E01086F4E010819
S315080120A06F4E01086F4E01086F4E01086F4E010809
S315080120B06F4E010889B6030881C0030839C00308B1
S315080120C035C0030855B803087DC003083DC0030899
S315080120D055C0030841C00308E1C00308C1C003088D
S315080120E06F4E01086F4E01086F4E01086F4E0108C9
S315080120F0697801086F4E01086F4E01086F4E010895
S315080121006F4E01086F4E01086F4E01086F4E0108A8
S315080121106F4E01086F4E01086F4E01086F4E010898
S315080121206F4E01086F4E01086F4E01086F4E010888
S315080121306F4E01086F4E01086F4E01086F4E010878
S315080121406F4E01086F4E01086F4E01084B91010849
S31508012150819E03086F4E010881830308878303085C
S315080121606F4E01086F4E01086F4E01086F4E010848
S3150801217010B5054C237833B9044B13B1044800E074
S3150801218000BF0123237010BD7C0F00200000000052
S31508012190A447040808B5034B1BB10349034800E0EB
S315080121A000BF08BD00000000800F0020A4470408F6
S315080121B0A3F5803A704700BF174B002B08BF134B96
S315080121C09D46FFF7F5FF00218B460F461348144A33
S315080121D0121A2AF066FE0E4B002B00D098470D4BBB
S315080121E0002B00D098470020002104000D000D485F
S315080121F0002802D00C4800E000BF2AF0E7FD2000C5
S31508012200290000F0EAF82AF0CDFD00BF0000080019
S315080122100000000000000000C00A00207C0F00201A
S31508012220802900200000000000000000F0B5354DAF
S3150801223093B008AC0FCD0FC40FCD0FC495E80300BA
S3150801224084E8030001240026032521462A20CDE936
S315080122500366CDE9056607968DF80E508DF8084098
S315080122608DF809608DF80A608DF80B6003F04CFA59
S3150801227021463A2003F048FA234804F059FB022183
S315080122804FF4B06003F0A4FE40F2BA430B93042363
S3150801229002278DF821308DF830309DF819303246F5
S315080122A01A490093184833468DF817708DF824603B
S315080122B08DF8234004F0CEFB10230A9008AA124891
S315080122C005A98DF809308DF80C708DF8084004F0D1
S315080122D0FFFB0D4802AA03A904F0E9FA284602F011
S315080122E04FFD60B10A4C0B49206805F004FB02F06A
S315080122F067FD02F066FD0849206805F0FCFA13B08F
S31508012300F0BD00BFE8DF0308004000598096980039
S31508012310D0110020D8DF0308DDDF03080000000024
S315080123200123F0B5284A87B0D360536903F4A07333
S31508012330B3F5807FF9D104A8234904F0B1FB049BC6
S31508012340019301982AF09AF81BA3D3E900232AF0EE
S315080123500FF902460B4629F055FF19A3D3E90023C5
S315080123602AF030FACDE90201DDE90267DDE9020169
S315080123700022164B2AF0FCF80022144B04460D469F
S31508012380304639462AF0F4F82AF004FB2AF076F8A2
S3150801239002460B462046294629F032FF00220B4BFE
S315080123A02AF0E6F82AF0F6FA00F00700022898BFA4
S315080123B0013007B0F0BD00BF5C8FC2F5285CF33F62
S315080123C000000000FEFF2F410040005900408F40E9
S315080123D0FFF72CBF704700F023BC08B506F0D2FE04
S315080123E0FFF7F6FF06F0DBFEFFF7F4FF06F080F8CD
S315080123F0F8E700001022094B9A702322084BDA707D
S3150801240060225A700122074B1A800023064A13815B
S3150801241001330A2B02F10C02F9D17047980F0020FB
S315080124209F0F0020A60F0020E00A00202DE9F74F94
S31508012430068990F8129090F80AA01D4DF6B2044646
S3150801244090F8048002F0BCFC02F0BBFC00965346EF
S315080124504A461849286805F04EFA0026164FDFF84D
S3150801246060B00B34F3B29A4513D802F0A9FC02F016
S31508012470A8FC1249286805F03EFAB9F1190F8CBF74
S31508012480FF2200221721404603B0BDE8F04F1CF099
S315080124907FBA14F8013B01363B7002F091FC02F059
S315080124A090FC594617F8012B286805F024FAD9E754
S315080124B0D011002010E00308C00A00205BE30308DE
S315080124C030E0030830B5124D85B002F079FC02F010
S315080124D078FC1049286805F00EFA00220DF10E0362
S315080124E001930D4B0D480093172109230078ADF888
S315080124F00E201CF023FA044640B102F061FC02F0FA
S3150801250060FC22460649286805F0F5F905B030BD94
S31508012510D011002038E00308C00A0020DC0A002098
S3150801252055E003082DE9FF411F4E02F049FC02F070
S3150801253048FC1E49306805F0DEF900221C4D0DF1F4
S315080125400E031C4801930095072315210078ADF861
S315080125500E201CF0F3F907240746DFF8648002F021
S315080125602FFC013C02F02DFC414615F8012B306881
S3150801257005F0C1F914F0FF04F1D102F021FC02F0D3
S3150801258020FCBDF80E200C49306805F0B4F947B1B6
S3150801259002F016FC02F015FC3A460849306805F0C7
S315080125A0AAF904B0BDE8F081D01100209CE0030827
S315080125B0980F0020DC0A0020ADE00308BDE00308FF
S315080125C030E0030830B5124D85B002F0F9FB02F090
S315080125D0F8FB1049286805F08EF900220DF10E0363
S315080125E001930D4B0D480093132106230078ADF88E
S315080125F00E201CF0A3F9044640B102F0E1FB02F0FB
S31508012600E0FB22460649286805F075F905B030BD94
S31508012610D0110020EDE003089F0F0020DC0A0020FE
S3150801262012E103081FB50022104B11481B8813211C
S315080126308DF80C301B0A8DF80D300DF10E03019340
S3150801264003AB009300780223ADF80E201CF076F94F
S31508012650044648B102F0B4FB02F0B3FB054B22462F
S315080126600549186805F047F904B010BDA60F002002
S31508012670DC0A0020D011002012E1030810B5FFF78B
S315080126804FFE0A2888BF0A38074C88BFC0B2A07017
S3150801269002F096FB02F095FB044BA27804491868F0
S315080126A0BDE8104005F027B9CB0A0020D01100205B
S315080126B04CE1030870B51C4D2878FF2816D00F2267
S315080126C010211A4B1CF07CF9044680B9174A9388E5
S315080126D0917805330131C9B29BB213711E294FEAAC
S315080126E013239170537101D10423937070BD022095
S315080126F002F046FB68B10E4E0E49306805F0FBF84C
S3150801270002F05EFB02F05DFB22460B49306805F0DC
S31508012710F2F8064E1A2CD9D133460F221021287801
S315080127201CF04EF90446F5E7DC0A0020CB0A002026
S31508012730D011002082E1030887E10308034B1B78C7
S315080127401BB1034B1888FFF7B5BF7047321100203C
S31508012750DE0A0020C37910B5012B0DD10489012C9D
S315080127600BD102F02DFB02F02CFB0D4B0D4918681D
S3150801277005F0C1F80C4B1C7010BD002CFCD102F001
S315080127801FFB02F01EFB064B0849186805F0B3F853
S31508012790054B07481C70BDE8104002F0F3B900BFAD
S315080127A0D0110020B7E10308E00F0020D8E10308A3
S315080127B0AC0F002018212DE9F0438BB08DF80E10CF
S315080127C00B218DF80F1008218DF8101069218DF84D
S315080127D012106C21824B8DF813101B786121002B86
S315080127E04FF001038DF809304FF006038DF81410E8
S315080127F04FF062018DF80A304FF003038DF815107A
S315080128004FF02D018DF80B308DF80C308DF81B30FB
S315080128104FF019038DF817104FF063018DF81C302E
S315080128204FF00D038DF818104FF06D018DF81D301E
S315080128304FF007030CBF172018201F2273268DF8A7
S315080128401A10022700214FF067088DF81F30654BD3
S315080128508DF8200018788DF80D208DF8210058780C
S315080128608DF81E108DF8220098788DF808708DF86D
S3150801287011608DF816608DF819808DF82300D878C7
S31508012880DFF89C918DF8240018795B798DF825007D
S315080128908DF8263099F8000002AB1CF001F8524C6D
S315080128A0054628B35149206805F025F8504920689E
S315080128B005F021F802F084FA02F083FA4D4B4E4AEC
S315080128C04E4900932068434605F015F82B464C4AB5
S315080128D04C49206805F00FF8284602F099FA4A494A
S315080128E0206805F008F84149206805F004F8FEE774
S315080128F0394699F800001BF0E9FF054628B33B491C
S31508012900206804F0F8FF3A49206804F0F4FF02F061
S3150801291057FA02F056FA374B374A38490093206876
S315080129206B2304F0E8FF2B46354A3649206804F044
S31508012930E2FF284602F06CFA3349206804F0DBFF0F
S315080129402A49206804F0D7FFFEE7304B1B78002B95
S3150801295037D002F035FA02F034FA2D49206804F02E
S31508012960CAFF2B46009547F230512A4A2A4802F0F7
S3150801297023F9054668B31D49206804F0BCFF1C49C4
S31508012980206804F0B8FF02F01BFA02F01AFA194B94
S31508012990194A1A4900932068334604F0ACFF2B46BE
S315080129A0174A1849206804F0A6FF284602F030FAAB
S315080129B01549206804F09FFF0C49206804F09BFF25
S315080129C0FEE702F0FDF902F0FCF91449206804F06B
S315080129D092FF01201BF0A0FF0BB0BDE8F08300BFFA
S315080129E050100020E10F0020D01100205BE30308FE
S315080129F0FAE103087BE50308FFE1030818E2030887
S31508012A0024E2030827E203083CE20308DD0A002062
S31508012A104DE20308252A0108E80F002070E20308A1
S31508012A20DA0A002037B5284802F0ACF8044688B11E
S31508012A30032002F0A5F968B1244D2549286804F058
S31508012A405AFF02F0BDF902F0BCF92246214928686D
S31508012A5004F051FF0023204A2048137000934FF4D5
S31508012A6080424FF4C86100781BF0F8FE054630B382
S31508012A70164C1B49206804F03EFF1A49206804F0E9
S31508012A803AFF02F09DF902F09CF9174B174A009399
S31508012A9017495023206804F02EFF2B46154A16497C
S31508012AA0206804F028FF284602F0B2F91349206885
S31508012AB004F021FF0A49206804F01DFFFEE703B070
S31508012AC0BDE83040FFF776BEE80F0020D0110020A0
S31508012AD0D8DF03089FE20308DD0A0020DA0A00208E
S31508012AE05BE30308FAE1030863E50308FFE103086A
S31508012AF018E2030824E2030827E203083CE2030874
S31508012B002DE9F04788B005AB00930A2204AB0020F3
S31508012B1003A91BF0CDFF039B002B62D108B0BDE8CA
S31508012B20F08702F04DF902F04CF94B4641469DF803
S31508012B300920206804F0DFFE0625DFF8D490DFF8C7
S31508012B40D8A002F03DF9013D02F03BF9514619F8CA
S31508012B50012B206804F0CFFE15F0FF05F1D102F034
S31508012B602FF902F02EF92249206804F0C4FE013635
S31508012B70039B5FFA86F99945D0D20DF10B030093B1
S31508012B80394648460DF10A030DF109021BF0C4FF47
S31508012B9005460028C5D01649206804F0ACFE15493B
S31508012BA0206804F0A8FE02F00BF902F00AF9124BAC
S31508012BB0124A134900932068A62304F09CFE2B466B
S31508012BC0104A1149206804F096FE284602F020F9B9
S31508012BD00E49206804F08FFE0549206804F08BFE33
S31508012BE0FEE700260A4F0B4CDFF83080C0E700BF2E
S31508012BF05BE30308FAE1030855E50308FFE1030867
S31508012C0018E2030824E2030827E203083CE2030862
S31508012C10E10F0020D011002030E00308C6E20308C6
S31508012C202DE9F0430368A94A23F47F4323F00703F8
S31508012C309342044687B000F068824ED802F17E427C
S31508012C40934200F0BB8120D8A2F58022934200F07E
S31508012C50B88102F54032934200F03C83A2F5002286
S31508012C60934200F08180032002F08AF8002800F0E0
S31508012C70A581974D9749286804F03DFE02F0A0F812
S31508012C8002F09FF8226894493DE2944A934200F083
S31508012C90948202F57C02934200F0F28202F17F42AD
S31508012CA09342E0D1032002F06BF860B1884C894960
S31508012CB0206804F020FE02F083F802F082F88849C1
S31508012CC0206804F018FEFF23864A1370864A13709B
S31508012CD007B0BDE8F043FFF76DBD844A934200F0A3
S31508012CE00C831FD8A2F57C02934200F0E48102F519
S31508012CF0A022934200F0D78202F17F429342B2D1D9
S31508012D00032002F03DF8002800F05881704C714903
S31508012D10206804F0F0FD02F053F802F052F8744905
S31508012D202068ABE1734A934200F0F98202F184729A
S31508012D3002F58032934200F0038302F17B4293420B
S31508012D4091D1032002F01CF8002800F03781604D6C
S31508012D506049286804F0CFFD02F032F802F031F834
S31508012D60B4F805206449CEE10DF10F0104A81BF062
S31508012D7007FF574C054600282ED002F021F802F02D
S31508012D8020F82A465D49206804F0B5FD5C492068AB
S31508012D9004F0B1FD5B49206804F0ADFD02F010F8BE
S31508012DA002F00FF8584B594A00935949BF23206836
S31508012DB004F0A1FD2B46574A5749206804F09BFDAC
S31508012DC0284602F025F85549206804F094FD4C4937
S31508012DD0206804F090FDFEE701F0F2FF01F0F1FF33
S31508012DE04F49206804F087FD06254E4F04AE01F0D1
S31508012DF0E7FF013D01F0E5FF394616F8012B20688A
S31508012E0004F079FD15F0FF05F1D101F0D9FF01F0C4
S31508012E10D8FF3B49206804F06EFD032001F0B0FF9E
S31508012E2058B12C49206804F066FD01F0C9FF01F08C
S31508012E30C8FF3D49206804F05EFD01201BF000FE35
S31508012E4003210E201BF0E8FD032001F099FF58B17C
S31508012E502049206804F04FFD01F0B2FF01F0B1FFEF
S31508012E603249206804F047FD314EFFF749FEFFF766
S31508012E70C1FA30461BF0DAFC054600285AD020492B
S31508012E80206804F038FD1F49206804F034FD01F07C
S31508012E9097FF01F096FF1C4B1C4A00931C49CF2350
S31508012EA0206804F028FD2B461A4A1B49206804F0BD
S31508012EB022FD284601F0ACFF1849206804F01BFDE5
S31508012EC00F49206804F017FDFEE700BFA0000A02BB
S31508012ED0D0110020D8DF030841E50308A0000A0144
S31508012EE0E3E30308DC0A0020DB0A0020A00006044D
S31508012EF0B4E40308A00006089DE40308ECE203080D
S31508012F005BE30308FAE1030891E50308FFE1030817
S31508012F1018E2030824E2030827E203083CE203084F
S31508012F2009E3030832E0030813E3030827E3030868
S31508012F30DA0A0020009040F6B8334FF4F0723021D7
S31508012F4030781BF08BFC054628B3B249206804F09B
S31508012F50D2FCB149206804F0CEFC01F031FF01F042
S31508012F6030FFAE4BAE4A0093AE49D723206804F032
S31508012F70C2FC2B46AC4AAD49206804F0BCFC284685
S31508012F8001F046FFAA49206804F0B5FCA14920686A
S31508012F9004F0B1FCFEE7FFF70DFC01F011FF01F0AB
S31508012FA010FFA449206804F0A6FC012341F28831E8
S31508012FB00093A14A2B46A14801F0FEFD07B0BDE8E2
S31508012FC0F083037B9E4FDFF8B0823B70437B9D4EB7
S31508012FD088F800309C4D837ADFF8A092337001F0AF
S31508012FE0EFFE01F0EEFE32789849286804F083FC7A
S31508012FF06268974B06261A6022891C469A8001F058
S31508013000DFFE013E01F0DDFE494614F8012B286872
S3150801301004F071FC16F0FF06F1D101F0D1FE01F0C2
S31508013020D0FE7C49286804F066FC032001F0A8FE5E
S3150801303070B18849286804F05EFC01F0C1FE01F010
S31508013040C0FE98F800303A788349286804F053FCA2
S3150801305098F80030FF2B16D138781BF003FD0320B2
S3150801306001F08EFE0028A9D07A49286804F043FCAD
S3150801307001F0A6FE01F0A5FE7849286807B0BDE86B
S31508013080F04304F038BC032001F07AFE68B17149B7
S31508013090286804F030FC01F093FE01F092FE98F8DE
S315080130A000206F49286804F026FC387807B0BDE887
S315080130B0F0431BF0D7BCB0F805401B2C0DD01E2CD5
S315080130C006D0102C0ED107B0BDE8F043FFF742BB7E
S315080130D007B0BDE8F04301F0A1B907B0BDE8F04378
S315080130E000F0D4BE032001F04BFE00283FF466AF82
S315080130F0554D5849286804F0FEFB01F061FE01F0C0
S3150801310060FE2246574928687FE0B0F80530153B2E
S31508013110092B4AD801A252F823F000BFBD2F010896
S31508013120AB31010873310108AB310108AB31010834
S31508013130AB3101087D310108AB310108AB3101081A
S3150801314045310108032001F01BFE60B13E4D41499E
S31508013150286804F0D0FB01F033FE01F032FE424943
S31508013160286804F0C8FB204607B0BDE8F04301F023
S31508013170EBB907B0BDE8F043FFF758B9032001F0F2
S31508013180FFFD60B1304D3349286804F0B4FB01F006
S3150801319017FE01F016FE3549286804F0ACFB2046F7
S315080131A007B0BDE8F04300F0A9BE01F009FE01F041
S315080131B008FE254B2E49186860E7B0F80540A4F1CA
S315080131C01303062B19D8DFE803F00E18091804189B
S315080131D0130007B0BDE8F043FFF774B907B0BDE8BF
S315080131E0F043FFF79FB907B0BDE8F043FFF7EAB927
S315080131F007B0BDE8F043FFF715BA01F0E1FD01F0AC
S31508013200E0FD2246104B1B49186807B0BDE8F0439C
S3150801321004F071BB5BE30308FAE1030891E50308CF
S31508013220FFE1030818E2030824E2030827E203087A
S315080132303CE2030835E303087D2601081C1000203B
S31508013240DC0A002050100020D01100205DE303089D
S31508013250E10F0020D8DF030878E30308ACE303088D
S31508013260BBE30308F7E303080BE4030826E40308B2
S315080132703BE4030850E40308DB0A002030E00308B6
S31508013280032001F07DFD00283FF498AE414D4249E7
S31508013290286804F030FB01F093FD01F092FDE27A13
S315080132A03E4901322FE7032001F06AFD68B1394D25
S315080132B03949286804F01FFB01F082FD01F081FD00
S315080132C062793749286804F016FB07B0BDE8F04370
S315080132D0FFF716BC032001F053FD00283FF46EAE3C
S315080132E02C4D2D49286804F006FB01F069FD01F013
S315080132F068FDB4F805202B4905E7032001F040FDD8
S3150801330000283FF45BAE234D2349286804F0F3FAFD
S3150801331001F056FD01F055FD62792349F3E60320D4
S3150801332001F02EFD00283FF449AE1A4C1A492068CF
S3150801333004F0E1FA01F044FD01F043FD1B49EFE415
S31508013340032001F01DFD60B1124D1349286804F0F0
S31508013350D2FA01F035FD01F034FD1549286804F06B
S31508013360CAFA012120791BF08FFB00283FF426AE0B
S31508013370032001F005FD00283FF420AE054C06495F
S31508013380206804F0B8FA01F01BFD01F01AFD09499D
S31508013390C6E400BFD0110020D8DF030867E403089C
S315080133A07AE40308D5E40308E0E40308EBE4030838
S315080133B0FFE4030820E50308F8B52A4F2A4D3E78AD
S315080133C02A4CDEB101F0FCFC01F0FBFC2849286817
S315080133D004F091FA274801F0D5FB064640B101F001
S315080133E0EFFC01F0EEFC32462349286804F083FA23
S315080133F00023224A3B7013702380F8BD01F0E0FCDC
S3150801340001F0DFFC22881E49286804F074FA208836
S31508013410FFF750F923881B4A013312889BB29A4257
S315080134202380EAD101F0CCFC01F0CBFC16492868CF
S3150801343004F061FA114B0F4826801E7001F0A2FBB9
S31508013440044640B101F0BCFC01F0BBFC22460A4926
S31508013450286804F050FABDE8F8400121084600F052
S31508013460E7BC00BF51100020D01100202C1100200C
S31508013470A4E5030854100020C7E503082E1100200F
S31508013480EBE50308DE0A0020F4E503082DE9F0411F
S31508013490DFF8D0802B4E98F800702B4DEFB101F074
S315080134A08FFC01F08EFC2949306804F024FA28487B
S315080134B001F068FB044640B101F082FC01F081FC91
S315080134C022462449306804F016FA0023224A88F86D
S315080134D0003013702B80BDE8F081B1F8008001F04F
S315080134E06FFC01F06EFC2A881C49306804F003FA67
S315080134F02888FFF7DFF82C880134A4B244452C80CC
S31508013500E9D101F05DFC01F05CFC22461449306802
S3150801351004F0F1F9104B0E482F801F7001F032FBB1
S31508013520044640B101F04CFC01F04BFC2246094926
S31508013530306804F0E0F9BDE8F0410121084600F0E1
S3150801354077BC00BFD01100202A1100200FE603081E
S31508013550BC10002037E603082E110020EBE503080E
S3150801356070E6030851100020304B2DE9F0411A7816
S315080135700F882F4C12B9012227801A70DFF8D880DC
S315080135802C4D98F80060EEB101F01AFC01F019FC17
S315080135902949286804F0AFF9284801F0F3FA0646E4
S315080135A040B101F00DFC01F00CFC324624492868B3
S315080135B004F0A1F90023234A88F800301370238008
S315080135C0BDE8F08101F0FCFB01F0FBFB22881E49F6
S315080135D0286804F090F92088FFF76CF823881B4ABD
S315080135E0013312889BB29A422380E9D101F0E8FBA4
S315080135F001F0E7FB3A461649286804F07CF9114BB5
S315080136000E4826801E7001F0BDFA044640B101F04D
S31508013610D7FB01F0D6FB22460E49286804F06BF960
S31508013620BDE8F0410121084600F002BC271100203F
S3150801363028110020D011002094E6030888100020E4
S3150801364037E603082E110020EBE50308DE0A002001
S31508013650C4E60308EBE60308511000202DE9F843F8
S315080136602F4B0F881A78B1F802801AB92D4A17809C
S3150801367001221A70DFF8D4902B4C99F80060E6B154
S3150801368001F09EFB01F09DFB2849206804F033F9FF
S31508013690274801F077FA054640B101F091FB01F0A0
S315080136A090FB2A462349206804F025F90023224A7B
S315080136B089F800301370BDE8F8831A4D01F080FBD4
S315080136C001F07FFB2A881D49206804F014F928882F
S315080136D0FEF7F0FF2A88013292B242452A80EAD1E2
S315080136E001F06EFB01F06DFB43463A46144920682A
S315080136F004F001F9104B13481E7001F043FA054610
S3150801370040B101F05DFB01F05CFB2A460E492068D9
S3150801371004F0F1F8BDE8F8430121084600F088BB3A
S315080137202611002024110020D011002022E70308C9
S31508013730F01000204CE703082E1100207AE7030851
S3150801374090E70308BC100020C0E7030851100020C9
S31508013750052313B50193104B04221B881B218DF8F1
S3150801376006301B0A8DF8073001AB1BF03FF980B113
S31508013770022001F005FB60B1084C0949206804F0F4
S31508013780BAF801F01DFB01F01CFB0649206804F09C
S31508013790B2F802B010BD00BFDE0A0020D011002029
S315080137A082E10308F4E7030837B5857B184C01F075
S315080137B007FB01F006FB2A461649206804F09BF828
S315080137C00523154A019313881448013B9BB21380BC
S315080137D08DF806301B0A8DF8073004221B21007864
S315080137E001AB1BF003F980B1022001F0C9FA60B1FF
S315080137F00B49206804F07FF801F0E2FA01F0E1FADA
S315080138002A460849206804F076F803B030BD00BF9F
S31508013810D011002023E80308DE0A0020DC0A002074
S3150801382082E1030819E80308037B10B5012B044656
S3150801383002D0032B0FD010BD047901F0C1FA01F0B3
S31508013840C0FA0C4B0C49186804F055F82046BDE837
S315080138501040FFF77DBF01F0B3FA01F0B2FA054B4C
S315080138600649186804F047F82046BDE81040FFF7F6
S315080138709BBF00BFD01100204AE8030862E803088D
S315080138800022034B012102201A8000F0D1BA00BFA1
S31508013890DE0A0020054AC38911880B44018A0220E1
S315080138A05B1A0121138000F0C3BA00BFDE0A0020AB
S315080138B0037B10B5012B044602D0042B0DD010BD95
S315080138C001F07EFA01F07DFA0B4B0C49186804F0F9
S315080138D012F8BDE81040FFF7D3BF01F071FA01F005
S315080138E070FA054B0649186804F005F82046BDE844
S315080138F01040FFF7CFBF00BFD011002090E80308A2
S31508013900A4E8030813B50E490B78B3B901220D488B
S315080139100A70009264210C4A01F04EF9044660B11E
S3150801392001F04EFA01F04DFA2246084B084918688B
S3150801393002B0BDE8104003F0DEBF02B010BD00BF03
S315080139402E11002054100020B9330108D01100208F
S31508013950C4E803081FB5C3890E4AADF80E301378BB
S31508013960ABB90123642113700B4800930B4A0DF17F
S315080139700E0301F021F9044648B101F021FA01F0DC
S3150801398020FA074B22460749186803F0B4FF04B02A
S3150801399010BD00BF2E110020BC1000208D34010877
S315080139A0D0110020E4E803081FB5C3890E4AADF813
S315080139B00E301378ABB90123642113700B480093B9
S315080139C00B4A0DF10E0301F0F7F8044648B101F070
S315080139D0F7F901F0F6F9074B22460749186803F08B
S315080139E08AFF04B010BD00BF2E11002088100020E8
S315080139F069350108D011002009E903081FB5837A42
S31508013A00072B0BD001F0DCF901F0DBF91D4B1E4940
S31508013A10186804B0BDE8104003F06DBFC289038A77
S31508013A20C47A9A42ADF80C20ADF80E300ED901F0E1
S31508013A30C7F901F0C6F9134B1449186803F05BFF7F
S31508013A400521204600F0F4F904B010BD104A137898
S31508013A50002BF9D10123642113700E4800930E4AF5
S31508013A6003AB01F0A9F804460028EDD001F0A8F946
S31508013A7001F0A7F9034B22460849186803F03BFFF2
S31508013A80E2E700BFD011002031E903085DE9030828
S31508013A902E110020F01000205D36010875E9030893
S31508013AA0F0B52D4E87B033785BB101F089F901F095
S31508013AB088F92A4B2A49186807B0BDE8F04003F08F
S31508013AC01ABF02AC2346274A02F1080725461068A1
S31508013AD05168083203C5BA422C46F7D110681279E3
S31508013AE0286021482A7110210D2200781AF068FFF2
S31508013AF0044638B3194D1D49286803F0FCFE1C49D4
S31508013B00286803F0F8FE01F05BF901F05AF9194B40
S31508013B10194A009319494FF40673286803F0EBFE16
S31508013B202346174A1749286803F0E5FE204601F09F
S31508013B306FF91549286803F0DEFE0C49286803F079
S31508013B40DAFEFEE733782BB90121084600F070F951
S31508013B5007B0F0BD3070FBE751100020D0110020EE
S31508013B609CE90308F4EA0308DC0A00205BE303087E
S31508013B70FAE103082BEB0308ADE9030818E2030889
S31508013B8024E2030827E203083CE20308F0B52D4EB8
S31508013B9087B033785BB101F013F901F012F92A4BBA
S31508013BA02A49186807B0BDE8F04003F0A4BE02AC84
S31508013BB02346274A02F10807254610685168083244
S31508013BC003C5BA422C46F7D11068127928602148F4
S31508013BD02A7110210D2200781AF0F2FE044638B334
S31508013BE0194D1D49286803F086FE1C49286803F00B
S31508013BF082FE01F0E5F801F0E4F8194B194A009341
S31508013C0019494FF40D73286803F075FE2346174AC0
S31508013C101749286803F06FFE204601F0F9F815499F
S31508013C20286803F068FE0C49286803F064FEFEE77D
S31508013C3033782BB90121084600F0FAF807B0F0BD30
S31508013C403070FBE751100020D01100209CE90308D1
S31508013C5001EB0308DC0A00205BE30308FAE1030829
S31508013C600EEB0308ADE9030818E2030824E203088A
S31508013C7027E203083CE20308F8B5067B0446C57A41
S31508013C80062E75D8DFE806F00414262A4C5A670072
S31508013C9001F096F801F095F83B4B3C49002218686B
S31508013CA003F029FE03212846BDE8F84000F0C0B814
S31508013CB0837A022B01D00521F5E701F081F801F09D
S31508013CC080F8314B3249186803F015FEBDE8F84013
S31508013CD0FFF718BEBDE8F840FFF73CBE437B012B52
S31508013CE001D00921DFE7284EC78901F069F801F0FB
S31508013CF068F82849306803F0FEFD274B1B88BB424C
S31508013D0009D201F05DF801F05CF82449306803F046
S31508013D10F2FD0621C7E72046BDE8F840FFF744BE95
S31508013D2001F04EF801F04DF8174B1D49186803F0DC
S31508013D30E2FD2046BDE8F840FFF760BE01F040F815
S31508013D4001F03FF8104B1749186803F0D4FDBDE898
S31508013D50F840FFF7A5BE01F033F801F032F80A4B37
S31508013D601149186803F0C7FDBDE8F840FFF70EBF13
S31508013D7001F026F801F025F8034B0C49324618687C
S31508013D8003F0B9FD04218EE7D0110020C1E903082B
S31508013D90DAE90308EEE90308DE0A002027EA030840
S31508013DA059EA030879EA03088EEA0308A2EA03082E
S31508013DB00122184B73B51A700022174B1A70037B30
S31508013DC0F3B9164B164D019304221B21287801AB32
S31508013DD01AF00CFE044698B1022000F0D1FF68B132
S31508013DE0104E1149306803F086FD00F0E9FF00F036
S31508013DF0E8FF22460D49306803F07DFD1A2C01D0F3
S31508013E0002B070BD04221B21287801AB1AF0EEFD21
S31508013E100446F3E7511000202E1100200600030185
S31508013E20DC0A0020D011002082E10308BFEA03085A
S31508013E3037B5114B042201938DF806000F488DF80A
S31508013E40071000781B2101AB1AF0D0FD044688B192
S31508013E50022000F095FF68B1094D0A49286803F068
S31508013E604AFD00F0ADFF00F0ACFF2246064928687E
S31508013E7003F041FD03B030BD06000101DC0A002054
S31508013E80D011002082E1030849EB030838B5C4794B
S31508013E90012C1CD10589022D0BD100F091FF00F0F0
S31508013EA090FF114B1149186803F025FD104B1C7042
S31508013EB038BD002DFCD100F083FF00F082FF0A4BCC
S31508013EC00C49186803F017FD094B1D70F0E7022C21
S31508013ED0EED100F075FF00F074FF034B0649186830
S31508013EE0BDE8384003F007BDD011002073EB030885
S31508013EF02F11002089EB0308A0EB03082DE9F843ED
S31508013F006FF00A080446877A494DDFF8549100F1A3
S31508013F100B06A8EB000808EB06039F4222DC00F01B
S31508013F204FFF00F04EFF4349286803F0E4FC424B7B
S31508013F30E67A1B78414FFF2B1FD1414B1B7813B1F2
S31508013F40404B1B78CBB900F03BFF00F03AFF3E49E6
S31508013F50286803F0D0FC3878FD22BDE8F8431B2118
S31508013F601AF016BD00F02CFF00F02BFF494616F893
S31508013F70012B286803F0BFFCCDE7344B38781B7852
S31508013F8053B1012E08D1FE221B211AF001FD20464C
S31508013F90BDE8F843FFF770BE00221B211AF0F8FCB2
S31508013FA0042E3AD801A353F826F000BFC13F0108F1
S31508013FB08F3F0108DD3F0108E73F0108014001087D
S31508013FC000F0FEFE00F0FDFE2149286803F093FC8F
S31508013FD002210020BDE8F843FFF72ABF2046BDE8C5
S31508013FE0F843FFF765BC00F0EBFE00F0EAFE28682F
S31508013FF0184903F080FC2046BDE8F843FFF7D8BE10
S3150801400000F0DEFE00F0DDFE2868134903F073FCBC
S315080140102046BDE8F843FFF707BC00F0D1FE00F0E3
S31508014020D0FE0E49286803F066FC02213046D1E726
S31508014030D01100205BE30308DB0A0020DC0A00201C
S31508014040E00F00202F110020C9EB03082E110020D4
S31508014050FCEB030813EC030824EC03083BEC030808
S31508014060C1EB0308062303700C2359430F4A10B505
S31508014070545A53184470525A120A82705A88C27096
S315080140805A88120A02711A794271DA888271DA88B3
S31508014090120AC2711A8902721A89120A42729B7A23
S315080140A08372FF23C372037310BD00BFE00A0020A9
S315080140B013B50D4B0D4801930D4B04221B781E2198
S315080140C08DF80530007801AB1AF090FC044648B12A
S315080140D000F076FE00F075FE064B22460649186882
S315080140E003F009FC02B010BD0300FFFFDC0A002043
S315080140F0640B0020D01100204FEC030870B504466C
S315080141001B4D1C4EE0B900F05BFE00F05AFE1A4941
S31508014110286803F0F0FB194B34701A78E2B1184895
S315080141201C7000F02FFD0446B0B100F049FE00F006
S3150801413048FE224628681349BDE8704003F0DBBBF8
S31508014140FF280AD100F03CFE00F03BFE0E49286824
S3150801415003F0D1FB0223337070BD00F031FE00F08D
S3150801416030FE22460949286803F0C5FB3470F3E797
S31508014170D0110020640B002078EC030832110020CE
S31508014180AC0F0020C7E50308ABEC0308E4EC030811
S315080141904FF6FF7330B5818985B0994222D1224CF9
S315080141A0224D00F00DFE00F00CFE228820492868F9
S315080141B003F0A1FB68462188FFF754FF03461D4813
S315080141C00B221E2100781AF011FC044640B100F0BA
S315080141D0F7FD00F0F6FD22461749286803F08BFB28
S315080141E005B030BD4FF6FE73994206D10521084642
S315080141F005B0BDE8304000F049B96846FFF732FF1F
S3150801420003460C480B221E2100781AF0EFFB0446E0
S315080142100028E5D000F0D4FD00F0D3FD034B22467B
S3150801422005491868DAE700BF30110020D0110020CF
S3150801423007ED0308DC0A002027ED0308164A10B526
S31508014240138801339BB20A2B13800AD900F0B8FDF3
S3150801425000F0B7FDBDE81040104B1149186803F08E
S315080142604ABB0C23B0F8132084895A430D498C5252
S315080142708B18C28901215A80027C1A71B0F8112063
S31508014280DA80B0F813201A81427D04209A72BDE8BB
S31508014290104000F0FBB800BF30110020D0110020FB
S315080142A047ED0308E00A002030B5284B85B01A8887
S315080142B09B78ADF80C208DF80E30C37A082B21D1E6
S315080142C009238DF80C30224B1B888DF80D301B0AFB
S315080142D08DF80E301F4D03221E21287803AB1AF0E4
S315080142E085FB044660B100F06BFD00F06AFD1A48D3
S315080142F022462B781949006803F0FDFA1A2C1DD0BD
S3150801430005B030BD0B2BE5D10C23114C8DF80C30C3
S3150801431063888DF80D301B0A8DF80E3000F050FDBC
S3150801432000F04FFD9DF80E300B48009362889DF80A
S315080143300D300B49006803F0DEFACBE703221E2194
S31508014340287803AB1AF052FB0446D7E7C5ED0308F4
S31508014350580B0020DC0A0020D011002094ED030838
S315080143606EED030883890720B3F5E06F97BF034A0B
S3150801437005210121138000F089B800BF580B0020E0
S3150801438083890A20B3F5E06F97BF034A0521012106
S31508014390538000F07BB800BF580B002083890D209D
S315080143A0642B97BF024A05210121938000F06EB85C
S315080143B0580B002083891020B3F57A7F97BF034AEB
S315080143C005210121D38000F061B800BF580B0020F8
S315080143D083891320642B97BF024A05210121138182
S315080143E000F054B8580B002083891620B3F57A7F5C
S315080143F097BF034A05210121538100F047B800BF41
S31508014400580B0020044A01219378192023F0100340
S31508014410937000F03BB800BF980F002038B5C479F7
S31508014420012C1CD10589022D0BD100F0C9FC00F025
S31508014430C8FC114B1149186803F05DFA104B1C7042
S3150801444038BD002DFCD100F0BBFC00F0BAFC0A4BCC
S315080144500C49186803F04FFA094B1D70F0E7022C56
S31508014460EED100F0ADFC00F0ACFC034B0649186830
S31508014470BDE8384003F03FBAD0110020C8ED030863
S3150801448033110020DEED0308F5ED030837B5134BAC
S31508014490134D1B888DF80610ADF8043003228DF8EC
S315080144A005001E21287801AB1AF0A0FA044658B176
S315080144B000F086FC00F085FC0A4B22460A4918687A
S315080144C003F019FA1A2C01D003B030BD03221E21BC
S315080144D0287801AB1AF08AFA0446F3E752EF030883
S315080144E0DC0A0020D011002016EE030837B5134D5B
S315080144F08DF80510090A8DF804008DF806100322B7
S315080145001E21287801AB1AF071FA044658B100F059
S3150801451057FC00F056FC0A4B22460A49186803F074
S31508014520EAF91A2C01D003B030BD03221E212878DE
S3150801453001AB1AF05BFA0446F3E700BFDC0A002078
S31508014540D01100203CEE03082DE9F74306466FF02B
S315080145500908044616F80A7F8C4DDFF87492A8EB11
S31508014560000808EB06039F422FDC00F029FC00F047
S3150801457028FC8749286803F0BEF9864B002218787B
S315080145801E211AF005FAE37A013B1A2B00F2FA808A
S31508014590DFE813F086009400F800A100AF00F800E8
S315080145A0BB00B500F800C100B500F800CF00C70090
S315080145B0F800D900D500F800E300DF00F800ED00A7
S315080145C0E900F800F3004D00260000F0F9FB00F0C1
S315080145D0F8FB494616F8012F286803F08CF9C0E75D
S315080145E000F0EEFB00F0EDFB6B49286803F083F958
S315080145F06A4B6B4C1A787AB100226A481A7000F035
S31508014600C1FA064640B100F0DBFB00F0DAFB3246A0
S315080146106549286803F06FF901211B20A37843F047
S315080146200103A37003B0BDE8F043FFF72FBF5B4E4C
S3150801463000F0C6FB00F0C5FB5C49286803F05BF98E
S315080146403378F3B95A4A4FF47A7011780122414303
S3150801465000925448574A00F0AFFA044640B100F0B8
S31508014660AFFB00F0AEFB22465349286803F043F935
S3150801467001214B4A317093781A2023F00103937074
S31508014680D0E704211A20FFF701FF00F099FB00F09B
S3150801469098FB4A49286803B0BDE8F04303F02BB9F3
S315080146A000F08EFB00F08DFB4549286803F023F9DD
S315080146B0207BFFF723FD01210846B3E700F080FBC5
S315080146C000F07FFB3F49286803F015F903B0BDE800
S315080146D0F043FFF7EDBC00F073FB00F072FB3A49BB
S315080146E0286803F008F9204603B0BDE8F043FFF750
S315080146F0A5BD204603B0BDE8F043FFF749BD2046F6
S3150801470003B0BDE8F043FFF7CFBD204603B0BDE8CF
S31508014710F043FFF727BE204603B0BDE8F043FFF795
S315080147202FBE0F20294B998803B0BDE8F043FFF748
S31508014730DDBE204603B0BDE8F043FFF72FBE234B8D
S315080147401220D988F0E7204603B0BDE8F043FFF709
S3150801475031BE1E4B15201989E6E7204603B0BDE890
S31508014760F043FFF735BE194B18205989DCE7204677
S3150801477003B0BDE8F043FFF737BE03B0BDE8F04329
S31508014780FFF740BE03B0BDE8F08300BFD01100209B
S315080147905BE30308DC0A002062EE030832110020FD
S315080147A0980F0020AC0F0020C7E5030870EE030838
S315080147B0640B00203D2701087FEE0308A4EE0308D9
S315080147C0E7EE030812EF030832EF0308580B00203F
S315080147D0C1EB030809F0A8B904F0FABC10B5044600
S315080147E000F02AF92046FDF7F6FD10BD01207047B5
S315080147F000B5C3B009F0BAF809F0E3F848B1FFF714
S31508014800F5FF30B101A81AF00AF810B901A8FFF7A7
S31508014810E5FF43B05DF804FB704708B50321802026
S3150801482001F0D6FB03214FF4806001F0D1FB092189
S315080148304FF4C06001F0CCFB09214FF4F06001F0A0
S31508014840C7FB09213E2001F0C3FB09212D2001F0F8
S31508014850BFFB0921512001F0BBFB002008BD08B5AB
S3150801486002F022FF00F0FFFA02F0A4FE02F03AFF7E
S3150801487002F0C8FE02F0FCFE02F000FFFFF7CDFFD2
S3150801488002F0AEFE00F0E6FA00F0F6FB00F040FC9E
S31508014890BDE8084003F03CBD704708B500F0D8FAFA
S315080148A004F07AF902F020FF03F06EF807F0C6F873
S315080148B003F0EAFB05F0E6FC07F0C6FABDE8084096
S315080148C000F05AB808B502F053FE02F05BFEBDE8E7
S315080148D00840FFF781BF00F075BA704700F018BAB3
S315080148E0FFF786BF7047000070B5124E92B0354685
S315080148F00BAC0FCD0FC495E80700032384E8070026
S3150801490006F11C0506AC8DF845300FCD0FC42B6892
S31508014910236002AC06F130030FCB84E80F00064B87
S31508014920214600930BAA06AB044803F0ABFA12B072
S3150801493070BD00BF8CF3030834110020A0110020BC
S31508014940831E012B0AD8012908D80422094B1B6C9E
S31508014950C3F340130521002001F026BF02390129BE
S3150801496007D8012805D8034B00221B6CC3F3401353
S31508014970F0E7704700C0035008B50449044803F03E
S3150801498095FDBDE80840FFF7AFBF00BF040C002046
S3150801499078110020014B186803F03ABBA0110020DA
S315080149A0FFF7F8BF014B1A6A18681047A0110020D3
S315080149B0012070470120704710B509F043F80446F5
S315080149C000F0D6F9002808BF0024FFF7F1FF0028F8
S315080149D014BF2046002010BD38B503F08BFE0446EF
S315080149E009F03EF804281ED002284FF0000508BF3A
S315080149F00124FFF7D7FF042817D0022808BF01248E
S31508014A0000F0ACF9042812D0022808BF0124FFF7E8
S31508014A10D1FF04280DD0022808BF0124002D18BF94
S31508014A200024204638BD0125E3E70125E8E70125ED
S31508014A30EDE70024F5E70000036837B523F47F4363
S31508014A403A4A23F007039342044664D002F182727C
S31508014A50934268D1B0F805103A2964D10122344B42
S31508014A6000791A70002219F093FF054630B3314CCC
S31508014A703149206802F03FFF3049206802F03BFFC8
S31508014A8000F09EF900F09DF92D4B2E4A00932E4910
S31508014A903F23206802F02FFF2B462C4A2C49206819
S31508014AA002F029FF284600F0B3F92A49206802F0E6
S31508014AB022FF2149206802F01EFFFEE7207919F03E
S31508014AC019FF054600282ED01A4C1B49206802F00A
S31508014AD012FF1A49206802F00EFF00F071F900F082
S31508014AE070F9174B174A009317494323206802F0B8
S31508014AF002FF2B46154A1649206802F0FCFE284695
S31508014B0000F086F91349206802F0F5FE0A49206883
S31508014B1002F0F1FEFEE7064B1B7823B103B0BDE8B0
S31508014B20304004F047BB03B030BD00BFA00006010A
S31508014B30C4110020D01100205BE30308FAE1030841
S31508014B401EF40308CCF3030818E2030824E2030859
S31508014B5027E203083CE20308002209490B684BB126
S31508014B60834204D1436A4AB15362012070471A4607
S31508014B705B6AF4E70028F5D0184670470B60F4E73E
S31508014B80C811002010B5044690B104F03FF820463C
S31508014B90FFF7E2FF58B194F8280040B101F06DFC27
S31508014BA0044A1368013B136001F06DFC002010BD37
S31508014BB02220FCE7CC1100202DE9F04F85B00546EF
S31508014BC0914698460E469DF8387009B9002F64D16A
S31508014BD02846FFF7D7FF044600283CD185F8280068
S31508014BE0286304F03BF9864239D904F013F940F2F7
S31508014BF0E7318C462146E6FB00C14FF47A726046DE
S31508014C00002327F037FF4FF0FF32002383468A46F9
S31508014C1027F030FF4FF0FF32688600235846514689
S31508014C2027F028FF2B46CDE9004411461C4A2846A1
S31508014C3004F087F8044670B91A4AC5E90798136853
S31508014C4085F82970EE6233B31A465B6A002BFBD1ED
S31508014C50556200236B62204605B0BDE8F08F3046E9
S31508014C6003A957B104F0DCF804460028F3D12B4612
S31508014C70CDE900000A4A0399D9E704F0D1F80446B8
S31508014C800028E8D12B462846CDE90077044A03993E
S31508014C9004F034F8CEE71560DBE72124DBE700BF33
S31508014CA0A94C0108C811002091F8283013B50C4603
S31508014CB083B90B8E4A8E93420ED243B9CDE900339E
S31508014CC020460B46104A4FF0FF3103F0E1FF238ED1
S31508014CD00133238602B010BD52B191F829307BB158
S31508014CE001230093D1E907232046C96AFFF764FF28
S31508014CF00123064A84F82830136801331360E9E76B
S31508014D00084603F083FFF3E7A94C0108CC110020FC
S31508014D1070B5104D2B681BB100260F4B1C6804B9E2
S31508014D2070BD94F8283093B101F0A7FB2B6884F87D
S31508014D302860013B2B6001F0A6FB94F8293013B9D2
S31508014D402046FFF709FFD4E9073120469847646AE8
S31508014D50E5E700BFCC110020C8110020034B1B68F2
S31508014D60002B0CBF01200420704700BFCC11002086
S31508014D70024B1868B0FA80F040097047CC11002040
S31508014D800B4B02461B788BB10A4B1B78834234BF07
S31508014D9000200120084B1B783BB1084B1B7843FACE
S31508014DA002F212F0010F08BF002070470120F1E757
S31508014DB00C0C00200D0C0020D41100200E0C002034
S31508014DC070477047012208B5074B1A700022074B36
S31508014DD01A700422064B1A701F22064B1A7002F02B
S31508014DE051FD054B186008BD0C0C0020D41100209C
S31508014DF00D0C00200E0C0020D0110020024B034997
S31508014E00186802F078BD00BFD01100203EF40308EF
S31508014E1070B50C4C0C490646206802F06CFD02F090
S31508014E2031FD0546206802F021FD3046FFF7E6FF11
S31508014E30284602F01BFD20680449BDE8704002F0CF
S31508014E405ABD00BFD011002040F4030842F40308FC
S31508014E500F20704708B501213A2000F055FCBDE83E
S31508014E600840FFF7D9BC01213A2000F04DBCFEE706
S31508014E7008B500F02DF8124B12498B4212D30020C7
S31508014E80114B12498B4218D3FDF796F9186850F859
S31508014E902240586840F82240013298688242F5D388
S31508014EA00C33EAE70022F8E71C6844F822000132CD
S31508014EB05C68A242F8D30833E4E70022F8E700BFAA
S31508014EC0AC470408B8470408B8470408B8470408B3
S31508014ED04FF480414FF0FF30114B124A10B59A60DA
S31508014EE0D3F8882042F47002C3F888200E4A9166E6
S31508014EF00E4901F5005210660D4850660220C3F8A6
S31508014F00D000BFF34F8FBFF36F8F01244FF44033A7
S31508014F100848C0F88041D36004600B6110BD00BF2A
S31508014F2000ED00E0002001080090005000800044D8
S31508014F30F7FF370000E100E0014B1868704700BF32
S31508014F40140C0020084B1B6F03F00703022B04D037
S31508014F50032B05D0012B05D0FEE7044B18687047D3
S31508014F60034BFBE70348704700800050140C0020F0
S31508014F70180C0020002D310108B5FFF7E3FF054B9A
S31508014F801B6FC3F303330133B0FBF3F0024B186015
S31508014F9008BD00BF00800050100C00200048704773
S31508014FA000B4C404014B1868704700BF180C0020F0
S31508014FB0054B1860054B1B6F03F00703032B01D143
S31508014FC0FFF7DABF704700BF180C002000800050B9
S31508014FD00020704700487047002D31014FF0B44357
S31508014FE09868C0F304400C2822D8DFE800F00921AC
S31508014FF021212121071719211B1D1F000F48704761
S315080150009B6803F04073B3F1807F13D0B3F1007F3F
S3150801501012D00B4A002B08BF104670470948704743
S315080150200948704709487047094870470948704751
S31508015030002070470848704708487047405DC60019
S3150801504000093D000024F400C0EA210180BA8C0160
S315080150500048E801005A620280841E0040420F009F
S315080150604FF4004070474FF47A707047014B186847
S31508015070704700BF1C0C00204FF000639B6A10B5F7
S3150801508003F17842B2F5903F0AD2084C227812F021
S31508015090FD0F08D1DB69984708B90123237010BDB4
S315080150A04FF48170FBE70020F9E700BFD511002016
S315080150B04FF00053074A1A60BFF34F8F0649074B53
S315080150C0CA6802F4E0621343CB60BFF34F8F00BF97
S315080150D0FDE700BF02020FF000ED00E00400FA054B
S315080150E000230360704703680B6001607047000086
S315080150F005490A681318054883428CBF4FF0FF32E9
S315080151000B601046704700BF200C002000000420E9
S31508015110024B1968024B18681FF026B8280C0020A4
S31508015120240C00207047000037B5920004460D464E
S31508015130019228F041FF431C0BD060B9294620464D
S31508015140019A27F077FE0028044808BF002003B01B
S3150801515030BD0348FBE70348F9E700BF10E000F05C
S3150801516021E000F024E000F013B5044601A801F09F
S3150801517095FF9DF80630012223804FF480730020A5
S315080151806380054B9B680A3303F01F0302FA03F396
S31508015190636002B010BD00BF0080E00F01F030BFB0
S315080151A008B501F01DFF002008BD10B5044644EA04
S315080151B0010313F00303084609D1934201D10020E4
S315080151C010BD54F8231040F823100133F5E72146A2
S315080151D0920027F03FFEF2E710B5044628F0F4FEE8
S315080151E0431C15D0B0B90C4B20469B680A3303F013
S315080151F01F020123934023F003032344984201D15C
S31508015200002010BD50F8042B0132F7D00348F8E707
S315080152100348F6E70348F4E70080E00F0EE000F0E4
S3150801522021E000F024E000F008B501F01FF9014B78
S31508015230186008BD68180020014B186801F01AB9F2
S31508015240681800200A460139014402F079BF0000B6
S31508015250044BD3F88420D206FBD4D3F88400C0F3D8
S31508015260811070470040005038B5174B0546D3F8F2
S3150801527020310C4603F00703013B052B20D8DFE854
S3150801528003F0030B130F171BFFF756FE052305B192
S31508015290286004B1236038BDFFF784FE0323F6E7CF
S315080152A0FFF79CFE0723F2E7FFF794FE0223EEE7DA
S315080152B0FFF742FE0623EAE7FFF774FE0423E6E753
S315080152C000231846E3E700BF0080005038B5174BA6
S315080152D00546D3F828310C4603F00703013B052B95
S315080152E020D8DFE803F003131B0F0B17FFF724FE83
S315080152F0052305B1286004B1236038BDFFF71CFEFC
S315080153000623F6E7FFF76AFE0723F2E7FFF74AFEE9
S315080153100323EEE7FFF746FE0423EAE7FFF75AFE03
S315080153200223E6E700231846E3E700BF00800050A2
S3150801533073B50D460021114B0191D3F880410646FC
S3150801534004F00304022C13D0032C0CD0012C13D126
S3150801535001A8FFF789FF10240EB1019B336005B13F
S315080153602C6002B070BDFFF739FE07240190F3E700
S31508015370FFF730FE0190EFE70C46EDE7008000509D
S31508015380002337B50193154B0546D3F820320C4651
S3150801539003F00703013B032B1ED8DFE803F0020ED7
S315080153A01318002101A8FFF791FF12230DB1019AE5
S315080153B02A6004B1236003B030BDFFF70FFE07234F
S315080153C00190F3E7FFF74CFE0A230190EEE7FFF79A
S315080153D04DFE09230190E9E70023E7E70080005025
S315080153E038B5104B0546D3F840310C4603F0030394
S315080153F0022B0BD0032B0DD0012B0FD1FFF730FE5B
S315080154000A2305B1286004B1236038BDFFF72EFED3
S315080154100923F6E7FFF727FE0C23F2E700231846D0
S31508015420EFE700BF00800050002337B50193164B04
S315080154300546D3F860320C4603F00703013B032BFC
S315080154401FD8DFE803F0020E1914002101A8FFF79F
S315080154500BFF10230DB1019A2A6004B1236003B032
S3150801546030BD002101A8FFF7BBFF1123F2E7FFF7C3
S31508015470B5FD07230190EDE7FFF7ACFD0223019087
S31508015480E8E70023E6E700BF00800050002337B5B0
S315080154900193164B0546D3F894320C4603F00703DD
S315080154A0013B032B1FD8DFE803F0020E1914002174
S315080154B001A8FFF7D9FE10230DB1019A2A6004B19C
S315080154C0236003B030BD002101A8FFF789FF11232E
S315080154D0F2E7FFF783FD07230190EDE7FFF77AFD72
S315080154E002230190E8E70023E6E700BF00800050A9
S315080154F038B5134B0546D3F800320C4603F00703BB
S31508015500013B032B18D8DFE803F0020A0E12FFF756
S31508015510A7FD0A2305B1286004B1236038BDFFF74A
S31508015520A5FD0923F6E7FFF79EFD0C23F2E7FFF732
S3150801553023FD0F23800AEDE700231846EAE700BF9B
S315080155400080005038B5134B0546D3F808320C468F
S3150801555003F00703013B032B18D8DFE803F0020A1F
S315080155600E12FFF77DFD0A2305B1286004B12360F9
S3150801557038BDFFF77BFD0923F6E7FFF774FD0C231A
S31508015580F2E7FFF7F9FC0F23800AEDE70023184637
S31508015590EAE700BF0080005038B5104B0546D3F83E
S315080155A040320C4603F00303022B0BD0032B0DD01C
S315080155B0012B0FD1FFF754FD0A2305B1286004B169
S315080155C0236038BDFFF752FD0923F6E7FFF74BFDC8
S315080155D00C23F2E700231846EFE700BF00800050CE
S315080155E038B5104B0546D3F860310C4603F0030372
S315080155F0022B0BD0032B0DD0012B0FD1FFF730FD5A
S315080156000A2305B1286004B1236038BDFFF72EFDD2
S315080156100923F6E7FFF727FD0C23F2E700231846CF
S31508015620EFE700BF0080005070B5054614460E46E8
S3150801563000F01CFF296881EA040202EA06044C40CC
S315080156402C60BDE8704000F015BF0000B0F5207F62
S315080156501FD009D8B0F5007F15D003D868B1B0F5C9
S31508015660C07F0AD000200CE0B0F5607FFAD10B4B61
S31508015670D3F88000C0F3011003E0084B186FC0F39C
S31508015680033001307047054BD3F89000C0F304602E
S31508015690F7E7024B186FC0F38020F2E7008000504D
S315080156A002464FF48030104B10B598660020FFF77C
S315080156B0CDFF504341F671320C4BDC69DA635A6807
S315080156C004F4803422F4401259B9094988428CBF3E
S315080156D04FF480100020104358600CB10022DA63A1
S315080156E010BD0449F2E700BF0090005000000350C6
S315080156F0005A6202002D310108B5FFF74FFCBDE8DB
S3150801570008400021FFF7CCBF430905D0012B0DD076
S31508015710022B094B18BF002300F01F0041B103F506
S315080157208053012202FA00F018607047034BF3E731
S3150801573003F50053F5E700BF688000506480005008
S315080157401FB5002280280446019200F0BA8048D885
S31508015750002800F0BA80A0F120043D2C54D83D2C35
S3150801576052D8DFE814F0B200BE00B200BE00D7007E
S31508015770D700D700D700D700BE00E1005B00F700CD
S3150801578081005B00BE00BE00BE0051005100510001
S3150801579051005100510051005100BE00BE00BE002B
S315080157A089000101BE00510051005100510051000C
S315080157B05100510051005100510051005100510052
S315080157C0D700B200B200B200FC005B005B00060124
S315080157D098006C00DC005100510051005100510045
S315080157E0A900B0F5B06F00F09F802DD8B0F5207FE5
S315080157F077D00CD8B0F5C07F67D0B0F5007F67D0F9
S31508015800B0F5807F00F09580019804B010BDB0F521
S31508015810607F6CD00DD8B0F5407FF5D1FFF7ACFBB2
S3150801582002464FF42070FFF711FFB2FBF0F0400873
S3150801583049E0B0F5806F6DD0B0F5A06FE4D10021D5
S3150801584001A8FFF79DFDDFE7B0F5106F00F087802F
S3150801585017D8B0F5E06F00F087800AD8B0F5C06FA9
S3150801586078D0B0F5D06FCFD1002101A8FFF740FE5F
S31508015870CAE7B0F5F06FC7D1002101A8FFF7B0FE5E
S31508015880C2E7B0F5406F4AD013D8B0F5206F70D093
S31508015890B0F5286FB8D10021384B0391D3F870328F
S315080158A003F00303012B02D103A8FFF799FD039B1C
S315080158B049E0B0F5486FA7D1002101A8FFF7E6FD39
S315080158C0A2E7FFF73FFB01909EE7FFF755FBFAE7D3
S315080158D0FFF738FB02462046FFF7B8FEB2FBF0F0A9
S315080158E0F1E7FFF749FB02464FF42070F4E7234B33
S315080158F0D3F8803003F00303012B04D0022B06D022
S315080159004FF46070E8E7FFF71DFB0246F8E7FFF77B
S3150801591065FBFAE7002101A8FFF7A6FC74E7002159
S3150801592001A8FFF7D3FC6FE7002101A8FFF700FDE7
S315080159306AE74FF0E02302921B695B0705D5FFF77B
S315080159401BFB0290029B01935EE703A902A8FFF7DE
S3150801595047FDF7E7002101A8FFF742FD54E70021BB
S3150801596001A8FFF7EFFD4FE7002101A8FFF714FE95
S315080159704AE7002101A8FFF757FD45E700800050D7
S3150801598008B58020FFF7DCFE034B98429EBF4FF413
S315080159908032024B1A6708BD005A620200A0005005
S315080159A01FB50023B0F5807F019300F0C38064D84A
S315080159B05D2855D84C2807D82D2847D823282BD811
S315080159C0019805B05DF804FB4D381028F8D801A3F5
S315080159D053F820F02B5B0108C1590108C159010888
S315080159E0C1590108DD5A0108C1590108C1590108FF
S315080159F0C95B0108FB5A0108A15A0108BF5B0108E6
S31508015A00C1590108C1590108C1590108C1590108FB
S31508015A10C1590108D35B010824380928D0D801A344
S31508015A2053F820F02B5B01082B5B01082B5B01085F
S31508015A302B5B01082B5B0108C1590108215B010891
S31508015A40C1590108BD5A0108615B01083D2800F0EA
S31508015A5082803E28B4D1002001A9FFF79DFDAFE75A
S31508015A608028ADD1604B1B6F03F00703013B032B65
S31508015A70A6D8DFE803F05350878FB0F5F06F6AD0E8
S31508015A8021D8B0F5B06F4BD00FD8B0F5607F00F0D4
S31508015A90858095D3B0F5806F47D0B0F5A06F8FD1CB
S31508015AA0002001A9FFF76CFC8AE7B0F5D06F57D043
S31508015AB0B0F5E06FCFD0B0F5C06F81D1002001A954
S31508015AC0FFF78EFC7CE7B0F5206F7DD00BD8B0F5DB
S31508015AD0086F4AD0B0F5106F7FF472AF002001A9A4
S31508015AE0FFF730FD6CE7B0F5406F68D0B0F5486F49
S31508015AF06FD0B0F5286F7FF463AF00213A4B03915D
S31508015B00D3F8703203F00303012B67D0022B14BFBD
S31508015B100B46152300E00523019351E70223FBE712
S31508015B20002001A9FFF704FC4AE7002001A9FFF7B5
S31508015B309BFB45E702934FF0E0231B695B0705D5FD
S31508015B40FFF71AFA0D230393039BE5E703A902A8B6
S31508015B50FFF746FCF8E7002001A9FFF741FD2FE70B
S31508015B60002001A9FFF7C4FC2AE71F4BD3F800312F
S31508015B7003F00303022B07D0032B09D0012B0BD10A
S31508015B80FFF710FA0323C7E7FFF770FA0923C3E7FC
S31508015B90FFF71EFA0823BFE70123BDE7124AD2F829
S31508015BA0802002F00302012A05D0022AB4D1FFF7A8
S31508015BB015FA0723B0E7FFF7C5F90E23ACE700206E
S31508015BC001A9FFF783FBFBE6002001A9FFF72CFCDF
S31508015BD0F6E6002001A9FFF759FCF1E603A8FFF74D
S31508015BE0FFFB112398E700BF0080005008B5FFF7B7
S31508015BF0D7FE092811D00A38012811D84FF4800296
S31508015C00094B4FF6FF705A6603F5D8335B6A13F0F2
S31508015C10010F18BF4FF4FA7008BD044B1888FBE74B
S31508015C204FF6FF70F8E700BF009000504A0C0020BD
S31508015C3038B504468020FFF7B3FE032800F08380B9
S31508015C404FF48012504B4FF0A0615A6645F60E0389
S31508015C504E4AC2F880304E4B99624FF4803103F5B3
S31508015C6080539962916D11F48031FBD1D4E9000317
S31508015C701B0543EA0063E07B0343207B43EA0043B9
S31508015C80607B43EA0033A07B43EA80131361906982
S31508015C90D4E904531B0643EA856300F00040034335
S31508015CA0A07EE57E0343207E43EA0043607E43EA05
S31508015CB000239361E069136A00280CBF00220822B9
S31508015CC023F00F0343EA000343EA850343EA020389
S31508015CD02E4A304D136237D194F82430916A94F8DC
S31508015CE02000DB000D4043EA401394F821102B43B2
S31508015CF043EA011343F480339362274B916D33EAE8
S31508015D000101FBD14FF08071214881621369A568B1
S31508015D1023F4700343EA055313614FF0004383618B
S31508015D2094F822300BB91D4B996294F823301BB9AC
S31508015D304FF48032194B9A6294F825301BB1134BF4
S31508015D40174AC3F8802038BD022808D111611548C1
S31508015D5091614FF408524FF47F41FFF765FC0B49F7
S31508015D6094F822308A6A94F820001B06154043EA03
S31508015D70401394F824202B4343EAC20394F82320C2
S31508015D8043EA02438B62D7E7009000500040005A6D
S31508015D900050005AC7FFFEFE030001000060005ACA
S31508015DA0F1A7FFFF3440005A014B93F900007047F1
S31508015DB0480C0020F0B5D0E901434FF400061A4A11
S31508015DC04178057856664FF4D156022702F5B8325E
S31508015DD05662164E4F2977604FF0010728BF4F21AB
S31508015DE006F5805677601669F603FCD441EA052163
S31508015DF051611B01417B43EA04230B43017B43EABF
S31508015E0041039360C37B817B1B0143EA4113417CB8
S31508015E100B43017C43EA41035360837C13B16FF45E
S31508015E20D1535362F0BD00BF0090005000100250DC
S31508015E30014B1880704700BF4A0C00204FF48002BE
S31508015E4008B5184B5A660223174A5360936813F428
S31508015E508033FBD1012822D1FFF7A4F8134B9842CE
S31508015E6015D003F5122303F5F863984213D0104BA6
S31508015E7000EB8002400AB3FBF0F0520A0A4BDA62E1
S31508015E80012218635A620022074B5A6008BD45F67B
S31508015E907A10084AF2E745F61A00074AEEE753620E
S31508015EA0F1E700BF009000500040025000F049029F
S31508015EB064666666D8B80500BBCF05000029CCBF65
S31508015EC001210021FFF7ECBBB0F5207F10B50C4688
S31508015ED057D008D8B0F5007F48D003D830B3B0F50D
S31508015EE0C07F23D010BDB0F5607FFBD129492A4870
S31508015EF0D1F8FC2012F080721EBFD1F8FC3023F0D5
S31508015F008073C1F8FC30D0F88030611E23F030046C
S31508015F1044EA0114C0F88040002AE3D01D4AD2F8A9
S31508015F20FC3043F08073C2F8FC30DBE7FFF7E4FB93
S31508015F3000F036F84FF48031184B174A1967136F7A
S31508015F40611E23F4704444EA01341467FFF714F818
S31508015F500446FFF77DF9C0F102012046FFF7AEFFBF
S31508015F6000F024F8BDE81040FFF70ABD0A4A0139D6
S31508015F70D2F8903023F0F85444EA0164C2F890400C
S31508015F80B0E7054B013C196F21F4806141EA84248D
S31508015F901C67A7E700ED00E0008000500090005064
S31508015FA002214FF42070FFF78FBF000008B54FF4A8
S31508015FB0C070FFF7C5FBBDE80840044988428CBF9D
S31508015FC0022101214FF42070FFF77EBF80F0FA020B
S31508015FD0B0F5807FF8B50C4600F04E816BD85D2888
S31508015FE05DD84C2804D82D2844D8232828D8F8BDAC
S31508015FF04D381028FBD801A353F820F0596201083F
S31508016000EF5F0108EF5F0108EF5F010853610108BF
S31508016010EF5F0108EF5F01080D6401088B61010854
S31508016020E3600108ED630108EF5F0108EF5F01080E
S31508016030EF5F0108EF5F0108EF5F01082D640108B2
S3150801604024380928D3D801A353F820F05962010846
S315080160505962010859620108596201085962010821
S31508016060EF5F010839620108EF5F0108196101084C
S31508016070276301083D2800F046813E28B7D1093C2F
S31508016080032C8CBF0021B04BB04A98BF195DD2F8DA
S31508016090403223F003030B43C2F84032A7E78028B6
S315080160A0A5D18B1E062B00F2C480DFE803F0BFAD35
S315080160B0C27EC2C2BC00B0F5F06F00F024813BD8A5
S315080160C0B0F5B06F00F0B8801BD8B0F5607F00F06E
S315080160D067818CD3B0F5806F00F0BE80B0F5A06FF4
S315080160E085D1073C0B2C8CBF0021994B974A98BF49
S315080160F0195DD2F8203223F007030B43C2F8203288
S3150801610075E7B0F5D06F00F00E81B0F5E06FB6D047
S31508016110B0F5C06F7FF46BAF093C032C8CBF00212F
S315080161208C4B8A4A98BF195DD2F8403123F0030394
S315080161300B43C2F840315AE7B0F5206F00F066818B
S3150801614017D8B0F5086F00F01B81B0F5106F7FF412
S315080161504EAF093C062C8CBF00217F4B7B4A98BF6A
S31508016160195DD2F8083223F007030B43C2F8083247
S315080161703DE7B0F5406F00F03981B0F5486F00F0A2
S315080161805581B0F5286F7FF432AF112C00F05E818E
S31508016190152C14BF002102216C4AD2F8703223F063
S315080161A003030B43C2F8703221E7002502264FF498
S315080161B080370121022000F0B9F9FFF79DFAFFF7B0
S315080161C0EFFE664B614A1F67136F23F007033343DC
S315080161D01367FEF7D1FE0646FFF73AF8C0F102014A
S315080161E03046FFF76BFE0121002000F0DFF9FFF7CB
S315080161F0DDFEFFF7C5FB002D7FF4F9AE032C7FF416
S31508016200F6AE574B9F62F2E64FF48012534B0E4699
S315080162105A664FF48032534B9D6A03F58053C5F392
S3150801622000659A62C3E700250426C0E70025012612
S31508016230BDE700252E46BAE7023C0E2C8CBF00218D
S31508016240494B424A98BF195DD2F8803123F00303BE
S315080162500B43C2F88031CAE6023C052C8CBF0021EB
S31508016260424B3A4A98BF195DD2F8203123F0070309
S315080162700B43C2F82031BAE6A1F10904082C3FF60E
S31508016280B6AE01A353F824F0AD620108AD62010868
S31508016290EF5F0108AD620108DB620108EF5F0108E3
S315080162A0EF5F0108EF5F0108AD6201084FF4803224
S315080162B0264B2F49586E03F580535A664B6A43F0AD
S315080162C001034B62C1035CBF2A4B5A664FF0E022B9
S315080162D0136923F00403136189E64FF480321B4BDB
S315080162E02349586E03F580535A664B6A23F0010316
S315080162F04B62C3035CBF1F4B5A664FF0E02213691A
S3150801630043F00403E7E7093C032C8CBF00211A4B31
S315080163100E4A98BF195DD2F8603123F003030B4387
S31508016320C2F8603163E6093C062C8CBF0021134B89
S31508016330064A98BF195DD2F8003223F007030B43CA
S31508016340C2F8003253E600BFD1F4030800800050BA
S31508016350ECF40308D1F40308D5F4030800900050BF
S315080163600060005A0040005ABCF40308CBF4030845
S3150801637000C0075000A00050D1F40308D5F4030863
S31508016380CC1E062C8CBF0021314B324A98BF195DB1
S31508016390D2F8003123F003030B43C2F8003126E695
S315080163A02D49063CD1F8FC2012F080721EBFD1F8A7
S315080163B0FC3023F08073C1F8FC30082C8CBF002018
S315080163C0264B244998BF185DD1F8803023F0030382
S315080163D00343C1F88030002A3FF409AE1E4AD2F8B9
S315080163E0FC3043F08073C2F8FC3000E6023C052C11
S315080163F08CBF00211A4B174A98BF195DD2F828316C
S3150801640023F007030B43C2F82831F0E5023C0F2CB1
S315080164108CBF0021134B0F4A98BF195DD2F8603221
S3150801642023F007030B43C2F86032E0E5023C0F2C68
S315080164308CBF00210C4B074A98BF195DD2F89432DC
S3150801644023F007030B43C2F89432D0E50121A3E6F2
S31508016450DCF403080080005000ED00E0E3F40308D3
S31508016460CBF40308F8F40308F8F40308EFF31080F3
S3150801647072B6704700B962B67047EFF311803023E0
S3150801648083F31188704780F311887047024A536B6A
S315080164900342FCD1704700BF00400950044A4178C5
S315080164A0536F23F4407343EA01235367704700BFD0
S315080164B000400050704770470A4A10B513690446F0
S315080164C043F00403136102F0E1F9FFF7F3FF30BF6C
S315080164D0FFF7F1FF02F0EEF91CB9BDE81040FEF72F
S315080164E04BBD10BD00ED00E0084A10B5136904461E
S315080164F043F00403136102F0C9F930BF02F0DAF977
S315080165001CB9BDE81040FEF737BD10BD00ED00E02F
S3150801651070477047034A0179D36E23F030030B4362
S31508016520D36670470040005070470000F8B504462E
S315080165301C4BD3F88420D106FBD4D3F88430C3F39B
S3150801654081139C422CD0FEF7FDFC012C064602D194
S315080165502146FFF7B3FCFFF789FF4FF00072124B94
S3150801656007465A662046FFF7DFFF4FF480630D4D55
S31508016570621E93402B676B6E9A0103D4D5F884305B
S315080165809B060AD53846FFF775FF022C08D1304617
S31508016590BDE8F8400021FFF791BCD5F88430EAE759
S315080165A0F8BD00BF004000500060005007B518B99B
S315080165B00191FEF7C7FC0199064B1B7843B1064BBF
S315080165C0984205D8012003B05DF804EBFFF7AEBF8A
S315080165D00220F8E71C190020005A62020278034BD0
S315080165E0012100201A70FFF7E1BF00BF1C19002026
S315080165F04FF00042154B10B55A664AF6CD33144989
S315080166004C6C0B6404F0010488B90120FFF73EFFC6
S315080166104B68DB0704D50F4B58600B6BD807FCD5C5
S3150801662014B10B4B0C4A1A641EF0E1FE10BD0B6B3C
S315080166301A07FCD42022074B9A620122A3F580533C
S315080166405A60034A936A9B06FCD5E9E70090005015
S3150801665000400950006009503254FFFF4FF00042D4
S3150801666038B5164B01465A664AF6CD33144C154AC7
S31508016670656C236443780B205B0043F00103D36305
S31508016680FFF704FF63688A7823F4F87343EA021371
S315080166906360CA784B7943EA0223A3600A798B7946
S315080166A043EA022323610878FFF7A2FFEB0744BFF9
S315080166B0054B23641EF09BFE012038BD0090005057
S315080166C000400950004000503254FFFF4FF000428D
S315080166D0124B70B55D6E03F580535A664AF6CD3393
S315080166E004460F4980204E6C0B64FFF7CFFE0B6AF8
S315080166F023F00F030F2C94BF234343F00F030B62C0
S31508016700F30744BF074B0B64002DA2BF4FF00042AD
S31508016710054B5A661EF06BFE70BD00BF0080005027
S31508016720004009503254FFFF00A000504FF00042CC
S31508016730104B70B55D6E03F580535A664AF6CD3334
S3150801674004460D4980204E6C0B64FFF79FFE0B6AC9
S3150801675023F4F85343EA04230B62F30744BF074BB8
S315080167600B64002DA2BF4FF00042054B5A661EF07E
S315080167703EFE70BD00800050004009503254FFFFB4
S3150801678000A0005070B5054614460E46FFF76EFE8A
S31508016790296881EA040202EA06044C402C60BDE835
S315080167A07040FFF767BE00002DE9F04105460F4628
S315080167B01E4690464AB101233022194C8B4002FBF2
S315080167C000443EB304F5825423600F21072F05EBDD
S315080167D0450388BFA7F108044FEA0313114895BF7B
S315080167E0BC00A40004330C3308FA04F2A14018448F
S315080167F0FFF7C8FFB8F1000F0AD101213020084A76
S3150801680001FA07F700FB05223EB102F5825217602D
S31508016810BDE8F08104F50154D6E702F50152F6E721
S3150801682000C0035030C003504369DA01FCD4012388
S3150801683000F50050024A436053689B07FCD4704731
S3150801684000400059022A10B54FF0000405D9033A51
S31508016850022A0CD90360047110BD11F4000218BF95
S315080168604FF07F4221F07F4313430C0EF2E721F0EC
S31508016870FF03CCB2EEE730B4012500F58053446836
S315080168805D608B780D88C9781B04002914BF4FF405
S315080168900031002103F480332B430B43C0F89830B1
S315080168A0E30702D430BCFFF7BFBF30BC704738B529
S315080168B00C4605461146FFF7B7FF237803F0070292
S315080168C06378002BA37818BF08204FEA031303F057
S315080168D0700343EA0203E27808BF0020002A14BFC6
S315080168E04FF480720022034313432B67237960799F
S315080168F0EA6A1B02000300F4805003F4E06322F401
S315080169008B32034322F480721343A2792846002A64
S3150801691014BF4FF4803200221343EB62FFF7ABFF3B
S31508016920012305F580525360E27902B1EB6038BD67
S3150801693001220146F8B500F580535A60274B284ACB
S31508016940C3604B691340FCD18B61C1F898304B6920
S3150801695013F4401FFBD14B69DA052DD48B6F5BBB52
S315080169604B699B052AD4D1F888403CBB0846CB6FB6
S31508016970D1F88C30FFF758FF30231A4A8C609142C0
S315080169800CBF022200220C6142F26005CC62274646
S315080169900C620B67C1F880302346134E934210D11F
S315080169A00022104B994201D1102C11D10F4B01F540
S315080169B000514B628B62F8BD4B6FCCE7D1F884303E
S315080169C0CEE701EB03108564013306654765E5E704
S315080169D004F1280041F820200134E3E712000200FF
S315080169E0520001000040005900C002808F330F8019
S315080169F0084608B529B92A20FEF7A2FE012838BF9C
S31508016A000120064900F5742000F23F20B0FBF1F0A1
S31508016A1001387F2828BF7F20C0B208BD40420F0039
S31508016A2010B50B4C8C4228BF0C461AB92A20FEF722
S31508016A3087FE0246601E0244B2FBF4F0A24228BF5A
S31508016A4000F1FF30032828BF0320C0B210BD00BFE4
S31508016A50005A620210B51048104C002B18BF204688
S31508016A60884228BF084604461AB92A20FEF768FE56
S31508016A7002469DF808000130B2FBF0F2601E02449E
S31508016A80B2FBF4F340F2FF30A24228BF03F1FF3311
S31508016A90984228BF184610BD80969800404B4C0076
S31508016AA008B50A6F496F02F00702FFF7CBFE08BD6A
S31508016AB013B5044601A800F0F1FA042C8EBF002094
S31508016AC0024B33F8140002B010BD00BF20F50308CD
S31508016AD02DE9F04F2DED048B05468FB0DFF83CC349
S31508016AE008AF0C461646BCE80F000FC79CE8030022
S31508016AF0002287E80300BF492846FFF791FF63791B
S31508016B00984238BF18465FFA80FB2846FFF78CFE85
S31508016B10217919B92846FFF76BFF0146E3784FEA51
S31508016B200B721B0102F0E04203F030031343080421
S31508016B30227800F4FE0003430AB143F002036278A7
S31508016B400AB143F00403A2780AB143F00803002707
S31508016B50AB60E38822892B61638943EA02432B628E
S31508016B60A54B9D4201D1022F08D1012305F5805578
S31508016B706B600FB0BDEC048BBDE8F08F0022347852
S31508016B809E489F49D6F80880944218BF0146234675
S31508016B902846CDF800B0FFF75DFF1FFA88F8804553
S31508016BA0434638BF034605EB07120593936C04F079
S31508016BB0030123F0435323F41D1323F4435323F012
S31508016BC03F031943737830799B0003F01C0C41EAA3
S31508016BD00C03B1784FEA07194901C9B21943F37889
S31508016BE01B0303F4E0430B43010401F4E0210B43C7
S31508016BF0317C490501F460010B437179090701F0FC
S31508016C0040510B439364936C7E4AC3F30233013BB1
S31508016C10042B1ED8DFE803F01D1D03151A00D2F850
S31508016C2080214FEA124A012C16D9022C00F01B8149
S31508016C30059B3A01C3F30900734B01379850143683
S31508016C408EE7D2F884211FFA82FAECE7D2F884217A
S31508016C50E7E7D2F88021F6E705EB09039A6CC2F358
S31508016C600232531E012B674B70D8DFED727AD3F8C7
S31508016C7080311FFA83F8012209F1B24909F58049E1
S31508016C80D9F8481028F4C043C1F3820101F1010C77
S31508016C9002FA0CFC07EE10CA4FEA834A18F4004FB1
S31508016CA0B8EEC79AF6EE008A564A18BF4AF0004A65
S31508016CB000297BD1002C76D1D2F88C2113B208EEAB
S31508016CC0103AB8EEC88A37EE888A002840F0B480B0
S31508016CD007A800F0E3F9DFED4D7ADFED4D6A86EEA0
S31508016CE0897ADFED4C6A67EE887A27EE267AF1EE25
S31508016CF0006ABAF1004F07EEA67A0BD0DFED466AB5
S31508016D0007EE908A37EE266AFAEEE87AB0EE667AE8
S31508016D1017EE867AB5EEC07AF1EE10FACABFB1EE71
S31508016D20477A38EEC77A37EE687AFDEEC77A17EEF4
S31508016D30902AB2F5003FC0F28C806FEA5A436FEA97
S31508016D4043432D497A1D12018B5071E7032A0FD14E
S31508016D50D3F880214FEA12483CB9D3F88C311B1479
S31508016D6007EE903AF8EEE77A85E7D3F89431F6E735
S31508016D70042AD3F884210AD11FFA82F824B9D3F850
S31508016D808C311B145B00EBE7D3F89431F9E74FEA32
S31508016D9012482CB9D3F88C311B1403EB4303DFE7F4
S31508016DA0D3F89431F8E7D2F8942187E7ACB9D2F849
S31508016DB0902112B207EE102AB8EEC77A77EE677AF3
S31508016DC029EE287A0F4A87EE878AD2F8882113B2E4
S31508016DD007EE903AF8EEE77A75E7D2F8982113B2FA
S31508016DE007EE103AB8EEC77A37EE677A77EE877A02
S31508016DF0E6E700BF005A620200400059404B4C00CA
S31508016E00809698000080E00F544000593D3B843F2E
S31508016E1000008043000020440000004908F50308EB
S31508016E2000007A440000B84200000038E71B753FAD
S31508016E300000004700000000D6ED037A5FED086AFE
S31508016E40F8EE677A87EEA67AF7EE046AC6EE877ACF
S31508016E5043E712F5003FAABFC2F311024AF4003311
S31508016E6042EA0A036DE7FFF723FE07EE900A1FEDD4
S31508016E70147AF8EE677A09F1B24303F580439B6CFD
S31508016E800EAAC3F3421302EB8303C7EE875A53EDE7
S31508016E90066A5FED1C7AF4EE676AB7EE006AF1EEF0
S31508016EA010FA1CBF76EE867A86EEA77A07EE90AAC6
S31508016EB05FED238AF8EE677A08BF1FED247A67EE3D
S31508016EC0A87A67EE877A1FED267A67EE877AF5EE56
S31508016ED0C07AB6EE008AF1EE10FA4CBF77EEC87AA0
S31508016EE077EE887A09F1B24404F58044236DFDEE04
S31508016EF0E77A0023236517EE903A17EE902A13F4E2
S31508016F00004F236D5FED357A18BF43F000432365C3
S31508016F102E4B216D03EA82430B4323652C4BD3F891
S31508016F208811D3F888311BB207EE103AB8EEC77A42
S31508016F3037EE277ADFED277A87EEA65A76EE866A46
S31508016F40B7EE046AC5EE267AC6EE256A26EE877A74
S31508016F50F1EE006A47EE267A9FED1F7A77EE877A79
S31508016F6017EE900A25F0ACFA07EE90AAB8EEE77A82
S31508016F7067EE287A804617EE900A894625F0A0FA28
S31508016F8001F1004302900393DDE902234046494695
S31508016F9025F0EEFA0022114B25F034F925F01AFDF9
S31508016FA007EE900AF5EEC07AF1EE10FA4CBF77EECD
S31508016FB0C87A77EE887AFDEEE77A17EE903A226D6F
S31508016FC0C3F311031343236532E600BF0000FC7FB8
S31508016FD00080E00F000080480000004900002041C1
S31508016FE04FF48032054B9A6641F6713203F51C332C
S31508016FF0DA63012203F50053DA6070470090005006
S3150801700041F671320121064BDA6303F50052D1606C
S315080170100022DA634FF48032A3F518339A66704773
S3150801702000000350436813B9416070475B685A68AA
S31508017030012AFBD159607047836813B9816070478B
S315080170405B685A68012AFBD159607047C369032BEB
S315080170509FBF00EB83020133D160C3617047C369E7
S31508017060042B15D84FF09842116CC902FCD504338C
S315080170709B0013650168103B116041680C30116073
S3150801708050F8041C034411604FF09842984200D10D
S31508017090704750F8041B1160F8E700004FF480327E
S315080170A0064B5A6603F5E6239B69C3F3851282707C
S315080170B003F03F021B0B42700370704700900050AB
S315080170C040F6B732064B5B689BB293429FBF4FF4BB
S315080170D07A72B3FBF2F3034AD05C88BF002070478B
S315080170E00080E00F2AF5030870B5054616461C46CA
S315080170F021B94FF42070FEF723FB0146402C1BD023
S3150801710003D8DCB1202C1BD070BD602CFCD1042324
S3150801711003FB06F2560806EB4113B3FBF2F3094AE1
S31508017120203B02EAC303AA6822F06002AA60AA68A1
S315080171301443AC60EB61E7E70623E9E71023E7E7C9
S315080171400823E5E7F8FF7F00012200F580535A601E
S31508017150CB43934003F00A034361416111B900F53A
S315080171600050426070470000012100F5805310B5B8
S31508017170596040F6AA6341F2050243610023094CAE
S315080171808360C365C26000F500520361C361C364CD
S315080171909464054C8365A04204BF03654365516049
S315080171A010BD00BFFFFF010000C0055070B50D46B8
S315080171B0FFF7DAFF012300F580567360AB7C0446BE
S315080171C01BB1836843F080438360EB7C5BB1244B3E
S315080171D09C4202BF2A7DA3F51033C3F8C821E36D8B
S315080171E043F08003E3652A8A6B7B20461343EA89C9
S315080171F01343E3602B7BD5E90112FFF775FF6B7D1E
S315080172001BB1A36843F48033A360AB7D1BB1A368AC
S3150801721043F40043A360EB7D2A7E1B07120502F4A3
S31508017220E00203F0E0431343A3656B7E9A1E012A2D
S315080172304FF0020209D80B49032BC1F8202709D1BF
S315080172400423F3652B78636170BD0749012BC1F8E7
S315080172502027F4E7042204F50053DA65F2E700BFB4
S3150801726000C0055000D0035000E0035083691B0697
S31508017270FCD5406AC0B2704783695B06FCD5C16319
S3150801728070470000054B9A689107FCD45A68920723
S31508017290F9D4DA69002AF6D1704700BF00800A508E
S315080172A008B5FFF7EFFF0122024B03F580514A604B
S315080172B01A6108BD00800A50074B5A68012A0AD18B
S315080172C05A68D20702D5DA69002AF9D102221A6167
S315080172D00122024B5A60704700800A5000A00A50EA
S315080172E010B5064CFFF7CEFF6368012B03D1FFF7F4
S315080172F0E3FFFFF7C7FF0378E36010BD00800A507C
S31508017300E8B94A680B7812B1127843EAC2034A7897
S31508017310002A14BF0222002213438A6812B1127886
S3150801732043EA82138A78002A14BF042200221343EF
S31508017330CA6812B1127843EA4223014A9364704734
S3150801734000800A5008B9014B5964704700900A50E9
S3150801735008B9014B5964704700A00A5008B9014B96
S315080173601964704700A00A5010B9024B186C70478F
S315080173700020704700800A5048B911B1012903D08D
S315080173807047044BD86C7047024B186D7047002044
S31508017390704700BF00800A5040B911B1012903D0D6
S315080173A07047034BDA647047014B1A65704700BF93
S315080173B000800A5038B50446054D1EF03EF80FCC3C
S315080173C00FC594E8030085E80300002038BD00BF17
S315080173D02019002047F6FF739A42F0B563D00229B7
S315080173E063D8334BCF0003EBC10013F8311084780F
S315080173F0012913D10025C3781B1B9D4202D3E0182E
S31508017400C0B2F0BD591B4668A3EB510136F91160AC
S315080174109642D4BF0D4601F1FF33EEE740680028D6
S31508017420EFD0B0F90010914204DBB0F90210914295
S31508017430B8BF114682883B44FF2A19BFC8222826AD
S31508017440B0F90620B0F90860A2EB01020CBF0125CC
S31508017450002592FBF6F25F782A447B1E934228BFE9
S3150801746013464FF47A7E00EBC305AE68EA88AC464C
S3150801747011FB02621E4622EAE272013302F5FA7232
S315080174809F42B2FBFEF204D9BCF80CC008359445FC
S31508017490EBD200EBC6008088904228BF1046A04276
S315080174A038BF2046ACE7FF20ABE70020A9E700BFBD
S315080174B0201900200229F0B553D82B4800EBC10446
S315080174C010F83110636801290FD1E078A478904249
S315080174D094BFC4EB0001C4EB0201001BCAB282428D
S315080174E0C8BF002233F91200F0BD002B39D0A178AC
S315080174F0914202D3B3F90200F6E7E178B3F9000045
