S00D000073656E736F722E7333374D
S31500000000C0190020FD6000007160000075600000EE
S31500000010A70A02020002000004180FAC50273B0199
S3150000002000000000000000000000000000000000CA
S3150000003000000000B0A60100000000000000000063
S315000000400000000000000000FFFFFFFFFFFFFFFFB2
S31500000050FFFFFFFFFFFFFFFFFFFFFFFFFFFFFFFFAA
S3150000006000E00F000000000000000000FFFFFFFF9F
S31500000070FFFFFFFF1C000000000000000000000062
S3150000008000000000000000000A3200200A320020B2
S31500000090C019002054E001001090010060100020FB
S311000000A0401000200000100000000000CE
S31500000200C0190020FD6000007160000075600000EC
S31500000210B57500007960000081600000F96000009B
S31500000220F9600000F9600000F9600000F960000064
S3150000023085600000F9600000F9600000F9600000C8
S3150000024035240000BDDE000059710000F960000091
S3150000025035D6000029DF0000C9DE0000E1DE00001F
S31500000260C1DE0000311A0000051B0000A9250000B0
S3150000027041670000F9600000F96000008D5F000032
S31500000280F9600000F9600000291B0000F960000019
S31500000290F9600000F9600000F9600000F9600000F4
S315000002A0F9600000F9600000F9600000F9600000E4
S315000002B02DDF0000C5DE0000E92100006DDF000033
S315000002C0F960000049C90000F9600000F96000000B
S315000002D0F9600000F9600000F9600000F9600000B4
S315000002E0F9600000F9600000F9600000F9600000A4
S315000002F0F9600000F9600000F9600000F960000094
S31100000300F9600000F9600000F9600000E0
S3150000030CF8B500BFF8BC08BC9E467047F8B500BFF0
S3150000031CF8BC08BC9E46704710B5054C237833B91B
S3150000032C044B13B10448AFF300800123237010BDB6
S3150000033CE01D0020000000002CDC010008B5034B7A
S3150000034C1BB103490348AFF3008008BD0000000051
S3150000035CE41D00202CDC0100154B002B08BF134BB1
S3150000036C9D46A3F5803A00218B460F461348144A46
S3150000037C121A18F022FE0F4B002B00D098470E4B8A
S3150000038C002B00D098470020002104000D000D48DA
S3150000039C002802D00C48AFF3008018F0DFFD2000D7
S315000003AC290008F063FD18F0C5FD00BF0000080029
S315000003BCC01900200000000000000000E01D002015
S315000003CC0A3200200000000000000000F0B58BB0DF
S315000003DC044605A805F06AF8089BA34206D82246EF
S315000003EC2149012000F0BDFD00203AE003A920467A
S315000003FC05F072F80028F7D1099B049ADB68B2FB6A
S3150000040CF3F65E43B24203D01849012000F0A9FD71
S3150000041C039D174F039BEB1AB34201D3002410E044
S3150000042C06F096FE3946012000F08AFD099B284607
S3150000043CD96805F069F8099BDB6804461D44002859
S3150000044CE8D00C49012000F08CFD3CB1099B0A490F
S3150000045CDA680094AB1A012000F083FDB4FA84F03C
S3150000046C40090BB0F0BD00BFDD9001000391010007
S3150000047C27930100EC9201005E910100014B187864
S3150000048C704700BFFC1D002010B5044604F098FF11
S3150000049C208010BD00B589B004F0A6FEC8B904F0E2
S315000004ACBDFE18B90C49012000F05BFD03A804F051
S315000004BCFDFF069B3BB101A9002005F00DF810B914
S315000004CC064B019A1A60064B0120187009B05DF8AC
S315000004DC04FB0020FAE700BFAD900100001E0020CF
S315000004ECFC1D002010B5054C22780AB9FFF7D2FF87
S315000004FC04F0CAFE0023237010BD00BFFC1D0020B3
S3150000050C2DE9F04387B00C22002101A806F026FD48
S3150000051C01A804F05BFF9DF80440012C27D114229E
S3150000052C002101A806F01AFD01A804F0BFFF2C4F0C
S3150000053CDFF8BC80DFF8B4900025049B9D4203D302
S3150000054C204607B0BDE8F0832A463946012000F064
S3150000055C08FD2846FFF73AFF064630B1494601200A
S3150000056C00F0FFFC34400135E7E74146F7E704F0BD
S3150000057C55FE054670B34388C488DB064CBF4FF462
S3150000058C7A134FF47A635C4306F0E2FDE9680020C7
S3150000059C04F0F8FEF0B9134D04F006FF48B9124901
S315000005AC012000F0DEFC1149012000F0DAFC0124E8
S315000005BCC6E706F0CDFD2946012000F0C1FCA4F5E6
S315000005CC43444CF2503018F00AF8503C4CF24F337E
S315000005DC9C42E1D80649012000F0C3FC0024AFE799
S315000005EC6390010027930100EC92010081900100B9
S315000005FC99900100FFF7EABE70B50F490F4E012026
S3150000060C00F09EFC06F0A4FD04F040FE4FF6FF75CC
S3150000061C06F09EFD04F05EFE31460446012000F015
S3150000062C8FFCAC42F4D02CB90549012000F099FCA2
S3150000063C204670BD0349F8E7C790010027930100D7
S3150000064CE2B80100D790010010B5FFF7D5FFE0B175
S3150000065C0E49012000F085FC4FF4FA7017F0ACFF40
S3150000066C04F056FE0A490446012000F07AFC2CB927
S3150000067C08490120BDE8104000F073BC224606492B
S3150000068C0120BDE8104000F06CBC10BD10900100BC
S3150000069C36900100D79001004E900100124B2DE9C7
S315000006ACF0471E7880460C469146CEB90026304659
S315000006BCBDE8F08706F04CFDFF2CDAF80000274663
S315000006CCA5EB080128BFFF27BAB24944284404F019
S315000006DC47FE0028EAD1E41B3D44002CEAD1E6E7AC
S315000006EC0546DFF808A0F8E7FC1D0020001E0020D8
S315000006FC124B2DE9F0471E7880460C469146CEB932
S3150000070C00263046BDE8F08706F022FDFF2CDAF80D
S3150000071C00002746A5EB080128BFFF27BAB24944BB
S3150000072C284404F00BFE0028EAD1E41B3D44002CBF
S3150000073CEAD1E6E70546DFF808A0F8E7FC1D00203D
S3150000074C001E00202DE9F0410446856802681F4909
S3150000075C202009F026FB6368E3B11D4E1D4FDFF820
S3150000076C9880013D15F8013FC3B1752B22D0762B2D
S3150000077C22D0772B22D0732B22D0622B22D06E2B39
S3150000078C22D01549154A2A2B18BF1146202009F0EC
S3150000079C08FBE7E71249202009F003FBE2681AB1CF
S315000007AC1049202009F0FDFA0F492020BDE8F04140
S315000007BC09F0F7BA3146E9E73946E7E74146E5E796
S315000007CC0A49E3E70A49E1E70A49DFE73293010000
S315000007DCF9920100ED9201002C930100299301007E
S315000007EC259301002F930100EA920100109301005A
S315000007FC1A930100249301000493010013B50446D7
S3150000080CFFF7A0FF01A9204600F0FEF818B1084C2E
S3150000081C019B1B680BB902B010BD2146202009F0C4
S3150000082CC0FA0198FFF78EFF019B10330193EFE797
S3150000083CD891010008B50449202009F0B2FA20200D
S3150000084CBDE8084009F00FBBDB91010038B5FFF796
S3150000085CF1FF064D002460191034631953F8103C4F
S3150000086C03B938BDFFF76EFFF5E700BF5CAC0100BE
S3150000087C0B4B10B553F820200C462020094909F0E3
S3150000088C90FA1CB9BDE81040FFF7E0BF06492020DE
S3150000089C09F087FA2046BDE81040FFF7AFBF00BF4E
S315000008ACB8910100A4910100B0910100084B0022FF
S315000008BC4FF47F411A7083F87E2083F89420A3F8B6
S315000008CC9620A3F8981083F89A20C3F8A0207047B6
S315000008DCBC2D0020044B0A2283F89C20002283F8AE
S315000008EC9B20FFF7E3BF00BFBC2D0020034B93F802
S315000008FC940093F89A30C01AC0B27047BC2D0020F1
S3150000090C034B1844013390F87E001844704700BF1F
S3150000091CBC2D0020044B184490F87F3090F87E00D4
S3150000092C181AC0B2704700BFBC2D0020054B93F8B7
S3150000093C9A20104443FA80F0013390F87E20985C9C
S3150000094C704700BFBC2D002070B5154B024693F8BE
S3150000095C9C00FF281C4603F101050BD121B1D0B236
S3150000096CFFF7D8FF01380870224492F87E00013058
S3150000097C284470BD93F89A001044C0B243FA80F331
S3150000098CD44393F87E60E40FAA1939B1FFF7C2FF7E
S3150000099CAB5D001B222B08BF013808701019E8E765
S315000009ACBC2D00202DE9F3410D460DF107019046B3
S315000009BC07461C46FFF7C8FF0646F8B2FFF7B6FF18
S315000009CCA0F122035F429DF807105F413944C9B27A
S315000009DC414528BF41468DF807101CB1CCB2A8EB97
S315000009EC0404E4B222462846002106F0B7FA281978
S315000009FC9DF80720314606F055FA9DF80700C01BF6
S31500000A0CC0B202B0BDE8F08108B5D0E9012312B935
S31500000A1C0B60012008BD1B786E2B04D140F2FF1130
S31500000A2C024800F0B5FA0020F4E700BFA4930100D9
S31500000A3C602808D8402808D83A2834BF3023002329
S31500000A4CC01AC0B270475723FAE73723F8E70000FD
S31500000A5C2DE9F0411E4C024694F89A001044C0B29F
S31500000A6C44FA80F30D4693F87E70FFF753FF8046E9
S31500000A7CFFF73CFF904294F89C6003D8D4211548AC
S31500000A8C00F086FA00210A46CBB298451BD9C81944
S31500000A9C2044407815B10BB92D280ED000F0DF0C90
S31500000AACBCF1580F03D112B9013B012B0ED9FFF73C
S31500000ABCBFFF864203D902FB06020131E4E7052398
S31500000ACC84F8983000221046BDE8F0811026F4E731
S31500000ADCBC2D0020A493010008B5164A92F89C3050
S31500000AECFF2B014620D1FFF715FF42FA81F1034691
S31500000AFC91F87E000132012B00EB020101D1805CE2
S31500000B0C08BD022B03D1084611F01AFCF8E7042B9A
S31500000B1C04D10020BDE8084011F02EBC0648F8218F
S31500000B2C00F036FA0020EBE70021BDE80840FFF79D
S31500000B3C8FBF00BFBC2D0020A493010038B51B4A03
S31500000B4C92F89C30FF2B044622D1FFF7E3FE42FAC3
S31500000B5C84F40346013294F87E00012B00EB02016B
S31500000B6C845601D1204605E0022B04D1084611F02B
S31500000B7CE7FB00B238BD042B04D10020BDE8384099
S31500000B8C11F0FABB40F21311094800F001FAE9E73B
S31500000B9CFFF7CCFEA0F12D035942054659412046DC
S31500000BACFFF756FF2D2D08BF4042E3E7BC2D002072
S31500000BBCA49301002DE9F04FB24C85B080460E4649
S31500000BCC0027B8F1000F0CD10DF10B01F0B209F0B2
S31500000BDC45F978B1262800F08581012384F89830F0
S31500000BEC55E0002E00F07E8118F8013B8DF80B3095
S31500000BFC013EB6B294F89B309DF80B5084F89B508E
S31500000C0C0D2B01D10A2DDCD00D2D0ED0A5F10A032A
S31500000C1CD3F1000949EB030923784F46042BD0D8AE
S31500000C2CDFE803F0061C284637004FF00109F3E70E
S31500000C3CB9F1000F5DD1202D00F03781222D08D19E
S31500000C4C02232370B4F896207D2A40F030810623C7
S31500000C5CC4E77B2D0CBF03230123F2E7B9F1000F88
S31500000C6C01D1202DEED194F89430152B40F00E8145
S31500000C7C0323B3E7222D03D100238DF80B30E1E7D4
S31500000C8CB9F1000FDED0052384F898300127042330
S31500000C9C2370002F95D094F8980010B10021FFF71F
S31500000CACE7FDFFF703FE9DF80B3084F89B3088E7D1
S31500000CBC7D2D94F899A004D1BAF1FF0FD3D005235A
S31500000CCC8CE72846FFF7B4FE0F280FD8BAF1FF0FB2
S31500000CDC09D094F8993000EB0310FF238DF80B0024
S31500000CEC84F89930AEE784F899006AE7202DE6D1AE
S31500000CFC67E7654B039394F89430002BC6D0002518
S31500000D0C68B2DDF80C90FFF7FBFD82462846FFF72C
S31500000D1C01FE4FF0000C6246D9F8001000293ED0B7
S31500000D2C0139D6461AE033B9002A36D04FF0010CF9
S31500000D3C09F11009F0E71EF8017BA7F1410BBBF195
S31500000D4C190F98BF2037A3F1410B98BFFFB2BBF127
S31500000D5C190F9CBF2033DBB2BB42E9D1AEEB0A07BD
S31500000D6C874211F8013FDED1002BDDD14A460392B2
S31500000D7CCAB194F89A30C4F8A0200135013303A9FE
S31500000D8C1046EDB284F89A30FFF73EFEB8B194F8EF
S31500000D9C9430AB42B4D8032306E04A46C8E7BCF10C
S31500000DAC000FE4D00391022384F8983094F898301D
S31500000DBC002B7FF46BAF039B5B68984766E7039B3E
S31500000DCC9B681B783F2BF1D0834681464FF0040A73
S31500000DDC31E018460193FFF7A9FD732F019B10D044
S31500000DEC05D8002F4BD0622F41D0072344E0A7F142
S31500000DFC7502022AF9D8752F31D0762F31D0732F80
S31500000E0C32D17F2701211846FFF722FEB84201D9BD
S31500000E1C84F898A0039B9B684B440BF1010B5B7801
S31500000E2C2A2B94F898301CBF09F101095FFA89F94D
S31500000E3C002B7FF42BAF5FFA8BF3039A94F8940094
S31500000E4C9268E918C9B2884212F80970C1D8002F05
S31500000E5CACD0914499F801302A2B9CD1A6E7FF27F8
S31500000E6CD0E74FF6FF77CDE74FF0FF37CAE72228DA
S31500000E7CD0D07B28CED0052384F89830CAE703233C
S31500000E8CFAE700BFBC2D00205CAC01000133DBB2DD
S31500000E9C84F894302344B4F8962083F87E200023FB
S31500000EAC2370B9F1000F7FF424AF4F4689E6217801
S31500000EBC012909D19DF80B30A3F1410019289CBFDB
S31500000ECC2033DBB28DF80B30A0189DF80B30437035
S31500000EDC01320229A4F896207FF473AE002B3FF45E
S31500000EECC2AE6EE6384605B0BDE8F08F08B52021D7
S31500000EFC0020FFF75FFE30B1034A04492020BDE80D
S31500000F0C084008F04EBF08BD3994010070A80100D6
S31500000F1C094B18804FF6FF73984208D0030A08D184
S31500000F2C064B1B78034214BF01200020704701209A
S31500000F3C70470020704700BF041E0020281A0020AE
S31500000F4C0EB403B503AA52F8041B0192FFF7E0FF97
S31500000F5C10B1202008F04DFF02B05DF804EB03B091
S31500000F6C70470EB403B503AA52F8041B0192FFF79F
S31500000F7CCFFF28B1202008F03CFF202008F020FFEE
S31500000F8C02B05DF804EB03B0704742DE7047000018
S31500000F9C38B504460D4613F0B3FA06F0D9F802F04C
S31500000FAC10FA2B4622460549012008F061FF294616
S31500000FBC2046BDE83840FFF7E8BF00BF409401006B
S31500000FCC6D4B2DE9F0416D4C5A68A2655A6AE26583
S31500000FDC6B4AD2F800122166D2F8042262669A6A2B
S31500000FECA266DA6AE2661A6B22675A6B6267DB6B79
S31500000FFCA26BA367D4E90F5312F0040F18BF1D465A
S3150000100C17F012FC002285420346606522655CD30C
S3150000101C5C4A954259D8AA696264E969A164B4F834
S3150000102C5810C1F30801062953D157498A4250D3A7
S3150000103C56498A424DD211884DF64262914248D1A8
S3150000104C6268C4F89420A268C4F8982040F2017033
S3150000105C4F4A5049934238BF13460A468B423BD3FC
S3150000106CD31AE3640023C4E91F33C4E92133C4E96A
S3150000107C2333484E444FDFF814C1AE4232D8D4E97C
S3150000108C1FC7D4E92165D4E923124FF0000E013BAA
S3150000109CDBB2FF2B41D1BEF1000F05D0C4E91FC74F
S315000010ACC4E92165C4E92312B4F85830C3F3080324
S315000010BCDA1E0F2A55D8DFE802F03A5B474A545439
S315000010CC5454545154545454543E0022C4E91122DD
S315000010DC1D464FF42060BBE71E68B6F1CD3FBFD16D
S315000010EC0433BBE756F8042DBA42C6D36245C4D2C4
S315000010FCD107C2D5002104EB010EDEF87CE0964543
S3150000110CBBD004311829F6D10BB9052301E0013BFC
S3150000111CDBB204EB8301CA67AFE7E0464FF0010E82
S3150000112CBC4637462E460D4611464246AFE740F6BC
S3150000113C0120BDE8F081184BDB6913F0020F40F279
S3150000114C025318BF1846F4E740F60320F1E740F6C1
S3150000115C0423B0F5206F08BF1846EAE740F60520D1
S3150000116CE7E7013B40F60722412B98BF1046E0E724
S3150000117C40F60220DDE700BF00ED00E00000002095
S3150000118C00E100E0A01900202403000010900100EB
S3150000119C9C000020C019002000200540FFF7F8BE77
S315000011AC2DE9F04F4D4CA36BD4F850B0D4F840A0B9
S315000011BC5A074FBF0027D4F84CB0D4F85480D4F853
S315000011CC3CA05ABF464FDFF84091DFF84091454AA4
S315000011DC48BFB84613F0080F434B18BF1A46B7EB77
S315000011EC08061CBF7308642187B01FBF01FB0B33B5
S315000011FCB3FBF6F39BB205933C49CDF800804B4606
S3150000120CCDE9017A08BF0596054608F0DFFDB3B2B5
S3150000121CCDE900931FFA8BF2059B3549284608F059
S3150000122CD5FDA36B5B070AD49C3E5E4507D1626D68
S3150000123C304B9A4203D23049284608F0C7FDBA45CE
S3150000124C01D8C24504D24A462C49284608F0BEFDB0
S3150000125C284608F008FE236E0BB9636EBBB328490B
S3150000126CDFF8AC80DFF8AC90284608F09AFD002633
S3150000127C0127226E07FA06F3134207D058F82620E8
S3150000128C13781BB14946284608F08BFD0136202EF3
S3150000129CEFD1DFF87C80DFF87C9000260127626EA8
S315000012AC07FA06F3134209D008EB8603D3F880201D
S315000012BC13781BB14946284608F073FD0136122EE9
S315000012CCEDD1284607B0BDE8F04F08F079BD0D49C1
S315000012DC284607B0BDE8F04F08F078BD00000020A6
S315000012ECC01900204D970100469701005597010043
S315000012FC839701009C000020BC970100E897010031
S3150000130C06980100359801004197010039970100B4
S3150000131C4C980100319301002DE9F843044605F081
S3150000132C4BFC40F60123984239D010D840F20253B8
S3150000133C98421DD040F20173984224D040F20153DA
S3150000134C984213D16549204608F040FD22E040F64C
S3150000135C032398426CD03DD340F60423984200F008
S3150000136C9C8040F60523984200F0B580BDE8F883D2
S3150000137C5B49204608F02AFD5A4B5B495A6C2046BD
S3150000138C08F024FD06E0574A5849D2E925232046A1
S3150000139C08F01CFD2046BDE8F84308F064BD514D2D
S315000013AC5349204608F012FD95F86C309F0703D57B
S315000013BC5049204608F00AFD95F86F305E0603D5B5
S315000013CC4D49204608F002FD95F96F30002BE1DA05
S315000013DC4A49B8E7434D4A49204608F0F7FC95F8C8
S315000013EC6830980704D06A6C3F49204608F0EEFC3A
S315000013FC95F96830002B04DA6A6F4249204608F0EA
S3150000140CE5FCDFF80C81DFF8189100260127AA6E9F
S3150000141C07FA06F3134207D058F8262013781BB1A7
S3150000142C4946204608F0D2FC0136082EEFD1B1E72A
S3150000143C2C4D3549204608F0C9FC2B496A6C2046D0
S3150000144C08F0C4FC95F86930590703D52F49204696
S3150000145C08F0BCFC95F96930002B04DA6A6F29494F
S3150000146C204608F0B3FC2A4FDFF8B4800826AB6E92
S3150000147CF340DA0707D557F8262013781BB14146F7
S3150000148C204608F0A3FC0136102EF0D195F86830F2
S3150000149C002B7FF47FAF1F4955E7124D1E491C4F99
S315000014ACDFF87C80204608F091FC6A6C0E492046D9
S315000014BC08F08CFC1026AB6EF340DB0707D557F80B
S315000014CC262013781BB14146204608F07FFC0136D6
S315000014DC1A2EF0D15EE711494BE700BFC894010004
S315000014EC0595010000000020359501004E95010080
S315000014FC6895010080950100BA950100ED950100F3
S3150000150C299601004E9601007296010089960100FB
S3150000151C54940100CF960100FF9601001897010024
S3150000152C6A9601002DE9F84F164C174FDFF86080CC
S3150000153CDFF860A00646002523785FFA85FB0BB919
S3150000154CBDE8F88F57F8043B10492246304608F0A0
S3150000155C28FC227804F1010982B9627882B10BF079
S3150000156C030103290CBF41465146304608F019FCCD
S3150000157C304608F078FC01354C46DDE74C46E8E78A
S3150000158C4146F2E71499010004000020BF940100C3
S3150000159CEA920100BC9401002DE9F04F9B46584B92
S315000015AC85B01B78109F9DF844A0DDF85080064648
S315000015BC89461546002B00F09280072A00F291808E
S315000015CC0E9B002B00F08D800F9B002B00F089806A
S315000015DC129BB3F5006F00F38480012801D1002F14
S315000015EC7FD0484B03EB05131B7B002B7BD0464C63
S315000015FC10220021684617F0E0FC04EB451410227B
S3150000160CB9F1000F5CD14946204617F0D6FCA378F9
S3150000161C43F01003A370E37843F03003E370BAF1A0
S3150000162C000F03D1DBB243F00303E3703649129B80
S3150000163CCDF800B06A01013B885A01EB020C63F34A
S3150000164C0E1088520E9BCCF808300F9BCCF8043049
S3150000165C9DF84C109CF80330012E61F383038CF833
S3150000166C033042D11323CCF80C309CE80F000CF15C
S3150000167C100E8EE80F00DCF81C20CCF814706FF0FE
S3150000168C030161F39F02B9F1010FCCF81C2004D1C0
S3150000169C0F9BCCF81830CCF804701A492A018B1819
S315000016AC41F802800027159A5A6028469F605E739F
S315000016BC2246694602F0F2FF384605B0BDE8F08FC7
S315000016CC0021204617F079FC1023A3700323E37046
S315000016DCBAF1000FAAD1DBB243F03003A5E70B48F1
S315000016ECEBE70B48E9E70B48E7E7B8F1000FD4D175
S315000016FC9CF8023068F304138CF80230CDE700BF77
S3150000170C881F0020081E0020881E0020028000F082
S3150000171C018000F0078000F038B5104B1B780546A9
S3150000172CBBB1C0B101F055FE0D49002301EB03120C
S3150000173C147B3CB92B6001231373146001F04FFE2C
S3150000174C204638BD0133082BF0D101F048FE054880
S3150000175CF7E70548F5E70548F3E700BF881F0020C3
S3150000176C081E0020048000F0028000F0018000F0CA
S3150000177C38B501F02EFE0B4A05460023D1180C7B1A
S3150000178C5CB91033802BF9D102F01CFF064B2846AE
S3150000179C1C7001F024FE204638BD284601F01FFEC1
S315000017AC0248F9E7081E0020881F0020058000F07B
S315000017BC0D4B1B7810B5044693B1072812D801F0CF
S315000017CC08FE0A4B03EB04131A7B2AB100241C7384
S315000017DC01F005FE204610BD01F001FE0448FAE7B3
S315000017EC0448F8E70448F6E7881F0020081E002086
S315000017FC068000F0028000F0018000F013B5164B55
S3150000180C1868019000238DF8043001F0E2FD134BAB
S3150000181C1C7824B101F0E3FD114802B010BD012281
S3150000182C1A7001F0DCFD0F4B1C731C7783F82C40EF
S3150000183C83F83C4083F84C4083F85C4083F86C405A
S3150000184C83F87C4004230DEB03008DF8073002F07F
S3150000185CE3FE2046E1E700BFA39F0100881F00209E
S3150000186C038000F0081E002010B588B00E9C07946B
S3150000187C0D9C06949DF8304005940B9C04949DF8A1
S3150000188C284003940024CDE9013400920B4602460D
S3150000189C21462046FFF780FE08B010BD10B588B073
S315000018AC0E9C07940D9C06949DF8304005940B9C59
S315000018BC04949DF8284003940024CDE90134009249
S315000018CC0B46024601212046FFF766FE08B010BD06
S315000018DC08B50A4B1B785BB107280BD8084B03EBF2
S315000018EC00131B7B43B1002102F082FE002008BDD1
S315000018FC0448FCE70448FAE70448F8E7881F002088
S3150000190C081E0020028000F0018000F0078000F025
S3150000191C08B50A4B1B785BB107280BD8084B03EBB1
S3150000192C00131B7B43B1012102F062FE002008BDAF
S3150000193C0448FCE70448FAE70448F8E7881F002047
S3150000194C081E0020028000F0018000F0078000F0E5
S3150000195C08B50A4B1B7853B107280AD8084B03EB7A
S3150000196C00131B7B3BB102F01FFF002008BD05488E
S3150000197CFCE70548FAE70548F8E700BF881F002092
S3150000198C081E0020028000F0018000F0078000F0A5
S3150000199C0D4B1B7893B1072812D889B10B4B03EB6F
S315000019AC00131B7B73B10A4B1A6A012303FA00F06E
S315000019BC10401ABF00200B7008707047054870471E
S315000019CC0548704705487047881F0020081E0020F0
S315000019DC00200E40028000F0018000F0078000F02D
S315000019EC0B4B1B7810B50C4663B107280CD859B1B4
S315000019FC084B03EB00131B7B43B102F0F5FE206092
S31500001A0C002010BD0448FCE70448FAE70448F8E750
S31500001A1C881F0020081E0020028000F0018000F0C4
S31500001A2C078000F02DE9F843174E326EF36E12EA7A
S31500001A3C030800D5FEE7154CDFF854900127002566
S31500001A4C18EA070F16D02368B7669BB1A1686268BF
S31500001A5C0131A16028469847637B012B0AD148B90E
S31500001A6C09EB4513197B1A7F60F3410160F34102C0
S31500001A7C19731A770135082D4FEA470704F110043C
S31500001A8CDED1BDE8F88300BF00200E40081E002002
S31500001A9C881E002070B5094E0446012504B970BD98
S31500001AAC94FAA4F0B0FA80F005FA00F324EA0304E1
S31500001ABC56F82030002BF1D09847EFE78C1F00200A
S31500001ACC054B4FF48022C3F880211A604FF48062D4
S31500001ADCC3F880211A60704700E100E038B504466F
S31500001AEC0D4601F076FC034B43F82450BDE8384014
S31500001AFC01F075BC8C1F0020074BD3F82804D3F8D3
S31500001B0C1C24104020F42A5020F02A004004400CDB
S31500001B1CC3F82404FFF7BEBF00A00040074BD3F860
S31500001B2C2804D3F81C24104020F4AA4020F05500B9
S31500001B3C0004000CC3F82404FFF7ACBF00A000405F
S31500001B4C104A4161136830B51546ABB91060836015
S31500001B5C11E0091B9C6841611A467CB123465C69FD
S31500001B6C8C42F6D9002CF4D052B19060836013B13C
S31500001B7C5A69511A596130BD0022F0E72346F4E741
S31500001B8C2860F3E7E01F002010B500F0B9FA094B06
S31500001B9C094A196831B11368C41A4B69A34203D3B5
S31500001BAC1B1B4B61106003E0C01A002310604B61D5
S31500001BBC10BD00BFE01F0020D01F0020074B1B6884
S31500001BCC10B55C69064B1B6802201C4400F0D0FA69
S31500001BDC2046BDE8104000F09FBA00BFE01F002071
S31500001BECD01F002070B59DF81450057100251646BF
S31500001BFC8560049ABDF81850C58004460260C0E999
S31500001C0C03360D4629B961610BB11146984796B159
S31500001C1C354601F0DEFB0646FFF7B6FF29462046A1
S31500001C2CFFF78EFF054B1B68A34201D1FFF7C6FFDA
S31500001C3C304601F0D4FB002070BD00BFE01F002031
S31500001C4C0C4A136800217BB183420AD1836879B1AF
S31500001C5C8B6083681BB15A6941690A445A6100203A
S31500001C6C704719469B68EEE70028EFD002207047B4
S31500001C7C1360EEE7E01F002070B5124D01F0A9FBD2
S31500001C8C2C780646CCB9104B1C60104B1C60104BC4
S31500001C9C1C8000F0F1F9012000F06AFA00F0B6FAA7
S31500001CAC0C4B0246186040F2E73123460A4816F000
S31500001CBCC1FF0A4B186001232B70304601F08FFBD5
S31500001CCC002070BDCC1F0020E01F0020D01F00207C
S31500001CDCD81F0020DC1F002018FCFFFFD41F00209B
S31500001CEC2DE9F0410546F8B101F073FB0F4F06469E
S31500001CFCFFF74AFF2846D7F80080FFF7A1FF0446F6
S31500001D0C28B1304601F06BFB2046BDE8F081A845B2
S31500001D1C3B6803D123B1FFF751FFF2E7002BF0D15B
S31500001D2C022000F033FAECE72224EDE7E01F002056
S31500001D3CF0B50D4685B016461F46044680B1FFF732
S31500001D4CCFFFBDF82C3002939DF828300022CDE948
S31500001D5C0073294633462046FFF744FF05B0F0BD15
S31500001D6C2220FBE738B50C46054698B191B1002305
S31500001D7C0B7001F02EFB084B1B6801210BB122786E
S31500001D8C1AB101F02CFB002038BD9D420CBF21700E
S31500001D9C9B68F3E72220F7E7E01F0020F0B587B039
S31500001DAC1F4600230D4616468DF817300446A0B183
S31500001DBC0DF11701FFF7D6FF9DF817207AB9BDF87C
S31500001DCC343002939DF830302946CDE90073204615
S31500001DDC3346FFF707FF07B0F0BD2220FBE70320D1
S31500001DECF9E70000F8B50C460646C8B1C1B101F0DA
S31500001DFCF0FA0546FFF7C8FE73692360134B1B68A0
S31500001E0CB3420FD023B9284601F0E9FA03201CE0AF
S31500001E1C596922689B680A442260F1E700230FE0A7
S31500001E2C222012E00A4E276800F06AF93368C01ABD
S31500001E3C8742F3D900F064F93368C01A23681B1A79
S31500001E4C2846236001F0CBFA0020F8BDE01F0020E5
S31500001E5CD01F002070B501F0BCFA064600F050F910
S31500001E6C094B1C8805460120A4B200F0A7F918B14D
S31500001E7C00F046F901340546304601F0B0FA00226E
S31500001E8C42EA0500214670BDD81F00200A4B1B688C
S31500001E9C834210B50C460CD3084B19684FF47A7272
S31500001EAC0023A0FB010116F0C5FE013020600020C6
S31500001EBC10BD2120FCE700BFD41F0020DC1F002032
S31500001ECC104B1A684FF47A7310B5A0FB0301A2B13C
S31500001EDC531E134211D1B2FA82F2C2F11F02C2F1A1
S31500001EEC2004A2F1200301FA04F420FA02F22243A0
S31500001EFC21FA03F342EA030010BD002316F09AFE02
S31500001F0CFAE700BFDC1F002000000000F8B51646FB
S31500001F1C1BA3D3E900238B4208BF82422AD3174B5B
S31500001F2C1A684FF47A73A0FB034503FB0155C2B143
S31500001F3C531E13EA020014D1B2FA82F2C2F11F0246
S31500001F4CC2F12007A2F1200124FA02F305FA07F7E1
S31500001F5C3B4325FA01F10B4325FA02F2C6E900329E
S31500001F6CF8BD00232046294616F064FEC6E900019A
S31500001F7C0020F5E72120F3E7AFF30080DC1F0020FB
S31500001F8CEFA7C64B37894100C2072DE9F84F044627
S31500001F9C08D5354A138801339BB21380FFF7F4FD3D
S31500001FACFFF70CFEA3075DD5304EDFF8C49000F0AA
S31500001FBCA7F835680746451B01F00BFA4FF0000AE7
S31500001FCC8046D9F80040002C44D06369AB4205D951
S31500001FDC5D1B65613760FFF7F1FD3EE03760234618
S31500001FEC2A465969914209D8187994F804C084454F
S31500001FFC88BF1C469B68521A002BF2D1404601F052
S3150000200CEEF9D4F81480C4F814A001F0E2F9834672
S3150000201C2046FFF715FE584601F0E1F923694BB14E
S3150000202C01F0D7F9216983462046FFF789FD58460A
S3150000203C01F0D5F9E36813B121682046984700F002
S3150000204C5FF84744ED1B0446054401F0C2F92746E8
S3150000205C8046B6E7022000F099F84046BDE8F84FF6
S3150000206C01F0BDB9BDE8F88FD81F0020D01F0020A5
S3150000207CE01F00200020704710B51D4B86B0596834
S3150000208C186803AA03C2197A53F8090F11700024B1
S3150000209C9A8801909B791748ADF8082001218DF894
S315000020AC0A3000F0FDFB8DF80C40FFF7E3FF8DF8CE
S315000020BC100003A802F0BEFD01A901208DF8044012
S315000020CC02F086FD0C4A536A23F4FF6323F00703E0
S315000020DC536240F2FF7313620120946002F0A4FD78
S315000020EC064B4FF08042C3F880211A6006B010BD33
S315000020FCA79F0100A00914000020044000E100E0A5
S3150000210C014B9868704700BF00200440014B586D86
S3150000211C704700BF0020044010B5134C0246A1685E
S3150000212CFFF7F4FFA3695B0704D4431A022B01D80B
S3150000213C88420DD1531A012B98BF8A1C0A4BB2F157
S3150000214CFF3F28BF01325A655A6A42F004025A62AE
S3150000215C064A137833B104490B6D43F002030B6541
S3150000216C0023137010BD00BF00200440291A002064
S3150000217C8207054A00F00103516A48BF43F0040385
S3150000218C0B435362704700BF00200440830700F0E6
S3150000219C010209D5074B0121197007490B6D23F074
S315000021AC030342F004020B6503494B6A23EA02035C
S315000021BC4B627047291A002000200440064B012868
S315000021CC9B6904D0022805D1C3F38000704703F045
S315000021DC01007047002070470020044010B501F044
S315000021ECF8F8094A93690446590703F0010003F00D
S315000021FC070348BF40F002001362FFF7C5FE2046F6
S3150000220CBDE8104001F0EBB80020044008B50448C6
S3150000221C00F0D8FC0346FFF72DFF23FA00F008BDAB
S3150000222CA0091400044B4FF04042DA621A6B22F0FC
S3150000223C40421A63704700BF00300E402C48F0B580
S3150000224C002203682B4D114654592CB11E68AC184C
S3150000225C002E36D1234601210832282AF4D101B1A9
S3150000226C03602549254E0B680022144695592DB15D
S3150000227C1F68B518002F2BD12B4601240832282AAB
S3150000228CF4D104B10B6000681D4B026842B3DA69E5
S3150000229C007922F0FF020243DA611A6B42F08042A7
S315000022AC09681A630A68164BF2B1DA69097922F4DD
S315000022BC7F4242EA0122DA611A6B42F000421A634B
S315000022CCF0BD1E792779B74284BF23460121C3E7A7
S315000022DC1F7995F804C0BC453CBF2B460124CDE7BD
S315000022EC1A6B22F08042DBE71A6B22F00042E6E71B
S315000022FCF01F002000200020F41F002028200020C2
S3150000230C00300E4008B51B4B1B4801221A700021E9
S3150000231C282216F052FE28220021184816F04DFEEF
S3150000232C174A184B13601849184A13600A684B6D04
S3150000233CC2F30742FF2A02D0DBB2FF2B01D1902356
S3150000234C1922134802EB820103EBD1010160DB0079
S3150000235C0521B3FBF1F313440E4A1360FFF762FF3A
S3150000236C0D4B0122C3F880211A60FFF767FF00208E
S3150000237C08BD00BFE41F00200020002028200020FC
S3150000238CF01F0020F81F0020B081E00FF41F002082
S3150000239CE81F0020EC1F002000E100E008490B6A52
S315000023AC0A6ADBB2D2B29342F9D1064A0520DB00A7
S315000023BCB3FBF0F31068C31A03F3070040B270477F
S315000023CC00300E40EC1F002070B5144C226B616A75
S315000023DC0A4011D5124B1B681E6836B100251D60CC
S315000023EC5D60FFF7DBFF2946B0474FF00043E36221
S315000023FCBDE87040FFF722BF5300F9D5094B1B68A7
S3150000240C1C6834B100221A605A60FFF7C7FF01211D
S3150000241CA047024B4FF08042DA62E9E700300E40EB
S3150000242CF41F0020F01F0020FFF7CEBF70B588B058
S3150000243C0D220021294C2A4E04A816F0BEFD0025BB
S3150000244C0223012127488DF81010CDE9015503957B
S3150000245C8DF80A3000F024FA294601AA204602F02B
S3150000246CB5FC4FF6FF73E3618DF81250354604A99F
S3150000247C204602F04BFC1C4800F0A4FB9DF81230E1
S3150000248CD8400133DBB20A2B30608DF8123002D8FB
S3150000249C164B9842EBD81648164C00F093FB16498F
S315000024ACB1FBF0F12868154A0025E1FB0045002335
S315000024BC2046294616F0BEFB114B084A1860114BF4
S315000024CC00201870936923F0100393610E4B4FF4A0
S315000024DC0062C3F880211A6008B070BD008001400C
S315000024EC50200020000204004041050080841E009C
S315000024FC7000020020A1070000B0710B40420F00D3
S3150000250C542000205820002000E100E01E4BF7B5B7
S3150000251C19681E4C1E4A1F4E0025E0FB014520463D
S3150000252C2946002316F086FBDFF86CC04FF6E854FC
S3150000253C00254FF6E75E4FF0FF378D4208BF844209
S3150000254C11D380B260B1144A516A89B2536A9BB2F4
S3150000255CADF80630BDF806305B1A9BB29842F5D83A
S3150000256C002003B0F0BDDCF8242092B2DCF8243055
S3150000257C9BB2ADF80430BDF804309B1A9BB2734580
S3150000258CF4D980197941D8E75020002020A1070002
S3150000259C40420F001802FFFF00800140044BDA682E
S315000025ACD20604D510225A61024B01221A707047CA
S315000025BC00800140582000202D4B002A70B52D4D6F
S315000025CC446B08BF1D462C4B14BF102600269842A0
S315000025DC3AD102293FD004D8B9B1012921D0002320
S315000025EC2DE0062931D0812935D00329F7D1234B8B
S315000025FC1A6819681B68120C1B0C03F0F00302F422
S3150000260CFE421A43C1F3034318E01D490B680A68DE
S3150000261C03F4FE4302F00F021A430B6803F0F003B7
S3150000262C0CE0174A1368116812681B0C120C02F0A6
S3150000263CF00203F4FE431343C1F303421343B340C6
S3150000264C2C400D4A2343536370BD0E4B1A681B680E
S3150000265C02F00F02E2E7094A13681168126803F4E4
S3150000266CFE4301F00F010B4302F0F002E6E700BF58
S3150000267C0080FFFFFFFF0080002000401482E00F67
S3150000268C1082E00F1882E00F38B5354B984205469C
S3150000269C0C4604D040F252313248FEF77FFD02233D
S315000026ACAB600022A1782846FFF786FF2079617877
S315000026BC6279030243EA016343EA0243E27843EA9E
S315000026CCC203E2790AB143F00053227A0AB143F00D
S315000026DC0403A2790AB143F00203627A0AB143F009
S315000026EC0103F328A27806D12AB903299CBF23F04B
S315000026FC706343F0806351B20029ACBF43EA4213C6
S3150000270C43F0E0032B616B69002923F4F21323F0E9
S3150000271C0703BCBF22F080021343227843EA4243EC
S3150000272CE27A0AB143F480436B616B0103F1844393
S3150000273CA27A9A60EB6FD5F880201A4204D040F248
S3150000274CBA310848FEF72AFDEB6813F4406F06D041
S3150000275C40F2BB310348BDE83840FEF71FBD38BD1B
S3150000276C00200040B79F01000C4B984210D90C4B2F
S3150000277C984210D9022201230A490B600A49D1F862
S3150000278C003123F0807343EA0263C1F800317047CD
S3150000279C00221346F0E70122FBE700BF0048E801E0
S315000027AC0090D0034000C84300400E4038B5104B93
S315000027BC104C5B68C9B2002304EBC30215798D4239
S315000027CC03D154F83350854210D20133052BF3D183
S315000027DC40F653610848FEF7E1FC032204494B68B6
S315000027EC23F0407343EA02634B6038BD5279F5E738
S315000027FC00000E40E4A0010080A001001F2810B5C7
S3150000280C044604D94FF496710248FEF7C7FC012022
S3150000281CA04010BD1AA0010038B5074C41F6713323
S3150000282C256C236402F070FC0021FFF7BFFF0DB18D
S3150000283C0023236438BD00BF00000E40044B1B6808
S3150000284C5B0603D4034A1368002BFCD1704700BF08
S3150000285C3C300E40C800C64308B5FFF7EFFF024BED
S3150000286C5868C0F3014008BD00300E40044BD3F845
S3150000287C4421D20703D4D3F840211042FBD1704730
S3150000288C00400E4038B5054C41F67133256C236477
S3150000289CFFF78CFF0DB10023236438BD00000E40FA
S315000028ACC0F30322013A38B50546092A21D8DFE8D8
S315000028BC02F0272A202005131620191D134C002080
S315000028CCC5F3043508B1FFF7D1FF04F1047405EB29
S315000028DCC404A400216038BD01200D4CF0E7102083
S315000028EC0C4CEDE74FF480300B4CE9E700200B4C19
S315000028FCE6E741F2F2310A48BDE83840FEF74EBC35
S3150000290C0020084CDCE70020074CD9E7B0400E400D
S3150000291CE0400E40E8400E40F0400E4050410E4064
S3150000292C80A0010000400E40C0400E4008B5C0F328
S3150000293C0313013B092B60D8DFE803F0050B0F19D5
S3150000294C5F5F1F233C532E4BD3F80001C0F30420CA
S3150000295C08BD2B4BD3F81401F8E7294BD3F800012B
S3150000296CC0F300600130FFF749FF0138F0E7244B54
S3150000297CD3F80C01C0F30820EAE7214BD3F8080181
S3150000298CF8E7204B984209D01F4B98420CD041F2E5
S3150000299C96511E48FEF702FC0020D9E7184BD3F8D7
S315000029AC200100F00F00DEE7154BD3F82001C0F331
S315000029BC0110D8E7164B984208D003F5B01303F56F
S315000029CC8053984206D041F2BA51E2E70C4BD3F849
S315000029DC2801ECE70A4BD3F82801C0F30120043098
S315000029ECC1E70C4B984205D1054BD3F8300100F0EA
S315000029FC0300ADE741F2C951CBE741F2EE51C8E70E
S31500002A0C00400E408006160080162E0080A00100A5
S31500002A1C90171A00A009140008B5FFF787FF0130BC
S31500002A2C08BD000000F00F00013808B5072856D87D
S31500002A3CDFE800F0041726553A3E55462D4BD3F8E1
S31500002A4C943003F00703023B052B08D8DFE803F0AC
S31500002A5C4E28260307050B2008BD0C20FCE7052095
S31500002A6CFAE7244BD3F8800000F007000228F3D0D5
S31500002A7C04283DD0012808BF032018BF0120EBE72E
S31500002A8C1C4BD3F8843003F00703013B032B09D806
S31500002A9CDFE803F00604022E0620DDE70220DBE762
S31500002AAC0320D9E70120D7E7124BD3F88800DBE7E0
S31500002ABC104B1B6F13F0010F14BF09200720CBE737
S31500002ACC0C4BD3F85C3103F03003202B0ED0302B9B
S31500002ADC03D0102B08BF0720CFE70820BCE7064819
S31500002AEC41F64211FEF75AFB0020B5E70420B3E786
S31500002AFC0A20B1E700400E4080A001002C4B984202
S31500002B0C10B504460AD02B4B984207D02A4B984254
S31500002B1C04D040F653712948FEF740FB2046FFF7D8
S31500002B2C81FF234B9C4211D0224B9C4212D0224B4C
S31500002B3C9C4213D1224BD3F8804004F00704042C9A
S31500002B4C2ED8DFE804F02B12161E1A001C4BD3F8F5
S31500002B5C8440F2E71A4BD3F88840EEE7044640F679
S31500002B6C82711648FEF71AFBE9E7BDE8104002F041
S31500002B7C2FBBBDE8104002F031BBBDE8104002F09F
S31500002B8C2ABB02F0C5FA0E4B0446D3F80001C0F37B
S31500002B9C00600130FFF732FEB4FBF0F4204610BDA6
S31500002BAC40F6D4710548FEF7F9FA0024F6E700BFA3
S31500002BBC030020000500240002001E0080A0010076
S31500002BCC00400E4038B500F47813B3F5B01F054637
S31500002BDC7DD02AD8B3F5202F07D00AD8B3F5003FFD
S31500002BEC62D0B3F5802F54D05BB9BDE8384002F003
S31500002BFC8FBAB3F5602F00F0878005D8B3F5402F58
S31500002C0C58D041F2225189E0B3F5801F00F0A48020
S31500002C1CB3F5A01FF5D15A48FFF770FF594BD3F8FF
S31500002C2C303103F00303D8403DE0B3F5101F69D0F3
S31500002C3C12D8B3F5F01F45D0B3F5001F55D0B3F538
S31500002C4CD01FDED15048FFF759FF4E4B0446D3F840
S31500002C5C2801C0F3011043E0B3F5401F47D00BD851
S31500002C6CB3F5381FCDD14948FFF748FF454BD3F88C
S31500002C7C2031C3F30113D6E7B3F5481F53D0B3F590
S31500002C8C781FBED102F044FA04462846FFF7C4FE6C
S31500002C9C28E002F03DFA3B4BD3F80C31C3F3082382
S31500002CAC0133B0FBF3F038BD02F032FA354BD3F8F2
S31500002CBC0831F3E702F02CFA324BD3F81431C3F394
S31500002CCC0423EDE73148BDE83840FFF717BF2F481E
S31500002CDCFFF714FF2B4B0446D3F8200100F00F002E
S31500002CECFFF78CFDB4FBF0F0DDE72748EBE7264851
S31500002CFCFFF704FF234B0446D3F82801C0F3012049
S31500002D0C0430EDE71E48DEE72148FFF78BFE072867
S31500002D1C22D009283FF469AF40F615511D48FEF73D
S31500002D2C3DFA0020BFE71C48FFF77CFE0138072858
S31500002D3C23D801A353F820F02F2D0000872D000077
S31500002D4C872D00006B2D0000872D0000872D0000BD
S31500002D5C652D0000732D0000104B1868A3E7BDE825
S31500002D6C384002F011BA02F0D3F9064BD3F8003111
S31500002D7CC3F3042303FB000095E740F64C51CDE763
S31500002D8C0500240000400E400300200002001E0037
S31500002D9C06000E0080A00100B80032002C1A00209C
S31500002DAC013808B5032816D8DFE800F0020F070C27
S31500002DBC0C4B186AC0F3080008BD0A4B186900F0E2
S31500002DCC7F00F9E7074B9869F9E7064BD3F89C00A7
S31500002DDCC0F30A00F0E7044842F2D301FEF7DEF92D
S31500002DEC0020E9E700400E4080A00100013838B50C
S31500002DFC0C46032861D8DFE800F00241192DB1F525
S31500002E0C007F04D342F2F9012F48FEF7C7F92F4A87
S31500002E1CC4F308041368002BFCD12D4A136A23F45F
S31500002E2CFF7323F001032343136238BD7F2904D9B2
S31500002E3C42F206112448FEF7B1F9264904F07F0246
S31500002E4C0B68002BFCD1224B1C6924F07F04144325
S31500002E5C1C61EAE77F2904D942F221111A48FEF7D0
S31500002E6C9DF91D4904F07F020B68002BFCD1184B11
S31500002E7C9C6924F07F0414439C61D6E7144DD5F865
S31500002E8C90305B0704D542F230110F48FEF786F9F5
S31500002E9C6B6A23F0300343F010036B62296B0F4B04
S31500002EACC4F3C31203320F2A03EA010328BF0F220D
S31500002EBC1C4344EA02742C63B7E742F24A110248F7
S31500002ECCBDE83840FEF76AB980A001006828C843FF
S31500002EDC00400E406028C8436428C84300F8FF0F22
S31500002EEC022838B50D4604D042F262111248FEF79C
S31500002EFC55F9124C636A13F0300F04D0202D18D0FC
S31500002F0C302D00D015B94FF4400305E042F27D1187
S31500002F1C0948FEF743F90A4BD4F8902033EA02022B
S31500002F2CFAD15B024ABFD4F8A0000120C0F380207E
S31500002F3C38BD4FF40003EFE780A0010000400E40BF
S31500002F4CFF33E107022808B50CD129B1094B4FF420
S31500002F5C8060C3F8A80059664AB10220BDE8084053
S31500002F6CFFF7BEBF42F2B3110348FEF717F9012073
S31500002F7C08BD00BF00400E4080A001002DE9F041C5
S31500002F8C06460F46904604280DD8DFE800F0038B62
S31500002F9C181386004FF400724FF48074082309212D
S31500002FAC002F65D05BE042F247014148BDE8F04195
S31500002FBCFEF7F4B80124022200232146F0E700298B
S31500002FCC53D03C4C636A13F0300F45D13A4BDB6B54
S31500002FDC5A0504D442F256013548FEF7DFF8636A07
S31500002FECDB0705D5636A23F0300343F010036362F5
S31500002FFC042402230321314D2E4A2B4414669B00D4
S3150000300C1A68002AFCD0B8F1000F23D00D44AD008D
S3150000301C2B68002BFCD0022E1CD1DFB1254B596A34
S3150000302C11F001011DD0012220213046FFF78AFF45
S3150000303C0220FFF7B5FE0122064600210220FFF70B
S3150000304C9DFF31460220FFF7D1FE1A4B1C662B68FA
S3150000305C002BFCD0BDE8F0810424022303210027B9
S3150000306CC9E73046FFF73CFFE2E7082202230321BB
S3150000307C10480266012202FA03F3D0F890201A4295
S3150000308CFBD1B8F1000FE5D001230A4A03FA01F18E
S3150000309CD2F890300B42FBD1DCE72022102404231B
S315000030AC05217DE7802240240623072178E700BF0F
S315000030BC80A0010000400E4000300E408004F2104B
S315000030CC112870B506460C462BD1042917D102F0EF
S315000030DC5BF80546D0B10021284600F023FC06F02B
S315000030EC0F06013E072E00F2F080DFE816F01C00FA
S315000030FC6C009F00EE008200B900EE00C7000529A7
S3150000310C04D1764B1D68764B9D42E4D8023C0A2CC2
S3150000311C4CD8DFE804F0134E363D4B4B4B4B445228
S3150000312CDD000025DBE7023C0A2C3FD8DFE804F083
S3150000313C07422A313E3E3E3E3746490000250020D6
S3150000314C042401221146FFF719FFFFF765FB0DB1A9
S3150000315CFFF774FB634B5C6702F004F8044601F05E
S3150000316CD7FFFFF701FBFFF777FB01462046FFF77A
S3150000317C89FB002D60D128460121BDE8704000F086
S3150000318CD1BB00255848FFF7EFFA02200446D8E7D2
S3150000319C00255548FFF7E8FA01240320D1E741F64C
S315000031AC03215248BDE87040FDF7F8BF41F60821EF
S315000031BCF7E7002501200324C3E700250320052497
S315000031CCBFE70724C1E7062C32D141F64721474811
S315000031DC474DFDF7E3FF41F657214448FDF7DEFF67
S315000031EC01F096FFFFF7C0FA424B01221A60032347
S315000031FC21E0062C404DEED0013C092C2BD801A326
S3150000320C53F824F0693200004732000055320000B2
S3150000321C6332000063320000ED31000063320000BF
S3150000322C633200006332000041320000334DE3E7A5
S3150000323C2F4DE1E704232B6070BD012211460020BF
S3150000324CFFF79CFE0223F6E7012211461046FFF714
S3150000325C95FE0123EFE741F68221A2E70023EAE778
S3150000326C072C04D0092C06D041F60C3199E71D4BDE
S3150000327C00221A67E0E71B4B0122FAE7013C072CF8
S3150000328C1ED8DFE804F0201D1D161D1D0F04032299
S3150000329C1449D1F85C3123F0300343EA0213C1F828
S315000032AC5C31C9E7012211460420FFF767FE0122B3
S315000032BCEEE7012211460220FFF760FE0222E7E745
S315000032CC41F66A316DE70022E2E741F6414168E7D3
S315000032DCFFF7A2FA002507243CE700BF381A0020A6
S315000032EC002D310100400E400148E80180A001008C
S315000032FC80400E400816C84388400E4084400E405D
S3150000330C10B504461120FFF78DFB042804D141F6B5
S3150000331CF1612548FDF742FF012200210220FFF74B
S3150000332C2DFE63781BB9A3780BB9E37823B141F66C
S3150000333C2F711D48FDF732FF237C012B04D141F67A
S3150000334C34711948FDF72AFF184A217C536A23F079
S3150000335C0103022908BF43F001035362144B217881
S3150000336C1960637AA18843EAC123D362136BA07AEE
S3150000337C217A03F07F630343E08843EAC02343EAE0
S3150000338CC11303310F2928BF0F2143EA01731363BD
S3150000339CA37B617B1B0143EA0133E17B0B43217B5E
S315000033AC43EA0143536310BD80A0010000400E4068
S315000033BCA004C843EFF3108072B6704700B962B62A
S315000033CC7047602383F311887047002383F31188B9
S315000033DC7047EFF31180602383F31188704780F3F5
S315000033EC11887047EFF31083DB0706D4EFF31180D7
S315000033FC5F2894BF00200120704701207047000011
S3150000340C38B5C4B2322C054604D94FF4437107487B
S3150000341CFDF7C4FE6D09064B53F8250004F01F0496
S3150000342CE040C04300F0010038BD00BF0CA1010014
S3150000343C00E100E038B5C5B205F10C03DBB23E2B5A
S3150000344C044604D940F29B211F48FDF7A7FEEFF373
S3150000345C1083DB0701D5012038BD2046FFF7D0FFCE
S3150000346C0028F8D1002CA7BF04F1604404F5614490
S3150000347C05F00F05154BACBF94F800235A5D5209A5
S3150000348CEFF3118313B1B2EB531FE4D2104C636804
S3150000349CC3F30803002BDFD0103BDBB259B2002973
S315000034ACB5BF03F00F0301F16043043B03F5614321
S315000034BCB6BF1B1993F80003187E4009824234BF2D
S315000034CC00200120C8E700BF0CA1010014ED00E0AC
S315000034DC00ED00E0034B186880F04000C0F380104C
S315000034EC704700BF3C300E4038B542EA032340F229
S315000034FC0112934205460C4630D0B3F5817F0DD2AE
S3150000350C012B22D035D3B3F5807F36D040F604118B
S3150000351C1E48FDF743FE002213461CE040F2012232
S3150000352C934222D006D8B3F5007FEFD1184BD3F8CF
S3150000353C70310DE0B3F5407F23D040F20132934257
S3150000354CE4D1134BD3F878310BE0114BD3F874312B
S3150000355CC3F30722DBB22B60226038BD0C4BD3F8C9
S3150000356C74311A0EC3F30743F5E7094BD3F87831D8
S3150000357CEEE7074BD3F86C31EAE7054BD3F86C3121
S3150000358CEFE7034BD3F87031EBE700BF70A10100F6
S3150000359CB081E00F08B5FFF79DFF18B1024A13681A
S315000035AC002BFCD108BD00BFC800C64308B5FFF709
S315000035BC91FF80B1FFF7EEFF074B19685A68C1F30C
S315000035CC0121C2F3014291421A688CBF42F01002EB
S315000035DC22F010021A6008BD00300E40064B1B6824
S315000035ECDB0608D5054B1B69C3F30443082B02BF46
S315000035FC034B044A1A60704700300E4000400E40E0
S3150000360C381A0020C0EA210170B5FFF763FF38B104
S3150000361C234B1B78C3F1020210239340214A1361FA
S3150000362C2149224CD1F8805145F60E03C1F8803160
S3150000363C236823F0AA03DB05DB0D0B66FFF7AAFF55
S3150000364C184B1B68D80605F0010515D5D1F8403185
S3150000365CDA01FBD4164B1B680B61164B197805293E
S3150000366C0ED1154B1E68FFF795FF0E4B5968304669
S3150000367CC1F30141FFF706F90E4B1978052902D063
S3150000368C1120FFF71DFD2368DB075EBF064B0222E8
S3150000369C1A661DB1044B0022C3F8802170BD00BF11
S315000036AC6D20002000300E4000400E405C200020B3
S315000036BC6820002066200020381A00201A4B0228A9
S315000036CC10B5D3F880310C4612D0032813D001283C
S315000036DC14BFDBB2C3F307231B0323F47042ECB90C
S315000036EC5AB140F693011148FDF758FD002010BD64
S315000036FCC3F30743F0E71B0EEEE70D49CA6E22F43F
S3150000370C70421343CB660120F1E70949D1F8EC204E
S3150000371C22F470421343C1F8EC30F4E7002AF4D0DB
S3150000372C40F69F01DFE700BFB081E00F70A10100FA
S3150000373C00300E4010B50B4C0B4BD4F890201A6091
S3150000374C1120FFF76FF9094B1870FFF723FF084B91
S3150000375C084A5B68C3F301431370074B22691A606E
S3150000376C10BD00BF00400E405C20002066200020EB
S3150000377C00300E406D2000206820002070477047F6
S3150000378C10B5044608B1FFF7D5FFFFF70FFF134A34
S3150000379C136943F004031361FFF7F0FF104B1B682A
S315000037ACDB0614D5FFF706FE15F024FCFFF706FE24
S315000037BCFFF7E5FF6CB1FFF727FF0A4A136823F002
S315000037CC0043136044B9BDE8104001F0CBBC30BFD8
S315000037DCEEE7FFF703FFF0E710BD00BF00ED00E0DA
S315000037EC00300E404C310E4010B5044608B1FFF7C0
S315000037FCA1FFFFF7DBFE1B4BD3F8802145F60E012C
S3150000380CD207C3F8801148BF00224FF42071196605
S3150000381C48BFC3F88021144A136943F004031361AB
S3150000382CFFF7ACFF114B1B68DB0614D5FFF7C2FD87
S3150000383C15F0E0FBFFF7C2FDFFF7A1FF6CB1FFF738
S3150000384CE3FE0B4A136823F00043136044B9BDE84A
S3150000385C104001F087BC30BFEEE7FFF7BFFEF0E784
S3150000386C10BD00BF00400E4000ED00E000300E40E1
S3150000387C4C310E400A4B9A69996922F4403242F453
S3150000388C003241F440314AF6E85098609A619961E9
S3150000389C9A6199619A6199619A6199619A61704785
S315000038AC00300E40F8B504460F46FFF713FE78B30A
S315000038BCFFF770FE174B5B68C3F301439C4227D09E
S315000038CC154BD3F8005101F023FC022C06460FD100
S315000038DCC5F30425114B05FB00059D4204D940F2A6
S315000038ECE1510F48FDF75AFC02213046FEF7CAFF9C
S315000038FCC4F1020210239340064A13610FB1FFF77D
S3150000390C49FE2CB921463046BDE8F840FEF7BABF51
S3150000391CF8BD00BF00300E4000400E40002D3101B6
S3150000392C70A1010038B502460D46FFF7D3FDB8B1BC
S3150000393C42B90C4BD3F8004101F0EAFBC4F3042264
S3150000394C02FB0002084B1B7829463BB1074B9A42F7
S3150000395C04D80220BDE83840FFF7A4BF0020F9E7E1
S3150000396C38BD00BF00400E406C200020002D3101F8
S3150000397C0378134A002B437870B514BF042600262F
S3150000398C002B8378946914BF02250025002B03793C
S3150000399C24F03F0443EA0403C47814BF0821002131
S315000039AC012C08BF43F0010333432B430B439361B4
S315000039BC1368417923F4403343EA0143136070BD25
S315000039CC00300E40224B4AF6E85210B5596B5A633A
S315000039DC9A6FD407FCD41B6C13F003031EBF1D4A4D
S315000039EC01241460834203D108B91A4B186010BD28
S315000039FC032B17D0B3B1164A1446936FDB07FCD4CE
S31500003A0C136C23F0030303431364A36F13F0010336
S31500003A1CFBD100300F4A18BF01200129106008BFE6
S31500003A2C6363E4E7431E012BE5D8094B4FF40022F0
S31500003A3CDA629A6FD207FCD41A6C22F0030242F0B7
S31500003A4C01021A64024A536A1C03FCD5D3E700BF71
S31500003A5C00300E40B40AC6432DE9F04FA0F5E163E1
S31500003A6C89B00027B3F5966F054601919346CDE9CB
S31500003A7C0277CDE90477CDE9067705D940F63F21E3
S31500003A8C5548FDF78BFB59E0544BB0F5E16F8CBFF5
S31500003A9C4FF0010A4FF0000AD3F8683152D01A0ED3
S31500003AACC3F30743079204934FF496694FF4E1640A
S31500003ABCDFF82C81D8F84C70C7F301773B46524699
S31500003ACC05A902A8FFF710FDD8F8EC60C6F301268D
S31500003ADC3346524606A903A8FFF706FD0798049A33
S31500003AEC2C1B811A6143B1FBF9F3D1182CBF0123AE
S31500003AFC002388421CD3DBB9069A0398131A634336
S31500003B0CB3FBF9F310EB030A2CBF01230023524538
S31500003B1C0ED36BB9059B029A981A4443B4FBF9F978
S31500003B2C12EB09092CBF012000204B4500D398B19C
S31500003B3C40F68D212848FDF731FB0027384609B0A1
S31500003B4CBDE8F08FC3F30722DBB2079204934FF460
S31500003B5C16794FF49664ABE7BBF1000F0ED0D8F88C
S31500003B6C5C3023F4FE4323F00203B5F5E16F43EA20
S31500003B7C012318BF02200343C8F85C30019B43B3F2
S31500003B8C38460021FFF79AFD074610B940F69C21EE
S31500003B9C76E701213046FFF791FD074610B940F64E
S31500003BACA4216DE70E4A536ED14538BFD14623F496
S31500003BBCFF73B9F1E70F23F0010328BF4FF0E709B4
S31500003BCCB5F5E16F18BF43F0010343EA49035366A9
S31500003BDCB4E70127B2E700BF70A10100B081E00F86
S31500003BEC00300E40324A08B5136FD16CC90703F08A
S31500003BFC070342D5012B40D9132857D9143813285B
S31500003C0C8CBF102308232A49013BCA6C180322F4E3
S31500003C1C7F4240EA03231343CB64264BCA6C1B88B2
S31500003C2CC2F303222833013202EB820003EB530367
S31500003C3CB3FBF0F3C86C013B072B20F0EE6028BFFA
S31500003C4C072340F4801040EA0363CB641A4BB3F9A4
S31500003C5C0030002B10DB2833500800EB420203EB3C
S31500003C6C5303B3FBF2F30A6D072B28BF072322F08D
S31500003C7C700242EA03130B6508BDD26CD10706D459
S31500003C8C012B04D8092811D90A380928B8E7084A9B
S31500003C9CD26CD20703D5012B01D82728B0E740F602
S31500003CACE2210648FDF77AFA0023ACE70423AAE7DB
S31500003CBC00300E40622000206420002070A101001C
S31500003CCC0B4B1B6810B5044633B9012804D940F6D2
S31500003CDC01310848FDF762FA074B186F20F0070010
S31500003CEC20431867054BBDE810401888FFF77ABFCC
S31500003CFC8009C64370A1010000300E4060200020F0
S31500003D0C38B5594B02229A639B6B03F00F0393420F
S31500003D1C044607D040F6A6115448FDF73FFA002595
S31500003D2C284638BD0389C82B04D94FF41B614F486C
S31500003D3CFDF734FAA28823899A4204D940F6B111C8
S31500003D4C4A48FDF72BFAB4F90C30C82B04DD40F6C3
S31500003D5CB2114648FDF722FA6378012B54D1A38899
S31500003D6CC82B04D940F6B6114048FDF717FAE2887D
S31500003D7C42F210739A4204D940F6C3113B48FDF740
S31500003D8C0DFAE3884A2B47D9B3F5FA7F46D340F6AA
S31500003D9CC3118B4294BF4FF000514FF04051324843
S31500003DACB4F90C50C36CA28823F0405323F00103E2
S31500003DBC002DA8BF43F001030B43C364D0F8EC30CD
S31500003DCC43F44073C0F8EC30294B1A80C36E43F0B1
S31500003DDC8073C366274B186800B10420FFF770FF89
S31500003DEC254B21891980254BB4F90C20A0881A8003
S31500003DFCFFF7F8FEA37BA3B1012B22D040F64401BA
S31500003E0C1A48FDF7CBF90FE0022BB0D1A3880A2B89
S31500003E1CADD940F6BB11A7E70021C0E74FF08051A2
S31500003E2CBDE7114B164A9A65012211466088FFF7C9
S31500003E3C13FE054640B940F6FA110C48FDF7AEF9EB
S31500003E4C6EE7094B0F4AEEE7074A6078D36B43F4EB
S31500003E5C8063D363FFF7B6FDA37AA3F12002534226
S31500003E6C5341094A13605BE700300E4070A1010014
S31500003E7C602000208009C6436220002064200020B8
S31500003E8C77402057372110B79407C64338B50D46EF
S31500003E9C044618B3012824D0022825D0032826D09E
S31500003EAC04282AD0052825D0831F012B25D90828BC
S31500003EBC25D0092825D00A280CBF072300232B411F
S31500003ECCDB0704D440F20B410F48FDF767F93023AA
S31500003EDC5C4301210D4BA940195138BD40F2FF330B
S31500003EECEDE74FF6C073EAE740F6FF73E7E74FF4EA
S31500003EFC7F43E4E74FF6FF73E1E70023DFE70F2389
S31500003F0CDDE74FF44043DAE737A201000CA0004688
S31500003F1C38B50D46044618B3012824D0022825D0FE
S31500003F2C032826D004282AD0052825D0831F012B48
S31500003F3C25D9082825D0092825D00A280CBF0723FF
S31500003F4C00232B41DB0704D44FF477710F48FDF7A0
S31500003F5C25F930235C4301210D4BA940195138BD7D
S31500003F6C40F2FF33EDE74FF6C073EAE740F6FF7316
S31500003F7CE7E74FF47F43E4E74FF6FF73E1E70023EF
S31500003F8CDFE70F23DDE74FF44043DAE737A2010002
S31500003F9C0CA00044F8B50F4616461D4604460028EC
S31500003FAC4CD001284DD002284ED003284FD00428DF
S31500003FBC53D005284ED0831F012B4ED908284ED03E
S31500003FCC09284ED00A280CBF072300233B41DB07E8
S31500003FDC03D4C4212B48FDF7E1F887EA060333F036
S31500003FEC030303D0C6212748FDF7D8F8072E07F0A0
S31500003FFC03014FF00F0237D8B30023489A400260F2
S3150000400C224A9C40146003229A409940204B1A6025
S3150000401C03F100739DF8182019601E4B33449B0066
S3150000402C1D60C3F88020012202FA06F61A4AC2F86D
S3150000403C24649DF81C20C3F80023F8BD40F2FF331E
S3150000404CC4E74FF6C073C1E740F6FF73BEE74FF403
S3150000405C7F43BBE74FF6FF73B8E70023B6E70F23A2
S3150000406CB4E74FF44043B1E7A6F108039B000B48B5
S3150000407C9A4002600A4A9C40146003229A40994076
S3150000408C084BC4E7D3A1010000A4004400A40046D9
S3150000409C08A400448020851000A0004004A400441D
S315000040AC04A400460CA40044F8B50D4616461F465B
S315000040BC044600283CD001283DD002283ED00328D7
S315000040CC3FD0042843D005283ED0831F012B3ED970
S315000040DC08283ED009283ED00A280CBF0723002307
S315000040EC2B41DB0704D440F21B112748FDF756F889
S315000040FC26B1294620468FB3FFF7C8FE302363430B
S3150000410C03F18043072D03F520432AD85A68A900EA
S3150000411C0F20884022EA000206FA01F10A435A608F
S3150000412C8EBB2946204657B3BDE8F840FFF7AEBE16
S3150000413C40F2FF33D4E74FF6C073D1E740F6FF7376
S3150000414CCEE74FF47F43CBE74FF6FF73C8E7002368
S3150000415CC6E70F23C4E74FF44043C1E7FFF7D8FE89
S3150000416CCCE705F18042083A996892000F209040FE
S3150000417C21EA000106FA02F20A439A60D0E7BDE88A
S3150000418CF840FFF7C5BEF8BDD3A101002DE9F041FB
S3150000419C064688461546A2BB4FF48A713048BDE8E0
S315000041ACF041FCF7FBBF2F4B9E4201D12E483EE05F
S315000041BC4FF497712A48FCF7F1FF3BE0032F43D0ED
S315000041CC2A4B3DE06FEAC5041C444444B4FBF3F4AB
S315000041DC013C0AD54FF4BD712148FCF7DFFF40F2D4
S315000041EC7B111F48FCF7DAFF02E0B4F5007FF6D22C
S315000041FC33689B0702D5002C08BF01243461BDE847
S3150000420CF08103F00307036823F44073036000F1A5
S3150000421C80634FF44071196000F1C0633A021A6072
S3150000422CB8F1000F06D1124B9E42BCD11148FEF7D5
S3150000423CC9FC804633689A07C0D5032F04D00E4BB1
S3150000424C53F82730984504D840F263110448FCF71C
S3150000425CA5FF0A4BDB5D6B43B4D14FF4BA719DE7F6
S3150000426CB4A2010000C4004000920400A8A2010000
S3150000427C00C00040008204009CA2010017A30100AC
S3150000428C38B5094B984204460D4608D003F58063B1
S3150000429C984204D04FF4CA710448FCF77FFF04F12E
S315000042AC04746401256038BD00C00040B4A201004E
S315000042BC38B5124B984204460D4608D003F5806378
S315000042CC984204D040F2A9110D48FCF767FF002371
S315000042DC23640C4BE3636A78630103F1844382F035
S315000042EC01025A60D5E9011220462B7BFFF74EFFDF
S315000042FC29782046BDE83840FFF7C2BF00C0004011
S3150000430CB4A20100FFFF07007C4B98422DE9F04157
S3150000431C0CD003F58063984218D0794840F2FF110F
S3150000432CFCF73CFF6FF00300BDE8F081754B9A6813
S3150000433C402505244FF0000E0327416B11F4C06F86
S3150000434C0BD08E0504D5FD225A70D1E06E4BEEE7EC
S3150000435C4D0540F1CD80FE22F6E71E78082E00F2C0
S3150000436CC980DFE816F009002B004E0058006E00DD
S3150000437C790097009E00C00051881288CC0616D58D
S3150000438C120A02F0060242F0F00201211970C26212
S3150000439C41601A78092A40F0AF8093F90110002287
S315000043AC0129026408BF5A7093F90100BCE702F0B8
S315000043BCFE028F0748BF42F00102E6E70E0608D55B
S315000043CC8022C263FF225A7008221A7002224260AF
S315000043DCDFE7490640F190805188C563CE0604D5C7
S315000043EC022112781970C262D3E7890757D50721C3
S315000043FC1970197902EBC1021289012A7CD10822A3
S3150000440CE5E70E06DCD4490676D55188C5638E07DA
S3150000441C45D51F7091E751881288CC0643BF120A06
S3150000442C02F0060242F0F00202F0FE024F074FF0D5
S3150000443C040119704FF0010148BF42F001024160BE
S3150000444CD1E70E06BCD44E0656D55188C56349072E
S3150000445C25D507221A709CE719795E8802EBC10CE8
S3150000446CBCF80880B0450DD80131C9B2197156880F
S3150000447CA3F802E016F0040FCBD1F607A4D4012959
S3150000448CA2D85AE7DCF80420711C5980925DC262EE
S3150000449C0622DFE70E0693D44E062DD5C5631C7097
S315000044AC4BE7890628D519795C88C56902EBC102E8
S315000044BC1189A14281BF5268661C5E8015555A88C7
S315000044CC914206D801294FF008027FF47EAF426074
S315000044DC7BE70424012944607FF65BAF01398A42ED
S315000044EC7FF457AF8BE7CA0506D54FF48072C263CB
S315000044FC0922AFE7FB2227E7012015E700C00040A1
S3150000450CB4A20100702000207C20002038B5274B77
S3150000451C984204460D4642D003F5806398423BD040
S3150000452C40F24B312248FCF739FE002D3AD14FF4BC
S3150000453C53711F48FCF732FE1C4B9C4225D11D4B78
S3150000454CA268D00744BF202262606A88910701D511
S3150000455C298939B3520701D52A8A1AB300220121B7
S3150000456C1A7059705A801A719D60C0236360E36893
S3150000457CDB050FD4104BE363236C43F4FC63236419
S3150000458C2046BDE83840FFF7BFBE0C4B9C4209D114
S3150000459C0B4BD5E7E369EAE70029F9D1C7E7002910
S315000045ACCDD1C4E76FF0030038BD00BF00C000409A
S315000045BCB4A2010070200020FFFF070000C40040D9
S315000045CC7C200020084B4FF40072C3F88020BFF308
S315000045DC4F8FBFF36F8F054B0021D9664FF4AA405E
S315000045EC1962FEF75DB900BF00E100E000200E4045
S315000045FC072838B505460C4603DD7B210448FCF735
S3150000460CCDFD044B2B449B0084F001041C6038BD8B
S3150000461C1BA30100A001F11010B5044618B9952191
S3150000462C1B48FCF7BBFD23781B0613F0784F03D011
S3150000463C97211748FCF7B2FDE378072B03D9A7217E
S3150000464C1348FCF7ABFD01214FF4AA40FEF728F9FD
S3150000465CB4F8013022785BBA9BB243EA02630D4A86
S3150000466C136000231362D36253634FF00043D36687
S3150000467C4FF0FF339366084A4FF40071C2F880116D
S3150000468CE3785B01DBB282F80933116010BD00BF21
S3150000469C1BA3010000200E4000E100E02DE9F041D3
S315000046ACC3B20126072807460C46904606FA03F6BF
S315000046BC03DDF1213948FCF771FD1CB9F2213748AD
S315000046CCFCF76CFD236823F47C1323F00F031BB15A
S315000046DCF7213248FCF762FDA37A1B0413F47C0F16
S315000046EC04D040F20F112D48FCF758FDE37A1B0558
S315000046FC13F07E6F04D040F211112848FCF74EFDE2
S3150000470C237B5B0513F0FE5F04D040F213112348A4
S3150000471CFCF744FD224D637B2268302000FB0750DA
S3150000472CC0F88020C0F88830E37AA27A1B0543EAE9
S3150000473C0243227B43EA4253C0F8843028F0030339
S3150000474CC0F89830AE66FEF744FEEB6E3343EB666C
S3150000475C237A13B16B6B33436B63637A13B1EB6AD6
S3150000476C3343EB6222792B6822B1D243120262F4F4
S3150000477C7F42134062790AB143EA0223A2790AB155
S3150000478C23EA0203E27902B11343054A1360054B8F
S3150000479C1E60D663BDE8F041FEF721BE1BA30100E7
S315000047AC00200E4028200E4410B5C3B20124072861
S315000047BC04FA03F404DD4FF4BC710848FCF7EEFC74
S315000047CCFEF707FE064AD36E23EA0403D366054BAF
S315000047DC1C60BDE81040FEF702BE00BF1BA3010023
S315000047EC00200E4020200E44F8B50728C3B24FF027
S315000047FC0105044605FA03F504DD4FF4DC710D489A
S3150000480CFCF7CCFCFEF7E5FD0B4B30221E6E9F6AC7
S3150000481C02FB0434D4F88C40FEF7E1FD3D4206D190
S3150000482CC4F30A1008B9354200D10130F8BD002096
S3150000483CFCE700BF1BA3010000200E40036CDB0746
S3150000484C02D4436C0B42FCD17047000038B50A4BBE
S3150000485C984205460C4604D04FF4AE710748FCF757
S3150000486C9DFCE143490001F00A010C432846022154
S3150000487CFFF7E4FF6C6038BD00A004407FA3010085
S3150000488C0E4B984210B5044604D040F2E3110C4886
S3150000489CFCF784FC636C002BFCD101222264EA2217
S315000048AC626040F2F9722360E36023616361A36383
S315000048BC6263E3636365A365236410BD00A00440D3
S315000048CC7FA3010010B502460C469368DB06FCD5A7
S315000048DC40211046FFF7B2FF946210BD10B50D4C87
S315000048EC6268530304D540F2B7210B48FCF756FC1B
S315000048FC636813F4403F04D04FF42E710648FCF75E
S3150000490C4DFC064B41F671321A649A6822F001028C
S3150000491C9A6010BD00300E40E5A3010000000E4069
S3150000492C034B9A6822F001029A6000221A647047BF
S3150000493C00000E40094A0A4BD969C90705D512B9B8
S3150000494C6FF002007047013AF6E7002AF8D0012210
S3150000495C1861DA60D86940F3800070478096980039
S3150000496C00000E4070B505460C4609B9002070BD16
S3150000497C134B1A68134B9A4204D840F2AB311248C7
S3150000498CFCF70CFC114A0023082055F82310916102
S3150000499C0F49D0600133D669F60705D511B96FF00A
S315000049AC0200E4E70139F6E70029F8D0D169890756
S315000049BC02D56FF00100DAE79C42E6D1D6E700BFDC
S315000049CC301A00203F420F00E5A3010000000E4004
S315000049DC809698002DE9F8432F4B1E6C154610F067
S315000049EC030F41F6713280460F46B6B21A6404D0F4
S315000049FC4FF47E712948FCF7D1FBAA0704D040F28C
S31500004A0CFB312648FCF7CAFB254C6268530304D5D8
S31500004A1C40F2FF312148FCF7C1FB636813F4403FB9
S31500004A2C04D04FF480611D48FCF7B8FB1A4A936812
S31500004A3CAD0843F0010393600FD118484FF4816120
S31500004A4CFCF7ACFB2846144B9A6822F001029A60DC
S31500004A5C0EB100221A64BDE8F8834FF0000908EB8A
S31500004A6C89042046FFF766FF0028ECD1C4F30A043C
S31500004A7CC4F50064A408A5EB09039C4228BF1C4698
S31500004A8C21463846FFF76EFF0028DCD1A1444D4580
S31500004A9C07EB8407E3D8D6E700000E40E5A3010038
S31500004AAC00300E402C4B70B541F671321C6C1A64FA
S31500004ABCC0F30A030646A4B223B140F26E4127485E
S31500004ACCFCF76CFB264D6A68530304D540F2714122
S31500004ADC2248FCF763FB6B6813F4403F04D040F2AA
S31500004AEC72411E48FCF75AFB1B4B9A6842F00102B6
S31500004AFC9A6001221E61DA60DA69550709D59A684F
S31500004B0C22F001029A600CB100221A644FF0FF30B9
S31500004B1C1FE002221349DA601A46D869C00700D58D
S31500004B2C69B9D069936810F0020023F00103936011
S31500004B3C07D00CB1002313646FF0010009E00139B2
S31500004B4CEBE721B904B111646FF0020001E00CB17E
S31500004B5C106470BD2046FCE700000E40E5A3010082
S31500004B6C00300E4080969800FFF734BF014B0122AF
S31500004B7C9A60704700500E40124BF0B55C68124DAF
S31500004B8C124E002318463768EA187F0751685A599F
S31500004B9C08D4B2F5806F03D00DD8B2F5007F01D1E1
S31500004BAC41F48071144202D0214208BF10430833ED
S31500004BBC482BE8D1F0BDB2F5006FF1D0B2F5803FCD
S31500004BCCEDE700BF00500E4048A40100E841E00F9D
S31500004BDC022838B504460D4603D951211048FCF776
S31500004BECDDFA6B791F2B03D956210D48FCF7D6FA43
S31500004BFCAB786A789B0143EA82032A781343EA78F6
S31500004C0C43EA02132A7943EAC2236A7943EA023356
S31500004C1CAA79043443EA42432401024A135138BDAB
S31500004C2C90A4010000200440014B1860704700BF9F
S31500004C3C00008442427801790378002A827870B5A4
S31500004C4C14BF04260026002AC27814BF102500259E
S31500004C5C002A42794FEA023242EA012242EA030270
S31500004C6C837914BF20240024002BC37942EA034322
S31500004C7C43EA0603027A43EA050314BF4FF40041E4
S31500004C8C00212343002A14BF4FF4003200220B43A9
S31500004C9C1343014A136070BD0020044010B504464E
S31500004CAC18B946210C48FCF779FA0C4A5369116974
S31500004CBC9B0003F03C03C1F381110B43A3701369F2
S31500004CCC03F03F0363709369D26903F0F003C2F3F8
S31500004CDC03121343237010BDF4A40100D0FF0FE0A0
S31500004CEC094B98420DD003F58063984209D003F521
S31500004CFCE053984205D003F58063C31A58425841D5
S31500004D0C70470120704700BF008001402DE9F84F25
S31500004D1C05460C46FFF7E4FF18B99F212A48FCF715
S31500004D2C3DFA217809B902236B606078E27894F831
S31500004D3C08B094F806A094F8079000284FF00003EA
S31500004D4C607A6B62A37814BF4FF040084FF00008EE
S31500004D5C12040028A07A42EA036314BF4FF0800EB7
S31500004D6C4FF0000E43EA0B030028E07A43EA8A234D
S31500004D7C14BF4FF0200C4FF0000C43EA0923002817
S31500004D8C207B43EA080314BF1027002743EA0E03CF
S31500004D9C00282079647943EA0C0314BF0826002600
S31500004DAC3B43002814BF4FF4005000203343002C23
S31500004DBC14BF4FF080540024034323432B6009B1E6
S31500004DCC01236B60BDE8F88F5AA50100F8B50546BE
S31500004DDC0C461646FFF784FF18B9EB211F48FCF763
S31500004DECDDF9032C03D9EC211C48FCF7D7F97378B1
S31500004DFC32781B0643EA8263B2791343B27843EAEC
S31500004E0C0243F27843EA0233327943EA8223727917
S31500004E1C43EA0223F279002A327A14BF4FF0804714
S31500004E2C0027002A727A14BF4FF000500020002A87
S31500004E3CB27AF67A43EA067343EA070314BF1021E3
S31500004E4C00210343002A04F1060414BF04220022A5
S31500004E5C0B43240113432B51F8BD00BF5AA5010087
S31500004E6C2DE9F041064688461D46174622B94FF4F1
S31500004E7C95712E48FCF792F9B8F1000F03D12C4826
S31500004E8CFDF7A0FE8046202D3AD007D8A5B140F2FA
S31500004E9C71112648BDE8F041FCF780B9402D39D098
S31500004EAC602DF4D1B7EB980F04D940F26B111F4863
S31500004EBCFCF774F9042208E0B7EB181F04D94FF479
S31500004ECCAE711A48FCF76AF910227A43540804EBBF
S31500004EDC4814184FB4FBF2F4203CE400BC4204D94D
S31500004EEC40F287111148FCF759F9336823F0600337
S31500004EFC336033683C401D4335607461BDE8F08116
S31500004F0CB7EBD80F04D940F261110848FCF746F903
S31500004F1C0822DAE70624B8FBF4F3BB4204D24FF4BA
S31500004F2CB3710248FCF73AF92246CEE7BFA5010059
S31500004F3C40410500F8FF7F0038B50E4B98420446F9
S31500004F4C0D4610D003F5806398420CD003F58063B0
S31500004F5C984208D003F58063984204D040F2A6210B
S31500004F6C0548FCF71BF9EB435B0003F00A03E3600F
S31500004F7CE56038BD00000140BFA5010038B51E4BE9
S31500004F8C1E4D984204460ED0A8420CD003F5006381
S31500004F9C984208D003F58063984204D040F206414B
S31500004FAC1748FCF7FBF840F6AA63E36041F20502EA
S31500004FBC002323606260134AA3606361E364A26406
S31500004FCC23666367A367E3670B4B9C4209D0AC422D
S31500004FDC07D003F500639C4203D003F580639C4223
S31500004FEC01D1002323650023AC42A36502D0064AF7
S31500004FFC944200D1E36538BD000001400004014035
S3150000500CBFA50100F9FF0100000C014038B5264B85
S3150000501C984204460D4610D003F5806398420CD096
S3150000502C03F58063984208D003F58063984204D058
S3150000503C40F2D7211D48FCF7B1F82046FFF79EFF3A
S3150000504CAB7C1BB1236843F080432360EB7C1BB124
S3150000505C2B7D43F08003A3652A8A6B7B1343EA8975
S3150000506C13436360D5E901122B7B2046FFF7F8FE4C
S3150000507C6B7D1BB1236843F480332360AB7DEA7DE3
S3150000508C1B07120502F4E00203F0E0431343236608
S3150000509C636F23F030036367626F2B7E1343636782
S315000050AC2B78E36038BD00BF00000140BFA50100AE
S315000050BC03691B06FCD5C069C0B2704703695B0661
S315000050CCFCD5416370470368DB060FD447F23153B6
S315000050DC8268D20701D5013BFAD1036803F00103BC
S315000050EC8B421EBF00F104704001016070470368DB
S315000050FCD90707D583689A0704D48368DB07FCD4E1
S3150000510C01234360704700000048704700F04902D5
S3150000511C104AD2F8943003F00703023B032B13D842
S3150000512CDFE803F00C14020E0B4B1B68D2F80001DF
S3150000513CC0F304200130B3FBF0F07047074BF4E7E3
S3150000514C074B1B685B08F1E7054BEEE74FF4004392
S3150000515CECE700BF00400E403C1A0020341A002039
S3150000516C381A002008B5FFF7D3FF054BD3F80831E2
S3150000517CC3F308230133B0FBF3F0024B186008BDF0
S3150000518C00400E40301A0020014B1868704700BFD3
S3150000519C341A0020054B1860054BD3F8943003F0F5
S315000051AC0703022B01D1FFF7DDBF7047341A00202D
S315000051BC00400E40044B054A9A60D3F8882042F40E
S315000051CC7002C3F88820704700ED00E00002000072
S315000051DC4FF4004070474FF47A707047014B1868D3
S315000051EC704700BF3C1A002008B5094B1B681B0C06
S315000051FC1B0433B1074A934203D048210648FBF7F8
S3150000520CC7FE00F00FF9002814BF8620002008BD49
S3150000521C2808E10F0000E10F24A60100174B10B57A
S3150000522C1B689A69D20386B002D4002006B010BD62
S3150000523C1B6B01A85B68984705990029F5D08B680C
S3150000524C0F4C4A880F48B3F5803F2ABF9B0AE38070
S3150000525CE3800B8823804B68A38028BF42F01002A2
S3150000526CCB686280A36004220B69E360143101F001
S3150000527C19FE059B02481B7E2375D7E72808E10F0C
S3150000528C602E0020702E002000F0EEB810B50D4CEC
S3150000529C22689269D30303D4BD210B48FBF778FE31
S315000052AC23680A481B6B0A495B6A00684FF4C07294
S315000052BC984728B1C5210448BDE81040FBF768BEE5
S315000052CC10BD00BF2808E10F24A60100882000208D
S315000052DC4C2F002008B50C4B1B68986910F48030D5
S315000052EC0DD01B6B09489B6A0021984740F201239D
S315000052FC984205D040F20323C31A5842584108BDC0
S3150000530C4FF6FF70FBE700BF2808E10F4C2F00207B
S3150000531C08B5084B1B689A69D20309D51B6B06485E
S3150000532C9B690121984718B940F2022013F0F8F94D
S3150000533C012008BD2808E10F88200020074B1B68B8
S3150000534C10B59C69E40306D51B6B9B6B9847003024
S3150000535C18BF012010BD0120FCE700BF2808E10F93
S3150000536C074B1B6810B59C69E40306D51B6B5B6B7E
S3150000537C9847003018BF012010BD0120FCE700BF84
S3150000538C2808E10F08B5074B1B689A69D20306D5A6
S3150000539C1B6BDB6B9847003018BF012008BD012042
S315000053ACFCE700BF2808E10F044B1B689A69D2037F
S315000053BC02D51B6B1B6B1847012070472808E10FA1
S315000053CC014B1B68588970472808E10F114B196867
S315000053DC01F1704303F5F813B3F5006F0CD20E4BC5
S315000053EC1B68A3F17E62A2F58432B2F5104F03D28C
S315000053FC09680A4A914203D0002303708360704700
S3150000540C1968074A9142F7D1012202709A684260E4
S3150000541C9B69F3E72800E10F2808E10FAD1007B0F0
S3150000542C07B0CD5E70B50E4C2368A3F17E63A3F571
S3150000543C8433B3F5104F0DD2FDF7CBFF094B1D7816
S3150000544C01221A70FDF7CBFF3DB92368BDE8704009
S3150000545CDB6918474FF4817070BD0020FCE700BF74
S3150000546C2808E10F8C20002070B50E4D2B68A3F197
S3150000547C7E63A3F58433B3F5104F0DD2FDF7A9FF68
S3150000548C094B1C7800221A70FDF7A9FF3CB12B685A
S3150000549CBDE870401B6A18474FF4817070BD2046FA
S315000054ACFCE700BF2808E10F8C200020094B1A6886
S315000054BCA2F17E63A3F58433B3F5104F09D2126BB8
S315000054CCA2F17E63A3F58433B3F5104F01D2536872
S315000054DC184770472808E10F0A4B1A68A2F17E6339
S315000054ECA3F58433B3F5104F09D2126BA2F17E6388
S315000054FCA3F58433B3F5104F01D2936818474FF4D4
S3150000550C817070472808E10F0A4B1A68A2F17E6376
S3150000551CA3F58433B3F5104F09D2126BA2F17E6357
S3150000552CA3F58433B3F5104F01D2D36B184740F271
S3150000553C011070472808E10F08B5FAF7D3FFFBF7FF
S3150000554CC9F904F06BF8BDE8084004F0ADBEFBF7F2
S3150000555CCDBC04F09BBA704704F062B87047704734
S3150000556C70477047704770477047704700F005B832
S3150000557C7047704770477047704770477047704761
S3150000558C0FF0FCB80020704738B5A0F14303054670
S3150000559C0A2B32D8DFE803F0060A0A12123131312F
S315000055AC31311100BDE8384011F060BA11F02EFA15
S315000055BC20B111F05BFA0028FBD138BD124C2078D3
S315000055CC0028FAD10123443D237004F063FC032D1B
S315000055DC0DD8DFE805F00606090240F6010013F0C7
S315000055EC9FF800232370E8E740F60200F7E74FF434
S315000055FC94710648FBF7CCFCF3E74FF49D71034816
S3150000560CBDE83840FBF7C4BC8D200020F0A6010095
S3150000561C2DE9F7431F4D204C894606464CF20F01E7
S3150000562C284698460023174623700CF08FFE2378E5
S3150000563C1A49D81C0233DBB2C0B2207008222844A7
S3150000564C05F8039001F02EFC2078154B0830C0B2FB
