S01700006E63702D656D7074792D7461726765742E7333378C
S21400000000080020B50B0000B10B0000B10B00008B
S214000010B10B0000B10B0000B10B0000B10B0000EB
S214000020B10B0000B10B0000B10B0000B10B0000DB
S214000030B10B000058900200B10B0000B10B00009D
S214000040B10B000091960000B10B0000B10B000050
S214000050098E0000FD9600009D960000B5960000F3
S2140000609596000035110000F5110000B10B000058
S2140000700908000095080000B10B0000B10B000055
S214000080B10B0000B10B000039120000B10B0000EC
S214000090B10B0000B10B0000B10B0000B10B00006B
S2140000A0B10B0000B10B0000B10B0000B10B00005B
S2140000B0019700009996000019570000419700002C
S2140000C0B10B0000257D0000B10B0000B10B000055
S2140000D0B10B0000B10B0000B10B0000B10B00002B
S2140000E0B10B0000B10B0000B10B0000B10B00001B
S2140000F0B10B0000B10B0000B10B0000B10B00000B
S214000100B10B0000B10B0000B10B000010B5054CA0
S214000110237833B9044B13B10448AFF300800123AE
S214000120237010BD80110020000000008CB9020072
S21400013008B5034B1BB103490348AFF3008008BD65
S21400014000000000841100208CB90200154B002B23
S21400015008BF134B9D46A3F5803A00218B460F46F9
S2140001601348144A121A28F084FE0F4B002B00D0B6
S21400017098470E4B002B00D0984700200021040023
S2140001800D000D48002802D00C48AFF3008028F080
S21400019009FE2000290000F03BF928F0EFFD00BF23
S2140001A0000008000008002000000000000000001A
S2140001B080110020944A002000000000000000008B
S2140001C010B500F02BFC002304220A21012004F0C5
S2140001D049FB002304220F210320BDE8104004F051
S2140001E041BB00BF08B501210B4802F0C3FC01214A
S2140001F00A4802F0BFFC01214FF48A4002F0BAFC24
S2140002000121074802F0B6FC00F026FC00F0A0FC36
S214000210BDE8084000F072BC00C204000072040092
S21400022000350A00012304220521002004F01ABB31
S214000230584A594BF0B501215164DB6C1B0E8DB04A
S21400024040F09E80554956484AF6E8520A600268D1
S21400025042F0040202600B60524A136843F40053F3
S2140002601360514A4B4D136A504E514F23F44413BA
S21400027043F4881313622C6896E80F0044F48074E5
S2140002802C603D6803AC45F4F8453D6084E80F00FB
S21400029006F11005204604F00DF80FCD07AC0FC48C
S2140002A03D4B2A685B6822801B036DD5414B1B883B
S2140002B04FF6FF72934208BF4FF4A573ADF8223095
S2140002C007A802F087FF3C4800F0D2FC3A4800F04E
S2140002D0CFFC01221146022002F0E8FF0421112083
S2140002E003F0B2F800221146032002F0DFFF0121DE
S2140002F0324802F03FFC736A079307A820238DF864
S2140003001C3002F0ABFF4FF4004000F0EBFC022183
S2140003102B4803F099F802212A4803F095F80221A9
S214000320294803F091F8294B93E8070007AB03C36D
S2140003300024012107A81A708DF81C108DF81D40A6
S2140003408DF81E408DF81F408DF820408DF8224015
S21400035004F004FD0CA800F82C4D03F061FE022307
S21400036002A88DF809308DF8084003F0C7FE184A39
S214000370136823F4E06343F4007313600DB0F0BD1C
S214000380012B7FF46EAF67E7124B1B88ADF8223067
S21400039096E700BF00000E40B081E00F90310E409F
S2140003A098310E4064310E4000400E40E891020045
S2140003B0A4310E400001E00F00F0490230253E0057
S2140003C002001E0003002000050024001092020018
S2140003D000500E40B881E00F10B500F0C9F9B0F536
S2140003E0B47F08D2094C23680133B3F5803F2360FD
S2140003F006DA002010BD054B00221A60012010BD51
S21400040000F0D4F800232360012010BDB4110020B2
S21400041010B5FFF70DFFFFF7E5FEFFF7D1FE254805
S2140004200CF04CFA98B91FF04BFC1FF091FC1FF033
S21400043053FC1FF099FC1FF05BFC1FF065FC1FF0DF
S21400044027FC1FF06DFC1FF02FFC1FF075FC00F062
S21400045035FAFFF7E7FE04E000F008F900F07AF955
S21400046050B100F03DF9FFF7B7FFC8B900F0FEF84D
S21400047000F070F90028F4D103F064FA0CF0E8F903
S2140004800CF050F903F060FAEBE7204600F0C4F8F1
S21400049000F060F90028DFD1FFF79EFF0028DBD0D0
S2140004A00CF0AFF904460028D6D000F07DFA0028FC
S2140004B0EED1EAE71C9202002DE9F0410446B0F8BE
S2140004C00A8083F00103A8EB03080F46154603F0E5
S2140004D045FA23891FFA88F8984562D91E2D0646E4
S2140004E038D92389A8EB0308C8EB0818B5EB480FE2
S2140004F057D820881E2D00EBC000A84604EB8000CD
S21400050028BF4FF01E0839464246103028F08DFCB2
S214000510238822886089511C03EBC30304EB830302
S21400052091FBF0F200FB121292B2C3F80C8022800C
S214000530E38801339BB2E380238901339BB2B5EB9A
S214000540080547442381D4D1304603F00BFA012036
S214000550BDE8F081208800EBC00004EB800039463F
S2140005602A46103028F061FC238822886089511CB6
S21400057003EBC30391FBF0F204EB830300FB1212C0
S21400058092B2DD602280E38801339BB2E380238948
S21400059001339BB23046238103F0E4F90120BDE825
S2140005A0F08103F0DFF90020BDE8F081084B10B4BD
S2140005B000241C8021465C8003F10C009C804FF4D4
S2140005C0BD62DC801C815DF8044B28F052BC00BF85
S2140005D07C09002030B4064B064C01251D71042111
S2140005E00022206030BC19805A80FFF7DFBF00BFB2
S2140005F00C080020B811002038B5064C0D460A46F7
S2140006000146601D28F011FCADB200236580237101
S214000610238038BD0C080020014658B10368064800
S2140006201A0202F4E062C3F307231A4304320023DB
S214000630FFF742BF704700BF7C09002010B503F0EB
S2140006408DF9094A91885389013191FBF3F404FB33
S21400065013139BB293801389013B9BB21381BDE8B1
S214000660104003F07FB900BF7C09002070B51A4D1A
S214000670EB889BB2002B2ED0184E22E06C88A4B2DA
S21400068004EBC404A40003F06DF92B191034D968E8
S2140006903368C9B228199847E8B903F05FF96A8841
S2140006A06B89013292FBF3F101FB13239BB26B8043
S2140006B0EB88013B9BB2EB8003F054F9EB889BB2CE
S2140006C04BB103F04BF9EC88A4B2002CD6D103F062
S2140006D049F92368FFDE70BD7C090020B8110020B0
S2140006E010B5184C23791BBB23889BB203BBD4F8E8
S2140006F00500154A20F47F4323F0070393421BD0DE
S21400070004F109010CF0EEFA104B114819680B6859
S2140007101A0202F4E062C3F307231A4304320123E9
S214000720FFF7CAFE01210422002321712280638084
S214000730BDE81040FFF79ABF04F1090000F086F903
S214000740E2E700BF0C0800202000FF00341900205C
S2140007507C090020054B1A792AB9188880B2B0FAAD
S21400076080F0400970470020704700BF0C0800204A
S214000770044B1A895889801A0138C0EB00104000D3
S214000780704700BF7C090020704700BF10B4044CBF
S214000790044B0A46014620685DF8044B02F0B8B8E0
S2140007A0700F0020A907000019461046FFF746BF45
S2140007B038B5104C02200CF073F820680368DA6E27
S2140007C022F4E022DA66DA6E4FF4004542F4802224
S2140007D0DA6602219D6401F0CBF8074B20680749D2
S2140007E04FF4B47202F05CF8054A064B12681A60C1
S2140007F038BD00BF700F002089070000C011002020
S2140008002C130020281300201E4B186803681A6C4F
S214000810120435D530B54FF400421B4C9A64236859
S21400082085B033B904200CF03BF8FFF7C1FF05B0E4
S21400083030BD256804AB002143F8041D01910291E8
S214000840013D02AA01A9256001F036F901980028A9
S214000850EDD002990329EAD90C4B0D4C1A68130205
S21400086003F4E063C2F307221343043323602368D0
S2140008709942DCD32168FFF7BFFEFFF799FFD6E762
S214000880704700BF700F002028130020C011002002
S214000890BC11002010B5084C23681B681B6C9B0419
S2140008A000D410BD02200BF0FBFF23681B684FF43A
S2140008B000529A6410BD00BF700F0020F0B58BB0D8
S2140008C02B4B019300232B4EADF80C30ADF81030B7
S2140008D08DF812308DF813308DF815308DF81730EE
S2140008E003238DF814308DF818302349234A0791D6
S2140008F04FF4E134022301A902948DF816304FF428
S214000900805441F61E6330680892ADF80E40ADF88C
S214000910243001F0E5F9029B194D1A481A4F9B093D
S2140009202B60FFF757FE19490C2003F06BF81849A7
S2140009300D2003F067F8174B3068C3F880414FF47A
S2140009400052C3F880211C601A6002681249D766FC
S2140009509164D46C114B124944F42044D4644FF48F
S214000960B47201F09DFF0F4B2A681A600BB0F0BD01
S21400097000000140700F0020740F0020F40F0020CC
S2140009802C1300208D070000300024010908000009
S2140009909508000000E100E0FFFF01008907000065
S2140009A0C01100202813002003681B4A23F47F434D
S2140009B023F0070393420ED110B54368044613F0A4
S2140009C0010012D15A0717D413F0020F18BF0120E6
S2140009D01B0702D410BD002070470022114640F6C7
S2140009E009201FF0DFF8012010BD1FF0D3F8636860
S2140009F05A074FF00100E7D5002240F29510114645
S214000A001FF0D0F8636813F0020F4FF0010018BF14
S214000A1001201B07DED5E0E7A000010330B50A4D34
S214000A200FCD87B001AC0FC42B68236001A94FF02F
S214000A30FF3005F0F7FD20B901214FF0FF3005F03B
S214000A40F4FD07B030BD00BF6492020000221146DC
S214000A5040F283101FF002B970B5224D224E0FCD22
S214000A6088B002AC0FC495E8030084E803000121B7
S214000A701E4802F07FF801211D4802F07BF8012491
S214000A801C4B0493304602A98DF8164004F058FA21
S214000A90234604220621022003F0E4FE2246002319
S214000AA00721022003F0DEFE23460422082102204E
S214000AB003F0D8FE042223461146002003F0D2FE9F
S214000AC00D4BB3670B2249F23D6372670193019B9E
S214000AD0002B05DD019B013B0193019B002BF9DCFC
S214000AE008B070BD789202000004014000350A008C
S214000AF00052040040420F000B0B000B002310B501
S214000B001A460621022003F0ADFE00231A460721EE
S214000B10022003F0A7FE012300220821022003F092
S214000B20A1FE094C002210460123042103F09AFE80
S214000B30204604F09BF90023A36719466367034821
S214000B40BDE8104002F016B8000401400052040050
S214000B5038B5144B144D10221A601424FF21284671
S214000B6004F038FA013CF9D1104B0F4D10221A60F0
S214000B701E24FF21284604F02DFA013CF9D1052455
S214000B80FF21094804F026FA013CF9D1054B064836
S214000B9010251D60B92104F01DFA044B20461D6087
S214000BA038BD00BF0CA00044000401400CA0004665
S214000BB0FEE700BF08B500F079F8064B064883420A
S214000BC006D2064A52F8041B43F8041B9842F9D88A
S214000BD0FFF7BCFA000800208011002098B9020038
S214000BE00048704700F04902114BD3F8943003F0E8
S214000BF00703023B032B18D8DFE803F00D0214109E
S214000C004FF400400A4BD3F80031C3F304230133FA
S214000C10B0FBF3F07047074B1868F3E7064B18680D
S214000C204008EFE7054B1868ECE7034B1868E9E760
S214000C3000400E40781000207C100020801000201D
S214000C4008B5FFF7D1FF054B054AD3F80831C3F3C3
S214000C5008230133B0FBF3F0106008BD00400E40DF
S214000C6074100020014B1868704700BF78100020F1
S214000C7008B50B4B0B491860D1F8943003F0070306
S214000C80022B00D008BDFFF7AFFFD1F80831064AA7
S214000C90C3F308230133B0FBF3F0106008BD00BFB8
S214000CA07810002000400E4074100020044B054AC7
S214000CB09A60D3F8882042F47002C3F88820704700
S214000CC000ED00E0000000004FF40040704700BF59
S214000CD04FF47A70704700BF014B1868704700BF2A
S214000CE08010002008B50B4B0B491860D1F89430E3
S214000CF003F00703042B00D008BDFFF775FFD1F8FB
S214000D000831064AC3F308230133B0FBF3F0106042
S214000D1008BD00BF8010002000400E407410002068
S214000D202DE9F04F594C85B025789DF844A09DF8E4
S214000D304CE0002D66D0072A14465FD80E9A002A8B
S214000D405CD00F9A002A59D0129AB2F5006F55DC83
S214000D50012806460F464ED0DFF844914FEA0418A5
S214000D6009EB0802127B002A50D0494A002165018F
S214000D70CDE90111039102EB050C002F48D1575124
S214000D809CF802009CF80310CCF8047040F01000A9
S214000D9041F03001CCE902778CF802008CF80310A1
S214000DA0BAF1000F65D00093129B515B013B63F3D1
S214000DB00E11515315440E99EB78A9606EF3830318
S214000DC00F996960012EEB703CD0149B002B56D017
S214000DD009EB08032046149C49F80840159D5D6001
S214000DE00024624669465E739C6003F0B9FD2046A7
S214000DF005B0BDE8F08F109A002AADD1254805B0A1
S214000E00BDE8F08F244805B0BDE8F08F2348F6E72C
S214000E1051519CF802B09CF80300CCF804104BF03B
S214000E20100B40F00300CCE902118CF802B08CF8ED
S214000E300300BAF1000FB6D1C1B241F030018CF810
S214000E400310B0E71323EB6095E80F0005F1100ED2
S214000E508EE80F00EA69109B6B616FF0030161F387
S214000E609F02012FEA61B3D10F9BAB61109B6B60B1
S214000E70AEE7C9B241F003018CF8031093E7AB78F4
S214000E80149A62F30413AB70A2E700BFB0140020FC
S214000E90B0130020018000F0028000F0078000F010
S214000EA03013002038B5114B1B7883B188B1054646
S214000EB002F054FD0E4900220B461C7B103354B141
S214000EC00132082AF9D102F04DFD0A4838BD0A4819
S214000ED038BD0A4838BD13012A60CA180125CC500F
S214000EE0157302F03FFD204638BD00BFB014002049
S214000EF030130020048000F0028000F0018000F033
S214000F0010B5174A82B00023126801928DF804309B
S214000F1002F024FD134B1C78E4B901221A7002F08B
S214000F2021FD114B04220DEB02001C731C7783F885
S214000F302C4083F83C4083F84C4083F85C4083F8B0
S214000F406C4083F87C408DF8072003F0DFFC2046D9
S214000F5002B010BD02F006FD044802B010BD00BF8E
S214000F6090920200B014002030130020038000F09E
S214000F70F0B589B09DF838500F9C9DF84070119ED2
S214000F8003950494129D0193002400920B4602469A
S214000F90CDE905760795029421462046FFF7C0FE68
S214000FA009B0F0BDF0B589B09DF838500F9C9DF89B
S214000FB04070119E03950494129D019300240092A4
S214000FC00B460246CDE90576079502942046012198
S214000FD0FFF7A6FE09B0F0BD08B50A4B1A786AB14D
S214000FE0072809D8084A02EB00131B7B43B10021EF
S214000FF003F082FC002008BD044808BD044808BD74
S214001000044808BDB014002030130020018000F012
S214001010028000F0078000F008B50A4B1A786AB123
S214001020072809D8084A02EB00131B7B43B10121AD
S21400103003F062FC002008BD044808BD044808BD53
S214001040044808BDB014002030130020018000F0D2
S214001050028000F0078000F008B50A4B1A7862B1EB
S214001060072808D8084A02EB00131B7B3BB103F0A5
S214001070C7FC002008BD054808BD054808BD054852
S21400108008BD00BFB014002030130020018000F01F
S214001090028000F0078000F00D4B1B78A3B10728F4
S2140010A010D879B10B4B03EB00131B7B73B10A4BC3
S2140010B001221B6A02FA00F018401ABF00200A70CC
S2140010C008707047054870470548704705487047E0
S2140010D0B01400203013002000200E40018000F0E5
S2140010E0028000F0078000F00D4B1A7892B10728B6
S2140010F00DD861B10B4A02EB00131B7B6BB110B528
S2140011000C4603F093FC00232060184610BD064BE7
S21400111018467047054B18467047054B18467047EB
S214001120B014002030130020018000F0028000F090
S214001130078000F02DE9F8431D4E326EF36E12EA7A
S214001140030834D41B4CDFF870900127002506E016
S2140011500135082D4FEA470704F1100425D018EA98
S214001160070F2846F4D02368B766002BF0D0D4E9E2
S21400117001210131A1609847637B012BE8D109EB7F
S214001180451303F1080218330028E1D1117960F302
S214001190410111711A79013560F34102082D1A7167
S2140011A04FEA470704F11004D9D1BDE8F883FEE7FB
S2140011B000200E4030130020B0130020054B4FF4E3
S2140011C080214FF48062C3F880111960C3F8802133
S2140011D01A60704700E100E038B504460D4602F09C
S2140011E0BDFB034B43F82450BDE8384002F0BABBC1
S2140011F0B41400200E4B70B5D3F82844D3F81C1452
S21400120045F255520C401440C3F824447CB1094EB4
S214001210012594FAA4F0B0FA80F005FA00F256F828
S214001220203024EA020403B19847002CF1D170BDA7
S21400123000A00040B41400200E4B70B5D3F828442C
S214001240D3F81C144AF6AA220C401440C3F82444CF
S2140012507CB1094E012594FAA4F0B0FA80F005FAA4
S21400126000F256F8203024EA020403B19847002C16
S214001270F1D170BD00A00040B414002008B5034BA7
S2140012801B6803B19847012008BD00BFF814002072
S2140012900B4A0C4B70B510600B4C0C4D00221A809C
S2140012A0C4E9005103F008FDC30300D470BD03F089
S2140012B0FDFC6368002BF9D00420BDE87040184799
S2140012C0F8140020F4140020FC1400207D12000006
S2140012D02DE9F8432B4E02F039FB3478074614B953
S2140012E002F086FD3478284DDFF8A0802B684FF09A
S2140012F00009CCB9727822BB13B10320984738B1E5
S214001300002002F0DBFC03246B680BB120469847F4
S214001310AB6803B32046984710F0010F81461DD0F6
S21400132034782B68002CE5D013B10120984730B3F1
S214001330D8F8103023F00403C8F8103030BF01246A
S214001340E2E71BB1022098470028E1D0002002F017
S21400135029FC0224D8E719F0010FE1D1A31E012BC6
S21400136005D9384602F0F6FA2046BDE8F88302F0C2
S2140013706FFD384602F0EEFA2046BDE8F8830446D4
S214001380C6E700BFF4140020FC14002000ED00E0C7
S2140013900238C3B2012B03D8024A135C013313543C
S2140013A0704700BFF41400200238C3B2012B00D9E6
S2140013B07047034A135C002BFAD0013B1354704766
S2140013C0F4140020054B1A782AB95B78002B0CBF62
S2140013D00320022070470120704700BFF41400204D
S2140013E038B504460D4602F0B9FAA3889BB253B14D
S2140013F0638803EB830304EB830408342C6002F059
S214001400B1FA002038BD2B6002F0ACFA004838BDB7
S2140014100B7000F070B504460E4602F09FFAA388E3
S2140014209BB2BBB163886288E58803EB830304EB59
S214001430830301320833336092FBF5F305FB132375
S2140014409BB26380A388013B9BB2A38002F08AFA1A
S214001450002070BD336002F085FA014870BD00BF01
S2140014600B7000F030B504460D4683B0C07DE17EBB
S214001470E5B10123042203F0F5F901230222217FBE
S214001480207E03F0EFF994F83130022B36D0032B90
S2140014901CD1617F607E0023012203F0E3F9002364
S2140014A00422A17FA07E03F0DDF90FE02B462A463A
S2140014B003F0D8F92B462A46217F207E03F0D2F986
S2140014C094F83130022B04D0032B2CD0002003B02C
S2140014D030BD2B462A46617F607E03F0C3F92B465B
S2140014E02A46A17FA07E03F0BDF9627F607E01954B
S2140014F001231146009303F061F9E7E7617F607E00
S2140015000023012203F0AEF9A17FA07E002304226F
S21400151003F0A8F9627F607E01231146CDE900330F
S21400152003F04CF9D2E72B462A46617F607E03F033
S21400153099F92B462A46A17FA07E03F093F9C5E7CA
S21400154090F83230012280F82C202BB1012B03D0EA
S214001550002380F82C30704703680A6830B50D46C3
S21400156087B0044601696D6880680494054C01954F
S2140015700394002501241C3302950094FFF712FD06
S21400158007B030BDF51B000090F83230012280F81D
S2140015902D20ABB90268343230B50D4687B004460C
S2140015A00B686D68C168406804940A4C0195039402
S2140015B00025012402950094FFF7DAFC07B030BD41
S2140015C0012B03D0002380F82D30704702682832A4
S2140015D0E2E700BFD9150000F0B583B0906A01A914
S2140015E01446FFF7FDFE154B98421BD0019B0025C5
S2140015F01D619D6002F0B2F9019AD668074626B1D1
S2140016002946D2E900232046B04701A9A06AFFF781
S21400161001FFA06A83889BB23BB984F82D30384618
S21400162002F0A0F9012003B0F0BD01A9FFF7D8FE33
S21400163020460199FFF7A8FFF1E700BF0B7000F006
S214001640427E054B417F02EB4202D20113440B441B
S2140016509B001868C0B27047E000851010B51D4B9F
S21400166082B003F1100153F8044B627F824203D02C
S2140016708B42F8D102B010BD94F83130022BF9D16C
S2140016802046FFF7DDFF637D2075022BF2D194F82C
S2140016902E3003F0FF02002BECD102A9606801F89F
S2140016A0012DFFF7F9FC237D63B194F82F304BB979
S2140016B00028DFD19DF80730002BDBD06068FFF7ED
S2140016C08BFCD7E7002384F82F306068FFF7A4FC74
S2140016D0D0E700BF0815002090F8323053B90268F2
S2140016E00123D3601369D807FCD5536F43F0010379
S2140016F053677047012B00D0704703685A6C9107F8
S214001700FCD401225A609A68D207FCD55A6D42F082
S21400171001025A65704700BF90F832306BB1012B5A
S21400172000D070470268536C9B07FCD4536D0221AF
S21400173023F0010353655160704703685A6F022116
S21400174022F001025A67D960704700BF10B5044600
S214001750FFF7D6FB201D0021FFF7A4FB30B901469A
S21400176004F10800FFF79EFB00B910BD004810BD4D
S2140017700E7000F003689B6803F00200DA0748BFAB
S21400178040F00100590748BF40F008001A0748BF5C
S21400179040F02000D90648BF40F040009A0648BFF7
S2140017A040F080005B0648BF40F40050704700BF22
S2140017B0F8B5044609200D46164602F0D5F8074649
S2140017C0A26A03E094F82E3023B977BB93889BB2C5
S2140017D0002BF7D194F8323003BB2068076917F066
S2140017E002074DD10423C36003699907FCD5436FF4
S2140017F0012243F00203436784F830203EB12E44B2
S21400180015F8011B03F0F0FBB5422068F8D1036918
S2140018109906FCD5002F37D00020F8BD012B07D045
S214001820012384F830300020F8BDFFF783FCC7E7BB
S2140018302068876817F0020718BF84F830300FD08A
S2140018403EB12E4415F8011B03F010F9B54220688E
S214001850F8D183681A07DDD483681A07F9D5D9E763
S214001860436C9A07FCD40423436083689B07FCD52B
S214001870436D012243F00203436584F83020DFE71E
S214001880012384F83030B9E794F8323063B1012B85
S214001890C2D12268536C9B07FCD4536D082123F0F9
S2140018A0020353655160B7E723685A6F082122F098
S2140018B002025A670020D960F8BD00BF10B590F844
S2140018C02E30012B044607D094F82E30013BDBB2B5
S2140018D084F82E30002010BD90F83130022B03D053
S2140018E06068FFF799FBEFE7FFF7AAFE0028F7D03E
S2140018F0EAE700BFF8B5044617460D4602F02EF894
S214001900A388E2889A422BD9268884460FCD06EB18
S2140019108606B600083604EB060EA051CEF8041074
S214001920CEF80820CEF80C302868CEF810002388B1
S2140019302288E088511C03EB830391FBF0F204EB52
S214001940830300FB121292B208333B602280A38806
S21400195001339BB26046A38002F004F80020F8BD75
S21400196000233B6001F0FEFF0048F8BD0A7000F05F
S214001970002849D02DE9F04182B00D46044601F01A
S214001980EDFF012D074619D0022D3FD1636A9B88D3
S2140019909BB2002B46D0A068FFF75EFB0023606A70
S2140019A084F82C3083889BB2002B61D194F83130B8
S2140019B0032B1CD02046FFF7AFFE18E0A36A9B88D7
S2140019C09BB2002B2ED06068FFF746FB0023A06A70
S2140019D084F82D3083889BB253BB94F832306BB9B1
S2140019E0236818698304F8D5023D012DD3D93846FB
S2140019F001F0B8FF002002B0BDE8F081012BEED167
S214001A002046FFF7B7FEEDE728487047032DEBD1D9
S214001A10A36A9B889BB2002BD5D1636A9B889BB236
S214001A20002BD0D101F09EFF214802B0BDE8F08126
S214001A3001A9FFF7D5FC019960680831FFF754FB50
S214001A401C4B019A9846136104E0FFF7E3FC019BE8
S214001A50DE683EB9A36A18469B889BB201A9002B94
S214001A60F3D1BAE79B68002241462046B047F1E72B
S214001A706946FFF7B5FC0099A0680E4E0831FFF7DF
S214001A8033FB009B1E61636A18469B889BB26946BF
S214001A90002B8BD0FFF7BEFC009BDD68002DF2D03C
S214001AA09B68002231462046A847ECE7027000F00B
S214001AB0087000F0097000F02DE9F0410546406A14
S214001AC0848882B00026A4B20096019617460E4679
S214001AD0984694B90021C8F800103960316095F82E
S214001AE032302BB1012B1ED0002002B0BDE8F081B1
S214001AF02B68186902B0BDE8F0816946FFF770FCF4
S214001B0001A90446A868FFF7EFFA009A002AE1D078
S214001B10002CDFD1D2E9002301995B1A3B60C8F89C
S214001B2000103260DBE72846FFF724FE02B0BDE86F
S214001B30F08100BF98B110B590F82E30044633B946
S214001B4090F83130022B0CD06068FFF745FA94F815
S214001B502E300133DBB284F82E30002010BD03484F
S214001B607047FFF76DFD0028EED0F0E7027000F03A
S214001B7070B590F83150022D82B003461AD0012D70
S214001B8002D0002002B070BD037D044602AE63B3EF
S214001B90132306F8013DFFF7CDFF2A4631462046BF
S214001BA0FFF706FE94F82E30002BEAD02046FFF70B
S214001BB085FEE6E7827E857F0D49447D02EB420284
S214001BC0120101201144A8404CB1012C01D01B7D0C
S214001BD02BB101F1C0610860002002B070BD01F1B8
S214001BE080610860002002B070BD1123D1E700BFFD
S214001BF00CA0004070B582B0506A01A91446FFF7E9
S214001C00EFFB344B984235D094F83220019B002AE3
S214001C1033D12068016C11F4007106D09A602E4909
S214001C2019614FF40072826405E0026CD50541D458
S214001C3000221A619A6001F091FE0199CD6806466D
S214001C4035B1D1E900208B680969C31A2046A84738
S214001C5001A9606AFFF7DEFB606A8588ADB2D5B180
S214001C6001A9FFF7BDFB20460199FFF769FC304646
S214001C7001F078FE012002B070BD012AD8D121689B
S214001C80CA6A12F080021CD0134A1A610020802211
S214001C9098604A63CFE7012323752046FFF768FF65
S214001CA094F8313084F82C50032BE0D02046FFF710
S214001CB033FDDCE7094D99604FF480721D61826444
S214001CC0B9E7C86A4006B3D59A600448186140224E
S214001CD04A63B0E70B7000F00D7000F00C7000F077
S214001CE02DE9F041B84D06460F460FCD88B001AC41
S214001CF00FC495E8070084E80700B6B1002F39D076
S214001D0038220021304627F0B4F8B04AB04913789C
S214001D103D46344673B10023084650F8042B7AB18A
S214001D2094420DD00133042BF7D1AA4E304608B0AA
S214001D30BDE8F081C1E90033C1E90233012010702B
S214001D402A6841F82340A44B297C84F831109A4233
S214001D504FF00001226084F8321010D09F4B9A4258
S214001D6000F082829E4B9A4200F0A4829D4B9A42DB
S214001D7000F021819C4E304608B0BDE8F0819B4BB8
S214001D809B4A23624FF44023C4E90323D5E9062384
S214001D9069686889B5F80CC0626200261680052757
S214001DA056809680AA7B84F82C60A3621E805E8094
S214001DB09E80EB7B0391ADF8140001218D4884F8DA
S214001DC02D6084F82F60ADF812C08DF810208DF8C5
S214001DD016308DF8117000F0CDFE0121864800F017
S214001DE0C9FE0121206A00F0C5FE01A928688DF809
S214001DF0046003F06DF828686A7A836F297AD4F84D
S214001E0000C0DFF8D4E123F4F85323F01F03134394
S214001E1043EA01238367F4454FF00303436700F06A
S214001E2077816E48844500F027826D48844500F02F
S214001E30E9806C4884459DD1002900F0AC82481E9C
S214001E40062821D9A1F10803012B40F28084A1F1D4
S214001E500A03052B40F20B85A1F11003012B40F27B
S214001E60E784A1F11203052B40F2DF84A1F11803E9
S214001E70042B40F2F184A1F11D03012B40F2E9840A
S214001E801F2914BFFF230A23E375002A40F0CD83E1
S214001E9003230129237600F0F384022900F0FA8355
S214001EA0032900F00884042900F01984052900F0AD
S214001EB02984062900F04384072900F04D84082968
S214001EC000F05284092900F04C840A2900F0768438
S214001ED00B2900F070840C2900F07C840D2900F09A
S214001EE076840E2900F004840F2900F0E48310297C
S214001EF000F02584112900F02F84122900F0648454
S214001F00132900F09F84142900F02E84152900F070
S214001F102884162900F09384172900F05284182983
S214001F2000F0C983192900F0DA831A2900F0EA8341
S214001F301B2900F004841C2900F00E841D2900F0E3
S214001F4043841E2900F07E841F2914BFFF2302232A
S214001F50E376002A40F06882092323776B7C637659
S214001F60AB7C6377EB7CA3762B7DA37701212046A1
S214001F70FFF778FA064600287FF4D8AE01F0EEFCAC
S214001F802F7C032F804600F03383022F00F06883F7
S214001F9028684FF0FF338364042102F05FFF2B684C
S214001FA04FF440622046DA60FFF7D0FB0646404614
S214001FB001F0D8FCBAE6114B114A23624FF47023A5
S214001FC0C4E90323E2E600BFA4920200181500202D
S214001FD008150020027000F00000014000040140D7
S214001FE000080140000C0140037000F000420400AD
S214001FF001000C004041050000350A000072040094
S21400200001000F00002900F0D1814B1E032B16D9CA
S2140020104B1F032B40F28283A1F10903042B40F2ED
S214002020AF83A1F10E030E2B40F2E983A1F11D034D
S214002030012B40F2E2831F2914BFFF260A26E6750D
S214002040002A40F0FF820129227600F0158402293A
S21400205000F02C83032900F03083042900F0388335
S214002060052900F05483062900F06483072900F050
S2140020707683082900F08A83092900F085830A29D7
S21400208000F04A830B2900F018830C2900F0208307
S2140020900D2900F07D830E2900F039830F2900F00A
S2140020A04983102900F07283112900F0B4831229A5
S2140020B000F0AF83132900F06783142900F02C8307
S2140020C0152900F0FA82162900F00283172900F07D
S2140020D05F83182900F09B83192900F096831A293C
S2140020E000F0C3831B2900F0BE831C2900F0B983CF
S2140020F01D2900F00C831E2900F01C831F2914BF25
S214002100FF230223E376002A40F00E82062324E70C
S214002110002900F0A280481E042816D9881F04282B
S21400212040F2D082A1F10B00B84240F22B83A1F11D
S2140021301100062840F26783A1F11803062B40F22F
S21400214060831F2914BFFF263E46E675002A00F06E
S214002150C180012A00F00B83931E022B40F23181CE
S214002160531F042B40F2A082A2F10A03052B40F273
S214002170DB82A2F11003062B40F27C83A2F1170348
S214002180072B40F26C831F2A14BFFF2300232376FD
S214002190002900F04582012940F03E82E176012ABE
S2140021A000F09580022A00F00E81032A00F03A82A1
S2140021B0042A00F04D82052A00F07382062A00F0F9
S2140021C07E82072A00F08682082A00F09D82092A6D
S2140021D000F0B2820A2A00F0B4820B2A00F0B48221
S2140021E00C2A00F01E830D2A00F017830E2A00F03A
S2140021F0DA820F2A00F05582102A00F00E83112A88
S21400220000F0D182122A00F04C82132A00F0578286
S214002210142A00F05F82152A00F07682162A00F053
S2140022208B82172A00F0BB82182A1AD0192A4ED0A1
S2140022301A2A00F0C8801B2A00F0F4811C2A00F03D
S21400224007821D2A00F07D821E2A00F07D821F2A4A
S21400225014BFFF220022227780E6E17592BB227629
S214002260E2760122227779E6DD4BDE4A23624FF4DE
S2140022705023C4E9032389E50029EED0481E04282C
S2140022807FF663AF881F042840F21C82A1F10B0082
S214002290052840F27782A1F11100062840F2B382A9
S2140022A0A1F11803062B40F2AC821F2914BFFF26AB
S2140022B005264AE7CC4BCD4A23624FF46023C4E997
S2140022C0032363E5012A7FF447AF2176E1760222F5
S2140022D0227743E60129227600F05C82022900F08C
S2140022E09981032952D0042950D005294ED00629B9
S2140022F000F0EA81072900F0E981082900F0008251
S214002300092900F015820A2900F00A820B2900F03C
S21400231031820C2900F0BA820D2900F0B5820E2910
S21400232000F069820F2900F06482102900F0CC8149
S214002330112900F06082122900F05B82132900F058
S214002340C381142900F0C281152900F0D98116290D
S21400235000F0EE81172900F0E381182900F047828B
S214002360192900F042821A2900F03D821B2900F04C
S21400237038821C2900F033821D2900F02E821E2987
S21400238000F0F8811F2914BFFF210721E176002AFB
S2140023903FF467AF03E7E375002A00F04C81012A9B
S2140023A014D108222376E2760A23D6E5E175002AC0
S2140023B000F04581012A40F093802176E7760723D6
S2140023C0CBE50023E3E603222277C7E5931E042B22
S2140023D040F24481D31F012B40F2CE81A2F10903C3
S2140023E0052B40F2CB81A2F10F03012B40F22F8286
S2140023F0A2F11103052B40F22082A2F11703042B51
S21400240040F21982A2F11C03022B40F21E821F2A00
S21400241014BFFF2303232376002900F01C81012923
S21400242040F063810923E376012ABDD0022A00F03A
S2140024302F81032A00F03D81042A00F05281052AEC
S21400244000F05881062A00F07181072A00F05681B4
S214002450082A00F06781092A3FF458AE0A2AAED04F
S2140024600B2A00F01A810C2A3FF476AD0D2A9BD079
S2140024700E2A00F00D810F2A00F03C81102A00F091
S2140024805581112A00F02F81122A00F03581132A77
S21400249000F03481142A00F04581152A00F0FB81F3
S2140024A0162A00F0F581172A00F0F280182A00F0AC
S2140024B00081192A00F015811A2A00F01B811B2AB8
S2140024C000F034811C2A00F00E811D2A00F01481D1
S2140024D01E2A00F013811F2A14BFFF2308233CE5A1
S2140024E0931E012B40F2DB80131F032B40F2F58076
S2140024F0A2F10803042B40F22D81A2F10D030E2B4E
S21400250040F25781A2F11C03022B40F250811F2A91
S21400251014BFFF2300232376002900F0B68001298C
S21400252040F0F7800623E376012A3FF448AF022AFC
S21400253000F0B380032A3FF40FAD042A00F0D380E6
S214002540052A00F0D980062A00F0D880072A00F075
S214002550E980082A3FF4DAAD092A3FF430AF0A2AA8
S21400256000F09B800B2A3FF4F7AC0C2A3FF41CAF1C
S2140025700D2A00F0B8800E2A00F0BE800F2A00F068
S214002580D180102A00F08781112A00F08181122A5A
S2140025903FF4BCAD132A3FF412AF142A7DD0152A9F
S2140025A03FF4DAAC162A3FF4FFAE172A70D0182A8A
S2140025B07FD0192A00F095801A2A00F09B801B2AEB
S2140025C000F0B4801C2A00F08E801D2A00F0948053
S2140025D01E2A00F093801F2A14BFFF230523BCE4A5
S2140025E00052040001000D000062040001000E000D
S2140025F028682B8CC367436E43F004034366436F1F
S2140026004FF0FF3243F0300343678264052102F047
S21400261025FCC4E4E17624E602297FF462AEB5E642
S214002620E176BFE50422227798E4012A7FF4CEAE55
S21400263003232376F3E608222376E2768CE42276DA
S214002640E77663E5012A7FF44BAF0023237666E73F
S2140026500522227782E40823E376E7E60323DAE618
S2140026608E49607FFEF7B8FDFEF7A8FDA6752675B5
S21400267067752046FFF77CFA2B7C28684FF0FF3200
S214002680032B82647FF488ACC0E70523E3764EE72D
S2140026900B2362E40A23E3765EE408235DE400236A
S2140026A039E70B22227759E4012370E50723E37606
S2140026B02CE50C2351E40B234AE4082322E50C22E4
S2140026C022774BE4012640E50B215FE60C215DE610
S2140026D0092317E50D22227740E408231BE70C2385
S2140026E036E40D2339E4002337E402297FF4D8AB1F
S2140026F00A232DE40E2330E401232EE402232CE4E7
S2140027000D2143E60D2323E40E22227726E4002340
S214002710F8E402297FF49EAC0723F3E408268EE44F
S2140027200F2133E6032318E4022330E50F2314E4D5
S2140027300E212BE60123E5E40F2222770EE40E237A
S21400274006E40622227709E40722227706E4082315
S214002750FFF79ABB0123DEE60F23FFF7F9BB022340
S214002760D0E40323FFF7F4BB0223FFF7F1BB0023FB
S214002770237610E5062109E608234CE601234AE6FF
S21400278001265CE40226E0E40623BBE40323B9E466
S2140027900A23B7E40A46E1762277FFF7DFBB00227A
S2140027A02277FFF7DBBB0A222277FFF7D7BB0A2385
S2140027B0B1E60523AFE60723FFF7CABB0623FFF7FC
S2140027C0C7BB0523FFF7C4BB0023FFF7C1BB092324
S2140027D0FFF7BEBB0823FFF7BBBB0521D6E50421E8
S2140027E0D4E50321D2E50221D0E50121CEE5002182
S2140027F0CCE50A21CAE50921C8E50A261FE43E46BB
S2140028001DE43E46A1E41E469FE40C237AE40B2317
S21400281078E4052376E4042374E409222277FFF79C
S2140028209DBB08222277FFF799BB0223FFF72CBB3C
S2140028300923FFF729BB0523EDE50223EBE5042377
S214002840FFF786BB0123FFF783BB0A23E3E50923D3
S214002850E1E50A23FFF718BB0523FFF715BB0523A1
S21400286095E40F234EE40E234CE40D234AE40123A3
S214002870FFF70ABB03238AE40623E376FFF76DBB64
S2140028800923E376FFF769BB08217FE507217DE58D
S2140028900523FFF762BB0423FFF75FBB5D1600004E
S2140028A070B586B050B329B3541EB4F5006F21D26C
S2140028B0144E0191144605466A46406A029401A9E0
S2140028C00394CDE90436FFF715F8044698B995F851
S2140028D02C3083B92846FEF7FFFE00992846FEF7FF
S2140028E02FFE95F83130032B05D02C752846FFF7C0
S2140028F03FF900E0044C204606B070BD034C20466D
S21400290006B070BD017000F0037000F0027000F0B9
S21400291070B586B028B301B3541EB4F5006F1CD250
S214002920164E0191144605466A46806A029401A92D
S2140029300394CDE90436FEF7DDFF044670B995F83A
S2140029402D305BB901F00AF8AB6A9B889BB206464D
S2140029505BB9304601F006F800E0094C204606B0A8
S21400296070BD084C204606B070BD00992846FEF79C
S2140029700BFE012385F83030EBE700BF017000F056
S214002980037000F0027000F008B500F00F03013B82
S214002990072B7CD8DFE803F011545F7B6A757B0455
S2140029A04B4BD3F85C3103F03003202B71D0302B27
S2140029B02ED0102B2CD0012309E0454BD3F89430B1
S2140029C003F00703023B052B22D8424AD35C424A57
S2140029D0904273D0414A90426AD0414A904261D0B8
S2140029E0013B032B1DD8DFE803F0270F026FFEF72D
S2140029F0FBF8374BD3F80031C3F300635A1C0123AE
S214002A009340B0FBF3F008BDBDE80840FEF764B99C
S214002A10314B984252D0314B984249D0304B984275
S214002A2040D0002008BD2C4B984247D02B4B9842F4
S214002A303ED02B4B984235D0BDE80840FEF744B94F
S214002A40234BD3F8803003F00703013B032BEAD86F
S214002A50244AD35CBBE71E4BD3F8843003F007034D
S214002A60013B032BDFD8204AD35CB0E7184BD3F8E2
S214002A70883003F00703013B032BD4D81B4AD35CF2
S214002A80A5E7134B1B6FDB07C2D509239FE700237F
S214002A909DE7114B984211D0104B984208D0104B2E
S214002AA0984211D10A4BD3F8803003F0070397E71A
S214002AB0074BD3F8883003F0070391E7044BD3F8AD
S214002AC0843003F007038BE7BDE80840FEF700B943
S214002AD000400E40C09202000300200005002400C3
S214002AE002001E00C8920200CC920200C8920200A9
S214002AF01A4B41F6713210B4C9B21C6C1A645B688A
S214002B0011B302290BD1164B984217D9154B984290
S214002B1022D903F5B70303F5586398420DD94FF051
S214002B2040720E494B6823F0407313434B600CB160
S214002B3000230B645DF8044B704704210A4B03EB3B
S214002B40C1014B791A06ECE7084B9842F6D9084BB8
S214002B509842E4D80121F1E70321EFE700000E4098
S214002B60C0CF6A00809FD500D092020040787D01D9
S214002B70005A6202C0F30323013B30B4092B0CD881
S214002B80DFE803F00D110B0B152D190B2705164C5E
S214002B90C0F3043020448000016030BC7047C0F3AE
S214002BA00430124CF6E7C0F30430114CF2E7C0F3E1
S214002BB00430104CEEE7104CC0F3043010250F4BD9
S214002BC0D3F84421D207E5D4D3F840212A42FBD1DA
S214002BD0E0E7C0F304300A4C4FF48035EFE7C0F36B
S214002BE00430084C0125EAE7800AF2100000F210D3
S214002BF00006F2108005F2104007F21000400E406A
S214002C008007F2100007F210C0F30313013B092BF4
S214002C1053D8DFE803F00E141A2452522A303F0528
S214002C20304B984249D1304BD3F8300100F00300C6
S214002C3070472D4BD3F80001C0F3042070472A4B91
S214002C40D3F81401C0F304207047274BD3F80001D3
S214002C50C0F30060431C0120984001387047224BA7
S214002C60D3F80C01C0F3082070471F4BD3F80801B7
S214002C70C0F3082070471D4B984229D01C4B984241
S214002C801BD1194BD3F820310120C3F30113984010
S214002C9001387047174B984211D003F5B01303F56F
S214002CA08053984209D1104BD3F82801C0F3012075
S214002CB0031D0120984001387047002070470A4BDA
S214002CC0D3F828310120C3F3011398400138704728
S214002CD0054BD3F82031012003F00F03984001384C
S214002CE0704700BFA009140000400E408006160082
S214002CF080162E0090171A0000F47813B3F5B01F54
S214002D0010B500F097801AD9B3F5101F00F08D802B
S214002D103BD9B3F5401F2AD070D9B3F5481F00F051
S214002D20AC80B3F5781F39D10446FDF75DFF014648
S214002D302046FFF769FF0130B1FBF0F010BDB3F598
S214002D40202F42D039D9B3F5602F42D048D9B3F5F9
S214002D50801F42D0B3F5A01F20D15448FFF714FEC1
S214002D60534BD3F8303103F00303D84010BD51481D
S214002D70FFF70AFE4E4BD3F82831C3F301231A1D82
S214002D8001239340B0FBF3F010BDB3F5F01F47D01E
S214002D90B3F5001F3FD0B3F5D01F01D0002010BD03
S214002DA04448FFF7F1FD424BD3F828210123C2F334
S214002DB001129340B0FBF3F010BDB3F5003F51D0C5
S214002DC0B3F5802F43D0002BE8D1BDE81040FDF7C7
S214002DD00BBF374B1B6FDB07F7D4374B186810BD9C
S214002DE0B3F5402FDAD1FDF7FFFE314BD3F814319F
S214002DF0C3F304230133B0FBF3F010BDB3F5381F63
S214002E00CCD12E48FFF7C0FD294BD3F82031C3F3B1
S214002E100113D84010BD2748BDE81040FFF7B4BDE9
S214002E202648BDE81040FFF7AFBD2048BDE810407B
S214002E30FFF7AABD2148FFF7A7FD1D4BD3F82021B9
S214002E40012302F00F029340B0FBF3F010BDFDF734
S214002E50CBFE174BD3F80C31C3F308230133B0FB7A
S214002E60F3F010BDFDF7C0FE114BD3F80831C3F3E5
S214002E7008230133B0FBF3F010BD0D4CD4F85C31E1
S214002E8003F03003202B04D0302B06D0102B85D136
S214002E90A3E7BDE81040FDF7E5BEFDF7A5FED4F8B4
S214002EA00031C3F3042303FB000010BD050024001B
S214002EB000400E40030020008410002002001E0088
S214002EC000F00F000138072847D8DFE800F0121D91
S214002ED03346283E4604264BD3F85C3103F03003D5
S214002EE0202B40D0302B40D0102B0CBF07200120C9
S214002EF070471F4BD3F8943003F00703023B052BB3
S214002F002FD81C4AD05C7047194BD3F8803003F09A
S214002F100703013B032B22D8174AD05C7047144B9B
S214002F20D3F8883003F00703013B032B17D8134A66
S214002F30D05C70470E4BD3F8843003F00703013B98
S214002F40032B0CD80E4AD05C7047094B1B6F13F04E
S214002F50010F14BF0920072070470020704701208A
S214002F60704705207047042070470820704700BF50
S214002F7000400E40C0920200C8920200C8920200B2
S214002F80CC92020038B5002A63D0824B824A12687F
S214002F905C6A002924F0405414BF4FF0805300238D
S214002FA044F000541C43FDF75DFE0121054600F089
S214002FB0BFFF7A4B1B68590640F1CD80764A784BA6
S214002FC05268186C41F671311964C2F301425B68AD
S214002FD0002A00F0B280022A00F0C2804FF0407350
S214002FE06F494A6822F040721A434A6008B10023CB
S214002FF00B64684B6B4AD3F80031C3F304230133E8
S214003000B5FBF3F3934240F28B80674A012093426C
S2140030108CBF4FF000734FF08073644A5D491060B8
S214003020D1F8002122F080721343C1F80031594BC9
S2140030305A6A12F0300F1AD1574AD26B5A6AD20720
S21400304079D55A6A22F0300242F010025A62012004
S2140030500EE0504B5C6A24F04054002963D1FDF723
S21400306001FE012100F064FF4A4B5C6238BD00207F
S214003070484B4F4A042119661368002BFCD04D4A72
S2140030801368002BFCD00028EED0424B5A6AD507B6
S21400309075D54FF480612022C3F8A8105A665A6A84
S2140030A0C2F30112002A15BF00204FF480004FF42F
S2140030B000014FF44001D3F8902031EA0202FAD121
S2140030C008B1D3F8A030334AD2F89C500823C5F391
S2140030D00A051366D2F890305907FBD42D4BD3F867
S2140030E090201207FBD4D3F89020586A324A314910
S2140030F020F0300040F010005862186B0240E809DB
S21400310003300F2828BF0F202A4342EA007204200B
S2140031101A6318660B68002BFCD01E4B5C6238BD29
S2140031200023184679E7FDF79DFD012144F0805401
S21400313000F0FEFE7BE701209AE7204B9D4204D973
S2140031401F4B9D423FF64AAF01221E4B03EBC202C5
S2140031505279130644E71C4A1368002BFCD12DE76E
S2140031601A4B9D42F1D91A4B9D4211D903F5B7036C
S21400317003F558639D423FF631AF0422E5E75A6AED
S214003180D3F8902002F44002B2F5400FF8D198E749
S2140031900322DAE700400E4000300E403C300E407E
S2140031A000000E400048E8010090D0034000C843ED
S2140031B00812C8430C12C84300F8FF0F40787D0180
S2140031C0005A6202D0920200C800C643C0CF6A000E
S2140031D0809FD5001F4A082330B4D2F89410136697
S2140031E0D2F890305907FBD41A4BD3F89020120728
S2140031F0FBD45A6A057C1849047822F00102022D95
S21400320008BF42F001025A620C608288417AC58883
S21400321041EAC221D9621A6B047A817A02F07F628F
S2140032200A43E11C42EAC5220F2942EAC41228BF1B
S2140032300F2142EA01721A63827B457BC47B017BC5
S214003240120142EA0532224342EA01425A6330BC86
S214003250704700BF00400E40A004C84330B4114A77
S214003260114BD2F89410946B4578916B23400478F8
S21400327023438478C07843EAC52343EA046343EAD9
S214003280002399420CD04FF400711166D2F89010CA
S214003290C905FBD40349D1F890209205FBD48B6373
S2140032A030BC704700400E4080E4FFF8F0B40428BD
S2140032B012D8DFE800F028132F454A000021554BAE
S2140032C01C662B68002BFCD032B13B68002BFCD070
S2140032D0022801D1002946D1F0BC70474E4F4F4D11
S2140032E0802640240029E9D14A490E66D1F890305C
S2140032F02342FBD1002AEFD0464AD2F89030334220
S214003300FBD1F0BC7047464F464D4FF400764FF465
S2140033108074E7E700296ED03E4B5C6A14F0300FED
S21400332018D1414CE46B5C6AE60718D55C6A3F4FDF
S2140033303F4D24F0300444F010045C620424BEE7E1
S2140033403C4F3D4D02260124CCE73C4F3C4D202609
S2140033501024C7E7354F364D04240021AFE7334F1E
S214003360334D0424ABE72B4B5A6AD50746D54FF4AA
S21400337080612022C3F8A8105A665A6AC2F3011266
S214003380002A15BF00204FF480004FF400014FF4D0
S2140033904001D3F8902031EA0202FAD108B1D3F8FE
S2140033A0A0301C4AD2F89C000821C0F30A0011661F
S2140033B0D2F890305907FBD4164AD2F890301B0743
S2140033C0FBD4D2F89030516A1E4B21F0300141F008
S2140033D010015162156BC10903312B400F2943EAD6
S2140033E0000328BF0F2143EA0173136314663B688A
S2140033F0002BFCD070E70424082675E75A6A1A46A4
S214003400D2F8903003F44003B3F5400FF8D1D2F869
S214003410A030C6E700400E401C12C8431812C8432E
S2140034202412C8432012C84300300E400C12C84372
S2140034300812C8430412C8430012C8431412C843F3
S2140034401012C84300F8FF0F1128F8B50C460DD02F
S21400345000F00F000138072807D8DFE800F00C64FA
S21400346066063F5B062904232B60F8BD042900F09E
S2140034709D8005295BD00025023C0A2CF5D801A3C7
S21400348053F824F023370000153700000D360000EF
S214003490333700006B3400006B3400006B340000E0
S2140034A06B3400006B3400005337000061370000B7
S2140034B04C1E072CD9D801A353F824F00936000077
S2140034C06B3400006B340000FB3500006B340000EA
S2140034D06B340000E1350000CD350000AE4D013CF8
S2140034E0092CC2D801A353F824F000BFA935000068
S2140034F08D350000733500006B3400006B3400001F
S214003500433500006B3400006B3400006B34000061
S21400351067340000072900F028810929A5D19F4BB0
S21400352001221A67F8BD9E4DD9E79E4DD7E79E4A01
S2140035309E4B15689D429ED90021284600F0F8FC57
S2140035409AE7FDF751FB9A4B984236D800231C4663
S2140035509849924A0C60D2F8000101F5AE51083144
S21400356020F0807018430124C2F8000103230C6089
S2140035707AE78A4B904A402119661368002BFCD0E4
S2140035808E4A1368002BFCD001236DE7834B8C4AD0
S2140035904FF4807119661368002BFCD0894A1368B3
S2140035A0002BFCD002235FE700235DE7FDF75AFB04
S2140035B0054600283FF45FAFBEE7834B01249842E0
S2140035C08CBF4FF000734FF08073C1E73021734A11
S2140035D0D2F85C3123F030030B43C2F85C31F8BDFF
S2140035E06E4B7A4A102119661368002BFCD0784A75
S2140035F01368002BFCD01021E9E7012211460220B7
S214003600FFF754FE2021E2E70021E0E7694A634B1A
S21400361001241460D3F8002142F08072C3F8002120
S2140036205A6A12F0300F00F04D810220694A6A494A
S214003630064604270024594B1F660B68002BFCD057
S2140036401368002BFCD0022800F0EA80634C41F699
S2140036507133276C2364FDF7C3FA614B62689842A6
S21400366040F241815F4B984240F244814FF04072F5
S2140036705A494B6823F0407313434B600FB1002345
S2140036800B6425B1584B1B685A0640F11681434B14
S2140036905E67FDF7D5FA0446FDF7A6FA444B984256
S2140036A060D9494B012698428CBF4FF000734FF00B
S2140036B080734049394A0E60D2F800014A4920F02A
S2140036C080701843C2F800010B685B065ED5474B56
S2140036D0424A5B68106C41F671311164C3F30143D2
S2140036E05268002B45D0022B00F08A804FF04072C3
S2140036F03A494B6823F0407313434B6008B10023EC
S2140037000B64002D7FF4B1AE28460121BDE8F840D9
S21400371000F00EBC294A2849012003264027002431
S21400372089E700200446274A254904264FF4807777
S21400373081E7204B19482E4A2E4901261E60D0F8F4
S214003740003143F08073C0F8003137460320002470
S21400375071E7274A274903200526012700246AE740
S214003760072673E700231E46A3E70C4B00221A67C2
S214003770F8BD1B4A944203D91A4B9C42B6D8012383
S2140037801D4A02EBC3035B791A06B1E71B4A1368AE
S214003790002BFCD19BE700BF88400E4000400E4047
S2140037A080400E4084400E407C100020002D3101E9
S2140037B00048E8014000C8431812C8431C12C8431A
S2140037C02012C8432412C8430090D0031012C843E6
S2140037D01412C8430C12C8430812C84300000E4017
S2140037E040787D01005A62023C300E4000300E40A8
S2140037F00412C8430012C843D0920200C800C64351
S214003800474A9442BCD9474B9C4240F2878003F516
S214003810B70303F558639C423FF668AF0423AFE74F
S214003820002C3FF413AF404B596AC9076AD54FF4D2
S21400383080602021C3F8A8005966596AC1F30111B7
S214003840002915BF00244FF480044FF400004FF405
S2140038504000D3F8901030EA0101FAD10CB1D3F849
S214003860A0303149D1F89C400823C4F30A040B6603
S214003870D1F890305807FBD42B4BD3F8901009079B
S214003880FBD4D3F89010586A284920F0300040F056
S21400389010005862D3F830C0E00903300CEA01018A
S2140038A00F2841EA040128BF0F2041EA007119637E
S2140038B01F661368002BFCD0C8E61D4A1368002B51
S2140038C0FCD1E4E61B4AD26B5A6AD00714D55E6A6E
S2140038D0194A1A4926F0300646F0100602205E62A3
S2140038E004270646A7E60022154B03EBC2035B79C6
S2140038F01A06BDE60122F7E702200F4A0F490646E0
S214003900042798E6596A1946D1F8903003F4400324
S214003910B3F5400FF8D1D1F8A030A2E703232FE784
S214003920C0CF6A00809FD50000400E4000F8FF0F11
S214003930C800C64300300E400C12C8430812C843E5
S214003940D092020072B6704762B67047EFF31080EE
S21400395072B6704700B962B6704700BFEFF31080CA
S21400396072B67047FFF7F6BFEFF31083DA0732D46C
S214003970214A4309C1B252F8233010B401F01F04A3
S214003980E340DB0723D5002827DB104490F800032C
S2140039904209EFF3118313B1B2EB531F17D2174945
S2140039A04868C0F3080098B11038C0B243B2002B84
S2140039B01ADB03F1604303F5614393F80003400903
S2140039C0824234BF002001205DF8044B704701207E
S2140039D05DF8044B704701207047094B01F00F015A
S2140039E00B44187E4209D4E700F00F03043B0B4457
S2140039F0187E4009E4E700BF00E100E000ED00E0CB
S214003A00FCEC00E0024B9B6803EB8000016470470F
S214003A1000ED00E0F0B4049F9DF8145053B100246C
S214003A2065B1A14213D950F8246042F824600134ED
S214003A30A342F5D1074BF0BC9A607047A14252F8FA
S214003A40246002D9002EF2D1EDE7002EEFD142F825
S214003A502470ECE700ED00E00E29436816D801223A
S214003A6010B48A4047F2E004224223F01F0306D037
S214003A7041F01001194341605DF8044B704740F671
S214003A801F742242F6D15DF8044B7047704700BFA2
S214003A9070B4056A046A036A066ACE60102AC1E931
S214003AA000548B6007D1046A026A036A006AC86120
S214003AB0C1E904428B6170BC704700BF2E4B1B6887
S214003AC05B0670B507D42D4B2D491A781023C2F12A
S214003AD0020293400B612B4B2B4DD3F880412649B5
S214003AE045F60E02C3F88021286840F255120240BF
S214003AF01A660B685E0604F0010426D5204B1B6888
S214003B00D80617D51F4AD2F84031D901FBD41F4E2C
S214003B101F4B31781B68136105291BD01120FFF756
S214003B2093FC2B68DB070CD51CB1164B0022C3F8A0
S214003B30802170BD154E31780529EFD12B68DB0743
S214003B40F2D4104B02221A66EEE7124A1368002BD4
S214003B50FCD1D3E7084B104A1B6810685A0606D5F6
S214003B60074B5968C1F30141FEF7C2FFE3E7094A74
S214003B701368002BFCD1F3E73C300E402D150020D7
S214003B8000300E4000400E401C1500202615002078
S214003B9028150020C800C6437C100020704700BFD0
S214003BA0704700BF10B5044600283CD1374B1A6852
S214003BB0500611D41B6859065DD5354B19685A68EE
S214003BC0C1F30121C2F3014291421A688CBF42F050
S214003BD0100222F010021A602E4A136943F0040302
S214003BE01361FFF7DBFF2A4B1B68DA063CD430BFB5
S214003BF0FFF7D6FF002C2FD1254B1B68DB0608D419
S214003C00254A136823F000431360BDE81040FDF713
S214003C1017B8224B1B69C3F30443082BF0D1204B83
S214003C20204A1A60ECE71D4A1F4BD2F890201A6013
S214003C301120FFF745F9154B1C4A1B6810705B06F0
S214003C401ED5134B1A485B6814491A4AC3F301433E
S214003C5003700B691360A9E7FFF730FF0E4A13687D
S214003C6023F00043136010BDFFF770FE25F0F0F957
S214003C70FFF770FEBCE7104A1368002BFCD19CE7E8
S214003C800D4A1368002BFCD1DBE700BF3C300E402A
S214003C9000300E4000ED00E04C310E4000400E407B
S214003CA07C100020C0EA21011C15002026150020EB
S214003CB02D15002028150020C800C64310B5044660
S214003CC000284BD13E4B1A68520611D41B68580682
S214003CD06CD53C4B19685A68C1F30121C2F3014206
S214003CE091421A688CBF42F0100222F010021A604D
S214003CF0354BD3F880214FF4207145F60E00C3F8FB
S214003D0080011966D10744BF0022C3F880212F4ADC
S214003D10136943F004031361FFF740FF294B1B6848
S214003D20DA063CD430BFFFF73BFF002C2FD1254BE3
S214003D301B68DB0608D4264A136823F0004313608A
S214003D40BDE81040FCF77CBF1F4B1B69C3F3044360
S214003D50082BF0D11F4B204A1A60ECE71A4A1F4B7B
S214003D60D2F890201A601120FFF7AAF8144B1C4ACC
S214003D701B68107059061ED5124B1A485B6812490C
S214003D80194AC3F3014303700B6913609AE7FFF700
S214003D9095FE0F4A136823F00043136010BDFFF72B
S214003DA0D5FD25F055F9FFF7D5FDBCE70F4A13689A
S214003DB0002BFCD18DE70D4A1368002BFCD1DBE706
S214003DC03C300E4000300E4000400E4000ED00E05B
S214003DD04C310E407C100020C0EA21011C1500204A
S214003DE0261500202D15002028150020C800C643E3
S214003DF00F4A08B50F4BD2F890201A601120FFF733
S214003E005FF80D4B0D4A1B6810705B060AD50C4B0D
S214003E100C485B6806490C4AC3F3014303700B6900
S214003E20136008BD094A1368002BFCD1EFE700BFFA
S214003E3000400E401C1500203C300E402615002089
S214003E4000300E402D15002028150020C800C6435F
S214003E502E4B1B685B0670B507D42D4B2D491A7880
S214003E601023C2F1020293400B612B4B2B4DD3F86B
S214003E708041264945F60E02C3F88021286840F2A4
S214003E80551202401A660B685E0604F0010426D539
S214003E90204B1B68D80617D51F4AD2F84031D901E7
S214003EA0FBD41F4E1F4B31781B68136105291BD0AE
S214003EB01120FFF7C9FA2B68DB070CD51CB1164B8F
S214003EC00022C3F8802170BD154E31780529EFD148
S214003ED02B68DB07F2D4104B02221A66EEE7124A72
S214003EE01368002BFCD1D3E7084B104A1B681068F8
S214003EF05A0606D5074B5968C1F30141FEF7F8FD8F
S214003F00E3E7094A1368002BFCD1F3E73C300E4088
S214003F102D15002000300E4000400E401C150020DD
S214003F202615002028150020C800C6437C10002057
S214003F3038B5354B1B685C0632D40D46002830D0A9
S214003F40324B1B7813B1324B98421CD92E4B1A6851
S214003F50510625D41B685A0631D52E4C636813F4D7
S214003F60403F1DD02C4BD3F80031FCF73DFE4023DC
S214003F7023611DB1244B1B685B063AD50021BDE8C2
S214003F803840FEF7B5BD204B1A68520608D41B68A9
S214003F905C0633D51F4C6368C3F30143022B13D171
S214003FA038BD1D4BD3F80041FCF71EFE174B1B789F
S214003FB0C4F3042404FB0000002BC4D1C6E7174A50
S214003FC01368002BFCD1C8E7134BD3F80031FCF77D
S214003FD00BFE0221FEF78CFD10232361002DDFD09F
S214003FE0094B1B685806DBD40C4A1368002BFCD11F
S214003FF038BD0A4A1368002BFCD1BFE7074A13688E
S214004000002BFCD1C6E700BF3C300E402C1500202C
S214004010002D310100300E4000400E40C800C6435F
S21400402070B5304C304D037823702B685B0600D596
S21400403070BD2E4BD3F80061FCF7D6FD237833B164
S214004040C6F304262A4B06FB000098421BD9264BD3
S2140040501A685106ECD41B685A0633D5254C63689B
S21400406013F4403FE4D0214BD3F80031FCF7BCFDFD
S21400407040221D4B22611B685B0628D50021BDE847
S2140040807040FEF735BD2B685E06D1D42B685C0603
S21400409022D5184C6368C3F30143022BC8D0134BD8
S2140040A0D3F80031FCF7A0FD0221FEF721FD102217
S2140040B00D4B22611B685806BAD40F4A1368002BB2
S2140040C0FCD170BD0C4A1368002BFCD1C6E70A4A27
S2140040D01368002BFCD1D1E7074A1368002BFCD1EC
S2140040E0D7E700BF2C1500203C300E4000400E40A5
S2140040F0002D310100300E40C800C6430649427804
S2140041000B6823F4407343EA0223022A0B6004BFC1
S214004110024B5B6A704700BF00300E4000400E4006
S214004120244A4AF6E85310B4546B5363936FDB0784
S214004130FCD4136C13F0030322D01F4A01218342E0
S21400414011601AD0032B02D1431E012B1FD9194A26
S214004150936FDB07FCD4136C164923F00303034369
S21400416013648B6F13F00103FBD10030124A18BFA3
S2140041700120012C106000D14B635DF8044B7047A2
S2140041800028E1D10C4B5DF8044B18607047094AD3
S2140041904FF40023D362936FD907FCD4136C054900
S2140041A023F0030343F0010313644B6A1A03FCD5A0
S2140041B0CDE700BF00300E40B40AC6433A4B1A6F34
S2140041C0D96CC90730B402F007020BD5012A57D9BB
S2140041D0132852D9143813288CBF4FF47F424FF45B
S2140041E0EE4207E0D96CCD073BD4012A51D9DB6CEF
S2140041F06FF0FF022C482D4DC36C2D4C23F47F43EB
S2140042001343C364C16C2B88C26CC1F30321013114
S214004210283301EB810503EB5303B3FBF5F3013BB6
S214004220072B22F0EE6228BF072342F4801242EAF0
S2140042300363B4F90020C364002A10DB036D4C0846
S214004240283204EB410102EB520223F07004B2FB69
S214004250F1F3072B28BF072344EA0313036530BC9A
S2140042607047DB6CDC0711D5012A0FD827288CBFD6
S2140042704FF47F424FF4EE42BCE74FF44C52B9E79E
S214004280DA6CD10705D5DB6CDB07EFD46FF0FF02E5
S214004290B0E70928F1D90A3809288CBF4FF47F42C5
S2140042A04FF4EE42A6E700BF00300E402215002075
S2140042B024150020C64B02229A639B6B03F00F0363
S2140042C0934201D0002070472DE9F04FC2888688BF
S2140042D0B0F90C704A2A83B07ED9B2F5FA7FC0F0E6
S2140042E09A8040F6C3139A428CBF4FF040554FF069
S2140042F00055B749B74ACB6C23F0405323F001036F
S214004300002FA8BF43F001032B43CB64D1F8EC3059
S21400431043F44073C1F8EC30CB6E0446AE4843F02D
S21400432080730680CB661368002B5BD113680B6F17
S21400433023F0070330460B67FFF740FFA74BA8495B
S2140043402589B4F90C20A0881A800D80FFF736FF67
S214004350A37B002B51D0012B02D19D4BA14A9A651D
S2140043606088A0F5E163B3F5966F37D89E4A984B00
S214004370D2F86811DF6CB0F5E16FC7F301774FEA4A
S21400438007223ED04FEA11694FF4966EC1F30741FB
S2140043904FF4E1634FF0010848EA020240F20115CB
S2140043A0AA42A0EB030300F06581B2F5817F35D306
S2140043B040F20125AA4200F0558140F21B81B2F579
S2140043C0407F00F0F68040F20135AA4240F03A8184
S2140043D0854AD2F878612DE000258AE7002003B0F0
S2140043E0BDE8F08F13680B6F23F0070343F0040358
S2140043F030460B67FFF7E2FEA0E7754B7B4A9A65EF
S214004400AEE7C1F307294FF4167EC9B24FF49663A0
S2140044104FF00008C0E74FF080556AE7012A00F029
S2140044201981C0F0BE80B2F5807F40F00B816E4AE5
S214004430D2F86C61320E0192C6F30746921B03FB5C
S21400444002F2B2FBFEF232440092614AD2F8EC204D
S214004450C2F3012C48EA0C2240F20115AA4200F0F1
S214004460ED80B2F5817FC0F0A88040F20125AA4217
S21400447000F0EC8040F2C980B2F5407F00F0D680B4
S21400448040F20135AA4240F0D580574AD2F878511A
S2140044904FEA156AC5F30745AAEB050203FB02F2CD
S2140044A0B2FBFEF22A44A9EB010B03FB0BF3B3FBB2
S2140044B0FEF31944494591D892458FD395428DD83D
S2140044C0019B9E46009B9E4588D39E4286D8404BC5
S2140044D0DB6D23F4FE4323F0020343EA0121B0F52B
S2140044E0E16F3B48404B18BF41F00201C165022F07
S2140044F0D3F8803100F0CA80032F00F0CA80012F65
S21400450014BFDBB2C3F307231B0313F4702F7FF42F
S21400451065AF2F48344DC16E21F470410B43C3661E
S214004520BCF1020FD5F8803100F0B580BCF1030F66
S21400453000F0B780BCF1010F00F0B080DBB21D03C5
S21400454015F4702F7FF44AAF21496078D1F8EC302B
S21400455023F470432B43C1F8EC30009D4B6E95421C
S21400456038BF154623F4FF73E72D23F001032A46D0
S21400457043EA080828BFE72248EA42024A66CB6BAD
S21400458043F48063CB63FFF7CBFDA37A184AA3F10D
S2140045902003B3FA83F35B090120136003B0BDE880
S2140045A0F08F114AD2F86C61C6F307220192F6B278
S2140045B044E70D4AD2F870613CE7012A62D05DD329
S2140045C0B2F5807F36D1084AD2F86C5160E700BF5A
S2140045D000300E408009C643201500202415002018
S2140045E022150020372110B7B081E00F7740205702
S2140045F09407C643B2F5007F24D12B4AD2F87061E7
S214004600C6F307220192F6B218E7B2F5007F11D181
S214004610254AD2F87051C5F3072AEDB2AAEB050277
S21400462003FB02F2B2FBFEF22A443CE71E4AD2F833
S21400463070512DE700229246154634E71A4AD2F802
S214004640745125E70026CDE90066FEE6164AD2F844
S2140046507851E0E7144AD2F87461C6F30722019253
S214004660F6B2EBE6104AD2F87861C6F3072201925A
S214004670F6B2E3E60C4AD2F87461DBE60A4AD2F8F0
S2140046806C51C8E7084AD2F87451C4E7C3F307432D
S2140046903AE71B0E38E7C3F3074350E7C3F3072395
S2140046A04DE71B0E4BE700BFB081E00F3E4B3F4A85
S2140046B03F4912681A6F098822F00702104330B487
S2140046C018671A6FD86CC00702F007020BD5012ACC
S2140046D057D9132952D9143913298CBF4FF47F4266
S2140046E04FF4EE4207E0D86CC5073BD4012A51D9F7
S2140046F0DB6C6FF0FF022C482E4DC36C2E4C23F45F
S2140047007F431343C364C16C2B88C26CC1F303217F
S2140047100131283301EB810503EB5303B3FBF5F3BB
S214004720013B072B22F0EE6228BF072342F48012DB
S21400473042EA0363B4F90020C364002A10DB036D69
S2140047404C08283204EB410102EB520223F07004BD
S214004750B2FBF1F3072B28BF072344EA03130365D4
S21400476030BC7047DB6CDC0711D5012A0FD827292F
S2140047708CBF4FF47F424FF4EE42BCE74FF44C52EE
S214004780B9E7DA6CD00705D5DB6CDB07EFD46FF042
S214004790FF02B0E70929F1D90A3909298CBF4FF47D
S2140047A07F424FF4EE42A6E700300E408009C64333
S2140047B02015002022150020241500202DE9F043A6
S2140047C0072A01F003019DF81C609DF8205027D8A9
S2140047D0DFF87090DFF87080DFF870E0DFF870C008
S2140047E094000F27A040A740C9F80070C8F8000042
S2140047F00320A14000FA04F4CEF80040CCF80010E4
S2140048000E490F4C11448900012000FA02F20B6099
S214004810C1F88060C4F82424C1F80053BDE8F083D2
S214004820A2F10804A4000F27DFF82890DFF82880FC
S214004830DFF828E0DFF828C0D4E700BF8020851026
S21400484000A0004000A4004400A4004608A40044C1
S21400485008A4004604A4004404A400460CA4004493
S2140048600CA40046F0B444004AB12718214D3F017D
S21400487001263D448E40A3B305F1C0652E60251881
S2140048802D0105F18045072905F5204519D88F002B
S2140048906E684FF00F0C0CFA07FC26EA0C0602FABC
S2140048A007F73E436E6052B90444124A24010120C1
S2140048B0224400FA01F1C3B902F180621160F0BC33
S2140048C0704701F18046083EAF68B6004FF00F0C07
S2140048D00CFA06FC27EA0C0702FA06F63E43AE6020
S2140048E0E1E705F180652E60C9E702F1C062F0BC21
S2140048F0116070470CA00040034B03449B0081F0FE
S21400490001011960704700BFA001F11038B50446D8
S21400491001214FF4AA40FEF72DF9B4F801302078B3
S2140049200D4A0E495BBA9BB243EA0063002013604F
S2140049304FF0004510624FF0FF33D06250634FF4E3
S2140049400070D5669366C1F88001E3785B01DBB240
S21400495081F80933086038BD00200E4000E100E011
S214004960F8B5CB7A8E7A0D7B234F1B050C4643EAAF
S214004970064300EB400607EB061643EA4553C0B273
S2140049800125497B22F0030285402068C6F8800096
S214004990C6F88810C6F88430C6F89820BD66FEF7BC
S2140049A0DDFFFB6E227A2B43FB6612B17B6B2B433B
S2140049B07B63637A1BB1104AD36A2B43D3620E4BD8
S2140049C022791B6822B1D243120262F47F4213405E
S2140049D062790AB143EA0223A2790AB123EA020302
S2140049E0E27902B11343044A044913600D60D563AB
S2140049F0BDE8F840FEF7B6BF00200E4028200E4463
S214004A0010B5C0B201248440FEF7A8FF054A064947
S214004A10D36E23EA0403D3660C60BDE81040FEF7AD
S214004A20A1BF00BF00200E4020200E44F8B5C3B240
S214004A3001259D400446FEF791FF0B4B04EB440412
S214004A401F6E9E6A03EB0414D4F88C40FEF78AFFB0
S214004A50354206D1C4F30A1008B93D4200D10130F0
S214004A60F8BD0020F8BD00BF00200E408368DB06BE
S214004A70FCD5036CDA0702D4436C5B06FCD4816277
S214004A80704700BF29B370B4134C0025082650F8B1
S214004A90043BA361E660E369DB0705F1010508D581
S214004AA00E4B00E06BB1E269D20703F1FF33F9D495
S214004AB03BB1E3699B0708D48D42E8D1002070BC67
S214004AC070476FF0020070BC70476FF0010070BC5A
S214004AD070470020704700BF00000E408096980088
S214004AE0054A064B5168526841F671321A649A6854
S214004AF022F001029A60704700300E4000000E401F
S214004B00034B9A68002122F001029A6019647047EC
S214004B1000000E402DE9F84F294C2A4B256C41F633
S214004B20713626645E685B68A368960843F00103E6
S214004B301FFA85F8A3602BD00746894600254FF05C
S214004B40010AE369D90707EB850008D51E4B00E08C
S214004B507BB3E169CA0703F1FF33F9D44BB3206195
S214004B60C4F80CA0E3695B0726D4C0F30A00C0F5BE
S214004B7000608008A6EB050B834516D259464846CA
S214004B80FFF780FF28B95D4409EB8B09AE42D8D801
S214004B9000200B4A936823F001039360B8F1000FDE
S214004BA001D000231364BDE8F88F0028EED08346BA
S214004BB0E4E76FF00200ECE74FF0FF30E9E700BFF4
S214004BC000000E4000300E4080969800334B344A6A
S214004BD0196C10B441F671341C64546852689A68B3
S214004BE0012442F001029A601861DC60DA6952071B
S214004BF088B209D59A6822F001029A6000BB4FF08D
S214004C00FF305DF8044B70470222DA60DA69D40799
S214004C101DD5244A01E0002A2ED0D969C90702F121
S214004C20FF32F8D4DB69990714D442B31B4A936861
S214004C3023F0010393600028E3D000201064E0E72F
S214004C4000224FF0FF301A645DF8044B7047DB69B2
S214004C509C07EBD5114A936823F00103936030B1AB
S214004C6000236FF0010013645DF8044B70476FF08B
S214004C7001005DF8044B7047DB699B07EAD4074ADE
S214004C80936823F00103936020B1002313646FF050
S214004C900200B6E76FF00200B3E700BF00000E4068
S214004CA000300E4080969800FFF734BF014B01227B
S214004CB09A60704700500E40144A154B0021F0B41D
S214004CC008465568134F03F1480601220FE0B2F577
S214004CD0006F16D0B2F5803F13D02A4202D0294288
S214004CE008BF10430833B3420ED053E902213C6894
S214004CF06407F2D4B2F5806F03D0E8D8B2F5007F2F
S214004D00EBD141F48071E8E7F0BC704700500E40EC
S214004D1000930200E841E00F30B48B784C780A78B4
S214004D20CD789B0143EA840313430C794A79897949
S214004D3043EA051343EAC423043043EA023300017E
S214004D40024A43EA4143135030BC704700200440F7
S214004D50014B1860704700BF0000844243794178D9
S214004D600278F0B40479C7798678C5781B0343EADD
S214004D700423002943EA02030CBF0021042184799E
S214004D80027A002E43EA074343EA01030CBF0021E0
S214004D901021002D43EA01030CBF00212021002C26
S214004DA043EA01030CBF00214FF400410B430AB154
S214004DB043F40033014AF0BC1360704700200440FF
S214004DC00B4A536911699B0003F03C03C1F3811140
S214004DD00B438370136903F03F0343709369D269F2
S214004DE003F0F003C2F3031213430370704700BFCF
S214004DF0D0FF0FE0F8B5054616461C46E9B1202C54
S214004E0021D022D9402C16D0602C13D104222B6836
S214004E10104F23F060032B6006FB02F62B68720827
S214004E2002EB4112B2FBF6F2203A07EAC2021C433A
S214004E302C606A61F8BD0622E9E70748FDF75CFFCB
S214004E40202C0146DDD10822E1E7002CF2D1102209
S214004E50DDE700BFF8FF7F0040410500CB435B0065
S214004E6003F00A03C360C160704700BF164A1749C3
S214004E70002330B4904240F6AA6541F20504C560AE
S214004E800360446083604361C36481640366436770
S214004E908367C36714D002F5806290420AD002F599
S214004EA0806290420CD002F58062904202D0836508
S214004EB030BC7047036583650023C36530BC70470C
S214004EC000230365F3E700BF00000140F9FF01007F
S214004ED070B50C460546FFF7C9FFA37C1BB10368F7
S214004EE043F080430360E37C1BB1237D43F08003E3
S214004EF0AB65617B268AE089237BA2683143014348
S214004F00696028466168FFF775FF637D1BB12B68F3
S214004F1043F480332B60A37DE27D217E20781B073F
S214004F20120503F0E04302F4E00213432B666B6FB6
S214004F3023F030036B676B6F0B436B67E86070BDE5
S214004F4070B50C460546FFF791FF228AA07B2B68BA
S214004F50217D42F00102002843EA02030CBF002232
S214004F604FF4806213432B602B6809B143F0005363
S214004F70A27C2B601AB1E37C43F08003AB65237BF5
S214004F80D4E9010643F480536B60E0B1637B0138DB
S214004F907600B0FBF6F0000268610BB11023EB6000
S214004FA0637D1BB12B6843F480332B60A37DE27DC9
S214004FB021781B07120503F0E04302F4E0021343D6
S214004FC02B66E96070BD0248FDF796FEDEE700BF7F
S214004FD04041050003695A06FCD5416303699B06F8
S214004FE0FCD5C069C0B2704703695B06FCD5416357
S214004FF0704700BF30B50A4B1C6885B06CB150B125
S21400500003460D46204601A901938DF808500392E9
S21400501000F00EF8012005B030BD204605B030BDCA
S2140050203C150020014B9868704700BF30150020E3
S21400503070B50E460546FEF789FC04463046A8477E
S2140050402046BDE87040FEF785BC00BFF8B5124D9F
S214005050FEF784FC2C780646CCB91049104A114B52
S2140050600C6014601C8000F0AFFA012000F01EFBFC
S21400507000F06CFB0C4B0D4F1860024623460C48A4
S21400508040F2E73123F0F2FC012338602B70304603
S214005090FEF768FC0020F8BD4015002054150020DF
S2140050A0441500204C1500205015002048150020FF
S2140050B018FCFFFF002842D0F8B50446FEF74EFC69
S2140050C0064600F0C3FA054627480168002938D08E
S2140050D0264F4A693B68EB1A934213D9AD1A002350
S2140050E03D604B618C4218BF0A4603D136E09C42B5
S2140050F00CD01A469368002BF9D13046FEF732FCE6
S2140051000220F8BDD31A4B613D60EBE7A3689360BD
S214005110A3687BB10A4658696769384458618C426F
S21400512016D1BAB1536902201D4400F0BFFA2846D2
S21400513000F092FA3046FEF715FC0020F8BD22205B
S21400514070470A4B30461D60FEF70CFC0220D8E77D
S214005150002AEFD1022000F0B7FAEBE7A26802605F
S214005160002ADCD01346D6E754150020441500204C
S2140051702DE9F0479DF820A0BDF8249000284BD0DC
S21400518005461646984600270C46FFF793FF85F817
S21400519004A0C5F80080EE60A5F80690AF602F6109
S2140051A03CB96C61AEB328464146B0472046BDE8E0
S2140051B0F087FEF7D3FBDFF8B080064600F046FA2D
S2140051C0D8F800C0DFF8A4E0BCF1000F27D0DEF866
S2140051D00030DCF81420C31A934230D8D31ACCF827
S2140051E01430CEF800006C616346002000E00B46E9
S2140051F05A69A24200D942BB9968A41A6C61184643
S2140052000029F4D19D60A960654529D03046FEF797
S214005210A9FB0020BDE8F0872220BDE8F0876C617E
S214005220C8F80050C5F808C0CEF8000003461C4475
S214005230022000F03BFA204600F00EFAE6E7801A5D
S214005240CEF80000CCF81470CDE720B18560AB60D6
S214005250141B5C61D8E7C8F80050AB60AC46F7E7B3
S2140052606C69DEF80030E2E7541500204415002093
S21400527000F0ECB970B5FEF771FB064600F0E6F9F3
S214005280094B1C8805460120A4B200F035FA18B177
S21400529000F0DCF9013405463046FEF763FB0022D9
S2140052A042EA0500214670BD4C150020014B1868E7
S2140052B0704700BF50150020044B054A1B6803FBCF
S2140052C000F0A2FB00308009013070475015002026
S2140052D0D34D62100A4B1B6883420ED3094B10B5A0
S2140052E00C4619684FF47A720023A0FB010123F0E4
S2140052F0BDFB01302060002010BD2120704700BF9C
S2140053004815002050150020014B1868704700BF54
S21400531048150020114B1A684FF47A732DE900489F
S214005320A0FB03BC12B1531E134206D0584661467A
S214005330002323F09BFBBDE80088B2FA82F2C2F19C
S2140053401F02C2F120032BFA02F00CFA03F3203AF4
S21400535018432CFA02F21043BDE8008850150020CE
S2140053602DE9F84925A5D5E900458D4208BF8442B8
S2140053703BD34B014401241A43EAD06565EB010593
S214005380AB0043EA9473A60098461B4B801941EB8A
S21400539008011B68CE00C40046EA507620465BB97A
S2140053A0144631461A46002323F060FB0025C4E964
S2140053B000012846BDE8F8895D1E1D40F0D1B3FA0D
S2140053C083F3C3F11F03C3F12007D84006FA07F79B
S2140053D0A3F12001384326FA01F1084326FA03F325
S2140053E0C2E900032846BDE8F88921252846BDE81D
S2140053F0F88900BFAFF3008050150020EFA7C64B1A
S21400540037894100C2072DE9F84F044600F199801C
S214005410A30701D4BDE8F88FDFF8A881674F00F036
S21400542015F9D8F800500646451BFEF797FA3C6873
S2140054308246002C00F0AB8062699542C0F0B980CD
S2140054404FF00009C8F800602346294600E05A6974
S2140054508A4209D8187994F804C0844588BF1C4647
S2140054609B68891A002BF2D15046FEF77BFAD4F8D7
S21400547014A0C4F81490FEF771FA3A6842B1A2423A
S21400548003D17AE0A3422DD01A469368002BF9D1B7
S214005490FEF768FA2369002B32D1E36813B121685E
S2140054A02046984700F0D2F85644AD1B8346054484
S2140054B0FEF754FA3C688246002C68D06269AA421D
S2140054C05E46BFD9551B656102205D44C8F800B032
S2140054D000F0ECF8284600F0BFF85046BDE8F84F5C
S2140054E0FEF740BAA3689360A1680029D0D04B6944
S2140054F0626913444B61FEF735FA2369002BCCD062
S214005500FEF72CFA3B68226962618646002B37D08C
S2140055104FF0000C00E003465969914201D900297A
S2140055203DD19868521A62619C460028F3D19C606F
S214005530A06010B143699A1A42617046FEF712FAEB
S214005540ABE71F4A138801339BB2138000F07EF846
S2140055501A4B1B684BB31B495D690A68821AAA423C
S21400556011D9401B002508605D610544022000F04B
S2140055709DF8284600F070F84AE7A1683960B4E75D
S2140055803C60A360D9E7AD1A5D610860EDE70220D4
S21400559000F09AF85046BDE8F84FFEF7E3B9BCF1C4
S2140055A0000F08D13C601846C2E7064A10605D69E5
S2140055B0DBE7B34686E718466346B8E7541500208F
S2140055C04C1500204415002010B51C4B93E807002E
S2140055D086B00C3303AC03C493E803000B0C0190B5
S2140055E0ADF808101648227001218DF80A30002404
S2140055F0FDF7C0FA03A88DF80C408DF81040FFF7B1
S214005600ADFB06A9012001F8144DFFF785FB0D4AF6
S214005610536A23F4FF6323F0070340F2FF715362DB
S214005620012011629460FFF793FB074B4FF0804216
S214005630C3F880211A6006B010BD00BF4093020078
S214005640A00914000020044000E100E0014B986827
S214005650704700BF00200440124B9A68596D9B6942
S2140056605B0702D48B1A022B18D9831A012B98BF1A
S214005670901C0C4BB0F1FF3F28BF013058655A6AAA
S21400568042F004025A62084B1A7832B105490A6D94
S214005690002042F002020A65187070479142F2D16B
S2140056A0E3E700BF00200440881000208207054A78
S2140056B000F00103516A48BF43F004030B435362F2
S2140056C0704700BF00200440830700F0010209D5A0
S2140056D0074B0849012018700B6D23F0030342F0B6
S2140056E004020B6503494B6A23EA02034B627047C8
S2140056F08810002000200440064B01289B6906D035
S214005700022802D1C3F3800070470020704703F0E0
S214005710010070470020044010B5FEF71FF90A4B41
S2140057209B695A07084A044603F0010003F0070382
S21400573048BF40F002001362FFF764FE2046BDE853
S2140057401040FEF70FB900BF002004400148FDF7E7
S214005750D3BA00BFA0091400064B70B506460D4626
S214005760144618464C22002123F083FBC0E9096545
S214005770C46270BDA844002008B5FFF753FC80F44F
S2140057808050C0F3003008BD104B1A79D20710B510
S21400579004460ED55B798B420BD3012100F000FA4C
S2140057A033216CB9002211460948BDE81040FFF7C6
S2140057B021BC0021204600F0F3F9002CF2D0312164
S2140057C0044A0348BDE81040FFF714BCA844002074
S2140057D0DC440020815B000070B514461D4602F0D4
S2140057E040020023134382B004D0144B93F83820B1
S2140057F0D2071DD54BF20900002100EA040201EA97
S2140058000503134303D12046294602B070BD0B4E54
S21400581001A9706A00F0A2FD9DF80430042BF2D0B6
S214005820B1780020FFF7B0FF2046294602B070BDD1
S21400583099780120FFF7A8FFDCE700BFA844002006
S21400584070B50646FFF7EEFB10F480540CBF01203F
S2140058500020084D00F0BCF9211C18BF0121686A21
S21400586000F0A6FE26B11CB1AB6ABDE87040184732
S21400587070BD00BFA844002018B1034BD87800F0D4
S2140058800100FFF7DDBF00BFA8440020084B9B794E
S2140058908B4202D20020FFF777BF10B50446FFF711
S2140058A073FF24B10020BDE81040FFF7C9BF10BD4C
S2140058B0A84400202DE9F04383B01E4607460D4657
S2140058C09046FFF7AFFB430502D403B0BDE8F08374
