S0320000626F6F746C6F616465722D73746F726167652D696E7465726E616C2D73696E676C652D636F6D62696E65642E733337CE
S3150FE100000F4880F308880F48004700004D05E10FC0
S3150FE100104D05E10F4D05E10F4D05E10F4D05E10FE2
S3150FE100204D05E10F4D05E10F6805E10F4D05E10FB7
S3150FE100304D05E10F4D05E10F4D05E10F4D05E10FC2
S3150FE10040004000200105E10F10B5054C237833B9C7
S3150FE10050044B13B10448AFF300800123237010BDA5
S3150FE1006010010020000000007C05E10F08B5034BED
S3150FE100701BB103490348AFF3008008BD0000000040
S3150FE10080140100207C05E10F044B054A9A60D3F871
S3150FE10090882042F47002C3F88820704700ED00E033
S3150FE100A00000E10F094A0A4BD969C90705D512B90B
S3150FE100B06FF002007047013AF6E7002AF8D0012205
S3150FE100C01861DA60D86940F380007047809698002E
S3150FE100D000000E4070B509B9002070BD0E4A00232D
S3150FE100E0082550F8234094610C4CD5600133D6694D
S3150FE100F0F60705D514B96FF00200EEE7013CF6E716
S3150FE10100002CF8D0D469A40702D49942E9D1E3E7E8
S3150FE101106FF00100E1E700BF00000E408096980006
S3150FE101202DE9F8431C4B884641F671311D6C196474
S3150FE101301A49074648684968996841F00101ADB225
S3150FE10140996096084FF00009B14501D3002005E00B
S3150FE1015007EB89042046FFF7A5FF48B10E4B9A68D6
S3150FE1016022F001029A600DB100221A64BDE8F8830C
S3150FE10170C4F30A04C4F50064A408A6EB09039C4280
S3150FE1018028BF1C4621464046FFF7A4FF0028E5D1CC
S3150FE10190A14408EB8408D7E700000E4000300E407B
S3150FE101A0204B41F671311A6C10B519641E494C6832
S3150FE101B04968996841F00101996001211861D96097
S3150FE101C0D9694C0792B209D5996821F00101996075
S3150FE101D00AB100221A644FF0FF301FE00221134CDF
S3150FE101E0D9601946D869C00700D56CB9C8698B685B
S3150FE101F010F0020023F001038B6007D00AB1002350
S3150FE102000B646FF0010009E0013CEBE724B902B1A1
S3150FE102100C646FF0020001E00AB1086410BD1046EC
S3150FE10220FCE700BF00000E4000300E4080969800BC
S3150FE10230FFF776BF08B50A4B1A680A4B1A600A4BE5
S3150FE1024040221A615A685203FCD400F07BF8002869
S3150FE10250FBD040F2022000F0AFF8002008BD00BF4E
S3150FE10260040100200001002000300E4010B5104CB3
S3150FE10270104BA36000F0C0F80F4B5B68B3F5803FFE
S3150FE1028009D040F20923984202D0B0F5007F02D19E
S3150FE1029000F016F850B9094BA3601846016881F3CF
S3150FE102A0088881F3098840688746FEE710BD00BFDD
S3150FE102B000ED00E00000E10F00500E400008E10FF5
S3150FE102C0F8B51C4B1A681069D568836AAB4201D23F
S3150FE102D00020F8BD05F510429A42F9D95B1BC61805
S3150FE102E0C758154B9F42F3D14FF0FF32F16800F03B
S3150FE102F0EBF8124B98420446EAD1114B1B68A3F176
S3150FE103007E62A2F58432B2F5104F10D21A68BA4264
S3150FE103100DD1B1689A68914209D84FF0FF32D96889
S3150FE10320284600F0D1F8001B18BF0120D1E70120C4
S3150FE10330CFE700BF2800E10F07B0CD5EE320BBDEBC
S3150FE103402808E10FF8B5184B1B68D3E90347BB6AD9
S3150FE103501B1BFD182646EA68A318B3421CD839467B
S3150FE10360204600F07CF8B0B1104B1B68A3F17E621A
S3150FE10370A2F58432B2F5104F14D219680C4A9142A4
S3150FE1038010D1D9684FF0FF32204600F09DF8094BA6
S3150FE10390C31A58425841F8BD304600F059F806F5F0
S3150FE103A00066D8E70020F6E72800E10F2808E10FFD
S3150FE103B007B0CD5EE320BBDE4FF000534FF20F02E5
S3150FE103C05A800A4A1880136823F4E06343F40073F2
S3150FE103D01360BFF34F8F0649064BCA6802F4E0621A
S3150FE103E01343CB60BFF34F8F00BFFDE700500E40C5
S3150FE103F000ED00E00400FA054FF000534FF20F0154
S3150FE104005A888A4201D1188870473AB91B88012B5D
S3150FE1041040F2022018BF4FF4007070474FF400709E
S3150FE10420704707B503469B0753BF6FEA01414FF686
S3150FE10430FF7343EA01416FEA11410422019120F072
S3150FE1044003000DEB0201FFF7F3FE03B05DF804FBCA
S3150FE1045008B5FFF7A5FEB0FA80F0400908BDF8B57B
S3150FE1046005460E4614460AB90120F8BD42EA0003D5
S3150FE10470DA0701D50020F8E7830721D50988FFF7C9
S3150FE10480D0FF0028F6D1023C032C05F1020506F157
S3150FE1049002060BD924F003073A4631462846FFF701
S3150FE104A0C7FE0028E6D13E443D44E41B002CDBD0D9
S3150FE104B031882846FFF7B5FFB0FA80F04009D4E757
S3150FE104C0032CE7D8F4E7000010B50B4CD4F8B030A5
S3150FE104D043F04003C4F8B030084B01241C600144DB
S3150FE104E09A605C601A46884201D1D86910BD10F84E
S3150FE104F0014B9461F7E700BF00400E4000C0014099
S3150FE105000B4880470B4880470B490C4A0C4B9A42E4
S3150FE10510BEBF51F8040B42F8040BF8E709490A4A42
S3150FE1052000209142BCBF41F8040BFAE7FFF782FEC8
S3150FE105308900E10F6D02E10F8005E10F0001002057
S3150FE1054010010020100100202C010020FEE700BF62
S3150FE10550F8B500BFF8BC08BC9E467047F8B500BFBA
S3150FE10560F8BC08BC9E467047AD1007B0010000000D
S3150FE1057000000B010008E10F008000000000000001
S3150FE10580C0EA2101C0EA21016D00E10F4900E10F47
S3150FE10800007C0020A108E10F9D08E10FF708E10F39
S3150FE108109D08E10F9D08E10F9D08E10F9D08E10F8E
S3150FE108209D08E10F9D08E10F1833E10F9D08E10FD8
S3150FE108309D08E10F5833E10F9D08E10F9D08E10F88
S3150FE1084010B5054C237833B9044B13B10448AFF314
S3150FE1085000800123237010BD080100200000000075
S3150FE108605C35E10F08B5034B1BB103490348AFF301
S3150FE10870008008BD000000000C0100205C35E10F8F
S3150FE10880044B054A9A60D3F8882042F47002C3F804
S3150FE108908820704700ED00E00008E10FFEE7000059
S3150FE108A008B5FFF7EDFF00F091F80A4A0A4B0B493D
S3150FE108B08B4206D30A4B0B4A0021934206D300F033
S3150FE108C01FF852F8040F43F8040BF1E743F8041B42
S3150FE108D0F3E700BF5C35E10F0001002008010020BE
S3150FE108E0080100202401002000207047704700F026
S3150FE108F03FBF00F091BF4FF4017002F0A9BC0000B9
S3150FE109002A4B07B501225A64294BDB6C1B0E0FD11B
S3150FE10910284929484AF6E8520A60026842F0040279
S3150FE1092002600B60254A136843F40053136001E03C
S3150FE10930012BF7D0224A136A23F4441343F48813A5
S3150FE109401362A2F58042136843F48073136002F5D4
S3150FE1095046522432136843F4F8431360194B40228D
S3150FE109601A615A685203FCD4FFF7C1FF02F069FC22
S3150FE1097001F034FB30B940F2012002F069FC4FF48B
S3150FE1098001700AE0104B0193019B002B0BDC40F247
S3150FE1099005439842F3D140F2032002F059FC0020BF
S3150FE109A003B05DF804FB019B013BECE700000E4051
S3150FE109B0B081E00F90310E4098310E4064310E4018
S3150FE109C000400E4000300E4000350C0013B5234BAE
S3150FE109D001248DF806408DF807405B685B050FD55E
S3150FE109E002F056FCA0F2022080B2072808D8844014
S3150FE109F014F0C90F1EBF00238DF806308DF80730AE
S3150FE10A0004231B68013308D14FF4027002F012FC84
S3150FE10A1000238DF806308DF807309DF807305BB16E
S3150FE10A20002002F03DFB8DF806009DF806301BB95C
S3150FE10A304FF4027002F0FEFB9DF806305BB1084AF7
S3150FE10A40002393601846016881F3088881F30988CA
S3150FE10A5040688746FEE702B010BD00BF00500E406A
S3150FE10A6000ED00E00020704710B50B4CD4F8B03024
S3150FE10A7043F04003C4F8B030084B01241C60014435
S3150FE10A809A605C601A46884201D1D86910BD10F8A8
S3150FE10A90014B9461F7E700BF00400E4000C00140F3
S3150FE10AA0F8B504461D4616460F4600F04BFFDDE945
S3150FE10AB00612204600F04AFF0023636284F838707D
S3150FE10AC03268C4F839207268C4F83D202B0CB2683D
S3150FE10AD084F845302B0AC4F8412084F8463084F86F
S3150FE10AE04750F8BD30B585B01D4600F12803CDE975
S3150FE10AF00112009300F1240200F13803294600F0B8
S3150FE10B003EFF05B030BD00002DE9F041A2B00F4622
S3150FE10B1016469846289C054660B359B352B34BB374
S3150FE10B2044B30121154800F081FC4022002102A8BF
S3150FE10B3002F0DDFB414602A800F016FB21460AA8AA
S3150FE10B4012AC00F011FB40220021204602F0CFFB50
S3150FE10B503946204600F008FB31461AA800F004FB9F
S3150FE10B60009402AB20222946054800F00DFB22B086
S3150FE10B70BDE8F08140F20160F9E700BF00050A0028
S3150FE10B8000000F4010B5044601F086F9204600211A
S3150FE10B90BDE8104001F0A8B901F0B0B9014601F086
S3150FE10BA0AFB91C2350F8042F0AB9043BFAD1002B35
S3150FE10BB0CCBF00200120704730B505680468026894
S3150FE10BC00368C1E90054C1E90223056804680268B4
S3150FE10BD00368C1E90454C1E9062330BDD1E9022313
S3150FE10BE030B5D1E900540560046002600360D1E9D4
S3150FE10BF00454D1E90623056004600260036030BD49
S3150FE10C002DE9F04104461D460E46904600211C2271
S3150FE10C10181D02F06CFB01232B6000F045FC4146E9
S3150FE10C20074604F58070FFF7D9FF314604F5827068
S3150FE10C3004F58476FFF7D2FF29463046FFF7CEFF5C
S3150FE10C40384600F035FC0D4F0D4B0E4A0E490F4855
S3150FE10C5023656369DB010BD500F026FC29460446C3
S3150FE10C603046FFF7A9FF2046BDE8F04100F020BC72
S3150FE10C7022656165A065E765EBE700BF39380100DD
S3150FE10C8039398401D02484FC1C82FED88B1C81A0C7
S3150FE10C902DE9F04F8DB0044698460F46154600F004
S3150FE10CA003FC04F5827607F14002114604F5867BD3
S3150FE10CB0814630460392FFF791FF29465846FFF7E3
S3150FE10CC08DFF04F58873184605F120010293FFF7AE
S3150FE10CD085FF484600F0ECFB4249216542496165D3
S3150FE10CE001254249A165E56500F0DEFB04F584794E
S3150FE10CF007F1200A019039463046FFF76FFF51465B
S3150FE10D004846FFF76BFF039A029B11461846FFF71A
S3150FE10D1065FF019800F0CCFB354B2365354B6365D9
S3150FE10D20A56500F0C1FB04F58073019008F1400160
S3150FE10D3018460293FFF740FF04A94846FFF73CFF29
S3150FE10D40019A104600F0B4FB00F0AEFB3946019074
S3150FE10D505846FFF743FF019A104600F0A9FB264AD2
S3150FE10D602265264A62656FF42673A2F5FE221A44BE
S3150FE10D70A265E56500F098FB514607463046FFF759
S3150FE10D802DFF384600F094FB1D4A22651D4A626528
S3150FE10D90A56500F089FB414607464846FFF70CFF7C
S3150FE10DA0384600F085FB00F07FFB04A90746304685
S3150FE10DB0FFF714FF384600F07BFB134A2265134A0F
S3150FE10DC06265A56500F070FB029B044608F1200100
S3150FE10DD01846FFF7F1FE204600F06AFB0DB0BDE8BD
S3150FE10DE0F08F00BF8AD11C81D91C83D11C81E11CF4
S3150FE10DF0D01482CB1481E11C8CE11C811C84D91C9B
S3150FE10E00E014D8141482E11C84D31482D11CE014AB
S3150FE10E102DE9F041044690B00F46244E0521904648
S3150FE10E2000F049FB00232360236363630FCE08AD14
S3150FE10E300FC596E80F0085E80F0008AA6B4607F184
S3150FE10E4040012046FFF7DCFE00F02EFB04F5867528
S3150FE10E500646694604F58270FFF7C0FE3946284615
S3150FE10E60FFF7BCFE07F1200104F58870FFF7B6FE28
S3150FE10E70304600F01DFB0E4B23650E4B63650E4BA3
S3150FE10E80A3650123E36500F00FFB08F12001064698
S3150FE10E9004F58070FFF790FE41462846FFF78CFE7A
S3150FE10EA0304600F005FB10B0BDE8F081A433E10F49
S3150FE10EB08AD11C81D91C83D11C81E11C2DE9F04F0C
S3150FE10EC0A5B01D460446CDE9001205A81C22002156
S3150FE10ED002F00DFA4FF0010820220021284605F114
S3150FE10EE02007CDF8108005F1400A02F000FA202222
S3150FE10EF00021384602F0FBF920220021504602F08C
S3150FE10F00F6F90521204600F0D6FA00232360FF26E5
S3150FE10F10236363637211019806F01F0350F82220D1
S3150FE10F2008FA03F3134206F1FF3102D10E46002907
S3150FE10F30F0D100F0B9FA04F58273394680461846C6
S3150FE10F400293FFF74BFE404600F0B2FA7A4B7B4A2B
S3150FE10F50236562657A4AA26500F0A6FA04F58079FF
S3150FE10F6014A980464846FFF727FE404600F0A0FA4F
S3150FE10F7000F09AFA294680464846FFF72FFE40468B
S3150FE10F8000F096FA6F4A704B22654FF486726365ED
S3150FE10F90A26500F089FA04F5867883460CA94046E6
S3150FE10FA0FFF70AFE1CA94846FFF706FE584600F072
S3150FE10FB07FFA00F079FA029B03935146834618466E
S3150FE10FC0FFF70CFE584600F073FA604B23650123D9
S3150FE10FD0636500F069FA04F5847B29460290584669
S3150FE10FE0FFF7FCFD029A104600F062FA584A2265B5
S3150FE10FF002F1D94202F5DE1202F595626265A2F5BA
S3150FE1100086120123A2F2BA42A265E36500F04CFA19
S3150FE110101CA902905846FFF7E1FD0CA94046FFF7E0
S3150FE11020DDFD029A104600F043FA4A4A22654A4A22
S3150FE1103062654A4AA26500F037FA2946029004F53D
S3150FE110408870FFF7B9FD029A104600F031FA00F009
S3150FE110502BFA039B029039461846FFF7BFFD584618
S3150FE110605146FFF7BBFD14A94046FFF7B7FD029ABC
S3150FE11070104600F01DFA3A4B23653A4B636500F0D3
S3150FE1108013FA514683464846FFF796FD39464046E1
S3150FE11090FFF792FD584600F00BFA012106F01F0308
S3150FE110A001FA03F37211019951F82220134217D075
S3150FE110B02B687BB92846FFF774FD58B12B6A4BB9FC
S3150FE110C03846FFF76EFD28B12B6C1BB95046FFF77B
S3150FE110D068FD60B92B46009A29462046FFF7D8FDF1
S3150FE110E016F1FF36BFF425AF25B0BDE8F08F009BB3
S3150FE110F0AC4603F1200E18685968624603C20833FD
S3150FE1110073459446F7D1BC4603F1200E186859682A
S3150FE11110624603C2083373459446F7D10DF1100EBB
S3150FE11120BEE80F0005F1400CACE80F009EE80F009A
S3150FE111308CE80F00D4E700BF8AD11C81821CC00C5A
S3150FE111400C0C0100C00C0C83D91C83D88AD11C83EB
S3150FE11150DA0C81148CE11CD01484E31482D11C01C6
S3150FE11160D81483D11CC00C0110B520220C460021E6
S3150FE1117002F0BDF804F12002013812F8013D00F842
S3150FE11180013FA242F9D110BD2DE9F04FBBB089461F
S3150FE111900446002190460AA860229A46449F02F02F
S3150FE111A0A6F86022002122A802F0A1F8B9F1000FFA
S3150FE111B000F01E81BAF1000F00F01A81002F00F046
S3150FE111C01781B8F1000F40F31381002323602363E6
S3150FE111D063636368884E43F0100363600C21204616
S3150FE111E000F069F9636823F4406343F400636360D5
S3150FE111F0636823F4407343F4007363600FCE2AAD43
S3150FE112000FC596E80F0085E80F0000F04DF904F5DC
S3150FE11210847683463946304604F58675FFF7DEFC5C
S3150FE112202AA92846FFF7DAFC584600F041F90122D0
S3150FE11230724B236562656269D20104D440F20260A2
S3150FE112403BB0BDE8F08F391F082251F8040F002893
S3150FE1125000F0C680019300F027F907F1200B00900B
S3150FE1126059463046FFF7BAFC2AA92846FFF7B6FCDE
S3150FE11270009A104600F01CF9019B23650123636573
S3150FE112806369DB01DAD507F11C02082352F8041F63
S3150FE11290002900F0A980B8F1200FA8BF4FF0200870
S3150FE112A02022002132A802F022F808F1FF30CC46C5
S3150FE112B020F003033AA940330B441CF8012B00F04D
S3150FE112C00301C9008A4053F8601C0A4343F8602CB6
S3150FE112D0ACEB0903434500F1FF30E9DB00F0E4F83D
S3150FE112E032A980463046FFF779FC404600F0E0F838
S3150FE112F0434B236500F0D8F804F58078814632A98F
S3150FE113004046FFF759FC484600F0D2F82AAA02AB4D
S3150FE1131059462046FFF774FC00F0C6F804F58879C4
S3150FE11320834602A904F58270FFF758FC32A94846B5
S3150FE11330FFF754FC39462846FFF750FC584600F0B4
S3150FE11340B7F8304B236503F1FA43A3F50063636501
S3150FE1135000F0AAF832A983464846FFF72DFC02A909
S3150FE113604046FFF729FC584600F0A2F80AAB32AA2D
S3150FE1137025492046FFF7A2FD22AB02AA5146204698
S3150FE11380FFF79CFD0AAA11462046FFF741FD22AB66
S3150FE1139019460AAA2046FFF77BFC22AA11462046E8
S3150FE113A0FFF736FD00F080F80C218046204600F06D
S3150FE113B082F822A93046FFF711FC39462846FFF796
S3150FE113C00DFC404600F074F8104B2365104B636536
S3150FE113D0636913F0807F40F2046018BF00202FE7A6
S3150FE113E0013A7FF432AF29E7013B7FF44FAF25E7AF
S3150FE113F040F2016024E700BFC433E10F3035DA1064
S3150FE1140030D00C0130E11C84E433E10F3035DA14CE
S3150FE1141039380100044BD3F84421D20703D4D3F86A
S3150FE1142040211042FBD1704700400E40C0F303222A
S3150FE11430013A38B50546092A13D8DFE802F0231336
S3150FE114401212051619121C20104C0020C5F3043593
S3150FE1145008B1FFF7DFFF04F1047405EBC404A40040
S3150FE11460216038BD00200A4CF0E70120094CEDE779
S3150FE114701020094CEAE74FF48030084CE6E70020EC
S3150FE11480074CE3E70020074CE0E700BFB0400E4012
S3150FE11490C0400E40E0400E40E8400E40F0400E40A6
S3150FE114A050410E4000400E40EFF3108072B6704788
S3150FE114B000B962B670470E2910B543680DD80122FF
S3150FE114C08A4047F2E004224223F01F0306D140F699
S3150FE114D01F74224201D01943416010BD41F0100142
S3150FE114E0F9E70000094A0A4BD969C90705D512B9C7
S3150FE114F06FF002007047013AF6E7002AF8D00122B1
S3150FE115001861DA60D86940F38000704780969800D9
S3150FE1151000000E4070B509B9002070BD0E4A0023D8
S3150FE11520082550F8234094610C4CD5600133D669F8
S3150FE11530F60705D514B96FF00200EEE7013CF6E7C1
S3150FE11540002CF8D0D469A40702D49942E9D1E3E794
S3150FE115506FF00100E1E700BF00000E4080969800B2
S3150FE115602DE9F8431C4B884641F671311D6C196420
S3150FE115701A49074648684968996841F00101ADB2D1
S3150FE11580996096084FF00009B14501D3002005E0B7
S3150FE1159007EB89042046FFF7A5FF48B10E4B9A6882
S3150FE115A022F001029A600DB100221A64BDE8F883B8
S3150FE115B0C4F30A04C4F50064A408A6EB09039C422C
S3150FE115C028BF1C4621464046FFF7A4FF0028E5D178
S3150FE115D0A14408EB8408D7E700000E4000300E4027
S3150FE115E0204B41F671311A6C10B519641E494C68DE
S3150FE115F04968996841F00101996001211861D96043
S3150FE11600D9694C0792B209D5996821F00101996020
S3150FE116100AB100221A644FF0FF301FE00221134C8A
S3150FE11620D9601946D869C00700D56CB9C8698B6806
S3150FE1163010F0020023F001038B6007D00AB10023FB
S3150FE116400B646FF0010009E0013CEBE724B902B14D
S3150FE116500C646FF0020001E00AB1086410BD104698
S3150FE11660FCE700BF00000E4000300E408096980068
S3150FE11670FFF776BF2DE9F04F02F16044B4F5802F05
S3150FE1168003D94FF0FF30BDE8F08F314FDFF8CCE0F3
S3150FE11690DFF8CC90DFF8CCA0302505FB00754FF4D1
S3150FE116A04014C5F880400024C5F88440C5F8884049
S3150FE116B0C5F89840274C41F67136D4F84080266438
S3150FE116C0A66846F00106A660012606FA00F0BC46BA
S3150FE116D05BB90422E260A26822F00102A2601FFA5E
S3150FE116E088F202B123641846CDE74FF0010B01F5FD
S3150FE116F00066216106EA0E06C4F80CB0761AD4F834
S3150FE117001CB09E4228BF1E461BF0040F4FEA9607F8
S3150FE11710B7D1013F3F0147F06057C5F88C700E4FC7
S3150FE11720C5F89020C5F89470DCF820700743CCF823
S3150FE1173020701027E760DCF828703842FBD0C9F833
S3150FE1174000003144CAF8000032449B1BC0E700BFDA
S3150FE1175000200E4000000E4018000E4000F8FFFF7B
S3150FE1176028200E4420200E44004870472434E10F10
S3150FE1177000207047024BD86900F00100704700BFA7
S3150FE1178000000E4008B5034608469918B1F5801FCB
S3150FE1179004D8194601F0A0FD002008BD40F2024031
S3150FE117A0FBE78318B3F5801F10B50ED940F202405F
S3150FE117B010BDC45801340AD104339A42F9D801F065
S3150FE117C05EFB0028F2D00020F2E70023F5E740F2B6
S3150FE117D00340EDE74FF0FF30704738B5C1F30A0329
S3150FE117E00446B3B9C0F30A039BB90D18B5F5801FCB
S3150FE117F008D8204604F5006401F0F7FAA54204D0B3
S3150FE118000028F6D140F2024038BD0028FAD0002078
S3150FE11810FAE740F20440F7E70020704730B5056874
S3150FE11820046802680368880785B011D0CDE90054D2
S3150FE11830CDE902236C460B4604AD224603CAAA4202
S3150FE1184018605960144603F10803F6D105B030BDAF
S3150FE11850C1E90054C1E90223F8E77FB58B070246D8
S3150FE1186015D00B466D4601F11006186859682C46DE
S3150FE1187003C40833B3422546F7D1009B1360019B9E
S3150FE118801360029B1360039B136004B070BDD1E933
S3150FE118900054D1E90203156014601060F4E700F11A
S3150FE118A00473102A30B54FEA43131AD101221A6095
S3150FE118B0D1E90054D1E90223C0F81051C0F8104123
S3150FE118C0C0F81021C0F81031D1E90454D1E906234B
S3150FE118D0C0F81051C0F81041C0F81021C0F810310E
S3150FE118E030BD00221A60D1E90054D1E902234562E5
S3150FE118F0446242624362F3E7F0B58C0789B006466C
S3150FE119000B4615460FD0082A6C4610D101F1100788
S3150FE1191018685968224603C20833BB421446F7D109
S3150FE119202A4669463046FFF7BAFF09B0F0BD01F125
S3150FE11930200718685968224603C20833BB4214468A
S3150FE11940F7D1EDE72422002101F0D1BC38B51446D9
S3150FE119500D462422002101F0CAFC802C034602D059
S3150FE11960B4F5807F08D11846E20840F8044B2946C2
S3150FE1197001F0B2FC002038BD6FF07100FBE72DE9F5
S3150FE11980F04F85B0814688460193174652B11668E6
S3150FE11990D9F80030802B03D0B3F5807F40F09B80E0
S3150FE119A000240DE01646F3E7A6B10F9B0E9A1B5DD9
S3150FE119B0925D5340109A0136135506F00F06013426
S3150FE119C04445F1D3002F00F089803E60002005B039
S3150FE119D0BDE8F08F00F084F84FF4404346600360B2
S3150FE119E00546FFF761FDD9F80030802B824614BF1B
S3150FE119F01022082209F104012846FFF77DFF05F1C0
S3150FE11A008403184601990093FFF727FF5046A8EB89
S3150FE11A10040A2AF00F0AFFF74BFDA24403235445AC
S3150FE11A2019D10F9B03EB040A109B1C440F9B03EB8D
S3150FE11A30080B0323DA452CD1FFF736FD0446DDE922
S3150FE11A400001FFF7EBFE2046FFF732FD284600F0D7
S3150FE11A5051F84446B4E74822AA600522AA602A69EA
S3150FE11A609107FCD4AB600293FFF71EFD0F9B8346F4
S3150FE11A70191905F1A000FFF7F0FE109B05F18000A3
S3150FE11A801919FFF7CBFE5846FFF712FD1034029BEB
S3150FE11A90C5E7AEB94822AA600522AA602A6992076C
S3150FE11AA0FCD4AB600393FFF7FFFC0E99029005F1AF
S3150FE11AB08000FFF7B3FE029A1046FFF7F9FC039B8E
S3150FE11AC00E991AF8012B895D01364A4004F8012B6C
S3150FE11AD006F00F06AEE76FF0200078E7384676E7B7
S3150FE11AE0024B034801221A60704700BF0016C84334
S3150FE11AF000000F40094B98420ED003F580639842E0
S3150FE11B0009D10122064B03EBC2035A68054B134475
S3150FE11B109B0000221A6070470022F3E700000F4096
S3150FE11B205834E10F8005F2102DE9F04F99B00746D1
S3150FE11B300E4690461D46FFF7D3FF04462FB1022FFF
S3150FE11B4000F2E5800423036000E007600023636091
S3150FE11B50E364626822F4406262602363636356F86A
S3150FE11B60232012BA4DF823200133082BF7D1FFF7C3
S3150FE11B709BFC009BC4F80431019BC4F80431029B22
S3150FE11B80C4F80431039BC4F80431049BC4F804314F
S3150FE11B90059BC4F80431069BC4F80431079BC4F8CE
S3150FE11BA00431FFF785FCDFF874A15A4B2365002654
S3150FE11BB008F00309229B9E4239D1AB0700F08A80D8
S3150FE11BC0FFF772FCD4F80061D4F80011D4F80021C4
S3150FE11BD0D4F80031CDE90061CDE90223D4F80061F3
S3150FE11BE0D4F80011D4F80021D4F80031CDE904611D
S3150FE11BF0CDE906232E46FFF75BFC08AF6B461A4687
S3150FE11C0003CABA4230607160134606F10806F6D18F
S3150FE11C102046FFF76FFF2B1F1C3553F8042F12BA1F
S3150FE11C20AB421A60F9D1002019B0BDE8F08F08EB8D
S3150FE11C30861BB9F1000F0FD008AA0BF1400CDBF8A8
S3150FE11C400000DBF80410134603C30BF1080BE34561
S3150FE11C501A46F4D10DF1200BFFF726FCDBE9013132
S3150FE11C60DBF80C20DBF80070C4F8A471C4F8A431DA
S3150FE11C70C4F8A411C4F8A421DBE90531DBF81C2073
S3150FE11C80DBF81070C4F8A471C4F8A431C4F8A41138
S3150FE11C90C4F8A421DBE90931DBF82C20DBF820704D
S3150FE11CA0C4F8A471C4F8A431C4F8A411C4F8A421EA
S3150FE11CB0DBE90CC1DBE90E23C4F8A4C1C4F8A41116
S3150FE11CC0C4F8A421C4F8A431FFF7F2FB0136C4F836
S3150FE11CD050A06FE7FFF7E8FBD4F80061D4F80011E5
S3150FE11CE0D4F80021D4F80031C5E90061C5E9022332
S3150FE11CF0D4F80061D4F80011D4F80021D4F80031FA
S3150FE11D00C5E90461C5E90623FFF7D2FB80E702487F
S3150FE11D108AE700BF888AC80180AFFFFF070D8101FF
S3150FE11D202DE9F3470228144680460E461F46DDE9A4
S3150FE11D300A924ED81CB9002002B0BDE8F0871368AD
S3150FE11D403F2B42D8516809B1002F3ED1B8F1010FAF
S3150FE11D503DD0224D2249B8F1020F18BF0D4603F0CF
S3150FE11D603F00E318136022BF53680133536090B30A
S3150FE11D70C0F1400A544522D331465246484401F058
S3150FE11D80ABFA012300934A463B4629464046A4EB6C
S3150FE11D900A04FFF7C9FE3F2C56440DD93D46A30968
S3150FE11DA0009332463B4629464046FFF7BDFE24F0F7
S3150FE11DB03F031E4404F03F04002CBCD00020224612
S3150FE11DC03146484401F088FAB5E73D46C7E7054D88
S3150FE11DD0C5E70548B0E73F2CF1D9E0E7A834E10FB5
S3150FE11DE06834E10F8834E10F80AFFFFF2DE9F04151
S3150FE11DF0012886B004460E4690461D4604D045D3CB
S3150FE11E00022841D022483CE01C272A68D3008DF8EE
S3150FE11E100F3053098DF80E30530B8DF80D30530DEE
S3150FE11E208DF80C306B68D90001EB52718DF80B1000
S3150FE11E3002F03F025909372A8DF80A104FEA53315A
S3150FE11E404FEA535394BFC2F13802C2F178028DF8CB
S3150FE11E5009108DF808300F493346CDE90085204644
S3150FE11E60FFF75EFF08220DEB02013346CDE9008550
S3150FE11E702046FFF755FF3A4631460C9801F02CFA0A
S3150FE11E80002006B0BDE8F0812027BEE71427BCE7A6
S3150FE11E9080AFFFFFC834E10F6C22002101F027BAB2
S3150FE11EA007B590F868300190002B00F128030093F5
S3150FE11EB000F1080314BF01200220FFF731FF03B041
S3150FE11EC05DF804FB07B590F868200091002A0346F8
S3150FE11ED000F1280200F1080114BF01200220FFF7EB
S3150FE11EE085FF03B05DF804FB00239942D4BF0021BF
S3150FE11EF00121C0E9003380F868107047FFF7D0BFC2
S3150FE11F00FFF7E0BF002070470020704700207047C1
S3150FE11F10002070470020704701207047014B1B6876
S3150FE11F20186970472808E10F014B1868704700BF21
S3150FE11F302800E10F014B1868704700BF2808E10F31
S3150FE11F40044B054A1B68196891420CBF18690020BA
S3150FE11F50704700BF2800E10FAD1007B001207047B1
S3150FE11F6010B5E0B04FF4BE7201A9002000F058F9A8
S3150FE11F7040F20124002101A800F095F8A042F9D022
S3150FE11F8040F20323984203D040F2054060B010BD02
S3150FE11F909DF8043003F00302022AF5D09A0710D513
S3150FE11FA00D4A02991268926891420AD95C9800F03B
S3150FE11FB069F90028E8D0FFF7C3FF0A9901F0B8F8ED
S3150FE11FC0E2E7DB07E0D504995C9800F07FF900289A
S3150FE11FD0DAD00020DAE700BF2808E10FFFF7C0BF2C
S3150FE11FE0004870474A43E00F004870476A43E00FE5
S3150FE11FF0004870478642E00F31B10A4B5A68824278
S3150FE1200005D80023C1E9003340F2014070470130A2
S3150FE1201053F830200A6003EBC00300205B684B6086
S3150FE12020704700BF4034E10F01221A70704700007C
S3150FE1203070B40D4C0E461146626882420DD90130DD
S3150FE1204004EBC002F518526895420AD854F83000ED
S3150FE120501A46304470BCFFF795BB40F2014070BCA5
S3150FE12060704740F20240FAE74034E10F30B5A3B0D2
S3150FE1207004460D4602AAD0F87411D0F86C018023FC
S3150FE12080FFF7D6FF0095802302AA214604F1280027
S3150FE1209000F0B0FAD4F87431C4F878018033C4F89B
S3150FE120A0743123B030BD1FB50023CDE90033CDE93F
S3150FE120B00213D0F878310446A3B9D0F87421D0F8D9
S3150FE120C070319A420ED26946FFF7D0FFD4F8780104
S3150FE120D098B141F2070240F20123904208BF184638
S3150FE120E004B010BDA3785BB1E27840F2022040F272
S3150FE120F00323002A18BF1846F2E740F20120EFE763
S3150FE1210040F20220ECE7000070B586B006AB0D4653
S3150FE12110002103F8111D02931E4B1160044616466A
S3150FE1212028461C22CDE90333059301F0E0F89DF82B
S3150FE12130072062B994F86E30112B08D0D4F87831B4
S3150FE121402BB9D4F87411D4F8703199421AD3237894
S3150FE12150990744BF636833602378DB0709D504F138
S3150FE12160080304F1240153F8040B45F8040B8B42E1
S3150FE12170F9D162B92378002B40F2064018BF00204F
S3150FE1218006B070BD02A92046FFF770FFCFE700202A
S3150FE12190F6E700BF2920E10F70B40D4C0E4611464C
S3150FE121A0626882420DD9013004EBC002F51852681C
S3150FE121B095420AD854F830001A46304470BCFFF7FE
S3150FE121C0F0BA40F2014070BC704740F20240FAE7C4
S3150FE121D04034E10F074B5A68824207D9013003EBCE
S3150FE121E0C00253F830005168FFF7F7BA40F20140E9
S3150FE121F0704700BF4034E10F10B5044660B14FF4AC
S3150FE1220080320023C0E90023044B1A785B6802721F
S3150FE12210C360FFF7A9FA206110BD00BF4034E10F9B
S3150FE1222037B50C4605461146204600F093FF48B9EF
S3150FE1223069462846FFF7E0FE20B9019BC4F86C51C9
S3150FE12240C4F8703103B030BD38B500F5807204467D
S3150FE122500D46202300F1B801283000F091F9D4F8AA
S3150FE1226078312BB9D4F87421D4F870319A4203D36B
S3150FE12270A07800B1E07838BD29462046FFF7F6FE93
S3150FE12280EDE7000030B5E5B00D460446FFF752FE27
S3150FE122908368AB4202D3002065B030BD4FF4BE7206
S3150FE122A005A92046FFF7BCFF0028F4D102238DF8DC
S3150FE122B01530CDE901000390034B049301A905A85D
S3150FE122C0FFF7C2FFE8E700BF552FE10F00B5E5B015
S3150FE122D04FF4BE7205A9FFF7A3FF70B901238DF87D
S3150FE122E01530074B0190CDE90230049001A905A8FD
S3150FE122F0FFF7AAFF65B05DF804FB0020FAE700BF20
S3150FE123002B2FE10F002303604FF0FF3201238B42A6
S3150FE1231001D30020704740F823200133F7E7036824
S3150FE123200133012B40F2045098BF0020704740F271
S3150FE123300250704770B5D1E90152AA4205D290F821
S3150FE1234040302B449B1A402B10D9002012E00A682B
S3150FE1235090F84040D65C90F84120224402F03F02CB
S3150FE123600133013486548B6080F840408B689D427F
S3150FE12370EDD8012070BD2DE9F8431746D1E90125C6
S3150FE12380521B90F840509DF820909DF824802A44E6
S3150FE12390934204460E4657D9FFF7CCFF00285DD18D
S3150FE123A0122384F8463041F20200BDE8F88394F82F
S3150FE123B04120A25C7A5594F84120013202F03F02A6
S3150FE123C084F8412094F84020013A84F84020013501
S3150FE123D094F8402012B1AB42E9D11D46D6E901127C
S3150FE123E08A4201D2AB4231D8AB42D9D1D4F8882057
S3150FE123F029463846FEF738FBC4F88800B9F1000FD5
S3150FE1240004D02A463946E06CFEF7C6FBB8F1000F59
S3150FE1241008D094F843302BB12B463A463946A06C97
S3150FE12420FEF760FB94F8433043B1E36DA26D2B44A5
S3150FE124309342E36524BF002384F84330636D1D4463
S3150FE12440656541F20300B0E70025C1E731688A5CB3
S3150FE124507A55B2680132B2600135BFE70020A4E7D1
S3150FE124607FB50023CDE90033082315460DEB0302B3
S3150FE124700446FFF780FF41F203039842064626D151
S3150FE1248094F8433063B108220DEB0201E06CFEF7DD
S3150FE1249083FB08230DEB03021146A06CFEF722FB2B
S3150FE124A0039A6A6094F84320029B2B605AB9094A52
S3150FE124B0934208D0084A934205D008220DEB020158
S3150FE124C0E06CFEF769FB6B682365002363653046B5
S3150FE124D004B070BDF70A0AF7FC0404FC2DE9F843D2
S3150FE124E0044658680D4616461F46002843D08B070B
S3150FE124F043D1FFF713FD216E00F1040C06EB010941
S3150FE12500CC451DD800F11C02914219D28C45634688
S3150FE1251038BF0B46591AA3EB0C00914594BFC3EB99
S3150FE125200909C3EB020905EB010868304A46414642
S3150FE12530204400F0D1FE4A46FF21404600F0D7FE87
S3150FE12540FFF7FEFC226E031D93420AD3B118083042
S3150FE12550814206D39B1AEA58C4F880204FF0FF3226
S3150FE12560EA50D7E900383246206E2946C047236E36
S3150FE125701E4426660020BDE8F88341F20200FAE721
S3150FE12580F8B504464FF0FF36154603F02003002257
S3150FE1259080F84620A0F8402080F8432080F84520B7
S3150FE125A080F84420C0E918220F4680F84230C0F87F
S3150FE125B088601822FF21683000F099FEC4F8806028
S3150FE125C0C4F88460C4E91275FFF7A2FC18B117B914
S3150FE125D041F20B00F8BDFFF799FC30B1002DF7D0B2
S3150FE125E0E06CFEF7CFFA0020F4E7002DF8D128468C
S3150FE125F0F0E700002DE9F04F9DB0CDE909230393F4
S3150FE12600269EDFF8F4B30023044688460B939946DA
S3150FE126100B9A039B9A4259D294F84630122BF8D86B
S3150FE12620DFE813F05D0076005600A200CF013D0012
S3150FE12630340007023D0001023D000102EA028E036A
S3150FE126401300550359036F028E030027636D0F2B9A
S3150FE1265043D8012510230CAA0197009509A9204615
S3150FE12660FFF789FE0690069A41F203039A4241D19A
S3150FE12670D4F848A0FFF7BCFC8023CDE900030DAAEF
S3150FE126802B4602215046FEF70BFADFE70125D4E987
S3150FE1269014329A42C0F0258184F84650B8E70DF11D
S3150FE126A0300AD4E91452AA420B9916D20A9BAD1AF3
S3150FE126B094F840205B1A032D134440F2BE81032B9D
S3150FE126C000F2E48109A92046FFF734FE002050E02D
S3150FE126D00025636D072B40F2CB80012315E007AA96
S3150FE126E009A92046FFF7BCFE0690069A41F20303BD
S3150FE126F09A4201D006983CE0089B23650023636567
S3150FE12700079AB24B9A422FD1022384F846307FE7DC
S3150FE1271007AA09A92046FFF7A3FE0690069A41F2FA
S3150FE1272003039A42E6D194F84420079B22B1A84AC3
S3150FE12730934219D10C23E8E794F84220D1074FD5FC
S3150FE1274094F84320002A40F0FE82A24A934241D0F8
S3150FE1275017D8A14A934207D00ED89C4A934203D089
S3150FE1276002F1B642934215D1122384F8463041F273
S3150FE1277001001DB0BDE8F08F984A9342F4D0984A14
S3150FE12780F0E7984A93421BD00CD85B4543D0964A63
S3150FE12790934217D0122384F8463007A8FFF7B2FB0E
S3150FE127A0D8B1E4E7914A9342DED0914A9342DBD026
S3150FE127B0874A9342EED1FFF7A9FB0028BAD0D3E7B8
S3150FE127C00E23A2E70F2384F84630236DA36500237A
S3150FE127D0E3651DE7122384F8463041F20800C8E7A6
S3150FE127E05B4514D000F2B3827C4A934207D07C4A10
S3150FE127F0934206D0784A93420FD1062385E7042305
S3150FE1280083E7072381E709237FE70B237DE794F826
S3150FE128104330002BA8D1102377E707A8FFF772FB08
S3150FE12820E0B11123079884F84630C4F88C00FFF71E
S3150FE128306BFB94F842309A0681467FF5E9AE0028A4
S3150FE128403FF4E6AE4368002B3FF4E2AE20469847ED
S3150FE128500690069B002B3FF4DBAE88E7122384F844
S3150FE12860463094F84330002BB7D041F2040080E7AD
S3150FE12870012300930CAA0823019509A92046FFF726
S3150FE128807AFD0690069A41F203039A427FF432AF3C
S3150FE128900C9B03F07F43B3F1407F05D0122384F8FD
S3150FE128A0463041F2090064E70D9B0593DB070ED530
S3150FE128B094F8423043F0010384F84230FFF726FBE8
S3150FE128C000283FF406AF059BDF0504D501E7FFF7C7
S3150FE128D01FFB0028F2D0122384F8463041F20A009A
S3150FE128E047E70CAACDE9005509A92046FFF743FDB5
S3150FE128F00690069A41F203039A427FF4FBAE08F182
S3150FE1290008070DF1300C3B460DF1480E624603CA3E
S3150FE12910724518605960944603F10803F6D11068C1
S3150FE12920186098F8003043F0010388F80030384614
S3150FE12930FFF714FB28B9122384F8463041F20C0055
S3150FE1294017E700213846FFF7E7FA00287FF49FAE35
S3150FE12950F1E70123CDE900330CAA082309A92046A3
S3150FE12960FFF709FD0690069A41F203039A427FF4B7
S3150FE12970C1AE98F8003043F0020388F800300C9BA3
S3150FE12980C8F80430236D083BC8F824300D9B059336
S3150FE12990FFF7CAFA174A036893427FF4E8AEFFF7E7
S3150FE129A0C3FA059BC2689A427FF4DEAE052384F82B
S3150FE129B0463094F8453043F0010384F8453000235F
S3150FE129C06366636D072BC4D922E600BFEB17A60337
S3150FE129D0FC0404FCF70909F7F40A0AF4F50909F509
S3150FE129E0F60808F6FA0606FAF90707F9FD0303FDF5
S3150FE129F0FE0101FEAD1007B0F70A0AF704230CAA90
S3150FE12A00CDE9005509A92046FFF7B5FC0690069AD0
S3150FE12A1041F203039A427FF46DAE226D0C9B05934F
S3150FE12A20042A01D923660125636D032BE6D90A230F
S3150FE12A306BE600236366082367E69D423FF642AEE7
S3150FE12A409D4228BF1D46032D88BF25F003050123AF
S3150FE12A50CDE9003352462B4609A92046FFF78BFCF9
S3150FE12A600690069A41F203039A427FF443AE94F835
S3150FE12A704630082B13D1B7688FB13368606E2A469B
S3150FE12A805146B847636E1D4465660AE6402D28BF79
S3150FE12A904025D5E74FF0FF320AF805200135032D22
S3150FE12AA0F8D90A2B11D173683BB1012108F108005E
S3150FE12AB0FFF732FA00283FF43EAF33462A46514636
S3150FE12AC02046FFF70BFD0690EBE5052B7FF4E9AD0D
S3150FE12AD098F8013098077FF5E4ADF368002B3FF4E2
S3150FE12AE0E0AD626E042A0AD85319062B07D90DAB4E
S3150FE12AF09B1A1A68C4F884204FF0FF321A60F76800
S3150FE12B00BBE794F84230990607D5D4F88C00FFF766
S3150FE12B10FBF9814600283FF42AAE73683BB10121E8
S3150FE12B2008F10800FFF7F8F900283FF404AF012791
S3150FE12B3043E0002B5ED0B9F1000F5BD0D9F810302E
S3150FE12B40002B57D020469847DDE90A53ED1A94F842
S3150FE12B5040302B4498423FF6B5ADD4E91452AD1A45
S3150FE12B60402D28BF40259D4228BF1D462B460CAA66
S3150FE12B70CDE9007709A92046FFF7FDFB0690069AF6
S3150FE12B8041F203039A427FF4B5AD94F842309A06C7
S3150FE12B9013D5B9F1000F3FF4EAADD9F808A0BAF1B0
S3150FE12BA0000F3FF4E4AD33462A460CA92046D04741
S3150FE12BB00690069B002B7FF49DADD4E9142194F882
S3150FE12BC04230914203F02003B3D3002B3FF485AD9E
S3150FE12BD0B9F1000F3FF481ADD9F80C30002B3FF47A
S3150FE12BE07CAD3146204698470690069B002B3FF475
S3150FE12BF074AD7FE50120A7E70023CDE900330CAAE9
S3150FE12C00042309A92046FFF7B6FB0690069A41F27F
S3150FE12C1003039A427FF46EADD4F88820574B9A425C
S3150FE12C2005D0122384F8463041F20500A1E5FFF7FE
S3150FE12C306DF910B9012388F8033098F80330002BAA
S3150FE12C403ED094F845309B0707D0F5682DB10422A5
S3150FE12C50336804F184011046A847236E83B3736882
S3150FE12C6073B31CAF4FF0FF3347F85C3D04F18009B6
S3150FE12C7004224946384600F020FB40B1FFF760F9E0
S3150FE12C8028B10422D6E9003549461044A84704F194
S3150FE12C90680504222946384600F00FFB80B17768B4
S3150FE12CA0FFF73CF93368142204F16C010830B84799
S3150FE12CB07768FFF733F90422336829461044B8479A
S3150FE12CC0012388F802300D2384F84630FEE4012310
S3150FE12CD084F8433019E594F84450002D7FF4FDACA8
S3150FE12CE040230CAACDE9005509A92046FFF743FB7E
S3150FE12CF00690069A41F203039A427FF4FBACE06C2D
S3150FE12D00FDF74CFFE76CFFF76BF98246FFF76CF9BE
S3150FE12D105346009014AA0CA93846FDF7F5FE069026
S3150FE12D20069B3BB1122388F8035041F2060084F863
S3150FE12D3046301EE5012388F8033084F84430CCE4AD
S3150FE12D4041F2070015E55B457FF44CAD0CE50C4A06
S3150FE12D5093423FF45AAD0B4A93423FF454AD0A4ABC
S3150FE12D6093427FF45AADFFF7D1F800287FF4FCAC1C
S3150FE12D7094F84330002B3FF4DDACF5E4E320BBDE02
S3150FE12D80FD0303FDFE0101FEFC0404FC13B50B4636
S3150FE12D901446820753BF6FEA03434FF6FF7242EAC7
S3150FE12DA003436FEA13430193042320F003010DEB71
S3150FE12DB003022046FEF75EFC02B010BD07B50346DF
S3150FE12DC09B0753BF6FEA01414FF6FF7343EA014198
S3150FE12DD06FEA11410422019120F003000DEB02018C
S3150FE12DE0FEF746FC03B05DF804FB08B5FEF7F8FB0A
S3150FE12DF0B0FA80F0400908BD072B2DE9F0410546F1
S3150FE12E000E4614461F4602D90020BDE8F081012186
S3150FE12E104FF4AA40FEF70AFB0CB90120F5E744EAA5
S3150FE12E200503DA07F0D4AB0726D53A4631882846AB
S3150FE12E30FFF7ACFF0028E7D1023C032C05F10205B1
S3150FE12E4006F102060DD924F0030843463246294618
S3150FE12E503846FEF70FFC0028D6D146444544A4EB8D
S3150FE12E600804002CD9D03A4631882846FFF78EFF61
S3150FE12E70B0FA80F04009C8E7032CE4D8F3E7F8B5D8
S3150FE12E8005460E4614460AB90120F8BD42EA00038B
S3150FE12E90DA0701D50020F8E7830721D50988FFF77F
S3150FE12EA08DFF0028F6D1023C032C05F1020506F150
S3150FE12EB002060BD924F003073A4631462846FEF7B8
S3150FE12EC0D7FB0028E6D13E443D44E41B002CDBD082
S3150FE12ED031882846FFF772FFB0FA80F04009D4E750
S3150FE12EE0032CE7D8F4E7C0F30A032DE9F0410546D1
S3150FE12EF00F4616460BB9FFF778FF05F5006424F484
S3150FE12F00FF6424F0070405EB0608A04507D832460F
S3150FE12F10394628460223BDE8F041FFF76DBF20464B
S3150FE12F20FFF763FF04F50064EFE770B504460E465D
S3150FE12F301546FEF7FFFF0369A3420AD842696319F3
S3150FE12F409A4206D32A4631462046BDE87040FFF73E
S3150FE12F50CABF70BD2DE9F041154607468846FEF713
S3150FE12F60E3FF104B02689A4219D1FEF7E3FF0646DB
S3150FE12F70FEF7E6FFC4196319B3F5801F0FD83FB902
S3150FE12F80FEF7DEFF7369834202D93069FFF72DFF42
S3150FE12F902A4641462046BDE8F041FFF7A4BFBDE80A
S3150FE12FA0F08100BFAD1007B0F0B50F4B85B06C46A1
S3150FE12FB0024603F11007264618685968254603C5E8
S3150FE12FC00833BB422C46F7D104AB501E13F8011D53
S3150FE12FD010F8012F914204D1B342F7D1012005B088
S3150FE12FE0F0BD0020FBE700BF4C35E10F007C012867
S3150FE12FF08CBF00200120704770B59EB040F204638C
S3150FE13000446B02930546FEF795FF06462046FFF70A
S3150FE13010CBFF10B900201EB070BD2046FFF7E6FFCB
S3150FE130200028F7D0FEF776FF48BB2046FFF7BCFF37
S3150FE1303060BB3369A342EDD8A542EBD8B4F5801F47
S3150FE13040E8D803A8FDF79EFD621B294603A8FDF705
S3150FE13050A3FD03A8FDF7A2FDFEF7C2FF0546FEF7A6
S3150FE13060C3FF2B46009004F12002214603A8FDF78A
S3150FE130704BFD02900298B0FA80F04009CBE70121AF
S3150FE13080206AFDF731FC0028CFD1C3E76369012B35
S3150FE13090C0D12046FFF7AAFF0028BBD0A469C8E735
S3150FE130A0F8B5D0E9006706F160460446456BFEF7D1
S3150FE130B041FFB6F5802F01D90020F8BD0369BB4268
S3150FE130C0FAD8B7F5801FF7D84033AB4202D8B5F53A
S3150FE130D0801F05D9FDF7C6FC80F00100C0B2ECE711
S3150FE130E0FDF7C0FC20B12046BDE8F840FFF784BFED
S3150FE130F02846FFF759FFB8B12846FFF777FF0028B3
S3150FE13100DAD06B69002BD8D0022BECD1AB69C4F1C5
S3150FE13110040119444FF0FF322046FDF7A5FC034B9E
S3150FE13120C31A58425841C8E70120C6E7E320BBDE80
S3150FE1313008B54FF0FF32FDF797FC054B984205D1E5
S3150FE13140FDF7D4FB40F2092000F082F8002008BD1C
S3150FE13150E320BBDEB1F5BE7F10B5044610D34FF4C5
S3150FE13160BE72002100F0C3F80023637004F580728C
S3150FE1317004F1B80104F12800BDE81040FFF700BAE9
S3150FE1318040F2052010BD13B50446009101462830E3
S3150FE13190FFF730FAC4F8780118B141F20703984204
S3150FE131A009D1A3784BB1E27840F2032040F2022332
S3150FE131B0002A08BF184602B010BD40F20120FAE717
S3150FE131C02DE9F04387B002AF04460E9E884691463D
S3150FE131D00021102238461D4600F089F800213160A2
S3150FE131E01C22284600F083F84B46424600972146BB
S3150FE131F004F12800FFF7FEF923789A0744BF6368C5
S3150FE1320033602378DB0709D504F1080304F12402BF
S3150FE1321053F8041B45F8041B9342F9D12378002B8D
S3150FE1322040F2064018BF002007B0BDE8F0834FF427
S3150FE13230BE7070474FF000534FF20F0218805A805D
S3150FE1324070474FF000534CF23C325A807047000002
S3150FE132504FF000534FF20F025A800A4A1880136853
S3150FE1326023F4E06343F400731360BFF34F8F064912
S3150FE13270064BCA6802F4E0621343CB60BFF34F8F8C
S3150FE1328000BFFDE700500E4000ED00E00400FA0537
S3150FE132904FF000534FF20F015A888A4201D1188835
S3150FE132A070473AB91B88012B40F2022018BF4FF441
S3150FE132B0007070474FF40070704730B50024A2429A
S3150FE132C001D1002007E0035D01340D1915F8015C0A
S3150FE132D0AB42F4D0581B30BD10B5431E0A449142A0
S3150FE132E000D110BD11F8014B03F8014FF7E7024486
S3150FE132F00346934200D1704703F8011BF9E700003B
S3150FE13300F8B500BFF8BC08BC9E467047F8B500BFDC
S3150FE13310F8BC08BC9E46704707B0CD5E01000000C1
S3150FE1332000000B016C2D00000000000000001000F2
S3150FE13330F0000100EF08E10FF308E10FA130E10F13
S3150FE133405531E10F8731E10F0835E10FC131E10F5A
S3150FE133502F32E10F0000000013B779FAC925DDB767
S3150FE13360ADF3CFE0F1B614B80101000002000000A1
S3150FE133706835E10F4000000000000B01000000007E
S3150FE133800000000000000000000000000000000047
S3150FE133900000000000000000200000000001000016
S3150FE133A0050C0000FFFFFFFFFFFFFFFFFFFFFFFF22
S3150FE133B00000000000000000000000000100000016
S3150FE133C0FFFFFFFF512563FCC2CAB9F3849E17A71E
S3150FE133D0ADFAE6BCFFFFFFFFFFFFFFFF00000000B6
S3150FE133E0FFFFFFFF96C298D84539A1F4A033EB2D25
S3150FE133F0817D0377F240A463E5E6BCF847422CE111
S3150FE13400F2D1176BF551BF376840B6CBCE5E316B54
S3150FE134105733CE2B169E0F7C4AEBE78E9B7F1AFE18
S3150FE13420E242E34F010203002800000028000000FA
S3150FE1343000080000000010005034E10F0200000008
S3150FE134400100000001000000004008000000070035
S3150FE13450454652333200000000000F4000000000E5
S3150FE1346000040F400100000067452301EFCDAB8952
S3150FE1347098BADCFE10325476C3D2E1F000000000B8
S3150FE134800000000000000000C1059ED8367CD5077C
S3150FE134903070DD17F70E5939FFC00B31685815112A
S3150FE134A064F98FA7BEFA4FA46A09E667BB67AE85D3
S3150FE134B03C6EF372A54FF53A510E527F9B05688C20
S3150FE134C01F83D9AB5BE0CD1980000000000000003F
S3150FE134D000000000000000000000000000000000F6
S3150FE134E000000000000000000000000000000000E6
S3150FE134F000000000000000000000000000000000D6
S3150FE13500000000000000000000010000F921E10FBA
S3150FE13510F91FE10F3120E10F9921E10FD521E10FDC
S3150FE135201F23E10F0523E10F2F23E10F2122E10FE6
S3150FE13530A720E10F0921E10F7517E10F8517E10FBC
S3150FE13540A317E10FDB17E10FD517E10FB814B6F1AA
S3150FE13550E0CFF3ADB7DD25C9FA79B7130000000067
S3110FE135606508E10F4108E10F65AA88B587
S5030330C9
S70500000000FA
