S01200006E63702D756172742D68772E733337AC
S3150000000010E20320B90003002D6E0000D1FC0200AF
S31500000010A70A02020002000004180FAC0168F100F2
S3150000002000000000000000000000000000000000CA
S315000000300000000058060300000000000000000059
S315000000400000000000000000FFFFFFFFFFFFFFFFB2
S31500000050FFFFFFFFFFFFFFFFFFFFFFFFFFFFFFFFAA
S3150000006000700F000000000000000000FFFFFFFF0F
S31500000070FFFFFFFF1C000000000000000000000062
S31500000080000000000000000030FD032030FD0320CA
S3150000009010E203208D260300D2000300B0D803200F
S311000000A0FC14002000001000000000000E
S3150000020010E20320B90003002D6E0000D1FC0200AD
S315000002106D830000D5FC0200D9FC0200000000003E
S315000002200000000000000000000000006F05000054
S31500000230DDFC02004F0400007B1900009F22000035
S31500000240218500006BA90200A1240000E5FC020044
S315000002502DA40200A7A9020071A9020073A9020039
S315000002606DA90200571D0100C51F0100E17F0000B6
S3150000027023490000E5FC0200E5FC0200AFFE020097
S31500000280E5FC0200E5FC0200D31F0100E5FC0200CC
S31500000290E5FC0200E5FC0200E5FC0200E5FC0200CC
S315000002A0E5FC0200E5FC0200E5FC0200E5FC0200BC
S315000002B0A9A902006FA90200FD120100D9A9020036
S315000002C0E5FC02001D000300E5FC0200E5FC02005F
S315000002D0E5FC0200E5FC0200E5FC0200E5FC02008C
S315000002E0E5FC0200E5FC0200E5FC0200E5FC02007C
S315000002F0E5FC0200E5FC0200E5FC0200E5FC02006C
S31500000300E5FC0200E5FC0200000000005041034845
S31500000310016830BF41F000410160704700BF4C31B9
S315000003200E401248816B89B201B1012141F671324A
S31500000330826346F21A32036843F001030360C26423
S315000003404FF4807343604269D307FCD44FF40072C4
S31500000350420C00180022C264C9B203685B085B0045
S31500000360036001B182630020704708000E40000060
S315000003702DE9F84F8046DFF87C90FF22242148467D
S3150000038000F048F8DFF870B0FF224FF49571584638
S3150000039000F040F819481A4F1A4C00904FF0240A02
S315000003A00026A25D1849BD5D885D521C02EBD27223
S315000003B0521000B11932154830F816100098D21CA8
S315000003C06A4300F06EF8012D1CBF2BF816A0AA4454
S315000003D0761C242EE5DB24234FF480524FF4B061C3
S315000003E00B4800F05EF849464046BDE8F44F00F081
S315000003F0AEBB00BFDCE80320DCE90320D400030029
S315000004004C0303002803030004030300BC0203009B
S31500000410F000030062F30F2262F31F4200B500BF33
S31500000420130096469446103928BFA0E80C50FAD817
S315000004305FEA417C28BF0CC048BF40F8042BC907BF
S3150000044028BF20F8022B48BF00F8012B00BD7047DB
S315000004503D49087070472DE9F041160088463A4C30
S315000004601CD0A078677865683F1AFFB2F3B2BB422A
S31500000470B8BFF7B23A464146281801F033FAA378D6
S31500000480FB18F61BA370B844F0B238B1A11C28467D
S3150000049001F045FB0028E4D0012000E00020BDE883
S315000004A0F0810EB430B5284D04462878A0B0B0B11E
S315000004B001F0BFFA98B18021684669706860022130
S315000004C001F0BDFAA87023AB224600211F4801F0B7
S315000004D0AAFB6868A91C01F022FB00B9A87020B02D
S315000004E030BC5DF810FB1A4800210022002380E88A
S315000004F00E007047164931F81020521C21F81020C2
S3150000050070470CB480B502AA01F0C6FC01BC5DF8C8
S315000005100CFB0D4A1178A1B9010018BF012810D0B3
S31500000520042818BF05280CD0312818BF332808D056
S3150000053037281EBF3B284FF6FF71884201D00120A5
S315000005407047002070470000FCF1032057040000AC
S3150000055004F20320302818BF322806D034281CBFE6
S315000005603628382801D00020704701207047FEE762
S3150000057030B5DFF8485ADFF8484A2B882468C01A95
S3150000058004EB4004002004E034F8103021F8103069
S31500000590401C9042F8DB002030BDDFF8203ADFF83F
S315000005A0201A1A880968801A01EB4001022001F01E
S315000005B095BDF8B504460F461646DFF8045AF0B264
S315000005C008B34FF6FF70ADF80000002017F8011BC6
S315000005D0C3B2401C0DF80310761EC1B2022902DA1E
S315000005E0F1B20029F2D1DFF8D4E92868BEF800306C
S315000005F01FFA84FCACEB030300F01CFF641C010033
S31500000600DDD000F0EBBB0120F2BDF8B504460D4687
S315000006101646F0B288B1012200F010F8641C0020E2
S31500000620C2B2401C1DF80230761EC7B2022F05F872
S31500000630013BEEDAF1B20029F2D1F1BD6946A0B272
S3150000064096E70146DFF87C09DFF87C29405C525CBE
S31500000650DFF8C03B595C09B102F5997240EAC21055
S3150000066080B2704710B5DFF85C39DFF8AC2B1C5C44
S31500000670012C1CBF32F81000081802EB400010BD18
S3150000068070B590B005460C464FF6FF7604E0A8B26A
S31500000690FFF783FF203D2035A9B28C420DD32022DF
S315000006A001F00AF8002082B23DF81230B342EED1D2
S315000006B0401C81B22029F6DBEDE710B070BD10B505
S315000006C0044661882088FFF7DBFF0121DFF84C2B09
S315000006D0DFF84C3BA171208811784118188801EB8E
S315000006E04001891DA18010BD10B5DFF8384B00F020
S315000006F087F800F040F900F03BF9DFF8840C04F1CC
S315000007000801446004F110028160C26010BD2DE949
S31500000710F0430446DFF8040B0778B946B9F1060F33
S3150000072085B003DD4FF4377100F010FB0021A17195
S315000007307A1C208892B201A9FFF71AFFBDF80410AF
S315000007404FF6FF76B14218BF002910D00DF104080C
S31500000750711A38F81900884209D101254D454BDA3E
S3150000076038F8150040B1BDF80410884214D000F0E6
S3150000077047F805B0BDE8F083DFF8081C0A88208832
S3150000078012FB052141186A437118101889B280B20C
S31500000790FFF776FF0221A1716D1CDFE7208838186C
S315000007A000F08EFFBDF80200000B4845DFD120881F
S315000007B03818401D00F085FFBDF80210BDF8020094
S315000007C0711A000A01F0FF018842D0D10320A071FE
S315000007D0012220883F187F1C6946B8B2FFF7C8FE81
S315000007E0BDF80000FF2802D10421A171C1E7B04283
S315000007F0BFD00028BBD1BCE7A0790228CED1B8E78C
S3150000080020465CE7F8B5DFF81C4ADFF8745B002089
S3150000081004F1080104F11002A071A073A075A9608B
S31500000820EA606C602046FFF772FF04F10800FFF7EC
S315000008306EFF04F11000FFF76AFFA179A07BDFF8D5
S315000008408067042908D100220428ADF8002046D18B
S31500000850FFF74AFF0120F2BDA17D04282BD100201D
S315000008600429ADF80000F3D0FFF7CAFF00F080F8C6
S315000008703068DFF8A869238900F080F8060040D1C7
S315000008800320A073A07903284AD1A07B032802D1B4
S31500000890A07D012863D0A07901284AD1A07B032836
S315000008A054D1A07D012818BF0328D1D104F1080036
S315000008B004F1100157E004292BD10020ADF8000007
S315000008C0FFF79EFF00F057F83068DFF85069238A7B
S315000008D000F054F8060014D10320A07519E0A07D9D
S315000008E00428B5D000F047F800F042F83068DFF889
S315000008F02C69238800F042F8060002D10320A0717B
S315000009000AE0304601F071FC1EB14FF4747100F03C
S315000009101DFAA0790328B5D1A07B0128B5D1B7E788
S315000009200228B8D1A07B032804BFA07D01288FD15F
S31500000930BCE7032804BFA07B012889D1A07D03283A
S315000009400BD104F11000214608340CE0022812BF36
S315000009500128A07D0328F0D1F3E70228EDD1204637
S3150000096004F1080110346860EC60A9600020F2BD53
S3150000097004F11000A3E604F10800A0E63778DFF8DA
S315000009803C66FF1833887F1CFF1A0122694600EB7C
S31500000990470001F0CEBB2DE9FE4F0646DFF87C0886
S315000009A0DFF8888ADFF8889A0F460178ADF80810D4
S315000009B0012234880C19641DFFF740FEDFF8601829
S315000009C0BDF80000B1F800A0641C000AADF80000F4
S315000009D050451CBF0121397000251AE0401CC1B2E8
S315000009E0514514D25FFA80FB39F81B10BDF806207A
S315000009F09142F3D1C0B2FFF724FEBDF804304FF6A2
S31500000A00807210401340984208BF08F80B506D1CC6
S31500000A10ADB2BDF80000854206DA022201A9FFF751
S31500000A200EFEA41C0020DAE70020D14601E0401C9F
S31500000A3080B2484517DA18F800108142F7D0012035
S31500000A40387010E021F815A00DE00128DFF8C8176E
S31500000A50F8D0BBF17F0F31F8150008BF4FF0000B3F
S31500000A60584421F810A0A1B27088C01E88424FF6E3
S31500000A70FF7A28DB00F066F8BDF80200FF25504536
S31500000A8021D0601C00F0D4FDBDF80200BDF80610B0
S31500000A90AAEB0002914213D104F1030A040A00F002
S31500000AA07F0BBDF8000084420ADA002000E0401CFB
S31500000AB0484518DA18F80010A142F8D1C5B212E07C
S31500000AC0012038700DE0B4807088A1B2884208D346
S31500000AD000F038F8BDF80200641C5045F4D001213E
S31500000AE03970BDE8F78F3088BDF80830181800EB6C
S31500000AF04400801D012201A980B2FFF739FDBDF82F
S31500000B000400C0F3C710401C00EBD0700AEB600471
S31500000B107088A1B28842D3D3FF2DA4D0DFF8A404F5
S31500000B20405DBBF17F0F14BF59460021814286DA32
S31500000B30BDF80210DFF8DC26535D0906C90F99429D
S31500000B4083D07CE701220DF10201A0B210E5F8B5D1
S31500000B508DF80000DFF8AC1BDFF86004DFF8C04654
S31500000B600288DFF8C00602800B884380DFF8AC36C7
S31500000B701D782188DFF8903BDFF8904BAA1802EB2E
S31500000B804102921D8280002282711A880281AA186F
S31500000B9002EB41022388DFF8784B4381921D828164
S31500000BA000228273DFF86C3B1A880282AA1802EBD5
S31500000BB04101891D2388DFF8C847818243820021CD
S31500000BC0817501F067FB002853D12070FFF71AFEEC
S31500000BD09DF80010084318BF01208DF8000001227F
S31500000BE0606800882818801CA11C80B2FFF7C0FC32
S31500000BF09DF8000000283FD16068DFF81C76694642
S31500000C00FFF7C9FEDFF8880B0688A06881790329FB
S31500000C1024D16946FFF7BFFE6168DFF8A8230020EC
S31500000C2012E0DFF8FC351B88984202DA135C012BD0
S31500000C3009D137F81030B1F800C0634524BFB1F8C8
S31500000C4002E09E450AD2401CB042EADB02208871CF
S31500000C50A1686068E2686160A260E06000204FF60B
S31500000C60FF7200E0401CB04206DA37F810109142DD
S31500000C70F8D101208DF80000607828B1012100200C
S31500000C808DF80010607018E09DF8000090B960685B
S31500000C900388ED18ED1C01220DF10201A8B2FFF741
S31500000CA067FCBDF80200C0F30310012808BF8DF8E9
S31500000CB0000002D09DF80000B8B14D2001F095FA71
S31500000CC06088401C6080E068FFF7F9FC9DF8000032
S31500000CD000F051F838B100F085F820B19DF8000019
S31500000CE000F0A2FA08B90120F2BD0020F2BDF8B565
S31500000CF00D46DFF82C1517467F2F0A8808BF0027F8
S31500000D001E4695423EBFAF4B595D8F42044604D204
S31500000D10AD4A535D9E4200D11CB940F2646100F0B9
S31500000D2015F839462846FFF79DFCDFF8641B038853
S31500000D30485D28B11946284600F0C9FC2060F1BD7F
S31500000D40324621461846BDE8F8405EE40FF67C3090
S31500000D5001F0A8BA38B5044608461146FFF782FCEA
S31500000D60964D0388DFF82C1B28880A681B1A02EBAD
S31500000D704302226031BDF8B5DFF80416904CDFF867
S31500000D80B056002814BFC8688868DFF89014008839
S31500000D900A788618B61DB6B2002701E0B61C7F1C7D
S31500000DA0DFF87C0401888F4216DAF8B2FFF749FCB7
S31500000DB0ADF80000B3B235F81700DFF8DCCABCF8AE
S31500000DC000E0ADF80200A3EB0E032068022200F05B
S31500000DD032FB0100E2D001E00120F2BD01F005FA8C
S31500000DE00020F2BD2DE9F84FDFF83404DFF8902536
S31500000DF00188D068DFF82424714C137884B000256C
S31500000E00ADF808100188BDF80800CE1806EB4006BC
S31500000E10B61DB6B200E06D1CBDF80800854280F232
S31500000E20C2804FF0000A78E0BDF802105FFA8AF03F
S31500000E300143ADF802104FF6FF72BDF802005F499C
S31500000E400F88BDF80010121AADF804204FF6FF7394
S31500000E502068F21B761C994200EB4200B6B21DD107
S31500000E6000F0BBF801002BD12068F71B012201A975
S31500000E7000EB470001F05DF9010021D1B61CB6B2C6
S31500000E805148DFF8181AA8F80060425D51F825109D
S31500000E903046FFF78EFB002838D18DE04A49495D80
S31500000EA0491C01EBD1714FEAC15900F096F80100D7
S31500000EB006D12068F31B012201A900F0BDFA01004A
S31500000EC077D1B61CB6B2D349A8F80060485D0028B1
S31500000ED043D0DFF8AC2410780021039128B103AA8F
S31500000EE06946A8B201F0DAF905E0BDF80010E8B2EB
S31500000EF000F0EDFB0390F71B20684FEA196203A987
S31500000F0000EB470001F015F9010052D1DFF8900916
S31500000F10415D7618B6B20AF1010A2A48475D5FFAC2
S31500000F208AF1B942BFF477AFE8B2FFF79BFB804680
S31500000F30B849B8F80000ADF80000485DC00140EAC5
S31500000F400520012FADF802007FF46EAFBDF8020058
S31500000F5040F07F00ADF802006DE74FF000085FFA41
S31500000F6088FBBBEB196FD1DADFF814140878002878
S31500000F70BDF8000004D100F029F8FFF7F9FA03E004
S31500000F8000F024F801F088F92068B344ABEB0703BE
S31500000F9001220DF1060100F04FFA010008BF08F129
S31500000FA00108DCD005E0DFF8D803C1688E80012097
S31500000FB002E001F01AF900202FE300003A090300CD
S31500000FC074E203204C03030028030300411CADF820
S31500000FD0001001220DF10601704701220DF10201F8
S31500000FE001F0A7B82DE9F34F85B000218DF8031065
S31500000FF04FF00C09DFF8AC58BDF81810DFF8A868F8
S31500001000DFF89C385B5C298835684C0891FBF9F958
S31500001010A1444D45039302D3DB18039309E0182638
S3150000102091FBF6F1641AA54203D303EB530189B28F
S3150000103003910025D24CADF806008DF8042000E09F
S315000010406D1C774801888D4280F2CF80002687E0AC
S31500001050012202A91FFA88F0FFF78AFAA36804980A
S31500001060DFF834E8B3F804C0BEF800300068DC44AA
S31500001070ACEB0303012202A900F0DEF9010008F13E
S31500001080010858D10AF1010A5FFA8AFBBBEB176F18
S31500001090DEDB38E01A468DF80220BDF806309A18D5
S315000010A0ADF8062001235B4A8DF80330505DC3017D
S315000010B043EA0523BAF1010FADF8003040F08B800A
S315000010C0BDF8002042F07F02ADF800208A88D21CCD
S315000010D08A800028DFF8BC17049100F0838041461F
S315000010E0E8B200F0F4FAA368DFF8ACE702903A0E33
S315000010F004989F88BEF800300068FB1A02A900F029
S315000011009BF9010017D1BDF80000A368DFF88477CA
S315000011104FF6FF71091AADF808100122DFF87817AB
S315000011209B88B1F8008038689B1EA3EB080302A9D0
S3150000113000F082F9010066D1A3689B883868DB1E3F
S31500001140A3EB080300F076F901005CD1A068818862
S31500001150A9F8001082889DF8021051188180761C2B
S31500001160F1B2DFF8480710F805A05145BFF468AFA3
S31500001170E8B2FFF777FA8146DFF83407475DBDF836
S315000011801800B9F800807F1C07EBD777FF0585426A
S3150000119002BF9DF80410F0B28842E0D06068018872
S315000011A0884524BF40884045D9D3BDF8061003982A
S315000011B0814226DADFF8E826A168535DB1F804C05B
S315000011C048889C440CF103029042BFF663AF0120AD
S315000011D06070452017E0BDF80030F2B21343ADF859
S315000011E0003073E74FF0000A4EE79DF8030040B960
S315000011F06068022181716068A168E2686160A2602E
S31500001200E060012002E000F0F0FF002007B0BDE83A
S31500001210F08F000004030300DCE903202D24030003
S315000012200024030094E503202DE9FE4F5FEA000940
S31500001230534DDFF8607614BFE868A868012201887C
S31500001240DFF8700600880291C0F1FF0101F0FF018E
S3150000125041EA0021ADF80210DFF85C06029990F829
S3150000126000A0DFF834060688386801EB0A04631D1F
S315000012709B1B0DF1020100F0DFF8010059D140F689
S31500001280227040EA0A30ADF80200E31C38689B1B66
S3150000129001220DF1020100F0CFF8010049D13868B2
S315000012A0A31C9B1B0122A91C00EB430000F041FF7D
S315000012B001003ED1601CA0EB06085FEA09004FF66C
S315000012C0FE7B07D0FF21ADF8021000F05DF80100AB
S315000012D02FD109E06868008801226946FFF748F9BE
S315000012E0BDF80000012802D1ADF800B002E0411EB1
S315000012F0ADF800104FF6FF72BDF80000121AADF8F7
S315000013000420A41B3868012201A900EB440000F068
S3150000131010FF01000DD1029C5046A0F1010A80B2D7
S3150000132088B1386814FA8AF39B1B00F083F8010031
S31500001330F2D000F05AFF0020BDE8FE8FA968032016
S3150000134088710120F8E7B9F1000FF7D0E9680320AA
S3150000135088716868FFF7B3F9A868FFF7B0F9EA681B
S315000013606868A968AA60A8606960E8606A60002089
S31500001370ADF80200E96000F007F80100D9D1E0E716
S3150000138010F2032036090300012238680DF102012C
S3150000139000EB480000F0CDBEFEB50446DFF80005C0
S315000013A0455CA088134662882E18F61CB24205DA00
S315000013B0DFF8082501215170452033E0C01CDFF815
S315000013C0F024A08080B2525C1946FFF7F2F860B3B1
S315000013D0DFF8C404DFF8BC740688A3883868DB1E0F
S315000013E09B1B012202A900F027F801001AD1BDF8C3
S315000013F008004FF6FF71091AADF800100122A38804
S3150000140038689B1E9E1B694600EB460000F091FE65
S31500001410010007D10898A1880180A0884019A08002
S315000014200120FEBD00F0E1FE0020FEBDDCE8032049
S31500001430BC0203000122694600EB430000F079BEBE
S315000014402DE9F84F84B00546894690461C4601F0C2
S3150000145059F8DFF8602413888DF804500127ADF899
S315000014600830B8F17F0F9DF80410BDF80800039509
S3150000147008BF4FF000088DF8054081423FBFDFF8F6
S315000014802C14039A8B5C984507D2DFF824148B5CE6
S315000014909C4202D1B9F1000F03D140F6D901FFF702
S315000014A055FC9DF804004146FFF7DCF80125064689
S315000014B0DFF80C048179B6F800A002291FBF817BF2
S315000014C00229807D022802D1432000F08EFE039A75
S315000014D0DFF8BC13885C002833D09DF80400514621
S315000014E000F0F5F8D9F80010814257D0AAF10300B0
S315000014F000F09EF8DFF8C453DDF80CC06C68DFF826
S31500001500A033628813F80C10A088D21E521A8242A9
S3150000151007DB30B1A86801888A45A4BF40885045DA
S3150000152072DBE8688179AC68022938D1442000F082
S315000015305CFEE8688179012931D0452000F055FE2E
S3150000154053E09DF805404FF0000B21E00BEBDB70FC
S315000015500AEB600000F05DF909EB0B0019F80B10BF
S31500001560407801EB0020611E8B4507D1BDF80010C5
S3150000157001F0FF0100F0FF00ADF8001080B2BDF8E9
S31500001580001088420BF1020018BF00255FFA80FBAD
S31500001590A345DBDB002D8DF80540A7D03DE0A8680C
S315000015A08179012915D10020FFF7E5FB002834D009
S315000015B00020FFF739FE00282FD0BF48BDF808509D
S315000015C003789DF8041003EB4500C01D424680B227
S315000015D005E003290FD19DF8041042460020FFF7CD
S315000015E001FD10B100F01CF8B8B93846471EC0B26C
S315000015F0002810D111E002290CBF40F6C81140F6B0
S31500001600CA11FFF7A3FB08E000F00AF828B938462C
S31500001610471EC0B200287FF444AF05B0BDE8F08F86
S315000016200096BDF806309DF804104A462046B3E6FB
S3150000163001220DF1060180B2FEF79ABFF8B5054604
S315000016409E489D4F43681C883B78E01800F038F8A8
S31500001650BDF802000026C0F30310012811D1192499
S3150000166000F029F8BDF800006D1C30B14FF47F4141
S31500001670401A17D0FF3813D016E0B61C641EEFD1FF
S315000016800EE0192400F017F8BDF800006D1C20B11B
S315000016904FF6FF71884203D00BE0761C641EF1D131
S315000016A070B2F2BD761CFBE7BDF80000C0B200B90F
S315000016B0761CF643F4E701226946A8B2FEF758BF46
S315000016C0C01C01220DF1020180B2FEF751BF38B5F0
S315000016D00C460021764B009169461D5C2A46204641
S315000016E06D1CFEF792FF05EBD57504EB6504A0B201
S315000016F0FFF7A4FF0028009948BFC04341FA80F0D5
S3150000170032BD00003E090300F8230300FA2303005C
S31500001710FE230300FC230300F8B5664A138804463B
S315000017206848254630F815609C4202D25849485D03
S3150000173018B940F68321FFF709FB5D494D5D681C2A
S3150000174000EBD07006EB6007B8B2FFF777FF0346F1
S31500001750192B0FD20020DFF840C1DFF838E1ADF8D1
S31500001760000013FA87F7BCF80030DEF80000FFF738
S315000017700BF960B131462046FFF7A9FF00902B46D2
S31500001780401C00907F2269462046FFF759FEF1BDB6
S31500001790022403007CB505464748067834462146B0
S315000017A04C1EC9B22888022925DB50FA84F000F0C5
S315000017B030F8BDF800000028F1D043482988028897
S315000017C0E6B27243521890B2FEF7E7FE0020ADF87B
S315000017D0000001222D882F48006875192E4E338887
S315000017E0ED1A694600EB450000F0A3FC01000ED09F
S315000017F000F0FBFC0BE0FEF7D0FE0120A8712D4A9D
S3150000180029881088891901EB4001891DA980E0B259
S3150000181076BD0122694680B2FEF7AABE28488179C4
S31500001820022908D0817B022908BF083003D0817DB8
S31500001830022901D11030ADE7002070477CB504467F
S315000018401D48067800250CE0208850FA86F0FFF740
S31500001850E0FFBDF8000000281EBF4FF6FF7188426A
S315000018606D1C3046461EC0B20028EDD1E8B276BDEA
S3150000187013488179022908D0817B022908BF0830E4
S3150000188003D0817D022901D11030D7E700207047AF
S315000018900403030074E203203A090300C0050300B1
S315000018A02401030032090300200103004C03030056
S315000018B028030300002403002D24030010F2032054
S315000018C094E50320DCE903203609030073696D2DD6
S315000018D0656570726F6D322D696E7465726E616CBE
S315000018E02E63000081423ABF5318984200F02ABE88
S315000018F08018990707D0521E24BF13F8011D00F85F
S31500001900011DF6D8704781071BD1103A07D330B4B2
S3150000191033E93210103A20E93210F9D230BC1032D5
S31500001920121F24BF53F8041D40F8041DF8D838BF11
S31500001930121D521E24BF13F8011D00F8011DF8D810
S315000019407047121FF3D3C10709D153F8041D121FA4
S3150000195020F8041D4FEA31414180F6D2E7E753F8FB
S31500001960041D121F00F8041D4FEA3121A0F80110D2
S315000019704FEA3141C170F2D2D9E7FEE780B50121C5
S31500001980754800F003FF754801210160002001F051
S3150000199022FB012304220221052001F060FB012025
S315000019A0FEF756FD00F011F8FEF79DFD6C4901208B
S315000019B0087001F055FC012340226A496A4801F08B
S315000019C01AFC6A490860C00F02BD70B501220121E8
S315000019D0042001F095F96648664C0168664D674E2D
S315000019E041F0010101600021C26842F08072C260CC
S315000019F002226348206029603160624862490A60B9
S31500001A0000F0F4FE6149624A624B0818B0FBF2F03E
S31500001A10401E1860002129644FF480725E485F49B9
S31500001A20206531605E4802602B6843F480732B604A
S31500001A3070BD4F48006800B10120C0B27047D12286
S31500001A4002704170090A817056490A78C2700420F2
S31500001A50521C0A7070472DE9F14F82B04D1D01F0FE
S31500001A602FFC002400904FF6FF7ADFF83C81DFF868
S31500001A7008913F4E1DE002980019514610F8027C6D
S31500001A80384601F095FC82465C463C480168CA0728
S31500001A900FD5F06840F08070F060D9F8001041F47E
S31500001AA08071C9F80010D8F800000028F1D088F835
S31500001AB00070316851B3E0B2E9B2884226D201F033
S31500001AC0FFFB0099401A80B240F2F512904223DAE9
S31500001AD0E0B210B95B270124D7E7012802D16F1FB6
S31500001AE00224D2E704F1010BE8B2E4B2C11E8C4233
S31500001AF008BF5746C8D0821E944208BF4FEA1A272D
S31500001B00C2D0401E8442B6D15D27BDE7E4B2EDB235
S31500001B10AC4208BF002000D00120BDE8FE8F10B502
S31500001B200C4600222178052902DBFFF794FF0246C6
S31500001B3004202070104610BD80B50C4B186890B07C
S31500001B404022694601F03EFB20B1C2B2694612202E
S31500001B5000F05EFA11B000BD00350A00108814428C
S31500001B6006FD032004F103209807030004E4032084
S31500001B70F0ED00E0B00F00E0000E00E0800E00E0A7
S31500001B8055CEACC506000E00F00004E0FCAC060025
S31500001B90F8590D00100004E0FF0300400D0001009D
S31500001BA0040304E005FD0320200000E070B51346A1
S31500001BB01044DCB264B101F00F060909451E0A2E75
S31500001BC0ACBF37243024A41928462C705B1EF0E7DE
S31500001BD0104470BDF0B5002341B1002806D52D2371
S31500001BE013700123B0F1004F18BF404200210024BA
S31500001BF08A4D002601E0C01B761C55F82470B842B9
S31500001C00F9D2F7B20FB90F0004D0D9B23036565414
S31500001C105B1C0121641C092CEBDBD9B2303050541B
S31500001C205B1CD8B2F0BD2DE9F84F824696B04FF056
S31500001C30000914A8884617461D4604ACCB460190F9
S31500001C4012E04FF0010B074600E00446019884427B
S31500001C5009D39DF80020A41A00F0D4F8002851D129
S31500001C6059FA84F904AC7F1C04A88DF800009DF88D
S31500001C7000003978201A00290FD0252905D05FEAFF
S31500001C800B0208BF04F8011BE0D05FEA0B0114BF8A
S31500001C904FF0000B7F1C39780A0000F0A680B1F1E6
S31500001CA0250216D00B3A092A40F28080283A75D0D0
S31500001CB00A3A12D0521E3CD0521E57D0083A55D07E
S31500001CC0121F39D0D21E37D0921E4FD0D21E65D0E9
S31500001CD0BCE7252004F8010BB8E729686A68039178
S31500001CE02046083502920024029A9442ADD2039906
S31500001CF0095D0222FFF75AFF0199884206D300F0D8
S31500001D0085F800287AD159FA86F904A80299491E5D
S31500001D108C423CBF202200F8012B0199884206D351
S31500001D2000F074F8002869D159FA86F904A8641CF1
S31500001D30DAE755F8040BCDE755F8046B044600F0D6
S31500001D4061F800285AD159FA84F9314604AC06469E
S31500001D5000E0761CF0B2085C0028FAD1F2B24046E8
S31500001D60D04700284AD159FA86F96FE76C290AD17B
S31500001D707A7855F8040B752A0EBF00210121642AD2
S31500001D8007D17F1C05E0752955F8040B0CBF00210F
S31500001D9001212246FFF71EFF241857E755F8041BBA
S31500001DA00222C9B22046FFF701FF4EE7787878286D
S31500001DB018BF58284FF0010BEFD17F1C781E32292F
S31500001DC04FF0000B04D155F8040B81B20422E9E769
S31500001DD034297FF436AF55F8046B0422310C2046C3
S31500001DE0FFF7E4FE0422B1B2DDE70546EAB200F0F1
S31500001DF00AF818B9A9445FFA89F000E0002017B084
S31500001E00BDE8F08FE2B204A9404650479DF8002095
S31500001E10861AF2B204A94046504700007407030030
S31500001E20FFF78ABE03460A469CA10420FFE70CB4CE
S31500001E3080B502AA00F030F801BC5DF80CFB0A0080
S31500001E40034602D096A11120F1E7704780B586B00F
S31500001E5001F018FD012204920021924A00926823A3
S31500001E6005910393029101910246002391A101205D
S31500001E70FFF7DDFF8C48817902884379039102924E
S31500001E8001930179C3788278009142208CA1FFF7F3
S31500001E90CEFF07B000BD00002DE9F04786B007462B
S31500001EA00C469146FEF735FB002640BBFFF7C1FD09
S31500001EB028B30021002002F024F8ADF80400F0B1A8
S31500001EC0002101A802F07EF9394602A8FFF7B7FD06
S31500001ED0002C07463AD100F094F880B9BDF804000A
S31500001EE001F06CFF8DF80000BDF8040001F04EFF14
S31500001EF06946FFF714FE10B10420FEF7FBFA06B0A0
S31500001F00BDE8F0878DF8081001271EE0BDF8040033
S31500001F1001F054FF59F8045B8046A8B2A8B101F05D
S31500001F204DFF82460AEB0801C9B201A802F04AF940
S31500001F300028E4D15FFA8AF000900023BDF804007F
S31500001F40AAB25FFA88F102F0C9F9641C2078002869
S31500001F50C1D0A0F130010A2904D20A2101FB0606EC
S31500001F60303EF2E700F04DF80028C8D1217800276E
S31500001F70422902A80ED044291AD0462925D057292D
S31500001F800DD06229C2D0662930D06C292BD0702999
S31500001F902CD0B7E759F8040B8DF80800B4E759F8C8
S31500001FA0041B8DF8081002270904090E4170CCE7BE
S31500001FB059F8041B8DF808100B0A0A0C090E437019
S31500001FC082708DF80B100427BFE759F8048B404642
S31500001FD002F080FAC2B20123414601A802F04DF890
S31500001FE00028B2D08BE759F8046BAEE759F8041B0A
S31500001FF00123F2B201A802F040F8002808BF00262B
S31500002000EFE701233A4602A901A802F036B800001C
S315000020102DE9F841122885B004460D46904606D0B3
S315000020203A2808D04FF6FE71884227D02DE00020CE
S3150000203002F0B7FC29E002F0ADFF0646002003F0EF
S3150000204025FB0746002003F02CFB034604961548A3
S31500002050164A174992F800C003900022482010FB48
S315000020600CFC01EB0C00B0F8E21002910192009713
S315000020705FF03B0014A1FFF7DAFE06E000224146BE
S31500002080284601F0A4FF00F0A5F84246294620465E
S3150000209006B0BDE8F041FEF75DBA00005746000005
S315000020A06C700000A0F70320400903001CFD03200C
S315000020B0CCF70320424238704242424257000000A9
S315000020C042424242574200005742425757387042F6
S315000020D000000000DFF800F025E2032038B50446D2
S315000020E00D4604F01FFA012C02D1FFF7F3FF02E0C0
S315000020F0284604F0A5FA18B104F020FA012032BDF2
S3150000210004F01CFA002032BD80B58308800705D58F
S315000021104FF6FF7242EA0142009204E041F07F412D
S3150000212041F47F01009104226946980004F0C9FA3F
S3150000213002BDF8B506460D4605F0010106F00100A0
S315000021400143144601D00120F2BD9CB132462B4614
S31500002150611C4FF6FF7C01E0921C9B1C491E0BD0B4
S31500002160178867451CBF18880028F5D04B20F2BD9C
S3150000217004F0E4F90020F2BD04F0D4F9012C01D0FA
S31500002180B00707D535F8021B3046FFF7BDFFC0B9CB
S31500002190B61C641E022C0CD367087F007A00294601
S315000021A0304604F08EFA60B906EB470605EB4705A4
S315000021B0E41B002CDCD029883046FFF7A5FF002859
S315000021C0D6D004F0BBF9D1E7704700207047002055
S315000021D0704770477047019870477047704770475F
S315000021E070477047702004F091BA70B504464338C2
S315000021F01F4D08D0401E012809D9801E01280ED97E
S31500002200C01F32D02AE0BDE87040FFF707BBFFF7DA
S315000022102FFB20B1FFF702FB0028FBD170BD154E46
S31500002220307810BB01213170FEF7A2F8442C12D091
S315000022300CD3462C05D00ED3472C07D140F601000F
S3150000224001E040F6020004F061FD04E04FF49B71EA
S31500002250284600F027F80020307070BD2846BDE8FB
S3150000226070404FF4A47100F01DB870BD000000006E
S31500002270280803000AFD032070470020704700204D
S315000022807047012070470120704700207047704753
S3150000229003F092BA00207047012070477047FEE7AE
S315000022A042DE704738B504460D4603F093FA00F057
S315000022B029F904F059FD29462046FFF7B3FD2B46C0
S315000022C022466D49012004F0A0FD29462046BDE8BE
S315000022D03440E5E769482DE9F843694E0168B16580
S315000022E04FF42068026A6749F2650B6833664968ED
S315000022F07166426AB266816AF166C26A3267016BCA
S315000023007167806B96F83810B06748074CBF346C1D
S31500002310F46B04F017FD002232658442DFF868E1B1
S31500002320014624BFAEF12007A742A146716506F11A
S315000023309002564BDFF858C118D3A0697064E4695F
S31500002340B464B56DC5F30805062D13D1604511D3E8
S3150000235098420FD200884DF64264A0420AD17068B6
S31500002360B4685060946040F2017803E0002474641D
S31500002370B46481464748814238BF014608467045E5
S315000023806AD20C68B4F1CD3F08BF091DF6D063E0F0
S31500002390062C09D1C4B2002C0CBF0520401E06F144
S315000023A07C04C5B244F82510F14520D25EF8041D20
S315000023B06145F9D39942F7D2CC07F5D5002406F149
S315000023C07C0555F824708F42E2D0641C062CF8D3A5
S315000023D0DEE7F16F002306F17C0506EB8304D4F8F3
S315000023E0804045F823405B1C042BF6D9116001465A
S315000023F0481EC9B20029ECD1B06DC0F3080003280D
S3150000240010D0042811D0052812D0062813D00C2885
S3150000241017D0122818D120480268910719D540F222
S31500002420025816E040F6012813E040F6022810E0B4
S3150000243040F603280DE0B8F5206F0AD140F60428CF
S3150000244007E040F6052804E018B1432838BF40F6F7
S3150000245007284046BDE8F2831049081AF0640021B7
S31500002460002006F17C04C5B2401CC7B244F8251012
S31500002470062FF8D3002097E7E401030004ED00E0FF
S315000024800000002000E300E010E20320D200030079
S31500002490700300009C0000201C20054010E2032071
S315000024A004F0C4BC7FB50121204800F06FF9012279
S315000024B00121012000F024FC0421072004F0B8FCCF
S315000024C01B4A92E838006946032281E838000D214C
S315000024D08DF8081001268DF809208DF800608DF81A
S315000024E007606946134C204604F010FD124904208B
S315000024F008600222114962620860A26A42F0020282
S31500002500A2627FBD0B4804F0F5BCA52803D10021CB
S31500002510084804F0D6BC70470648006800F0010081
S315000025207047074908680028FCD1704730253E00EF
S31500002530780203000020054080E200E000E100E0B0
S315000025400820054062B38B0708D0521E11F8013BE4
S3150000255000F8013B00F024808B07F6D1830740F09A
S31500002560208000BF103A07D330B4B1E83810103AD3
S31500002570A0E83810F9D230BC530724BFB1E80810E0
S31500002580A0E8081044BF51F8043B40F8043BD207CA
S3150000259024BF31F8022B20F8022B44BF0B780370BE
S315000025A07047121F17D35B0009D151F8043B20F87E
S315000025B0023B1B0C121F20F8023BF6D20BE051F82F
S315000025C0043B00F8013B1B0A20F8023B1B0C121FC0
S315000025D000F8013BF3D238BF121D521E24BF11F87A
S315000025E0013B00F8013BF8D870477047890001EBC2
S315000025F0401101F184410A607047890001EB4011E6
S3150000260001F184410868704710B5DFF84446A06BB5
S31500002610420605D412212046FFF7EFFF0028F9D124
S3150000262010BD80B5FFF7F0FFDFF824060068000C48
S3150000263000F0030002BD0122DFF8041610B588423F
S3150000264032BF0022DFF8FC15884201D2144600E0B2
S3150000265002241021DFF8F005FFF7C8FFDFF80406B3
S31500002660016821F0807141EA0461016010BDF0B596
S31500002670DFF8D825DFF8F0451368002304EBC3051F
S31500002680CFB22E79BE4203D154F83350854202D2DE
S315000026905B1C052BF2D3052B0EBF032004EBC300F6
S315000026A04079116821F0407141EA00611160F0BD86
S315000026B038B500F013F841F67130286004F079FC63
S315000026C0002105E038B500F009F841F671322A60BC
S315000026D0FFF7CDFF0CB10020286031BDDFF88C5527
S315000026E02C6804B101247047C01C0F2801D20007D2
S315000026F070474FF07040704738B50446002500F02B
S3150000270079F9DFF85025DFF85015944208D0DFF844
S315000027104C25944206D0DFF84825944204D006E0C2
S31500002720086802E0486800E0886800F00700401E7C
S3150000273003281BD8DFE800F002050C0804F070FC43
S3150000274004E004F073FC01E004F06DFC05460DE0C6
S3150000275004F032FCDFF80C150968090E01F00101DE
S315000027600122491C02FA01F1B0FBF1F5284632BDFF
S31500002770DFF8FC144A68D30702D40A680242FCD187
S31500002780704780B500F0E4F8401C02BD70B50C46F9
S315000027900246110A01F00F010020491E0929DFF83F
S315000027A05C5513D8DFE801F005131212071518124D
S315000027B01B1FDFF89454C2F3043608B1FFF7D8FFA5
S315000027C0224631462846BDE870400FE770BD1035F9
S315000027D0F1E730350120EEE738351020EBE74035DC
S315000027E04FF48030E7E7DFF8EC56E4E7F8B5064645
S315000027F0DFF88004DFF85C140768DFF86004DFF8B0
S315000028006024DFF86044012516F478137AD0B3F516
S31500002810003F31D0B3F5802F2AD0B3F5202F71D0E9
S31500002820B3F5402F2ED0B3F5602F63D0B3F5801FDC
S3150000283030D0B3F5A01F30D0B3F5B01F35D0B3F507
S31500002840D01F42D0B3F5F01F25D0B3F5001F4ED0F0
S31500002850B3F5101F4AD0B3F5381F2DD0B3F5401F7E
S3150000286039D0B3F5481F50D0B3F5781F64D06CE06B
S3150000287004F0A2FBE16802E004F09EFBA168C1F34C
S31500002880082104E004F098FB6169C1F30421491CA6
S31500002890B0FBF1F75AE0084629E01046FFF72CFF97
S315000028A00746206B00F003000DE00846FFF724FF03
S315000028B0216A01F00F0115E00846FFF71DFF0746E4
S315000028C0206AC0F30110C74040E0FFF715FFA16A78
S315000028D0C1F3011106E0FFF70FFFA16A090A01F033
S315000028E00301091D8D40B0FBF5F72FE01046FFF7F9
S315000028F003FF1FE0DFF8240600F07CF8072825D048
S31500002900092822D104F058FB14E0DFF8340600F061
S3150000291071F804280CD0072818D0082815D104F01F
S315000029204BFB07462068C0F30420401C47430DE0DC
S3150000293004F05FFB074609E004F03EFB0446304620
S31500002940FFF71FFFB4FBF0F700E000273846F2BDA3
S3150000295001460B0903F00F0301205B1E092BDFF86C
S31500002960042344D8DFE803F005070B11434313178C
S31500002970263B106800E05069C0F3042070471168D8
S31500002980090E01F00101491C26E0D06800E09068BC
S31500002990C0F308207047DFF8AC35994204D0DFF861
S315000029A0A835994204D022E0116A01F00F0113E024
S315000029B0116A09E0DFF89435994204D0DFF89035C2
S315000029C0994204D013E0916AC1F3011104E0916ABF
S315000029D0090A01F00301091D8840401E7047DFF80F
S315000029E07405814203D1106B00F00300704700208C
S315000029F070470000014601F00F010120491E07291A
S31500002A00DFF854254FD8DFE801F00415194E2634B7
S31500002A104E3C506A00F00700801E052808D8DFE803
S31500002A2000F03E240B0307050B2070470C2070476F
S31500002A300520704711690FE002207047516901F0C7
S31500002A400701491E03292FD8DFE801F00F02031101
S31500002A50F2E706207047916901F00701012904D0C9
S31500002A600229E9D0042902D07047032070470A20C2
S31500002A707047116811F001010FD0012914D1092006
S31500002A807047DFF8D8140A6802F03002102A04D022
S31500002A90202A04D0302A04D070470720704704202B
S31500002AA07047082070470020704700002DE9F84362
S31500002AB0074600240326112F0D46B04612D1042DD9
S31500002AC002D104F096FA08E0052D0BD1DFF8900448
S31500002AD0DFF890140068884204D304001CBF00216C
S31500002AE004F010FC07F00F077F1E072FDFF868942D
S31500002AF014D8DFE807F004464C9649789684022DF0
S31500002B004F480CD0032D2ED0042D2FD0052D32D0BA
S31500002B100A2D03D00B2D30D00C2D30D081E00426A9
S31500002B204FF0000801220121404600F0E9F8FFF7C6
S31500002B30BFFD0CB1FFF768FDC9F8046004F02CFA7C
S31500002B40054604F039FAFFF776FDFFF76AFD014600
S31500002B502846FFF7B7FD002C63D1BDE8F4430121F9
S31500002B60002004F0CFBB4FF00108DBE70226B04699
S31500002B70FFF761FDD6E70126FAE70526D2E7072625
S31500002B80D5E709F1100404E009F1180401E009F1A0
S31500002B901404012D08D0022D09D0032D0ED0062DC8
S31500002BA013D00A2D1DD03CE00020206039E0012220
S31500002BB00121002000F0A4F80220F6E701220121FD
S31500002BC0012000F09DF80120EFE704F0F5F9FFF78A
S31500002BD032FD01220221DFF82401FFF707FD032061
S31500002BE0E3E70420E1E7072D05D0092D04BF012105
S31500002BF0C9F8001015E00020C9F8000011E0012D09
S31500002C0006D0042D16D0072D0DD0082D16D008E0BD
S31500002C100020DFF848130A6822F0300242EA001268
S31500002C200A60BDE8F18301220121042000F068F862
S31500002C300120EEE700F020F80220EAE70320E8E7AB
S31500002C400148E8010190D00300400E4004000E4008
S31500002C5004300E4002001E0080400E40030020009B
S31500002C600500240000410E409806030040000E4077
S31500002C7040410E40F0E303200122012102203FE003
S31500002C8070B5044600F037F801220021022000F05A
S31500002C9037F8217CDFF8DC5200200229296808BFBA
S31500002CA00120490840EA4100286008212278284688
S31500002CB0FFF79CFCA088617A41EAC021A960EE6812
S31500002CC0207AFFF711FDE288A17A06F07F6646EAD0
S31500002CD0C226227A0E4346EAC2160643EE60A17B5E
S31500002CE0607B227B090141EA0031E07B014341EA36
S31500002CF00241296170BD11207CE60000B0400E4003
S31500002D002DE9F84F0428834692466CD8DFE800F098
S31500002D104E493F03440001270220012500260029D1
S31500002D20DFF82081934C60D0BBF1020F02BF206810
S31500002D30C0F3011000284FF000090CD18E4801683D
S31500002D402268D0074FF0010905D5216821F030012E
S31500002D5041F010012160E763314600F056F8002883
S31500002D60FAD0BAF1000F3ED000F04EF80028FBD0A2
S31500002D70BBF1020F37D1B9F1000F34D02068C1077B
S31500002D801BD501222021022000F0CAF819E00427F1
S31500002D90082003250226C2E7102720200525042641
S31500002DA0BDE74027802007250626B8E74FF4807741
S31500002DB04FF4007009250826B1E70021022000F033
S31500002DC08BF8022000F024F806460122002102209A
S31500002DD0FFF796FF3146022000F036F8E76300F071
S31500002DE013F80028FBD0BDE8F18FE063D8F80000A7
S31500002DF0F040C107FAD4BAF1000FF4D0D8F80000B9
S31500002E00E840C107FAD4EEE729464046FFF7F5BB8E
S31500002E10401E0328544912D8DFE800F0020C0608C9
S31500002E200869C0F308007047086800E0886800F089
S31500002E307F00704751480068C0F30A0070470020C1
S31500002E407047000090400E40F8B5401E0D4603281E
S31500002E5005F07F06444C464F3BD8DFE800F00228D9
S31500002E60101CC5F308051A213846FFF7C6FB0028D3
S31500002E70F9D12069400A45EA40252561F1BD1821AE
S31500002E803846FFF7BAFB0028F9D12068C00946EAA0
S31500002E90C0162660F1BD19213846FFF7AEFB0028A3
S31500002EA0F9D1A068C00946EAC016A660F1BD2F4850
S31500002EB00168626922F0300242F010026261C5F3D5
S31500002EC0C310FFF711FC226A2D490A40154305433A
S31500002ED02562F1BD50410E40264A1068C0F301102C
S31500002EE0002818BF002911D0202902D030290DD082
S31500002EF00FE04FF40000D16E01408142FBD1400249
S31500002F0009D5D06F800A00F0010070474FF44000E9
S31500002F10F1E71C48EFE701207047000006000E00AD
S31500002F2002280BD1080004D017484FF4806343648D
S31500002F300160002A1CBF0220FFF7CEBF01207047A8
S31500002F40B80032008006160080162E0090171A0070
S31500002F5090273000A009140070400E405C410E40DE
S31500002F6000E40320012D310110400E4090400E4038
S31500002F7040410E4024400E403C300E409C400E40E6
S31500002F8000F8FF0FFF33E10764400E40890001EBB4
S31500002F90401101F184410A60704700F1806300F13D
S31500002FA0C06019600260704710B500F00DF804F1BA
S31500002FB0806404E010B500F007F804F1C064012352
S31500002FC003FA01F1216010BD3022404B50431844F2
S31500002FD000F10C0470473E490A68920840EA8200F4
S31500002FE0086070472DE9F04101F0030516460324F9
S31500002FF00F21082E98460CD2B70000FA07F2B94006
S315000030003448FFF7CAFF05FA07F204FA07F1324817
S315000030100DE0A6F10802970000FA07F2B9402F4822
S31500003020FFF7BBFF05FA07F204FA07F12C482D4F0C
S31500003030FFF7B3FF079C069D2B4842463146FFF734
S31500003040A5FF2A4631463846FFF7A0FF22463146FD
S315000030500120B0403861BDE8F041244896E7F8B554
S315000030600546174638000E461C4607D0002C284653
S3150000307002D0FFF79FFF01E0FFF796FF2A463020B8
S315000030801249424388180F22082E05D2B300416820
S3150000309000F015F8416006E0A6F108039B00816880
S315000030A000F00DF881604FB9002C3146284602D059
S315000030B0BDE8F4407EE7BDE8F44075E7F1BD9A400F
S315000030C021EA020207FA03F11143704700A000400B
S315000030D044A4004000A4004008A4004004A400400A
S315000030E00CA4004014A4004010A4004028A40040F2
S315000030F010B5DFF87041DFF87011E161032020613F
S3150000310060611022DFF86401A06122620021A162E1
S31500003110E16220660022DFF85801626210216066D3
S31500003120A1662267E26630A16267E31D0868DFF8E0
S315000031304411186007222046FFF714FA2023A371D2
S3150000314010BDC11922464046FFF7FCB92DE9F843E8
S3150000315000F031F808B9FFF7CBFF182044432819CF
S3150000316000F1600600243769F568BD420BD2B468E9
S315000031707068E41B4C4588BF4C46FFF7E2FF00F041
S3150000318013F808BF0027ED1B4D4588BF4D4635B1E6
S315000031907068C1192A46FFF7D6FF2C19EF1904B13A
S315000031A037612046BDE8F283B168E7198F42A04433
S315000031B0A9EB04097047DFF8AC5004462878884626
S315000031C091467047F8B500F00AF800F00FF8FFF7DF
S315000031D0BDFF0446384604F0C2FB2046F2BD044655
S315000031E00D46164604F0BEBB5254540007463246FE
S315000031F02946204670472DE9F84300F02AF808B919
S31500003200FFF776FF04F0AEFB72690146002718232C
S3150000321006F1640C03FB07FE5CF80E0010B17F1C80
S315000032209742F7DB97420BDA7B43F01800220466DD
S315000032304566C0F868800267C266C0F8749001E00F
S315000032404FF0FF37FFE7084604F089FB3846BDE834
S31500003250F283044E044630780D46904699467047F0
S3150000326046E7000000E8032044F10320A807030016
S3150000327054F10320B40703007FB500F011F818B924
S3150000328000F015F804F0A2FB04B070BD7FB500F0A5
S3150000329007F818B900F00BF804F0B3FB04B070BDE2
S315000032A00446084615461E4602A904F09FBC089926
S315000032B0099800910190334602992A4620467047A4
S315000032C080B500F00DF880B202BD80B500F008F8B8
S315000032D0FA21B0FBF1F080B202BD000000BF000091
S315000032E0E0B504F068FC6A4604F0B2FC18B14C2163
S315000032F02BA0FEF7D7FFDDE9000103B000BD0000FB
S3150000330080B504F014FE01211748FFF73FFA04F0D8
S315000033102FFB20B15FF0570121A0FEF7C3FF00206D
S3150000332002BD1249012008707047FEB5044600250B
S31500003330216801B91EE000F00CF808B100F002F8AF
S3150000334001201BE001950095002321683A46301DB7
S3150000335092E7064E064F35700023009301953A46D4
S31500003360301D93E70000000030253E0040F20320A8
S315000033702333000004F05CFE0020FEBD04F02EFFA7
S31500003380307840B92146301D04F0A6FB206804F0D1
S3150000339042FC852501E00020307020602846FEBDF5
S315000033A073797374656D2D74696D65722E63000093
S315000033B00A0A42EA01225040C0F30311484080EA5B
S315000033C0003041010206C9B2D20E41EA022148404C
S315000033D080B270474901020003D4DFF8EC0481543F
S315000033E07047DFF8E83402F00F021A4402F8041CB2
S315000033F0704700F0070010B5C0F10703042B28BF83
S315000034000323C41C072C34BF0020001F012404FA28
S3150000341003F35B1E1940814004FA00F0401E104081
S31500003420084310BD002070470020704770471CB548
S3150000343072B603F099FCDFF89804DFF89844416906
S31500003440216000F0FEF901466FF00B00FFF7C2FFA6
S3150000345000F0F7F901466FF00A00FFF7BBFF00F036
S31500003460F0F901466FF00900FFF7B4FF00F0E1F94B
S3150000347001466FF00800FFF7ADFF00F0DAF90146EC
S315000034806FF00700FFF7A6FF00F0D3F901466FF0D3
S315000034900600FFF79FFF00F0CCF901466FF005002C
S315000034A0FFF798FF0022022100F0C5F901466FF0F0
S315000034B00400FFF78FFF00F0C8F901466FF0030024
S315000034C0FFF788FF00F0B5F901466FF00200FFF73D
S315000034D081FF0022072100F0AEF901466FF00100DE
S315000034E0FFF778FF00F0B1F901464FF0FF30FFF724
S315000034F071FF00F0AAF901460020FFF76BFF0022DA
S31500003500032100F098F901460120FFF763FF00F060
S3150000351094F901460220FFF75DFF00F08EF901469F
S315000035200320FFF757FF00F090F901460420FFF74C
S3150000353051FF00F08AF901460520FFF74BFF00F026
S3150000354084F901460620FFF745FF00F07EF90146A3
S315000035500720FFF73FFF00F078F901460820FFF744
S3150000356039FF00F072F901460920FFF733FF00F03A
S315000035706CF901460A20FFF72DFF00F066F90146B7
S315000035800B20FFF727FF00F060F901460C20FFF73C
S3150000359021FF00F05AF901460D20FFF71BFF00F04E
S315000035A054F901460E20FFF715FF00F04EF90146CB
S315000035B00F20FFF70FFF00F048F901461020FFF734
S315000035C009FF00F042F901461120FFF703FF00F062
S315000035D03CF901461220FFF7FDFE00F036F90146E0
S315000035E01320FFF7F7FE00F030F901461420FFF72D
S315000035F0F1FE00F02AF901461520FFF7EBFE00F078
S3150000360024F901461620FFF7E5FE00F01EF90146F3
S315000036101720FFF7DFFE00F018F901461820FFF724
S31500003620D9FE00F012F901461920FFF7D3FE00F08B
S315000036300CF901461A20FFF7CDFE00F006F9014607
S315000036401B20FFF7C7FE00F000F901461C20FFF71C
S31500003650C1FE00F0FAF801461D20FFF7BBFE00F0A0
S31500003660F4F801461E20FFF7B5FE00F0EEF801461D
S315000036701F20FFF7AFFE00F0E8F801462020FFF715
S31500003680A9FE00F0E2F801462120FFF7A3FE00F0B4
S31500003690D4F801462220FFF79DFE00F0D6F8014639
S315000036A02320FFF797FE00F0D0F801462420FFF70D
S315000036B091FE00F0CAF801462520FFF78BFE00F0C8
S315000036C0C4F801462620FFF785FE00F0BEF8014645
S315000036D02720FFF77FFE00F0B8F801462820FFF705
S315000036E079FE00F0B2F801462920FFF773FE00F0DC
S315000036F0ACF801462A20FFF76DFE00F0A6F8014659
S315000037002B20FFF767FE00F0A0F801462C20FFF7FC
S3150000371061FE00F09AF801462D20FFF75BFE00F0EF
S3150000372094F801462E20FFF755FE00F08EF801466C
S315000037302F20FFF74FFE00F088F801463020FFF7F4
S3150000374049FE00F082F801463120FFF743FE00F003
S3150000375070F801463220FFF73DFE61684FF6FF0024
S31500003760014041F0BF6141F4013161604FF4E02155
S31500003770E06840F40070E060E06840F01000E0604F
S31500003780E16104F05EFD04F0F3FDEFF30880001F35
S3150000379051494FF0CD3201E040F804298842FBD26E
S315000037A04E494F4889B204F035FE62B64D494E4A3D
S315000037B00120486410684D4A000E09D14AF6E850C7
S315000037C0D0620020536B43F004035363D06201E0E0
S315000037D0012803D8106840F40050106001244448C2
S315000037E0036823F4401343F488130360086840F425
S315000037F0807008600120116C41F4F84111643D4964
S31500003800086004F00BFE04F003FF3B496846D1E96B
S315000038100023CDE900238DF8034003F0D3FD04F027
S315000038200BFCFFF76DFD04F023FC344804F062FF47
S3150000383013BDFF22FF210420DBE500220121042025
S31500003840D7E5002200210420D3E50022042104202C
S31500003850CFE540F2016003F059BA04F06DBF80B5C0
S3150000386000210B2004F060FFBDE8014004F065BFB5
S31500003870002818BFFEF7B1BCFEF7B0BC032004F069
S31500003880D8BF000010B504F0B3FD044604F0B4FD43
S31500003890C0B208B9012C07D1072C11D8DFE804F013
S315000038A004100608080A0C0E002010BD092010BDE1
S315000038B0022010BD032010BD0B2010BD062010BD38
S315000038C044F0800010BD000000E400E018ED00E0C8
S315000038D00000000008ED00E0B0D803205C140000F2
S315000038E0A000002000000E40FC81E00F64310E4075
S315000038F020400E4010300E4084020300780803007A
S3150000390010B5DFF88408DFF87C180068DFF87C283B
S31500003910C860136848615B0800EB43040C6118B18A
S3150000392000F016F8652806DABDE81040AF210FF65C
S315000039308000FEF7B7BC10BD10B5DFF848486069D7
S31500003940E268904202D2BF2100F09CFA60690CE066
S3150000395010B5DFF8304820696269904202D2C5216D
S3150000396000F090FA2069626900E0E268801A4FF67A
S31500003970FE71084010BDDFF80C18CA68904203D3E8
S315000039804969884200F076BB0020704780B510B1C7
S31500003990FFF7F1FF00B1012002BD30B1DFF8E427E7
S315000039A0D168401A4010401C80B27047010001D116
S315000039B000207047DFF8CC17CA6802EB4000801E73
S315000039C070474088C0F30C00C01C0004800C400007
S315000039D0001D80B2704710B50446FFF7F2FFDFF80E
S315000039E0A4174A6904EB40004FF6FF74904204D2D4
S315000039F00388A34208BF801CF8D010BD2DE9F84308
S31500003A00DFF880478046E08898B3B8F802000104E2
S31500003A102FD4DFF87C770FF28C7138680FF290792B
S31500003A2004F052FF20B940F28B114846FEF73AFCEB
S31500003A30002504E004F048FF88B16D1CADB2E088B3
S31500003A40854204DB40F28D114846FEF72BFCA06947
S31500003A50396800EBC50630680028EBD13160B088C4
S31500003A60401CB0804046FFF7ACFFF18801EB4000F8
S31500003A70F080BDE8F18370B50446DFF808070078EA
S31500003A8001281AD12088FFF791FF050027D00226CA
S31500003A902C462046FFF7B2FF608840F40040608065
S31500003AA034F81600FFF782FF040002D06088010494
S31500003AB0EFD5761C042E12DAEAE702280FD103F0BE
S31500003AC051FF05462088FFF771FF18B10088C0F343
S31500003AD00E0020802846BDE8704003F040BF70BD50
S31500003AE0DFF8A0160A78022A08BFFFF7C4BF70479E
S31500003AF038B504460D46FFF764FF6188C1F30D0132
S31500003B0061804004020C21462846BDE83840FDF796
S31500003B10E9BE10B50C46A04205D241880A0402D47B
S31500003B20FFF759FFF7E710BD2DE9F14FDFF85456BF
S31500003B300020A88092B003F015FF6A88ADF8002037
S31500003B400121297000216A696980019203F007FF4B
S31500003B50E988A869C90004F0F9FE6846FFF78BFFFB
S31500003B60129848B1002401E08047641C1298E1B223
S31500003B7050F821000028F7D1EF6800244FF0010823
S31500003B800DF1080937E024B1641EE4B259F824A007
S31500003B9003E000F001FBBA460746BAF8020000F45B
S31500003BA04041B1F5004F26D140F48040AAF802000A
S31500003BB04FF0020B26465FFA8BF03AF81000FFF73B
S31500003BC0F5FE040010D0608801040DD440F40040D6
S31500003BD060802046FFF712FF102EBDBF49F8264031
S31500003BE0761CF6B24FF000080BF1010B5FFA8BF072
S31500003BF00428E0DB3446019EB742C4D3002CC2D170
S31500003C00B8F1000FB8D0EF68BB46B84615E03846A5
S31500003C10FFF7D7FE0446788801040BD55846FFF710
S31500003C20BCFE398801F40041084338800BEB440B95
S31500003C3007EB440800F0B0FA0746B742E7D3022084
S31500003C4028706846FFF717FF129848B10026044609
S31500003C5001E08047761CF0B254F820000028F8D125
S31500003C60EC68274613E04FF0020937F81900FFF712
S31500003C709DFE20B10088C0F30E0027F8190009F157
S31500003C800109B9F1040FF0DB00F086FA0746474553
S31500003C90E9D30AE00446FFF79EFE4146FFF739FFE7
S31500003CA0B842F7D3B7422ED1544644454AD22046AD
S31500003CB0FFF791FE002C8246F6D060880104F3D50A
S31500003CC000F05AF8A04204D16088C0F30D0060806D
S31500003CD0EAE704D201462046FFF70AFFE4E7264654
S31500003CE007E05046FFF777FE4146FFF712FF5446BE
S31500003CF08246C24507D2BAF80000C0F30E00FFF7AD
S31500003D0055FE8245EDD334B100F036F801001CBFF4
S31500003D102046FFF7EDFE27463046C1E72046FFF76F
S31500003D2050FE06465846FFF738FE07467200214603
S31500003D305846FDF7D7FD00223946684604F064FE72
S31500003D400BEB460B03F00EFE06460021A81C04F002
S31500003D50B1FEFFF72BFE040006D1BDF80000688017
S31500003D600021C5F814B02970304603F0F8FD002C88
S31500003D70D4D113B0BDE8F08F2088C0F30E0015E64D
S31500003D8080B5FFF713FEBDE80240FFE510B504005D
S31500003D9012D0FFF7F5FF18B94FF48F6100F072F8F3
S31500003DA02046FFF703FE38B101880A0402D5D0F891
S31500003DB00A0010BD083010BD002010BD10B501006E
S31500003DC013D0FFF7F3FD0446FFF7E0FD18B940F204
S31500003DD0924100F057F844B12088010401D52089AA
S31500003DE010BD6088C0F30C0010BD002010BD2DE989
S31500003DF0F04100F044F804003FD0FFF7C7FD0FF292
S31500003E00B03718B940F2A54100F078F82846FFF718
S31500003E10D5FF80462046FFF7DEFD464505462CD0F9
S31500003E2003DB40F2AD4100F069F82088010448BF89
S31500003E30268122D466802046FFF7C3FD04EB4004AA
S31500003E4003F090FDDFF83C134A692E1BB6B295428B
S31500003E5004BF4C61002603F082FD082E06DA3146C7
S31500003E602046BDE8F041FF2204F078BE0821204636
S31500003E7004F0D0FAA6F108006080BDE8F08105469E
S31500003E800E4693E50FF22830FEF70CBA38B50D460C
S31500003E90FFF78CFD04000AD0FFF778FD18B940F251
S31500003EA0EA41FFF7EFFF04EB4500808832BD0020B2
S31500003EB032BDF8B50D461646FFF778FD04000FF241
S31500003EC0F02714D0FFF762FD18B940F2F54100F073
S31500003ED015F83046FFF76AFDFFF758FD18B940F2AE
S31500003EE0F64100F00BF804EB45008680F1BD38463C
S31500003EF0BDE8F44040F2F941FEF7D4B93846FEF782
S31500003F00D1B92DE9F84F8846C11C8910DFF87452E3
S31500003F1049000027091D2E690FF2942AB0F5005FAB
S31500003F2004461FFA81F904DB40F225515046FEF79C
S31500003F30B9F903F017FD83466969E86908B9711A8A
S31500003F4003E05FEA080202D0411A4E1009E0301A77
S31500003F504010064680B220B940F24B515046FEF75B
S31500003F60A1F9B6B24E4514DB6F6907EB49006861EB
S31500003F70E86928B1B8F1000F04BF00EB4900E86119
S31500003F8000207C80B880F88038800834298964183D
S31500003F902C81584603F0E3FC3846BDE8F24FFCE4BA
S31500003FA0F8B504460D46164600210A20FFF7A9FF7C
S31500003FB00746FFF7FBFC48B10681C0F80A400188B6
S31500003FC041F400410180C0F80E503846F2BD70B58C
S31500003FD004460D4611462846FFF793FF06463CB1B8
S31500003FE0300005D0FFF7D2FE2A462146FDF77AFCBF
S31500003FF0304670BDF8B504460D46164616E028460E
S31500004000FFF7DCFE0746B0B2B842B8BFB7B22846E3
S31500004010FFF7BCFE01463A462046FEF793FA012119
S315000040202846FFF733FF3C440546F61BB0B200288E
S31500004030E5D1F1BD38B5044603F094FC05460022EF
S315000040402146544804F0E0FC2846BDE8324003F01F
S3150000405086BC38B503F086FC044600214D4804F0C2
S3150000406029FD0546204603F07AFC284632BD454820
S315000040704188481E8041C00F70472DE9FE4F044617
S315000040808846208816469B46FFF790FC0746FFF7B2
S315000040907DFC18B940F29961FFF7F4FE38880104F7
S315000040A0354603D538892D183D8167E000F078F84C
S315000040B0019000F071F8814603F054FC00968246A8
S315000040C0304E706981451DD1FFF742FCA84203D2EC
S315000040D0504603F044FC21E001982D18BBF1000F77
S315000040E07D8008D02088FFF751FE019B009A41464B
S315000040F01844FEF727FA00F04FF87061504603F0B7
S315000041002EFC3BE0504603F02AFC00F049F82D183F
S315000041100021A8B2FFF7F5FE070001D118202EE016
S3150000412000F03EF805462088FFF730FE0646384682
S31500004130FFF72CFE2A463146FEF704FABBF1000FC4
S31500004140384609D0FFF722FE00F029F8009A4146CA
S315000041502844FEF7F7F907E0FFF718FE00F01FF80E
S315000041600099284404F056F920880121FFF78EFEB5
S31500004170024601213846FFF79CFE27800020BDE855
S31500004180FE8F000020F2032078E303207CE3032067
S31500004190ACE5032022F203203846FFF71CBC054697
S315000041A020880BE6756E636C61696D6564000000BE
S315000041B06275666665722D6D616E6167656D656EA9
S315000041C0742E630038B504460D462088FFF7F6FDC9
S315000041D029468842208803D3FFF709FE002032BD16
S315000041E0FFF7ECFD2D1AEAB2204601B0BDE83040DB
S315000041F000230021FFF741BF2DE9F041054688461F
S3150000420017461E464046FFF7C1FDC419300018BFC9
S31500004210002C1CD04046FFF7D1FDB919884202DABE
S315000042201D2100F039F80698010003D132462146D7
S31500004230284604E0012832462946204603D1BDE837
S31500004240F041FDF74FBBBDE8F041FEF77BB9BDE895
S31500004250F08138B504460D46FFF7B0FD854202D31E
S315000042602A2100F019F82046FFF790FD284432BDB8
S3150000427070B505460E46FFF789FD040009D02846AD
S31500004280FFF79CFD864202D3322100F005F8A05DBF
S3150000429070BD002070BD000088A0FEF703B870B5A1
S315000042A004460D461646FFF789FD854202D33C219A
S315000042B0FFF7F2FF2046FFF769FD00B1465570BDD6
S315000042C038B50446FFF77AFD05462046FFF75EFD42
S315000042D02946BDE838400022FFF779BEF8B5054605
S315000042E0069C0E461F461046FFF750FD074428461B
S315000042F0FFF74CFD224639463044BDE8F840FDF74D
S31500004300F1BA70B500F02BF800F003F8301880B25F
S3150000431070BD060229462046AAE7E0B58DF80420BE
S315000043200123120A8DF8052000930A46014602234E
S3150000433001A8FFF761FF07BDF8B500F010F8FFF719
S31500004340E8FF8619E91CC9B2FFF7E5FF0702AD1CB5
S31500004350E9B2FFF7E0FFC01906EB0040F2BD0D46DB
S31500004360691C0446C9B283E70EB430B50446002181
S3150000437080B2FFF7C6FD0546FFF708FD290008BF16
S3150000438000200BD003A9002204E051F8043B00F8FA
S31500004390013B521CD3B2A342F7D3284630BC5DF88A
S315000043A010FBF8B505460E46174600212020FFF7FC
S315000043B0A8FDADF80000FFF7E9FC0446BDF80000D3
S315000043C060B13B4632462021601900F020F82D18D6
S315000043D0E9B26846FFF7F6FEBDF80000F2BD1CB56F
S315000043E004AC009400F001F816BD10B514461A4648
S315000043F0029B2044091BBDE81040C9B207E00CB47B
S3150000440080B502AAFFF7CDFF02BC5DF80CFB2DE9D3
S31500004410F04781464F460024884615469A460CE0EA
S31500004420F6B23419444542DA32463846FDF75AFAAE
S31500004430BF19641E641CE4B26D1C444537DA287843
S31500004440A8B3312818BF32280ED15AF8041B07F832
S31500004450011B3228EED1641CE4B2A045A4BF0912A8
S3150000446007F8011BE6DA22E034280ED1211D5AF89E
S31500004470040B88451BDB3870020A010C000E7A70AB
S31500004480B970F8703F1DE41CD4E7A0F133035AF865
S31500004490041B072B38BFA0F13006C1D3A0F141039E
S315000044A0072B34BFA0F137065AF8046BB8E7A7EB21
S315000044B00901C8B2BDE8F087000000006C656761BD
S315000044C063792D7061636B65742D627566666572BE
S315000044D02E63000000F10103810704D010F8011BD0
S315000044E0820781B1FAD10268A2F10131914311F03C
S315000044F0803104BF50F8042FF6E709BAB1FA81F10A
S3150000450000EBD100401CC01A70477047010008D468
S31500004510012200F01F01DFF884378A40400943F882
S315000045202020704701000CD4012200F01F01DFF8A3
S3150000453070378A40400943F82020BFF34F8FBFF3FE
S315000045406F8F7047010008D4012200F01F01DFF8C9
S3150000455054378A40400943F82020704710B5DFF8E9
S31500004560484730B1012807D0102802D0202803D0B0
S3150000457004E00020204410BD1C20FBE740F283111C
S31500004580DFF83808FDF78EFE204610BD4268938896
S315000045904089411A8B4201DA01207047002070479A
S315000045A07FB50128044604D9B0F1100101D01039B5
S315000045B03BD1012818BF202832D1FFF7CFFF05468F
S315000045C003F0D0F90646A86901AB6A4602A905F0D0
S315000045D022FE00992A89286889B200F027F8304619
S315000045E003F0BDF9A86905F08FFE012818D12A68E5
S315000045F0298990882A8A091A914211DBA86990F8BC
S315000046003110022903D105F004FE022804DAA86954
S3150000461090F83110012903D1A869002105F04BFE5D
S31500004620200014BF102CFDF787FA7FBD70B5044635
S315000046300E46154603F096F9E288B2420CD221885E
S315000046408B1A991991FBF5FC05FB1C152580A3888F
S31500004650F3189A1AA280E68000F0E5BBF8B50128A7
S3150000466018BF20280C46154616D1FFF777FF0646D9
S31500004670307B10B101217173F1BD707B18B13046EA
S31500004680BDE8F240AFE00FF2C51700F006F818B12A
S3150000469000F003F80028FBD1F1BDB0693B462A467D
S315000046A0214605F00FBF70B505460E46FFF756FFCB
S315000046B0012D18BF202D044640D1A069016890F84D
S315000046C03200E8B904228A6400F05AF9A069006849
S315000046D0C16C002E07D041F00401C1640C20FFF725
S315000046E015FF052106E021F00401C1640C20FFF747
S315000046F019FF0021A0690068BDE8704005F0B2BF4F
S315000047000420486300F03CF9A0690068816B002E24
S3150000471007D041F0040181630C20FFF7F7FE052165
S3150000472006E021F0040181630C20FFF7FBFE002167
S31500004730A0690068BDE8704006F048B870BDF8B5DD
S315000047400446DFF87C0681421D462AD00026F2B2D6
S315000047501C20DFF8541542438F18BB69A3421CD1B5
S315000047603A893868A9B2FFF761FF38680021C1802D
S3150000477002E0384600F016F8204605F04AFD022809
S315000047800BDC3889F9893A68A0EB410091888842A8
S31500004790EFDA0121204605F08EFD761CF0B20228E4
S315000047A0D5DBF1BD70B50446DFF81836E089668AB8
S315000047B02568024670432E18A06906F1080105F027
S315000047C03DFEA06905F025FD012803DDA069002155
S315000047D005F071FD608AA18A401C90FBF1F201FB95
S315000047E01200608270BDFEB50446207B68BB60681F
S315000047F00FF259064188084400F10807A0696B4684
S3150000480001AA02A905F026FD61688A880098019D23
S31500004810121A551B4A88088890420ED26189A069EF
S315000048208A1A3346394605F04DFE70B962686189C9
S3150000483050886D1A451902F10807A0693346EAB295
S31500004840394605F03FFE00B96073F7BD2DE9F0412A
S31500004850054698460027F9B21C22DFF84C0451435E
S315000048604418A369AB4218D160688188414534BFBA
S315000048708688464603F076F861684A8812FA86F119
S31500004880628991FBF2F302FB131162685180616841
S315000048908A88961B8E8003F062F87F1CF8B2022885
S315000048A0D9DBBDE8F08138B51129054609D1A869DB
S315000048B0002105F00DFD002129732846BDE8324090
S315000048C091E7132906D1A869012105F001FD012010
S315000048D0287331BD28682A898488141BA4B25CB168
S315000048E000F10802008811542868018800F0ABF92D
S315000048F001808188491C8180A86905F005FD20B9E1
S31500004900E989A142A8BF012105DA012808D1288A30
S31500004910844205DB0021A869BDE8344005F0CBBC24
S3150000492031BD10B52020FFF719FE0446DFF89804C4
S31500004930A16991F83120012A09D101690A060AD52F
S3150000494005F00CFF01462046BDE81040ABE7C16C00
S3150000495021F00401C16410BD10B5DFF86C4428B91C
S315000049602046BDE81040002105F07CBE00F008F8A6
S315000049700C20FFF7CBFDE06C40F00400E06410BDB6
S315000049800C20DFE580B530B9BDE804400521DFF82D
S31500004990380405F067BEFFF7F3FFBDE802400C20C0
S315000049A0C0E5F8B50C461546FFF7D8FD0646306853
S315000049B081883289E8B2121A914201DB0120F2BDE8
S315000049C000270EE002F0CEFF316814F8012B01F14A
S315000049D0080309885A547F1C31680A88338900F015
S315000049E052F9AF42EED30020F2BD10B5012818BF30
S315000049F020281CD1FFF7B2FD0446A06905F0E1FBB3
S31500004A00800414D56168888888B9A06905F01EFC01
S31500004A10002802BFA06990F83210002907D105F0DE
S31500004A20D0FB00F44030401E8041C00F10BD002076
S31500004A3010BDF8B5012804460D4603D9103801D03B
S31500004A40103852D1204600F0F5F910B9204600F092
S31500004A5085F82046FFF782FD06462046FFF77EFDD5
S31500004A6021000FD0012C03D0102C0BD0202C3CD1D0
S31500004A70DFF85813DFF85823016080234260038172
S31500004A80438109E0DFF84C23DFF84C1302604160F4
S31500004A904023802103814181200018BF102C03D1BF
S31500004AA0BDE8F140FCF76ABF012C18BF202C53D19A
S31500004AB0012C16BF202CDFF824030020012C18BF80
S31500004AC0202CB06111D1DFF81813DFF81803E96163
S31500004AD0A861A98CF181EB8C33828B4207D21C2111
S31500004AE0304603F033FF0220F2BD0120F2BDB26969
S31500004AF092F8310001280CD0308990FBF1F701FBC8
S31500004B001700002802BF93FBF1F001FB10310029CA
S31500004B10E5D12946104605F071F9F0B9B069017F73
S31500004B20007E01230222FEF79AFA287C012808D18A
S31500004B3001212046FFF7B7FDB069002105F0BBFB58
S31500004B400AE0002070823189F08991FBF0F0B08292
S31500004B5000F06DF900F06BF90020F2BD58B50128A0
S31500004B60044603D9103801D0103813D1204600F07E
S31500004B7061F9F0B9204600F037F92046FFF7EEFC60
S31500004B80012C18BF202C06460FD1B06905F01DFA7E
S31500004B9010B152BD012052BDB06990F83110012903
S31500004BA003D100212046FFF77EFD1C21304603F08D
S31500004BB0CDFE002052BDF8B5074601280E463C46FC
S31500004BC003D9103801D010380BD13846FFF7C6FC90
S31500004BD005463846FFF7E4FC2968888818B9262078
S31500004BE0F2BD0120F2BD02F0BDFE0746286800F1C5
S31500004BF0080140880A5C32702868418800F023F872
S31500004C00418081884A1E012C18BF202C828004D145
S31500004C10A86990F8311001290FD1384602F09FFE9D
S31500004C200020F2BD2889E9892A68A0EB4100918815
S31500004C308842F2DB2846FFF7B5FDA86905F0E9FAD8
S31500004C400228EFDBE9E72A89491C91FBF2F302FB14
S31500004C501311704780B5FFF781FC01464A68488901
S31500004C609188401A80B202BD02B5012804D9B0F17C
S31500004C70100101D0103904D10122694600F016F85E
S31500004C8002BD012002BD521C92FBF3FC03FB1C2259
S31500004C900A808A88521C8A8002F061BE00E100E028
S31500004CA080E100E080E200E0E8EC03202DE9F84F27
S31500004CB00128804604D9B0F1100301D0103B10D171
S31500004CC0002818BF1028894692460CD0FFF746FCEC
S31500004CD00646002470680188084400F1080B002588
S31500004CE03BE001200EE051464846FDF7A8F808E0F3
S31500004CF0544506DAAAEB040082B259464046FFF74D
S31500004D00ADFC0020BDE8F28F02F02CFE71680B8826
S31500004D1019F8012B19440A7271680A887389521CA2
S31500004D2092FBF3FC03FB1C220A808A88521C8A80B1
S31500004D3009884F1EBF4102F012FEFF0F67B1EFB2A6
S31500004D407F1C3F1BFAB259464046FFF787FC706846
S31500004D503C19E4B200F1080B6D1CE8B25045C7D20D
S31500004D6000213046FFF712FC0028CDD1307B002809
S31500004D70F6D02220C6E7F8B50124012807460E46DC
S31500004D80154603D9103801D0103815D1380018BF90
S31500004D90102F04D129463046FDF751F80024384635
S31500004DA0FFF7DCFB012F18BF202F05D180692A46AB
S31500004DB0314605F0ABFA04462046F2BD7001030009
S31500004DC0097000F03F47000000000140D8EB0320C7
S31500004DD060EC032008EB032050EB032020ED0320BA
S31500004DE0F8E2032078E2032070B50546FFF7B6FB2C
S31500004DF00646012D346818BF202D0DD1B06990F8F4
S31500004E003110012908D0022105F051F900207082E5
S31500004E1000F00DF800F00BF802F0A4FD0021A180CF
S31500004E2021806180E180BDE8704002F098BD304687
S31500004E30FFF7B8BC80B5012804D9B0F1100101D044
S31500004E40103906D1FFF78AFB00281CBF006800282E
S31500004E5001D1012002BD002002BD704720B500210E
S31500004E600FF2E422CBB2D35C834205D0491CCDB20B
S31500004E70082DF7D3002020BD012020BD20B500213C
S31500004E800FF2CC22CBB2D35C834205D0491CCDB203
S31500004E90082DF7D3002020BD012020BD864A874972
S31500004EA0137848204343C818B0F8E2007047824A96
S31500004EB08249137848204343C818E4307047804835
S31500004EC07D4A0168137838204343C818C078704774
S31500004ED010B57B49784B0A681C7838214C43111968
S31500004EE0C87010BD2DE9F041734D754E2A783168B2
S31500004EF0382462430A4407469770724805F0F2FC6C
S31500004F008046022F70481ED131682B784A1C6343B5
S31500004F10D75C042F18BF05F0FFFC30682A78411CC7
S31500004F206243885C03281EBF0428404605F0F4FC53
S31500004F302978306814FB01F401194A68D00054BF7F
S31500004F409024BC2415E00021017088F8001005F0BB
S31500004F504EFE31682A78481C14FB02F4005D0328D3
S31500004F6018BF042802D105F023FF01E006F0EEFA8F
S31500004F709124204606F054FB50B9234613224DA136
S31500004F800320FBF7BEFA2046BDE8F04107F056BA0B
S31500004F90BDE8F0814A48484A0168137838204343FF
S31500004FA0C818807800F00F0070474548424A0168EB
S31500004FB0137838204343C818817801F00F0102297D
S31500004FC001D1012070470020704710B592B0044609
S31500004FD0FFF7EBFF20B900F03FF818BF932019D177
S31500004FE007F08DF900F097F8BDF8020020819DF8D2
S31500004FF00100A07220469DF80010E17208F0F6FD4F
S315000050000020207304F1140104F1100008F027FFBA
S31500005010E081002012B010BD38B592B004460D46AE
S31500005020FFF7C3FF20B900F017F818BF932011D17E
S3150000503007F065F901466A46204609F022FA9DF80E
S3150000504001002870002169709DF8000000F01F0023
S31500005050A870002013B030BD1948174A01681378AC
S3150000506038204343C81881780329704710B50023B8
S3150000507000E05B1CDCB28C4205D210F8014B944276
S31500005080F7D0002010BD012010BD082109F0B4BDE5
S315000050900B48094A0168137838204343C8188078BA
S315000050A001281CBF3128332801D101207047002078
S315000050B070470000424200001CFD0320CCF703208D
S315000050C0A8E30320CCED0320BCF4032070B504460E
S315000050D092B02146002000F0CDFA0546C0B268B96C
S315000050E007F00DF906466A46314600F016F88DF8C7
S315000050F001406A463146002009F0E9F8E8B212B0EC
S3150000510070BD80B592B007F0FAF800F004F89DF98A
S31500005110010013B000BD01466A46002009F0B1B98E
S3150000512080B592B007F0EBF8FFF7F5FF9DF80000A9
S3150000513013B000BD0120704780B5FFF7F1FF4009AD
S3150000514018BF012002BD00000001020304051D2056
S315000051500203040508090A0B38B50D46AA88A96892
S315000051600446FDF7EFF9E96841B1A8886A88121A82
S315000051702044BDE8384092B2FDF7E4B931BD38B5F8
S31500005180044603F0D1FA0546DFF8AC0A83780178C5
S31500005190994212D0DFF8A40A806A641E07D0641E02
S315000051A008D0A41E06D0A41E032C03D905E00022B5
S315000051B0194600E0002209F046FD284632BD2DE9D9
S315000051C0DC4FDFF82C4B03EA010BD4E9086727EA2A
S315000051D0010926EA000802EA000A49EA0B0948EA38
S315000051E00A08B94508BFB0450ED0CDE90023C4E989
S315000051F008890246A06A0B4609F0F2FF20B1BDE815
S31500005200DC4F4FF4B77101E2BDE8D38F78B589B0B2
S3150000521002A80FF6D811DFF8244A1C22FDF7A2F9DE
S31500005220A08BC10700F190800121012000F0BFFF93
S315000052300A204FF428716073ADF80E10DFF8B40A37
S315000052400FF69911DFF8B05A09F0E3FCA06218B91D
S315000052504FF4D97100F09DFCA06A052109F0FFFD0D
S3150000526018B14FF4DD7100F094FCA06A03F02DF93B
S31500005270DFF8880A0168A06A0AF025F800F050FAFB
S315000052800C2610FB06F0ADF81A0000F049FA10FBE8
S3150000529006F0ADF8160002A9A06A0AF03BF818B1AC
S315000052A040F2CF1100F075FCA06ADFF8541A002214
S315000052B00AF0B7F818B140F2D31100F06AFC0320E7
S315000052C0052120706170A170002601F06EF8E07073
S315000052D000F026FA142110FB01F0A08000F020FA5D
S315000052E0C000E080A6604FF0FF30DFF8182A40F2D9
S315000052F0A1130146FFF763FFA06ADFF80C1A0AF054
S31500005300F1F8A06A01A90AF073F918B14FF4FF7118
S3150000531000F03FFCA06A0422694609F0A2FC0428BA
S3150000532003D040F2022100F034FC694601200AF065
S3150000533080F90AF04DFB012000F0DEFF03F0F2F9E0
S3150000534001F0AAF800F06BFE0AB070BD38B5DFF8C0
S31500005350EC48A08B820703D540F21D2100F0CFFA5E
S315000053600021217502F0FEFA0546A08B410709D5FA
S315000053700AF056FB216B401A40F2C532904201D327
S3150000538000F073FA01F00EF8607B042820D102F0D9
S31500005390E9FA0546A08B41072BD401F003F802F089
S315000053A0E1FA0546E06A401C0AF03CFB00F02000EA
S315000053B00128ACBF062005206073012100F05AFACF
S315000053C001F015F800F0EEFFE06AC178617431BDB6
S315000053D0062830D1DFF86008C179FF2937D10AF0F5
S315000053E036FB207C20B302F0BDFA0546A08B4107B0
S315000053F006D504F1140005F08FFA284600F0E5BE44
S3150000540000F0D0FF207C411E217402F0ABFA044666
S31500005410012100F02FFA00F0EAFF204602F09FFA81
S31500005420BDE8384000224FF6FF71042007F008B8A7
S315000054306073402007E0012809D100206073A06A4C
S3150000544009F009FC3F20BDE8324000F090BE31BDB6
S3150000545070B5DFF8E847607B0E46154618B140F296
S31500005460932100F04CFA2900E66203D0A17811B12D
S31500005470012100E00021202000F099FEDFF8880AD3
S3150000548001782174002D14BFE07B0020A073042056
S31500005490607304F1140005F03FFA00F02BFABDE842
S315000054A07040DFF8D40A007805F033BB2DE9F041EF
S315000054B002F058FADFF884578046A88BC10506D556
S315000054C0687B10B900F0ABFD01E000F08AF800211E
S315000054D00020FFF754FEDFF86067B079FF27FF284A
S315000054E018D0B07928B9B7710024687B052811D186
S315000054F005E0B079B77101280CBF4C243324002095
S315000055006873404602F02BFA204600F030FE02F0A7
S3150000551029FA8046687B062833D1F079FF2830D0F7
S31500005520F079022804D105F1140005F0F5F928E018
S31500005530F07900281CBFF079012826D100F049FE39
S315000055400446F079012818BF00200021002C297597
S3150000555018BF0028F77109D001206873642105F18E
S31500005560140005F0E4F900F0DEFC0BE06973404638
S3150000557002F0F5F9002C14BF3F20002000F0F7FDE3
S3150000558003E0F771404602F0EAF9A88B0006C00F67
S3150000559005D00021802000F00AFEFCF779FEFEF718
S315000055A058FD0024E883D0B1687B012806D100218C
S315000055B0002029756873012409F0EAF8687B08B9A8
S315000055C000F02DFDE98B002009F0FDF80020E883AE
S315000055D02CB1687B18B9BDE8F04109F0F2B8BDE816
S315000055E0F08100214FF4807000F0E1BD80B5FEF738
S315000055F03EFD80E080B500F019F809F003FF20B108
S31500005600BDE8044040F29D3100E001BDDFF8E80648
S31500005610FCF748BE80B500F009F809F0E4FE20B1B9
S31500005620BDE804404FF46971F0E701BD10460A4633
S31500005630DFF8D8380146986A7047DFF8D008417B12
S31500005640481E8041C00F7047DFF8C008417B012922
S3150000565001D1012070470020704780B5DFF8DC15C6
