S01600005A69676265654F54415365727665722E7333372D
S31500000000401A0020496F0200A5280000A928000018
S31500000010A70A02020002000004180FAC0168F100F2
S3150000002000000000000000000000000000000000CA
S3150000003000000000888603000000000000000000A9
S315000000400000000000000000FFFFFFFFFFFFFFFFB2
S31500000050FFFFFFFFFFFFFFFFFFFFFFFFFFFFFFFFAA
S3150000006000700F000000000000000000FFFFFFFF0F
S31500000070FFFFFFFF1C000000000000000000000062
S315000000800000000000000000A03F0020A03F00206C
S31500000090401A0020E8C80300C0100300E01000204A
S311000000A0B410002000001000000000005A
S31500000200401A0020496F0200A5280000A928000016
S315000002103D800000AD280000B5280000476F0200B1
S31500000220476F0200476F0200476F0200476F0200E8
S31500000230B9280000476F0200476F0200476F0200AF
S31500000240A1460000E1E40200852B00002C290000F5
S3150000025031DC02004DE50200EDE4020005E5020096
S31500000260E5E40200E53B0000B93C0000ED5D00005E
S3150000027085A800002C2900002C2900002C2900004C
S315000002802C2900002C290000DD3C00002C29000050
S315000002902C2900002C2900002C2900002C29000004
S315000002A02C2900002C2900002C2900002C290000F4
S315000002B051E50200E9E402006144000091E5020014
S315000002C02C2900001DD002002C2900002C2900003A
S315000002D02C2900002C2900002C2900002C290000C4
S315000002E02C2900002C2900002C2900002C290000B4
S315000002F02C2900002C2900002C2900002C290000A4
S311000003002C2900002C290000476F020089
S3150000030CF8B500BFF8BC08BC9E467047F8B500BFF0
S3150000031CF8BC08BC9E46704710B5054C237833B91B
S3150000032C044B13B10448AFF300800123237010BDB6
S3150000033CA02000200000000080C2030008B5034B7B
S3150000034C1BB103490348AFF3008008BD0000000051
S3150000035CA420002080C20300154B002B08BF134BB2
S3150000036C9D46A3F5803A00218B460F461348144A46
S3150000037C121A30F074FE0F4B002B00D098470E4B20
S3150000038C002B00D098470020002104000D000D48DA
S3150000039C002802D00C48AFF3008030F009FE200094
S315000003AC29000AF07FFC30F0EFFD00BF00000800CA
S315000003BC401A00200000000000000000A0200020D1
S315000003CCA03F002000000000000000000020704745
S315000003DC4FF47A71014812F0DDBB00BF9435002052
S315000003EC10B5114901200DF045FC104B00221A7076
S315000003FC0BF050FA0E490446024601200DF03AFC69
S3150000040C4CB9012008F0F6FB0A49C2B20120BDE83E
S3150000041C10400DF02FBC022C04D108F081FD0649CA
S3150000042CC2B2F3E710BD00BFC01003009435002024
S3150000043CDC100300EF100300BA88030008B5054969
S3150000044C01200DF017FC4FF47A710348BDE8084003
S3150000045C12F0A0BB141103009435002001490120B1
S3150000046C0DF008BC4011030038B5C37B002B437D4F
S3150000047C14BF8325C325012B044615D0637DDBB938
S3150000048C2368228A598858790BF0EBFEA0B12368B1
S3150000049C5B88062B12D8032B00D26BB9E37B002B9F
S315000004AC14BF8325812507E00368028A5988587989
S315000004BC0BF0E0FE0028E1D0284638BD192BEDD014
S315000004CCFAE77047012070470120704701207047FA
S315000004DCB5207047704700207047002070470020F9
S315000004EC704700207047002070470020704700209E
S315000004FC7047002070470120704701207047B520D7
S3150000050C704700207047002070470020704700207D
S3150000051C70470020704770477047B5207047002021
S3150000052C70477047704700207047842070477047AB
S3150000053C704700F0C5BC0320704770470320704716
S3150000054C70477047704700207047002070470020A6
S3150000055C704700207047002070470020704700202D
S3150000056C704700207047002070477047B5207047D1
S3150000057C0020704700207047704700207047704776
S3150000058C704770477047B52070477047704700201A
S3150000059C704770477047704770470000094A002340
S315000005ACFF21137082F8783082F8653082F8773044
S315000005BC82F8793082F87A1082F87B30024A13601E
S315000005CC704700BFBC2000209C3500202DE9F04769
S315000005DC0D468F680A683A490446202003F089F8CC
S315000005EC6B68ABB93749202003F083F8202009F05B
S315000005FC11FFEA681AB13449202003F07AF833491E
S3150000060C202003F08BF82020BDE8F04709F002BF4C
S3150000061C002CEBD0EB681BB12D49202003F069F8B8
S3150000062CDFF8D880DFF8D890DFF8D8A0013F002695
S3150000063C17F8014F24B92549202003F06FF8D5E7A8
S3150000064C2B691BB14146202003F053F8752C24D09E
S3150000065C762C24D0772C24D0732C24D0722C24D036
S3150000066C712C24D0622C24D06E2C24D02A2C24D08D
S3150000067C1849194B212C08BF1946202003F039F8CC
S3150000068C212CD5D02B692BB153F8262013492020C9
S3150000069C03F02FF80136F6B2CAE74946EDE75146A4
S315000006ACEBE70F49E9E70F49E7E70F49E5E70F499C
S315000006BCE3E70F49E1E70F49DFE70F49DDE700BF45
S315000006CC9A740300E42F0300181203009911030017
S315000006DC08120300EA110300ED11030012120300C5
S315000006ECB1110300BD110300C7110300D2110300A1
S315000006FCDD110300E32F0300E7110300E49B030065
S3150000070CA61103009A110300F0B5214A92F87B302A
S3150000071C184452FA80F01F4B90F865C090F866505A
S3150000072C1F78A5EB0C050026EDB23046F4B2A542B7
S3150000073C25D90CEB060313445B7811B10CB92D2BA0
S3150000074C17D0782B1FD0582B05D108B137240AE0C7
S3150000075C013C012C14D9602B17D8402BF6D83A2B18
S3150000076C34BF302400241B1BDBB29F4203D900FB91
S3150000077C07300136DAE7052382F879300020F0BD20
S3150000078C10270020F5E70028E2D05724EBE700BF3E
S3150000079CBC2000205C1A0020FFF700BF034B93F827
S315000007AC770093F87B30C01AC0B27047BC2000208B
S315000007BC0021FFF7A9BF000010B50A4B93F87B2068
S315000007CC024453FA82F292F8652013445C78A4F141
S315000007DC2D0359425941FFF797FF2D2C08BF404274
S315000007EC10BD00BFBC20002030B50C4A92F87B30FF
S315000007FC0344C043DBB2C00F39B1D51895F8664037
S3150000080C95F86550641B241A0C7042FA83F393F81E
S3150000081C65301844024B184430BD00BFBC20002084
S3150000082CBD2000202DE9F3410F460DF107011546B9
S3150000083C1C46FFF7D9FF9DF80730AB4288BF8DF8F1
S3150000084C075080469DF807600CB1AC1BE4B22246FB
S3150000085C0021384630F003FC32464146381930F058
S3150000086CE5FB304602B0BDE8F08138B508220C46EF
S3150000087C0123FFF7D7FF04F10803621E043413F8B3
S3150000088C011D12F8015F1D70A3421170F7D138BD1E
S3150000089C38B5014605460120FFF798FED5E9014318
S315000008AC6CB91C46084D236863B12946202002F01A
S315000008BC20FF21460020FFF789FE1434F3E71B784E
S315000008CC6E2BEFD038BD00BFE49B030008B504497E
S315000008DC202002F00EFF2020BDE8084009F09ABD4A
S315000008EC5A11030038B5FFF7F1FF064D00246119C4
S315000008FC1434631953F8143C03B938BD0020FFF7C0
S3150000090C65FEF4E7C82303002DE9F84F1F4B204D75
S3150000091C53F820201F49202002F0EBFE2B681BB950
S3150000092CBDE8F84FFFF7DEBF1B4FDFF874A0FFF7EB
S3150000093CCDFF0026B94697F87B30F4B2013B9C42BA
S3150000094C04DB2868BDE8F84FFFF7A2BF47FA86F329
S3150000095C4C4493F865800023C84494F8662094F8B8
S3150000096C6510521A03F1010BD2B2DBB2934205D3D6
S3150000097C0A49202002F0BDFE0136DCE7434451460D
S3150000098C5A78202002F0B5FE5B46E6E7601A002096
S3150000099C9C35002055110300BC200020E59B03006C
S315000009AC897503002DE9F74F884C94F87730002BA6
S315000009BC00F0A280864B1B7813F0010F04F101079F
S315000009CC1FD00025834E14E06319202093F866206F
S315000009DC93F86530D21A44FA85F3D2B293F86510BF
S315000009EC394409F012FD3146202002F082FE013511
S315000009FCEDB294F87730AB42E6D87749202002F076
S31500000A0C78FE94F877300193DFF8D8E1734B002623
S31500000A1C71461EF8012B91F801C04FF00008ACEBA3
S31500000A2C020C07EB020A5FFA8CFC45461868002894
S31500000A3C52D00138D14619E02AB9002D4AD04FF0D0
S31500000A4C01081433F2E719F8011BA1F1410BBBF1B4
S31500000A5C190F98BF2031A2F1410B98BFC9B2BBF157
S31500000A6C190F9CBF2032D2B28A42EAD1A9EB0A01F5
S31500000A7C614510F8012FDFD1002ADED11D46584BF7
S31500000A8C1D6094F87B30013384F87B30D5E9012363
S31500000A9C0136F6B2002A35D01B786E2B31D03F2B9F
S31500000AAC23D04FF00009C8464FF0070B042394F8E7
S31500000ABC7710AA68B14212F808702BD8AFB19044DF
S31500000ACC98F801302A2B10D0212F1CBF032384F851
S31500000ADC79300AE01D46B4E7B8F1000F01D1002DBC
S31500000AECCDD1022384F87930002594F879000028BA
S31500000AFC69D168680CF0CAF803B0BDE8F04FFFF78F
S31500000B0C4DBD1346019AB24282D8032284F879204D
S31500000B1C1D46EAE7732F09D8712F0BD2212F1FD050
S31500000B2C622F3CD0002F4BD1032246E0A7F1750271
S31500000B3C022A45D8752F29D0762F2AD0732F2BD081
S31500000B4C722F47F6FF7A18BF4FF0FF3A012148463D
S31500000B5C0193FFF7D9FD5045019B01D984F87930F3
S31500000B6CAA68424452782A2A94F879201CBF08F1C4
S31500000B7C01085FFA88F8002AB7D1212F1FBF01366A
S31500000B8C09F10109F6B25FFA89F990E74FF0FF0A0D
S31500000B9CDCE74FF6FF7AD9E74FF07F0AD6E794F8F1
S31500000BAC7B204A4454FA82F292F865202244527809
S31500000BBC222AD5D07B2AD3D0052284F87920CFE7F8
S31500000BCC84F879B0CCE7FFF79FFE95E7BC200020B0
S31500000BDC38210020E59B030097110300C82303006E
S31500000BEC9C350020212100202DE9F3415E4C5F4FFE
S31500000BFC06460D464FF0000866B90DF1070128466A
S31500000C0C09F0FEFB78B1262800F0A980012384F8B0
S31500000C1C79304BE0002D00F0A28016F8013B8DF8E0
S31500000C2C0730013DEDB23A789DF807303B700D2A3E
S31500000C3C01D10A2BE0D00D2B0CD0A3F10A025142A4
S31500000C4C514122788846042AD6D8DFE802F0051DE1
S31500000C5C263C31000121F4E721B1FFF7A3FE4FF04A
S31500000C6C0108C9E7202B63D0222B07D1022323705E
S31500000C7C94F87820642A5DD10623C8E77B2B01D132
S31500000C8C0323F4E70123F2E709B9202BF0D194F8FA
S31500000C9C7730112B3FD10323B9E7222BF7D000294C
S31500000CACE6D0052384F879304FF00108042323702D
S31500000CBCB8F1000FA0D094F8790008B1FFF724FE24
S31500000CCCFFF76CFC98E77D2B94F87A0003D1FF288C
S31500000CDCDDD005239BE7602B13D8402B13D8392B7B
S31500000CEC8CBF002230229A1AD2B20F2A10D8FF28B3
S31500000CFC0BD002EB0012FF238DF8072084F87A3014
S31500000D0CB6E75722EFE73722EDE784F87A2073E748
S31500000D1C202BDED170E70133DBB284F87730234425
S31500000D2C94F8782083F8652000232370002994D149
S31500000D3C884661E72378012B09D19DF80730A3F18A
S31500000D4C410119299CBF2033DBB28DF80730A3185B
S31500000D5C9DF807105970013284F878204CE740460C
S31500000D6C02B0BDE8F08100BFBC2000203921002074
S31500000D7C49BA89B24840C0F303114140080380B216
S31500000D8C4840C3B280EA4310704710F05FBF70470B
S31500000D9C7047704770477047704770477047704789
S31500000DAC7047704770477047704700207047704710
S31500000DBC70470020704782B002AB03E9060002B010
S31500000DCC7047704770470020704700207047704787
S31500000DDC0120704701207047704770477047704775
S31500000DEC70477047704700002DE9F047204DDFF83B
S31500000DFCA090DFF8A0A000245FFA84F8404611F01A
S31500000E0CFDFBFF2806460CD122461A49287802F02B
S31500000E1C85FC2878013409F0FDFA152CECD1BDE8D7
S31500000E2CF087154B59F82420144947B213EA2703C7
S31500000E3C38BF5346287802F071FC002FE9DA14B15A
S31500000E4CB8F1030F08D10E4B0E49287816F0010F96
S31500000E5C18BF194602F062FC0A2CDAD10A4B0B4970
S31500000E6C287816F0010F18BF194602F057FCD0E788
S31500000E7C351D0020211303009911030049130300AB
S31500000E8CE4120300FA1203000C13030016130300FA
S31500000E9C90120300E199030082B2074B42B11A800B
S31500000EAC000C064B0ABF4FF6CE2218801A807047EC
S31500000EBC4BF6EF62F3E700BF201B0020221B00203D
S31500000ECC094B1888020448BF80F0620042001A8061
S31500000EDC064A1388190444BF83F4805383F00B032A
S31500000EEC5900118058407047201B0020221B0020FF
S31500000EFC034B1870034B1970034B00221A70704782
S31500000F0C4421002043210020452100202DE9F04FEB
S31500000F1C234E337885B007468846002B3DD0214DAD
S31500000F2C4FF6FB7398422C7803D952211E4801F0D8
S31500000F3C95F81E4B4FF0000B9A46327818785FFAEC
S31500000F4C8BF94A4511D9484402A9C0B201931BF04A
S31500000F5CA5FA082241460DEB020030F04DF80BF1D4
S31500000F6C010B019B0028E8D14C462B78A34207D1F4
S31500000F7C631C3278DBB29A422B7004BF00232B70B1
S31500000F8C9AF800301C44E4B2414620461BF0C6FBDE
S31500000F9C18B9394620461BF04FFA05B0BDE8F08F5C
S31500000FAC4321002045210020551403004421002034
S31500000FBC024B187800F07F00704700BF46210020D6
S31500000FCC034B18780130C0B2187000F07F007047E0
S31500000FDC462100201FB5030A8DF80E30032300931B
S31500000FEC03AB8DF80D0000F0C5F905B05DF804FBF8
S31500000FFC1FB5030A8DF80F1004218DF80E300091E1
S3150000100C03AB8DF80D0000F0B5F905B05DF804FBE7
S3150000101CF0B589B01768BDF838509DF83C60CDF82E
S3150000102C09708DF812505768DDF840C0BDF8444081
S3150000103CCDF80D702D0A012E8DF811308DF8135048
S3150000104C8DF8146016D0032E1BD1DCF80030CDF8C9
S3150000105C1530DCF80430CDF819309DF848308DF891
S3150000106C1D3016230093BDF84C2002AB00F082F91C
S3150000107C09B0F0BD8DF81540240A8DF816400F23E3
S3150000108CF0E70120F4E71FB50C46194602238DF84C
S3150000109C0D2000930A4603AB0146204600F06AF980
S315000010AC04B010BD10B586B01C460B68CDF80D30DB
S315000010BC4B68CDF811300A238DF815200093224683
S315000010CC03AB342100F056F906B010BD30B585B02F
S315000010DC0024ADF80A20021D92B2012A1D46ADF875
S315000010EC0840ADF80610ADF8044003D94FF6FF7270
S315000010FC904207D1064A2B46127801A919F064FAD8
S3150000110C05B030BD014601AA204619F023FBF7E7CE
S3150000111C241B00202DE9F04F834689B00C461F4650
S3150000112C90463AB3104612F04DF9C0F3470A1FB376
S3150000113C384612F047F9C0F34709FFF741FF4FEA6B
S3150000114C1B238DF818008DF81B400022240A06215B
S3150000115C06A88DF819B08DF81A308DF81C408DF84C
S3150000116C1DA012F03FFAADF8160038B9182009B0D8
S3150000117CBDE8F08F9246DAE7B946DEE74FEA4A0158
S3150000118CCBB2DC1DE4B204EB4901C9B20DF1160079
S3150000119C019312F037FC0028E8D10646F2B29245CC
S315000011ACBDF8163015D8019906314A4601F0FE01F4
S315000011BC184612F097FC0026F5B2A945BDF8168024
S315000011CC2AD84346BDF8482006215846FFF77EFF2D
S315000011DCCDE75500EDB2294640460393029212F034
S315000011EC6DFC029A039BD11C4900024601F0FE01DC
S315000011FC184612F077FC691CBDF816300293C9B27A
S3150000120C404612F05BFC029BE91D0246C9B2184629
S3150000121C12F068FC0136C1E76D00EDB2294638467E
S3150000122C12F04CFC21460246404612F05BFC691C4F
S3150000123CC9B23846BDF8168012F040FC611C024655
S3150000124CC9B24046023412F04DFC0136E4B2B3E7A3
S3150000125CF0B589B00E4602A905460AF0E7FB002850
S3150000126C00F08180FFF7ACFE8DF8100011F082FBC8
S3150000127C8DF8110011F07EFB3D4A8DF81B5013685A
S3150000128CCDF813305368CDF81730BDF808308DF80B
S3150000129C1C30000A1B0A8DF812008DF81D30002236
S315000012AC9DF80D308DF81E300F2104A812F09AF916
S315000012BCADF80600002858D000279DF80D30FAB27C
S315000012CC934207F1010718D801231A460DF10E01B6
S315000012DC0DF1060012F0E0F900279DF80E30FAB277
S315000012EC934207F1010723D8BDF806303246202178
S315000012FC0020FFF7EBFE09B0F0BD002128460AF0EE
S3150000130CC1FB01238DF805001A460DF105010446B3
S3150000131C0DF1060012F0C0F90123240A1A460DF14C
S3150000132C05010DF106008DF8054012F0B5F9C4E77C
S3150000133C012128460AF0A6FB01238DF805001A4662
S3150000134C0DF1050104460DF1060012F0A5F9012375
S3150000135C240A1A460DF105010DF106008DF805401B
S3150000136C12F09AF9B9E7A320C5E71820C3E700BF26
S3150000137C523E00202DE9F0411C460E4617469DF8BC
S3150000138C18800546FFF71CFE0022207041462046B9
S3150000139C12F028F9034630B13A4631462846BDE8E4
S315000013ACF041FFF793BE1820BDE8F08108B5FFF7B2
S315000013BC0FF80DF02DFDBDE8084007F011BD08B57E
S315000013CCFFF7AFF80DF04CFDBDE8084007F098BFED
S315000013DCFFF7A8B8FFF7BBB8FFF7BFB800207047F8
S315000013EC38B504460D46FFF7D4F829462046BDE825
S315000013FC384007F011BDFFF7B2B8FFF7BEB80122AF
S3150000140C002109200EF016BA012070470120704702
S3150000141C012070472DE9F74FDFF87C8007460D4613
S3150000142C1446994603F10C0A4FF0010B15B903B09B
S3150000143CBDE8F08F102D2E46164A28BF1026F3B2A3
S3150000144C494651F8040B42F8040B5145F9D1019366
S3150000145C9AF800101170104888F80F40002288F88E
S3150000146C0E2088F800B001341BF0F6F90B48019BEE
S3150000147CE4B23A4612F8011B10F801CF81EA0C01CE
S3150000148C02F8011CD11BC9B29942F3D3AD1BADB204
S3150000149C1746CBE74C2100204B2100204A21002087
S315000014AC2DE9F04F85B016460293BDF838900F9B88
S315000014BC354A01930D468046034600F10C0153F85C
S315000014CC040B42F8040B8B42F9D1304C1B78137089
S315000014DC4923237020464FEA1923A37384F80F90EF
S315000014EC1BF0BAF9237883EA1623237063784FF03E
S315000014FC020A734063705246A34600271FE0C2F1EE
S3150000150C1001F31B89B29BB28B42A2EB050028BFDC
S3150000151C0B46039029460398A1EB050C1FFA8CFC8D
S3150000152C08189C45C0B21AD31A44D2B21F44102ACA
S3150000153C1D44BFB203D120461BF08EF90022B742E0
S3150000154CDDD312B158461BF087F9BAF1010F4FF0F3
S3150000155C0002029D4E460BD04FF0010ACDE711F862
S3150000156C01CB1BF800E08CEA0E0C0BF800C0D2E79E
S3150000157C064B01991B6801980B604346042105B084
S3150000158CBDE8F04FFFF746BF4C2100204B21002051
S3150000159CF7B5099FBDF82040CDE9004706461D4624
S315000015ACFFF77EFF2CB13346012221462846FFF772
S315000015BC31FF002003B0F0BD2DE9F743BDF82870CC
S315000015CC0F4C1E460546884691460346394630461C
S315000015DC0122FFF71FFF33464A4641462846CDE90E
S315000015EC0074FFF75DFF042221460B982FF004FDD3
S315000015FC002814BF7E20002003B0BDE8F08300BF96
S3150000160C4721002073B51C46044D8B181E592E60BD
S3150000161CCDE90045FFF7D0FF02B070BD5B2100207D
S3150000162C00207047002070470020704770477047B5
S3150000163C2DE9F341254E264FDFF8A48000250AF04C
S3150000164C3BFBECB2A0420BD80AF036FB04460AF080
S3150000165C31FB224603461F4904200CF00BFB0BE022
S3150000166C0DF105020DF1060120460AF021FB30B101
S3150000167C194904200CF0FEFA02B0BDE8F081BDF861
S3150000168C06302246314604200CF010FB9DF805006E
S3150000169CFF2808D10AF0FAF84146024604200CF05D
S315000016ACE9FA0135CBE70DF105020DF106010AF059
S315000016BCFFFA30B9BDF80620394604200CF0F6FACC
S315000016CCE4E7064904200CF0F1FAD5E77A72030038
S315000016DC7E72030099720300647203008872030021
S315000016EC8E72030008B5104A104904200CF0C2FA99
S315000016FC0A220F4904200CF0BDFA3C220D490420A5
S3150000170C0CF0B8FA1E220C4904200CF0B3FA032292
S3150000171C0A4904200CF0AEFA012209490420BDE85E
S3150000172C08400CF0A7BA00BF3A7303003E730300DF
S3150000173C4C7303007273030098730300A5730300C4
S3150000174CC473030008B5012025F0F0FD0349820897
S3150000175CBDE8084004200CF08DBA00BF18730300D6
S3150000176C002025F0E3BD022025F0E0BD08B50020E1
S3150000177CFFF71EF8C2B2012A05D906490120BDE8B9
S3150000178C08400CF077BA04490120BDE808400CF07B
S3150000179C71BA00BFB1720300DC720300034B1B78F5
S315000017AC13B1034B01221A70704700BFFD1A0020BB
S315000017BCAC360020704726F0EBBA704710B586B0F1
S315000017CC044629F000FC29F0FCFB912C03D112F005
S315000017DCC9FA06B010BD902CFBD129F0F0FB0E4BCC
S315000017EC1B5C012B0CD100230120CDE90103032343
S315000017FC00930A223C234FF6F87125F019FEE8E710
S3150000180C0DF117000AF04CFA0028E2D19DF81730BA
S3150000181C012BDED1E7E700BFAC36002010B5104C2B
S3150000182C1049A161032321660F491022C4E9043330
S3150000183C0E4BE361C4E9191200230D49A362E01DA6
S3150000184C6362E3622367E366636722622FF019FC27
S3150000185C084920462FF015FC2023A37110BD00BFAC
S3150000186C00380020E37303005F2100206F21002065
S3150000187CEC730300F07303002DE9F84F1F4B16466B
S3150000188C1A7881468A4698460AB9FFF7C7FF182781
S3150000189C07FB09873D6FD7F86CB05D452BD9BC6E3D
S315000018AC796E641BB44228BF3446294450462246FE
S315000018BC2FF0B1FBBB6E2544A244361BAB4208BFCE
S315000018CC0025ABEB050B5E4528BF5E4656B11823CB
S315000018DC03FB09833246596E504629442FF09BFB75
S315000018EC3444354424B1182303FB0988C8F87050D6
S315000018FC2046BDE8F88F0024E3E700BF003800203F
S3150000190CF8B504460E46174604F033FF3A4605462C
S3150000191C31462046FFF7B0FF0446284604F02FFF59
S3150000192C2046F8BD2DE9F843124D1E462B7881460C
S3150000193C884617460BB9FFF771FF04F01AFF696961
S3150000194C00244FF0180C0CFB04535A6E2AB10134C8
S3150000195CA142F8DC4FF0FF3407E0A142FADDC3E9FF
S3150000196C18989F661A67DA665E6704F008FF2046C9
S3150000197CBDE8F88300380020FFF750BF012270B590
S3150000198C1146042004F030FD1A4B1B4D1A681B48F7
S3150000199C42F001021A60DA684FF0604442F080723D
S315000019ACDA60174BC4F8B03F00260223C4F8006E69
S315000019BCC4F8806EC5F8F03004F012FC00F5D520A2
S315000019CC104B114A00F2FC40B0FBF3F00F4B013800
S315000019DC2861C4F8406E1A600D4BC4F8803E4FF473
S315000019EC8073C5F80433D4F8003E43F48073C4F80E
S315000019FC003E70BDF0ED00E0000004E006000E00B5
S31500001A0C55CEACC5F8590D00FF030040001000E0A0
S31500001A1C0D00010010B50121114804F095FA114B87
S31500001A2C01241C60002005F071FB234604220221D0
S31500001A3C052005F0C3FB20460EF06AFFFFF79EFF5C
S31500001A4C0EF067FF084B1C70FFF796FF23464022EB
S31500001A5C06490748FFF766FF064B1860C00F10BD16
S31500001A6C00350A00108814427F21002080210020B6
S31500001A7CF7730300281B0020024B1868003018BFB0
S31500001A8C01207047F0ED00E0054A4170D123037048
S31500001A9C1378C370090A8170591C117004207047A1
S31500001AACC02100202DE9F74F0E78042E83460F46F1
S31500001ABC61D925F023FBDFF8C480751DEDB2824693
S31500001ACC4FF6FF710024C146D8F800305BB1A54231
S31500001ADC09D9019125F012FBA0EB0A0080B2B0F5F2
S31500001AECFA7F019907D9281B18BF012004233B70E4
S31500001AFC03B0BDE8F08FB4B3012C37D0EA1E631CDB
S31500001B0C9442DBB21CD1CCB24FF06042D2F8800EBC
S31500001B1CC00713D51046D9F80CC04CF0807CC9F818
S31500001B2C0CC0D0F800CE4CF4807CC0F800CED0F8B7
S31500001B3C20C0BCF1000FEED082F820401C46C3E753
S31500001B4CAA1E944202D1C1F30724DDE76A1E944211
S31500001B5C0FD05C44019314F8024C2046FFF708F9A9
S31500001B6C019B0146D0E75B240123CDE734460223D3
S31500001B7CCAE75D24C8E70020B8E700BFF0ED00E037
S31500001B8C00B5084B91B0402269461868FFF7B8FEBD
S31500001B9C20B1C2B26946122029F0FEF811B05DF8E8
S31500001BAC04FB00BF281B002010B5002090B0FEF7E8
S31500001BBCFFFD40226946044600F000FA034630B1A8
S31500001BCC2246064901200CF055F810B010BD012232
S31500001BDC694608200BF0E0FFF7E700BF0774030027
S31500001BEC10B500F093F8002814BF79226E22144920
S31500001BFC01200CF03FF800F089F8F8B100F024FA57
S31500001C0C002814BF79226E220E4901200CF032F8FE
S31500001C1C02220D4901200CF02DF80C4B0C4953F8FF
S31500001C2C042C1C1F01200CF025F804F11003E268AB
S31500001C3C07490120BDE810400CF01CB83F22E3E731
S31500001C4C757503008C7503009C750300AC38002079
S31500001C5CBB75030070B500F07FF8204904460120DF
S31500001C6C0CF008F82CB91E490120BDE870400CF0A8
S31500001C7C01B800F079F822691A4926880546012030
S31500001C8C0BF0F8FF6288184901200BF0F3FF174997
S31500001C9CA28801200BF0EEFF6388E28813F0100F88
S31500001CAC14BF1349134901200BF0E4FFA268124933
S31500001CBC01200BF0DFFFE268104901200BF0DAFF80
S31500001CCC0F4A104B1049B6F5817F28BF13460120E9
S31500001CDC2A46BDE870400BF0CDBF00BF517403001F
S31500001CEC5E7403007F7403009D740300BE740300CE
S31500001CFCDB740300F87403001675030034750300D7
S31500001D0C3F7403004974030052750300034B1878A3
S31500001D1C012894BF00200120704700BFC12100207C
S31500001D2C38B5054D04462878A04203D02146FEF767
S31500001D3CFFFB2C7038BD00BFC1210020054B1B7862
S31500001D4C20B1012B04D80220FFF7EABF012BFBD8E8
S31500001D5C704700BFC121002008B500F019F8BDE896
S31500001D6C084005F09BBF000010B5084C237853B90A
S31500001D7CFFF7F2FF0123237028B10388B3F5817FA7
S31500001D8C24BF037D2370207810BD00BFC221002024
S31500001D9C154B1B78012B70B525D805F065FF134D37
S31500001DAC1349024601200BF065FF0120FFF7C6FF21
S31500001DBC2E78FF2E17D105F071FF98B144880D4887
S31500001DCCC4F34004182231462C702FF048F954B154
S31500001DDCFFF7CAFF042806D9D9210748BDE8704089
S31500001DEC00F03CB9287070BDC12100202C1B0020CE
S31500001DFCDE750300A8380020F0750300FFF7C8BF96
S31500001E0C2DE9F04F87B04FF0FF334FF00009144621
S31500001E1C039307468A46CDE904998DF81030FFF7EF
S31500001E2CB7FFFFF7A1FF624B01931A78012A06460A
S31500001E3C1AD1012818D9B7FBF0F300FB13739BB129
S31500001E4C5C4D2A68511C03D02B7A13449F4239D01F
S31500001E5CEA68531C03D02B7D13449F4230D04FF4B9
S31500001E6C9D71554800F0FAF8019B1B78012B09D19E
S31500001E7CB7FBF6F306FB137323B140F263114E481E
S31500001E8C00F0ECF8019B1B78012B11D1E219B2FB87
S31500001E9CF6F306FB13265EB1921BA41B03920AEB08
S31500001EAC0401324604A82FF0B6F8A4B28DF81460DB
S31500001EBC002C4FD1039B01335FD14FF0000958E042
S31500001ECC4FF001090C2303FB09530FFA89F2187A18
S31500001EDC53001344A6EB00085FFA88F84FEA830B0D
S31500001EECA0450BF1040328BF5FFA84F81844424658
S31500001EFC5146284400932FF08EF80C2202FB09F968
S31500001F0C05EB0901A4EB08040A7A4244D2B2B242A8
S31500001F1CA4B20A72474446D10320FFF701FF009B87
S31500001F2C55F809002B44B2B2194605F0E7FE814676
S31500001F3C0220FFF7F5FE4FF0FF3205EB0B0145F8DB
S31500001F4C0B20C1E90122B9F1000F12D1002CB4D03B
S31500001F5CC24489E70320FFF7E3FE22465146384682
S31500001F6C05F0CCFE81460220FFF7DAFEB9F1000F30
S31500001F7CA0D0484607B0BDE8F08F0E4A136801336F
S31500001F8C0CD0D36801330BD101230C2101FB0323A5
S31500001F9C06AA12E9070083E807008EE70023F4E798
S31500001FAC4FF00109E5E7002C7FF462AF85E700BF2F
S31500001FBC2C1B0020A8380020F075030070B50446D1
S31500001FCC0D461646FFF7E4FE0420FFF7A9FE32463F
S31500001FDC2946204605F0A4FE04460220FFF7A0FE83
S31500001FEC204670BD70B504460D46FFF7D1FE0520A0
S31500001FFCFFF796FE2946204605F0A4FE064602206B
S3150000200CFFF78EFE0E4B1A68501C09D0944207D867
S3150000201C61198A423EBF4FF0FF32C3E900229A6033
S3150000202CDA68511C0AD0A24208D32C44A2423FBF04
S3150000203C04494FF0FF32DA60C1E90122304670BD27
S3150000204CA8380020B438002008B5FFF7A1FEBDE87B
S3150000205C084005F089BE42DE7047000038B50446DC
S3150000206C0D460FF003FE00F0C1FD04F07AFB294685
S3150000207C204628F05DFE2B4622460549012008F035
S3150000208CCFF929462046BDE83840FFF7E4BF00BF2C
S3150000209C617603006D4B2DE9F0416D4C5A68A265D3
S315000020AC5A6AE2656B4AD2F800122166D2F804220B
S315000020BC62669A6AA266DA6AE2661A6B22675A6BDB
S315000020CC6267DB6BA26BA367D4E90F5312F0040FA4
S315000020DC18BF1D4624F0F6FF0022854203466065B4
S315000020EC22655CD35C4A954259D8AA696264E9694F
S315000020FCA164B4F85810C1F30801062953D1574905
S3150000210C8A4250D356498A424DD211884DF64262C4
S3150000211C914248D16268C4F89420A268C4F8982009
S3150000212C40F201704F4A5049934238BF13460A4653
S3150000213C8B423BD3D31AE3640023C4E91F33C4E9AF
S3150000214C2133C4E92333484E444FDFF814C1AE4261
S3150000215C32D8D4E91FC7D4E92165D4E923124FF04C
S3150000216C000E013BDBB2FF2B41D1BEF1000F05D0B7
S3150000217CC4E91FC7C4E92165C4E92312B4F8583071
S3150000218CC3F30803DA1E0F2A55D8DFE802F03A5BD0
S3150000219C474A54545454545154545454543E0022A3
S315000021ACC4E911221D464FF42060BBE71E68B6F148
S315000021BCCD3FBFD10433BBE756F8042DBA42C6D384
S315000021CC6245C4D2D107C2D5002104EB010EDEF85C
S315000021DC7CE09645BBD004311829F6D10BB9052302
S315000021EC01E0013BDBB204EB8301CA67AFE7E046D3
S315000021FC4FF0010EBC4637462E460D46114642465A
S3150000220CAFE740F60120BDE8F081184BDB6913F00F
S3150000221C020F40F2025318BF1846F4E740F60320AB
S3150000222CF1E740F60423B0F5206F08BF1846EAE73D
S3150000223C40F60520E7E7013B40F60722412B98BF05
S3150000224C1046E0E740F60220DDE700BF00ED00E0B7
S3150000225C0000002000E100E0201A0020240300000A
S3150000226CC01003009C000020401A002000200540EE
S3150000227C062804D007280CBF012002207047002036
S3150000228C704700002DE9F04385B04FF48073ADF82C
S3150000229C0C3001F0EFFC01211548DFF85C80DFF80B
S315000022AC5C9003F051FE0121124803F04DFE002410
S315000022BC012703AB0122E35C18F8336008EBC30378
S315000022CC30465D680023294604F078FF4946E8B29B
S315000022DC01F0DEFCCDE9007701232A46294630467B
S315000022EC04F020FF14B105B0BDE8F0830124E0E74B
S315000022FC4041050000350A00747603009123000066
S3150000230C08B5FFF7B5FF022816BF024B0020185C74
S3150000231C08BD00BFC321002008B5FFF7A9FF02289E
S3150000232C1CBF014B195408BDC321002008B5FFF78B
S3150000233C9FFF022805D0034A135CB3FA83F35B09AB
S3150000234C135408BDC321002008B5FFF791FF0228DE
S3150000235C11D00A4A12F8301030234B4302EBC0025C
S3150000236C07491944536803EBC1039B001868B0FA7C
S3150000237C80F0400908BD0020FCE700BF747603001E
S3150000238C1CA0104270B50446FFF7DEFF002605467A
S3150000239C01E000261D462046FFF7D6FFA84203465D
S315000023ACF7D10136052EF2D12046FFF7A9FFA84238
S315000023BC0BD029462046FFF7AFFF2046FFF7A0FFBC
S315000023CC0146204609F096F970BD2046FFF7AEFF90
S315000023DC2046FFF795FF0146204609F08BF920466B
S315000023ECFFF7A4FFE9E7000010B505F049F904462C
S315000023FC05F040F90022012101FA02F3234014D022
S3150000240C1B4B33F812301B4A062B13D040F2072114
S3150000241C8B420DD1184919480C68844208D14CF2EC
S3150000242C3C334B800B88138012E00132112AE3D126
S3150000243C104AF8E7104B58884FF20F01884214D116
S3150000244C1988B1F5406F10D211804CF23C325A808B
S3150000245C084B1A8840F201739A4201BF084A094B8D
S3150000246CD2E90001C3E9000110BD4FF4C061EBE7EE
S3150000247C84760300D02100200000002007020FF014
S3150000248C94000020C8210020014B1888000A7047D0
S3150000249CD0210020014B1888704700BFD0210020A6
S315000024AC2DE9F04F4D4CA36BD4F850B0D4F840A0A6
S315000024BC5A074FBF0027D4F84CB0D4F85480D4F840
S315000024CC3CA05ABF464FDFF84091DFF84091454A91
S315000024DC48BFB84613F0080F434B18BF1A46B7EB64
S315000024EC08061CBF7308642187B01FBF01FB0B33A2
S315000024FCB3FBF6F39BB205933C49CDF800804B46F3
S3150000250CCDE9017A08BF0596054601F007F9B3B285
S3150000251CCDE900931FFA8BF2059B3549284601F04D
S3150000252CFDF8A36B5B070AD49C3E5E4507D1626D32
S3150000253C304B9A4203D23049284601F0EFF8BA459F
S3150000254C01D8C24504D24A462C49284601F0E6F881
S3150000255C284607F05FFF236E0BB9636EBBB32849A1
S3150000256CDFF8AC80DFF8AC90284601F0C2F8002604
S3150000257C0127226E07FA06F3134207D058F82620D5
S3150000258C13781BB14946284601F0B3F80136202EC4
S3150000259CEFD1DFF87C80DFF87C9000260127626E95
S315000025AC07FA06F3134209D008EB8603D3F880200A
S315000025BC13781BB14946284601F09BF80136122EBA
S315000025CCEDD1284607B0BDE8F04F01F0A1B80D4992
S315000025DC284607B0BDE8F04F01F0A0B80000002077
S315000025EC401A00209E79030097790300A679030010
S315000025FCD47903009C0000200D7A0300397A03007D
S3150000260C577A0300867A0300927903008A790300CD
S3150000261C9C7A0300997403002DE9F8430446FFF7EE
S3150000262C39FF40F60123984239D010D840F20253B4
S3150000263C98421DD040F20173984224D040F20153C7
S3150000264C984213D16549204601F068F822E040F61D
S3150000265C032398426CD03DD340F60423984200F0F5
S3150000266C9C8040F60523984200F0B580BDE8F883BF
S3150000267C5B49204601F052F85A4B5B495A6C20468E
S3150000268C01F04CF806E0574A5849D2E92523204672
S3150000269C01F044F82046BDE8F84307F0BBBE514DA7
S315000026AC5349204601F03AF895F86C309F0703D54C
S315000026BC5049204601F032F895F86F305E0603D586
S315000026CC4D49204601F02AF895F96F30002BE1DAD6
S315000026DC4A49B8E7434D4A49204601F01FF895F898
S315000026EC6830980704D06A6C3F49204601F016F80A
S315000026FC95F96830002B04DA6A6F4249204601F0DE
S3150000270C0DF8DFF80C81DFF8189100260127AA6E68
S3150000271C07FA06F3134207D058F8262013781BB194
S3150000272C4946204600F0FAFF0136082EEFD1B1E7F4
S3150000273C2C4D3549204600F0F1FF2B496A6C20469A
S3150000274C00F0ECFF95F86930590703D52F49204660
S3150000275C00F0E4FF95F96930002B04DA6A6F294919
S3150000276C204600F0DBFF2A4FDFF8B4800826AB6E5C
S3150000277CF340DA0707D557F8262013781BB14146E4
S3150000278C204600F0CBFF0136102EF0D195F86830BC
S3150000279C002B7FF47FAF1F4955E7124D1E491C4F86
S315000027ACDFF87C80204600F0B9FF6A6C0E492046A3
S315000027BC00F0B4FF1026AB6EF340DB0707D557F8D5
S315000027CC262013781BB14146204600F0A7FF0136A0
S315000027DC1A2EF0D15EE711494BE700BF19770300BB
S315000027EC5677030000000020867703009F770300CE
S315000027FCB9770300D17703000B7803003E7803000A
S3150000280C7A7803009F780300C3780300DA78030014
S3150000281CA876030020790300507903006979030038
S3150000282CBB7803002DE9F84F164C174FDFF8608084
S3150000283CDFF860A00646002523785FFA85FB0BB906
S3150000284CBDE8F88F57F8043B10492246304600F095
S3150000285C50FF227804F1010982B9627882B10BF03B
S3150000286C030103290CBF41465146304600F041FF97
S3150000287C304607F0CFFD01354C46DDE74C46E8E720
S3150000288C4146F2E7647B0300040000201077030046
S3150000289C97110300EA8C030000F00CB800F00AB89C
S315000028AC00F008B800F006B800F004B800F002B862
S315000028BC00F000B872B61EF0080F09D01EF0040F17
S315000028CC0DD0DFF850E0AEE8FF1F6FF002000CE011
S315000028DCDFF840E0AEE8FF1F6FF00E0005E0DFF812
S315000028EC34E0AEE8FF1F6FF006006946EFF309828D
S315000028FC8EE8070086460848084C854501D3A54551
S3150000290C01D384F30888FFF7C5FB84F3088824F009
S3150000291CB5FB00000400002020110020401A002006
S3150000292CFFF7C6BF10B501210A4803F00DFB0121C4
S3150000293C094803F009FB042211460023052004F084
S3150000294C3DFC0521002304220846BDE8104004F096
S3150000295C35BC00BF4041050000350A00064B03EBB1
S3150000296CC00213F83030516801228A403021594395
S3150000297C024B5A50704700BFF48103000CA000466E
S3150000298C064B03EBC00213F83030516801228A4023
S3150000299C30215943024B5A50704700BFF481030053
S315000029AC0CA0004410B10020FFF7D8BFFFF7E8BF1A
S315000029BC37B57F2A14BF154600254BF23462914277
S315000029CC044619D17F2241F2020168460823FFF71B
S315000029DCEFFF0822264968462EF00EFB30B9082375
S315000029EC7F2241F2F0116846FFF7E2FF6B4603CBFC
S315000029FC2060616003B030BD41F2F012914219D1F2
S31500002A0C1C490A6C496C01381D1F002BF2D0013B86
S31500002A1C9D4200F8012F4FEA1222F6D10334002210
S31500002A2C9A42E7D00132042A04F8011F4FEA112119
S31500002A3CF6D1DFE701F47042B2F5805F0BD1C1F33A
S31500002A4C0B0404F17E641A4603FB054103B0BDE892
S31500002A5C30402EF0E0BA01F46042B2F5005FC9D105
S31500002A6CC1F30B0404F17E6404F58044EBE700BF6C
S31500002A7C88820300B081E00F70B5054616461C46E9
S31500002A8CDBB14BF23463994210D1082C28BF0824D1
S31500002A9C7F2241F202012346FFF78AFF22460749AD
S31500002AAC28462EF0A9FA40B941F2F01123463246D7
S31500002ABC2846BDE87040FFF77BBF70BD88820300D7
S31500002ACC2DE9F8431646C20704460F4603D5DD2109
S31500002ADC2748FFF7C3FAF30703D5DE212448FFF78F
S31500002AECBDFA04F47043B3F5805F21D1C4F30B0433
S31500002AFC04F17E64731E1F4A23449342254603D970
S31500002B0CE3211B48FFF7AAFADFF8649005EB0608E9
S31500002B1C454522D156B372083946204624F03BFA75
S31500002B2C20B340F20F111248BDE8F843FFF796BAEE
S31500002B3C04F46043B3F5005F07D1C4F30B0404F14E
S31500002B4C7E6404F580442546DEE7EA210848FFF753
S31500002B5C85FA6FF00F050024D6E715F8013BFF2B1D
S31500002B6CD6D0F4214846FFF779FAD1E7BDE8F883C9
S31500002B7C0E820300FF07E00FFFF78EBE1FB5012183
S31500002B8C1648174C03F0E0F901221146104603F0E3
S31500002B9C2BFC0421072004F05DFD124A10685168D5
S31500002BAC01AB03C39068186001238DF804300D2324
S31500002BBC8DF80C3001A9032320468DF80D3004F056
S31500002BCC92FF094B04220221C3F8802161621A602C
S31500002BDCA36A0B43A36204B010BD00BF30253E00B0
S31500002BEC002005409082030000E100E0014804F05B
S31500002BFC6EBF00BF00200540A52803D10021024866
S31500002C0C04F051BF704700BF00200540024B186806
S31500002C1C00F00100704700BF00200540024A93688F
S31500002C2C002BFCD1704700BF0020054000207047E8
S31500002C3C002070477047000013B572B603F091FD83
S31500002C4C794B7A495B698B6000230B76E0204B76D7
S31500002C5C8B764023C876087748778877CB77744B82
S31500002C6C8022602481F8202081F8210081F822003E
S31500002C7C81F8232083F8002383F80143202483F86A
S31500002C8C024383F8034383F8042383F8052383F86C
S31500002C9C062383F8072383F8082383F8092383F88C
S31500002CAC0A2383F80B2383F80C2383F80D2383F86C
S31500002CBC0E2383F80F2383F8102383F8112383F84C
S31500002CCC122383F8132383F8142383F8152383F82C
S31500002CDC162383F8172383F8182383F8192383F80C
S31500002CEC1A2383F81B2383F81C2383F81D2383F8EC
S31500002CFC1E2383F81F2383F8202383F8212383F8CC
S31500002D0C224383F8232383F8242383F8252383F88B
S31500002D1C262383F8272383F8282383F8292383F88B
S31500002D2C2A2383F82B2383F82C2383F82D2383F86B
S31500002D3C2E2383F82F2383F8302383F8312383F84B
S31500002D4C3203CB6823F4E0631B041B0C43F0BF6314
S31500002D5C43F40133CB604B6943F400734B614B690D
S31500002D6C43F010034B614FF4E0234B6205F0E6F899
S31500002D7CFFF73AFBEFF308832E4A043B4FF0CD31B5
S31500002D8C93421DD22C4A2D4892B200212EF067F99F
S31500002D9C62B62B4B01225A642A4BDB6C1B0E12D1EA
S31500002DAC29492A484AF6E8520A60026842F00402A7
S31500002DBC02600B60264A136843F40053136004E068
S31500002DCC1960043BDCE7012BF4D0224A136A23F486
S31500002DDC441343F488131362A2F58042012413684A
S31500002DEC43F48073136002F546522432136843F49D
S31500002DFCF8431360184B1C6104F0E4FF01F0B8FBB8
S31500002E0C002368460093ADF804308DF8034003F0B8
S31500002E1C5BFF00F0E7F824F083F900F0F1F80F48B7
S31500002E2C28F06EF902B010BD0000000000ED00E0C5
S31500002E3C00E100E0E010002014100000A0000020CB
S31500002E4C00000E40B081E00F90310E4098310E40DC
S31500002E5C64310E4000400E4000300E40BCA603000C
S31500002E6C40F2016024F00AB9FEF7E0BB08B5002178
S31500002E7C0B20FEF7D9FBBDE80840FEF7D8BB08B11E
S31500002E8CFDF789BBFDF786BB032000F09DBA000059
S31500002E9C08B5FFF7F9FA044B0B289ABF00B203EBFF
S31500002EAC8000184608BD00BFE283030008B5FFF793
S31500002EBCF1FA044BC0F30F22C0B253F8223003EBE5
S31500002ECC800008BDAC83030010B5FFF7DDFA04469D
S31500002EDCFFF7E0FAC0B228B9012C24D164F07F04C4
S31500002EECE4B216E0072CF9D801A353F824F000BF7E
S31500002EFC1F2F0000E92E00001D2F0000232F0000BD
S31500002F0C232F0000272F00002B2F00002F2F00004F
S31500002F1C0924204610BD0224FBE70324F9E70B2401
S31500002F2CF7E70624F5E70446F3E700BF38B50D4688
S31500002F3C044688BB284B4A1E186050425041013D3E
S31500002F4C07F0EEFC032D46D8DFE805F002131E2031
S31500002F5C01210846FDF720FBFFF758FE1F4B1870A2
S31500002F6C10B1A520FFF748FE0120BDE8384007F058
S31500002F7CD7BC02210120FDF70FFBFFF747FE50B32C
S31500002F8CBDE83840FFF74ABE0421F3E705210120CE
S31500002F9CBDE83840FDF700BB104B1B781BB1012177
S31500002FAC0F4804F080FD631E58425841013C07F05F
S31500002FBCCDFC032C0FD8DFE804F002080A0C012024
S31500002FCC07F0C4FC01210020E2E70221FBE7042103
S31500002FDCF9E70521F7E738BDE0210020E4210020C0
S31500002FEC00200540044AD2F81C341B0C1B04C2F802
S31500002FFC2434024A1360704700A00040D4210020FC
S3150000300C08B505F071F818B18C210448FFF726F8BD
S3150000301C03490448BDE8084005F012B912840300C0
S3150000302C341B0020D8210020134A1449D2F8283426
S3150000303CD2F81C241340124A9BB21360D1F800013B
S3150000304C400502D50868400506D4D1F800014003B6
S3150000305C05D50968480302D543F480331360074B42
S3150000306CD3F80011490006D51B685B0042BF1368F4
S3150000307C43F400331360704700A0004000E100E009
S3150000308CE0210020012810B50AD0831E012B1CD983
S3150000309C04281CD0052801D103F08EFD002400E085
S315000030AC044620460B4A012105F04EF803F04EFB70
S315000030BC03F05BFB05F0EAF803F04AFB2046054AF1
S315000030CC0021BDE8104005F03FB80224E9E70324CF
S315000030DCE7E700BF8E840300FFF7D4BF2DE9F04F5E
S315000030EC89B00DF01FFC0746002840F0DC806F4EBF
S315000030FC6F4D3168286826F0E5FF0446002827D076
S3150000310C33689A69D3E900011268904733689B6962
S3150000311C04A89B68984733689B690220DB6898472C
S3150000312C3C46326805985368B3FBF0F3E7B2BB42F2
S3150000313C916904F1010442D8CB68002098473368A2
S3150000314C9B695B6898473168286826F0BBFF044684
S3150000315CDFF888910026002C53D1564BF35C4FEACE
S3150000316C8608002B31D1544BF35C0193534BA2468A
S3150000317C03EB080B019B28685FFA8AF7BB4253D80E
S3150000318C4F4BF35C002B3CD04C4B019F9844FBB24D
S3150000319C7E2B286835D8D8F8003007EB030A03AA2B
S315000031AC02AB514627F0BEF948452AD0514628684D
S315000031BC27F0FEF9013704460028E8D021E0126812
S315000031CC0B6907FB00209847ABE73C4B286853F884
S315000031DC267003AA02AB394627F0A4F9484507D056
S315000031EC78B9039B012B0CD03946286827F0E0F9F7
S315000031FC344B286853F8083039461A6827F0BCF85F
S3150000320C04460136242EA6D1B4FA84F32E4A5B0961
S3150000321C13702E4B9C4240D02DD8002C32D0013B43
S3150000322C9C423ED0C5242DE0DBF800301F4403AA97
S3150000323C02AB394627F076F948450AD010B10AF1A7
S3150000324C010A97E7039B8BB9214B029AF35C9A42CE
S3150000325CF5D01F4B1B4A9B5D52F80820286839464F
S3150000326C26F0FCFF0028EAD0044689E73946286890
S3150000327C27F09EF9EDE7174B9C4210D004339C4285
S3150000328CD0D1C1242B681B7C1BB1D3211248FEF76D
S3150000329CE5FE204609B0BDE8F08FC324F2E7C4244E
S315000032ACF0E7C224EEE7C624F3E700BF781B002044
S315000032BC741B0020D4170300201703001C180300EE
S315000032CCF817030044170300E521002002E000F084
S315000032DCAC18030004E000F0988403000BE000F047
S315000032EC232970B506460C4615461AD8144A127888
S315000032FC22B3144A1068144A52F82110134A125D6C
S3150000330C3AB1324627F086F8C0B1BDE87040FDF7F9
S3150000331C3EBD7F2D08BF00253246294426F0E8FF26
S3150000332CF2E7FF2903D9BDE87040FFF7A5BB40F2D1
S3150000333C01110748BDE87040FEF790BE70BD00BF96
S3150000334CE5210020741B00201C180300D417030071
S3150000335C988403002328F8B504460D46164619D85A
S3150000336C1449097829B31449144F0868144951F8BB
S3150000337C24103C5D3CB1126826F0FEFFC8B1BDE8D6
S3150000338CF840FDF704BD7F2D08BF0025294426F023
S3150000339C65FFF3E7FF2805D91A463146BDE8F84024
S315000033ACFFF78EBB4FF49A710648BDE8F840FEF75E
S315000033BC55BEF8BDE5210020741B0020D417030070
S315000033CC1C1803009884030008B5084B1B7863B1DE
S315000033DC074B53F82010074B0022186827F05AF8B1
S315000033EC18B1BDE80840FDF7D2BC08BDE5210020A8
S315000033FC1C180300741B0020232970B505461646BD
S3150000340C1C4607D819480078B0B12868BDE870404A
S3150000341CFFF766BFFF2921D97F2A01F4704308BF45
S3150000342C0026B3F5805F08D1C1F30B0040F07E6037
S3150000343C14FB06F42044286070BDB3F5405F06D13A
S3150000344CC1F30B0040F07E6040F48040F0E7084882
S3150000345C4FF4EE71FEF702FE0020ECE74FF4F1712B
S3150000346C0348BDE87040FEF7F9BD00BFE52100201A
S3150000347C9884030070B5164685180AB9304470BD99
S3150000348C01F00F030A2B34BF302437242344013AAE
S3150000349C090905F8013DD2B2EFE70000F0B5F9B124
S315000034AC00281CDA2D23B0F1004F137000D04042D7
S315000034BC012115E0801B8642ECB205F10105F9D914
S315000034CC04B927B14D1C303454540127E9B20133E9
S315000034DC092B09D1303050540131C8B2F0BD00214E
S315000034EC0023DFF80CC01F465CF823600025E2E7DA
S315000034FC108503002DE9F04F95B04FF0000B02AC90
S3150000350C81468A4617461D465E46A0463B7863B9F9
S3150000351C02ABE41AE4B2224619465046C8470028C4
S3150000352C40F093803444E0B290E0252B13D0BBF1ED
S3150000353C000F14D12370013412AB9C426DD3A4EB53
S3150000354C0804E4B2224641465046C84700287CD1BE
S3150000355C2644F6B260E0BBF1000F00D101373B7890
S3150000356C632B00F092801BD8392B09D8302B80F0B6
S3150000357C9E80002BCCD0252B51D04FF0000BDBE7D7
S3150000358C582B00F08B80622BF7D12B6801936B685C
S3150000359C00934FF0000B009B9B4543D10835ECE79D
S315000035AC702B1ED017D8642B01D06C2BE5D16C2B4D
S315000035BC05F1040B28686CD17B78752B14BF01219F
S315000035CC002101D0642B00D101372246FFF766FF9C
S315000035DC04445D46D1E7752BE9D0782B5ED0732B6E
S315000035ECCBD1A4EB0804E4B2224602A9504605F15D
S315000035FC040B2D68C84740BB2644F6B2C4B2013052
S3150000360C2B5D002BFAD1224629465046C847E0B915
S3150000361C26445D46F6B283464446013776E7237068
S3150000362C0134AAE7019B204613F80B100222FFF780
S3150000363C21FF12AB984204460ED3A0EB0804E4B269
S3150000364C224641465046C84718B1002015B0BDE881
S3150000365CF08F2644F6B24446009B013B5B4582BF85
S3150000366C20232370013412AB9C420BD3A4EB080429
S3150000367CE4B2224641465046C8470028E5D12644C6
S3150000368CF6B244460BF1010B85E72B682370043523
S3150000369CC6E7752B0CBF0021012196E720460222B6
S315000036AC2978FFF7E7FE05F1040B044691E77A78D3
S315000036BC02F0DF02582A19D1322B07F1010B09D17E
S315000036CC29882F1D04222046FFF7D4FE3D460446CA
S315000036DC5F4652E7342B09D12F1D2D680422290C85
S315000036EC2046FFF7C7FE0422A9B2EDE74FF0010B07
S315000036FC22E70EB403B503AA52F8041B019207F095
S3150000370CB1F9C0B202B05DF804EB03B0704700002B
S3150000371C0149FFF7EEBF00BF971103000EB433B596
S3150000372C05AA054652F8041B019207F09BF90446BC
S3150000373C2846FFF7EDFFE0B202B0BDE8304003B01B
S3150000374C704708B507F08EF9C0B208BD2DE9F04FE9
S3150000375C9B46584B85B01B78109F9DF844A0DDF80E
S3150000376C5080064689461546002B00F09280072AA3
S3150000377C00F291800E9B002B00F08D800F9B002B8E
S3150000378C00F08980129BB3F5006F00F3848001284A
S3150000379C01D1002F7FD0484B03EB05131B7B002B6D
S315000037AC7BD0464C1022002168462DF058FC04EBC9
S315000037BC45141022B9F1000F5CD1494620462DF074
S315000037CC4EFCA37843F01003A370E37843F0300368
S315000037DCE370BAF1000F03D1DBB243F00303E370DD
S315000037EC3649129BCDF800B06A01013B885A01EBB1
S315000037FC020C63F30E1088520E9BCCF808300F9B0C
S3150000380CCCF804309DF84C109CF80330012E61F373
S3150000381C83038CF8033042D11323CCF80C309CE88C
S3150000382C0F000CF1100E8EE80F00DCF81C20CCF803
S3150000383C14706FF0030161F39F02B9F1010FCCF81C
S3150000384C1C2004D10F9BCCF81830CCF804701A4904
S3150000385C2A018B1841F802800027159A5A602846CF
S3150000386C9F605E732246694603F034FD384605B008
S3150000387CBDE8F08F002120462DF0F1FB1023A3703C
S3150000388C0323E370BAF1000FAAD1DBB243F0300385
S3150000389CA5E70B48EBE70B48E9E70B48E7E7B8F178
S315000038AC000FD4D19CF8023068F304138CF8023064
S315000038BCCDE700BF68230020E82100206822002005
S315000038CC028000F0018000F0078000F038B5104B44
S315000038DC1B780546BBB1C0B102F04BFF0D49002366
S315000038EC01EB0312147B3CB92B6001231373146098
S315000038FC02F045FF204638BD0133082BF0D102F00B
S3150000390C3EFF0548F7E70548F5E70548F3E700BF2E
S3150000391C68230020E8210020048000F0028000F0DB
S3150000392C018000F038B502F024FF0B4A054600234F
S3150000393CD1180C7B5CB91033802BF9D103F080FCC9
S3150000394C064B28461C7002F01AFF204638BD284646
S3150000395C02F015FF0248F9E7E82100206823002051
S3150000396C058000F00D4B1B7810B5044693B1072863
S3150000397C12D802F0FEFE0A4B03EB04131A7B2AB193
S3150000398C00241C7302F0FBFE204610BD02F0F7FE6D
S3150000399C0448FAE70448F8E70448F6E768230020E9
S315000039ACE8210020068000F0028000F0018000F083
S315000039BC13B5164B1868019000238DF8043002F0ED
S315000039CCD8FE134B1C7824B102F0D9FE114802B074
S315000039DC10BD01221A7002F0D2FE0F4B1C731C771D
S315000039EC83F82C4083F83C4083F84C4083F85C40C9
S315000039FC83F86C4083F87C4004230DEB03008DF8B0
S31500003A0C073003F03DFC2046E1E700BF3485030098
S31500003A1C68230020038000F0E821002010B588B050
S31500003A2C0E9C07940D9C06949DF8304005940B9CB7
S31500003A3C04949DF8284003940024CDE901340092A7
S31500003A4C0B46024621462046FFF780FE08B010BD05
S31500003A5C10B588B00E9C07940D9C06949DF83040CA
S31500003A6C05940B9C04949DF8284003940024CDE9FE
S31500003A7C013400920B46024601212046FFF766FEF2
S31500003A8C08B010BD08B50A4B1B785BB107280BD8DC
S31500003A9C084B03EB00131B7B43B1002103F0E6FB41
S31500003AAC002008BD0448FCE70448FAE70448F8E798
S31500003ABC68230020E8210020028000F0018000F03D
S31500003ACC078000F008B50A4B1B785BB107280BD8AA
S31500003ADC084B03EB00131B7B43B1012103F0C6FB20
S31500003AEC002008BD0448FCE70448FAE70448F8E758
S31500003AFC68230020E8210020028000F0018000F0FD
S31500003B0C078000F008B50A4B1B7853B107280AD872
S31500003B1C084B03EB00131B7B3BB103F02DFC002081
S31500003B2C08BD0548FCE70548FAE70548F8E700BF75
S31500003B3C68230020E8210020028000F0018000F0BC
S31500003B4C078000F00D4B1B7893B1072812D889B16A
S31500003B5C0B4B03EB00131B7B73B10A4B1A6A012345
S31500003B6C03FA00F010401ABF00200B700870704763
S31500003B7C054870470548704705487047682300207C
S31500003B8CE821002000200E40028000F0018000F0A9
S31500003B9C078000F00B4B1B7810B50C4663B1072859
S31500003BAC0CD859B1084B03EB00131B7B43B103F044
S31500003BBCF9FB2060002010BD0448FCE70448FAE736
S31500003BCC0448F8E768230020E8210020028000F072
S31500003BDC018000F0078000F02DE9F843174E326E95
S31500003BECF36E12EA030800D5FEE7154CDFF8549085
S31500003BFC0127002518EA070F16D02368B7669BB174
S31500003C0CA16862680131A16028469847637B012B45
S31500003C1C0AD148B909EB4513197B1A7F60F34101A8
S31500003C2C60F3410219731A770135082D4FEA4707DD
S31500003C3C04F11004DED1BDE8F88300BF00200E406D
S31500003C4CE82100206822002070B5094E04460125A3
S31500003C5C04B970BD94FAA4F0B0FA80F005FA00F33A
S31500003C6C24EA030456F82030002BF1D09847EFE7EE
S31500003C7C6C230020054B4FF48022C3F880211A6078
S31500003C8C4FF48062C3F880211A60704700E100E0AF
S31500003C9C38B504460D4602F06CFD034B43F8245030
S31500003CACBDE8384002F06BBD6C230020074BD3F8FF
S31500003CBC2804D3F81C24104020F42A5020F02A00A3
S31500003CCC4004400CC3F82404FFF7BEBF00A000401C
S31500003CDC074BD3F82804D3F81C24104020F4AA4030
S31500003CEC20F055000004000CC3F82404FFF7ACBF09
S31500003CFC00A00040104A4161136830B51546ABB9B7
S31500003D0C1060836011E0091B9C6841611A467CB106
S31500003D1C23465C698C42F6D9002CF4D052B19060E3
S31500003D2C836013B15A69511A596130BD0022F0E70C
S31500003D3C2346F4E72860F3E7C423002010B500F00F
S31500003D4C25FB094B094A196831B11368C41A4B692A
S31500003D5CA34203D31B1B4B61106003E0C01A002364
S31500003D6C10604B6110BD00BFC4230020B02300209F
S31500003D7C38B50F4D2B685C690E4B1B6802201C4432
S31500003D8C00F032FB204600F007FB0B492A680023A3
S31500003D9C0B70D088800702D501230B7038BD926852
S31500003DAC002AFBD050690344012BF2D9F6E700BF79
S31500003DBCC4230020B0230020B823002070B59DF842
S31500003DCC14500571002516468560049ABDF81850E6
S31500003DDCC58004460260C0E903360D4629B9616107
S31500003DEC0BB11146984796B1354602F0C2FC064611
S31500003DFCFFF7A4FF29462046FFF77CFF054B1B68FF
S31500003E0CA34201D1FFF7B4FF304602F0B8FC002004
S31500003E1C70BD00BFC42300200C4A136800217BB17F
S31500003E2C83420AD1836879B18B6083681BB15A6966
S31500003E3C41690A445A610020704719469B68EEE7AF
S31500003E4C0028EFD0022070471360EEE7C423002051
S31500003E5C70B5144D02F08DFC2C780646D4B9124B75
S31500003E6C1C60124B1C60124B1C8000F04DFA01209A
S31500003E7C00F0BAFA00F006FB0E4B0246186070B161
S31500003E8C23460D4840F2E7312CF0FEFE0B4B186032
S31500003E9C01232B70304602F072FC002070BD2320EB
S31500003EACFCE700BFAC230020C4230020B023002075
S31500003EBCBA230020C023002018FCFFFFB4230020E7
S31500003ECC2DE9F0410546F8B102F053FC0F4F0646BA
S31500003EDCFFF734FF2846D7F80080FFF79DFF04460E
S31500003EEC28B1304602F04BFC2046BDE8F081A845CF
S31500003EFC3B6803D123B1FFF73BFFF2E7002BF0D170
S31500003F0C022000F07FFAECE72224EDE7C423002020
S31500003F1CF0B50D4685B016461F46044680B1FFF730
S31500003F2CCFFFBDF82C3002939DF828300022CDE946
S31500003F3C0073294633462046FFF740FF05B0F0BD17
S31500003F4C2220FBE738B50C46054698B191B1002303
S31500003F5C0B7002F00EFC084B1B6801210BB122788A
S31500003F6C1AB102F00CFC002038BD9D420CBF21702A
S31500003F7C9B68F3E72220F7E7C4230020F0B587B04F
S31500003F8C1F4600230D4616468DF817300446A0B181
S31500003F9C0DF11701FFF7D6FF9DF817207AB9BDF87A
S31500003FAC343002939DF830302946CDE90073204613
S31500003FBC3346FFF703FF07B0F0BD2220FBE70320D3
S31500003FCCF9E70000F8B50C460646C8B1C1B102F0D7
S31500003FDCD0FB0546FFF7B2FE73692360134B1B68D3
S31500003FECB3420FD023B9284602F0C9FB03201CE0CC
S31500003FFC596922689B680A442260F1E700230FE0A6
S3150000400C222012E00A4E276800F0C0F93368C01A65
S3150000401C8742F3D900F0BAF93368C01A23681B1A21
S3150000402C2846236002F0ABFB0020F8BDC423002019
S3150000403CB0230020F8B507460E4602F09AFB124B49
S3150000404C1B680546002423B9284602F098FB1B2062
S3150000405C15E05A691444DA88BA4213D10B4F00F0B2
S3150000406C95F93B68C01AA0420AD200F08FF93B685A
S3150000407CC01A201A3060284602F081FB0020F8BDD9
S3150000408C0020F7E79B68DEE7C4230020B02300205E
S3150000409C014B1878704700BFB823002038B502F0E2
S315000040AC68FB054600F072F90446284602F067FBE9
S315000040BC204638BD70B502F05CFB064600F066F98A
S315000040CC094B1C8805460120A4B200F0B3F918B1BF
S315000040DC00F05CF901340546304602F050FB002234
S315000040EC42EA0500214670BDBA230020014B186830
S315000040FC704700BFC02300200A4B1B68834210B5D3
S3150000410C0C460CD3084B19684FF47A720023A0FBAB
S3150000411C01012CF0B9FD01302060002010BD2120DA
S3150000412CFCE700BFB4230020C0230020104B1A6804
S3150000413C4FF47A7310B5A0FB0301A2B1531E1342C0
S3150000414C11D1B2FA82F2C2F11F02C2F12004A2F11D
S3150000415C200301FA04F420FA02F2224321FA03F3B3
S3150000416C42EA030010BD00232CF08EFDFAE700BFD7
S3150000417CC0230020F8B516461BA3D3E900238B42B7
S3150000418C08BF82422AD3174B1A684FF47A73A0FBE6
S3150000419C034503FB0155C2B1531E13EA020014D1A9
S315000041ACB2FA82F2C2F11F02C2F12007A2F120017B
S315000041BC24FA02F305FA07F73B4325FA01F10B4300
S315000041CC25FA02F2C6E90032F8BD0023204629463C
S315000041DC2CF05AFDC6E900010020F5E72120F3E793
S315000041ECAFF30080C0230020EFA7C64B37894100F0
S315000041FCC2072DE9F84F04460BD53F4A1388013305
S3150000420C9BB21380FFF79AFD3C4B1B680BB1FFF773
S3150000421CAFFDA3076DD53A4F00F0B8F83D68804660
S3150000422C451B02F0A6FA002683463246B246334BAD
S3150000423C1C6814B16369AB4214D9012E314B51D1B0
S3150000424CD288022A4ED11E70002C4ED06369C7F854
S3150000425C00805D1B6561FFF78BFD5846BDE8F84F86
S3150000426C02F08DBAC7F8008023462A465969914256
S3150000427C09D8187994F804C0844588BF1C469B68F5
S3150000428C521A002BF2D1584602F079FAD4F814B02F
S3150000429CC4F814A002F06DFA81462046FFF7BCFD67
S315000042AC484602F06CFA23694BB102F062FA2169B6
S315000042BC81462046FFF71EFD484602F060FAE36889
S315000042CC13B121682046984700F060F8D844A5EB56
S315000042DC08058146054402F04CFA0136834622460F
S315000042ECC846A4E700221A70AEE7022000F08AF84E
S315000042FCB3E7BDE8F88F00BFBA230020C423002023
S3150000430CB0230020BC23002010B51C4B86B0596886
S3150000431C186803AA03C2197A53F8090F1170019091
S3150000432C9A8817489B79ADF8082001218DF80A3038
S3150000433C002401F009FE03A88DF80C408DF81040FE
S3150000434C03F0EAF901A901208DF8044003F0C4F941
S3150000435C0C4A536A23F4FF6323F00703536240F2BB
S3150000436CFF7313620120946003F0D0F9064B4FF0F3
S3150000437C8042C3F880211A6006B010BD3885030050
S3150000438CA00914000020044000E100E0014B9868ED
S3150000439C704700BF00200440114A9368516D926922
S315000043AC520704D4CA1A022A01D899420DD1C21A4C
S315000043BC012A98BF981C0A4BB0F1FF3F28BF013069
S315000043CC58655A6A42F004025A62064A137833B1A7
S315000043DC03490B6D43F002030B6500231370704702
S315000043EC002004403C1B00208207054A00F0010314
S315000043FC516A48BF43F004030B435362704700BF36
S3150000440C00200440830700F0010209D5074B012167
S3150000441C197007490B6D23F0030342F004020B6578
S3150000442C03494B6A23EA02034B6270473C1B00208C
S3150000443C00200440064B01289B6904D0022805D1B4
S3150000444CC3F38000704703F00100704700207047EB
S3150000445C0020044010B502F08CF9094A9369044611
S3150000446C590703F0010003F0070348BF40F00200B0
S3150000447C1362FFF7BDFE2046BDE8104002F07FB97F
S3150000448C00200440014801F0ABBE00BFA009140097
S3150000449C044B4FF04042DA621A6B22F040421A6328
S315000044AC704700BF00300E402C48F0B50022036860
S315000044BC2B4D114654592CB11E68AC18002E36D112
S315000044CC234601210832282AF4D101B1036025497B
S315000044DC254E0B680022144695592DB11F68B51848
S315000044EC002F2BD12B4601240832282AF4D104B1F3
S315000044FC0B6000681D4B026842B3DA69007922F042
S3150000450CFF020243DA611A6B42F0804209681A63B1
S3150000451C0A68164BF2B1DA69097922F47F4242EA4B
S3150000452C0122DA611A6B42F000421A63F0BD1E7961
S3150000453C2779B74284BF23460121C3E71F7995F833
S3150000454C04C0BC453CBF2B460124CDE71A6B22F0B8
S3150000455C8042DBE71A6B22F00042E6E7D423002008
S3150000456CE4230020D82300200C24002000300E4029
S3150000457C08B51B4B1B4801221A70002128222CF06F
S3150000458C6EFD2822002118482CF069FD174A184B9D
S3150000459C13601849184A13600A684B6DC2F3074238
S315000045ACFF2A02D0DBB2FF2B01D19023192213482C
S315000045BC02EB820103EBD1010160DB000521B3FBA9
S315000045CCF1F313440E4A1360FFF762FF0D4B012201
S315000045DCC3F880211A60FFF767FF002008BD00BFF3
S315000045ECC8230020E42300200C240020D423002020
S315000045FCDC230020B081E00FD8230020CC23002040
S3150000460CD023002000E100E008490B6A0A6ADBB2FD
S3150000461CD2B29342F9D1064A0520DB00B3FBF0F384
S3150000462C1068C31A03F3070040B2704700300E40FF
S3150000463CD023002070B5144C226B616A0A4011D548
S3150000464C124B1B681E6836B100251D605D60FFF7B6
S3150000465CDBFF2946B0474FF00043E362BDE87040EC
S3150000466CFFF722BF5300F9D5094B1B681C6834B100
S3150000467C00221A605A60FFF7C7FF0121A047024BC0
S3150000468C4FF08042DA62E9E700300E40D823002072
S3150000469CD4230020FFF7CEBF38B141B1013AB2F5B1
S315000046AC006F044838BF0020704703487047014824
S315000046BC704700BF037000F0027000F038B5044676
S315000046CC0D4602F056F8A28892B222B92A6002F080
S315000046DC56F8064838BD6388142202FB0343083398
S315000046EC2B6002F04CF80020F4E700BF0B7000F0D2
S315000046FC38B504460D4602F03CF8A3889BB223B9A4
S3150000470C2B6002F03CF80C4838BD6388E188142213
S3150000471C02FB034308332B6063885A1C92FBF1F3AC
S3150000472C01FB13239BB26380A388013B9BB2A3803E
S3150000473C02F025F80020E7E70B7000F0034610B5F1
S3150000474C93F832300068012B0AD102F061FE044660
S3150000475CFFF7CCFC24235843B0FBF4F0013010BD1A
S3150000476C03F012F9F3E70000427E30235343044A68
S3150000477C1A44437F03EBC2039B001868C0B2704710
S3150000478C1CA0104213B51D4A002352F82340617F2A
S3150000479C81420ED00133042BF7D102B010BD002894
S315000047ACFBD19DF80730002BF7D06068FFF76AF94C
S315000047BCF3E794F83130022BEFD12046FFF7D4FF04
S315000047CC637D2075022BE8D194F82E3003F0FF029E
S315000047DC002BE2D102A9606801F8012DFFF7B2F9AE
S315000047EC237D1BB194F82F30002BD8D0002384F8EE
S315000047FC2F306068FFF766F9CFE700BF342400203E
S3150000480C90F8323053B903680122DA601A69D0077E
S3150000481CFCD55A6F42F001025A677047012B0CD136
S3150000482C03685A6C9107FCD401225A609A68D20725
S3150000483CFCD55A6D42F001025A65704790F8323039
S3150000484C3BB903685A6F22F001025A670222DA60FA
S3150000485C7047012B09D103685A6C9207FCD45A6D28
S3150000486C22F001025A6502225A6070470F49104B1A
S3150000487C0A782AB9C3E90022C3E9022201220A7086
S3150000488C002253F82210814208D00132042AF8D1B2
S3150000489C002153F821201AB943F821000020704753
S315000048AC01310429F5D10348704700BF4424002088
S315000048BC34240020027000F010B50446FFF778F897
S315000048CC0021201DFFF702F8014608B1044810BD6F
S315000048DC04F10800FEF7FAFF0028F8D0F6E700BF4F
S315000048EC0E7000F0F8B5044617460D4601F041FF70
S315000048FCA388E2889A42064605D800233B6001F05D
S3150000490C3EFF1648F8BD2388142202FB03430833E6
S3150000491C05F1100C2A4603CA624518605960154603
S3150000492C03F10803F6D1106818602388E188142275
S3150000493C02FB034308333B6023885A1C92FBF1F3BA
S3150000494C01FB13239BB22380A38801339BB2304611
S3150000495CA38001F014FF0020D4E700BF0A7000F01A
S3150000496C38B5044601F005FF616B013905466163F4
S3150000497C19B9044A012003F0E7FB2846BDE8384084
S3150000498C01F0FDBE7485030037B591F832200B6833
S3150000499C012A0BBF9C681C69C4F3C004C4F3401401
S315000049AC0D46084634B1FFF7DBFF022385F8383095
S315000049BC03B030BDFFF7C2FECDE9004401462B46DD
S315000049CC024A0348FFF7DAFAF2E700BF95490000FE
S315000049DCC038002038B5044601F0CBFE636B0546A3
S315000049EC23B90121054A084603F0AEFB636B01337C
S315000049FC63632846BDE8384001F0C1BE74850300E8
S31500004A0C7FB5012380F82C3090F8323093B90C4ADC
S31500004A1C036803920022049002924A6801920122D2
S31500004A2C00920A68016980681C33FFF711F807B019
S31500004A3C5DF804FB012BEAD0002380F82C30F6E756
S31500004A4CD1510000F0B5012380F82D3090F83230AA
S31500004A5C89B004460F465BBB0568343501F089FE08
S31500004A6C0DF11F0106461948FFF76CFA40B99DF87F
S31500004A7C1F302BB11548FFF723FA2046FFF770FFBE
S31500004A8C3046012601F07BFE204684F83860FFF79D
S31500004A9CA1FF0F4B03930023049402937B68E168F8
S31500004AAC6068CDE900632A463B68FEF7B7FF0BE06A
S31500004ABC012B06D105682B6843F4005345F8283BB7
S31500004ACCCCE7002380F82D3009B0F0BDC0380020AB
S31500004ADCE14A0000F0B585B003A9906A1446FFF7C9
S31500004AECEDFD06462046FFF729FE00252346014626
S31500004AFCCDE900551A4A1B48FFF740FA1A4B9E425D
S31500004B0C1FD0039B1D619D6001F033FE039AD7688D
S31500004B1C064627B1D2E9002329462046B84703A901
S31500004B2CA06AFFF7E5FDA06A83889BB263B103A96F
S31500004B3CFFF7C4FD03992046FFF784FF304601F0CA
S31500004B4C1EFE012005B0F0BD84F82D3094F83230ED
S31500004B5C012B01BF2268136823F400531360EDE7A1
S31500004B6C95490000C03800200B7000F073B5044660
S31500004B7C0D46C07DE67E002934D001230422314641
S31500004B8C02F01CFB01230222217F207E02F016FB81
S31500004B9C94F83130022B16D100230122617F607EFE
S31500004BAC02F00CFB00230422A07EA17F02F006FB80
S31500004BBC0123627F607E01930093114602F0B2FAE4
S31500004BCC002002B070BD032BFAD100230122617FB5
S31500004BDC607E02F0F3FA00230422A17FA07E02F08D
S31500004BECEDFAEDE70B460A46314602F0E7FA2B469C
S31500004BFC2A46217F207E02F0E1FA94F83130022B0E
S31500004C0C10D12B462A46617F607E02F0D7FA2B46DE
S31500004C1C2A46A07EA17F02F0D1FA627F607E0195C2
S31500004C2C0123C9E7032BCBD12B462A46617F607E35
S31500004C3C02F0C4FA2B462A46CFE790F8323013B965
S31500004C4C036818697047012B1CD103689B6803F035
S31500004C5C0200DA0748BF40F00100590748BF40F090
S31500004C6C08001A0748BF40F02000D90648BF40F09C
S31500004C7C40009A0648BF40F080005B0603D540F41E
S31500004C8C00507047002070472DE9F3410D4604464D
S31500004C9C002879D001F06DFD012D06463BD1A36AA3
S31500004CAC9B889BB2002B3DD06068FEF72BFF002340
S31500004CBCA06A84F82D3083889BB273B101A9FFF7E3
S31500004CCCFDFC01996068364F0831FEF763FF019BC6
S31500004CDC1F61A06A83889BB253BB2046FFF7ADFFCA
S31500004CEC8304FAD5023D012D10D8A068FEF70AFF01
S31500004CFC0023606A84F82C3083889BB23BBB94F803
S31500004D0C3130032B02D02046FFF798FD304601F0D8
S31500004D1C36FD002009E0022D38D1636A9B889BB2D0
S31500004D2C002BDFD101F02BFD1E4802B0BDE8F0814F
S31500004D3C01A9FFF7DDFC019BD3F80C80B8F1000F3D
S31500004D4CC7D09B68002239462046C047C1E7694652
S31500004D5CFFF7B4FC0099A068114F0831FEF71AFF53
S31500004D6C009B1F61606A83889BB2002BC7D0694683
S31500004D7CFFF7BEFC009BDD68002DF3D09B6800227C
S31500004D8C39462046A847EDE70748CEE7032DA9D1BB
S31500004D9CA36A9B889BB2002B86D1636A80E700BF0F
S31500004DAC097000F0087000F0027000F0436A9888F1
S31500004DBCC0B270472DE9F3410546406A848898468F
S31500004DCCA4B200230E461746CDE900333CB1694622
S31500004DDCFFF774FC01A90446A868FEF7DBFE0099F0
S31500004DEC71B16CB94868019BC01A3860C8F80030BC
S31500004DFC0B6833602846FFF720FF02B0BDE8F08150
S31500004E0C0021C8F8001039603160F3E7836A98888E
S31500004E1CC0B270472DE9F3410546806A84889846EE
S31500004E2CA4B200230E461746CDE900333CB16946C1
S31500004E3CFFF744FC01A904466868FEF7ABFE00992F
S31500004E4C71B16CB94868019BC01A3860C8F800305B
S31500004E5C0B6833602846FFF7F0FE02B0BDE8F08120
S31500004E6C0021C8F8001039603160F3E7007D704707
S31500004E7C2DE9F04104460E461746FFF70DFC804619
S31500004E8C50BB092001F09AFC0546A26A93889BB296
S31500004E9C13B194F82E3013B394F8322022BB236846
S31500004EAC1D6915F0020533D0012384F83030002A31
S31500004EBC3FD13744BE42206836D103699E06FCD5E5
S31500004ECC55B994F83230002B42D123685A6F22F030
S31500004EDC02025A670822DA604046BDE8F081002DCE
S31500004EECD4D0FEF779FED0E7012A1BD123689D6842
S31500004EFC15F00205D8D1596C8807FCD404215960E9
S31500004F0C99688907FCD5596D41F002015965CBE7C3
S31500004F1C0421D96019698907FCD5596F41F0020142
S31500004F2C5967C1E70025BFE716F8011B02F0B6FD6D
S31500004F3CC0E7012AD0D13744B742206803D1836831
S31500004F4C1907FCD5BCE716F8011B02F095FAF3E736
S31500004F5C012BC1D123685A6C9207FCD45A6D22F0EE
S31500004F6C02025A6508225A60B6E7000010B50446DC
S31500004F7CB0B190F82E3033B990F83130022B0AD0FC
S31500004F8C6068FEF77FFD94F82E300133DBB284F8AF
S31500004F9C2E30002010BDFFF7E7FB0028F3D1EFE71A
S31500004FAC0048F7E7027000F010B50446D0B190F84F
S31500004FBC2E30CBB190F82E30012B06D190F8313033
S31500004FCC022B0AD06068FEF77DFD94F82E30013B6B
S31500004FDCDBB284F82E30002010BDFFF7C5FB00288D
S31500004FECF3D1EFE70148F7E70148F5E7027000F067
S31500004FFC057000F037B590F83150022D044618D1E3
S3150000500CA37F407D01229A40A37E30215943134B46
S3150000501C0B4410B903F1806303E0012805D103F1B9
S3150000502CC0631A60002003B030BD217D0029F6D183
S3150000503CF0E7012DF6D1037D73B911238DF80730F6
S3150000504CFFF794FF2A460DF107012046FFF710FFE4
S3150000505C2046FFF7A9FFE5E71323EFE70CA0004076
S3150000506C90F83130032B05D00229417518BF017514
S3150000507CFFF7C0BF00487047057000F037B504460F
S3150000508C002868D0354B1B7843B1354A002352F8BB
S3150000509C23108C424FD1002142F8231003212046C5
S315000050ACFFF7F2FD00212046FFF7DAFF002120462C
S315000050BCFFF75CFD94F83230002B40D123680A22AE
S315000050CCDA600021206A00F03FFF94F83130032BA0
S315000050DC03D00021607FFEF7DBFD6068FEF742FC23
S315000050ECA068FEF73FFCFEF71DFC626A00231380E6
S315000050FC53809380A26A13805380938001F039FB0E
S3150000510C0DF1070105461748FEF71CFF28B99DF857
S3150000511C073013B11348FEF7D3FE284601F02FFBD8
S3150000512C636B002B04DD012363632046FFF718FC39
S3150000513C002003B030BD0133042BA8D1AEE7012B00
S3150000514CBFD1206802F084F923685A6C9207FCD40C
S3150000515C0A225A60B5E70448EBE700BF4424002056
S3150000516C34240020C0380020027000F0F0B587B05F
S3150000517C04461646FFF790FA0546F0B9CDE9011636
S3150000518C04936A460E4B606A039601A90593FFF7D2
S3150000519CA9FB054688B994F82C3073B92046FFF75D
S315000051AC2FFB00992046FFF72BFC94F83130032B8C
S315000051BC03D025752046FFF71DFF284607B0F0BD26
S315000051CC017000F073B5506A01A91446FFF776FA20
S315000051DC334B98422FD094F83200019B002836D1DD
S315000051EC2268116C11F4007128D02E49196198604F
S315000051FC4FF40073936401F0BCFA0199CD6806462E
S3150000520C35B14A688B682046D31A0A680969A847DB
S3150000521C01A9606AFFF76CFA606A8588ADB2002D49
S3150000522C2FD001A9FFF74AFA01992046FFF7E8FBB0
S3150000523C304601F0A4FA012002B070BD106CC50511
S3150000524C1BD51948186199604FF48073D2E7012871
S3150000525C13D12268D16A11F0800106D01149196167
S3150000526C0021996080235363C5E7D06A400604D5B4
S3150000527C0D48186199604023F5E700221A619A607F
S3150000528CB9E7012323752046FFF7B4FE94F83130B5
S3150000529C84F82C50032BCBD02046FFF7CFFAC7E768
S315000052AC0B7000F00D7000F00C7000F02DE9F04161
S315000052BC094F04460D460FCF88B001AE0FC697E8CE
S315000052CC070086E80700002C00F0C68445B9034E9B
S315000052DC304608B0BDE8F08158850300037000F035
S315000052EC3C22002120462BF0BAFE2046FFF7BEFAE0
S315000052FC06460028ECD12B7C84F8313001222B6831
S3150000530C84F83820CC4A2360934284F8320040F06B
S3150000531C7F81CA4B2362CA4BE3604FF4402323615F
S3150000532CD5E906230026626216805680968084F89C
S3150000533C2C60A3621E805E809E806B6803936B89D3
S3150000534CADF81430AB89ADF81230AB7B8DF810305C
S3150000535C0121EB7BBB4884F82D6084F82F60052770
S3150000536C8DF816308DF8117000F0EEFD0121B6485F
S3150000537C00F0EAFD0121206A00F0E6FD01A928688B
S3150000538C8DF8046002F04CFBD5F800C06A7ADCF8A4
S3150000539C78002B7A20F4F85020F01F00104340EAD6
S315000053AC03200321CCF87800CCF874102068DFF8C1
S315000053BC88C2604540F06181BB4240F27981981FFA
S315000053CC042840F27781A3F10B00B84240F27481B5
S315000053DCA3F11100062808D9A3F11801062940F2F9
S315000053EC6D811F2B14BFFF213946042AE17540F24B
S315000053FC6781511F042940F26581A2F10A01052932
S3150000540C40F26281A2F11001062940F25F81A2F1FD
S3150000541C1701072940F25C811F2A14BFFF210021C6
S3150000542C2176002B58D0012B56D0022B54D0032BAF
S3150000543C52D0042B50D0052B4ED0062B00F05281A7
S3150000544C072B00F05181082B00F05081092B00F03E
S3150000545C4F810A2B00F04E810B2B00F059810C2B3F
S3150000546C00F038810D2B00F037810E2B00F03681C1
S3150000547C0F2B00F03581102B00F03481112B00F02E
S3150000548C2D81122B00F02C81132B00F02B81142B69
S3150000549C00F02A81152B00F02981162B00F02881AB
S315000054AC172B00F02781182B00F02681192B00F002
S315000054BC25811A2B00F024811B2B00F023811C2B39
S315000054CC00F022811D2B00F021811E2B00F0208183
S315000054DC1F2B0CBF0723FF23E376002A00F0A883BB
S315000054EC012A00F0A783022A00F09083032A00F019
S315000054FC8F83042A00F08E83052A00F08D83062AFA
S3150000550C00F08C83072A00F08B83082A00F08A832C
S3150000551C092A00F089830A2A00F06E830B2A00F010
S3150000552C6D830C2A00F06C830D2A00F06B830E2A17
S3150000553C00F06A830F2A00F06F83102A00F0628352
S3150000554C112A00F06183122A00F06683132A00F0F8
S3150000555C6583142A00F06483152A00F06383162AE7
S3150000556C00F06283172A00F06183182A00F060832A
S3150000557C192A00F05F831A2A00F048831B2A00F0D0
S3150000558C47831C2A00F046831D2A00F035831E2A09
S3150000559C00F034831F2A14BFFF23002323776B7C70
S315000055AC6376AB7C6377EB7CA3762B7DA3770121AB
S315000055BC2046FFF7DBFA064600287FF489AE01F099
S315000055CCD8F82F7C032F804640F036832B682A8C24
S315000055DCDA675A6E42F004025A665A6F42F030028B
S315000055EC5A6728684FF0FF3383642B7C032B0CBF60
S315000055FC0521042102F0DAF92B684FF44062DA60D7
S3150000560C2046FFF759F90646404601F0B8F85FE622
S3150000561C0E4A934206D10E4B23620E4BE3604FF4B7
S3150000562C50237CE60C4A93421CD10C4B23620C4B48
S3150000563CE3604FF4602372E6000001400042040070
S3150000564C01000C004041050000350A000004014031
